{
  "contractName": "BridgeBase",
  "abi": [
    {
      "anonymous": false,
      "inputs": [
        {
          "indexed": true,
          "internalType": "address",
          "name": "previousOwner",
          "type": "address"
        },
        {
          "indexed": true,
          "internalType": "address",
          "name": "newOwner",
          "type": "address"
        }
      ],
      "name": "OwnershipTransferred",
      "type": "event"
    },
    {
      "anonymous": false,
      "inputs": [
        {
          "indexed": false,
          "internalType": "address",
          "name": "account",
          "type": "address"
        }
      ],
      "name": "Paused",
      "type": "event"
    },
    {
      "anonymous": false,
      "inputs": [
        {
          "indexed": false,
          "internalType": "address",
          "name": "from",
          "type": "address"
        },
        {
          "indexed": false,
          "internalType": "address",
          "name": "to",
          "type": "address"
        },
        {
          "indexed": false,
          "internalType": "uint256",
          "name": "erc1155TokenId",
          "type": "uint256"
        },
        {
          "indexed": false,
          "internalType": "uint256",
          "name": "erc1155Amount",
          "type": "uint256"
        },
        {
          "indexed": false,
          "internalType": "address",
          "name": "erc721ContractAddress",
          "type": "address"
        },
        {
          "indexed": false,
          "internalType": "uint256",
          "name": "erc721TokenId",
          "type": "uint256"
        },
        {
          "indexed": false,
          "internalType": "uint256",
          "name": "date",
          "type": "uint256"
        },
        {
          "indexed": false,
          "internalType": "uint256",
          "name": "nonce",
          "type": "uint256"
        },
        {
          "indexed": true,
          "internalType": "enum BridgeBase.Step",
          "name": "step",
          "type": "uint8"
        }
      ],
      "name": "Transfer",
      "type": "event"
    },
    {
      "anonymous": false,
      "inputs": [
        {
          "indexed": false,
          "internalType": "address",
          "name": "account",
          "type": "address"
        }
      ],
      "name": "Unpaused",
      "type": "event"
    },
    {
      "inputs": [],
      "name": "nonce",
      "outputs": [
        {
          "internalType": "uint256",
          "name": "",
          "type": "uint256"
        }
      ],
      "stateMutability": "view",
      "type": "function"
    },
    {
      "inputs": [],
      "name": "owner",
      "outputs": [
        {
          "internalType": "address",
          "name": "",
          "type": "address"
        }
      ],
      "stateMutability": "view",
      "type": "function"
    },
    {
      "inputs": [],
      "name": "paused",
      "outputs": [
        {
          "internalType": "bool",
          "name": "",
          "type": "bool"
        }
      ],
      "stateMutability": "view",
      "type": "function"
    },
    {
      "inputs": [
        {
          "internalType": "uint256",
          "name": "",
          "type": "uint256"
        }
      ],
      "name": "processedNonces",
      "outputs": [
        {
          "internalType": "bool",
          "name": "",
          "type": "bool"
        }
      ],
      "stateMutability": "view",
      "type": "function"
    },
    {
      "inputs": [],
      "name": "renounceOwnership",
      "outputs": [],
      "stateMutability": "nonpayable",
      "type": "function"
    },
    {
      "inputs": [
        {
          "internalType": "address",
          "name": "newOwner",
          "type": "address"
        }
      ],
      "name": "transferOwnership",
      "outputs": [],
      "stateMutability": "nonpayable",
      "type": "function"
    },
    {
      "inputs": [
        {
          "internalType": "address",
          "name": "nftFractionsRepositoryAddress",
          "type": "address"
        }
      ],
      "name": "setNftFractionsRepository",
      "outputs": [],
      "stateMutability": "nonpayable",
      "type": "function"
    },
    {
      "inputs": [
        {
          "internalType": "address",
          "name": "to",
          "type": "address"
        },
        {
          "internalType": "uint256",
          "name": "erc1155TokenId",
          "type": "uint256"
        },
        {
          "internalType": "uint256",
          "name": "erc1155Amount",
          "type": "uint256"
        },
        {
          "internalType": "address",
          "name": "erc721ContractAddress",
          "type": "address"
        },
        {
          "internalType": "uint256",
          "name": "erc721TokenId",
          "type": "uint256"
        }
      ],
      "name": "burn",
      "outputs": [],
      "stateMutability": "nonpayable",
      "type": "function"
    },
    {
      "inputs": [
        {
          "internalType": "address",
          "name": "from",
          "type": "address"
        },
        {
          "internalType": "address",
          "name": "to",
          "type": "address"
        },
        {
          "internalType": "address",
          "name": "erc721ContractAddress",
          "type": "address"
        },
        {
          "internalType": "uint256",
          "name": "erc721TokenId",
          "type": "uint256"
        },
        {
          "internalType": "uint256",
          "name": "erc1155TokenId",
          "type": "uint256"
        },
        {
          "internalType": "uint256",
          "name": "erc1155Amount",
          "type": "uint256"
        },
        {
          "internalType": "uint256",
          "name": "otherChainNonce",
          "type": "uint256"
        }
      ],
      "name": "mint",
      "outputs": [],
      "stateMutability": "nonpayable",
      "type": "function"
    },
    {
      "inputs": [],
      "name": "pause",
      "outputs": [],
      "stateMutability": "nonpayable",
      "type": "function"
    }
  ],
  "bytecode": "0x608060405234801561001057600080fd5b5060006100216100de60201b60201c565b9050806000806101000a81548173ffffffffffffffffffffffffffffffffffffffff021916908373ffffffffffffffffffffffffffffffffffffffff1602179055508073ffffffffffffffffffffffffffffffffffffffff16600073ffffffffffffffffffffffffffffffffffffffff167f8be0079c531659141344cd1fd0a4f28419497f9722a3daafe3b4186f6b6457e060405160405180910390a35060008060146101000a81548160ff0219169083151502179055506100e6565b600033905090565b611309806100f56000396000f3fe608060405234801561001057600080fd5b506004361061009e5760003560e01c806391dae5191161006657806391dae5191461010f578063a7954f451461013f578063affed0e01461015b578063f2fde38b14610179578063fbe27674146101955761009e565b806356127987146100a35780635c975abb146100bf578063715018a6146100dd5780638456cb59146100e75780638da5cb5b146100f1575b600080fd5b6100bd60048036038101906100b89190610cd0565b6101b1565b005b6100c761041e565b6040516100d491906110a7565b60405180910390f35b6100e5610434565b005b6100ef61056e565b005b6100f96105f4565b6040516101069190610f92565b60405180910390f35b61012960048036038101906101249190610d47565b61061d565b60405161013691906110a7565b60405180910390f35b61015960048036038101906101549190610c32565b61063d565b005b6101636108b0565b6040516101709190611182565b60405180910390f35b610193600480360381019061018e9190610c09565b6108b6565b005b6101af60048036038101906101aa9190610c09565b610a5f565b005b6101b961041e565b156101f9576040517f08c379a00000000000000000000000000000000000000000000000000000000081526004016101f090611162565b60405180910390fd5b6000600360009054906101000a900473ffffffffffffffffffffffffffffffffffffffff1673ffffffffffffffffffffffffffffffffffffffff1662fdd58e33876040518363ffffffff1660e01b815260040161025792919061102b565b60206040518083038186803b15801561026f57600080fd5b505afa158015610283573d6000803e3d6000fd5b505050506040513d601f19601f820116820180604052508101906102a79190610d70565b9050838110156102ec576040517f08c379a00000000000000000000000000000000000000000000000000000000081526004016102e390611142565b60405180910390fd5b600360009054906101000a900473ffffffffffffffffffffffffffffffffffffffff1673ffffffffffffffffffffffffffffffffffffffff1663749388c48686336040518463ffffffff1660e01b815260040161034b9392919061119d565b600060405180830381600087803b15801561036557600080fd5b505af1158015610379573d6000803e3d6000fd5b50505050600060018111156103b7577f4e487b7100000000000000000000000000000000000000000000000000000000600052602160045260246000fd5b7fe0614149b0f8914d4a3776f5fb7b22c3af60e59e68ba526576a88cb94dbf380a338888888888426001546040516103f6989796959493929190610fad565b60405180910390a2600160008154809291906104119061122d565b9190505550505050505050565b60008060149054906101000a900460ff16905090565b61043c610b1f565b73ffffffffffffffffffffffffffffffffffffffff1661045a6105f4565b73ffffffffffffffffffffffffffffffffffffffff16146104b0576040517f08c379a00000000000000000000000000000000000000000000000000000000081526004016104a790611122565b60405180910390fd5b600073ffffffffffffffffffffffffffffffffffffffff1660008054906101000a900473ffffffffffffffffffffffffffffffffffffffff1673ffffffffffffffffffffffffffffffffffffffff167f8be0079c531659141344cd1fd0a4f28419497f9722a3daafe3b4186f6b6457e060405160405180910390a360008060006101000a81548173ffffffffffffffffffffffffffffffffffffffff021916908373ffffffffffffffffffffffffffffffffffffffff160217905550565b610576610b1f565b73ffffffffffffffffffffffffffffffffffffffff166105946105f4565b73ffffffffffffffffffffffffffffffffffffffff16146105ea576040517f08c379a00000000000000000000000000000000000000000000000000000000081526004016105e190611122565b60405180910390fd5b6105f2610b27565b565b60008060009054906101000a900473ffffffffffffffffffffffffffffffffffffffff16905090565b60026020528060005260406000206000915054906101000a900460ff1681565b610645610b1f565b73ffffffffffffffffffffffffffffffffffffffff166106636105f4565b73ffffffffffffffffffffffffffffffffffffffff16146106b9576040517f08c379a00000000000000000000000000000000000000000000000000000000081526004016106b090611122565b60405180910390fd5b6106c161041e565b15610701576040517f08c379a00000000000000000000000000000000000000000000000000000000081526004016106f890611162565b60405180910390fd5b600015156002600083815260200190815260200160002060009054906101000a900460ff16151514610768576040517f08c379a000000000000000000000000000000000000000000000000000000000815260040161075f90611102565b60405180910390fd5b60016002600083815260200190815260200160002060006101000a81548160ff021916908315150217905550600360009054906101000a900473ffffffffffffffffffffffffffffffffffffffff1673ffffffffffffffffffffffffffffffffffffffff16638cb75cad868686868b6040518663ffffffff1660e01b81526004016107f7959493929190611054565b600060405180830381600087803b15801561081157600080fd5b505af1158015610825573d6000803e3d6000fd5b50505050600180811115610862577f4e487b7100000000000000000000000000000000000000000000000000000000600052602160045260246000fd5b7fe0614149b0f8914d4a3776f5fb7b22c3af60e59e68ba526576a88cb94dbf380a888886868a8a428960405161089f989796959493929190610fad565b60405180910390a250505050505050565b60015481565b6108be610b1f565b73ffffffffffffffffffffffffffffffffffffffff166108dc6105f4565b73ffffffffffffffffffffffffffffffffffffffff1614610932576040517f08c379a000000000000000000000000000000000000000000000000000000000815260040161092990611122565b60405180910390fd5b600073ffffffffffffffffffffffffffffffffffffffff168173ffffffffffffffffffffffffffffffffffffffff1614156109a2576040517f08c379a0000000000000000000000000000000000000000000000000000000008152600401610999906110c2565b60405180910390fd5b8073ffffffffffffffffffffffffffffffffffffffff1660008054906101000a900473ffffffffffffffffffffffffffffffffffffffff1673ffffffffffffffffffffffffffffffffffffffff167f8be0079c531659141344cd1fd0a4f28419497f9722a3daafe3b4186f6b6457e060405160405180910390a3806000806101000a81548173ffffffffffffffffffffffffffffffffffffffff021916908373ffffffffffffffffffffffffffffffffffffffff16021790555050565b610a67610b1f565b73ffffffffffffffffffffffffffffffffffffffff16610a856105f4565b73ffffffffffffffffffffffffffffffffffffffff1614610adb576040517f08c379a0000000000000000000000000000000000000000000000000000000008152600401610ad290611122565b60405180910390fd5b80600360006101000a81548173ffffffffffffffffffffffffffffffffffffffff021916908373ffffffffffffffffffffffffffffffffffffffff16021790555050565b600033905090565b610b2f61041e565b15610b6f576040517f08c379a0000000000000000000000000000000000000000000000000000000008152600401610b66906110e2565b60405180910390fd5b6001600060146101000a81548160ff0219169083151502179055507f62e78cea01bee320cd4e420270b5ea74000d11b0c9f74754ebdbfc544b05a258610bb3610b1f565b604051610bc09190610f92565b60405180910390a1565b600081359050610bd9816112a5565b92915050565b600081359050610bee816112bc565b92915050565b600081519050610c03816112bc565b92915050565b600060208284031215610c1b57600080fd5b6000610c2984828501610bca565b91505092915050565b600080600080600080600060e0888a031215610c4d57600080fd5b6000610c5b8a828b01610bca565b9750506020610c6c8a828b01610bca565b9650506040610c7d8a828b01610bca565b9550506060610c8e8a828b01610bdf565b9450506080610c9f8a828b01610bdf565b93505060a0610cb08a828b01610bdf565b92505060c0610cc18a828b01610bdf565b91505092959891949750929550565b600080600080600060a08688031215610ce857600080fd5b6000610cf688828901610bca565b9550506020610d0788828901610bdf565b9450506040610d1888828901610bdf565b9350506060610d2988828901610bca565b9250506080610d3a88828901610bdf565b9150509295509295909350565b600060208284031215610d5957600080fd5b6000610d6784828501610bdf565b91505092915050565b600060208284031215610d8257600080fd5b6000610d9084828501610bf4565b91505092915050565b610da2816111e5565b82525050565b610db1816111f7565b82525050565b6000610dc46026836111d4565b91507f4f776e61626c653a206e6577206f776e657220697320746865207a65726f206160008301527f64647265737300000000000000000000000000000000000000000000000000006020830152604082019050919050565b6000610e2a6010836111d4565b91507f5061757361626c653a20706175736564000000000000000000000000000000006000830152602082019050919050565b6000610e6a601a836111d4565b91507f7472616e7366657220616c72656164792070726f6365737365640000000000006000830152602082019050919050565b6000610eaa6020836111d4565b91507f4f776e61626c653a2063616c6c6572206973206e6f7420746865206f776e65726000830152602082019050919050565b6000610eea6029836111d4565b91507f6d6573736167652073656e646572277320746f6b656e2062616c616e6365206960008301527f7320746f6f206c6f7700000000000000000000000000000000000000000000006020830152604082019050919050565b6000610f506018836111d4565b91507f4e6f7420616c6c6f776564207768696c652070617573656400000000000000006000830152602082019050919050565b610f8c81611223565b82525050565b6000602082019050610fa76000830184610d99565b92915050565b600061010082019050610fc3600083018b610d99565b610fd0602083018a610d99565b610fdd6040830189610f83565b610fea6060830188610f83565b610ff76080830187610d99565b61100460a0830186610f83565b61101160c0830185610f83565b61101e60e0830184610f83565b9998505050505050505050565b60006040820190506110406000830185610d99565b61104d6020830184610f83565b9392505050565b600060a0820190506110696000830188610d99565b6110766020830187610f83565b6110836040830186610f83565b6110906060830185610f83565b61109d6080830184610d99565b9695505050505050565b60006020820190506110bc6000830184610da8565b92915050565b600060208201905081810360008301526110db81610db7565b9050919050565b600060208201905081810360008301526110fb81610e1d565b9050919050565b6000602082019050818103600083015261111b81610e5d565b9050919050565b6000602082019050818103600083015261113b81610e9d565b9050919050565b6000602082019050818103600083015261115b81610edd565b9050919050565b6000602082019050818103600083015261117b81610f43565b9050919050565b60006020820190506111976000830184610f83565b92915050565b60006060820190506111b26000830186610f83565b6111bf6020830185610f83565b6111cc6040830184610d99565b949350505050565b600082825260208201905092915050565b60006111f082611203565b9050919050565b60008115159050919050565b600073ffffffffffffffffffffffffffffffffffffffff82169050919050565b6000819050919050565b600061123882611223565b91507fffffffffffffffffffffffffffffffffffffffffffffffffffffffffffffffff82141561126b5761126a611276565b5b600182019050919050565b7f4e487b7100000000000000000000000000000000000000000000000000000000600052601160045260246000fd5b6112ae816111e5565b81146112b957600080fd5b50565b6112c581611223565b81146112d057600080fd5b5056fea264697066735822122040702f99e4ff451a048186a9eebe9a110cc502776e2ec0032ce68764871665c564736f6c63430008000033",
  "immutableReferences": {},
  "source": "// SPDX-License-Identifier: MIT\n\npragma solidity ^0.8.0;\n\nimport \"@openzeppelin/contracts/access/Ownable.sol\";\nimport \"@openzeppelin/contracts/security/Pausable.sol\";\nimport \"./NftFractionsRepository.sol\";\n\ncontract BridgeBase is Ownable, Pausable {\n    uint256 public nonce;\n    mapping(uint256 => bool) public processedNonces;\n    NftFractionsRepository nftFractionsRepository;\n\n    enum Step {Burn, Mint}\n\n    event Transfer(\n        address from,\n        address to,\n        uint256 erc1155TokenId,\n        uint256 erc1155Amount,\n        address erc721ContractAddress,\n        uint256 erc721TokenId,\n        uint256 date,\n        uint256 nonce,\n        Step indexed step\n    );\n\n    function setNftFractionsRepository(address nftFractionsRepositoryAddress)\n        public\n        onlyOwner()\n    {\n        nftFractionsRepository = NftFractionsRepository(\n            nftFractionsRepositoryAddress\n        );\n    }\n\n    /**\n     * @dev someone transfers can transfer his tokens to the other chain by calling this function.\n     * It will burn the amount in this chain by calling the nftFractionsRepository and emits an event so the bridge API can\n     * listen to that event and call the mint function of the bridge on the other chain.\n     *\n     * Requirements:\n     * - balance has to be higher then the amount to transfer\n     * - the contract is not paused\n     */\n    function burn(\n        address to,\n        uint256 erc1155TokenId,\n        uint256 erc1155Amount,\n        address erc721ContractAddress,\n        uint256 erc721TokenId\n    ) external {\n        require(!paused(), \"Not allowed while paused\");\n        uint256 transfererBalance =\n            nftFractionsRepository.balanceOf(msg.sender, erc1155TokenId);\n        require(\n            transfererBalance >= erc1155Amount,\n            \"message sender's token balance is too low\"\n        );\n        nftFractionsRepository.burn(erc1155TokenId, erc1155Amount, msg.sender);\n        emit Transfer(\n            msg.sender,\n            to,\n            erc1155TokenId,\n            erc1155Amount,\n            erc721ContractAddress,\n            erc721TokenId,\n            block.timestamp,\n            nonce,\n            Step.Burn\n        );\n        nonce++;\n    }\n\n    /**\n     * @dev when someone initiated a transfer on the other chain and the bridge API detects that by catching the Transfer event\n     * then the bridge API will call this mint function.\n     * The bridge API is the owner of the bridge contract.\n     *\n     * Requirements:\n     * - balance has to be higher then the amount to transfer\n     * - the contract is not paused\n     */\n    function mint(\n        address from,\n        address to,\n        address erc721ContractAddress,\n        uint256 erc721TokenId,\n        uint256 erc1155TokenId,\n        uint256 erc1155Amount,\n        uint256 otherChainNonce\n    ) external onlyOwner() {\n        require(!paused(), \"Not allowed while paused\");\n        require(\n            processedNonces[otherChainNonce] == false,\n            \"transfer already processed\"\n        );\n        processedNonces[otherChainNonce] = true;\n        nftFractionsRepository.mint(\n            erc721ContractAddress,\n            erc721TokenId,\n            erc1155TokenId,\n            erc1155Amount,\n            to\n        );\n        emit Transfer(\n            from,\n            to,\n            erc1155TokenId,\n            erc1155Amount,\n            erc721ContractAddress,\n            erc721TokenId,\n            block.timestamp,\n            otherChainNonce,\n            Step.Mint\n        );\n    }\n\n    function pause() public onlyOwner() {\n        _pause();\n    }\n}\n",
  "sourcePath": "/Users/szabolcs/Documents/Personal/Szakmai/Ethereum/nft-fractions-dex/contracts/BridgeBase.sol",
  "compiler": {
    "name": "solc",
    "version": "0.8.0+commit.c7dfd78e.Emscripten.clang"
  },
  "schemaVersion": "3.3.4",
  "updatedAt": "2021-06-07T14:34:04.267Z",
  "devdoc": {
    "kind": "dev",
    "methods": {
      "burn(address,uint256,uint256,address,uint256)": {
        "details": "someone transfers can transfer his tokens to the other chain by calling this function. It will burn the amount in this chain by calling the nftFractionsRepository and emits an event so the bridge API can listen to that event and call the mint function of the bridge on the other chain. Requirements: - balance has to be higher then the amount to transfer - the contract is not paused"
      },
      "mint(address,address,address,uint256,uint256,uint256,uint256)": {
        "details": "when someone initiated a transfer on the other chain and the bridge API detects that by catching the Transfer event then the bridge API will call this mint function. The bridge API is the owner of the bridge contract. Requirements: - balance has to be higher then the amount to transfer - the contract is not paused"
      },
      "owner()": {
        "details": "Returns the address of the current owner."
      },
      "paused()": {
        "details": "Returns true if the contract is paused, and false otherwise."
      },
      "renounceOwnership()": {
        "details": "Leaves the contract without owner. It will not be possible to call `onlyOwner` functions anymore. Can only be called by the current owner. NOTE: Renouncing ownership will leave the contract without an owner, thereby removing any functionality that is only available to the owner."
      },
      "transferOwnership(address)": {
        "details": "Transfers ownership of the contract to a new account (`newOwner`). Can only be called by the current owner."
      }
    },
    "version": 1
  },
  "userdoc": {
    "kind": "user",
    "methods": {},
    "version": 1
  }
}