{
  "contractName": "BscBridge",
  "abi": [
    {
      "anonymous": false,
      "inputs": [
        {
          "indexed": true,
          "internalType": "address",
          "name": "previousOwner",
          "type": "address"
        },
        {
          "indexed": true,
          "internalType": "address",
          "name": "newOwner",
          "type": "address"
        }
      ],
      "name": "OwnershipTransferred",
      "type": "event"
    },
    {
      "anonymous": false,
      "inputs": [
        {
          "indexed": false,
          "internalType": "address",
          "name": "account",
          "type": "address"
        }
      ],
      "name": "Paused",
      "type": "event"
    },
    {
      "anonymous": false,
      "inputs": [
        {
          "indexed": false,
          "internalType": "address",
          "name": "from",
          "type": "address"
        },
        {
          "indexed": false,
          "internalType": "address",
          "name": "to",
          "type": "address"
        },
        {
          "indexed": false,
          "internalType": "uint256",
          "name": "erc1155TokenId",
          "type": "uint256"
        },
        {
          "indexed": false,
          "internalType": "uint256",
          "name": "erc1155Amount",
          "type": "uint256"
        },
        {
          "indexed": false,
          "internalType": "uint256",
          "name": "totalFractionsAmount",
          "type": "uint256"
        },
        {
          "indexed": false,
          "internalType": "address",
          "name": "erc721ContractAddress",
          "type": "address"
        },
        {
          "indexed": false,
          "internalType": "uint256",
          "name": "erc721TokenId",
          "type": "uint256"
        },
        {
          "indexed": false,
          "internalType": "string",
          "name": "tokenURI",
          "type": "string"
        },
        {
          "indexed": false,
          "internalType": "uint256",
          "name": "date",
          "type": "uint256"
        },
        {
          "indexed": false,
          "internalType": "uint256",
          "name": "nonce",
          "type": "uint256"
        },
        {
          "indexed": true,
          "internalType": "enum BridgeBase.Step",
          "name": "step",
          "type": "uint8"
        }
      ],
      "name": "Transfer",
      "type": "event"
    },
    {
      "anonymous": false,
      "inputs": [
        {
          "indexed": false,
          "internalType": "address",
          "name": "account",
          "type": "address"
        }
      ],
      "name": "Unpaused",
      "type": "event"
    },
    {
      "inputs": [
        {
          "internalType": "address",
          "name": "to",
          "type": "address"
        },
        {
          "internalType": "uint256",
          "name": "erc1155TokenId",
          "type": "uint256"
        },
        {
          "internalType": "uint256",
          "name": "erc1155Amount",
          "type": "uint256"
        }
      ],
      "name": "burn",
      "outputs": [],
      "stateMutability": "nonpayable",
      "type": "function"
    },
    {
      "inputs": [
        {
          "internalType": "address",
          "name": "from",
          "type": "address"
        },
        {
          "internalType": "address",
          "name": "to",
          "type": "address"
        },
        {
          "internalType": "address",
          "name": "erc721ContractAddress",
          "type": "address"
        },
        {
          "internalType": "uint256",
          "name": "erc721TokenId",
          "type": "uint256"
        },
        {
          "internalType": "uint256",
          "name": "erc1155TokenId",
          "type": "uint256"
        },
        {
          "internalType": "uint256",
          "name": "erc1155Amount",
          "type": "uint256"
        },
        {
          "internalType": "uint256",
          "name": "totalFractionsAmount",
          "type": "uint256"
        },
        {
          "internalType": "uint256",
          "name": "otherChainNonce",
          "type": "uint256"
        },
        {
          "internalType": "string",
          "name": "tokenURI",
          "type": "string"
        }
      ],
      "name": "mint",
      "outputs": [],
      "stateMutability": "nonpayable",
      "type": "function"
    },
    {
      "inputs": [],
      "name": "nonce",
      "outputs": [
        {
          "internalType": "uint256",
          "name": "",
          "type": "uint256"
        }
      ],
      "stateMutability": "view",
      "type": "function",
      "constant": true
    },
    {
      "inputs": [],
      "name": "owner",
      "outputs": [
        {
          "internalType": "address",
          "name": "",
          "type": "address"
        }
      ],
      "stateMutability": "view",
      "type": "function",
      "constant": true
    },
    {
      "inputs": [],
      "name": "pause",
      "outputs": [],
      "stateMutability": "nonpayable",
      "type": "function"
    },
    {
      "inputs": [],
      "name": "paused",
      "outputs": [
        {
          "internalType": "bool",
          "name": "",
          "type": "bool"
        }
      ],
      "stateMutability": "view",
      "type": "function",
      "constant": true
    },
    {
      "inputs": [
        {
          "internalType": "uint256",
          "name": "",
          "type": "uint256"
        }
      ],
      "name": "processedNonces",
      "outputs": [
        {
          "internalType": "bool",
          "name": "",
          "type": "bool"
        }
      ],
      "stateMutability": "view",
      "type": "function",
      "constant": true
    },
    {
      "inputs": [],
      "name": "renounceOwnership",
      "outputs": [],
      "stateMutability": "nonpayable",
      "type": "function"
    },
    {
      "inputs": [
        {
          "internalType": "address",
          "name": "nftFractionsRepositoryAddress",
          "type": "address"
        }
      ],
      "name": "setNftFractionsRepository",
      "outputs": [],
      "stateMutability": "nonpayable",
      "type": "function"
    },
    {
      "inputs": [
        {
          "internalType": "address",
          "name": "newOwner",
          "type": "address"
        }
      ],
      "name": "transferOwnership",
      "outputs": [],
      "stateMutability": "nonpayable",
      "type": "function"
    }
  ],
  "bytecode": "0x608060405234801561001057600080fd5b5060006100216100de60201b60201c565b9050806000806101000a81548173ffffffffffffffffffffffffffffffffffffffff021916908373ffffffffffffffffffffffffffffffffffffffff1602179055508073ffffffffffffffffffffffffffffffffffffffff16600073ffffffffffffffffffffffffffffffffffffffff167f8be0079c531659141344cd1fd0a4f28419497f9722a3daafe3b4186f6b6457e060405160405180910390a35060008060146101000a81548160ff0219169083151502179055506100e6565b600033905090565b6116c7806100f56000396000f3fe608060405234801561001057600080fd5b506004361061009e5760003560e01c8063affed0e011610066578063affed0e014610123578063e92cb24214610141578063f2fde38b1461015d578063f5298aca14610179578063fbe27674146101955761009e565b80635c975abb146100a3578063715018a6146100c15780638456cb59146100cb5780638da5cb5b146100d557806391dae519146100f3575b600080fd5b6100ab6101b1565b6040516100b89190611377565b60405180910390f35b6100c96101c7565b005b6100d3610301565b005b6100dd610387565b6040516100ea919061121a565b60405180910390f35b61010d60048036038101906101089190610f96565b6103b0565b60405161011a9190611377565b60405180910390f35b61012b6103d0565b6040516101389190611452565b60405180910390f35b61015b60048036038101906101569190610dee565b6103d6565b005b61017760048036038101906101729190610dc5565b610653565b005b610193600480360381019061018e9190610ecc565b6107fc565b005b6101af60048036038101906101aa9190610dc5565b610b36565b005b60008060149054906101000a900460ff16905090565b6101cf610bf6565b73ffffffffffffffffffffffffffffffffffffffff166101ed610387565b73ffffffffffffffffffffffffffffffffffffffff1614610243576040517f08c379a000000000000000000000000000000000000000000000000000000000815260040161023a906113f2565b60405180910390fd5b600073ffffffffffffffffffffffffffffffffffffffff1660008054906101000a900473ffffffffffffffffffffffffffffffffffffffff1673ffffffffffffffffffffffffffffffffffffffff167f8be0079c531659141344cd1fd0a4f28419497f9722a3daafe3b4186f6b6457e060405160405180910390a360008060006101000a81548173ffffffffffffffffffffffffffffffffffffffff021916908373ffffffffffffffffffffffffffffffffffffffff160217905550565b610309610bf6565b73ffffffffffffffffffffffffffffffffffffffff16610327610387565b73ffffffffffffffffffffffffffffffffffffffff161461037d576040517f08c379a0000000000000000000000000000000000000000000000000000000008152600401610374906113f2565b60405180910390fd5b610385610bfe565b565b60008060009054906101000a900473ffffffffffffffffffffffffffffffffffffffff16905090565b60026020528060005260406000206000915054906101000a900460ff1681565b60015481565b6103de610bf6565b73ffffffffffffffffffffffffffffffffffffffff166103fc610387565b73ffffffffffffffffffffffffffffffffffffffff1614610452576040517f08c379a0000000000000000000000000000000000000000000000000000000008152600401610449906113f2565b60405180910390fd5b61045a6101b1565b1561049a576040517f08c379a000000000000000000000000000000000000000000000000000000000815260040161049190611432565b60405180910390fd5b600015156002600084815260200190815260200160002060009054906101000a900460ff16151514610501576040517f08c379a00000000000000000000000000000000000000000000000000000000081526004016104f8906113d2565b60405180910390fd5b60016002600084815260200190815260200160002060006101000a81548160ff021916908315150217905550600360009054906101000a900473ffffffffffffffffffffffffffffffffffffffff1673ffffffffffffffffffffffffffffffffffffffff1663971a584788888888888e886040518863ffffffff1660e01b81526004016105949796959493929190611301565b600060405180830381600087803b1580156105ae57600080fd5b505af11580156105c2573d6000803e3d6000fd5b505050506001808111156105ff577f4e487b7100000000000000000000000000000000000000000000000000000000600052602160045260246000fd5b7fe4ce5a0794da1b69234cba98c4c0ec4919904aa312a89d31466539a628e1dede8a8a8888888d8d89428c6040516106409a99989796959493929190611235565b60405180910390a2505050505050505050565b61065b610bf6565b73ffffffffffffffffffffffffffffffffffffffff16610679610387565b73ffffffffffffffffffffffffffffffffffffffff16146106cf576040517f08c379a00000000000000000000000000000000000000000000000000000000081526004016106c6906113f2565b60405180910390fd5b600073ffffffffffffffffffffffffffffffffffffffff168173ffffffffffffffffffffffffffffffffffffffff16141561073f576040517f08c379a000000000000000000000000000000000000000000000000000000000815260040161073690611392565b60405180910390fd5b8073ffffffffffffffffffffffffffffffffffffffff1660008054906101000a900473ffffffffffffffffffffffffffffffffffffffff1673ffffffffffffffffffffffffffffffffffffffff167f8be0079c531659141344cd1fd0a4f28419497f9722a3daafe3b4186f6b6457e060405160405180910390a3806000806101000a81548173ffffffffffffffffffffffffffffffffffffffff021916908373ffffffffffffffffffffffffffffffffffffffff16021790555050565b6108046101b1565b15610844576040517f08c379a000000000000000000000000000000000000000000000000000000000815260040161083b90611432565b60405180910390fd5b6000600360009054906101000a900473ffffffffffffffffffffffffffffffffffffffff1673ffffffffffffffffffffffffffffffffffffffff1662fdd58e33856040518363ffffffff1660e01b81526004016108a29291906112d8565b60206040518083038186803b1580156108ba57600080fd5b505afa1580156108ce573d6000803e3d6000fd5b505050506040513d601f19601f820116820180604052508101906108f29190610fbf565b905081811015610937576040517f08c379a000000000000000000000000000000000000000000000000000000000815260040161092e90611412565b60405180910390fd5b60008060006060600360009054906101000a900473ffffffffffffffffffffffffffffffffffffffff1673ffffffffffffffffffffffffffffffffffffffff1663b09afec1886040518263ffffffff1660e01b81526004016109999190611452565b60006040518083038186803b1580156109b157600080fd5b505afa1580156109c5573d6000803e3d6000fd5b505050506040513d6000823e3d601f19601f820116820180604052508101906109ee9190610f1b565b80945081955082965083975050505050600360009054906101000a900473ffffffffffffffffffffffffffffffffffffffff1673ffffffffffffffffffffffffffffffffffffffff1663749388c48888336040518463ffffffff1660e01b8152600401610a5d9392919061146d565b600060405180830381600087803b158015610a7757600080fd5b505af1158015610a8b573d6000803e3d6000fd5b5050505060006001811115610ac9577f4e487b7100000000000000000000000000000000000000000000000000000000600052602160045260246000fd5b7fe4ce5a0794da1b69234cba98c4c0ec4919904aa312a89d31466539a628e1dede338a8a8a878a8a8942600154604051610b0c9a99989796959493929190611235565b60405180910390a260016000815480929190610b27906115ab565b91905055505050505050505050565b610b3e610bf6565b73ffffffffffffffffffffffffffffffffffffffff16610b5c610387565b73ffffffffffffffffffffffffffffffffffffffff1614610bb2576040517f08c379a0000000000000000000000000000000000000000000000000000000008152600401610ba9906113f2565b60405180910390fd5b80600360006101000a81548173ffffffffffffffffffffffffffffffffffffffff021916908373ffffffffffffffffffffffffffffffffffffffff16021790555050565b600033905090565b610c066101b1565b15610c46576040517f08c379a0000000000000000000000000000000000000000000000000000000008152600401610c3d906113b2565b60405180910390fd5b6001600060146101000a81548160ff0219169083151502179055507f62e78cea01bee320cd4e420270b5ea74000d11b0c9f74754ebdbfc544b05a258610c8a610bf6565b604051610c97919061121a565b60405180910390a1565b6000610cb4610caf846114d5565b6114a4565b905082815260208101848484011115610ccc57600080fd5b610cd7848285611569565b509392505050565b6000610cf2610ced846114d5565b6114a4565b905082815260208101848484011115610d0a57600080fd5b610d15848285611578565b509392505050565b600081359050610d2c81611663565b92915050565b600081519050610d4181611663565b92915050565b600082601f830112610d5857600080fd5b8135610d68848260208601610ca1565b91505092915050565b600082601f830112610d8257600080fd5b8151610d92848260208601610cdf565b91505092915050565b600081359050610daa8161167a565b92915050565b600081519050610dbf8161167a565b92915050565b600060208284031215610dd757600080fd5b6000610de584828501610d1d565b91505092915050565b60008060008060008060008060006101208a8c031215610e0d57600080fd5b6000610e1b8c828d01610d1d565b9950506020610e2c8c828d01610d1d565b9850506040610e3d8c828d01610d1d565b9750506060610e4e8c828d01610d9b565b9650506080610e5f8c828d01610d9b565b95505060a0610e708c828d01610d9b565b94505060c0610e818c828d01610d9b565b93505060e0610e928c828d01610d9b565b9250506101008a013567ffffffffffffffff811115610eb057600080fd5b610ebc8c828d01610d47565b9150509295985092959850929598565b600080600060608486031215610ee157600080fd5b6000610eef86828701610d1d565b9350506020610f0086828701610d9b565b9250506040610f1186828701610d9b565b9150509250925092565b60008060008060808587031215610f3157600080fd5b6000610f3f87828801610d32565b9450506020610f5087828801610db0565b9350506040610f6187828801610db0565b925050606085015167ffffffffffffffff811115610f7e57600080fd5b610f8a87828801610d71565b91505092959194509250565b600060208284031215610fa857600080fd5b6000610fb684828501610d9b565b91505092915050565b600060208284031215610fd157600080fd5b6000610fdf84828501610db0565b91505092915050565b610ff181611521565b82525050565b61100081611533565b82525050565b600061101182611505565b61101b8185611510565b935061102b818560208601611578565b61103481611652565b840191505092915050565b600061104c602683611510565b91507f4f776e61626c653a206e6577206f776e657220697320746865207a65726f206160008301527f64647265737300000000000000000000000000000000000000000000000000006020830152604082019050919050565b60006110b2601083611510565b91507f5061757361626c653a20706175736564000000000000000000000000000000006000830152602082019050919050565b60006110f2601a83611510565b91507f7472616e7366657220616c72656164792070726f6365737365640000000000006000830152602082019050919050565b6000611132602083611510565b91507f4f776e61626c653a2063616c6c6572206973206e6f7420746865206f776e65726000830152602082019050919050565b6000611172602983611510565b91507f6d6573736167652073656e646572277320746f6b656e2062616c616e6365206960008301527f7320746f6f206c6f7700000000000000000000000000000000000000000000006020830152604082019050919050565b60006111d8601883611510565b91507f4e6f7420616c6c6f776564207768696c652070617573656400000000000000006000830152602082019050919050565b6112148161155f565b82525050565b600060208201905061122f6000830184610fe8565b92915050565b60006101408201905061124b600083018d610fe8565b611258602083018c610fe8565b611265604083018b61120b565b611272606083018a61120b565b61127f608083018961120b565b61128c60a0830188610fe8565b61129960c083018761120b565b81810360e08301526112ab8186611006565b90506112bb61010083018561120b565b6112c961012083018461120b565b9b9a5050505050505050505050565b60006040820190506112ed6000830185610fe8565b6112fa602083018461120b565b9392505050565b600060e082019050611316600083018a610fe8565b611323602083018961120b565b611330604083018861120b565b61133d606083018761120b565b61134a608083018661120b565b61135760a0830185610fe8565b81810360c08301526113698184611006565b905098975050505050505050565b600060208201905061138c6000830184610ff7565b92915050565b600060208201905081810360008301526113ab8161103f565b9050919050565b600060208201905081810360008301526113cb816110a5565b9050919050565b600060208201905081810360008301526113eb816110e5565b9050919050565b6000602082019050818103600083015261140b81611125565b9050919050565b6000602082019050818103600083015261142b81611165565b9050919050565b6000602082019050818103600083015261144b816111cb565b9050919050565b6000602082019050611467600083018461120b565b92915050565b6000606082019050611482600083018661120b565b61148f602083018561120b565b61149c6040830184610fe8565b949350505050565b6000604051905081810181811067ffffffffffffffff821117156114cb576114ca611623565b5b8060405250919050565b600067ffffffffffffffff8211156114f0576114ef611623565b5b601f19601f8301169050602081019050919050565b600081519050919050565b600082825260208201905092915050565b600061152c8261153f565b9050919050565b60008115159050919050565b600073ffffffffffffffffffffffffffffffffffffffff82169050919050565b6000819050919050565b82818337600083830152505050565b60005b8381101561159657808201518184015260208101905061157b565b838111156115a5576000848401525b50505050565b60006115b68261155f565b91507fffffffffffffffffffffffffffffffffffffffffffffffffffffffffffffffff8214156115e9576115e86115f4565b5b600182019050919050565b7f4e487b7100000000000000000000000000000000000000000000000000000000600052601160045260246000fd5b7f4e487b7100000000000000000000000000000000000000000000000000000000600052604160045260246000fd5b6000601f19601f8301169050919050565b61166c81611521565b811461167757600080fd5b50565b6116838161155f565b811461168e57600080fd5b5056fea2646970667358221220493ba2ef19a2ac86e7cecbc10bbc63acf24bf18e4044cd43dc20e5ac9e3f451364736f6c63430008000033",
  "immutableReferences": {},
  "source": "// SPDX-License-Identifier: MIT\n\npragma solidity ^0.8.0;\n\nimport \"./BridgeBase.sol\";\n\ncontract BscBridge is BridgeBase {}\n",
  "sourcePath": "/Users/szabolcs/Documents/Personal/Szakmai/Ethereum/nft-fractions-dex/contracts/BscBridge.sol",
  "compiler": {
    "name": "solc",
    "version": "0.8.0+commit.c7dfd78e.Emscripten.clang"
  },
  "schemaVersion": "3.3.4",
  "updatedAt": "2021-07-29T07:58:03.750Z",
  "networkType": "ethereum",
  "devdoc": {
    "kind": "dev",
    "methods": {
      "burn(address,uint256,uint256)": {
        "details": "someone can transfer his tokens to the other chain by calling this function. It will burn the amount in this chain by calling the nftFractionsRepository and emits an event so the bridge API can listen to that event and call the mint function of the bridge on the other chain. Requirements: - balance has to be higher then the amount to transfer - the contract is not paused"
      },
      "mint(address,address,address,uint256,uint256,uint256,uint256,uint256,string)": {
        "details": "when someone initiated a transfer on the other chain and the bridge API detects that by catching the Transfer event then the bridge API will call this mint function. The bridge API is the owner of the bridge contract. Requirements: - balance has to be higher then the amount to transfer - the contract is not paused"
      },
      "owner()": {
        "details": "Returns the address of the current owner."
      },
      "paused()": {
        "details": "Returns true if the contract is paused, and false otherwise."
      },
      "renounceOwnership()": {
        "details": "Leaves the contract without owner. It will not be possible to call `onlyOwner` functions anymore. Can only be called by the current owner. NOTE: Renouncing ownership will leave the contract without an owner, thereby removing any functionality that is only available to the owner."
      },
      "transferOwnership(address)": {
        "details": "Transfers ownership of the contract to a new account (`newOwner`). Can only be called by the current owner."
      }
    },
    "version": 1
  },
  "userdoc": {
    "kind": "user",
    "methods": {},
    "version": 1
  }
}