{
  "contractName": "Dex",
  "abi": [
    {
      "anonymous": false,
      "inputs": [
        {
          "indexed": false,
          "internalType": "uint256",
          "name": "orderId",
          "type": "uint256"
        },
        {
          "indexed": true,
          "internalType": "uint256",
          "name": "tokenId",
          "type": "uint256"
        },
        {
          "indexed": true,
          "internalType": "address",
          "name": "trader1",
          "type": "address"
        },
        {
          "indexed": true,
          "internalType": "address",
          "name": "trader2",
          "type": "address"
        },
        {
          "indexed": false,
          "internalType": "uint256",
          "name": "amount",
          "type": "uint256"
        },
        {
          "indexed": false,
          "internalType": "uint256",
          "name": "price",
          "type": "uint256"
        },
        {
          "indexed": false,
          "internalType": "uint256",
          "name": "date",
          "type": "uint256"
        }
      ],
      "name": "NewTrade",
      "type": "event"
    },
    {
      "anonymous": false,
      "inputs": [
        {
          "indexed": true,
          "internalType": "address",
          "name": "previousOwner",
          "type": "address"
        },
        {
          "indexed": true,
          "internalType": "address",
          "name": "newOwner",
          "type": "address"
        }
      ],
      "name": "OwnershipTransferred",
      "type": "event"
    },
    {
      "anonymous": false,
      "inputs": [
        {
          "indexed": false,
          "internalType": "address",
          "name": "account",
          "type": "address"
        }
      ],
      "name": "Paused",
      "type": "event"
    },
    {
      "anonymous": false,
      "inputs": [
        {
          "indexed": false,
          "internalType": "address",
          "name": "account",
          "type": "address"
        }
      ],
      "name": "Unpaused",
      "type": "event"
    },
    {
      "inputs": [],
      "name": "owner",
      "outputs": [
        {
          "internalType": "address",
          "name": "",
          "type": "address"
        }
      ],
      "stateMutability": "view",
      "type": "function",
      "constant": true
    },
    {
      "inputs": [],
      "name": "paused",
      "outputs": [
        {
          "internalType": "bool",
          "name": "",
          "type": "bool"
        }
      ],
      "stateMutability": "view",
      "type": "function",
      "constant": true
    },
    {
      "inputs": [],
      "name": "renounceOwnership",
      "outputs": [],
      "stateMutability": "nonpayable",
      "type": "function"
    },
    {
      "inputs": [
        {
          "internalType": "address",
          "name": "newOwner",
          "type": "address"
        }
      ],
      "name": "transferOwnership",
      "outputs": [],
      "stateMutability": "nonpayable",
      "type": "function"
    },
    {
      "inputs": [],
      "name": "initialize",
      "outputs": [],
      "stateMutability": "nonpayable",
      "type": "function"
    },
    {
      "inputs": [
        {
          "internalType": "address",
          "name": "nftFractionsRepositoryAddress",
          "type": "address"
        }
      ],
      "name": "setNftFractionsRepository",
      "outputs": [],
      "stateMutability": "nonpayable",
      "type": "function"
    },
    {
      "inputs": [],
      "name": "depositEth",
      "outputs": [],
      "stateMutability": "payable",
      "type": "function",
      "payable": true
    },
    {
      "inputs": [
        {
          "internalType": "uint256",
          "name": "amount",
          "type": "uint256"
        }
      ],
      "name": "withdrawEth",
      "outputs": [],
      "stateMutability": "nonpayable",
      "type": "function"
    },
    {
      "inputs": [
        {
          "internalType": "address",
          "name": "owner",
          "type": "address"
        }
      ],
      "name": "getEthBalance",
      "outputs": [
        {
          "internalType": "uint256",
          "name": "",
          "type": "uint256"
        }
      ],
      "stateMutability": "view",
      "type": "function",
      "constant": true
    },
    {
      "inputs": [
        {
          "internalType": "address",
          "name": "owner",
          "type": "address"
        }
      ],
      "name": "getEthReserveBalance",
      "outputs": [
        {
          "internalType": "uint256",
          "name": "",
          "type": "uint256"
        }
      ],
      "stateMutability": "view",
      "type": "function",
      "constant": true
    },
    {
      "inputs": [
        {
          "internalType": "address",
          "name": "owner",
          "type": "address"
        },
        {
          "internalType": "uint256",
          "name": "tokenId",
          "type": "uint256"
        }
      ],
      "name": "getSharesReserveBalance",
      "outputs": [
        {
          "internalType": "uint256",
          "name": "",
          "type": "uint256"
        }
      ],
      "stateMutability": "view",
      "type": "function",
      "constant": true
    },
    {
      "inputs": [],
      "name": "pause",
      "outputs": [],
      "stateMutability": "nonpayable",
      "type": "function"
    },
    {
      "inputs": [
        {
          "internalType": "uint256",
          "name": "tokenId",
          "type": "uint256"
        },
        {
          "internalType": "uint256",
          "name": "amount",
          "type": "uint256"
        },
        {
          "internalType": "uint256",
          "name": "price",
          "type": "uint256"
        },
        {
          "internalType": "enum Dex.Side",
          "name": "side",
          "type": "uint8"
        }
      ],
      "name": "createLimitOrder",
      "outputs": [],
      "stateMutability": "nonpayable",
      "type": "function"
    },
    {
      "inputs": [
        {
          "internalType": "uint256",
          "name": "tokenId",
          "type": "uint256"
        },
        {
          "internalType": "uint256",
          "name": "amount",
          "type": "uint256"
        },
        {
          "internalType": "enum Dex.Side",
          "name": "side",
          "type": "uint8"
        }
      ],
      "name": "createMarketOrder",
      "outputs": [],
      "stateMutability": "nonpayable",
      "type": "function"
    },
    {
      "inputs": [
        {
          "internalType": "uint256",
          "name": "tokenId",
          "type": "uint256"
        },
        {
          "internalType": "enum Dex.Side",
          "name": "side",
          "type": "uint8"
        }
      ],
      "name": "getOrders",
      "outputs": [
        {
          "components": [
            {
              "internalType": "uint256",
              "name": "id",
              "type": "uint256"
            },
            {
              "internalType": "address",
              "name": "trader",
              "type": "address"
            },
            {
              "internalType": "enum Dex.Side",
              "name": "side",
              "type": "uint8"
            },
            {
              "internalType": "uint256",
              "name": "tokenId",
              "type": "uint256"
            },
            {
              "internalType": "uint256",
              "name": "amount",
              "type": "uint256"
            },
            {
              "internalType": "uint256",
              "name": "filled",
              "type": "uint256"
            },
            {
              "internalType": "uint256",
              "name": "price",
              "type": "uint256"
            },
            {
              "internalType": "uint256",
              "name": "date",
              "type": "uint256"
            }
          ],
          "internalType": "struct Dex.Order[]",
          "name": "",
          "type": "tuple[]"
        }
      ],
      "stateMutability": "view",
      "type": "function",
      "constant": true
    },
    {
      "inputs": [
        {
          "internalType": "uint256",
          "name": "tokenId",
          "type": "uint256"
        },
        {
          "internalType": "enum Dex.Side",
          "name": "side",
          "type": "uint8"
        },
        {
          "internalType": "uint256",
          "name": "orderId",
          "type": "uint256"
        }
      ],
      "name": "deleteOrder",
      "outputs": [],
      "stateMutability": "nonpayable",
      "type": "function"
    }
  ],
  "bytecode": "0x608060405234801561001057600080fd5b506147c2806100206000396000f3fe6080604052600436106100f35760003560e01c80638456cb591161008a578063b8737fba11610059578063b8737fba146102cf578063c311d0491461030c578063f2fde38b14610335578063fbe276741461035e576100f3565b80638456cb59146102275780638da5cb5b1461023e5780639c793bac14610269578063b141bd3914610292576100f3565b806354c0cde4116100c657806354c0cde4146101a55780635c975abb146101ce578063715018a6146101f95780638129fc1c14610210576100f3565b80630bbf2085146100f85780631f9af29c14610121578063439370b11461015e5780634d2301cc14610168575b600080fd5b34801561010457600080fd5b5061011f600480360381019061011a9190613cb6565b610387565b005b34801561012d57600080fd5b5061014860048036038101906101439190613afc565b6111de565b604051610155919061445d565b60405180910390f35b610166611227565b005b34801561017457600080fd5b5061018f600480360381019061018a9190613afc565b6112c7565b60405161019c919061445d565b60405180910390f35b3480156101b157600080fd5b506101cc60048036038101906101c79190613c67565b611310565b005b3480156101da57600080fd5b506101e361269d565b6040516101f091906142e2565b60405180910390f35b34801561020557600080fd5b5061020e6126b4565b005b34801561021c57600080fd5b506102256127f1565b005b34801561023357600080fd5b5061023c6128e2565b005b34801561024a57600080fd5b50610253612968565b6040516102609190614224565b60405180910390f35b34801561027557600080fd5b50610290600480360381019061028b9190613c18565b612992565b005b34801561029e57600080fd5b506102b960048036038101906102b49190613bdc565b613024565b6040516102c691906142c0565b60405180910390f35b3480156102db57600080fd5b506102f660048036038101906102f19190613b4e565b6131fa565b604051610303919061445d565b60405180910390f35b34801561031857600080fd5b50610333600480360381019061032e9190613b8a565b613255565b005b34801561034157600080fd5b5061035c60048036038101906103579190613afc565b613409565b005b34801561036a57600080fd5b5061038560048036038101906103809190613afc565b6135b5565b005b836000609c60009054906101000a900473ffffffffffffffffffffffffffffffffffffffff1673ffffffffffffffffffffffffffffffffffffffff166366d0330c836040518263ffffffff1660e01b81526004016103e5919061445d565b60206040518083038186803b1580156103fd57600080fd5b505afa158015610411573d6000803e3d6000fd5b505050506040513d601f19601f820116820180604052508101906104359190613b25565b9050600073ffffffffffffffffffffffffffffffffffffffff168173ffffffffffffffffffffffffffffffffffffffff1614156104a7576040517f08c379a000000000000000000000000000000000000000000000000000000000815260040161049e9061441d565b60405180910390fd5b6104af61269d565b156104ef576040517f08c379a00000000000000000000000000000000000000000000000000000000081526004016104e69061443d565b60405180910390fd5b600180811115610528577f4e487b7100000000000000000000000000000000000000000000000000000000600052602160045260246000fd5b836001811115610561577f4e487b7100000000000000000000000000000000000000000000000000000000600052602160045260246000fd5b14156106c7576000609c60009054906101000a900473ffffffffffffffffffffffffffffffffffffffff1673ffffffffffffffffffffffffffffffffffffffff1662fdd58e33896040518363ffffffff1660e01b81526004016105c5929190614297565b60206040518083038186803b1580156105dd57600080fd5b505afa1580156105f1573d6000803e3d6000fd5b505050506040513d601f19601f820116820180604052508101906106159190613bb3565b90508581101561065a576040517f08c379a0000000000000000000000000000000000000000000000000000000008152600401610651906143dd565b60405180910390fd5b85609b60003373ffffffffffffffffffffffffffffffffffffffff1673ffffffffffffffffffffffffffffffffffffffff168152602001908152602001600020600089815260200190815260200160002060008282546106ba9190614518565b92505081905550506108f3565b6000609c60009054906101000a900473ffffffffffffffffffffffffffffffffffffffff1673ffffffffffffffffffffffffffffffffffffffff166333d59207886040518263ffffffff1660e01b8152600401610724919061445d565b60206040518083038186803b15801561073c57600080fd5b505afa158015610750573d6000803e3d6000fd5b505050506040513d601f19601f820116820180604052508101906107749190613bb3565b9050858110156107b9576040517f08c379a00000000000000000000000000000000000000000000000000000000081526004016107b0906143fd565b60405180910390fd5b84866107c5919061456e565b609960003373ffffffffffffffffffffffffffffffffffffffff1673ffffffffffffffffffffffffffffffffffffffff16815260200190815260200160002054609860003373ffffffffffffffffffffffffffffffffffffffff1673ffffffffffffffffffffffffffffffffffffffff1681526020019081526020016000205461084f91906145c8565b1015610890576040517f08c379a00000000000000000000000000000000000000000000000000000000081526004016108879061435d565b60405180910390fd5b848661089c919061456e565b609960003373ffffffffffffffffffffffffffffffffffffffff1673ffffffffffffffffffffffffffffffffffffffff16815260200190815260200160002060008282546108ea9190614518565b92505081905550505b6000609a60008881526020019081526020016000206000856001811115610943577f4e487b7100000000000000000000000000000000000000000000000000000000600052602160045260246000fd5b8152602001908152602001600020905061095d6097613675565b6000610969609761368b565b9050816040518061010001604052808381526020013373ffffffffffffffffffffffffffffffffffffffff1681526020018760018111156109d3577f4e487b7100000000000000000000000000000000000000000000000000000000600052602160045260246000fd5b81526020018a8152602001898152602001600081526020018881526020014281525090806001815401808255809150506001900390600052602060002090600702016000909190919091506000820151816000015560208201518160010160006101000a81548173ffffffffffffffffffffffffffffffffffffffff021916908373ffffffffffffffffffffffffffffffffffffffff16021790555060408201518160010160146101000a81548160ff02191690836001811115610ac0577f4e487b7100000000000000000000000000000000000000000000000000000000600052602160045260246000fd5b0217905550606082015181600201556080820151816003015560a0820151816004015560c0820151816005015560e082015181600601555050600080838054905011610b0d576000610b1f565b60018380549050610b1e91906145c8565b5b90505b60008111156111d35760006001811115610b65577f4e487b7100000000000000000000000000000000000000000000000000000000600052602160045260246000fd5b866001811115610b9e577f4e487b7100000000000000000000000000000000000000000000000000000000600052602160045260246000fd5b148015610c4a5750828181548110610bdf577f4e487b7100000000000000000000000000000000000000000000000000000000600052603260045260246000fd5b90600052602060002090600702016005015483600183610bff91906145c8565b81548110610c36577f4e487b7100000000000000000000000000000000000000000000000000000000600052603260045260246000fd5b906000526020600020906007020160050154115b15610c54576111d3565b600180811115610c8d577f4e487b7100000000000000000000000000000000000000000000000000000000600052602160045260246000fd5b866001811115610cc6577f4e487b7100000000000000000000000000000000000000000000000000000000600052602160045260246000fd5b148015610d725750828181548110610d07577f4e487b7100000000000000000000000000000000000000000000000000000000600052603260045260246000fd5b90600052602060002090600702016005015483600183610d2791906145c8565b81548110610d5e577f4e487b7100000000000000000000000000000000000000000000000000000000600052603260045260246000fd5b906000526020600020906007020160050154105b15610d7c576111d3565b600083600183610d8c91906145c8565b81548110610dc3577f4e487b7100000000000000000000000000000000000000000000000000000000600052603260045260246000fd5b906000526020600020906007020160405180610100016040529081600082015481526020016001820160009054906101000a900473ffffffffffffffffffffffffffffffffffffffff1673ffffffffffffffffffffffffffffffffffffffff1673ffffffffffffffffffffffffffffffffffffffff1681526020016001820160149054906101000a900460ff166001811115610e88577f4e487b7100000000000000000000000000000000000000000000000000000000600052602160045260246000fd5b6001811115610ec0577f4e487b7100000000000000000000000000000000000000000000000000000000600052602160045260246000fd5b8152602001600282015481526020016003820154815260200160048201548152602001600582015481526020016006820154815250509050838281548110610f31577f4e487b7100000000000000000000000000000000000000000000000000000000600052603260045260246000fd5b906000526020600020906007020184600184610f4d91906145c8565b81548110610f84577f4e487b7100000000000000000000000000000000000000000000000000000000600052603260045260246000fd5b9060005260206000209060070201600082015481600001556001820160009054906101000a900473ffffffffffffffffffffffffffffffffffffffff168160010160006101000a81548173ffffffffffffffffffffffffffffffffffffffff021916908373ffffffffffffffffffffffffffffffffffffffff1602179055506001820160149054906101000a900460ff168160010160146101000a81548160ff02191690836001811115611061577f4e487b7100000000000000000000000000000000000000000000000000000000600052602160045260246000fd5b02179055506002820154816002015560038201548160030155600482015481600401556005820154816005015560068201548160060155905050808483815481106110d5577f4e487b7100000000000000000000000000000000000000000000000000000000600052603260045260246000fd5b90600052602060002090600702016000820151816000015560208201518160010160006101000a81548173ffffffffffffffffffffffffffffffffffffffff021916908373ffffffffffffffffffffffffffffffffffffffff16021790555060408201518160010160146101000a81548160ff02191690836001811115611185577f4e487b7100000000000000000000000000000000000000000000000000000000600052602160045260246000fd5b0217905550606082015181600201556080820151816003015560a0820151816004015560c0820151816005015560e0820151816006015590505081806111ca90614669565b92505050610b22565b505050505050505050565b6000609960008373ffffffffffffffffffffffffffffffffffffffff1673ffffffffffffffffffffffffffffffffffffffff168152602001908152602001600020549050919050565b61122f61269d565b1561126f576040517f08c379a00000000000000000000000000000000000000000000000000000000081526004016112669061443d565b60405180910390fd5b34609860003373ffffffffffffffffffffffffffffffffffffffff1673ffffffffffffffffffffffffffffffffffffffff16815260200190815260200160002060008282546112be9190614518565b92505081905550565b6000609860008373ffffffffffffffffffffffffffffffffffffffff1673ffffffffffffffffffffffffffffffffffffffff168152602001908152602001600020549050919050565b826000609c60009054906101000a900473ffffffffffffffffffffffffffffffffffffffff1673ffffffffffffffffffffffffffffffffffffffff166366d0330c836040518263ffffffff1660e01b815260040161136e919061445d565b60206040518083038186803b15801561138657600080fd5b505afa15801561139a573d6000803e3d6000fd5b505050506040513d601f19601f820116820180604052508101906113be9190613b25565b9050600073ffffffffffffffffffffffffffffffffffffffff168173ffffffffffffffffffffffffffffffffffffffff161415611430576040517f08c379a00000000000000000000000000000000000000000000000000000000081526004016114279061441d565b60405180910390fd5b61143861269d565b15611478576040517f08c379a000000000000000000000000000000000000000000000000000000000815260040161146f9061443d565b60405180910390fd5b6001808111156114b1577f4e487b7100000000000000000000000000000000000000000000000000000000600052602160045260246000fd5b8360018111156114ea577f4e487b7100000000000000000000000000000000000000000000000000000000600052602160045260246000fd5b14156115e5576000609c60009054906101000a900473ffffffffffffffffffffffffffffffffffffffff1673ffffffffffffffffffffffffffffffffffffffff1662fdd58e33886040518363ffffffff1660e01b815260040161154e929190614297565b60206040518083038186803b15801561156657600080fd5b505afa15801561157a573d6000803e3d6000fd5b505050506040513d601f19601f8201168201806040525081019061159e9190613bb3565b9050848110156115e3576040517f08c379a00000000000000000000000000000000000000000000000000000000081526004016115da906143dd565b60405180910390fd5b505b6000609a60008781526020019081526020016000206000806001811115611635577f4e487b7100000000000000000000000000000000000000000000000000000000600052602160045260246000fd5b86600181111561166e577f4e487b7100000000000000000000000000000000000000000000000000000000600052602160045260246000fd5b1461167a57600061167d565b60015b60018111156116b5577f4e487b7100000000000000000000000000000000000000000000000000000000600052602160045260246000fd5b815260200190815260200160002090506000808690505b8280549050821080156116df5750600081115b1561234057600083838154811061171f577f4e487b7100000000000000000000000000000000000000000000000000000000600052603260045260246000fd5b90600052602060002090600702016004015484848154811061176a577f4e487b7100000000000000000000000000000000000000000000000000000000600052603260045260246000fd5b90600052602060002090600702016003015461178691906145c8565b905060008183116117975782611799565b815b905080836117a791906145c8565b9250808585815481106117e3577f4e487b7100000000000000000000000000000000000000000000000000000000600052603260045260246000fd5b9060005260206000209060070201600401546117ff9190614518565b858581548110611838577f4e487b7100000000000000000000000000000000000000000000000000000000600052603260045260246000fd5b9060005260206000209060070201600401819055503373ffffffffffffffffffffffffffffffffffffffff1685858154811061189d577f4e487b7100000000000000000000000000000000000000000000000000000000600052603260045260246000fd5b906000526020600020906007020160010160009054906101000a900473ffffffffffffffffffffffffffffffffffffffff1673ffffffffffffffffffffffffffffffffffffffff168b7f9978fdb3a211975622b71134cdca10c08d124f7251547ffa8fc72880f7e74992888881548110611940577f4e487b7100000000000000000000000000000000000000000000000000000000600052603260045260246000fd5b906000526020600020906007020160000154858a8a8154811061198c577f4e487b7100000000000000000000000000000000000000000000000000000000600052603260045260246000fd5b906000526020600020906007020160050154426040516119af9493929190614478565b60405180910390a46001808111156119f0577f4e487b7100000000000000000000000000000000000000000000000000000000600052602160045260246000fd5b886001811115611a29577f4e487b7100000000000000000000000000000000000000000000000000000000600052602160045260246000fd5b1415611e0257609c60009054906101000a900473ffffffffffffffffffffffffffffffffffffffff1673ffffffffffffffffffffffffffffffffffffffff1663605105f033878781548110611aa7577f4e487b7100000000000000000000000000000000000000000000000000000000600052603260045260246000fd5b906000526020600020906007020160010160009054906101000a900473ffffffffffffffffffffffffffffffffffffffff168d856040518563ffffffff1660e01b8152600401611afa949392919061423f565b600060405180830381600087803b158015611b1457600080fd5b505af1158015611b28573d6000803e3d6000fd5b5050505080858581548110611b66577f4e487b7100000000000000000000000000000000000000000000000000000000600052603260045260246000fd5b906000526020600020906007020160050154611b82919061456e565b609860003373ffffffffffffffffffffffffffffffffffffffff1673ffffffffffffffffffffffffffffffffffffffff1681526020019081526020016000206000828254611bd09190614518565b9250508190555080858581548110611c11577f4e487b7100000000000000000000000000000000000000000000000000000000600052603260045260246000fd5b906000526020600020906007020160050154611c2d919061456e565b60986000878781548110611c6a577f4e487b7100000000000000000000000000000000000000000000000000000000600052603260045260246000fd5b906000526020600020906007020160010160009054906101000a900473ffffffffffffffffffffffffffffffffffffffff1673ffffffffffffffffffffffffffffffffffffffff1673ffffffffffffffffffffffffffffffffffffffff1681526020019081526020016000206000828254611ce591906145c8565b9250508190555080858581548110611d26577f4e487b7100000000000000000000000000000000000000000000000000000000600052603260045260246000fd5b906000526020600020906007020160050154611d42919061456e565b60996000878781548110611d7f577f4e487b7100000000000000000000000000000000000000000000000000000000600052603260045260246000fd5b906000526020600020906007020160010160009054906101000a900473ffffffffffffffffffffffffffffffffffffffff1673ffffffffffffffffffffffffffffffffffffffff1673ffffffffffffffffffffffffffffffffffffffff1681526020019081526020016000206000828254611dfa91906145c8565b925050819055505b60006001811115611e3c577f4e487b7100000000000000000000000000000000000000000000000000000000600052602160045260246000fd5b886001811115611e75577f4e487b7100000000000000000000000000000000000000000000000000000000600052602160045260246000fd5b141561232b5780858581548110611eb5577f4e487b7100000000000000000000000000000000000000000000000000000000600052603260045260246000fd5b906000526020600020906007020160050154611ed1919061456e565b609960003373ffffffffffffffffffffffffffffffffffffffff1673ffffffffffffffffffffffffffffffffffffffff16815260200190815260200160002054609860003373ffffffffffffffffffffffffffffffffffffffff1673ffffffffffffffffffffffffffffffffffffffff16815260200190815260200160002054611f5b91906145c8565b1015611f9c576040517f08c379a0000000000000000000000000000000000000000000000000000000008152600401611f939061435d565b60405180910390fd5b609c60009054906101000a900473ffffffffffffffffffffffffffffffffffffffff1673ffffffffffffffffffffffffffffffffffffffff1663605105f0868681548110612013577f4e487b7100000000000000000000000000000000000000000000000000000000600052603260045260246000fd5b906000526020600020906007020160010160009054906101000a900473ffffffffffffffffffffffffffffffffffffffff16338d856040518563ffffffff1660e01b8152600401612067949392919061423f565b600060405180830381600087803b15801561208157600080fd5b505af1158015612095573d6000803e3d6000fd5b50505050808585815481106120d3577f4e487b7100000000000000000000000000000000000000000000000000000000600052603260045260246000fd5b9060005260206000209060070201600501546120ef919061456e565b609860003373ffffffffffffffffffffffffffffffffffffffff1673ffffffffffffffffffffffffffffffffffffffff168152602001908152602001600020600082825461213d91906145c8565b925050819055508085858154811061217e577f4e487b7100000000000000000000000000000000000000000000000000000000600052603260045260246000fd5b90600052602060002090600702016005015461219a919061456e565b609860008787815481106121d7577f4e487b7100000000000000000000000000000000000000000000000000000000600052603260045260246000fd5b906000526020600020906007020160010160009054906101000a900473ffffffffffffffffffffffffffffffffffffffff1673ffffffffffffffffffffffffffffffffffffffff1673ffffffffffffffffffffffffffffffffffffffff16815260200190815260200160002060008282546122529190614518565b9250508190555080609b6000878781548110612297577f4e487b7100000000000000000000000000000000000000000000000000000000600052603260045260246000fd5b906000526020600020906007020160010160009054906101000a900473ffffffffffffffffffffffffffffffffffffffff1673ffffffffffffffffffffffffffffffffffffffff1673ffffffffffffffffffffffffffffffffffffffff16815260200190815260200160002060008c8152602001908152602001600020600082825461232391906145c8565b925050819055505b838061233690614693565b94505050506116cc565b600091505b8280549050821080156123eb575082828154811061238c577f4e487b7100000000000000000000000000000000000000000000000000000000600052603260045260246000fd5b9060005260206000209060070201600301548383815481106123d7577f4e487b7100000000000000000000000000000000000000000000000000000000600052603260045260246000fd5b906000526020600020906007020160040154145b156126935760008290505b6001848054905061240791906145c8565b8110156125c4578360018261241c9190614518565b81548110612453577f4e487b7100000000000000000000000000000000000000000000000000000000600052603260045260246000fd5b906000526020600020906007020184828154811061249a577f4e487b7100000000000000000000000000000000000000000000000000000000600052603260045260246000fd5b9060005260206000209060070201600082015481600001556001820160009054906101000a900473ffffffffffffffffffffffffffffffffffffffff168160010160006101000a81548173ffffffffffffffffffffffffffffffffffffffff021916908373ffffffffffffffffffffffffffffffffffffffff1602179055506001820160149054906101000a900460ff168160010160146101000a81548160ff02191690836001811115612577577f4e487b7100000000000000000000000000000000000000000000000000000000600052602160045260246000fd5b0217905550600282015481600201556003820154816003015560048201548160040155600582015481600501556006820154816006015590505080806125bc90614693565b9150506123f6565b50828054806125fc577f4e487b7100000000000000000000000000000000000000000000000000000000600052603160045260246000fd5b60019003818190600052602060002090600702016000808201600090556001820160006101000a81549073ffffffffffffffffffffffffffffffffffffffff02191690556001820160146101000a81549060ff02191690556002820160009055600382016000905560048201600090556005820160009055600682016000905550509055818061268b90614693565b925050612345565b5050505050505050565b6000603360009054906101000a900460ff16905090565b6126bc613699565b73ffffffffffffffffffffffffffffffffffffffff166126da612968565b73ffffffffffffffffffffffffffffffffffffffff1614612730576040517f08c379a00000000000000000000000000000000000000000000000000000000081526004016127279061437d565b60405180910390fd5b600073ffffffffffffffffffffffffffffffffffffffff16606560009054906101000a900473ffffffffffffffffffffffffffffffffffffffff1673ffffffffffffffffffffffffffffffffffffffff167f8be0079c531659141344cd1fd0a4f28419497f9722a3daafe3b4186f6b6457e060405160405180910390a36000606560006101000a81548173ffffffffffffffffffffffffffffffffffffffff021916908373ffffffffffffffffffffffffffffffffffffffff160217905550565b600060019054906101000a900460ff1680612817575060008054906101000a900460ff16155b612856576040517f08c379a000000000000000000000000000000000000000000000000000000000815260040161284d9061433d565b60405180910390fd5b60008060019054906101000a900460ff1615905080156128a6576001600060016101000a81548160ff02191690831515021790555060016000806101000a81548160ff0219169083151502179055505b6128ae6136a1565b6128b661377a565b6128be61386e565b80156128df5760008060016101000a81548160ff0219169083151502179055505b50565b6128ea613699565b73ffffffffffffffffffffffffffffffffffffffff16612908612968565b73ffffffffffffffffffffffffffffffffffffffff161461295e576040517f08c379a00000000000000000000000000000000000000000000000000000000081526004016129559061437d565b60405180910390fd5b6129666139f0565b565b6000606560009054906101000a900473ffffffffffffffffffffffffffffffffffffffff16905090565b6000609a600085815260200190815260200160002060008460018111156129e2577f4e487b7100000000000000000000000000000000000000000000000000000000600052602160045260246000fd5b8152602001908152602001600020905060005b818054905081101561301d5782828281548110612a3b577f4e487b7100000000000000000000000000000000000000000000000000000000600052603260045260246000fd5b906000526020600020906007020160000154141561300a57818181548110612a8c577f4e487b7100000000000000000000000000000000000000000000000000000000600052603260045260246000fd5b906000526020600020906007020160010160009054906101000a900473ffffffffffffffffffffffffffffffffffffffff1673ffffffffffffffffffffffffffffffffffffffff163373ffffffffffffffffffffffffffffffffffffffff1614612b2b576040517f08c379a0000000000000000000000000000000000000000000000000000000008152600401612b22906143bd565b60405180910390fd5b60006001811115612b65577f4e487b7100000000000000000000000000000000000000000000000000000000600052602160045260246000fd5b828281548110612b9e577f4e487b7100000000000000000000000000000000000000000000000000000000600052603260045260246000fd5b906000526020600020906007020160010160149054906101000a900460ff166001811115612bf5577f4e487b7100000000000000000000000000000000000000000000000000000000600052602160045260246000fd5b1415612cf557818181548110612c34577f4e487b7100000000000000000000000000000000000000000000000000000000600052603260045260246000fd5b906000526020600020906007020160050154828281548110612c7f577f4e487b7100000000000000000000000000000000000000000000000000000000600052603260045260246000fd5b906000526020600020906007020160030154612c9b919061456e565b609960003373ffffffffffffffffffffffffffffffffffffffff1673ffffffffffffffffffffffffffffffffffffffff1681526020019081526020016000206000828254612ce991906145c8565b92505081905550612da7565b818181548110612d2e577f4e487b7100000000000000000000000000000000000000000000000000000000600052603260045260246000fd5b906000526020600020906007020160030154609b60003373ffffffffffffffffffffffffffffffffffffffff1673ffffffffffffffffffffffffffffffffffffffff16815260200190815260200160002060008781526020019081526020016000206000828254612d9f91906145c8565b925050819055505b8160018380549050612db991906145c8565b81548110612df0577f4e487b7100000000000000000000000000000000000000000000000000000000600052603260045260246000fd5b9060005260206000209060070201828281548110612e37577f4e487b7100000000000000000000000000000000000000000000000000000000600052603260045260246000fd5b9060005260206000209060070201600082015481600001556001820160009054906101000a900473ffffffffffffffffffffffffffffffffffffffff168160010160006101000a81548173ffffffffffffffffffffffffffffffffffffffff021916908373ffffffffffffffffffffffffffffffffffffffff1602179055506001820160149054906101000a900460ff168160010160146101000a81548160ff02191690836001811115612f14577f4e487b7100000000000000000000000000000000000000000000000000000000600052602160045260246000fd5b0217905550600282015481600201556003820154816003015560048201548160040155600582015481600501556006820154816006015590505081805480612f85577f4e487b7100000000000000000000000000000000000000000000000000000000600052603160045260246000fd5b60019003818190600052602060002090600702016000808201600090556001820160006101000a81549073ffffffffffffffffffffffffffffffffffffffff02191690556001820160146101000a81549060ff021916905560028201600090556003820160009055600482016000905560058201600090556006820160009055505090555b808061301590614693565b9150506129f5565b5050505050565b6060609a60008481526020019081526020016000206000836001811115613074577f4e487b7100000000000000000000000000000000000000000000000000000000600052602160045260246000fd5b8152602001908152602001600020805480602002602001604051908101604052809291908181526020016000905b828210156131ee578382906000526020600020906007020160405180610100016040529081600082015481526020016001820160009054906101000a900473ffffffffffffffffffffffffffffffffffffffff1673ffffffffffffffffffffffffffffffffffffffff1673ffffffffffffffffffffffffffffffffffffffff1681526020016001820160149054906101000a900460ff166001811115613171577f4e487b7100000000000000000000000000000000000000000000000000000000600052602160045260246000fd5b60018111156131a9577f4e487b7100000000000000000000000000000000000000000000000000000000600052602160045260246000fd5b815260200160028201548152602001600382015481526020016004820154815260200160058201548152602001600682015481525050815260200190600101906130a2565b50505050905092915050565b6000609b60008473ffffffffffffffffffffffffffffffffffffffff1673ffffffffffffffffffffffffffffffffffffffff168152602001908152602001600020600083815260200190815260200160002054905092915050565b61325d61269d565b1561329d576040517f08c379a00000000000000000000000000000000000000000000000000000000081526004016132949061443d565b60405180910390fd5b80609960003373ffffffffffffffffffffffffffffffffffffffff1673ffffffffffffffffffffffffffffffffffffffff16815260200190815260200160002054609860003373ffffffffffffffffffffffffffffffffffffffff1673ffffffffffffffffffffffffffffffffffffffff1681526020019081526020016000205461332891906145c8565b1015613369576040517f08c379a00000000000000000000000000000000000000000000000000000000081526004016133609061439d565b60405180910390fd5b80609860003373ffffffffffffffffffffffffffffffffffffffff1673ffffffffffffffffffffffffffffffffffffffff16815260200190815260200160002060008282546133b891906145c8565b925050819055503373ffffffffffffffffffffffffffffffffffffffff166108fc829081150290604051600060405180830381858888f19350505050158015613405573d6000803e3d6000fd5b5050565b613411613699565b73ffffffffffffffffffffffffffffffffffffffff1661342f612968565b73ffffffffffffffffffffffffffffffffffffffff1614613485576040517f08c379a000000000000000000000000000000000000000000000000000000000815260040161347c9061437d565b60405180910390fd5b600073ffffffffffffffffffffffffffffffffffffffff168173ffffffffffffffffffffffffffffffffffffffff1614156134f5576040517f08c379a00000000000000000000000000000000000000000000000000000000081526004016134ec906142fd565b60405180910390fd5b8073ffffffffffffffffffffffffffffffffffffffff16606560009054906101000a900473ffffffffffffffffffffffffffffffffffffffff1673ffffffffffffffffffffffffffffffffffffffff167f8be0079c531659141344cd1fd0a4f28419497f9722a3daafe3b4186f6b6457e060405160405180910390a380606560006101000a81548173ffffffffffffffffffffffffffffffffffffffff021916908373ffffffffffffffffffffffffffffffffffffffff16021790555050565b6135bd613699565b73ffffffffffffffffffffffffffffffffffffffff166135db612968565b73ffffffffffffffffffffffffffffffffffffffff1614613631576040517f08c379a00000000000000000000000000000000000000000000000000000000081526004016136289061437d565b60405180910390fd5b80609c60006101000a81548173ffffffffffffffffffffffffffffffffffffffff021916908373ffffffffffffffffffffffffffffffffffffffff16021790555050565b6001816000016000828254019250508190555050565b600081600001549050919050565b600033905090565b600060019054906101000a900460ff16806136c7575060008054906101000a900460ff16155b613706576040517f08c379a00000000000000000000000000000000000000000000000000000000081526004016136fd9061433d565b60405180910390fd5b60008060019054906101000a900460ff161590508015613756576001600060016101000a81548160ff02191690831515021790555060016000806101000a81548160ff0219169083151502179055505b80156137775760008060016101000a81548160ff0219169083151502179055505b50565b600060019054906101000a900460ff16806137a0575060008054906101000a900460ff16155b6137df576040517f08c379a00000000000000000000000000000000000000000000000000000000081526004016137d69061433d565b60405180910390fd5b60008060019054906101000a900460ff16159050801561382f576001600060016101000a81548160ff02191690831515021790555060016000806101000a81548160ff0219169083151502179055505b6000603360006101000a81548160ff021916908315150217905550801561386b5760008060016101000a81548160ff0219169083151502179055505b50565b600060019054906101000a900460ff1680613894575060008054906101000a900460ff16155b6138d3576040517f08c379a00000000000000000000000000000000000000000000000000000000081526004016138ca9061433d565b60405180910390fd5b60008060019054906101000a900460ff161590508015613923576001600060016101000a81548160ff02191690831515021790555060016000806101000a81548160ff0219169083151502179055505b600061392d613699565b905080606560006101000a81548173ffffffffffffffffffffffffffffffffffffffff021916908373ffffffffffffffffffffffffffffffffffffffff1602179055508073ffffffffffffffffffffffffffffffffffffffff16600073ffffffffffffffffffffffffffffffffffffffff167f8be0079c531659141344cd1fd0a4f28419497f9722a3daafe3b4186f6b6457e060405160405180910390a35080156139ed5760008060016101000a81548160ff0219169083151502179055505b50565b6139f861269d565b15613a38576040517f08c379a0000000000000000000000000000000000000000000000000000000008152600401613a2f9061431d565b60405180910390fd5b6001603360006101000a81548160ff0219169083151502179055507f62e78cea01bee320cd4e420270b5ea74000d11b0c9f74754ebdbfc544b05a258613a7c613699565b604051613a899190614224565b60405180910390a1565b600081359050613aa28161474e565b92915050565b600081519050613ab78161474e565b92915050565b600081359050613acc81614765565b92915050565b600081359050613ae181614775565b92915050565b600081519050613af681614775565b92915050565b600060208284031215613b0e57600080fd5b6000613b1c84828501613a93565b91505092915050565b600060208284031215613b3757600080fd5b6000613b4584828501613aa8565b91505092915050565b60008060408385031215613b6157600080fd5b6000613b6f85828601613a93565b9250506020613b8085828601613ad2565b9150509250929050565b600060208284031215613b9c57600080fd5b6000613baa84828501613ad2565b91505092915050565b600060208284031215613bc557600080fd5b6000613bd384828501613ae7565b91505092915050565b60008060408385031215613bef57600080fd5b6000613bfd85828601613ad2565b9250506020613c0e85828601613abd565b9150509250929050565b600080600060608486031215613c2d57600080fd5b6000613c3b86828701613ad2565b9350506020613c4c86828701613abd565b9250506040613c5d86828701613ad2565b9150509250925092565b600080600060608486031215613c7c57600080fd5b6000613c8a86828701613ad2565b9350506020613c9b86828701613ad2565b9250506040613cac86828701613abd565b9150509250925092565b60008060008060808587031215613ccc57600080fd5b6000613cda87828801613ad2565b9450506020613ceb87828801613ad2565b9350506040613cfc87828801613ad2565b9250506060613d0d87828801613abd565b91505092959194509250565b6000613d258383614164565b6101008301905092915050565b613d3b816145fc565b82525050565b613d4a816145fc565b82525050565b6000613d5b826144cd565b613d6581856144e5565b9350613d70836144bd565b8060005b83811015613da1578151613d888882613d19565b9750613d93836144d8565b925050600181019050613d74565b5085935050505092915050565b613db78161460e565b82525050565b613dc681614657565b82525050565b6000613dd9602683614507565b91507f4f776e61626c653a206e6577206f776e657220697320746865207a65726f206160008301527f64647265737300000000000000000000000000000000000000000000000000006020830152604082019050919050565b6000613e3f601083614507565b91507f5061757361626c653a20706175736564000000000000000000000000000000006000830152602082019050919050565b6000613e7f602e83614507565b91507f496e697469616c697a61626c653a20636f6e747261637420697320616c72656160008301527f647920696e697469616c697a65640000000000000000000000000000000000006020830152604082019050919050565b6000613ee5601383614507565b91507f6574682062616c616e636520746f6f206c6f77000000000000000000000000006000830152602082019050919050565b6000613f25602083614507565b91507f4f776e61626c653a2063616c6c6572206973206e6f7420746865206f776e65726000830152602082019050919050565b6000613f65601983614507565b91507f4554482062616c616e6365206973206e6f7420656e6f756768000000000000006000830152602082019050919050565b6000613fa5602483614507565b91507f4f6e6c7920746865207472616465722063616e2064656c65746520686973206f60008301527f72646572000000000000000000000000000000000000000000000000000000006020830152604082019050919050565b600061400b6000836144f6565b9150600082019050919050565b6000614025602983614507565b91507f6d6573736167652073656e646572277320746f6b656e2062616c616e6365206960008301527f7320746f6f206c6f7700000000000000000000000000000000000000000000006020830152604082019050919050565b600061408b603883614507565b91507f746f74616c20616d6f756e74206f66206672616374696f6e73206973206c6f7760008301527f6572207468616e2074686520676976656e20616d6f756e7400000000000000006020830152604082019050919050565b60006140f1601983614507565b91507f7468697320746f6b656e20646f6573206e6f74206578697374000000000000006000830152602082019050919050565b6000614131601883614507565b91507f4e6f7420616c6c6f776564207768696c652070617573656400000000000000006000830152602082019050919050565b6101008201600082015161417b6000850182614206565b50602082015161418e6020850182613d32565b5060408201516141a16040850182613dbd565b5060608201516141b46060850182614206565b5060808201516141c76080850182614206565b5060a08201516141da60a0850182614206565b5060c08201516141ed60c0850182614206565b5060e082015161420060e0850182614206565b50505050565b61420f8161464d565b82525050565b61421e8161464d565b82525050565b60006020820190506142396000830184613d41565b92915050565b600060a0820190506142546000830187613d41565b6142616020830186613d41565b61426e6040830185614215565b61427b6060830184614215565b818103608083015261428c81613ffe565b905095945050505050565b60006040820190506142ac6000830185613d41565b6142b96020830184614215565b9392505050565b600060208201905081810360008301526142da8184613d50565b905092915050565b60006020820190506142f76000830184613dae565b92915050565b6000602082019050818103600083015261431681613dcc565b9050919050565b6000602082019050818103600083015261433681613e32565b9050919050565b6000602082019050818103600083015261435681613e72565b9050919050565b6000602082019050818103600083015261437681613ed8565b9050919050565b6000602082019050818103600083015261439681613f18565b9050919050565b600060208201905081810360008301526143b681613f58565b9050919050565b600060208201905081810360008301526143d681613f98565b9050919050565b600060208201905081810360008301526143f681614018565b9050919050565b600060208201905081810360008301526144168161407e565b9050919050565b60006020820190508181036000830152614436816140e4565b9050919050565b6000602082019050818103600083015261445681614124565b9050919050565b60006020820190506144726000830184614215565b92915050565b600060808201905061448d6000830187614215565b61449a6020830186614215565b6144a76040830185614215565b6144b46060830184614215565b95945050505050565b6000819050602082019050919050565b600081519050919050565b6000602082019050919050565b600082825260208201905092915050565b600082825260208201905092915050565b600082825260208201905092915050565b60006145238261464d565b915061452e8361464d565b9250827fffffffffffffffffffffffffffffffffffffffffffffffffffffffffffffffff03821115614563576145626146dc565b5b828201905092915050565b60006145798261464d565b91506145848361464d565b9250817fffffffffffffffffffffffffffffffffffffffffffffffffffffffffffffffff04831182151516156145bd576145bc6146dc565b5b828202905092915050565b60006145d38261464d565b91506145de8361464d565b9250828210156145f1576145f06146dc565b5b828203905092915050565b60006146078261462d565b9050919050565b60008115159050919050565b60008190506146288261473a565b919050565b600073ffffffffffffffffffffffffffffffffffffffff82169050919050565b6000819050919050565b60006146628261461a565b9050919050565b60006146748261464d565b91506000821415614688576146876146dc565b5b600182039050919050565b600061469e8261464d565b91507fffffffffffffffffffffffffffffffffffffffffffffffffffffffffffffffff8214156146d1576146d06146dc565b5b600182019050919050565b7f4e487b7100000000000000000000000000000000000000000000000000000000600052601160045260246000fd5b7f4e487b7100000000000000000000000000000000000000000000000000000000600052602160045260246000fd5b6002811061474b5761474a61470b565b5b50565b614757816145fc565b811461476257600080fd5b50565b6002811061477257600080fd5b50565b61477e8161464d565b811461478957600080fd5b5056fea26469706673582212209d7a87b3ca022d9d3649ebe19714161aae0fde8d733a6316ac4a90c271b5b9ca64736f6c63430008000033",
  "immutableReferences": {},
  "source": "// SPDX-License-Identifier: MIT\n\npragma solidity ^0.8.0;\n\nimport \"@openzeppelin/contracts-upgradeable/security/PausableUpgradeable.sol\";\nimport \"@openzeppelin/contracts-upgradeable/proxy/utils/Initializable.sol\";\nimport \"@openzeppelin/contracts-upgradeable/utils/CountersUpgradeable.sol\";\nimport \"@openzeppelin/contracts-upgradeable/access/OwnableUpgradeable.sol\";\nimport \"./NftFractionsRepository.sol\";\n\ncontract Dex is Initializable, PausableUpgradeable, OwnableUpgradeable {\n    using CountersUpgradeable for CountersUpgradeable.Counter;\n\n    enum Side {BUY, SELL}\n\n    struct Order {\n        uint256 id;\n        address trader;\n        Side side;\n        uint256 tokenId;\n        uint256 amount;\n        uint256 filled;\n        uint256 price;\n        uint256 date;\n    }\n\n    event NewTrade(\n        uint256 orderId,\n        uint256 indexed tokenId,\n        address indexed trader1,\n        address indexed trader2,\n        uint256 amount,\n        uint256 price,\n        uint256 date\n    );\n\n    CountersUpgradeable.Counter private _orderIds;\n    mapping(address => uint256) ethBalance;\n    mapping(address => uint256) ethReservedBalance;\n    mapping(uint256 => mapping(uint256 => Order[])) orderBook;\n    mapping(address => mapping(uint256 => uint256)) sharesReserved;\n    NftFractionsRepository nftFractionsRepository;\n\n    function initialize() public initializer {\n        __Context_init_unchained();\n        __Pausable_init_unchained();\n        __Ownable_init_unchained();\n    }\n\n    function setNftFractionsRepository(address nftFractionsRepositoryAddress)\n        public\n        onlyOwner()\n    {\n        nftFractionsRepository = NftFractionsRepository(\n            nftFractionsRepositoryAddress\n        );\n    }\n\n    /**\n     * @dev deposit ETH for trading\n     */\n    function depositEth() public payable {\n        require(!paused(), \"Not allowed while paused\");\n        ethBalance[msg.sender] += msg.value;\n    }\n\n    /**\n     * @dev Withdraw ETH\n     *\n     * Requirements:\n     * - msg.sender has to have equal or more ETH than the amount to withdraw\n     */\n    function withdrawEth(uint256 amount) public {\n        require(!paused(), \"Not allowed while paused\");\n        require(\n            ethBalance[msg.sender] - ethReservedBalance[msg.sender] >= amount,\n            \"ETH balance is not enough\"\n        );\n        ethBalance[msg.sender] -= amount;\n        payable(msg.sender).transfer(amount);\n    }\n\n    /**\n     * @dev returns the ETH balance of the owner\n     */\n    function getEthBalance(address owner) public view returns (uint256) {\n        return ethBalance[owner];\n    }\n\n    /**\n     * @dev returns the ETH reserved balance of the owner\n     */\n    function getEthReserveBalance(address owner) public view returns (uint256) {\n        return ethReservedBalance[owner];\n    }\n\n    /**\n     * @dev returns the shares reserved in orders for a given owner and tokenId\n     */\n    function getSharesReserveBalance(address owner, uint256 tokenId)\n        public\n        view\n        returns (uint256)\n    {\n        return sharesReserved[owner][tokenId];\n    }\n\n    function pause() public onlyOwner() {\n        _pause();\n    }\n\n    function createLimitOrder(\n        uint256 tokenId,\n        uint256 amount,\n        uint256 price,\n        Side side\n    ) external tokenExist(tokenId) {\n        require(!paused(), \"Not allowed while paused\");\n        if (side == Side.SELL) {\n            uint256 sendersBalance =\n                nftFractionsRepository.balanceOf(msg.sender, tokenId);\n            require(\n                sendersBalance >= amount,\n                \"message sender's token balance is too low\"\n            );\n            sharesReserved[msg.sender][tokenId] += amount;\n        } else {\n            uint256 totalFractionsAmount;\n            totalFractionsAmount = nftFractionsRepository\n                .getTotalFractionsAmount(tokenId);\n            require(\n                totalFractionsAmount >= amount,\n                \"total amount of fractions is lower than the given amount\"\n            );\n            require(\n                ethBalance[msg.sender] - ethReservedBalance[msg.sender] >=\n                    amount * price,\n                \"eth balance too low\"\n            );\n            ethReservedBalance[msg.sender] += amount * price;\n        }\n        Order[] storage orders = orderBook[tokenId][uint256(side)];\n        _orderIds.increment();\n        uint256 newOrderId = _orderIds.current();\n        orders.push(\n            Order(\n                newOrderId,\n                msg.sender,\n                side,\n                tokenId,\n                amount,\n                0,\n                price,\n                block.timestamp\n            )\n        );\n\n        uint256 i = orders.length > 0 ? orders.length - 1 : 0;\n        while (i > 0) {\n            if (side == Side.BUY && orders[i - 1].price > orders[i].price) {\n                break;\n            }\n            if (side == Side.SELL && orders[i - 1].price < orders[i].price) {\n                break;\n            }\n            Order memory order = orders[i - 1];\n            orders[i - 1] = orders[i];\n            orders[i] = order;\n            i--;\n        }\n    }\n\n    function createMarketOrder(\n        uint256 tokenId,\n        uint256 amount,\n        Side side\n    ) external tokenExist(tokenId) {\n        require(!paused(), \"Not allowed while paused\");\n        if (side == Side.SELL) {\n            uint256 sendersBalance =\n                nftFractionsRepository.balanceOf(msg.sender, tokenId);\n            require(\n                sendersBalance >= amount,\n                \"message sender's token balance is too low\"\n            );\n        }\n        Order[] storage orders =\n            orderBook[tokenId][\n                uint256(side == Side.BUY ? Side.SELL : Side.BUY)\n            ];\n        uint256 i;\n        uint256 remaining = amount;\n\n        while (i < orders.length && remaining > 0) {\n            uint256 available = orders[i].amount - orders[i].filled;\n            uint256 matched = (remaining > available) ? available : remaining;\n            remaining = remaining - matched;\n            orders[i].filled = orders[i].filled + matched;\n            emit NewTrade(\n                orders[i].id,\n                tokenId,\n                orders[i].trader,\n                msg.sender,\n                matched,\n                orders[i].price,\n                block.timestamp\n            );\n            if (side == Side.SELL) {\n                nftFractionsRepository.transferFrom(\n                    msg.sender,\n                    orders[i].trader,\n                    tokenId,\n                    matched,\n                    \"\"\n                );\n                ethBalance[msg.sender] += orders[i].price * matched;\n                ethBalance[orders[i].trader] -= orders[i].price * matched;\n                ethReservedBalance[orders[i].trader] -=\n                    orders[i].price *\n                    matched;\n            }\n            if (side == Side.BUY) {\n                require(\n                    ethBalance[msg.sender] - ethReservedBalance[msg.sender] >=\n                        orders[i].price * matched,\n                    \"eth balance too low\"\n                );\n                nftFractionsRepository.transferFrom(\n                    orders[i].trader,\n                    msg.sender,\n                    tokenId,\n                    matched,\n                    \"\"\n                );\n                ethBalance[msg.sender] -= orders[i].price * matched;\n                ethBalance[orders[i].trader] += orders[i].price * matched;\n                sharesReserved[orders[i].trader][tokenId] -= matched;\n            }\n            i++;\n        }\n\n        i = 0;\n        while (i < orders.length && orders[i].filled == orders[i].amount) {\n            for (uint256 j = i; j < orders.length - 1; j++) {\n                orders[j] = orders[j + 1];\n            }\n            orders.pop();\n            i++;\n        }\n    }\n\n    /**\n     * @dev returns the orders of the token and side\n     */\n    function getOrders(uint256 tokenId, Side side)\n        external\n        view\n        returns (Order[] memory)\n    {\n        return orderBook[tokenId][uint256(side)];\n    }\n\n    /**\n     * @dev delete the order\n     */\n    function deleteOrder(\n        uint256 tokenId,\n        Side side,\n        uint256 orderId\n    ) public {\n        Order[] storage orders = orderBook[tokenId][uint256(side)];\n        for (uint256 i = 0; i < orders.length; i++) {\n            if (orders[i].id == orderId) {\n                require(\n                    msg.sender == orders[i].trader,\n                    \"Only the trader can delete his order\"\n                );\n                if (orders[i].side == Side.BUY) {\n                    ethReservedBalance[msg.sender] -=\n                        orders[i].amount *\n                        orders[i].price;\n                } else {\n                    sharesReserved[msg.sender][tokenId] -= orders[i].amount;\n                }\n                orders[i] = orders[orders.length - 1];\n                orders.pop();\n            }\n        }\n    }\n\n    modifier tokenExist(uint256 tokenId) {\n        address erc721ContractAddress;\n        (erc721ContractAddress) = nftFractionsRepository\n            .getErc721ContractAddress(tokenId);\n        require(\n            erc721ContractAddress != address(0),\n            \"this token does not exist\"\n        );\n        _;\n    }\n}\n",
  "sourcePath": "/Users/szabolcs/Documents/Personal/Szakmai/Ethereum/nft-fractions-dex/contracts/Dex.sol",
  "compiler": {
    "name": "solc",
    "version": "0.8.0+commit.c7dfd78e.Emscripten.clang"
  },
  "schemaVersion": "3.3.4",
  "updatedAt": "2021-06-15T15:21:01.515Z",
  "networkType": "ethereum",
  "devdoc": {
    "kind": "dev",
    "methods": {
      "deleteOrder(uint256,uint8,uint256)": {
        "details": "delete the order"
      },
      "depositEth()": {
        "details": "deposit ETH for trading"
      },
      "getEthBalance(address)": {
        "details": "returns the ETH balance of the owner"
      },
      "getEthReserveBalance(address)": {
        "details": "returns the ETH reserved balance of the owner"
      },
      "getOrders(uint256,uint8)": {
        "details": "returns the orders of the token and side"
      },
      "getSharesReserveBalance(address,uint256)": {
        "details": "returns the shares reserved in orders for a given owner and tokenId"
      },
      "owner()": {
        "details": "Returns the address of the current owner."
      },
      "paused()": {
        "details": "Returns true if the contract is paused, and false otherwise."
      },
      "renounceOwnership()": {
        "details": "Leaves the contract without owner. It will not be possible to call `onlyOwner` functions anymore. Can only be called by the current owner. NOTE: Renouncing ownership will leave the contract without an owner, thereby removing any functionality that is only available to the owner."
      },
      "transferOwnership(address)": {
        "details": "Transfers ownership of the contract to a new account (`newOwner`). Can only be called by the current owner."
      },
      "withdrawEth(uint256)": {
        "details": "Withdraw ETH Requirements: - msg.sender has to have equal or more ETH than the amount to withdraw"
      }
    },
    "version": 1
  },
  "userdoc": {
    "kind": "user",
    "methods": {},
    "version": 1
  }
}