{
  "contractName": "DexBase",
  "abi": [
    {
      "anonymous": false,
      "inputs": [
        {
          "indexed": true,
          "internalType": "address",
          "name": "previousOwner",
          "type": "address"
        },
        {
          "indexed": true,
          "internalType": "address",
          "name": "newOwner",
          "type": "address"
        }
      ],
      "name": "OwnershipTransferred",
      "type": "event"
    },
    {
      "anonymous": false,
      "inputs": [
        {
          "indexed": false,
          "internalType": "address",
          "name": "account",
          "type": "address"
        }
      ],
      "name": "Paused",
      "type": "event"
    },
    {
      "anonymous": false,
      "inputs": [
        {
          "indexed": false,
          "internalType": "address",
          "name": "account",
          "type": "address"
        }
      ],
      "name": "Unpaused",
      "type": "event"
    },
    {
      "inputs": [],
      "name": "owner",
      "outputs": [
        {
          "internalType": "address",
          "name": "",
          "type": "address"
        }
      ],
      "stateMutability": "view",
      "type": "function"
    },
    {
      "inputs": [],
      "name": "paused",
      "outputs": [
        {
          "internalType": "bool",
          "name": "",
          "type": "bool"
        }
      ],
      "stateMutability": "view",
      "type": "function"
    },
    {
      "inputs": [],
      "name": "renounceOwnership",
      "outputs": [],
      "stateMutability": "nonpayable",
      "type": "function"
    },
    {
      "inputs": [
        {
          "internalType": "address",
          "name": "newOwner",
          "type": "address"
        }
      ],
      "name": "transferOwnership",
      "outputs": [],
      "stateMutability": "nonpayable",
      "type": "function"
    },
    {
      "inputs": [],
      "name": "__DexBase_init",
      "outputs": [],
      "stateMutability": "nonpayable",
      "type": "function"
    },
    {
      "inputs": [
        {
          "internalType": "address",
          "name": "nftFractionsRepositoryAddress",
          "type": "address"
        }
      ],
      "name": "setNftFractionsRepository",
      "outputs": [],
      "stateMutability": "nonpayable",
      "type": "function"
    },
    {
      "inputs": [],
      "name": "depositEth",
      "outputs": [],
      "stateMutability": "payable",
      "type": "function"
    },
    {
      "inputs": [
        {
          "internalType": "uint256",
          "name": "amount",
          "type": "uint256"
        }
      ],
      "name": "withdrawEth",
      "outputs": [],
      "stateMutability": "nonpayable",
      "type": "function"
    },
    {
      "inputs": [],
      "name": "pause",
      "outputs": [],
      "stateMutability": "nonpayable",
      "type": "function"
    },
    {
      "inputs": [
        {
          "internalType": "uint256",
          "name": "tokenId",
          "type": "uint256"
        },
        {
          "internalType": "uint256",
          "name": "amount",
          "type": "uint256"
        },
        {
          "internalType": "uint256",
          "name": "price",
          "type": "uint256"
        },
        {
          "internalType": "enum DexBase.Side",
          "name": "side",
          "type": "uint8"
        }
      ],
      "name": "createLimitOrder",
      "outputs": [],
      "stateMutability": "nonpayable",
      "type": "function"
    },
    {
      "inputs": [
        {
          "internalType": "uint256",
          "name": "tokenId",
          "type": "uint256"
        },
        {
          "internalType": "uint256",
          "name": "amount",
          "type": "uint256"
        },
        {
          "internalType": "enum DexBase.Side",
          "name": "side",
          "type": "uint8"
        }
      ],
      "name": "createMarketOrder",
      "outputs": [],
      "stateMutability": "nonpayable",
      "type": "function"
    },
    {
      "inputs": [
        {
          "internalType": "uint256",
          "name": "tokenId",
          "type": "uint256"
        },
        {
          "internalType": "enum DexBase.Side",
          "name": "side",
          "type": "uint8"
        },
        {
          "internalType": "uint256",
          "name": "orderId",
          "type": "uint256"
        }
      ],
      "name": "deleteOrder",
      "outputs": [],
      "stateMutability": "nonpayable",
      "type": "function"
    }
  ],
  "bytecode": "0x608060405234801561001057600080fd5b50614a28806100206000396000f3fe6080604052600436106100a75760003560e01c80638da5cb5b116100645780638da5cb5b146101615780639c793bac1461018c578063b85b9e40146101b5578063c311d049146101cc578063f2fde38b146101f5578063fbe276741461021e576100a7565b80630bbf2085146100ac578063439370b1146100d557806354c0cde4146100df5780635c975abb14610108578063715018a6146101335780638456cb591461014a575b600080fd5b3480156100b857600080fd5b506100d360048036038101906100ce919061410a565b610247565b005b6100dd611157565b005b3480156100eb57600080fd5b50610106600480360381019061010191906140bb565b611240565b005b34801561011457600080fd5b5061011d612c2a565b60405161012a919061460e565b60405180910390f35b34801561013f57600080fd5b50610148612c41565b005b34801561015657600080fd5b5061015f612d7e565b005b34801561016d57600080fd5b50610176612e04565b6040516101839190614572565b60405180910390f35b34801561019857600080fd5b506101b360048036038101906101ae919061406c565b612e2e565b005b3480156101c157600080fd5b506101ca61356d565b005b3480156101d857600080fd5b506101f360048036038101906101ee919061401a565b61365e565b005b34801561020157600080fd5b5061021c60048036038101906102179190613fc8565b6138b1565b005b34801561022a57600080fd5b5061024560048036038101906102409190613fc8565b613a5d565b005b83600060cf60009054906101000a900473ffffffffffffffffffffffffffffffffffffffff1673ffffffffffffffffffffffffffffffffffffffff166366d0330c836040518263ffffffff1660e01b81526004016102a591906147a9565b602060405180830381600087803b1580156102bf57600080fd5b505af11580156102d3573d6000803e3d6000fd5b505050506040513d601f19601f820116820180604052508101906102f79190613ff1565b9050600073ffffffffffffffffffffffffffffffffffffffff168173ffffffffffffffffffffffffffffffffffffffff161415610369576040517f08c379a000000000000000000000000000000000000000000000000000000000815260040161036090614769565b60405180910390fd5b610371612c2a565b156103b1576040517f08c379a00000000000000000000000000000000000000000000000000000000081526004016103a890614789565b60405180910390fd5b6001808111156103ea577f4e487b7100000000000000000000000000000000000000000000000000000000600052602160045260246000fd5b836001811115610423577f4e487b7100000000000000000000000000000000000000000000000000000000600052602160045260246000fd5b14156105e457600060cf60009054906101000a900473ffffffffffffffffffffffffffffffffffffffff1673ffffffffffffffffffffffffffffffffffffffff1662fdd58e33896040518363ffffffff1660e01b81526004016104879291906145e5565b60206040518083038186803b15801561049f57600080fd5b505afa1580156104b3573d6000803e3d6000fd5b505050506040513d601f19601f820116820180604052508101906104d79190614043565b90508581101561051c576040517f08c379a000000000000000000000000000000000000000000000000000000000815260040161051390614709565b60405180910390fd5b8560ce60003373ffffffffffffffffffffffffffffffffffffffff1673ffffffffffffffffffffffffffffffffffffffff1681526020019081526020016000206000898152602001908152602001600020600082825461057c91906147e6565b925050819055506105de338860ce60003373ffffffffffffffffffffffffffffffffffffffff1673ffffffffffffffffffffffffffffffffffffffff16815260200190815260200160002060008b815260200190815260200160002054613b1d565b5061085b565b600060cf60009054906101000a900473ffffffffffffffffffffffffffffffffffffffff1673ffffffffffffffffffffffffffffffffffffffff166333d59207886040518263ffffffff1660e01b815260040161064191906147a9565b602060405180830381600087803b15801561065b57600080fd5b505af115801561066f573d6000803e3d6000fd5b505050506040513d601f19601f820116820180604052508101906106939190614043565b9050858110156106d8576040517f08c379a00000000000000000000000000000000000000000000000000000000081526004016106cf90614729565b60405180910390fd5b84866106e4919061483c565b60cc60003373ffffffffffffffffffffffffffffffffffffffff1673ffffffffffffffffffffffffffffffffffffffff1681526020019081526020016000205460cb60003373ffffffffffffffffffffffffffffffffffffffff1673ffffffffffffffffffffffffffffffffffffffff1681526020019081526020016000205461076e9190614896565b10156107af576040517f08c379a00000000000000000000000000000000000000000000000000000000081526004016107a690614689565b60405180910390fd5b84866107bb919061483c565b60cc60003373ffffffffffffffffffffffffffffffffffffffff1673ffffffffffffffffffffffffffffffffffffffff168152602001908152602001600020600082825461080991906147e6565b925050819055506108593360cc60003373ffffffffffffffffffffffffffffffffffffffff1673ffffffffffffffffffffffffffffffffffffffff16815260200190815260200160002054613b22565b505b600060cd600088815260200190815260200160002060008560018111156108ab577f4e487b7100000000000000000000000000000000000000000000000000000000600052602160045260246000fd5b815260200190815260200160002090506108c560c9613b26565b60006108d160c9613b3c565b9050816040518061010001604052808381526020013373ffffffffffffffffffffffffffffffffffffffff16815260200187600181111561093b577f4e487b7100000000000000000000000000000000000000000000000000000000600052602160045260246000fd5b81526020018a8152602001898152602001600081526020018881526020014281525090806001815401808255809150506001900390600052602060002090600702016000909190919091506000820151816000015560208201518160010160006101000a81548173ffffffffffffffffffffffffffffffffffffffff021916908373ffffffffffffffffffffffffffffffffffffffff16021790555060408201518160010160146101000a81548160ff02191690836001811115610a28577f4e487b7100000000000000000000000000000000000000000000000000000000600052602160045260246000fd5b0217905550606082015181600201556080820151816003015560a0820151816004015560c0820151816005015560e082015181600601555050610a728133878b8b60008c42613b4a565b600080838054905011610a86576000610a98565b60018380549050610a979190614896565b5b90505b600081111561114c5760006001811115610ade577f4e487b7100000000000000000000000000000000000000000000000000000000600052602160045260246000fd5b866001811115610b17577f4e487b7100000000000000000000000000000000000000000000000000000000600052602160045260246000fd5b148015610bc35750828181548110610b58577f4e487b7100000000000000000000000000000000000000000000000000000000600052603260045260246000fd5b90600052602060002090600702016005015483600183610b789190614896565b81548110610baf577f4e487b7100000000000000000000000000000000000000000000000000000000600052603260045260246000fd5b906000526020600020906007020160050154115b15610bcd5761114c565b600180811115610c06577f4e487b7100000000000000000000000000000000000000000000000000000000600052602160045260246000fd5b866001811115610c3f577f4e487b7100000000000000000000000000000000000000000000000000000000600052602160045260246000fd5b148015610ceb5750828181548110610c80577f4e487b7100000000000000000000000000000000000000000000000000000000600052603260045260246000fd5b90600052602060002090600702016005015483600183610ca09190614896565b81548110610cd7577f4e487b7100000000000000000000000000000000000000000000000000000000600052603260045260246000fd5b906000526020600020906007020160050154105b15610cf55761114c565b600083600183610d059190614896565b81548110610d3c577f4e487b7100000000000000000000000000000000000000000000000000000000600052603260045260246000fd5b906000526020600020906007020160405180610100016040529081600082015481526020016001820160009054906101000a900473ffffffffffffffffffffffffffffffffffffffff1673ffffffffffffffffffffffffffffffffffffffff1673ffffffffffffffffffffffffffffffffffffffff1681526020016001820160149054906101000a900460ff166001811115610e01577f4e487b7100000000000000000000000000000000000000000000000000000000600052602160045260246000fd5b6001811115610e39577f4e487b7100000000000000000000000000000000000000000000000000000000600052602160045260246000fd5b8152602001600282015481526020016003820154815260200160048201548152602001600582015481526020016006820154815250509050838281548110610eaa577f4e487b7100000000000000000000000000000000000000000000000000000000600052603260045260246000fd5b906000526020600020906007020184600184610ec69190614896565b81548110610efd577f4e487b7100000000000000000000000000000000000000000000000000000000600052603260045260246000fd5b9060005260206000209060070201600082015481600001556001820160009054906101000a900473ffffffffffffffffffffffffffffffffffffffff168160010160006101000a81548173ffffffffffffffffffffffffffffffffffffffff021916908373ffffffffffffffffffffffffffffffffffffffff1602179055506001820160149054906101000a900460ff168160010160146101000a81548160ff02191690836001811115610fda577f4e487b7100000000000000000000000000000000000000000000000000000000600052602160045260246000fd5b021790555060028201548160020155600382015481600301556004820154816004015560058201548160050155600682015481600601559050508084838154811061104e577f4e487b7100000000000000000000000000000000000000000000000000000000600052603260045260246000fd5b90600052602060002090600702016000820151816000015560208201518160010160006101000a81548173ffffffffffffffffffffffffffffffffffffffff021916908373ffffffffffffffffffffffffffffffffffffffff16021790555060408201518160010160146101000a81548160ff021916908360018111156110fe577f4e487b7100000000000000000000000000000000000000000000000000000000600052602160045260246000fd5b0217905550606082015181600201556080820151816003015560a0820151816004015560c0820151816005015560e08201518160060155905050818061114390614912565b92505050610a9b565b505050505050505050565b61115f612c2a565b1561119f576040517f08c379a000000000000000000000000000000000000000000000000000000000815260040161119690614789565b60405180910390fd5b3460cb60003373ffffffffffffffffffffffffffffffffffffffff1673ffffffffffffffffffffffffffffffffffffffff16815260200190815260200160002060008282546111ee91906147e6565b9250508190555061123e3360cb60003373ffffffffffffffffffffffffffffffffffffffff1673ffffffffffffffffffffffffffffffffffffffff16815260200190815260200160002054613b54565b565b60026097541415611286576040517f08c379a000000000000000000000000000000000000000000000000000000000815260040161127d90614749565b60405180910390fd5b600260978190555082600060cf60009054906101000a900473ffffffffffffffffffffffffffffffffffffffff1673ffffffffffffffffffffffffffffffffffffffff166366d0330c836040518263ffffffff1660e01b81526004016112ec91906147a9565b602060405180830381600087803b15801561130657600080fd5b505af115801561131a573d6000803e3d6000fd5b505050506040513d601f19601f8201168201806040525081019061133e9190613ff1565b9050600073ffffffffffffffffffffffffffffffffffffffff168173ffffffffffffffffffffffffffffffffffffffff1614156113b0576040517f08c379a00000000000000000000000000000000000000000000000000000000081526004016113a790614769565b60405180910390fd5b6113b8612c2a565b156113f8576040517f08c379a00000000000000000000000000000000000000000000000000000000081526004016113ef90614789565b60405180910390fd5b600180811115611431577f4e487b7100000000000000000000000000000000000000000000000000000000600052602160045260246000fd5b83600181111561146a577f4e487b7100000000000000000000000000000000000000000000000000000000600052602160045260246000fd5b141561156557600060cf60009054906101000a900473ffffffffffffffffffffffffffffffffffffffff1673ffffffffffffffffffffffffffffffffffffffff1662fdd58e33886040518363ffffffff1660e01b81526004016114ce9291906145e5565b60206040518083038186803b1580156114e657600080fd5b505afa1580156114fa573d6000803e3d6000fd5b505050506040513d601f19601f8201168201806040525081019061151e9190614043565b905084811015611563576040517f08c379a000000000000000000000000000000000000000000000000000000000815260040161155a90614709565b60405180910390fd5b505b600060cd600087815260200190815260200160002060008060018111156115b5577f4e487b7100000000000000000000000000000000000000000000000000000000600052602160045260246000fd5b8660018111156115ee577f4e487b7100000000000000000000000000000000000000000000000000000000600052602160045260246000fd5b146115fa5760006115fd565b60015b6001811115611635577f4e487b7100000000000000000000000000000000000000000000000000000000600052602160045260246000fd5b815260200190815260200160002090506000808690505b82805490508210801561165f5750600081115b1561287257600083838154811061169f577f4e487b7100000000000000000000000000000000000000000000000000000000600052603260045260246000fd5b9060005260206000209060070201600401548484815481106116ea577f4e487b7100000000000000000000000000000000000000000000000000000000600052603260045260246000fd5b9060005260206000209060070201600301546117069190614896565b905060008183116117175782611719565b815b905080836117279190614896565b925080858581548110611763577f4e487b7100000000000000000000000000000000000000000000000000000000600052603260045260246000fd5b90600052602060002090600702016004015461177f91906147e6565b8585815481106117b8577f4e487b7100000000000000000000000000000000000000000000000000000000600052603260045260246000fd5b9060005260206000209060070201600401819055506117d760ca613b26565b60006117e360ca613b3c565b90506118f381878781548110611822577f4e487b7100000000000000000000000000000000000000000000000000000000600052603260045260246000fd5b9060005260206000209060070201600001548d89898154811061186e577f4e487b7100000000000000000000000000000000000000000000000000000000600052603260045260246000fd5b906000526020600020906007020160010160009054906101000a900473ffffffffffffffffffffffffffffffffffffffff1633878c8c815481106118db577f4e487b7100000000000000000000000000000000000000000000000000000000600052603260045260246000fd5b90600052602060002090600702016005015442613b58565b611b3686868154811061192f577f4e487b7100000000000000000000000000000000000000000000000000000000600052603260045260246000fd5b90600052602060002090600702016000015487878154811061197a577f4e487b7100000000000000000000000000000000000000000000000000000000600052603260045260246000fd5b906000526020600020906007020160010160009054906101000a900473ffffffffffffffffffffffffffffffffffffffff168888815481106119e5577f4e487b7100000000000000000000000000000000000000000000000000000000600052603260045260246000fd5b906000526020600020906007020160010160149054906101000a900460ff16898981548110611a3d577f4e487b7100000000000000000000000000000000000000000000000000000000600052603260045260246000fd5b9060005260206000209060070201600201548a8a81548110611a88577f4e487b7100000000000000000000000000000000000000000000000000000000600052603260045260246000fd5b9060005260206000209060070201600301548b8b81548110611ad3577f4e487b7100000000000000000000000000000000000000000000000000000000600052603260045260246000fd5b9060005260206000209060070201600401548c8c81548110611b1e577f4e487b7100000000000000000000000000000000000000000000000000000000600052603260045260246000fd5b90600052602060002090600702016005015442613b4a565b600180811115611b6f577f4e487b7100000000000000000000000000000000000000000000000000000000600052602160045260246000fd5b896001811115611ba8577f4e487b7100000000000000000000000000000000000000000000000000000000600052602160045260246000fd5b141561209e5760cf60009054906101000a900473ffffffffffffffffffffffffffffffffffffffff1673ffffffffffffffffffffffffffffffffffffffff1663605105f033888881548110611c26577f4e487b7100000000000000000000000000000000000000000000000000000000600052603260045260246000fd5b906000526020600020906007020160010160009054906101000a900473ffffffffffffffffffffffffffffffffffffffff168e866040518563ffffffff1660e01b8152600401611c79949392919061458d565b600060405180830381600087803b158015611c9357600080fd5b505af1158015611ca7573d6000803e3d6000fd5b5050505081868681548110611ce5577f4e487b7100000000000000000000000000000000000000000000000000000000600052603260045260246000fd5b906000526020600020906007020160050154611d01919061483c565b60cb60003373ffffffffffffffffffffffffffffffffffffffff1673ffffffffffffffffffffffffffffffffffffffff1681526020019081526020016000206000828254611d4f91906147e6565b9250508190555081868681548110611d90577f4e487b7100000000000000000000000000000000000000000000000000000000600052603260045260246000fd5b906000526020600020906007020160050154611dac919061483c565b60cb6000888881548110611de9577f4e487b7100000000000000000000000000000000000000000000000000000000600052603260045260246000fd5b906000526020600020906007020160010160009054906101000a900473ffffffffffffffffffffffffffffffffffffffff1673ffffffffffffffffffffffffffffffffffffffff1673ffffffffffffffffffffffffffffffffffffffff1681526020019081526020016000206000828254611e649190614896565b9250508190555081868681548110611ea5577f4e487b7100000000000000000000000000000000000000000000000000000000600052603260045260246000fd5b906000526020600020906007020160050154611ec1919061483c565b60cc6000888881548110611efe577f4e487b7100000000000000000000000000000000000000000000000000000000600052603260045260246000fd5b906000526020600020906007020160010160009054906101000a900473ffffffffffffffffffffffffffffffffffffffff1673ffffffffffffffffffffffffffffffffffffffff1673ffffffffffffffffffffffffffffffffffffffff1681526020019081526020016000206000828254611f799190614896565b9250508190555061209d868681548110611fbc577f4e487b7100000000000000000000000000000000000000000000000000000000600052603260045260246000fd5b906000526020600020906007020160010160009054906101000a900473ffffffffffffffffffffffffffffffffffffffff1660cc600089898154811061202b577f4e487b7100000000000000000000000000000000000000000000000000000000600052603260045260246000fd5b906000526020600020906007020160010160009054906101000a900473ffffffffffffffffffffffffffffffffffffffff1673ffffffffffffffffffffffffffffffffffffffff1673ffffffffffffffffffffffffffffffffffffffff16815260200190815260200160002054613b22565b5b600060018111156120d8577f4e487b7100000000000000000000000000000000000000000000000000000000600052602160045260246000fd5b896001811115612111577f4e487b7100000000000000000000000000000000000000000000000000000000600052602160045260246000fd5b14156126f65781868681548110612151577f4e487b7100000000000000000000000000000000000000000000000000000000600052603260045260246000fd5b90600052602060002090600702016005015461216d919061483c565b60cc60003373ffffffffffffffffffffffffffffffffffffffff1673ffffffffffffffffffffffffffffffffffffffff1681526020019081526020016000205460cb60003373ffffffffffffffffffffffffffffffffffffffff1673ffffffffffffffffffffffffffffffffffffffff168152602001908152602001600020546121f79190614896565b1015612238576040517f08c379a000000000000000000000000000000000000000000000000000000000815260040161222f90614689565b60405180910390fd5b60cf60009054906101000a900473ffffffffffffffffffffffffffffffffffffffff1673ffffffffffffffffffffffffffffffffffffffff1663605105f08787815481106122af577f4e487b7100000000000000000000000000000000000000000000000000000000600052603260045260246000fd5b906000526020600020906007020160010160009054906101000a900473ffffffffffffffffffffffffffffffffffffffff16338e866040518563ffffffff1660e01b8152600401612303949392919061458d565b600060405180830381600087803b15801561231d57600080fd5b505af1158015612331573d6000803e3d6000fd5b505050508186868154811061236f577f4e487b7100000000000000000000000000000000000000000000000000000000600052603260045260246000fd5b90600052602060002090600702016005015461238b919061483c565b60cb60003373ffffffffffffffffffffffffffffffffffffffff1673ffffffffffffffffffffffffffffffffffffffff16815260200190815260200160002060008282546123d99190614896565b925050819055508186868154811061241a577f4e487b7100000000000000000000000000000000000000000000000000000000600052603260045260246000fd5b906000526020600020906007020160050154612436919061483c565b60cb6000888881548110612473577f4e487b7100000000000000000000000000000000000000000000000000000000600052603260045260246000fd5b906000526020600020906007020160010160009054906101000a900473ffffffffffffffffffffffffffffffffffffffff1673ffffffffffffffffffffffffffffffffffffffff1673ffffffffffffffffffffffffffffffffffffffff16815260200190815260200160002060008282546124ee91906147e6565b925050819055508160ce6000888881548110612533577f4e487b7100000000000000000000000000000000000000000000000000000000600052603260045260246000fd5b906000526020600020906007020160010160009054906101000a900473ffffffffffffffffffffffffffffffffffffffff1673ffffffffffffffffffffffffffffffffffffffff1673ffffffffffffffffffffffffffffffffffffffff16815260200190815260200160002060008d815260200190815260200160002060008282546125bf9190614896565b925050819055506126f5868681548110612602577f4e487b7100000000000000000000000000000000000000000000000000000000600052603260045260246000fd5b906000526020600020906007020160010160009054906101000a900473ffffffffffffffffffffffffffffffffffffffff168c60ce60008a8a81548110612672577f4e487b7100000000000000000000000000000000000000000000000000000000600052603260045260246000fd5b906000526020600020906007020160010160009054906101000a900473ffffffffffffffffffffffffffffffffffffffff1673ffffffffffffffffffffffffffffffffffffffff1673ffffffffffffffffffffffffffffffffffffffff16815260200190815260200160002060008f815260200190815260200160002054613b1d565b5b61273f3360cb60003373ffffffffffffffffffffffffffffffffffffffff1673ffffffffffffffffffffffffffffffffffffffff16815260200190815260200160002054613b54565b61285c86868154811061277b577f4e487b7100000000000000000000000000000000000000000000000000000000600052603260045260246000fd5b906000526020600020906007020160010160009054906101000a900473ffffffffffffffffffffffffffffffffffffffff1660cb60008989815481106127ea577f4e487b7100000000000000000000000000000000000000000000000000000000600052603260045260246000fd5b906000526020600020906007020160010160009054906101000a900473ffffffffffffffffffffffffffffffffffffffff1673ffffffffffffffffffffffffffffffffffffffff1673ffffffffffffffffffffffffffffffffffffffff16815260200190815260200160002054613b54565b84806128679061493c565b95505050505061164c565b600091505b82805490508210801561291d57508282815481106128be577f4e487b7100000000000000000000000000000000000000000000000000000000600052603260045260246000fd5b906000526020600020906007020160030154838381548110612909577f4e487b7100000000000000000000000000000000000000000000000000000000600052603260045260246000fd5b906000526020600020906007020160040154145b15612c185761297583838154811061295e577f4e487b7100000000000000000000000000000000000000000000000000000000600052603260045260246000fd5b906000526020600020906007020160000154613b62565b60008290505b6001848054905061298c9190614896565b811015612b4957836001826129a191906147e6565b815481106129d8577f4e487b7100000000000000000000000000000000000000000000000000000000600052603260045260246000fd5b9060005260206000209060070201848281548110612a1f577f4e487b7100000000000000000000000000000000000000000000000000000000600052603260045260246000fd5b9060005260206000209060070201600082015481600001556001820160009054906101000a900473ffffffffffffffffffffffffffffffffffffffff168160010160006101000a81548173ffffffffffffffffffffffffffffffffffffffff021916908373ffffffffffffffffffffffffffffffffffffffff1602179055506001820160149054906101000a900460ff168160010160146101000a81548160ff02191690836001811115612afc577f4e487b7100000000000000000000000000000000000000000000000000000000600052602160045260246000fd5b021790555060028201548160020155600382015481600301556004820154816004015560058201548160050155600682015481600601559050508080612b419061493c565b91505061297b565b5082805480612b81577f4e487b7100000000000000000000000000000000000000000000000000000000600052603160045260246000fd5b60019003818190600052602060002090600702016000808201600090556001820160006101000a81549073ffffffffffffffffffffffffffffffffffffffff02191690556001820160146101000a81549060ff021916905560028201600090556003820160009055600482016000905560058201600090556006820160009055505090558180612c109061493c565b925050612877565b50505050506001609781905550505050565b6000603360009054906101000a900460ff16905090565b612c49613b65565b73ffffffffffffffffffffffffffffffffffffffff16612c67612e04565b73ffffffffffffffffffffffffffffffffffffffff1614612cbd576040517f08c379a0000000000000000000000000000000000000000000000000000000008152600401612cb4906146a9565b60405180910390fd5b600073ffffffffffffffffffffffffffffffffffffffff16606560009054906101000a900473ffffffffffffffffffffffffffffffffffffffff1673ffffffffffffffffffffffffffffffffffffffff167f8be0079c531659141344cd1fd0a4f28419497f9722a3daafe3b4186f6b6457e060405160405180910390a36000606560006101000a81548173ffffffffffffffffffffffffffffffffffffffff021916908373ffffffffffffffffffffffffffffffffffffffff160217905550565b612d86613b65565b73ffffffffffffffffffffffffffffffffffffffff16612da4612e04565b73ffffffffffffffffffffffffffffffffffffffff1614612dfa576040517f08c379a0000000000000000000000000000000000000000000000000000000008152600401612df1906146a9565b60405180910390fd5b612e02613b6d565b565b6000606560009054906101000a900473ffffffffffffffffffffffffffffffffffffffff16905090565b600060cd60008581526020019081526020016000206000846001811115612e7e577f4e487b7100000000000000000000000000000000000000000000000000000000600052602160045260246000fd5b8152602001908152602001600020905060005b81805490508110156135665782828281548110612ed7577f4e487b7100000000000000000000000000000000000000000000000000000000600052603260045260246000fd5b906000526020600020906007020160000154141561355357818181548110612f28577f4e487b7100000000000000000000000000000000000000000000000000000000600052603260045260246000fd5b906000526020600020906007020160010160009054906101000a900473ffffffffffffffffffffffffffffffffffffffff1673ffffffffffffffffffffffffffffffffffffffff163373ffffffffffffffffffffffffffffffffffffffff1614612fc7576040517f08c379a0000000000000000000000000000000000000000000000000000000008152600401612fbe906146e9565b60405180910390fd5b60006001811115613001577f4e487b7100000000000000000000000000000000000000000000000000000000600052602160045260246000fd5b82828154811061303a577f4e487b7100000000000000000000000000000000000000000000000000000000600052603260045260246000fd5b906000526020600020906007020160010160149054906101000a900460ff166001811115613091577f4e487b7100000000000000000000000000000000000000000000000000000000600052602160045260246000fd5b14156131da578181815481106130d0577f4e487b7100000000000000000000000000000000000000000000000000000000600052603260045260246000fd5b90600052602060002090600702016005015482828154811061311b577f4e487b7100000000000000000000000000000000000000000000000000000000600052603260045260246000fd5b906000526020600020906007020160030154613137919061483c565b60cc60003373ffffffffffffffffffffffffffffffffffffffff1673ffffffffffffffffffffffffffffffffffffffff16815260200190815260200160002060008282546131859190614896565b925050819055506131d53360cc60003373ffffffffffffffffffffffffffffffffffffffff1673ffffffffffffffffffffffffffffffffffffffff16815260200190815260200160002054613b22565b6132e7565b818181548110613213577f4e487b7100000000000000000000000000000000000000000000000000000000600052603260045260246000fd5b90600052602060002090600702016003015460ce60003373ffffffffffffffffffffffffffffffffffffffff1673ffffffffffffffffffffffffffffffffffffffff168152602001908152602001600020600087815260200190815260200160002060008282546132849190614896565b925050819055506132e6338660ce60003373ffffffffffffffffffffffffffffffffffffffff1673ffffffffffffffffffffffffffffffffffffffff168152602001908152602001600020600089815260200190815260200160002054613b1d565b5b81600183805490506132f99190614896565b81548110613330577f4e487b7100000000000000000000000000000000000000000000000000000000600052603260045260246000fd5b9060005260206000209060070201828281548110613377577f4e487b7100000000000000000000000000000000000000000000000000000000600052603260045260246000fd5b9060005260206000209060070201600082015481600001556001820160009054906101000a900473ffffffffffffffffffffffffffffffffffffffff168160010160006101000a81548173ffffffffffffffffffffffffffffffffffffffff021916908373ffffffffffffffffffffffffffffffffffffffff1602179055506001820160149054906101000a900460ff168160010160146101000a81548160ff02191690836001811115613454577f4e487b7100000000000000000000000000000000000000000000000000000000600052602160045260246000fd5b02179055506002820154816002015560038201548160030155600482015481600401556005820154816005015560068201548160060155905050818054806134c5577f4e487b7100000000000000000000000000000000000000000000000000000000600052603160045260246000fd5b60019003818190600052602060002090600702016000808201600090556001820160006101000a81549073ffffffffffffffffffffffffffffffffffffffff02191690556001820160146101000a81549060ff0219169055600282016000905560038201600090556004820160009055600582016000905560068201600090555050905561355283613b62565b5b808061355e9061493c565b915050612e91565b5050505050565b600060019054906101000a900460ff1680613593575060008054906101000a900460ff16155b6135d2576040517f08c379a00000000000000000000000000000000000000000000000000000000081526004016135c990614669565b60405180910390fd5b60008060019054906101000a900460ff161590508015613622576001600060016101000a81548160ff02191690831515021790555060016000806101000a81548160ff0219169083151502179055505b61362a613c10565b613632613ce9565b61363a613ddd565b801561365b5760008060016101000a81548160ff0219169083151502179055505b50565b600260975414156136a4576040517f08c379a000000000000000000000000000000000000000000000000000000000815260040161369b90614749565b60405180910390fd5b60026097819055506136b4612c2a565b156136f4576040517f08c379a00000000000000000000000000000000000000000000000000000000081526004016136eb90614789565b60405180910390fd5b8060cc60003373ffffffffffffffffffffffffffffffffffffffff1673ffffffffffffffffffffffffffffffffffffffff1681526020019081526020016000205460cb60003373ffffffffffffffffffffffffffffffffffffffff1673ffffffffffffffffffffffffffffffffffffffff1681526020019081526020016000205461377f9190614896565b10156137c0576040517f08c379a00000000000000000000000000000000000000000000000000000000081526004016137b7906146c9565b60405180910390fd5b8060cb60003373ffffffffffffffffffffffffffffffffffffffff1673ffffffffffffffffffffffffffffffffffffffff168152602001908152602001600020600082825461380f9190614896565b925050819055503373ffffffffffffffffffffffffffffffffffffffff166108fc829081150290604051600060405180830381858888f1935050505015801561385c573d6000803e3d6000fd5b506138a63360cb60003373ffffffffffffffffffffffffffffffffffffffff1673ffffffffffffffffffffffffffffffffffffffff16815260200190815260200160002054613b54565b600160978190555050565b6138b9613b65565b73ffffffffffffffffffffffffffffffffffffffff166138d7612e04565b73ffffffffffffffffffffffffffffffffffffffff161461392d576040517f08c379a0000000000000000000000000000000000000000000000000000000008152600401613924906146a9565b60405180910390fd5b600073ffffffffffffffffffffffffffffffffffffffff168173ffffffffffffffffffffffffffffffffffffffff16141561399d576040517f08c379a000000000000000000000000000000000000000000000000000000000815260040161399490614629565b60405180910390fd5b8073ffffffffffffffffffffffffffffffffffffffff16606560009054906101000a900473ffffffffffffffffffffffffffffffffffffffff1673ffffffffffffffffffffffffffffffffffffffff167f8be0079c531659141344cd1fd0a4f28419497f9722a3daafe3b4186f6b6457e060405160405180910390a380606560006101000a81548173ffffffffffffffffffffffffffffffffffffffff021916908373ffffffffffffffffffffffffffffffffffffffff16021790555050565b613a65613b65565b73ffffffffffffffffffffffffffffffffffffffff16613a83612e04565b73ffffffffffffffffffffffffffffffffffffffff1614613ad9576040517f08c379a0000000000000000000000000000000000000000000000000000000008152600401613ad0906146a9565b60405180910390fd5b8060cf60006101000a81548173ffffffffffffffffffffffffffffffffffffffff021916908373ffffffffffffffffffffffffffffffffffffffff16021790555050565b505050565b5050565b6001816000016000828254019250508190555050565b600081600001549050919050565b5050505050505050565b5050565b5050505050505050565b50565b600033905090565b613b75612c2a565b15613bb5576040517f08c379a0000000000000000000000000000000000000000000000000000000008152600401613bac90614649565b60405180910390fd5b6001603360006101000a81548160ff0219169083151502179055507f62e78cea01bee320cd4e420270b5ea74000d11b0c9f74754ebdbfc544b05a258613bf9613b65565b604051613c069190614572565b60405180910390a1565b600060019054906101000a900460ff1680613c36575060008054906101000a900460ff16155b613c75576040517f08c379a0000000000000000000000000000000000000000000000000000000008152600401613c6c90614669565b60405180910390fd5b60008060019054906101000a900460ff161590508015613cc5576001600060016101000a81548160ff02191690831515021790555060016000806101000a81548160ff0219169083151502179055505b8015613ce65760008060016101000a81548160ff0219169083151502179055505b50565b600060019054906101000a900460ff1680613d0f575060008054906101000a900460ff16155b613d4e576040517f08c379a0000000000000000000000000000000000000000000000000000000008152600401613d4590614669565b60405180910390fd5b60008060019054906101000a900460ff161590508015613d9e576001600060016101000a81548160ff02191690831515021790555060016000806101000a81548160ff0219169083151502179055505b6000603360006101000a81548160ff0219169083151502179055508015613dda5760008060016101000a81548160ff0219169083151502179055505b50565b600060019054906101000a900460ff1680613e03575060008054906101000a900460ff16155b613e42576040517f08c379a0000000000000000000000000000000000000000000000000000000008152600401613e3990614669565b60405180910390fd5b60008060019054906101000a900460ff161590508015613e92576001600060016101000a81548160ff02191690831515021790555060016000806101000a81548160ff0219169083151502179055505b6000613e9c613b65565b905080606560006101000a81548173ffffffffffffffffffffffffffffffffffffffff021916908373ffffffffffffffffffffffffffffffffffffffff1602179055508073ffffffffffffffffffffffffffffffffffffffff16600073ffffffffffffffffffffffffffffffffffffffff167f8be0079c531659141344cd1fd0a4f28419497f9722a3daafe3b4186f6b6457e060405160405180910390a3508015613f5c5760008060016101000a81548160ff0219169083151502179055505b50565b600081359050613f6e816149b4565b92915050565b600081519050613f83816149b4565b92915050565b600081359050613f98816149cb565b92915050565b600081359050613fad816149db565b92915050565b600081519050613fc2816149db565b92915050565b600060208284031215613fda57600080fd5b6000613fe884828501613f5f565b91505092915050565b60006020828403121561400357600080fd5b600061401184828501613f74565b91505092915050565b60006020828403121561402c57600080fd5b600061403a84828501613f9e565b91505092915050565b60006020828403121561405557600080fd5b600061406384828501613fb3565b91505092915050565b60008060006060848603121561408157600080fd5b600061408f86828701613f9e565b93505060206140a086828701613f89565b92505060406140b186828701613f9e565b9150509250925092565b6000806000606084860312156140d057600080fd5b60006140de86828701613f9e565b93505060206140ef86828701613f9e565b925050604061410086828701613f89565b9150509250925092565b6000806000806080858703121561412057600080fd5b600061412e87828801613f9e565b945050602061413f87828801613f9e565b935050604061415087828801613f9e565b925050606061416187828801613f89565b91505092959194509250565b614176816148ca565b82525050565b614185816148dc565b82525050565b60006141986026836147d5565b91507f4f776e61626c653a206e6577206f776e657220697320746865207a65726f206160008301527f64647265737300000000000000000000000000000000000000000000000000006020830152604082019050919050565b60006141fe6010836147d5565b91507f5061757361626c653a20706175736564000000000000000000000000000000006000830152602082019050919050565b600061423e602e836147d5565b91507f496e697469616c697a61626c653a20636f6e747261637420697320616c72656160008301527f647920696e697469616c697a65640000000000000000000000000000000000006020830152604082019050919050565b60006142a46013836147d5565b91507f6574682062616c616e636520746f6f206c6f77000000000000000000000000006000830152602082019050919050565b60006142e46020836147d5565b91507f4f776e61626c653a2063616c6c6572206973206e6f7420746865206f776e65726000830152602082019050919050565b60006143246019836147d5565b91507f4554482062616c616e6365206973206e6f7420656e6f756768000000000000006000830152602082019050919050565b60006143646024836147d5565b91507f4f6e6c7920746865207472616465722063616e2064656c65746520686973206f60008301527f72646572000000000000000000000000000000000000000000000000000000006020830152604082019050919050565b60006143ca6000836147c4565b9150600082019050919050565b60006143e46029836147d5565b91507f6d6573736167652073656e646572277320746f6b656e2062616c616e6365206960008301527f7320746f6f206c6f7700000000000000000000000000000000000000000000006020830152604082019050919050565b600061444a6038836147d5565b91507f746f74616c20616d6f756e74206f66206672616374696f6e73206973206c6f7760008301527f6572207468616e2074686520676976656e20616d6f756e7400000000000000006020830152604082019050919050565b60006144b0601f836147d5565b91507f5265656e7472616e637947756172643a207265656e7472616e742063616c6c006000830152602082019050919050565b60006144f06019836147d5565b91507f7468697320746f6b656e20646f6573206e6f74206578697374000000000000006000830152602082019050919050565b60006145306018836147d5565b91507f4e6f7420616c6c6f776564207768696c652070617573656400000000000000006000830152602082019050919050565b61456c81614908565b82525050565b6000602082019050614587600083018461416d565b92915050565b600060a0820190506145a2600083018761416d565b6145af602083018661416d565b6145bc6040830185614563565b6145c96060830184614563565b81810360808301526145da816143bd565b905095945050505050565b60006040820190506145fa600083018561416d565b6146076020830184614563565b9392505050565b6000602082019050614623600083018461417c565b92915050565b600060208201905081810360008301526146428161418b565b9050919050565b60006020820190508181036000830152614662816141f1565b9050919050565b6000602082019050818103600083015261468281614231565b9050919050565b600060208201905081810360008301526146a281614297565b9050919050565b600060208201905081810360008301526146c2816142d7565b9050919050565b600060208201905081810360008301526146e281614317565b9050919050565b6000602082019050818103600083015261470281614357565b9050919050565b60006020820190508181036000830152614722816143d7565b9050919050565b600060208201905081810360008301526147428161443d565b9050919050565b60006020820190508181036000830152614762816144a3565b9050919050565b60006020820190508181036000830152614782816144e3565b9050919050565b600060208201905081810360008301526147a281614523565b9050919050565b60006020820190506147be6000830184614563565b92915050565b600082825260208201905092915050565b600082825260208201905092915050565b60006147f182614908565b91506147fc83614908565b9250827fffffffffffffffffffffffffffffffffffffffffffffffffffffffffffffffff0382111561483157614830614985565b5b828201905092915050565b600061484782614908565b915061485283614908565b9250817fffffffffffffffffffffffffffffffffffffffffffffffffffffffffffffffff048311821515161561488b5761488a614985565b5b828202905092915050565b60006148a182614908565b91506148ac83614908565b9250828210156148bf576148be614985565b5b828203905092915050565b60006148d5826148e8565b9050919050565b60008115159050919050565b600073ffffffffffffffffffffffffffffffffffffffff82169050919050565b6000819050919050565b600061491d82614908565b9150600082141561493157614930614985565b5b600182039050919050565b600061494782614908565b91507fffffffffffffffffffffffffffffffffffffffffffffffffffffffffffffffff82141561497a57614979614985565b5b600182019050919050565b7f4e487b7100000000000000000000000000000000000000000000000000000000600052601160045260246000fd5b6149bd816148ca565b81146149c857600080fd5b50565b600281106149d857600080fd5b50565b6149e481614908565b81146149ef57600080fd5b5056fea2646970667358221220eb7175df51a0acd9729cdc414079fa8679149c5340c5c08688e2900956af956f64736f6c63430008000033",
  "immutableReferences": {},
  "source": "// SPDX-License-Identifier: MIT\n\npragma solidity ^0.8.0;\n\nimport \"@openzeppelin/contracts-upgradeable/security/PausableUpgradeable.sol\";\nimport \"@openzeppelin/contracts-upgradeable/security/ReentrancyGuardUpgradeable.sol\";\nimport \"@openzeppelin/contracts-upgradeable/proxy/utils/Initializable.sol\";\nimport \"@openzeppelin/contracts-upgradeable/utils/CountersUpgradeable.sol\";\nimport \"@openzeppelin/contracts-upgradeable/access/OwnableUpgradeable.sol\";\nimport \"./INftFractionsRepository.sol\";\n\ncontract DexBase is\n    Initializable,\n    PausableUpgradeable,\n    OwnableUpgradeable,\n    ReentrancyGuardUpgradeable\n{\n    using CountersUpgradeable for CountersUpgradeable.Counter;\n\n    enum Side {\n        BUY,\n        SELL\n    }\n\n    struct Order {\n        uint256 id;\n        address trader;\n        Side side;\n        uint256 tokenId;\n        uint256 amount;\n        uint256 filled;\n        uint256 price;\n        uint256 date;\n    }\n\n    CountersUpgradeable.Counter private _orderIds;\n    CountersUpgradeable.Counter private _tradeIds;\n    mapping(address => uint256) ethBalance;\n    mapping(address => uint256) ethReservedBalance;\n    mapping(uint256 => mapping(uint256 => Order[])) orderBook;\n    mapping(address => mapping(uint256 => uint256)) sharesReserved;\n    INftFractionsRepository nftFractionsRepository;\n\n    function __DexBase_init() public initializer {\n        __Context_init_unchained();\n        __Pausable_init_unchained();\n        __Ownable_init_unchained();\n    }\n\n    function setNftFractionsRepository(address nftFractionsRepositoryAddress)\n        public\n        onlyOwner\n    {\n        nftFractionsRepository = INftFractionsRepository(\n            nftFractionsRepositoryAddress\n        );\n    }\n\n    /**\n     * @dev deposit ETH for trading\n     */\n    function depositEth() public payable {\n        require(!paused(), \"Not allowed while paused\");\n        ethBalance[msg.sender] += msg.value;\n\n        _onEthBalanceChange(msg.sender, ethBalance[msg.sender]);\n    }\n\n    /**\n     * @dev Withdraw ETH\n     *\n     * Requirements:\n     * - msg.sender has to have equal or more ETH than the amount to withdraw\n     */\n    function withdrawEth(uint256 amount) public nonReentrant {\n        require(!paused(), \"Not allowed while paused\");\n        require(\n            ethBalance[msg.sender] - ethReservedBalance[msg.sender] >= amount,\n            \"ETH balance is not enough\"\n        );\n        ethBalance[msg.sender] -= amount;\n        payable(msg.sender).transfer(amount);\n\n        _onEthBalanceChange(msg.sender, ethBalance[msg.sender]);\n    }\n\n    function pause() public onlyOwner {\n        _pause();\n    }\n\n    /**\n     * @dev Creates a limit order\n     *\n     * Requirements:\n     * - in case of sell: msg.sender has to have sufficient shares available for selling\n     * - in case of buy: msg.sender has to have sufficient ETH deposited\n     *\n     * The relevant hooks are called: _onOrderUpsert, _onSharesReservedChange, _onEthReservedBalanceChange\n     */\n    function createLimitOrder(\n        uint256 tokenId,\n        uint256 amount,\n        uint256 price,\n        Side side\n    ) external tokenExist(tokenId) {\n        require(!paused(), \"Not allowed while paused\");\n        if (side == Side.SELL) {\n            uint256 sendersBalance = nftFractionsRepository.balanceOf(\n                msg.sender,\n                tokenId\n            );\n            require(\n                sendersBalance >= amount,\n                \"message sender's token balance is too low\"\n            );\n            sharesReserved[msg.sender][tokenId] += amount;\n            _onSharesReservedChange(\n                msg.sender,\n                tokenId,\n                sharesReserved[msg.sender][tokenId]\n            );\n        } else {\n            uint256 totalFractionsAmount;\n            totalFractionsAmount = nftFractionsRepository\n                .getTotalFractionsAmount(tokenId);\n            require(\n                totalFractionsAmount >= amount,\n                \"total amount of fractions is lower than the given amount\"\n            );\n            require(\n                ethBalance[msg.sender] - ethReservedBalance[msg.sender] >=\n                    amount * price,\n                \"eth balance too low\"\n            );\n            ethReservedBalance[msg.sender] += amount * price;\n            _onEthReservedBalanceChange(\n                msg.sender,\n                ethReservedBalance[msg.sender]\n            );\n        }\n        Order[] storage orders = orderBook[tokenId][uint256(side)];\n        _orderIds.increment();\n        uint256 newOrderId = _orderIds.current();\n        orders.push(\n            Order(\n                newOrderId,\n                msg.sender,\n                side,\n                tokenId,\n                amount,\n                0,\n                price,\n                block.timestamp\n            )\n        );\n        _onOrderUpsert(\n            newOrderId,\n            msg.sender,\n            side,\n            tokenId,\n            amount,\n            0,\n            price,\n            block.timestamp\n        );\n\n        uint256 i = orders.length > 0 ? orders.length - 1 : 0;\n        while (i > 0) {\n            if (side == Side.BUY && orders[i - 1].price > orders[i].price) {\n                break;\n            }\n            if (side == Side.SELL && orders[i - 1].price < orders[i].price) {\n                break;\n            }\n            Order memory order = orders[i - 1];\n            orders[i - 1] = orders[i];\n            orders[i] = order;\n            i--;\n        }\n    }\n\n    /**\n     * @dev Creates a market order and executes against the registered limit orders\n     *\n     * Requirements:\n     * - in case of sell: msg.sender has to have sufficient shares available for selling\n     * - in case of buy: msg.sender has to have sufficient ETH deposited\n     *\n     * The relevant hooks are called: _onTradeExecution, _onOrderUpsert, _onSharesReservedChange, _onEthReservedBalanceChange, _onEthBalanceChange\n     */\n    function createMarketOrder(\n        uint256 tokenId,\n        uint256 amount,\n        Side side\n    ) external nonReentrant tokenExist(tokenId) {\n        require(!paused(), \"Not allowed while paused\");\n        if (side == Side.SELL) {\n            uint256 sendersBalance = nftFractionsRepository.balanceOf(\n                msg.sender,\n                tokenId\n            );\n            require(\n                sendersBalance >= amount,\n                \"message sender's token balance is too low\"\n            );\n        }\n        Order[] storage orders = orderBook[tokenId][\n            uint256(side == Side.BUY ? Side.SELL : Side.BUY)\n        ];\n        uint256 i;\n        uint256 remaining = amount;\n\n        while (i < orders.length && remaining > 0) {\n            uint256 available = orders[i].amount - orders[i].filled;\n            uint256 matched = (remaining > available) ? available : remaining;\n            remaining = remaining - matched;\n            orders[i].filled = orders[i].filled + matched;\n            _tradeIds.increment();\n            uint256 newTradeId = _tradeIds.current();\n            _onTradeExecution(\n                newTradeId,\n                orders[i].id,\n                tokenId,\n                orders[i].trader,\n                msg.sender,\n                matched,\n                orders[i].price,\n                block.timestamp\n            );\n            _onOrderUpsert(\n                orders[i].id,\n                orders[i].trader,\n                orders[i].side,\n                orders[i].tokenId,\n                orders[i].amount,\n                orders[i].filled,\n                orders[i].price,\n                block.timestamp\n            );\n            if (side == Side.SELL) {\n                nftFractionsRepository.transferFrom(\n                    msg.sender,\n                    orders[i].trader,\n                    tokenId,\n                    matched,\n                    \"\"\n                );\n                ethBalance[msg.sender] += orders[i].price * matched;\n                ethBalance[orders[i].trader] -= orders[i].price * matched;\n                ethReservedBalance[orders[i].trader] -=\n                    orders[i].price *\n                    matched;\n                _onEthReservedBalanceChange(\n                    orders[i].trader,\n                    ethReservedBalance[orders[i].trader]\n                );\n            }\n            if (side == Side.BUY) {\n                require(\n                    ethBalance[msg.sender] - ethReservedBalance[msg.sender] >=\n                        orders[i].price * matched,\n                    \"eth balance too low\"\n                );\n                nftFractionsRepository.transferFrom(\n                    orders[i].trader,\n                    msg.sender,\n                    tokenId,\n                    matched,\n                    \"\"\n                );\n                ethBalance[msg.sender] -= orders[i].price * matched;\n                ethBalance[orders[i].trader] += orders[i].price * matched;\n                sharesReserved[orders[i].trader][tokenId] -= matched;\n                _onSharesReservedChange(\n                    orders[i].trader,\n                    tokenId,\n                    sharesReserved[orders[i].trader][tokenId]\n                );\n            }\n            _onEthBalanceChange(msg.sender, ethBalance[msg.sender]);\n            _onEthBalanceChange(orders[i].trader, ethBalance[orders[i].trader]);\n            i++;\n        }\n\n        i = 0;\n        while (i < orders.length && orders[i].filled == orders[i].amount) {\n            _onOrderRemoval(orders[i].id);\n            for (uint256 j = i; j < orders.length - 1; j++) {\n                orders[j] = orders[j + 1];\n            }\n            orders.pop();\n            i++;\n        }\n    }\n\n    /**\n     * @dev delete the order\n     */\n    function deleteOrder(\n        uint256 tokenId,\n        Side side,\n        uint256 orderId\n    ) public {\n        Order[] storage orders = orderBook[tokenId][uint256(side)];\n        for (uint256 i = 0; i < orders.length; i++) {\n            if (orders[i].id == orderId) {\n                require(\n                    msg.sender == orders[i].trader,\n                    \"Only the trader can delete his order\"\n                );\n                if (orders[i].side == Side.BUY) {\n                    ethReservedBalance[msg.sender] -=\n                        orders[i].amount *\n                        orders[i].price;\n                    _onEthReservedBalanceChange(\n                        msg.sender,\n                        ethReservedBalance[msg.sender]\n                    );\n                } else {\n                    sharesReserved[msg.sender][tokenId] -= orders[i].amount;\n                    _onSharesReservedChange(\n                        msg.sender,\n                        tokenId,\n                        sharesReserved[msg.sender][tokenId]\n                    );\n                }\n                orders[i] = orders[orders.length - 1];\n                orders.pop();\n                _onOrderRemoval(orderId);\n            }\n        }\n    }\n\n    modifier tokenExist(uint256 tokenId) {\n        address erc721ContractAddress;\n        (erc721ContractAddress) = nftFractionsRepository\n            .getErc721ContractAddress(tokenId);\n        require(\n            erc721ContractAddress != address(0),\n            \"this token does not exist\"\n        );\n        _;\n    }\n\n    /**\n     * @dev hook function that is called when an order is created or updated\n     */\n    function _onOrderUpsert(\n        uint256 orderId,\n        address trader,\n        Side side,\n        uint256 tokenId,\n        uint256 amount,\n        uint256 filled,\n        uint256 price,\n        uint256 timestamp\n    ) internal virtual {}\n\n    /**\n     * @dev hook function that is called when an order is deleted\n     */\n    function _onOrderRemoval(uint256 orderId) internal virtual {}\n\n    /**\n     * @dev hook function that is called when a traded happened\n     */\n    function _onTradeExecution(\n        uint256 tradeId,\n        uint256 orderId,\n        uint256 tokenId,\n        address trader1,\n        address trader2,\n        uint256 matchedAmount,\n        uint256 price,\n        uint256 timestamp\n    ) internal virtual {}\n\n    /**\n     * @dev hook function that is called when an account's balance has changed in a trade\n     */\n    function _onEthBalanceChange(address account, uint256 balance)\n        internal\n        virtual\n    {}\n\n    /**\n     * @dev hook function that is called when an account's reserved balance has changed, e.g.:\n     * - created a buy order (so the necessary ETH has been reserved)\n     * - the buy order has executed\n     * - the order has been deleted\n     */\n    function _onEthReservedBalanceChange(\n        address account,\n        uint256 reservedBalance\n    ) internal virtual {}\n\n    /**\n     * @dev hook function that is called when an account's token shares reserved balance has changed, e.g.:\n     * - created a sell order (so the shares are reserved)\n     * - the sell order has executed\n     * - the order has been deleted\n     */\n    function _onSharesReservedChange(\n        address account,\n        uint256 tokenId,\n        uint256 sharesReservedBalance\n    ) internal virtual {}\n}\n",
  "sourcePath": "/Users/szabolcs/Documents/Personal/Szakmai/Ethereum/nft-fractions-dex/contracts/DexBase.sol",
  "compiler": {
    "name": "solc",
    "version": "0.8.0+commit.c7dfd78e.Emscripten.clang"
  },
  "schemaVersion": "3.3.4",
  "updatedAt": "2021-09-27T12:53:54.791Z",
  "devdoc": {
    "kind": "dev",
    "methods": {
      "createLimitOrder(uint256,uint256,uint256,uint8)": {
        "details": "Creates a limit order Requirements: - in case of sell: msg.sender has to have sufficient shares available for selling - in case of buy: msg.sender has to have sufficient ETH deposited The relevant hooks are called: _onOrderUpsert, _onSharesReservedChange, _onEthReservedBalanceChange"
      },
      "createMarketOrder(uint256,uint256,uint8)": {
        "details": "Creates a market order and executes against the registered limit orders Requirements: - in case of sell: msg.sender has to have sufficient shares available for selling - in case of buy: msg.sender has to have sufficient ETH deposited The relevant hooks are called: _onTradeExecution, _onOrderUpsert, _onSharesReservedChange, _onEthReservedBalanceChange, _onEthBalanceChange"
      },
      "deleteOrder(uint256,uint8,uint256)": {
        "details": "delete the order"
      },
      "depositEth()": {
        "details": "deposit ETH for trading"
      },
      "owner()": {
        "details": "Returns the address of the current owner."
      },
      "paused()": {
        "details": "Returns true if the contract is paused, and false otherwise."
      },
      "renounceOwnership()": {
        "details": "Leaves the contract without owner. It will not be possible to call `onlyOwner` functions anymore. Can only be called by the current owner. NOTE: Renouncing ownership will leave the contract without an owner, thereby removing any functionality that is only available to the owner."
      },
      "transferOwnership(address)": {
        "details": "Transfers ownership of the contract to a new account (`newOwner`). Can only be called by the current owner."
      },
      "withdrawEth(uint256)": {
        "details": "Withdraw ETH Requirements: - msg.sender has to have equal or more ETH than the amount to withdraw"
      }
    },
    "version": 1
  },
  "userdoc": {
    "kind": "user",
    "methods": {},
    "version": 1
  }
}