{
  "contractName": "NftFractionsRepositoryBase",
  "abi": [
    {
      "anonymous": false,
      "inputs": [
        {
          "indexed": true,
          "internalType": "address",
          "name": "account",
          "type": "address"
        },
        {
          "indexed": true,
          "internalType": "address",
          "name": "operator",
          "type": "address"
        },
        {
          "indexed": false,
          "internalType": "bool",
          "name": "approved",
          "type": "bool"
        }
      ],
      "name": "ApprovalForAll",
      "type": "event"
    },
    {
      "anonymous": false,
      "inputs": [
        {
          "indexed": true,
          "internalType": "address",
          "name": "previousOwner",
          "type": "address"
        },
        {
          "indexed": true,
          "internalType": "address",
          "name": "newOwner",
          "type": "address"
        }
      ],
      "name": "OwnershipTransferred",
      "type": "event"
    },
    {
      "anonymous": false,
      "inputs": [
        {
          "indexed": false,
          "internalType": "address",
          "name": "account",
          "type": "address"
        }
      ],
      "name": "Paused",
      "type": "event"
    },
    {
      "anonymous": false,
      "inputs": [
        {
          "indexed": true,
          "internalType": "address",
          "name": "operator",
          "type": "address"
        },
        {
          "indexed": true,
          "internalType": "address",
          "name": "from",
          "type": "address"
        },
        {
          "indexed": true,
          "internalType": "address",
          "name": "to",
          "type": "address"
        },
        {
          "indexed": false,
          "internalType": "uint256[]",
          "name": "ids",
          "type": "uint256[]"
        },
        {
          "indexed": false,
          "internalType": "uint256[]",
          "name": "values",
          "type": "uint256[]"
        }
      ],
      "name": "TransferBatch",
      "type": "event"
    },
    {
      "anonymous": false,
      "inputs": [
        {
          "indexed": true,
          "internalType": "address",
          "name": "operator",
          "type": "address"
        },
        {
          "indexed": true,
          "internalType": "address",
          "name": "from",
          "type": "address"
        },
        {
          "indexed": true,
          "internalType": "address",
          "name": "to",
          "type": "address"
        },
        {
          "indexed": false,
          "internalType": "uint256",
          "name": "id",
          "type": "uint256"
        },
        {
          "indexed": false,
          "internalType": "uint256",
          "name": "value",
          "type": "uint256"
        }
      ],
      "name": "TransferSingle",
      "type": "event"
    },
    {
      "anonymous": false,
      "inputs": [
        {
          "indexed": false,
          "internalType": "string",
          "name": "value",
          "type": "string"
        },
        {
          "indexed": true,
          "internalType": "uint256",
          "name": "id",
          "type": "uint256"
        }
      ],
      "name": "URI",
      "type": "event"
    },
    {
      "anonymous": false,
      "inputs": [
        {
          "indexed": false,
          "internalType": "address",
          "name": "account",
          "type": "address"
        }
      ],
      "name": "Unpaused",
      "type": "event"
    },
    {
      "inputs": [
        {
          "internalType": "address",
          "name": "account",
          "type": "address"
        },
        {
          "internalType": "uint256",
          "name": "id",
          "type": "uint256"
        }
      ],
      "name": "balanceOf",
      "outputs": [
        {
          "internalType": "uint256",
          "name": "",
          "type": "uint256"
        }
      ],
      "stateMutability": "view",
      "type": "function"
    },
    {
      "inputs": [
        {
          "internalType": "address[]",
          "name": "accounts",
          "type": "address[]"
        },
        {
          "internalType": "uint256[]",
          "name": "ids",
          "type": "uint256[]"
        }
      ],
      "name": "balanceOfBatch",
      "outputs": [
        {
          "internalType": "uint256[]",
          "name": "",
          "type": "uint256[]"
        }
      ],
      "stateMutability": "view",
      "type": "function"
    },
    {
      "inputs": [
        {
          "internalType": "address",
          "name": "account",
          "type": "address"
        },
        {
          "internalType": "address",
          "name": "operator",
          "type": "address"
        }
      ],
      "name": "isApprovedForAll",
      "outputs": [
        {
          "internalType": "bool",
          "name": "",
          "type": "bool"
        }
      ],
      "stateMutability": "view",
      "type": "function"
    },
    {
      "inputs": [],
      "name": "owner",
      "outputs": [
        {
          "internalType": "address",
          "name": "",
          "type": "address"
        }
      ],
      "stateMutability": "view",
      "type": "function"
    },
    {
      "inputs": [],
      "name": "paused",
      "outputs": [
        {
          "internalType": "bool",
          "name": "",
          "type": "bool"
        }
      ],
      "stateMutability": "view",
      "type": "function"
    },
    {
      "inputs": [],
      "name": "renounceOwnership",
      "outputs": [],
      "stateMutability": "nonpayable",
      "type": "function"
    },
    {
      "inputs": [
        {
          "internalType": "address",
          "name": "from",
          "type": "address"
        },
        {
          "internalType": "address",
          "name": "to",
          "type": "address"
        },
        {
          "internalType": "uint256[]",
          "name": "ids",
          "type": "uint256[]"
        },
        {
          "internalType": "uint256[]",
          "name": "amounts",
          "type": "uint256[]"
        },
        {
          "internalType": "bytes",
          "name": "data",
          "type": "bytes"
        }
      ],
      "name": "safeBatchTransferFrom",
      "outputs": [],
      "stateMutability": "nonpayable",
      "type": "function"
    },
    {
      "inputs": [
        {
          "internalType": "address",
          "name": "from",
          "type": "address"
        },
        {
          "internalType": "address",
          "name": "to",
          "type": "address"
        },
        {
          "internalType": "uint256",
          "name": "id",
          "type": "uint256"
        },
        {
          "internalType": "uint256",
          "name": "amount",
          "type": "uint256"
        },
        {
          "internalType": "bytes",
          "name": "data",
          "type": "bytes"
        }
      ],
      "name": "safeTransferFrom",
      "outputs": [],
      "stateMutability": "nonpayable",
      "type": "function"
    },
    {
      "inputs": [
        {
          "internalType": "address",
          "name": "operator",
          "type": "address"
        },
        {
          "internalType": "bool",
          "name": "approved",
          "type": "bool"
        }
      ],
      "name": "setApprovalForAll",
      "outputs": [],
      "stateMutability": "nonpayable",
      "type": "function"
    },
    {
      "inputs": [
        {
          "internalType": "bytes4",
          "name": "interfaceId",
          "type": "bytes4"
        }
      ],
      "name": "supportsInterface",
      "outputs": [
        {
          "internalType": "bool",
          "name": "",
          "type": "bool"
        }
      ],
      "stateMutability": "view",
      "type": "function"
    },
    {
      "inputs": [
        {
          "internalType": "address",
          "name": "newOwner",
          "type": "address"
        }
      ],
      "name": "transferOwnership",
      "outputs": [],
      "stateMutability": "nonpayable",
      "type": "function"
    },
    {
      "inputs": [
        {
          "internalType": "uint256",
          "name": "",
          "type": "uint256"
        }
      ],
      "name": "uri",
      "outputs": [
        {
          "internalType": "string",
          "name": "",
          "type": "string"
        }
      ],
      "stateMutability": "view",
      "type": "function"
    },
    {
      "inputs": [
        {
          "internalType": "uint256",
          "name": "tokenId",
          "type": "uint256"
        },
        {
          "internalType": "uint256",
          "name": "amount",
          "type": "uint256"
        },
        {
          "internalType": "address",
          "name": "transferer",
          "type": "address"
        }
      ],
      "name": "burn",
      "outputs": [],
      "stateMutability": "nonpayable",
      "type": "function"
    },
    {
      "inputs": [
        {
          "internalType": "address",
          "name": "erc721ContractAddress",
          "type": "address"
        },
        {
          "internalType": "uint256",
          "name": "erc721TokenId",
          "type": "uint256"
        },
        {
          "internalType": "uint256",
          "name": "erc1155TokenId",
          "type": "uint256"
        },
        {
          "internalType": "uint256",
          "name": "erc1155Amount",
          "type": "uint256"
        },
        {
          "internalType": "uint256",
          "name": "totalFractionsAmount",
          "type": "uint256"
        },
        {
          "internalType": "address",
          "name": "transferer",
          "type": "address"
        },
        {
          "internalType": "string",
          "name": "tokenURI",
          "type": "string"
        }
      ],
      "name": "mint",
      "outputs": [],
      "stateMutability": "nonpayable",
      "type": "function"
    },
    {
      "inputs": [
        {
          "internalType": "address",
          "name": "from",
          "type": "address"
        },
        {
          "internalType": "address",
          "name": "to",
          "type": "address"
        },
        {
          "internalType": "uint256",
          "name": "id",
          "type": "uint256"
        },
        {
          "internalType": "uint256",
          "name": "amount",
          "type": "uint256"
        },
        {
          "internalType": "bytes",
          "name": "data",
          "type": "bytes"
        }
      ],
      "name": "transferFrom",
      "outputs": [],
      "stateMutability": "nonpayable",
      "type": "function"
    },
    {
      "inputs": [
        {
          "internalType": "uint256",
          "name": "_tokenId",
          "type": "uint256"
        }
      ],
      "name": "getTokenData",
      "outputs": [
        {
          "internalType": "address",
          "name": "erc721ContractAddress",
          "type": "address"
        },
        {
          "internalType": "uint256",
          "name": "erc721TokenId",
          "type": "uint256"
        },
        {
          "internalType": "uint256",
          "name": "totalFractionsAmount",
          "type": "uint256"
        },
        {
          "internalType": "string",
          "name": "tokenURI",
          "type": "string"
        }
      ],
      "stateMutability": "view",
      "type": "function"
    },
    {
      "inputs": [
        {
          "internalType": "uint256",
          "name": "_tokenId",
          "type": "uint256"
        }
      ],
      "name": "getTotalFractionsAmount",
      "outputs": [
        {
          "internalType": "uint256",
          "name": "",
          "type": "uint256"
        }
      ],
      "stateMutability": "view",
      "type": "function"
    },
    {
      "inputs": [
        {
          "internalType": "uint256",
          "name": "_tokenId",
          "type": "uint256"
        }
      ],
      "name": "getErc721ContractAddress",
      "outputs": [
        {
          "internalType": "address",
          "name": "",
          "type": "address"
        }
      ],
      "stateMutability": "view",
      "type": "function"
    },
    {
      "inputs": [],
      "name": "pause",
      "outputs": [],
      "stateMutability": "nonpayable",
      "type": "function"
    }
  ],
  "bytecode": "0x608060405234801561001057600080fd5b50613c02806100206000396000f3fe608060405234801561001057600080fd5b50600436106101205760003560e01c8063715018a6116100ad578063a22cb46511610071578063a22cb46514610305578063b09afec114610321578063e985e9c514610354578063f242432a14610384578063f2fde38b146103a057610120565b8063715018a61461029b578063749388c4146102a55780638456cb59146102c15780638da5cb5b146102cb578063971a5847146102e957610120565b806333d59207116100f457806333d59207146101d15780634e1273f4146102015780635c975abb14610231578063605105f01461024f57806366d0330c1461026b57610120565b8062fdd58e1461012557806301ffc9a7146101555780630e89341c146101855780632eb2c2d6146101b5575b600080fd5b61013f600480360381019061013a91906128b1565b6103bc565b60405161014c91906136b6565b60405180910390f35b61016f600480360381019061016a9190612a0f565b610486565b60405161017c9190613439565b60405180910390f35b61019f600480360381019061019a9190612a61565b610568565b6040516101ac9190613454565b60405180910390f35b6101cf60048036038101906101ca9190612727565b6105fc565b005b6101eb60048036038101906101e69190612a61565b6109f5565b6040516101f891906136b6565b60405180910390f35b61021b600480360381019061021691906129a3565b610a15565b60405161022891906133e0565b60405180910390f35b610239610bc6565b6040516102469190613439565b60405180910390f35b610269600480360381019061026491906127e6565b610bdd565b005b61028560048036038101906102809190612a61565b610c65565b60405161029291906132b7565b60405180910390f35b6102a3610ca5565b005b6102bf60048036038101906102ba9190612a8a565b610de2565b005b6102c9610f14565b005b6102d3610f9a565b6040516102e091906132b7565b60405180910390f35b61030360048036038101906102fe91906128ed565b610fc4565b005b61031f600480360381019061031a9190612875565b61121b565b005b61033b60048036038101906103369190612a61565b61139c565b60405161034b9493929190613394565b60405180910390f35b61036e600480360381019061036991906126eb565b6114b9565b60405161037b9190613439565b60405180910390f35b61039e600480360381019061039991906127e6565b61154d565b005b6103ba60048036038101906103b591906126c2565b611868565b005b60008073ffffffffffffffffffffffffffffffffffffffff168373ffffffffffffffffffffffffffffffffffffffff16141561042d576040517f08c379a0000000000000000000000000000000000000000000000000000000008152600401610424906134b6565b60405180910390fd5b6065600083815260200190815260200160002060008473ffffffffffffffffffffffffffffffffffffffff1673ffffffffffffffffffffffffffffffffffffffff16815260200190815260200160002054905092915050565b60007fd9b67a26000000000000000000000000000000000000000000000000000000007bffffffffffffffffffffffffffffffffffffffffffffffffffffffff1916827bffffffffffffffffffffffffffffffffffffffffffffffffffffffff1916148061055157507f0e89341c000000000000000000000000000000000000000000000000000000007bffffffffffffffffffffffffffffffffffffffffffffffffffffffff1916827bffffffffffffffffffffffffffffffffffffffffffffffffffffffff1916145b80610561575061056082611a14565b5b9050919050565b60606067805461057790613994565b80601f01602080910402602001604051908101604052809291908181526020018280546105a390613994565b80156105f05780601f106105c5576101008083540402835291602001916105f0565b820191906000526020600020905b8154815290600101906020018083116105d357829003601f168201915b50505050509050919050565b8151835114610640576040517f08c379a000000000000000000000000000000000000000000000000000000000815260040161063790613656565b60405180910390fd5b600073ffffffffffffffffffffffffffffffffffffffff168473ffffffffffffffffffffffffffffffffffffffff1614156106b0576040517f08c379a00000000000000000000000000000000000000000000000000000000081526004016106a790613576565b60405180910390fd5b6106b8611a7e565b73ffffffffffffffffffffffffffffffffffffffff168573ffffffffffffffffffffffffffffffffffffffff1614806106fe57506106fd856106f8611a7e565b6114b9565b5b61073d576040517f08c379a000000000000000000000000000000000000000000000000000000000815260040161073490613596565b60405180910390fd5b6000610747611a7e565b9050610757818787878787611a86565b60005b845181101561096057600085828151811061079e577f4e487b7100000000000000000000000000000000000000000000000000000000600052603260045260246000fd5b6020026020010151905060008583815181106107e3577f4e487b7100000000000000000000000000000000000000000000000000000000600052603260045260246000fd5b6020026020010151905060006065600084815260200190815260200160002060008b73ffffffffffffffffffffffffffffffffffffffff1673ffffffffffffffffffffffffffffffffffffffff16815260200190815260200160002054905081811015610885576040517f08c379a000000000000000000000000000000000000000000000000000000000815260040161087c906135d6565b60405180910390fd5b818161089191906138aa565b6065600085815260200190815260200160002060008c73ffffffffffffffffffffffffffffffffffffffff1673ffffffffffffffffffffffffffffffffffffffff16815260200190815260200160002081905550816065600085815260200190815260200160002060008b73ffffffffffffffffffffffffffffffffffffffff1673ffffffffffffffffffffffffffffffffffffffff16815260200190815260200160002060008282546109459190613854565b9250508190555050505080610959906139c6565b905061075a565b508473ffffffffffffffffffffffffffffffffffffffff168673ffffffffffffffffffffffffffffffffffffffff168273ffffffffffffffffffffffffffffffffffffffff167f4a39dc06d4c0dbc64b70af90fd698a233a518aa5d07e595d983b8c0526c8f7fb87876040516109d7929190613402565b60405180910390a46109ed818787878787611a8e565b505050505050565b600060fb6000838152602001908152602001600020600201549050919050565b60608151835114610a5b576040517f08c379a0000000000000000000000000000000000000000000000000000000008152600401610a5290613636565b60405180910390fd5b6000835167ffffffffffffffff811115610a9e577f4e487b7100000000000000000000000000000000000000000000000000000000600052604160045260246000fd5b604051908082528060200260200182016040528015610acc5781602001602082028036833780820191505090505b50905060005b8451811015610bbb57610b65858281518110610b17577f4e487b7100000000000000000000000000000000000000000000000000000000600052603260045260246000fd5b6020026020010151858381518110610b58577f4e487b7100000000000000000000000000000000000000000000000000000000600052603260045260246000fd5b60200260200101516103bc565b828281518110610b9e577f4e487b7100000000000000000000000000000000000000000000000000000000600052603260045260246000fd5b60200260200101818152505080610bb4906139c6565b9050610ad2565b508091505092915050565b6000609760009054906101000a900460ff16905090565b610be5610bc6565b15610c25576040517f08c379a0000000000000000000000000000000000000000000000000000000008152600401610c1c90613696565b60405180910390fd5b6000610c3186856103bc565b90506000610c3f86866103bc565b9050610c4e878787878761154d565b610c5c878787878686611c5e565b50505050505050565b600060fb600083815260200190815260200160002060000160009054906101000a900473ffffffffffffffffffffffffffffffffffffffff169050919050565b610cad611a7e565b73ffffffffffffffffffffffffffffffffffffffff16610ccb610f9a565b73ffffffffffffffffffffffffffffffffffffffff1614610d21576040517f08c379a0000000000000000000000000000000000000000000000000000000008152600401610d18906135f6565b60405180910390fd5b600073ffffffffffffffffffffffffffffffffffffffff1660c960009054906101000a900473ffffffffffffffffffffffffffffffffffffffff1673ffffffffffffffffffffffffffffffffffffffff167f8be0079c531659141344cd1fd0a4f28419497f9722a3daafe3b4186f6b6457e060405160405180910390a3600060c960006101000a81548173ffffffffffffffffffffffffffffffffffffffff021916908373ffffffffffffffffffffffffffffffffffffffff160217905550565b610dea611a7e565b73ffffffffffffffffffffffffffffffffffffffff16610e08610f9a565b73ffffffffffffffffffffffffffffffffffffffff1614610e5e576040517f08c379a0000000000000000000000000000000000000000000000000000000008152600401610e55906135f6565b60405180910390fd5b610e66610bc6565b15610ea6576040517f08c379a0000000000000000000000000000000000000000000000000000000008152600401610e9d90613696565b60405180910390fd5b6000610eb282856103bc565b905082811015610ef7576040517f08c379a0000000000000000000000000000000000000000000000000000000008152600401610eee90613556565b60405180910390fd5b610f02828585611c66565b610f0e84848484611e8e565b50505050565b610f1c611a7e565b73ffffffffffffffffffffffffffffffffffffffff16610f3a610f9a565b73ffffffffffffffffffffffffffffffffffffffff1614610f90576040517f08c379a0000000000000000000000000000000000000000000000000000000008152600401610f87906135f6565b60405180910390fd5b610f98611e94565b565b600060c960009054906101000a900473ffffffffffffffffffffffffffffffffffffffff16905090565b610fcc611a7e565b73ffffffffffffffffffffffffffffffffffffffff16610fea610f9a565b73ffffffffffffffffffffffffffffffffffffffff1614611040576040517f08c379a0000000000000000000000000000000000000000000000000000000008152600401611037906135f6565b60405180910390fd5b611048610bc6565b15611088576040517f08c379a000000000000000000000000000000000000000000000000000000000815260040161107f90613696565b60405180910390fd5b6110a382868660405180602001604052806000815250611f37565b600060019050600073ffffffffffffffffffffffffffffffffffffffff1660fb600088815260200190815260200160002060000160009054906101000a900473ffffffffffffffffffffffffffffffffffffffff1673ffffffffffffffffffffffffffffffffffffffff1614156112065761111c61237c565b88816000019073ffffffffffffffffffffffffffffffffffffffff16908173ffffffffffffffffffffffffffffffffffffffff168152505087816020018181525050848160400181815250508281606001819052508060fb600089815260200190815260200160002060008201518160000160006101000a81548173ffffffffffffffffffffffffffffffffffffffff021916908373ffffffffffffffffffffffffffffffffffffffff160217905550602082015181600101556040820151816002015560608201518160030190805190602001906111fc9291906123ba565b5090505060009150505b6112118684836120ce565b5050505050505050565b8173ffffffffffffffffffffffffffffffffffffffff1661123a611a7e565b73ffffffffffffffffffffffffffffffffffffffff161415611291576040517f08c379a000000000000000000000000000000000000000000000000000000000815260040161128890613616565b60405180910390fd5b806066600061129e611a7e565b73ffffffffffffffffffffffffffffffffffffffff1673ffffffffffffffffffffffffffffffffffffffff16815260200190815260200160002060008473ffffffffffffffffffffffffffffffffffffffff1673ffffffffffffffffffffffffffffffffffffffff16815260200190815260200160002060006101000a81548160ff0219169083151502179055508173ffffffffffffffffffffffffffffffffffffffff1661134b611a7e565b73ffffffffffffffffffffffffffffffffffffffff167f17307eab39ab6107e8899845ad3d59bd9653f200f220920489ca2b5937696c31836040516113909190613439565b60405180910390a35050565b6000806000606060fb600086815260200190815260200160002060000160009054906101000a900473ffffffffffffffffffffffffffffffffffffffff1660fb60008781526020019081526020016000206001015460fb60008881526020019081526020016000206002015460fb600089815260200190815260200160002060030180805461142a90613994565b80601f016020809104026020016040519081016040528092919081815260200182805461145690613994565b80156114a35780601f10611478576101008083540402835291602001916114a3565b820191906000526020600020905b81548152906001019060200180831161148657829003601f168201915b5050505050905093509350935093509193509193565b6000606660008473ffffffffffffffffffffffffffffffffffffffff1673ffffffffffffffffffffffffffffffffffffffff16815260200190815260200160002060008373ffffffffffffffffffffffffffffffffffffffff1673ffffffffffffffffffffffffffffffffffffffff16815260200190815260200160002060009054906101000a900460ff16905092915050565b600073ffffffffffffffffffffffffffffffffffffffff168473ffffffffffffffffffffffffffffffffffffffff1614156115bd576040517f08c379a00000000000000000000000000000000000000000000000000000000081526004016115b490613576565b60405180910390fd5b6115c5611a7e565b73ffffffffffffffffffffffffffffffffffffffff168573ffffffffffffffffffffffffffffffffffffffff16148061160b575061160a85611605611a7e565b6114b9565b5b61164a576040517f08c379a000000000000000000000000000000000000000000000000000000000815260040161164190613516565b60405180910390fd5b6000611654611a7e565b9050611674818787611665886120d3565b61166e886120d3565b87611a86565b60006065600086815260200190815260200160002060008873ffffffffffffffffffffffffffffffffffffffff1673ffffffffffffffffffffffffffffffffffffffff1681526020019081526020016000205490508381101561170c576040517f08c379a0000000000000000000000000000000000000000000000000000000008152600401611703906135d6565b60405180910390fd5b838161171891906138aa565b6065600087815260200190815260200160002060008973ffffffffffffffffffffffffffffffffffffffff1673ffffffffffffffffffffffffffffffffffffffff16815260200190815260200160002081905550836065600087815260200190815260200160002060008873ffffffffffffffffffffffffffffffffffffffff1673ffffffffffffffffffffffffffffffffffffffff16815260200190815260200160002060008282546117cc9190613854565b925050819055508573ffffffffffffffffffffffffffffffffffffffff168773ffffffffffffffffffffffffffffffffffffffff168373ffffffffffffffffffffffffffffffffffffffff167fc3d58168c5ae7397731d063d5bbf3d657854427343f4c083240f7aacaa2d0f6288886040516118499291906136d1565b60405180910390a461185f828888888888612199565b50505050505050565b611870611a7e565b73ffffffffffffffffffffffffffffffffffffffff1661188e610f9a565b73ffffffffffffffffffffffffffffffffffffffff16146118e4576040517f08c379a00000000000000000000000000000000000000000000000000000000081526004016118db906135f6565b60405180910390fd5b600073ffffffffffffffffffffffffffffffffffffffff168173ffffffffffffffffffffffffffffffffffffffff161415611954576040517f08c379a000000000000000000000000000000000000000000000000000000000815260040161194b906134d6565b60405180910390fd5b8073ffffffffffffffffffffffffffffffffffffffff1660c960009054906101000a900473ffffffffffffffffffffffffffffffffffffffff1673ffffffffffffffffffffffffffffffffffffffff167f8be0079c531659141344cd1fd0a4f28419497f9722a3daafe3b4186f6b6457e060405160405180910390a38060c960006101000a81548173ffffffffffffffffffffffffffffffffffffffff021916908373ffffffffffffffffffffffffffffffffffffffff16021790555050565b60007f01ffc9a7000000000000000000000000000000000000000000000000000000007bffffffffffffffffffffffffffffffffffffffffffffffffffffffff1916827bffffffffffffffffffffffffffffffffffffffffffffffffffffffff1916149050919050565b600033905090565b505050505050565b611aad8473ffffffffffffffffffffffffffffffffffffffff16612369565b15611c56578373ffffffffffffffffffffffffffffffffffffffff1663bc197c8187878686866040518663ffffffff1660e01b8152600401611af39594939291906132d2565b602060405180830381600087803b158015611b0d57600080fd5b505af1925050508015611b3e57506040513d601f19601f82011682018060405250810190611b3b9190612a38565b60015b611bcd57611b4a613aba565b80611b555750611b92565b806040517f08c379a0000000000000000000000000000000000000000000000000000000008152600401611b899190613454565b60405180910390fd5b6040517f08c379a0000000000000000000000000000000000000000000000000000000008152600401611bc490613476565b60405180910390fd5b63bc197c8160e01b7bffffffffffffffffffffffffffffffffffffffffffffffffffffffff1916817bffffffffffffffffffffffffffffffffffffffffffffffffffffffff191614611c54576040517f08c379a0000000000000000000000000000000000000000000000000000000008152600401611c4b90613496565b60405180910390fd5b505b505050505050565b505050505050565b600073ffffffffffffffffffffffffffffffffffffffff168373ffffffffffffffffffffffffffffffffffffffff161415611cd6576040517f08c379a0000000000000000000000000000000000000000000000000000000008152600401611ccd906135b6565b60405180910390fd5b6000611ce0611a7e565b9050611d1081856000611cf2876120d3565b611cfb876120d3565b60405180602001604052806000815250611a86565b60006065600085815260200190815260200160002060008673ffffffffffffffffffffffffffffffffffffffff1673ffffffffffffffffffffffffffffffffffffffff16815260200190815260200160002054905082811015611da8576040517f08c379a0000000000000000000000000000000000000000000000000000000008152600401611d9f906134f6565b60405180910390fd5b8281611db491906138aa565b6065600086815260200190815260200160002060008773ffffffffffffffffffffffffffffffffffffffff1673ffffffffffffffffffffffffffffffffffffffff16815260200190815260200160002081905550600073ffffffffffffffffffffffffffffffffffffffff168573ffffffffffffffffffffffffffffffffffffffff168373ffffffffffffffffffffffffffffffffffffffff167fc3d58168c5ae7397731d063d5bbf3d657854427343f4c083240f7aacaa2d0f628787604051611e7f9291906136d1565b60405180910390a45050505050565b50505050565b611e9c610bc6565b15611edc576040517f08c379a0000000000000000000000000000000000000000000000000000000008152600401611ed390613536565b60405180910390fd5b6001609760006101000a81548160ff0219169083151502179055507f62e78cea01bee320cd4e420270b5ea74000d11b0c9f74754ebdbfc544b05a258611f20611a7e565b604051611f2d91906132b7565b60405180910390a1565b600073ffffffffffffffffffffffffffffffffffffffff168473ffffffffffffffffffffffffffffffffffffffff161415611fa7576040517f08c379a0000000000000000000000000000000000000000000000000000000008152600401611f9e90613676565b60405180910390fd5b6000611fb1611a7e565b9050611fd281600087611fc3886120d3565b611fcc886120d3565b87611a86565b826065600086815260200190815260200160002060008773ffffffffffffffffffffffffffffffffffffffff1673ffffffffffffffffffffffffffffffffffffffff16815260200190815260200160002060008282546120329190613854565b925050819055508473ffffffffffffffffffffffffffffffffffffffff16600073ffffffffffffffffffffffffffffffffffffffff168273ffffffffffffffffffffffffffffffffffffffff167fc3d58168c5ae7397731d063d5bbf3d657854427343f4c083240f7aacaa2d0f6287876040516120b09291906136d1565b60405180910390a46120c781600087878787612199565b5050505050565b505050565b60606000600167ffffffffffffffff811115612118577f4e487b7100000000000000000000000000000000000000000000000000000000600052604160045260246000fd5b6040519080825280602002602001820160405280156121465781602001602082028036833780820191505090505b5090508281600081518110612184577f4e487b7100000000000000000000000000000000000000000000000000000000600052603260045260246000fd5b60200260200101818152505080915050919050565b6121b88473ffffffffffffffffffffffffffffffffffffffff16612369565b15612361578373ffffffffffffffffffffffffffffffffffffffff1663f23a6e6187878686866040518663ffffffff1660e01b81526004016121fe95949392919061333a565b602060405180830381600087803b15801561221857600080fd5b505af192505050801561224957506040513d601f19601f820116820180604052508101906122469190612a38565b60015b6122d857612255613aba565b80612260575061229d565b806040517f08c379a00000000000000000000000000000000000000000000000000000000081526004016122949190613454565b60405180910390fd5b6040517f08c379a00000000000000000000000000000000000000000000000000000000081526004016122cf90613476565b60405180910390fd5b63f23a6e6160e01b7bffffffffffffffffffffffffffffffffffffffffffffffffffffffff1916817bffffffffffffffffffffffffffffffffffffffffffffffffffffffff19161461235f576040517f08c379a000000000000000000000000000000000000000000000000000000000815260040161235690613496565b60405180910390fd5b505b505050505050565b600080823b905060008111915050919050565b6040518060800160405280600073ffffffffffffffffffffffffffffffffffffffff1681526020016000815260200160008152602001606081525090565b8280546123c690613994565b90600052602060002090601f0160209004810192826123e8576000855561242f565b82601f1061240157805160ff191683800117855561242f565b8280016001018555821561242f579182015b8281111561242e578251825591602001919060010190612413565b5b50905061243c9190612440565b5090565b5b80821115612459576000816000905550600101612441565b5090565b600061247061246b8461372b565b6136fa565b9050808382526020820190508285602086028201111561248f57600080fd5b60005b858110156124bf57816124a588826125b1565b845260208401935060208301925050600181019050612492565b5050509392505050565b60006124dc6124d784613757565b6136fa565b905080838252602082019050828560208602820111156124fb57600080fd5b60005b8581101561252b578161251188826126ad565b8452602084019350602083019250506001810190506124fe565b5050509392505050565b600061254861254384613783565b6136fa565b90508281526020810184848401111561256057600080fd5b61256b848285613952565b509392505050565b6000612586612581846137b3565b6136fa565b90508281526020810184848401111561259e57600080fd5b6125a9848285613952565b509392505050565b6000813590506125c081613b70565b92915050565b600082601f8301126125d757600080fd5b81356125e784826020860161245d565b91505092915050565b600082601f83011261260157600080fd5b81356126118482602086016124c9565b91505092915050565b60008135905061262981613b87565b92915050565b60008135905061263e81613b9e565b92915050565b60008151905061265381613b9e565b92915050565b600082601f83011261266a57600080fd5b813561267a848260208601612535565b91505092915050565b600082601f83011261269457600080fd5b81356126a4848260208601612573565b91505092915050565b6000813590506126bc81613bb5565b92915050565b6000602082840312156126d457600080fd5b60006126e2848285016125b1565b91505092915050565b600080604083850312156126fe57600080fd5b600061270c858286016125b1565b925050602061271d858286016125b1565b9150509250929050565b600080600080600060a0868803121561273f57600080fd5b600061274d888289016125b1565b955050602061275e888289016125b1565b945050604086013567ffffffffffffffff81111561277b57600080fd5b612787888289016125f0565b935050606086013567ffffffffffffffff8111156127a457600080fd5b6127b0888289016125f0565b925050608086013567ffffffffffffffff8111156127cd57600080fd5b6127d988828901612659565b9150509295509295909350565b600080600080600060a086880312156127fe57600080fd5b600061280c888289016125b1565b955050602061281d888289016125b1565b945050604061282e888289016126ad565b935050606061283f888289016126ad565b925050608086013567ffffffffffffffff81111561285c57600080fd5b61286888828901612659565b9150509295509295909350565b6000806040838503121561288857600080fd5b6000612896858286016125b1565b92505060206128a78582860161261a565b9150509250929050565b600080604083850312156128c457600080fd5b60006128d2858286016125b1565b92505060206128e3858286016126ad565b9150509250929050565b600080600080600080600060e0888a03121561290857600080fd5b60006129168a828b016125b1565b97505060206129278a828b016126ad565b96505060406129388a828b016126ad565b95505060606129498a828b016126ad565b945050608061295a8a828b016126ad565b93505060a061296b8a828b016125b1565b92505060c088013567ffffffffffffffff81111561298857600080fd5b6129948a828b01612683565b91505092959891949750929550565b600080604083850312156129b657600080fd5b600083013567ffffffffffffffff8111156129d057600080fd5b6129dc858286016125c6565b925050602083013567ffffffffffffffff8111156129f957600080fd5b612a05858286016125f0565b9150509250929050565b600060208284031215612a2157600080fd5b6000612a2f8482850161262f565b91505092915050565b600060208284031215612a4a57600080fd5b6000612a5884828501612644565b91505092915050565b600060208284031215612a7357600080fd5b6000612a81848285016126ad565b91505092915050565b600080600060608486031215612a9f57600080fd5b6000612aad868287016126ad565b9350506020612abe868287016126ad565b9250506040612acf868287016125b1565b9150509250925092565b6000612ae58383613299565b60208301905092915050565b612afa816138de565b82525050565b6000612b0b826137f3565b612b158185613821565b9350612b20836137e3565b8060005b83811015612b51578151612b388882612ad9565b9750612b4383613814565b925050600181019050612b24565b5085935050505092915050565b612b67816138f0565b82525050565b6000612b78826137fe565b612b828185613832565b9350612b92818560208601613961565b612b9b81613a9c565b840191505092915050565b6000612bb182613809565b612bbb8185613843565b9350612bcb818560208601613961565b612bd481613a9c565b840191505092915050565b6000612bec603483613843565b91507f455243313135353a207472616e7366657220746f206e6f6e204552433131353560008301527f526563656976657220696d706c656d656e7465720000000000000000000000006020830152604082019050919050565b6000612c52602883613843565b91507f455243313135353a204552433131353552656365697665722072656a6563746560008301527f6420746f6b656e730000000000000000000000000000000000000000000000006020830152604082019050919050565b6000612cb8602b83613843565b91507f455243313135353a2062616c616e636520717565727920666f7220746865207a60008301527f65726f20616464726573730000000000000000000000000000000000000000006020830152604082019050919050565b6000612d1e602683613843565b91507f4f776e61626c653a206e6577206f776e657220697320746865207a65726f206160008301527f64647265737300000000000000000000000000000000000000000000000000006020830152604082019050919050565b6000612d84602483613843565b91507f455243313135353a206275726e20616d6f756e7420657863656564732062616c60008301527f616e6365000000000000000000000000000000000000000000000000000000006020830152604082019050919050565b6000612dea602983613843565b91507f455243313135353a2063616c6c6572206973206e6f74206f776e6572206e6f7260008301527f20617070726f76656400000000000000000000000000000000000000000000006020830152604082019050919050565b6000612e50601083613843565b91507f5061757361626c653a20706175736564000000000000000000000000000000006000830152602082019050919050565b6000612e90604083613843565b91507f7472616e7366657265722068617320746f206f776e20657175616c206f72206d60008301527f6f726520736861726573207468616e2074686520676976656e20616d6f756e746020830152604082019050919050565b6000612ef6602583613843565b91507f455243313135353a207472616e7366657220746f20746865207a65726f20616460008301527f64726573730000000000000000000000000000000000000000000000000000006020830152604082019050919050565b6000612f5c603283613843565b91507f455243313135353a207472616e736665722063616c6c6572206973206e6f742060008301527f6f776e6572206e6f7220617070726f76656400000000000000000000000000006020830152604082019050919050565b6000612fc2602383613843565b91507f455243313135353a206275726e2066726f6d20746865207a65726f206164647260008301527f65737300000000000000000000000000000000000000000000000000000000006020830152604082019050919050565b6000613028602a83613843565b91507f455243313135353a20696e73756666696369656e742062616c616e636520666f60008301527f72207472616e73666572000000000000000000000000000000000000000000006020830152604082019050919050565b600061308e602083613843565b91507f4f776e61626c653a2063616c6c6572206973206e6f7420746865206f776e65726000830152602082019050919050565b60006130ce602983613843565b91507f455243313135353a2073657474696e6720617070726f76616c2073746174757360008301527f20666f722073656c6600000000000000000000000000000000000000000000006020830152604082019050919050565b6000613134602983613843565b91507f455243313135353a206163636f756e747320616e6420696473206c656e67746860008301527f206d69736d6174636800000000000000000000000000000000000000000000006020830152604082019050919050565b600061319a602883613843565b91507f455243313135353a2069647320616e6420616d6f756e7473206c656e6774682060008301527f6d69736d617463680000000000000000000000000000000000000000000000006020830152604082019050919050565b6000613200602183613843565b91507f455243313135353a206d696e7420746f20746865207a65726f2061646472657360008301527f73000000000000000000000000000000000000000000000000000000000000006020830152604082019050919050565b6000613266601883613843565b91507f4e6f7420616c6c6f776564207768696c652070617573656400000000000000006000830152602082019050919050565b6132a281613948565b82525050565b6132b181613948565b82525050565b60006020820190506132cc6000830184612af1565b92915050565b600060a0820190506132e76000830188612af1565b6132f46020830187612af1565b81810360408301526133068186612b00565b9050818103606083015261331a8185612b00565b9050818103608083015261332e8184612b6d565b90509695505050505050565b600060a08201905061334f6000830188612af1565b61335c6020830187612af1565b61336960408301866132a8565b61337660608301856132a8565b81810360808301526133888184612b6d565b90509695505050505050565b60006080820190506133a96000830187612af1565b6133b660208301866132a8565b6133c360408301856132a8565b81810360608301526133d58184612ba6565b905095945050505050565b600060208201905081810360008301526133fa8184612b00565b905092915050565b6000604082019050818103600083015261341c8185612b00565b905081810360208301526134308184612b00565b90509392505050565b600060208201905061344e6000830184612b5e565b92915050565b6000602082019050818103600083015261346e8184612ba6565b905092915050565b6000602082019050818103600083015261348f81612bdf565b9050919050565b600060208201905081810360008301526134af81612c45565b9050919050565b600060208201905081810360008301526134cf81612cab565b9050919050565b600060208201905081810360008301526134ef81612d11565b9050919050565b6000602082019050818103600083015261350f81612d77565b9050919050565b6000602082019050818103600083015261352f81612ddd565b9050919050565b6000602082019050818103600083015261354f81612e43565b9050919050565b6000602082019050818103600083015261356f81612e83565b9050919050565b6000602082019050818103600083015261358f81612ee9565b9050919050565b600060208201905081810360008301526135af81612f4f565b9050919050565b600060208201905081810360008301526135cf81612fb5565b9050919050565b600060208201905081810360008301526135ef8161301b565b9050919050565b6000602082019050818103600083015261360f81613081565b9050919050565b6000602082019050818103600083015261362f816130c1565b9050919050565b6000602082019050818103600083015261364f81613127565b9050919050565b6000602082019050818103600083015261366f8161318d565b9050919050565b6000602082019050818103600083015261368f816131f3565b9050919050565b600060208201905081810360008301526136af81613259565b9050919050565b60006020820190506136cb60008301846132a8565b92915050565b60006040820190506136e660008301856132a8565b6136f360208301846132a8565b9392505050565b6000604051905081810181811067ffffffffffffffff8211171561372157613720613a6d565b5b8060405250919050565b600067ffffffffffffffff82111561374657613745613a6d565b5b602082029050602081019050919050565b600067ffffffffffffffff82111561377257613771613a6d565b5b602082029050602081019050919050565b600067ffffffffffffffff82111561379e5761379d613a6d565b5b601f19601f8301169050602081019050919050565b600067ffffffffffffffff8211156137ce576137cd613a6d565b5b601f19601f8301169050602081019050919050565b6000819050602082019050919050565b600081519050919050565b600081519050919050565b600081519050919050565b6000602082019050919050565b600082825260208201905092915050565b600082825260208201905092915050565b600082825260208201905092915050565b600061385f82613948565b915061386a83613948565b9250827fffffffffffffffffffffffffffffffffffffffffffffffffffffffffffffffff0382111561389f5761389e613a0f565b5b828201905092915050565b60006138b582613948565b91506138c083613948565b9250828210156138d3576138d2613a0f565b5b828203905092915050565b60006138e982613928565b9050919050565b60008115159050919050565b60007fffffffff0000000000000000000000000000000000000000000000000000000082169050919050565b600073ffffffffffffffffffffffffffffffffffffffff82169050919050565b6000819050919050565b82818337600083830152505050565b60005b8381101561397f578082015181840152602081019050613964565b8381111561398e576000848401525b50505050565b600060028204905060018216806139ac57607f821691505b602082108114156139c0576139bf613a3e565b5b50919050565b60006139d182613948565b91507fffffffffffffffffffffffffffffffffffffffffffffffffffffffffffffffff821415613a0457613a03613a0f565b5b600182019050919050565b7f4e487b7100000000000000000000000000000000000000000000000000000000600052601160045260246000fd5b7f4e487b7100000000000000000000000000000000000000000000000000000000600052602260045260246000fd5b7f4e487b7100000000000000000000000000000000000000000000000000000000600052604160045260246000fd5b6000601f19601f8301169050919050565b60008160e01c9050919050565b600060443d1015613aca57613b6d565b60046000803e613adb600051613aad565b6308c379a08114613aec5750613b6d565b60405160043d036004823e80513d602482011167ffffffffffffffff82111715613b1857505050613b6d565b808201805167ffffffffffffffff811115613b37575050505050613b6d565b8060208301013d8501811115613b5257505050505050613b6d565b613b5b82613a9c565b60208401016040528296505050505050505b90565b613b79816138de565b8114613b8457600080fd5b50565b613b90816138f0565b8114613b9b57600080fd5b50565b613ba7816138fc565b8114613bb257600080fd5b50565b613bbe81613948565b8114613bc957600080fd5b5056fea26469706673582212205de9593813e873d16aaf96f5fb404aaec1c6bfe5855a7623b57e973fae3fcd8d64736f6c63430008000033",
  "immutableReferences": {},
  "source": "// SPDX-License-Identifier: MIT\n\npragma solidity ^0.8.0;\n\nimport \"@openzeppelin/contracts-upgradeable/token/ERC1155/ERC1155Upgradeable.sol\";\nimport \"@openzeppelin/contracts-upgradeable/security/PausableUpgradeable.sol\";\nimport \"@openzeppelin/contracts-upgradeable/proxy/utils/Initializable.sol\";\nimport \"@openzeppelin/contracts/token/ERC721/extensions/ERC721URIStorage.sol\";\nimport \"@openzeppelin/contracts-upgradeable/access/OwnableUpgradeable.sol\";\nimport \"./INftFractionsRepository.sol\";\n\ncontract NftFractionsRepositoryBase is\n    Initializable,\n    ERC1155Upgradeable,\n    PausableUpgradeable,\n    OwnableUpgradeable,\n    INftFractionsRepository\n{\n    struct Token {\n        address erc721ContractAddress;\n        uint256 erc721TokenId;\n        uint256 totalFractionsAmount;\n        string tokenURI;\n    }\n\n    mapping(uint256 => Token) internal tokens;\n\n    function __NftFractionsRepositoryBase_init(string memory uri_)\n        internal\n        initializer\n    {\n        __Context_init_unchained();\n        __ERC165_init_unchained();\n        __Pausable_init_unchained();\n        __ERC1155_init_unchained(uri_);\n        __Ownable_init_unchained();\n    }\n\n    /**\n     * @dev when someone transfers his tokens to the other chain the bridge contract will call this burn function\n     * The bridge contract is the owner of NftFractionsRepository.\n     *\n     * Requirements:\n     * - only the owner (the bridge contract = owner) can call\n     * - the contract is not paused\n     *\n     * There is a hook (_afterBurn) that can be overriden to implement some custom logic performed after the burn\n     */\n    function burn(\n        uint256 tokenId,\n        uint256 amount,\n        address transferer\n    ) external override onlyOwner() {\n        require(!paused(), \"Not allowed while paused\");\n        uint256 transferersAmount = balanceOf(transferer, tokenId);\n        require(\n            transferersAmount >= amount,\n            \"transferer has to own equal or more shares than the given amount\"\n        );\n        //burns the shares from ERC1155 token\n        _burn(transferer, tokenId, amount);\n\n        _afterBurn(tokenId, amount, transferer, transferersAmount);\n    }\n\n    /**\n     * @dev when someone transfers his tokens from the other chain to this chain the bridge contract will call this mint function\n     *\n     * Requirements:\n     * - only the owner (the bridge contract = owner) can call\n     * - the contract is not paused\n     *\n     * There is a hook (_afterMint) that can be overriden to implement some custom logic performed after the mint\n     */\n    function mint(\n        address erc721ContractAddress,\n        uint256 erc721TokenId,\n        uint256 erc1155TokenId,\n        uint256 erc1155Amount,\n        uint256 totalFractionsAmount,\n        address transferer,\n        string memory tokenURI\n    ) external override onlyOwner() {\n        require(!paused(), \"Not allowed while paused\");\n        _mint(transferer, erc1155TokenId, erc1155Amount, \"\");\n        // if the token does not exist in this chain yet\n        bool existingToken = true;\n        if (tokens[erc1155TokenId].erc721ContractAddress == address(0)) {\n            Token memory token;\n            token.erc721ContractAddress = erc721ContractAddress;\n            token.erc721TokenId = erc721TokenId;\n            token.totalFractionsAmount = totalFractionsAmount;\n            token.tokenURI = tokenURI;\n            tokens[erc1155TokenId] = token;\n            existingToken = false;\n        }\n\n        _afterMint(erc1155TokenId, transferer, existingToken);\n    }\n\n    /**\n     * @dev same as safeTransferFrom in ERC1155 with one restriction:\n     * - the contract is not paused\n     *\n     * There is a hook (_afterTransfer) that can be overriden to implement some custom logic performed after the transferFrom\n     */\n    function transferFrom(\n        address from,\n        address to,\n        uint256 id,\n        uint256 amount,\n        bytes memory data\n    ) external override {\n        require(!paused(), \"Not allowed while paused\");\n        uint256 fromBalanceBefore = balanceOf(from, id);\n        uint256 toBalanceBefore = balanceOf(to, id);\n        safeTransferFrom(from, to, id, amount, data);\n\n        _afterTransferFrom(\n            from,\n            to,\n            id,\n            amount,\n            fromBalanceBefore,\n            toBalanceBefore\n        );\n    }\n\n    /**\n     * @dev returns relevant token data:\n     * - original ERC721 contract address\n     * - original ERC721 token id\n     * - amount of fractions minted\n     */\n    function getTokenData(uint256 _tokenId)\n        public\n        view\n        returns (\n            address erc721ContractAddress,\n            uint256 erc721TokenId,\n            uint256 totalFractionsAmount,\n            string memory tokenURI\n        )\n    {\n        return (\n            tokens[_tokenId].erc721ContractAddress,\n            tokens[_tokenId].erc721TokenId,\n            tokens[_tokenId].totalFractionsAmount,\n            tokens[_tokenId].tokenURI\n        );\n    }\n\n    /**\n     * @dev returns amount of fractions minted for a token\n     */\n    function getTotalFractionsAmount(uint256 _tokenId)\n        external\n        view\n        override\n        returns (uint256)\n    {\n        return (tokens[_tokenId].totalFractionsAmount);\n    }\n\n    /**\n     * @dev returns original ERC721 contract address for a token\n     */\n    function getErc721ContractAddress(uint256 _tokenId)\n        external\n        view\n        override\n        returns (address)\n    {\n        return (tokens[_tokenId].erc721ContractAddress);\n    }\n\n    function pause() public onlyOwner() {\n        _pause();\n    }\n\n    /**\n     * @dev hook function that is called at the end of the burn function\n     */\n    function _afterBurn(\n        uint256 tokenId,\n        uint256 amount,\n        address transferer,\n        uint256 transferersAmount\n    ) internal virtual {}\n\n    /**\n     * @dev hook function that is called at the end of the mint function\n     */\n    function _afterMint(\n        uint256 erc1155TokenId,\n        address transferer,\n        bool existingToken\n    ) internal virtual {}\n\n    /**\n     * @dev hook function that is called at the end of the transferFrom function\n     */\n    function _afterTransferFrom(\n        address from,\n        address to,\n        uint256 id,\n        uint256 amount,\n        uint256 fromBalanceBefore,\n        uint256 toBalanceBefore\n    ) internal virtual {}\n}\n",
  "sourcePath": "/Users/szabolcs/Documents/Personal/Szakmai/Ethereum/nft-fractions-dex/contracts/NftFractionsRepositoryBase.sol",
  "compiler": {
    "name": "solc",
    "version": "0.8.0+commit.c7dfd78e.Emscripten.clang"
  },
  "schemaVersion": "3.3.4",
  "updatedAt": "2021-07-21T11:48:39.002Z",
  "devdoc": {
    "kind": "dev",
    "methods": {
      "balanceOf(address,uint256)": {
        "details": "See {IERC1155-balanceOf}. Requirements: - `account` cannot be the zero address."
      },
      "balanceOfBatch(address[],uint256[])": {
        "details": "See {IERC1155-balanceOfBatch}. Requirements: - `accounts` and `ids` must have the same length."
      },
      "burn(uint256,uint256,address)": {
        "details": "when someone transfers his tokens to the other chain the bridge contract will call this burn function The bridge contract is the owner of NftFractionsRepository. Requirements: - only the owner (the bridge contract = owner) can call - the contract is not paused There is a hook (_afterBurn) that can be overriden to implement some custom logic performed after the burn"
      },
      "getErc721ContractAddress(uint256)": {
        "details": "returns original ERC721 contract address for a token"
      },
      "getTokenData(uint256)": {
        "details": "returns relevant token data: - original ERC721 contract address - original ERC721 token id - amount of fractions minted"
      },
      "getTotalFractionsAmount(uint256)": {
        "details": "returns amount of fractions minted for a token"
      },
      "isApprovedForAll(address,address)": {
        "details": "See {IERC1155-isApprovedForAll}."
      },
      "mint(address,uint256,uint256,uint256,uint256,address,string)": {
        "details": "when someone transfers his tokens from the other chain to this chain the bridge contract will call this mint function Requirements: - only the owner (the bridge contract = owner) can call - the contract is not paused There is a hook (_afterMint) that can be overriden to implement some custom logic performed after the mint"
      },
      "owner()": {
        "details": "Returns the address of the current owner."
      },
      "paused()": {
        "details": "Returns true if the contract is paused, and false otherwise."
      },
      "renounceOwnership()": {
        "details": "Leaves the contract without owner. It will not be possible to call `onlyOwner` functions anymore. Can only be called by the current owner. NOTE: Renouncing ownership will leave the contract without an owner, thereby removing any functionality that is only available to the owner."
      },
      "safeBatchTransferFrom(address,address,uint256[],uint256[],bytes)": {
        "details": "See {IERC1155-safeBatchTransferFrom}."
      },
      "safeTransferFrom(address,address,uint256,uint256,bytes)": {
        "details": "See {IERC1155-safeTransferFrom}."
      },
      "setApprovalForAll(address,bool)": {
        "details": "See {IERC1155-setApprovalForAll}."
      },
      "supportsInterface(bytes4)": {
        "details": "See {IERC165-supportsInterface}."
      },
      "transferFrom(address,address,uint256,uint256,bytes)": {
        "details": "same as safeTransferFrom in ERC1155 with one restriction: - the contract is not paused There is a hook (_afterTransfer) that can be overriden to implement some custom logic performed after the transferFrom"
      },
      "transferOwnership(address)": {
        "details": "Transfers ownership of the contract to a new account (`newOwner`). Can only be called by the current owner."
      },
      "uri(uint256)": {
        "details": "See {IERC1155MetadataURI-uri}. This implementation returns the same URI for *all* token types. It relies on the token type ID substitution mechanism https://eips.ethereum.org/EIPS/eip-1155#metadata[defined in the EIP]. Clients calling this function must replace the `\\{id\\}` substring with the actual token type ID."
      }
    },
    "version": 1
  },
  "userdoc": {
    "kind": "user",
    "methods": {},
    "version": 1
  }
}