{
  "contractName": "NftFractionsRepository",
  "abi": [
    {
      "anonymous": false,
      "inputs": [
        {
          "indexed": true,
          "internalType": "address",
          "name": "account",
          "type": "address"
        },
        {
          "indexed": true,
          "internalType": "address",
          "name": "operator",
          "type": "address"
        },
        {
          "indexed": false,
          "internalType": "bool",
          "name": "approved",
          "type": "bool"
        }
      ],
      "name": "ApprovalForAll",
      "type": "event"
    },
    {
      "anonymous": false,
      "inputs": [
        {
          "indexed": true,
          "internalType": "address",
          "name": "previousOwner",
          "type": "address"
        },
        {
          "indexed": true,
          "internalType": "address",
          "name": "newOwner",
          "type": "address"
        }
      ],
      "name": "OwnershipTransferred",
      "type": "event"
    },
    {
      "anonymous": false,
      "inputs": [
        {
          "indexed": false,
          "internalType": "address",
          "name": "account",
          "type": "address"
        }
      ],
      "name": "Paused",
      "type": "event"
    },
    {
      "anonymous": false,
      "inputs": [
        {
          "indexed": true,
          "internalType": "address",
          "name": "operator",
          "type": "address"
        },
        {
          "indexed": true,
          "internalType": "address",
          "name": "from",
          "type": "address"
        },
        {
          "indexed": true,
          "internalType": "address",
          "name": "to",
          "type": "address"
        },
        {
          "indexed": false,
          "internalType": "uint256[]",
          "name": "ids",
          "type": "uint256[]"
        },
        {
          "indexed": false,
          "internalType": "uint256[]",
          "name": "values",
          "type": "uint256[]"
        }
      ],
      "name": "TransferBatch",
      "type": "event"
    },
    {
      "anonymous": false,
      "inputs": [
        {
          "indexed": true,
          "internalType": "address",
          "name": "operator",
          "type": "address"
        },
        {
          "indexed": true,
          "internalType": "address",
          "name": "from",
          "type": "address"
        },
        {
          "indexed": true,
          "internalType": "address",
          "name": "to",
          "type": "address"
        },
        {
          "indexed": false,
          "internalType": "uint256",
          "name": "id",
          "type": "uint256"
        },
        {
          "indexed": false,
          "internalType": "uint256",
          "name": "value",
          "type": "uint256"
        }
      ],
      "name": "TransferSingle",
      "type": "event"
    },
    {
      "anonymous": false,
      "inputs": [
        {
          "indexed": false,
          "internalType": "string",
          "name": "value",
          "type": "string"
        },
        {
          "indexed": true,
          "internalType": "uint256",
          "name": "id",
          "type": "uint256"
        }
      ],
      "name": "URI",
      "type": "event"
    },
    {
      "anonymous": false,
      "inputs": [
        {
          "indexed": false,
          "internalType": "address",
          "name": "account",
          "type": "address"
        }
      ],
      "name": "Unpaused",
      "type": "event"
    },
    {
      "inputs": [
        {
          "internalType": "address",
          "name": "account",
          "type": "address"
        },
        {
          "internalType": "uint256",
          "name": "id",
          "type": "uint256"
        }
      ],
      "name": "balanceOf",
      "outputs": [
        {
          "internalType": "uint256",
          "name": "",
          "type": "uint256"
        }
      ],
      "stateMutability": "view",
      "type": "function",
      "constant": true
    },
    {
      "inputs": [
        {
          "internalType": "address[]",
          "name": "accounts",
          "type": "address[]"
        },
        {
          "internalType": "uint256[]",
          "name": "ids",
          "type": "uint256[]"
        }
      ],
      "name": "balanceOfBatch",
      "outputs": [
        {
          "internalType": "uint256[]",
          "name": "",
          "type": "uint256[]"
        }
      ],
      "stateMutability": "view",
      "type": "function",
      "constant": true
    },
    {
      "inputs": [
        {
          "internalType": "address",
          "name": "account",
          "type": "address"
        },
        {
          "internalType": "address",
          "name": "operator",
          "type": "address"
        }
      ],
      "name": "isApprovedForAll",
      "outputs": [
        {
          "internalType": "bool",
          "name": "",
          "type": "bool"
        }
      ],
      "stateMutability": "view",
      "type": "function",
      "constant": true
    },
    {
      "inputs": [],
      "name": "owner",
      "outputs": [
        {
          "internalType": "address",
          "name": "",
          "type": "address"
        }
      ],
      "stateMutability": "view",
      "type": "function",
      "constant": true
    },
    {
      "inputs": [],
      "name": "paused",
      "outputs": [
        {
          "internalType": "bool",
          "name": "",
          "type": "bool"
        }
      ],
      "stateMutability": "view",
      "type": "function",
      "constant": true
    },
    {
      "inputs": [],
      "name": "renounceOwnership",
      "outputs": [],
      "stateMutability": "nonpayable",
      "type": "function"
    },
    {
      "inputs": [
        {
          "internalType": "address",
          "name": "from",
          "type": "address"
        },
        {
          "internalType": "address",
          "name": "to",
          "type": "address"
        },
        {
          "internalType": "uint256[]",
          "name": "ids",
          "type": "uint256[]"
        },
        {
          "internalType": "uint256[]",
          "name": "amounts",
          "type": "uint256[]"
        },
        {
          "internalType": "bytes",
          "name": "data",
          "type": "bytes"
        }
      ],
      "name": "safeBatchTransferFrom",
      "outputs": [],
      "stateMutability": "nonpayable",
      "type": "function"
    },
    {
      "inputs": [
        {
          "internalType": "address",
          "name": "from",
          "type": "address"
        },
        {
          "internalType": "address",
          "name": "to",
          "type": "address"
        },
        {
          "internalType": "uint256",
          "name": "id",
          "type": "uint256"
        },
        {
          "internalType": "uint256",
          "name": "amount",
          "type": "uint256"
        },
        {
          "internalType": "bytes",
          "name": "data",
          "type": "bytes"
        }
      ],
      "name": "safeTransferFrom",
      "outputs": [],
      "stateMutability": "nonpayable",
      "type": "function"
    },
    {
      "inputs": [
        {
          "internalType": "address",
          "name": "operator",
          "type": "address"
        },
        {
          "internalType": "bool",
          "name": "approved",
          "type": "bool"
        }
      ],
      "name": "setApprovalForAll",
      "outputs": [],
      "stateMutability": "nonpayable",
      "type": "function"
    },
    {
      "inputs": [
        {
          "internalType": "bytes4",
          "name": "interfaceId",
          "type": "bytes4"
        }
      ],
      "name": "supportsInterface",
      "outputs": [
        {
          "internalType": "bool",
          "name": "",
          "type": "bool"
        }
      ],
      "stateMutability": "view",
      "type": "function",
      "constant": true
    },
    {
      "inputs": [
        {
          "internalType": "address",
          "name": "newOwner",
          "type": "address"
        }
      ],
      "name": "transferOwnership",
      "outputs": [],
      "stateMutability": "nonpayable",
      "type": "function"
    },
    {
      "inputs": [
        {
          "internalType": "uint256",
          "name": "",
          "type": "uint256"
        }
      ],
      "name": "uri",
      "outputs": [
        {
          "internalType": "string",
          "name": "",
          "type": "string"
        }
      ],
      "stateMutability": "view",
      "type": "function",
      "constant": true
    },
    {
      "inputs": [
        {
          "internalType": "string",
          "name": "uri_",
          "type": "string"
        }
      ],
      "name": "initialize",
      "outputs": [],
      "stateMutability": "nonpayable",
      "type": "function"
    },
    {
      "inputs": [
        {
          "internalType": "address",
          "name": "erc721ContractAddress",
          "type": "address"
        },
        {
          "internalType": "uint256",
          "name": "erc721TokenId",
          "type": "uint256"
        },
        {
          "internalType": "uint256",
          "name": "fractionsAmountToMint",
          "type": "uint256"
        }
      ],
      "name": "depositNft",
      "outputs": [],
      "stateMutability": "nonpayable",
      "type": "function"
    },
    {
      "inputs": [
        {
          "internalType": "uint256",
          "name": "tokenId",
          "type": "uint256"
        }
      ],
      "name": "withdrawNft",
      "outputs": [],
      "stateMutability": "nonpayable",
      "type": "function"
    },
    {
      "inputs": [
        {
          "internalType": "uint256",
          "name": "tokenId",
          "type": "uint256"
        },
        {
          "internalType": "uint256",
          "name": "amount",
          "type": "uint256"
        },
        {
          "internalType": "address",
          "name": "transferer",
          "type": "address"
        }
      ],
      "name": "burn",
      "outputs": [],
      "stateMutability": "nonpayable",
      "type": "function"
    },
    {
      "inputs": [
        {
          "internalType": "address",
          "name": "erc721ContractAddress",
          "type": "address"
        },
        {
          "internalType": "uint256",
          "name": "erc721TokenId",
          "type": "uint256"
        },
        {
          "internalType": "uint256",
          "name": "erc1155TokenId",
          "type": "uint256"
        },
        {
          "internalType": "uint256",
          "name": "erc1155Amount",
          "type": "uint256"
        },
        {
          "internalType": "address",
          "name": "transferer",
          "type": "address"
        }
      ],
      "name": "mint",
      "outputs": [],
      "stateMutability": "nonpayable",
      "type": "function"
    },
    {
      "inputs": [
        {
          "internalType": "address",
          "name": "from",
          "type": "address"
        },
        {
          "internalType": "address",
          "name": "to",
          "type": "address"
        },
        {
          "internalType": "uint256",
          "name": "id",
          "type": "uint256"
        },
        {
          "internalType": "uint256",
          "name": "amount",
          "type": "uint256"
        },
        {
          "internalType": "bytes",
          "name": "data",
          "type": "bytes"
        }
      ],
      "name": "transferFrom",
      "outputs": [],
      "stateMutability": "nonpayable",
      "type": "function"
    },
    {
      "inputs": [
        {
          "internalType": "uint256",
          "name": "_tokenId",
          "type": "uint256"
        }
      ],
      "name": "getTokenData",
      "outputs": [
        {
          "internalType": "address",
          "name": "erc721ContractAddress",
          "type": "address"
        },
        {
          "internalType": "uint256",
          "name": "erc721TokenId",
          "type": "uint256"
        },
        {
          "internalType": "uint256",
          "name": "totalFractionsAmount",
          "type": "uint256"
        }
      ],
      "stateMutability": "view",
      "type": "function",
      "constant": true
    },
    {
      "inputs": [],
      "name": "pause",
      "outputs": [],
      "stateMutability": "nonpayable",
      "type": "function"
    },
    {
      "inputs": [
        {
          "internalType": "address",
          "name": "shareOwner",
          "type": "address"
        }
      ],
      "name": "getTokenIdsByShareOwner",
      "outputs": [
        {
          "internalType": "uint256[]",
          "name": "",
          "type": "uint256[]"
        }
      ],
      "stateMutability": "view",
      "type": "function",
      "constant": true
    },
    {
      "inputs": [
        {
          "internalType": "uint256",
          "name": "tokenId",
          "type": "uint256"
        }
      ],
      "name": "getOwnersBYtokenId",
      "outputs": [
        {
          "internalType": "address[]",
          "name": "",
          "type": "address[]"
        }
      ],
      "stateMutability": "view",
      "type": "function",
      "constant": true
    },
    {
      "inputs": [],
      "name": "getTokenIds",
      "outputs": [
        {
          "internalType": "uint256[]",
          "name": "",
          "type": "uint256[]"
        }
      ],
      "stateMutability": "view",
      "type": "function",
      "constant": true
    }
  ],
  "bytecode": "0x608060405234801561001057600080fd5b50615bf680620000216000396000f3fe608060405234801561001057600080fd5b506004361061014c5760003560e01c8063749388c4116100c3578063b09afec11161007c578063b09afec114610387578063e09a3cb4146103b9578063e985e9c5146103d5578063f242432a14610405578063f2fde38b14610421578063f62d18881461043d5761014c565b8063749388c4146102ef5780638456cb591461030b5780638cb75cad146103155780638da5cb5b14610331578063910efae81461034f578063a22cb4651461036b5761014c565b806333ae11ae1161011557806333ae11ae1461022d5780634e1273f41461025d5780635c975abb1461028d578063605105f0146102ab57806367f718a9146102c7578063715018a6146102e55761014c565b8062fdd58e1461015157806301ffc9a7146101815780630e89341c146101b1578063180e1ef8146101e15780632eb2c2d614610211575b600080fd5b61016b600480360381019061016691906145c0565b610459565b6040516101789190615671565b60405180910390f35b61019b6004803603810190610196919061472e565b610523565b6040516101a89190615394565b60405180910390f35b6101cb60048036038101906101c691906147c1565b610605565b6040516101d891906153af565b60405180910390f35b6101fb60048036038101906101f691906143a8565b610699565b604051610208919061533b565b60405180910390f35b61022b60048036038101906102269190614436565b610730565b005b610247600480360381019061024291906147c1565b610b29565b6040516102549190615319565b60405180910390f35b610277600480360381019061027291906146c2565b610bca565b604051610284919061533b565b60405180910390f35b610295610d7b565b6040516102a29190615394565b60405180910390f35b6102c560048036038101906102c091906144f5565b610d92565b005b6102cf611183565b6040516102dc919061533b565b60405180910390f35b6102ed6111db565b005b610309600480360381019061030491906147ea565b611318565b005b61031361162f565b005b61032f600480360381019061032a919061464b565b6116b5565b005b610339611cd1565b60405161034691906151ce565b60405180910390f35b610369600480360381019061036491906147c1565b611cfb565b005b61038560048036038101906103809190614584565b612068565b005b6103a1600480360381019061039c91906147c1565b6121e9565b6040516103b0939291906152e2565b60405180910390f35b6103d360048036038101906103ce91906145fc565b612260565b005b6103ef60048036038101906103ea91906143fa565b612616565b6040516103fc9190615394565b60405180910390f35b61041f600480360381019061041a91906144f5565b6126aa565b005b61043b600480360381019061043691906143a8565b6129c5565b005b61045760048036038101906104529190614780565b612b71565b005b60008073ffffffffffffffffffffffffffffffffffffffff168373ffffffffffffffffffffffffffffffffffffffff1614156104ca576040517f08c379a00000000000000000000000000000000000000000000000000000000081526004016104c190615451565b60405180910390fd5b6065600083815260200190815260200160002060008473ffffffffffffffffffffffffffffffffffffffff1673ffffffffffffffffffffffffffffffffffffffff16815260200190815260200160002054905092915050565b60007fd9b67a26000000000000000000000000000000000000000000000000000000007bffffffffffffffffffffffffffffffffffffffffffffffffffffffff1916827bffffffffffffffffffffffffffffffffffffffffffffffffffffffff191614806105ee57507f0e89341c000000000000000000000000000000000000000000000000000000007bffffffffffffffffffffffffffffffffffffffffffffffffffffffff1916827bffffffffffffffffffffffffffffffffffffffffffffffffffffffff1916145b806105fe57506105fd82612c74565b5b9050919050565b60606067805461061490615988565b80601f016020809104026020016040519081016040528092919081815260200182805461064090615988565b801561068d5780601f106106625761010080835404028352916020019161068d565b820191906000526020600020905b81548152906001019060200180831161067057829003601f168201915b50505050509050919050565b606060fd60008373ffffffffffffffffffffffffffffffffffffffff1673ffffffffffffffffffffffffffffffffffffffff16815260200190815260200160002080548060200260200160405190810160405280929190818152602001828054801561072457602002820191906000526020600020905b815481526020019060010190808311610710575b50505050509050919050565b8151835114610774576040517f08c379a000000000000000000000000000000000000000000000000000000000815260040161076b90615611565b60405180910390fd5b600073ffffffffffffffffffffffffffffffffffffffff168473ffffffffffffffffffffffffffffffffffffffff1614156107e4576040517f08c379a00000000000000000000000000000000000000000000000000000000081526004016107db90615511565b60405180910390fd5b6107ec612cde565b73ffffffffffffffffffffffffffffffffffffffff168573ffffffffffffffffffffffffffffffffffffffff16148061083257506108318561082c612cde565b612616565b5b610871576040517f08c379a000000000000000000000000000000000000000000000000000000000815260040161086890615531565b60405180910390fd5b600061087b612cde565b905061088b818787878787612ce6565b60005b8451811015610a945760008582815181106108d2577f4e487b7100000000000000000000000000000000000000000000000000000000600052603260045260246000fd5b602002602001015190506000858381518110610917577f4e487b7100000000000000000000000000000000000000000000000000000000600052603260045260246000fd5b6020026020010151905060006065600084815260200190815260200160002060008b73ffffffffffffffffffffffffffffffffffffffff1673ffffffffffffffffffffffffffffffffffffffff168152602001908152602001600020549050818110156109b9576040517f08c379a00000000000000000000000000000000000000000000000000000000081526004016109b090615591565b60405180910390fd5b81816109c5919061589e565b6065600085815260200190815260200160002060008c73ffffffffffffffffffffffffffffffffffffffff1673ffffffffffffffffffffffffffffffffffffffff16815260200190815260200160002081905550816065600085815260200190815260200160002060008b73ffffffffffffffffffffffffffffffffffffffff1673ffffffffffffffffffffffffffffffffffffffff1681526020019081526020016000206000828254610a799190615848565b9250508190555050505080610a8d906159ba565b905061088e565b508473ffffffffffffffffffffffffffffffffffffffff168673ffffffffffffffffffffffffffffffffffffffff168273ffffffffffffffffffffffffffffffffffffffff167f4a39dc06d4c0dbc64b70af90fd698a233a518aa5d07e595d983b8c0526c8f7fb8787604051610b0b92919061535d565b60405180910390a4610b21818787878787612cee565b505050505050565b606060fe6000838152602001908152602001600020805480602002602001604051908101604052809291908181526020018280548015610bbe57602002820191906000526020600020905b8160009054906101000a900473ffffffffffffffffffffffffffffffffffffffff1673ffffffffffffffffffffffffffffffffffffffff1681526020019060010190808311610b74575b50505050509050919050565b60608151835114610c10576040517f08c379a0000000000000000000000000000000000000000000000000000000008152600401610c07906155f1565b60405180910390fd5b6000835167ffffffffffffffff811115610c53577f4e487b7100000000000000000000000000000000000000000000000000000000600052604160045260246000fd5b604051908082528060200260200182016040528015610c815781602001602082028036833780820191505090505b50905060005b8451811015610d7057610d1a858281518110610ccc577f4e487b7100000000000000000000000000000000000000000000000000000000600052603260045260246000fd5b6020026020010151858381518110610d0d577f4e487b7100000000000000000000000000000000000000000000000000000000600052603260045260246000fd5b6020026020010151610459565b828281518110610d53577f4e487b7100000000000000000000000000000000000000000000000000000000600052603260045260246000fd5b60200260200101818152505080610d69906159ba565b9050610c87565b508091505092915050565b6000609760009054906101000a900460ff16905090565b610d9a610d7b565b15610dda576040517f08c379a0000000000000000000000000000000000000000000000000000000008152600401610dd190615651565b60405180910390fd5b6000610de68685610459565b90506000610df48686610459565b9050610e0387878787876126aa565b81841061109657600060fe60008781526020019081526020016000208054905090506000805b82811015610ef55760fe60008981526020019081526020016000208181548110610e7c577f4e487b7100000000000000000000000000000000000000000000000000000000600052603260045260246000fd5b9060005260206000200160009054906101000a900473ffffffffffffffffffffffffffffffffffffffff1673ffffffffffffffffffffffffffffffffffffffff168a73ffffffffffffffffffffffffffffffffffffffff161415610ee257809150610ef5565b8080610eed906159ba565b915050610e29565b5060fe6000888152602001908152602001600020600183610f16919061589e565b81548110610f4d577f4e487b7100000000000000000000000000000000000000000000000000000000600052603260045260246000fd5b9060005260206000200160009054906101000a900473ffffffffffffffffffffffffffffffffffffffff1660fe60008981526020019081526020016000208281548110610fc3577f4e487b7100000000000000000000000000000000000000000000000000000000600052603260045260246000fd5b9060005260206000200160006101000a81548173ffffffffffffffffffffffffffffffffffffffff021916908373ffffffffffffffffffffffffffffffffffffffff16021790555060fe6000888152602001908152602001600020805480611054577f4e487b7100000000000000000000000000000000000000000000000000000000600052603160045260246000fd5b6001900381819060005260206000200160006101000a81549073ffffffffffffffffffffffffffffffffffffffff021916905590556110938988612ebe565b50505b600081141561117a5760fe6000868152602001908152602001600020869080600181540180825580915050600190039060005260206000200160009091909190916101000a81548173ffffffffffffffffffffffffffffffffffffffff021916908373ffffffffffffffffffffffffffffffffffffffff16021790555060fd60008773ffffffffffffffffffffffffffffffffffffffff1673ffffffffffffffffffffffffffffffffffffffff1681526020019081526020016000208590806001815401808255809150506001900390600052602060002001600090919091909150555b50505050505050565b606060ff8054806020026020016040519081016040528092919081815260200182805480156111d157602002820191906000526020600020905b8154815260200190600101908083116111bd575b5050505050905090565b6111e3612cde565b73ffffffffffffffffffffffffffffffffffffffff16611201611cd1565b73ffffffffffffffffffffffffffffffffffffffff1614611257576040517f08c379a000000000000000000000000000000000000000000000000000000000815260040161124e906155b1565b60405180910390fd5b600073ffffffffffffffffffffffffffffffffffffffff1660c960009054906101000a900473ffffffffffffffffffffffffffffffffffffffff1673ffffffffffffffffffffffffffffffffffffffff167f8be0079c531659141344cd1fd0a4f28419497f9722a3daafe3b4186f6b6457e060405160405180910390a3600060c960006101000a81548173ffffffffffffffffffffffffffffffffffffffff021916908373ffffffffffffffffffffffffffffffffffffffff160217905550565b611320612cde565b73ffffffffffffffffffffffffffffffffffffffff1661133e611cd1565b73ffffffffffffffffffffffffffffffffffffffff1614611394576040517f08c379a000000000000000000000000000000000000000000000000000000000815260040161138b906155b1565b60405180910390fd5b61139c610d7b565b156113dc576040517f08c379a00000000000000000000000000000000000000000000000000000000081526004016113d390615651565b60405180910390fd5b60006113e88285610459565b90508281101561142d576040517f08c379a0000000000000000000000000000000000000000000000000000000008152600401611424906154f1565b60405180910390fd5b61143882858561315a565b828114156116295761144a8285612ebe565b6114548285613382565b600060fe600086815260200190815260200160002080549050141561162857600060ff8054905090506000805b828110156114f05760ff81815481106114c3577f4e487b7100000000000000000000000000000000000000000000000000000000600052603260045260246000fd5b90600052602060002001548714156114dd578091506114f0565b80806114e8906159ba565b915050611481565b5060ff600183611500919061589e565b81548110611537577f4e487b7100000000000000000000000000000000000000000000000000000000600052603260045260246000fd5b906000526020600020015460ff828154811061157c577f4e487b7100000000000000000000000000000000000000000000000000000000600052603260045260246000fd5b906000526020600020018190555060ff8054806115c2577f4e487b7100000000000000000000000000000000000000000000000000000000600052603160045260246000fd5b6001900381819060005260206000200160009055905560fc6000878152602001908152602001600020600080820160006101000a81549073ffffffffffffffffffffffffffffffffffffffff021916905560018201600090556002820160009055505050505b5b50505050565b611637612cde565b73ffffffffffffffffffffffffffffffffffffffff16611655611cd1565b73ffffffffffffffffffffffffffffffffffffffff16146116ab576040517f08c379a00000000000000000000000000000000000000000000000000000000081526004016116a2906155b1565b60405180910390fd5b6116b3613607565b565b6116bd612cde565b73ffffffffffffffffffffffffffffffffffffffff166116db611cd1565b73ffffffffffffffffffffffffffffffffffffffff1614611731576040517f08c379a0000000000000000000000000000000000000000000000000000000008152600401611728906155b1565b60405180910390fd5b611739610d7b565b15611779576040517f08c379a000000000000000000000000000000000000000000000000000000000815260040161177090615651565b60405180910390fd5b611794818484604051806020016040528060008152506136aa565b600073ffffffffffffffffffffffffffffffffffffffff1660fc600085815260200190815260200160002060000160009054906101000a900473ffffffffffffffffffffffffffffffffffffffff1673ffffffffffffffffffffffffffffffffffffffff1614156118f057611807614033565b85816000019073ffffffffffffffffffffffffffffffffffffffff16908173ffffffffffffffffffffffffffffffffffffffff168152505084816020018181525050828160400181815250508060fc600086815260200190815260200160002060008201518160000160006101000a81548173ffffffffffffffffffffffffffffffffffffffff021916908373ffffffffffffffffffffffffffffffffffffffff160217905550602082015181600101556040820151816002015590505060ff849080600181540180825580915050600190039060005260206000200160009091909190915055505b600060fd60008373ffffffffffffffffffffffffffffffffffffffff1673ffffffffffffffffffffffffffffffffffffffff16815260200190815260200160002080549050905060008114156119ab5760fd60008373ffffffffffffffffffffffffffffffffffffffff1673ffffffffffffffffffffffffffffffffffffffff168152602001908152602001600020849080600181540180825580915050600190039060005260206000200160009091909190915055611ad4565b60005b81811015611ad25760fd60008473ffffffffffffffffffffffffffffffffffffffff1673ffffffffffffffffffffffffffffffffffffffff1681526020019081526020016000208181548110611a2d577f4e487b7100000000000000000000000000000000000000000000000000000000600052603260045260246000fd5b9060005260206000200154851415611a4457611ad2565b600182611a51919061589e565b811415611abf5760fd60008473ffffffffffffffffffffffffffffffffffffffff1673ffffffffffffffffffffffffffffffffffffffff1681526020019081526020016000208590806001815401808255809150506001900390600052602060002001600090919091909150555b8080611aca906159ba565b9150506119ae565b505b600060fe60008681526020019081526020016000208054905090506000811415611b715760fe6000868152602001908152602001600020839080600181540180825580915050600190039060005260206000200160009091909190916101000a81548173ffffffffffffffffffffffffffffffffffffffff021916908373ffffffffffffffffffffffffffffffffffffffff160217905550611cc8565b60005b81811015611cc65760fe60008781526020019081526020016000208181548110611bc7577f4e487b7100000000000000000000000000000000000000000000000000000000600052603260045260246000fd5b9060005260206000200160009054906101000a900473ffffffffffffffffffffffffffffffffffffffff1673ffffffffffffffffffffffffffffffffffffffff168473ffffffffffffffffffffffffffffffffffffffff161415611c2a57611cc6565b600182611c37919061589e565b811415611cb35760fe6000878152602001908152602001600020849080600181540180825580915050600190039060005260206000200160009091909190916101000a81548173ffffffffffffffffffffffffffffffffffffffff021916908373ffffffffffffffffffffffffffffffffffffffff1602179055505b8080611cbe906159ba565b915050611b74565b505b50505050505050565b600060c960009054906101000a900473ffffffffffffffffffffffffffffffffffffffff16905090565b611d03610d7b565b15611d43576040517f08c379a0000000000000000000000000000000000000000000000000000000008152600401611d3a90615651565b60405180910390fd5b600060fc60008381526020019081526020016000206002015490506000611d6a3384610459565b9050808214611dae576040517f08c379a0000000000000000000000000000000000000000000000000000000008152600401611da590615411565b60405180910390fd5b600060fc600085815260200190815260200160002060000160009054906101000a900473ffffffffffffffffffffffffffffffffffffffff169050600060fc600086815260200190815260200160002060010154905060008290508073ffffffffffffffffffffffffffffffffffffffff166323b872dd3033856040518463ffffffff1660e01b8152600401611e4693929190615251565b600060405180830381600087803b158015611e6057600080fd5b505af1158015611e74573d6000803e3d6000fd5b50505050611e8333878761315a565b611e8d3387612ebe565b600060ff8054905090506000805b82811015611f0a5760ff8181548110611edd577f4e487b7100000000000000000000000000000000000000000000000000000000600052603260045260246000fd5b9060005260206000200154891415611ef757809150611f0a565b8080611f02906159ba565b915050611e9b565b5060ff600183611f1a919061589e565b81548110611f51577f4e487b7100000000000000000000000000000000000000000000000000000000600052603260045260246000fd5b906000526020600020015460ff8281548110611f96577f4e487b7100000000000000000000000000000000000000000000000000000000600052603260045260246000fd5b906000526020600020018190555060ff805480611fdc577f4e487b7100000000000000000000000000000000000000000000000000000000600052603160045260246000fd5b6001900381819060005260206000200160009055905560fe60008981526020019081526020016000206000612011919061406a565b60fc6000898152602001908152602001600020600080820160006101000a81549073ffffffffffffffffffffffffffffffffffffffff02191690556001820160009055600282016000905550505050505050505050565b8173ffffffffffffffffffffffffffffffffffffffff16612087612cde565b73ffffffffffffffffffffffffffffffffffffffff1614156120de576040517f08c379a00000000000000000000000000000000000000000000000000000000081526004016120d5906155d1565b60405180910390fd5b80606660006120eb612cde565b73ffffffffffffffffffffffffffffffffffffffff1673ffffffffffffffffffffffffffffffffffffffff16815260200190815260200160002060008473ffffffffffffffffffffffffffffffffffffffff1673ffffffffffffffffffffffffffffffffffffffff16815260200190815260200160002060006101000a81548160ff0219169083151502179055508173ffffffffffffffffffffffffffffffffffffffff16612198612cde565b73ffffffffffffffffffffffffffffffffffffffff167f17307eab39ab6107e8899845ad3d59bd9653f200f220920489ca2b5937696c31836040516121dd9190615394565b60405180910390a35050565b600080600060fc600085815260200190815260200160002060000160009054906101000a900473ffffffffffffffffffffffffffffffffffffffff1660fc60008681526020019081526020016000206001015460fc6000878152602001908152602001600020600201549250925092509193909250565b612268610d7b565b156122a8576040517f08c379a000000000000000000000000000000000000000000000000000000000815260040161229f90615651565b60405180910390fd5b60008390503373ffffffffffffffffffffffffffffffffffffffff168173ffffffffffffffffffffffffffffffffffffffff16636352211e856040518263ffffffff1660e01b81526004016122fd9190615671565b60206040518083038186803b15801561231557600080fd5b505afa158015612329573d6000803e3d6000fd5b505050506040513d601f19601f8201168201806040525081019061234d91906143d1565b73ffffffffffffffffffffffffffffffffffffffff16146123a3576040517f08c379a000000000000000000000000000000000000000000000000000000000815260040161239a90615431565b60405180910390fd5b8073ffffffffffffffffffffffffffffffffffffffff166323b872dd3330866040518463ffffffff1660e01b81526004016123e093929190615251565b600060405180830381600087803b1580156123fa57600080fd5b505af115801561240e573d6000803e3d6000fd5b5050505061241c60fb613841565b600061242860fb613857565b9050612445338285604051806020016040528060008152506136aa565b61244d614033565b85816000019073ffffffffffffffffffffffffffffffffffffffff16908173ffffffffffffffffffffffffffffffffffffffff168152505084816020018181525050838160400181815250508060fc600084815260200190815260200160002060008201518160000160006101000a81548173ffffffffffffffffffffffffffffffffffffffff021916908373ffffffffffffffffffffffffffffffffffffffff160217905550602082015181600101556040820151816002015590505060fd60003373ffffffffffffffffffffffffffffffffffffffff1673ffffffffffffffffffffffffffffffffffffffff16815260200190815260200160002082908060018154018082558091505060019003906000526020600020016000909190919091505560fe6000838152602001908152602001600020339080600181540180825580915050600190039060005260206000200160009091909190916101000a81548173ffffffffffffffffffffffffffffffffffffffff021916908373ffffffffffffffffffffffffffffffffffffffff16021790555060ff829080600181540180825580915050600190039060005260206000200160009091909190915055505050505050565b6000606660008473ffffffffffffffffffffffffffffffffffffffff1673ffffffffffffffffffffffffffffffffffffffff16815260200190815260200160002060008373ffffffffffffffffffffffffffffffffffffffff1673ffffffffffffffffffffffffffffffffffffffff16815260200190815260200160002060009054906101000a900460ff16905092915050565b600073ffffffffffffffffffffffffffffffffffffffff168473ffffffffffffffffffffffffffffffffffffffff16141561271a576040517f08c379a000000000000000000000000000000000000000000000000000000000815260040161271190615511565b60405180910390fd5b612722612cde565b73ffffffffffffffffffffffffffffffffffffffff168573ffffffffffffffffffffffffffffffffffffffff161480612768575061276785612762612cde565b612616565b5b6127a7576040517f08c379a000000000000000000000000000000000000000000000000000000000815260040161279e906154b1565b60405180910390fd5b60006127b1612cde565b90506127d18187876127c288613865565b6127cb88613865565b87612ce6565b60006065600086815260200190815260200160002060008873ffffffffffffffffffffffffffffffffffffffff1673ffffffffffffffffffffffffffffffffffffffff16815260200190815260200160002054905083811015612869576040517f08c379a000000000000000000000000000000000000000000000000000000000815260040161286090615591565b60405180910390fd5b8381612875919061589e565b6065600087815260200190815260200160002060008973ffffffffffffffffffffffffffffffffffffffff1673ffffffffffffffffffffffffffffffffffffffff16815260200190815260200160002081905550836065600087815260200190815260200160002060008873ffffffffffffffffffffffffffffffffffffffff1673ffffffffffffffffffffffffffffffffffffffff16815260200190815260200160002060008282546129299190615848565b925050819055508573ffffffffffffffffffffffffffffffffffffffff168773ffffffffffffffffffffffffffffffffffffffff168373ffffffffffffffffffffffffffffffffffffffff167fc3d58168c5ae7397731d063d5bbf3d657854427343f4c083240f7aacaa2d0f6288886040516129a692919061568c565b60405180910390a46129bc82888888888861392b565b50505050505050565b6129cd612cde565b73ffffffffffffffffffffffffffffffffffffffff166129eb611cd1565b73ffffffffffffffffffffffffffffffffffffffff1614612a41576040517f08c379a0000000000000000000000000000000000000000000000000000000008152600401612a38906155b1565b60405180910390fd5b600073ffffffffffffffffffffffffffffffffffffffff168173ffffffffffffffffffffffffffffffffffffffff161415612ab1576040517f08c379a0000000000000000000000000000000000000000000000000000000008152600401612aa890615471565b60405180910390fd5b8073ffffffffffffffffffffffffffffffffffffffff1660c960009054906101000a900473ffffffffffffffffffffffffffffffffffffffff1673ffffffffffffffffffffffffffffffffffffffff167f8be0079c531659141344cd1fd0a4f28419497f9722a3daafe3b4186f6b6457e060405160405180910390a38060c960006101000a81548173ffffffffffffffffffffffffffffffffffffffff021916908373ffffffffffffffffffffffffffffffffffffffff16021790555050565b600060019054906101000a900460ff1680612b97575060008054906101000a900460ff16155b612bd6576040517f08c379a0000000000000000000000000000000000000000000000000000000008152600401612bcd90615551565b60405180910390fd5b60008060019054906101000a900460ff161590508015612c26576001600060016101000a81548160ff02191690831515021790555060016000806101000a81548160ff0219169083151502179055505b612c2e613afb565b612c36613bd4565b612c3e613cad565b612c4782613da1565b612c4f613e84565b8015612c705760008060016101000a81548160ff0219169083151502179055505b5050565b60007f01ffc9a7000000000000000000000000000000000000000000000000000000007bffffffffffffffffffffffffffffffffffffffffffffffffffffffff1916827bffffffffffffffffffffffffffffffffffffffffffffffffffffffff1916149050919050565b600033905090565b505050505050565b612d0d8473ffffffffffffffffffffffffffffffffffffffff16614006565b15612eb6578373ffffffffffffffffffffffffffffffffffffffff1663bc197c8187878686866040518663ffffffff1660e01b8152600401612d539594939291906151e9565b602060405180830381600087803b158015612d6d57600080fd5b505af1925050508015612d9e57506040513d601f19601f82011682018060405250810190612d9b9190614757565b60015b612e2d57612daa615aae565b80612db55750612df2565b806040517f08c379a0000000000000000000000000000000000000000000000000000000008152600401612de991906153af565b60405180910390fd5b6040517f08c379a0000000000000000000000000000000000000000000000000000000008152600401612e24906153d1565b60405180910390fd5b63bc197c8160e01b7bffffffffffffffffffffffffffffffffffffffffffffffffffffffff1916817bffffffffffffffffffffffffffffffffffffffffffffffffffffffff191614612eb4576040517f08c379a0000000000000000000000000000000000000000000000000000000008152600401612eab906153f1565b60405180910390fd5b505b505050505050565b600060fd60008473ffffffffffffffffffffffffffffffffffffffff1673ffffffffffffffffffffffffffffffffffffffff1681526020019081526020016000208054905090506000805b82811015612fb55760fd60008673ffffffffffffffffffffffffffffffffffffffff1673ffffffffffffffffffffffffffffffffffffffff1681526020019081526020016000208181548110612f88577f4e487b7100000000000000000000000000000000000000000000000000000000600052603260045260246000fd5b9060005260206000200154841415612fa257809150612fb5565b8080612fad906159ba565b915050612f09565b5060fd60008573ffffffffffffffffffffffffffffffffffffffff1673ffffffffffffffffffffffffffffffffffffffff168152602001908152602001600020600183613002919061589e565b81548110613039577f4e487b7100000000000000000000000000000000000000000000000000000000600052603260045260246000fd5b906000526020600020015460fd60008673ffffffffffffffffffffffffffffffffffffffff1673ffffffffffffffffffffffffffffffffffffffff16815260200190815260200160002082815481106130bb577f4e487b7100000000000000000000000000000000000000000000000000000000600052603260045260246000fd5b906000526020600020018190555060fd60008573ffffffffffffffffffffffffffffffffffffffff1673ffffffffffffffffffffffffffffffffffffffff16815260200190815260200160002080548061313e577f4e487b7100000000000000000000000000000000000000000000000000000000600052603160045260246000fd5b6001900381819060005260206000200160009055905550505050565b600073ffffffffffffffffffffffffffffffffffffffff168373ffffffffffffffffffffffffffffffffffffffff1614156131ca576040517f08c379a00000000000000000000000000000000000000000000000000000000081526004016131c190615571565b60405180910390fd5b60006131d4612cde565b9050613204818560006131e687613865565b6131ef87613865565b60405180602001604052806000815250612ce6565b60006065600085815260200190815260200160002060008673ffffffffffffffffffffffffffffffffffffffff1673ffffffffffffffffffffffffffffffffffffffff1681526020019081526020016000205490508281101561329c576040517f08c379a000000000000000000000000000000000000000000000000000000000815260040161329390615491565b60405180910390fd5b82816132a8919061589e565b6065600086815260200190815260200160002060008773ffffffffffffffffffffffffffffffffffffffff1673ffffffffffffffffffffffffffffffffffffffff16815260200190815260200160002081905550600073ffffffffffffffffffffffffffffffffffffffff168573ffffffffffffffffffffffffffffffffffffffff168373ffffffffffffffffffffffffffffffffffffffff167fc3d58168c5ae7397731d063d5bbf3d657854427343f4c083240f7aacaa2d0f62878760405161337392919061568c565b60405180910390a45050505050565b600060fe60008381526020019081526020016000208054905090506000805b8281101561346d5760fe600085815260200190815260200160002081815481106133f4577f4e487b7100000000000000000000000000000000000000000000000000000000600052603260045260246000fd5b9060005260206000200160009054906101000a900473ffffffffffffffffffffffffffffffffffffffff1673ffffffffffffffffffffffffffffffffffffffff168573ffffffffffffffffffffffffffffffffffffffff16141561345a5780915061346d565b8080613465906159ba565b9150506133a1565b5060fe600084815260200190815260200160002060018361348e919061589e565b815481106134c5577f4e487b7100000000000000000000000000000000000000000000000000000000600052603260045260246000fd5b9060005260206000200160009054906101000a900473ffffffffffffffffffffffffffffffffffffffff1660fe6000858152602001908152602001600020828154811061353b577f4e487b7100000000000000000000000000000000000000000000000000000000600052603260045260246000fd5b9060005260206000200160006101000a81548173ffffffffffffffffffffffffffffffffffffffff021916908373ffffffffffffffffffffffffffffffffffffffff16021790555060fe60008481526020019081526020016000208054806135cc577f4e487b7100000000000000000000000000000000000000000000000000000000600052603160045260246000fd5b6001900381819060005260206000200160006101000a81549073ffffffffffffffffffffffffffffffffffffffff0219169055905550505050565b61360f610d7b565b1561364f576040517f08c379a0000000000000000000000000000000000000000000000000000000008152600401613646906154d1565b60405180910390fd5b6001609760006101000a81548160ff0219169083151502179055507f62e78cea01bee320cd4e420270b5ea74000d11b0c9f74754ebdbfc544b05a258613693612cde565b6040516136a091906151ce565b60405180910390a1565b600073ffffffffffffffffffffffffffffffffffffffff168473ffffffffffffffffffffffffffffffffffffffff16141561371a576040517f08c379a000000000000000000000000000000000000000000000000000000000815260040161371190615631565b60405180910390fd5b6000613724612cde565b90506137458160008761373688613865565b61373f88613865565b87612ce6565b826065600086815260200190815260200160002060008773ffffffffffffffffffffffffffffffffffffffff1673ffffffffffffffffffffffffffffffffffffffff16815260200190815260200160002060008282546137a59190615848565b925050819055508473ffffffffffffffffffffffffffffffffffffffff16600073ffffffffffffffffffffffffffffffffffffffff168273ffffffffffffffffffffffffffffffffffffffff167fc3d58168c5ae7397731d063d5bbf3d657854427343f4c083240f7aacaa2d0f62878760405161382392919061568c565b60405180910390a461383a8160008787878761392b565b5050505050565b6001816000016000828254019250508190555050565b600081600001549050919050565b60606000600167ffffffffffffffff8111156138aa577f4e487b7100000000000000000000000000000000000000000000000000000000600052604160045260246000fd5b6040519080825280602002602001820160405280156138d85781602001602082028036833780820191505090505b5090508281600081518110613916577f4e487b7100000000000000000000000000000000000000000000000000000000600052603260045260246000fd5b60200260200101818152505080915050919050565b61394a8473ffffffffffffffffffffffffffffffffffffffff16614006565b15613af3578373ffffffffffffffffffffffffffffffffffffffff1663f23a6e6187878686866040518663ffffffff1660e01b8152600401613990959493929190615288565b602060405180830381600087803b1580156139aa57600080fd5b505af19250505080156139db57506040513d601f19601f820116820180604052508101906139d89190614757565b60015b613a6a576139e7615aae565b806139f25750613a2f565b806040517f08c379a0000000000000000000000000000000000000000000000000000000008152600401613a2691906153af565b60405180910390fd5b6040517f08c379a0000000000000000000000000000000000000000000000000000000008152600401613a61906153d1565b60405180910390fd5b63f23a6e6160e01b7bffffffffffffffffffffffffffffffffffffffffffffffffffffffff1916817bffffffffffffffffffffffffffffffffffffffffffffffffffffffff191614613af1576040517f08c379a0000000000000000000000000000000000000000000000000000000008152600401613ae8906153f1565b60405180910390fd5b505b505050505050565b600060019054906101000a900460ff1680613b21575060008054906101000a900460ff16155b613b60576040517f08c379a0000000000000000000000000000000000000000000000000000000008152600401613b5790615551565b60405180910390fd5b60008060019054906101000a900460ff161590508015613bb0576001600060016101000a81548160ff02191690831515021790555060016000806101000a81548160ff0219169083151502179055505b8015613bd15760008060016101000a81548160ff0219169083151502179055505b50565b600060019054906101000a900460ff1680613bfa575060008054906101000a900460ff16155b613c39576040517f08c379a0000000000000000000000000000000000000000000000000000000008152600401613c3090615551565b60405180910390fd5b60008060019054906101000a900460ff161590508015613c89576001600060016101000a81548160ff02191690831515021790555060016000806101000a81548160ff0219169083151502179055505b8015613caa5760008060016101000a81548160ff0219169083151502179055505b50565b600060019054906101000a900460ff1680613cd3575060008054906101000a900460ff16155b613d12576040517f08c379a0000000000000000000000000000000000000000000000000000000008152600401613d0990615551565b60405180910390fd5b60008060019054906101000a900460ff161590508015613d62576001600060016101000a81548160ff02191690831515021790555060016000806101000a81548160ff0219169083151502179055505b6000609760006101000a81548160ff0219169083151502179055508015613d9e5760008060016101000a81548160ff0219169083151502179055505b50565b600060019054906101000a900460ff1680613dc7575060008054906101000a900460ff16155b613e06576040517f08c379a0000000000000000000000000000000000000000000000000000000008152600401613dfd90615551565b60405180910390fd5b60008060019054906101000a900460ff161590508015613e56576001600060016101000a81548160ff02191690831515021790555060016000806101000a81548160ff0219169083151502179055505b613e5f82614019565b8015613e805760008060016101000a81548160ff0219169083151502179055505b5050565b600060019054906101000a900460ff1680613eaa575060008054906101000a900460ff16155b613ee9576040517f08c379a0000000000000000000000000000000000000000000000000000000008152600401613ee090615551565b60405180910390fd5b60008060019054906101000a900460ff161590508015613f39576001600060016101000a81548160ff02191690831515021790555060016000806101000a81548160ff0219169083151502179055505b6000613f43612cde565b90508060c960006101000a81548173ffffffffffffffffffffffffffffffffffffffff021916908373ffffffffffffffffffffffffffffffffffffffff1602179055508073ffffffffffffffffffffffffffffffffffffffff16600073ffffffffffffffffffffffffffffffffffffffff167f8be0079c531659141344cd1fd0a4f28419497f9722a3daafe3b4186f6b6457e060405160405180910390a35080156140035760008060016101000a81548160ff0219169083151502179055505b50565b600080823b905060008111915050919050565b806067908051906020019061402f92919061408b565b5050565b6040518060600160405280600073ffffffffffffffffffffffffffffffffffffffff16815260200160008152602001600081525090565b50805460008255906000526020600020908101906140889190614111565b50565b82805461409790615988565b90600052602060002090601f0160209004810192826140b95760008555614100565b82601f106140d257805160ff1916838001178555614100565b82800160010185558215614100579182015b828111156140ff5782518255916020019190600101906140e4565b5b50905061410d9190614111565b5090565b5b8082111561412a576000816000905550600101614112565b5090565b600061414161413c846156e6565b6156b5565b9050808382526020820190508285602086028201111561416057600080fd5b60005b8581101561419057816141768882614282565b845260208401935060208301925050600181019050614163565b5050509392505050565b60006141ad6141a884615712565b6156b5565b905080838252602082019050828560208602820111156141cc57600080fd5b60005b858110156141fc57816141e28882614393565b8452602084019350602083019250506001810190506141cf565b5050509392505050565b60006142196142148461573e565b6156b5565b90508281526020810184848401111561423157600080fd5b61423c848285615946565b509392505050565b60006142576142528461576e565b6156b5565b90508281526020810184848401111561426f57600080fd5b61427a848285615946565b509392505050565b60008135905061429181615b64565b92915050565b6000815190506142a681615b64565b92915050565b600082601f8301126142bd57600080fd5b81356142cd84826020860161412e565b91505092915050565b600082601f8301126142e757600080fd5b81356142f784826020860161419a565b91505092915050565b60008135905061430f81615b7b565b92915050565b60008135905061432481615b92565b92915050565b60008151905061433981615b92565b92915050565b600082601f83011261435057600080fd5b8135614360848260208601614206565b91505092915050565b600082601f83011261437a57600080fd5b813561438a848260208601614244565b91505092915050565b6000813590506143a281615ba9565b92915050565b6000602082840312156143ba57600080fd5b60006143c884828501614282565b91505092915050565b6000602082840312156143e357600080fd5b60006143f184828501614297565b91505092915050565b6000806040838503121561440d57600080fd5b600061441b85828601614282565b925050602061442c85828601614282565b9150509250929050565b600080600080600060a0868803121561444e57600080fd5b600061445c88828901614282565b955050602061446d88828901614282565b945050604086013567ffffffffffffffff81111561448a57600080fd5b614496888289016142d6565b935050606086013567ffffffffffffffff8111156144b357600080fd5b6144bf888289016142d6565b925050608086013567ffffffffffffffff8111156144dc57600080fd5b6144e88882890161433f565b9150509295509295909350565b600080600080600060a0868803121561450d57600080fd5b600061451b88828901614282565b955050602061452c88828901614282565b945050604061453d88828901614393565b935050606061454e88828901614393565b925050608086013567ffffffffffffffff81111561456b57600080fd5b6145778882890161433f565b9150509295509295909350565b6000806040838503121561459757600080fd5b60006145a585828601614282565b92505060206145b685828601614300565b9150509250929050565b600080604083850312156145d357600080fd5b60006145e185828601614282565b92505060206145f285828601614393565b9150509250929050565b60008060006060848603121561461157600080fd5b600061461f86828701614282565b935050602061463086828701614393565b925050604061464186828701614393565b9150509250925092565b600080600080600060a0868803121561466357600080fd5b600061467188828901614282565b955050602061468288828901614393565b945050604061469388828901614393565b93505060606146a488828901614393565b92505060806146b588828901614282565b9150509295509295909350565b600080604083850312156146d557600080fd5b600083013567ffffffffffffffff8111156146ef57600080fd5b6146fb858286016142ac565b925050602083013567ffffffffffffffff81111561471857600080fd5b614724858286016142d6565b9150509250929050565b60006020828403121561474057600080fd5b600061474e84828501614315565b91505092915050565b60006020828403121561476957600080fd5b60006147778482850161432a565b91505092915050565b60006020828403121561479257600080fd5b600082013567ffffffffffffffff8111156147ac57600080fd5b6147b884828501614369565b91505092915050565b6000602082840312156147d357600080fd5b60006147e184828501614393565b91505092915050565b6000806000606084860312156147ff57600080fd5b600061480d86828701614393565b935050602061481e86828701614393565b925050604061482f86828701614282565b9150509250925092565b60006148458383614869565b60208301905092915050565b600061485d83836151b0565b60208301905092915050565b614872816158d2565b82525050565b614881816158d2565b82525050565b6000614892826157be565b61489c8185615804565b93506148a78361579e565b8060005b838110156148d85781516148bf8882614839565b97506148ca836157ea565b9250506001810190506148ab565b5085935050505092915050565b60006148f0826157c9565b6148fa8185615815565b9350614905836157ae565b8060005b8381101561493657815161491d8882614851565b9750614928836157f7565b925050600181019050614909565b5085935050505092915050565b61494c816158e4565b82525050565b600061495d826157d4565b6149678185615826565b9350614977818560208601615955565b61498081615a90565b840191505092915050565b6000614996826157df565b6149a08185615837565b93506149b0818560208601615955565b6149b981615a90565b840191505092915050565b60006149d1603483615837565b91507f455243313135353a207472616e7366657220746f206e6f6e204552433131353560008301527f526563656976657220696d706c656d656e7465720000000000000000000000006020830152604082019050919050565b6000614a37602883615837565b91507f455243313135353a204552433131353552656365697665722072656a6563746560008301527f6420746f6b656e730000000000000000000000000000000000000000000000006020830152604082019050919050565b6000614a9d602b83615837565b91507f6d6573736167652073656e6465722068617320746f206f776e20616c6c206f6660008301527f20746865207368617265730000000000000000000000000000000000000000006020830152604082019050919050565b6000614b03602a83615837565b91507f6d73672073656e6465722068617320746f206f776e2074686520746f6b656e2060008301527f746f206465706f736974000000000000000000000000000000000000000000006020830152604082019050919050565b6000614b69602b83615837565b91507f455243313135353a2062616c616e636520717565727920666f7220746865207a60008301527f65726f20616464726573730000000000000000000000000000000000000000006020830152604082019050919050565b6000614bcf602683615837565b91507f4f776e61626c653a206e6577206f776e657220697320746865207a65726f206160008301527f64647265737300000000000000000000000000000000000000000000000000006020830152604082019050919050565b6000614c35602483615837565b91507f455243313135353a206275726e20616d6f756e7420657863656564732062616c60008301527f616e6365000000000000000000000000000000000000000000000000000000006020830152604082019050919050565b6000614c9b602983615837565b91507f455243313135353a2063616c6c6572206973206e6f74206f776e6572206e6f7260008301527f20617070726f76656400000000000000000000000000000000000000000000006020830152604082019050919050565b6000614d01601083615837565b91507f5061757361626c653a20706175736564000000000000000000000000000000006000830152602082019050919050565b6000614d41604083615837565b91507f7472616e7366657265722068617320746f206f776e20657175616c206f72206d60008301527f6f726520736861726573207468616e2074686520676976656e20616d6f756e746020830152604082019050919050565b6000614da7602583615837565b91507f455243313135353a207472616e7366657220746f20746865207a65726f20616460008301527f64726573730000000000000000000000000000000000000000000000000000006020830152604082019050919050565b6000614e0d603283615837565b91507f455243313135353a207472616e736665722063616c6c6572206973206e6f742060008301527f6f776e6572206e6f7220617070726f76656400000000000000000000000000006020830152604082019050919050565b6000614e73602e83615837565b91507f496e697469616c697a61626c653a20636f6e747261637420697320616c72656160008301527f647920696e697469616c697a65640000000000000000000000000000000000006020830152604082019050919050565b6000614ed9602383615837565b91507f455243313135353a206275726e2066726f6d20746865207a65726f206164647260008301527f65737300000000000000000000000000000000000000000000000000000000006020830152604082019050919050565b6000614f3f602a83615837565b91507f455243313135353a20696e73756666696369656e742062616c616e636520666f60008301527f72207472616e73666572000000000000000000000000000000000000000000006020830152604082019050919050565b6000614fa5602083615837565b91507f4f776e61626c653a2063616c6c6572206973206e6f7420746865206f776e65726000830152602082019050919050565b6000614fe5602983615837565b91507f455243313135353a2073657474696e6720617070726f76616c2073746174757360008301527f20666f722073656c6600000000000000000000000000000000000000000000006020830152604082019050919050565b600061504b602983615837565b91507f455243313135353a206163636f756e747320616e6420696473206c656e67746860008301527f206d69736d6174636800000000000000000000000000000000000000000000006020830152604082019050919050565b60006150b1602883615837565b91507f455243313135353a2069647320616e6420616d6f756e7473206c656e6774682060008301527f6d69736d617463680000000000000000000000000000000000000000000000006020830152604082019050919050565b6000615117602183615837565b91507f455243313135353a206d696e7420746f20746865207a65726f2061646472657360008301527f73000000000000000000000000000000000000000000000000000000000000006020830152604082019050919050565b600061517d601883615837565b91507f4e6f7420616c6c6f776564207768696c652070617573656400000000000000006000830152602082019050919050565b6151b98161593c565b82525050565b6151c88161593c565b82525050565b60006020820190506151e36000830184614878565b92915050565b600060a0820190506151fe6000830188614878565b61520b6020830187614878565b818103604083015261521d81866148e5565b9050818103606083015261523181856148e5565b905081810360808301526152458184614952565b90509695505050505050565b60006060820190506152666000830186614878565b6152736020830185614878565b61528060408301846151bf565b949350505050565b600060a08201905061529d6000830188614878565b6152aa6020830187614878565b6152b760408301866151bf565b6152c460608301856151bf565b81810360808301526152d68184614952565b90509695505050505050565b60006060820190506152f76000830186614878565b61530460208301856151bf565b61531160408301846151bf565b949350505050565b600060208201905081810360008301526153338184614887565b905092915050565b6000602082019050818103600083015261535581846148e5565b905092915050565b6000604082019050818103600083015261537781856148e5565b9050818103602083015261538b81846148e5565b90509392505050565b60006020820190506153a96000830184614943565b92915050565b600060208201905081810360008301526153c9818461498b565b905092915050565b600060208201905081810360008301526153ea816149c4565b9050919050565b6000602082019050818103600083015261540a81614a2a565b9050919050565b6000602082019050818103600083015261542a81614a90565b9050919050565b6000602082019050818103600083015261544a81614af6565b9050919050565b6000602082019050818103600083015261546a81614b5c565b9050919050565b6000602082019050818103600083015261548a81614bc2565b9050919050565b600060208201905081810360008301526154aa81614c28565b9050919050565b600060208201905081810360008301526154ca81614c8e565b9050919050565b600060208201905081810360008301526154ea81614cf4565b9050919050565b6000602082019050818103600083015261550a81614d34565b9050919050565b6000602082019050818103600083015261552a81614d9a565b9050919050565b6000602082019050818103600083015261554a81614e00565b9050919050565b6000602082019050818103600083015261556a81614e66565b9050919050565b6000602082019050818103600083015261558a81614ecc565b9050919050565b600060208201905081810360008301526155aa81614f32565b9050919050565b600060208201905081810360008301526155ca81614f98565b9050919050565b600060208201905081810360008301526155ea81614fd8565b9050919050565b6000602082019050818103600083015261560a8161503e565b9050919050565b6000602082019050818103600083015261562a816150a4565b9050919050565b6000602082019050818103600083015261564a8161510a565b9050919050565b6000602082019050818103600083015261566a81615170565b9050919050565b600060208201905061568660008301846151bf565b92915050565b60006040820190506156a160008301856151bf565b6156ae60208301846151bf565b9392505050565b6000604051905081810181811067ffffffffffffffff821117156156dc576156db615a61565b5b8060405250919050565b600067ffffffffffffffff82111561570157615700615a61565b5b602082029050602081019050919050565b600067ffffffffffffffff82111561572d5761572c615a61565b5b602082029050602081019050919050565b600067ffffffffffffffff82111561575957615758615a61565b5b601f19601f8301169050602081019050919050565b600067ffffffffffffffff82111561578957615788615a61565b5b601f19601f8301169050602081019050919050565b6000819050602082019050919050565b6000819050602082019050919050565b600081519050919050565b600081519050919050565b600081519050919050565b600081519050919050565b6000602082019050919050565b6000602082019050919050565b600082825260208201905092915050565b600082825260208201905092915050565b600082825260208201905092915050565b600082825260208201905092915050565b60006158538261593c565b915061585e8361593c565b9250827fffffffffffffffffffffffffffffffffffffffffffffffffffffffffffffffff0382111561589357615892615a03565b5b828201905092915050565b60006158a98261593c565b91506158b48361593c565b9250828210156158c7576158c6615a03565b5b828203905092915050565b60006158dd8261591c565b9050919050565b60008115159050919050565b60007fffffffff0000000000000000000000000000000000000000000000000000000082169050919050565b600073ffffffffffffffffffffffffffffffffffffffff82169050919050565b6000819050919050565b82818337600083830152505050565b60005b83811015615973578082015181840152602081019050615958565b83811115615982576000848401525b50505050565b600060028204905060018216806159a057607f821691505b602082108114156159b4576159b3615a32565b5b50919050565b60006159c58261593c565b91507fffffffffffffffffffffffffffffffffffffffffffffffffffffffffffffffff8214156159f8576159f7615a03565b5b600182019050919050565b7f4e487b7100000000000000000000000000000000000000000000000000000000600052601160045260246000fd5b7f4e487b7100000000000000000000000000000000000000000000000000000000600052602260045260246000fd5b7f4e487b7100000000000000000000000000000000000000000000000000000000600052604160045260246000fd5b6000601f19601f8301169050919050565b60008160e01c9050919050565b600060443d1015615abe57615b61565b60046000803e615acf600051615aa1565b6308c379a08114615ae05750615b61565b60405160043d036004823e80513d602482011167ffffffffffffffff82111715615b0c57505050615b61565b808201805167ffffffffffffffff811115615b2b575050505050615b61565b8060208301013d8501811115615b4657505050505050615b61565b615b4f82615a90565b60208401016040528296505050505050505b90565b615b6d816158d2565b8114615b7857600080fd5b50565b615b84816158e4565b8114615b8f57600080fd5b50565b615b9b816158f0565b8114615ba657600080fd5b50565b615bb28161593c565b8114615bbd57600080fd5b5056fea26469706673582212206712ada5b5eecf4560de273a725bb5d6732711f9eaa765897ad73c5259e79c2364736f6c63430008000033",
  "immutableReferences": {},
  "source": "// SPDX-License-Identifier: MIT\n\npragma solidity ^0.8.0;\n\nimport \"@openzeppelin/contracts-upgradeable/token/ERC1155/ERC1155Upgradeable.sol\";\nimport \"@openzeppelin/contracts-upgradeable/security/PausableUpgradeable.sol\";\nimport \"@openzeppelin/contracts-upgradeable/proxy/utils/Initializable.sol\";\nimport \"@openzeppelin/contracts/token/ERC721/IERC721.sol\";\nimport \"@openzeppelin/contracts-upgradeable/utils/CountersUpgradeable.sol\";\nimport \"@openzeppelin/contracts-upgradeable/access/OwnableUpgradeable.sol\";\n\ncontract NftFractionsRepository is\n    Initializable,\n    ERC1155Upgradeable,\n    PausableUpgradeable,\n    OwnableUpgradeable\n{\n    using CountersUpgradeable for CountersUpgradeable.Counter;\n\n    struct Token {\n        address erc721ContractAddress;\n        uint256 erc721TokenId;\n        uint256 totalFractionsAmount;\n    }\n\n    CountersUpgradeable.Counter private _ids;\n    mapping(uint256 => Token) tokens;\n    // data structures to keep track of:\n    // tokenIds by owner:\n    mapping(address => uint256[]) tokenIdsByShareOwner;\n    // owners by tokenId:\n    mapping(uint256 => address[]) ownersByTokenId;\n    // all tokenIds:\n    uint256[] tokenIds;\n\n    function initialize(string memory uri_) public initializer {\n        __Context_init_unchained();\n        __ERC165_init_unchained();\n        __Pausable_init_unchained();\n        __ERC1155_init_unchained(uri_);\n        __Ownable_init_unchained();\n    }\n\n    /**\n     * @dev Deposit an ERC721 token and mints an ERC1155 token with the given fractions amount\n     * the original ERC721 token is transferred to the address of this smart contract.\n     * Before calling this function the user has to call the apporve function on the original NFT contract and\n     * approve this smart contract to transfer his NFT.\n     *\n     * Requirements:\n     * - msg.sender has to own the token that is deposited\n     * - the contract is not paused\n     */\n    function depositNft(\n        address erc721ContractAddress,\n        uint256 erc721TokenId,\n        uint256 fractionsAmountToMint\n    ) external {\n        require(!paused(), \"Not allowed while paused\");\n        IERC721 erc721Contract = IERC721(erc721ContractAddress);\n        require(\n            erc721Contract.ownerOf(erc721TokenId) == msg.sender,\n            \"msg sender has to own the token to deposit\"\n        );\n        erc721Contract.transferFrom(msg.sender, address(this), erc721TokenId);\n        _ids.increment();\n        uint256 newItemId = _ids.current();\n        _mint(msg.sender, newItemId, fractionsAmountToMint, \"\");\n        Token memory token;\n        token.erc721ContractAddress = erc721ContractAddress;\n        token.erc721TokenId = erc721TokenId;\n        token.totalFractionsAmount = fractionsAmountToMint;\n        tokens[newItemId] = token;\n        tokenIdsByShareOwner[msg.sender].push(newItemId);\n        ownersByTokenId[newItemId].push(msg.sender);\n        tokenIds.push(newItemId);\n    }\n\n    /**\n     * @dev Withdraw an ERC721 token from this contract. The message sender has to own all of the shares in\n     * the correspondign ERC1155 token.\n     * Successfull withdraw means:\n     * - burning the ERC1155 token\n     * - transfering the ERC721 token to the owner (msg.sender) = owner of all shares in the ERC1155 token\n     *\n     * Requirements:\n     * - msg.sender has to own all shares in the corresponding ERC1155 token\n     * - the contract is not paused\n     */\n    function withdrawNft(uint256 tokenId) external {\n        require(!paused(), \"Not allowed while paused\");\n        uint256 totalFractionsAmount = tokens[tokenId].totalFractionsAmount;\n        uint256 sendersAmount = balanceOf(msg.sender, tokenId);\n        require(\n            totalFractionsAmount == sendersAmount,\n            \"message sender has to own all of the shares\"\n        );\n        //sends the original token in the ERC721 contract\n        address erc721ContractAddress = tokens[tokenId].erc721ContractAddress;\n        uint256 erc721TokenId = tokens[tokenId].erc721TokenId;\n        IERC721 erc721Contract = IERC721(erc721ContractAddress);\n        erc721Contract.transferFrom(address(this), msg.sender, erc721TokenId);\n        //burns the ERC1155 token\n        _burn(msg.sender, tokenId, totalFractionsAmount);\n        //deletes the ERC1155 token from the tokenIdsByShareOwner array\n        deleteIdFromTokenIdsByShareOwner(msg.sender, tokenId);\n        //deletes the ERC1155 token from the tokenIds array\n        uint256 nrOfTokens = tokenIds.length;\n        uint256 tokenIdPosition;\n        for (uint256 i; i < nrOfTokens; i++) {\n            if (tokenId == tokenIds[i]) {\n                tokenIdPosition = i;\n                break;\n            }\n        }\n        tokenIds[tokenIdPosition] = tokenIds[nrOfTokens - 1];\n        tokenIds.pop();\n        //deletes the token from the owners mapping\n        delete ownersByTokenId[tokenId];\n        //deletes the token struct\n        delete tokens[tokenId];\n    }\n\n    /**\n     * @dev when someone transfers his tokens to the other chain the bridge contract will call this burn function\n     * The bridge contract is the owner of NftFractionsRepository.\n     *\n     * Requirements:\n     * - only the owner (the bridge contract) can call\n     * - the contract is not paused\n     */\n    function burn(\n        uint256 tokenId,\n        uint256 amount,\n        address transferer\n    ) external onlyOwner() {\n        require(!paused(), \"Not allowed while paused\");\n        uint256 transferersAmount = balanceOf(transferer, tokenId);\n        require(\n            transferersAmount >= amount,\n            \"transferer has to own equal or more shares than the given amount\"\n        );\n        //burns the shares from ERC1155 token\n        _burn(transferer, tokenId, amount);\n        // if the transferer transfers all his amount\n        if (transferersAmount == amount) {\n            deleteIdFromTokenIdsByShareOwner(transferer, tokenId);\n            deleteOwnerFromOwnersByTokenId(transferer, tokenId);\n            // if no onwer left\n            if (ownersByTokenId[tokenId].length == 0) {\n                //deletes the ERC1155 token from the tokenIds array\n                uint256 nrOfTokens = tokenIds.length;\n                uint256 tokenIdPosition;\n                for (uint256 i; i < nrOfTokens; i++) {\n                    if (tokenId == tokenIds[i]) {\n                        tokenIdPosition = i;\n                        break;\n                    }\n                }\n                tokenIds[tokenIdPosition] = tokenIds[nrOfTokens - 1];\n                tokenIds.pop();\n                //deletes the token struct\n                delete tokens[tokenId];\n            }\n        }\n    }\n\n    /**\n     * @dev when someone transfers his tokens from the other chain to this chain the bridge contract will call this mint function\n     *\n     * Requirements:\n     * - only the owner (the bridge contract) can call\n     * - the contract is not paused\n     */\n    function mint(\n        address erc721ContractAddress,\n        uint256 erc721TokenId,\n        uint256 erc1155TokenId,\n        uint256 erc1155Amount,\n        address transferer\n    ) external onlyOwner() {\n        require(!paused(), \"Not allowed while paused\");\n        _mint(transferer, erc1155TokenId, erc1155Amount, \"\");\n        // if the token does not exist in this chain yet\n        if (tokens[erc1155TokenId].erc721ContractAddress == address(0)) {\n            Token memory token;\n            token.erc721ContractAddress = erc721ContractAddress;\n            token.erc721TokenId = erc721TokenId;\n            token.totalFractionsAmount = erc1155Amount;\n            tokens[erc1155TokenId] = token;\n            tokenIds.push(erc1155TokenId);\n        }\n        // Has to check if the transferer does not own this tokenId in this chain yet\n        uint256 nrOfTokensByTransferer =\n            tokenIdsByShareOwner[transferer].length;\n        if (nrOfTokensByTransferer == 0) {\n            tokenIdsByShareOwner[transferer].push(erc1155TokenId);\n        } else {\n            for (uint256 i; i < nrOfTokensByTransferer; i++) {\n                if (erc1155TokenId == tokenIdsByShareOwner[transferer][i]) {\n                    break;\n                }\n                if (i == nrOfTokensByTransferer - 1) {\n                    tokenIdsByShareOwner[transferer].push(erc1155TokenId);\n                }\n            }\n        }\n        // Has to check if the transferer is amoung the owners of this token in this chain\n        uint256 nrOfOwnerByTokenId = ownersByTokenId[erc1155TokenId].length;\n        if (nrOfOwnerByTokenId == 0) {\n            ownersByTokenId[erc1155TokenId].push(transferer);\n        } else {\n            for (uint256 i; i < nrOfOwnerByTokenId; i++) {\n                if (transferer == ownersByTokenId[erc1155TokenId][i]) {\n                    break;\n                }\n                if (i == nrOfOwnerByTokenId - 1) {\n                    ownersByTokenId[erc1155TokenId].push(transferer);\n                }\n            }\n        }\n    }\n\n    /**\n     * @dev same as safeTransferFrom in ERC1155 with updating the internal data structures:\n     * - updates the ownersByTokenId data structure\n     * - updates the tokenIdsByShareOwner data structure\n     */\n    function transferFrom(\n        address from,\n        address to,\n        uint256 id,\n        uint256 amount,\n        bytes memory data\n    ) public {\n        require(!paused(), \"Not allowed while paused\");\n        uint256 fromBalanceBefore = balanceOf(from, id);\n        uint256 toBalanceBefore = balanceOf(to, id);\n        safeTransferFrom(from, to, id, amount, data);\n        if (amount >= fromBalanceBefore) {\n            // remove the tokenId from ownersByTokenId[tokenId][from]\n            uint256 nrOfOwners = ownersByTokenId[id].length;\n            uint256 ownerPosition;\n            for (uint256 i; i < nrOfOwners; i++) {\n                if (from == ownersByTokenId[id][i]) {\n                    ownerPosition = i;\n                    break;\n                }\n            }\n            ownersByTokenId[id][ownerPosition] = ownersByTokenId[id][\n                nrOfOwners - 1\n            ];\n            ownersByTokenId[id].pop();\n            // delete the tokenId from the tokenIdsByShareOwner array\n            deleteIdFromTokenIdsByShareOwner(from, id);\n        }\n        if (toBalanceBefore == 0) {\n            ownersByTokenId[id].push(to);\n            tokenIdsByShareOwner[to].push(id);\n        }\n    }\n\n    /**\n     * @dev returns relevant token data:\n     * - original ERC721 contract address\n     * - original ERC721 token id\n     * - amount of fractions minted\n     */\n    function getTokenData(uint256 _tokenId)\n        public\n        view\n        returns (\n            address erc721ContractAddress,\n            uint256 erc721TokenId,\n            uint256 totalFractionsAmount\n        )\n    {\n        return (\n            tokens[_tokenId].erc721ContractAddress,\n            tokens[_tokenId].erc721TokenId,\n            tokens[_tokenId].totalFractionsAmount\n        );\n    }\n\n    function pause() public onlyOwner() {\n        _pause();\n    }\n\n    /**\n     * @dev returns the ERC1155 tokenIds that the shareOwner has shares in\n     */\n    function getTokenIdsByShareOwner(address shareOwner)\n        public\n        view\n        returns (uint256[] memory)\n    {\n        return tokenIdsByShareOwner[shareOwner];\n    }\n\n    /**\n     * @dev returns the owners of a token\n     */\n    function getOwnersBYtokenId(uint256 tokenId)\n        public\n        view\n        returns (address[] memory)\n    {\n        return ownersByTokenId[tokenId];\n    }\n\n    /**\n     * @dev returns all ERC1155 tokenIds managed by this contract\n     */\n    function getTokenIds() public view returns (uint256[] memory) {\n        return tokenIds;\n    }\n\n    /**\n     * @dev helper to delete a tokenId from tokenIdsByShareOwner\n     */\n    function deleteIdFromTokenIdsByShareOwner(address owner, uint256 id)\n        private\n    {\n        uint256 nrOfTokensByShareOwner = tokenIdsByShareOwner[owner].length;\n        uint256 tokenIdPositionInShareOwner;\n        for (uint256 i; i < nrOfTokensByShareOwner; i++) {\n            if (id == tokenIdsByShareOwner[owner][i]) {\n                tokenIdPositionInShareOwner = i;\n                break;\n            }\n        }\n        tokenIdsByShareOwner[owner][\n            tokenIdPositionInShareOwner\n        ] = tokenIdsByShareOwner[owner][nrOfTokensByShareOwner - 1];\n        tokenIdsByShareOwner[owner].pop();\n    }\n\n    /**\n     * @dev helper to delete an owner from ownersByTokenId\n     */\n    function deleteOwnerFromOwnersByTokenId(address owner, uint256 id) private {\n        uint256 nrOfOwnersByTokenId = ownersByTokenId[id].length;\n        uint256 ownerPositionInOwners;\n        for (uint256 i; i < nrOfOwnersByTokenId; i++) {\n            if (owner == ownersByTokenId[id][i]) {\n                ownerPositionInOwners = i;\n                break;\n            }\n        }\n        ownersByTokenId[id][ownerPositionInOwners] = ownersByTokenId[id][\n            nrOfOwnersByTokenId - 1\n        ];\n        ownersByTokenId[id].pop();\n    }\n}\n",
  "sourcePath": "/Users/szabolcs/Documents/Personal/Szakmai/Ethereum/nft-fractions-dex/contracts/NftFractionsRepository.sol",
  "compiler": {
    "name": "solc",
    "version": "0.8.0+commit.c7dfd78e.Emscripten.clang"
  },
  "schemaVersion": "3.3.4",
  "updatedAt": "2021-06-07T14:42:47.364Z",
  "networkType": "ethereum",
  "devdoc": {
    "kind": "dev",
    "methods": {
      "balanceOf(address,uint256)": {
        "details": "See {IERC1155-balanceOf}. Requirements: - `account` cannot be the zero address."
      },
      "balanceOfBatch(address[],uint256[])": {
        "details": "See {IERC1155-balanceOfBatch}. Requirements: - `accounts` and `ids` must have the same length."
      },
      "burn(uint256,uint256,address)": {
        "details": "when someone transfers his tokens to the other chain the bridge contract will call this burn function The bridge contract is the owner of NftFractionsRepository. Requirements: - only the owner (the bridge contract) can call - the contract is not paused"
      },
      "depositNft(address,uint256,uint256)": {
        "details": "Deposit an ERC721 token and mints an ERC1155 token with the given fractions amount the original ERC721 token is transferred to the address of this smart contract. Before calling this function the user has to call the apporve function on the original NFT contract and approve this smart contract to transfer his NFT. Requirements: - msg.sender has to own the token that is deposited - the contract is not paused"
      },
      "getOwnersBYtokenId(uint256)": {
        "details": "returns the owners of a token"
      },
      "getTokenData(uint256)": {
        "details": "returns relevant token data: - original ERC721 contract address - original ERC721 token id - amount of fractions minted"
      },
      "getTokenIds()": {
        "details": "returns all ERC1155 tokenIds managed by this contract"
      },
      "getTokenIdsByShareOwner(address)": {
        "details": "returns the ERC1155 tokenIds that the shareOwner has shares in"
      },
      "isApprovedForAll(address,address)": {
        "details": "See {IERC1155-isApprovedForAll}."
      },
      "mint(address,uint256,uint256,uint256,address)": {
        "details": "when someone transfers his tokens from the other chain to this chain the bridge contract will call this mint function Requirements: - only the owner (the bridge contract) can call - the contract is not paused"
      },
      "owner()": {
        "details": "Returns the address of the current owner."
      },
      "paused()": {
        "details": "Returns true if the contract is paused, and false otherwise."
      },
      "renounceOwnership()": {
        "details": "Leaves the contract without owner. It will not be possible to call `onlyOwner` functions anymore. Can only be called by the current owner. NOTE: Renouncing ownership will leave the contract without an owner, thereby removing any functionality that is only available to the owner."
      },
      "safeBatchTransferFrom(address,address,uint256[],uint256[],bytes)": {
        "details": "See {IERC1155-safeBatchTransferFrom}."
      },
      "safeTransferFrom(address,address,uint256,uint256,bytes)": {
        "details": "See {IERC1155-safeTransferFrom}."
      },
      "setApprovalForAll(address,bool)": {
        "details": "See {IERC1155-setApprovalForAll}."
      },
      "supportsInterface(bytes4)": {
        "details": "See {IERC165-supportsInterface}."
      },
      "transferFrom(address,address,uint256,uint256,bytes)": {
        "details": "same as safeTransferFrom in ERC1155 with updating the internal data structures: - updates the ownersByTokenId data structure - updates the tokenIdsByShareOwner data structure"
      },
      "transferOwnership(address)": {
        "details": "Transfers ownership of the contract to a new account (`newOwner`). Can only be called by the current owner."
      },
      "uri(uint256)": {
        "details": "See {IERC1155MetadataURI-uri}. This implementation returns the same URI for *all* token types. It relies on the token type ID substitution mechanism https://eips.ethereum.org/EIPS/eip-1155#metadata[defined in the EIP]. Clients calling this function must replace the `\\{id\\}` substring with the actual token type ID."
      },
      "withdrawNft(uint256)": {
        "details": "Withdraw an ERC721 token from this contract. The message sender has to own all of the shares in the correspondign ERC1155 token. Successfull withdraw means: - burning the ERC1155 token - transfering the ERC721 token to the owner (msg.sender) = owner of all shares in the ERC1155 token Requirements: - msg.sender has to own all shares in the corresponding ERC1155 token - the contract is not paused"
      }
    },
    "version": 1
  },
  "userdoc": {
    "kind": "user",
    "methods": {},
    "version": 1
  }
}