{
  "contractName": "NftFractionsRepository",
  "abi": [
    {
      "anonymous": false,
      "inputs": [
        {
          "indexed": true,
          "internalType": "address",
          "name": "account",
          "type": "address"
        },
        {
          "indexed": true,
          "internalType": "address",
          "name": "operator",
          "type": "address"
        },
        {
          "indexed": false,
          "internalType": "bool",
          "name": "approved",
          "type": "bool"
        }
      ],
      "name": "ApprovalForAll",
      "type": "event"
    },
    {
      "anonymous": false,
      "inputs": [
        {
          "indexed": true,
          "internalType": "address",
          "name": "previousOwner",
          "type": "address"
        },
        {
          "indexed": true,
          "internalType": "address",
          "name": "newOwner",
          "type": "address"
        }
      ],
      "name": "OwnershipTransferred",
      "type": "event"
    },
    {
      "anonymous": false,
      "inputs": [
        {
          "indexed": false,
          "internalType": "address",
          "name": "account",
          "type": "address"
        }
      ],
      "name": "Paused",
      "type": "event"
    },
    {
      "anonymous": false,
      "inputs": [
        {
          "indexed": true,
          "internalType": "address",
          "name": "operator",
          "type": "address"
        },
        {
          "indexed": true,
          "internalType": "address",
          "name": "from",
          "type": "address"
        },
        {
          "indexed": true,
          "internalType": "address",
          "name": "to",
          "type": "address"
        },
        {
          "indexed": false,
          "internalType": "uint256[]",
          "name": "ids",
          "type": "uint256[]"
        },
        {
          "indexed": false,
          "internalType": "uint256[]",
          "name": "values",
          "type": "uint256[]"
        }
      ],
      "name": "TransferBatch",
      "type": "event"
    },
    {
      "anonymous": false,
      "inputs": [
        {
          "indexed": true,
          "internalType": "address",
          "name": "operator",
          "type": "address"
        },
        {
          "indexed": true,
          "internalType": "address",
          "name": "from",
          "type": "address"
        },
        {
          "indexed": true,
          "internalType": "address",
          "name": "to",
          "type": "address"
        },
        {
          "indexed": false,
          "internalType": "uint256",
          "name": "id",
          "type": "uint256"
        },
        {
          "indexed": false,
          "internalType": "uint256",
          "name": "value",
          "type": "uint256"
        }
      ],
      "name": "TransferSingle",
      "type": "event"
    },
    {
      "anonymous": false,
      "inputs": [
        {
          "indexed": false,
          "internalType": "string",
          "name": "value",
          "type": "string"
        },
        {
          "indexed": true,
          "internalType": "uint256",
          "name": "id",
          "type": "uint256"
        }
      ],
      "name": "URI",
      "type": "event"
    },
    {
      "anonymous": false,
      "inputs": [
        {
          "indexed": false,
          "internalType": "address",
          "name": "account",
          "type": "address"
        }
      ],
      "name": "Unpaused",
      "type": "event"
    },
    {
      "inputs": [
        {
          "internalType": "address",
          "name": "account",
          "type": "address"
        },
        {
          "internalType": "uint256",
          "name": "id",
          "type": "uint256"
        }
      ],
      "name": "balanceOf",
      "outputs": [
        {
          "internalType": "uint256",
          "name": "",
          "type": "uint256"
        }
      ],
      "stateMutability": "view",
      "type": "function",
      "constant": true
    },
    {
      "inputs": [
        {
          "internalType": "address[]",
          "name": "accounts",
          "type": "address[]"
        },
        {
          "internalType": "uint256[]",
          "name": "ids",
          "type": "uint256[]"
        }
      ],
      "name": "balanceOfBatch",
      "outputs": [
        {
          "internalType": "uint256[]",
          "name": "",
          "type": "uint256[]"
        }
      ],
      "stateMutability": "view",
      "type": "function",
      "constant": true
    },
    {
      "inputs": [
        {
          "internalType": "address",
          "name": "account",
          "type": "address"
        },
        {
          "internalType": "address",
          "name": "operator",
          "type": "address"
        }
      ],
      "name": "isApprovedForAll",
      "outputs": [
        {
          "internalType": "bool",
          "name": "",
          "type": "bool"
        }
      ],
      "stateMutability": "view",
      "type": "function",
      "constant": true
    },
    {
      "inputs": [],
      "name": "owner",
      "outputs": [
        {
          "internalType": "address",
          "name": "",
          "type": "address"
        }
      ],
      "stateMutability": "view",
      "type": "function",
      "constant": true
    },
    {
      "inputs": [],
      "name": "paused",
      "outputs": [
        {
          "internalType": "bool",
          "name": "",
          "type": "bool"
        }
      ],
      "stateMutability": "view",
      "type": "function",
      "constant": true
    },
    {
      "inputs": [],
      "name": "renounceOwnership",
      "outputs": [],
      "stateMutability": "nonpayable",
      "type": "function"
    },
    {
      "inputs": [
        {
          "internalType": "address",
          "name": "from",
          "type": "address"
        },
        {
          "internalType": "address",
          "name": "to",
          "type": "address"
        },
        {
          "internalType": "uint256[]",
          "name": "ids",
          "type": "uint256[]"
        },
        {
          "internalType": "uint256[]",
          "name": "amounts",
          "type": "uint256[]"
        },
        {
          "internalType": "bytes",
          "name": "data",
          "type": "bytes"
        }
      ],
      "name": "safeBatchTransferFrom",
      "outputs": [],
      "stateMutability": "nonpayable",
      "type": "function"
    },
    {
      "inputs": [
        {
          "internalType": "address",
          "name": "from",
          "type": "address"
        },
        {
          "internalType": "address",
          "name": "to",
          "type": "address"
        },
        {
          "internalType": "uint256",
          "name": "id",
          "type": "uint256"
        },
        {
          "internalType": "uint256",
          "name": "amount",
          "type": "uint256"
        },
        {
          "internalType": "bytes",
          "name": "data",
          "type": "bytes"
        }
      ],
      "name": "safeTransferFrom",
      "outputs": [],
      "stateMutability": "nonpayable",
      "type": "function"
    },
    {
      "inputs": [
        {
          "internalType": "address",
          "name": "operator",
          "type": "address"
        },
        {
          "internalType": "bool",
          "name": "approved",
          "type": "bool"
        }
      ],
      "name": "setApprovalForAll",
      "outputs": [],
      "stateMutability": "nonpayable",
      "type": "function"
    },
    {
      "inputs": [
        {
          "internalType": "bytes4",
          "name": "interfaceId",
          "type": "bytes4"
        }
      ],
      "name": "supportsInterface",
      "outputs": [
        {
          "internalType": "bool",
          "name": "",
          "type": "bool"
        }
      ],
      "stateMutability": "view",
      "type": "function",
      "constant": true
    },
    {
      "inputs": [
        {
          "internalType": "address",
          "name": "newOwner",
          "type": "address"
        }
      ],
      "name": "transferOwnership",
      "outputs": [],
      "stateMutability": "nonpayable",
      "type": "function"
    },
    {
      "inputs": [
        {
          "internalType": "uint256",
          "name": "",
          "type": "uint256"
        }
      ],
      "name": "uri",
      "outputs": [
        {
          "internalType": "string",
          "name": "",
          "type": "string"
        }
      ],
      "stateMutability": "view",
      "type": "function",
      "constant": true
    },
    {
      "inputs": [
        {
          "internalType": "string",
          "name": "uri_",
          "type": "string"
        }
      ],
      "name": "initialize",
      "outputs": [],
      "stateMutability": "nonpayable",
      "type": "function"
    },
    {
      "inputs": [
        {
          "internalType": "address",
          "name": "erc721ContractAddress",
          "type": "address"
        },
        {
          "internalType": "uint256",
          "name": "erc721TokenId",
          "type": "uint256"
        },
        {
          "internalType": "uint256",
          "name": "fractionsAmountToMint",
          "type": "uint256"
        }
      ],
      "name": "depositNft",
      "outputs": [],
      "stateMutability": "nonpayable",
      "type": "function"
    },
    {
      "inputs": [
        {
          "internalType": "uint256",
          "name": "tokenId",
          "type": "uint256"
        }
      ],
      "name": "withdrawNft",
      "outputs": [],
      "stateMutability": "nonpayable",
      "type": "function"
    },
    {
      "inputs": [
        {
          "internalType": "uint256",
          "name": "tokenId",
          "type": "uint256"
        },
        {
          "internalType": "uint256",
          "name": "amount",
          "type": "uint256"
        },
        {
          "internalType": "address",
          "name": "transferer",
          "type": "address"
        }
      ],
      "name": "burn",
      "outputs": [],
      "stateMutability": "nonpayable",
      "type": "function"
    },
    {
      "inputs": [
        {
          "internalType": "address",
          "name": "erc721ContractAddress",
          "type": "address"
        },
        {
          "internalType": "uint256",
          "name": "erc721TokenId",
          "type": "uint256"
        },
        {
          "internalType": "uint256",
          "name": "erc1155TokenId",
          "type": "uint256"
        },
        {
          "internalType": "uint256",
          "name": "erc1155Amount",
          "type": "uint256"
        },
        {
          "internalType": "uint256",
          "name": "totalFractionsAmount",
          "type": "uint256"
        },
        {
          "internalType": "address",
          "name": "transferer",
          "type": "address"
        },
        {
          "internalType": "string",
          "name": "tokenURI",
          "type": "string"
        }
      ],
      "name": "mint",
      "outputs": [],
      "stateMutability": "nonpayable",
      "type": "function"
    },
    {
      "inputs": [
        {
          "internalType": "address",
          "name": "from",
          "type": "address"
        },
        {
          "internalType": "address",
          "name": "to",
          "type": "address"
        },
        {
          "internalType": "uint256",
          "name": "id",
          "type": "uint256"
        },
        {
          "internalType": "uint256",
          "name": "amount",
          "type": "uint256"
        },
        {
          "internalType": "bytes",
          "name": "data",
          "type": "bytes"
        }
      ],
      "name": "transferFrom",
      "outputs": [],
      "stateMutability": "nonpayable",
      "type": "function"
    },
    {
      "inputs": [
        {
          "internalType": "uint256",
          "name": "_tokenId",
          "type": "uint256"
        }
      ],
      "name": "getTokenData",
      "outputs": [
        {
          "internalType": "address",
          "name": "erc721ContractAddress",
          "type": "address"
        },
        {
          "internalType": "uint256",
          "name": "erc721TokenId",
          "type": "uint256"
        },
        {
          "internalType": "uint256",
          "name": "totalFractionsAmount",
          "type": "uint256"
        },
        {
          "internalType": "string",
          "name": "tokenURI",
          "type": "string"
        }
      ],
      "stateMutability": "view",
      "type": "function",
      "constant": true
    },
    {
      "inputs": [
        {
          "internalType": "uint256",
          "name": "_tokenId",
          "type": "uint256"
        }
      ],
      "name": "getTotalFractionsAmount",
      "outputs": [
        {
          "internalType": "uint256",
          "name": "",
          "type": "uint256"
        }
      ],
      "stateMutability": "view",
      "type": "function",
      "constant": true
    },
    {
      "inputs": [
        {
          "internalType": "uint256",
          "name": "_tokenId",
          "type": "uint256"
        }
      ],
      "name": "getErc721ContractAddress",
      "outputs": [
        {
          "internalType": "address",
          "name": "",
          "type": "address"
        }
      ],
      "stateMutability": "view",
      "type": "function",
      "constant": true
    },
    {
      "inputs": [],
      "name": "pause",
      "outputs": [],
      "stateMutability": "nonpayable",
      "type": "function"
    },
    {
      "inputs": [
        {
          "internalType": "address",
          "name": "shareOwner",
          "type": "address"
        }
      ],
      "name": "getTokenIdsByShareOwner",
      "outputs": [
        {
          "internalType": "uint256[]",
          "name": "",
          "type": "uint256[]"
        }
      ],
      "stateMutability": "view",
      "type": "function",
      "constant": true
    },
    {
      "inputs": [
        {
          "internalType": "uint256",
          "name": "tokenId",
          "type": "uint256"
        }
      ],
      "name": "getOwnersBYtokenId",
      "outputs": [
        {
          "internalType": "address[]",
          "name": "",
          "type": "address[]"
        }
      ],
      "stateMutability": "view",
      "type": "function",
      "constant": true
    },
    {
      "inputs": [],
      "name": "getTokenIds",
      "outputs": [
        {
          "internalType": "uint256[]",
          "name": "",
          "type": "uint256[]"
        }
      ],
      "stateMutability": "view",
      "type": "function",
      "constant": true
    }
  ],
  "bytecode": "0x608060405234801561001057600080fd5b50615fc880620000216000396000f3fe608060405234801561001057600080fd5b50600436106101725760003560e01c8063715018a6116100de578063a22cb46511610097578063e985e9c511610071578063e985e9c51461045c578063f242432a1461048c578063f2fde38b146104a8578063f62d1888146104c457610172565b8063a22cb465146103f1578063b09afec11461040d578063e09a3cb41461044057610172565b8063715018a61461036b578063749388c4146103755780638456cb59146103915780638da5cb5b1461039b578063910efae8146103b9578063971a5847146103d557610172565b806333d592071161013057806333d59207146102835780634e1273f4146102b35780635c975abb146102e3578063605105f01461030157806366d0330c1461031d57806367f718a91461034d57610172565b8062fdd58e1461017757806301ffc9a7146101a75780630e89341c146101d7578063180e1ef8146102075780632eb2c2d61461023757806333ae11ae14610253575b600080fd5b610191600480360381019061018c91906148fd565b6104e0565b60405161019e9190615a43565b60405180910390f35b6101c160048036038101906101bc9190614aaa565b6105aa565b6040516101ce9190615766565b60405180910390f35b6101f160048036038101906101ec9190614b7e565b61068c565b6040516101fe9190615781565b60405180910390f35b610221600480360381019061021c91906146e5565b610720565b60405161022e919061570d565b60405180910390f35b610251600480360381019061024c9190614773565b6107b7565b005b61026d60048036038101906102689190614b7e565b610bb0565b60405161027a91906156eb565b60405180910390f35b61029d60048036038101906102989190614b7e565b610c51565b6040516102aa9190615a43565b60405180910390f35b6102cd60048036038101906102c89190614a3e565b610c71565b6040516102da919061570d565b60405180910390f35b6102eb610e22565b6040516102f89190615766565b60405180910390f35b61031b60048036038101906103169190614832565b610e39565b005b61033760048036038101906103329190614b7e565b61122a565b604051610344919061558b565b60405180910390f35b61035561126a565b604051610362919061570d565b60405180910390f35b6103736112c2565b005b61038f600480360381019061038a9190614ba7565b6113ff565b005b610399611726565b005b6103a36117ac565b6040516103b0919061558b565b60405180910390f35b6103d360048036038101906103ce9190614b7e565b6117d6565b005b6103ef60048036038101906103ea9190614988565b611b53565b005b61040b600480360381019061040691906148c1565b612197565b005b61042760048036038101906104229190614b7e565b612318565b604051610437949392919061569f565b60405180910390f35b61045a60048036038101906104559190614939565b612435565b005b61047660048036038101906104719190614737565b6128a4565b6040516104839190615766565b60405180910390f35b6104a660048036038101906104a19190614832565b612938565b005b6104c260048036038101906104bd91906146e5565b612c53565b005b6104de60048036038101906104d99190614afc565b612dff565b005b60008073ffffffffffffffffffffffffffffffffffffffff168373ffffffffffffffffffffffffffffffffffffffff161415610551576040517f08c379a000000000000000000000000000000000000000000000000000000000815260040161054890615823565b60405180910390fd5b6065600083815260200190815260200160002060008473ffffffffffffffffffffffffffffffffffffffff1673ffffffffffffffffffffffffffffffffffffffff16815260200190815260200160002054905092915050565b60007fd9b67a26000000000000000000000000000000000000000000000000000000007bffffffffffffffffffffffffffffffffffffffffffffffffffffffff1916827bffffffffffffffffffffffffffffffffffffffffffffffffffffffff1916148061067557507f0e89341c000000000000000000000000000000000000000000000000000000007bffffffffffffffffffffffffffffffffffffffffffffffffffffffff1916827bffffffffffffffffffffffffffffffffffffffffffffffffffffffff1916145b80610685575061068482612f02565b5b9050919050565b60606067805461069b90615d5a565b80601f01602080910402602001604051908101604052809291908181526020018280546106c790615d5a565b80156107145780601f106106e957610100808354040283529160200191610714565b820191906000526020600020905b8154815290600101906020018083116106f757829003601f168201915b50505050509050919050565b606060fd60008373ffffffffffffffffffffffffffffffffffffffff1673ffffffffffffffffffffffffffffffffffffffff1681526020019081526020016000208054806020026020016040519081016040528092919081815260200182805480156107ab57602002820191906000526020600020905b815481526020019060010190808311610797575b50505050509050919050565b81518351146107fb576040517f08c379a00000000000000000000000000000000000000000000000000000000081526004016107f2906159e3565b60405180910390fd5b600073ffffffffffffffffffffffffffffffffffffffff168473ffffffffffffffffffffffffffffffffffffffff16141561086b576040517f08c379a0000000000000000000000000000000000000000000000000000000008152600401610862906158e3565b60405180910390fd5b610873612f6c565b73ffffffffffffffffffffffffffffffffffffffff168573ffffffffffffffffffffffffffffffffffffffff1614806108b957506108b8856108b3612f6c565b6128a4565b5b6108f8576040517f08c379a00000000000000000000000000000000000000000000000000000000081526004016108ef90615903565b60405180910390fd5b6000610902612f6c565b9050610912818787878787612f74565b60005b8451811015610b1b576000858281518110610959577f4e487b7100000000000000000000000000000000000000000000000000000000600052603260045260246000fd5b60200260200101519050600085838151811061099e577f4e487b7100000000000000000000000000000000000000000000000000000000600052603260045260246000fd5b6020026020010151905060006065600084815260200190815260200160002060008b73ffffffffffffffffffffffffffffffffffffffff1673ffffffffffffffffffffffffffffffffffffffff16815260200190815260200160002054905081811015610a40576040517f08c379a0000000000000000000000000000000000000000000000000000000008152600401610a3790615963565b60405180910390fd5b8181610a4c9190615c70565b6065600085815260200190815260200160002060008c73ffffffffffffffffffffffffffffffffffffffff1673ffffffffffffffffffffffffffffffffffffffff16815260200190815260200160002081905550816065600085815260200190815260200160002060008b73ffffffffffffffffffffffffffffffffffffffff1673ffffffffffffffffffffffffffffffffffffffff1681526020019081526020016000206000828254610b009190615c1a565b9250508190555050505080610b1490615d8c565b9050610915565b508473ffffffffffffffffffffffffffffffffffffffff168673ffffffffffffffffffffffffffffffffffffffff168273ffffffffffffffffffffffffffffffffffffffff167f4a39dc06d4c0dbc64b70af90fd698a233a518aa5d07e595d983b8c0526c8f7fb8787604051610b9292919061572f565b60405180910390a4610ba8818787878787612f7c565b505050505050565b606060fe6000838152602001908152602001600020805480602002602001604051908101604052809291908181526020018280548015610c4557602002820191906000526020600020905b8160009054906101000a900473ffffffffffffffffffffffffffffffffffffffff1673ffffffffffffffffffffffffffffffffffffffff1681526020019060010190808311610bfb575b50505050509050919050565b600060fc6000838152602001908152602001600020600201549050919050565b60608151835114610cb7576040517f08c379a0000000000000000000000000000000000000000000000000000000008152600401610cae906159c3565b60405180910390fd5b6000835167ffffffffffffffff811115610cfa577f4e487b7100000000000000000000000000000000000000000000000000000000600052604160045260246000fd5b604051908082528060200260200182016040528015610d285781602001602082028036833780820191505090505b50905060005b8451811015610e1757610dc1858281518110610d73577f4e487b7100000000000000000000000000000000000000000000000000000000600052603260045260246000fd5b6020026020010151858381518110610db4577f4e487b7100000000000000000000000000000000000000000000000000000000600052603260045260246000fd5b60200260200101516104e0565b828281518110610dfa577f4e487b7100000000000000000000000000000000000000000000000000000000600052603260045260246000fd5b60200260200101818152505080610e1090615d8c565b9050610d2e565b508091505092915050565b6000609760009054906101000a900460ff16905090565b610e41610e22565b15610e81576040517f08c379a0000000000000000000000000000000000000000000000000000000008152600401610e7890615a23565b60405180910390fd5b6000610e8d86856104e0565b90506000610e9b86866104e0565b9050610eaa8787878787612938565b81841061113d57600060fe60008781526020019081526020016000208054905090506000805b82811015610f9c5760fe60008981526020019081526020016000208181548110610f23577f4e487b7100000000000000000000000000000000000000000000000000000000600052603260045260246000fd5b9060005260206000200160009054906101000a900473ffffffffffffffffffffffffffffffffffffffff1673ffffffffffffffffffffffffffffffffffffffff168a73ffffffffffffffffffffffffffffffffffffffff161415610f8957809150610f9c565b8080610f9490615d8c565b915050610ed0565b5060fe6000888152602001908152602001600020600183610fbd9190615c70565b81548110610ff4577f4e487b7100000000000000000000000000000000000000000000000000000000600052603260045260246000fd5b9060005260206000200160009054906101000a900473ffffffffffffffffffffffffffffffffffffffff1660fe6000898152602001908152602001600020828154811061106a577f4e487b7100000000000000000000000000000000000000000000000000000000600052603260045260246000fd5b9060005260206000200160006101000a81548173ffffffffffffffffffffffffffffffffffffffff021916908373ffffffffffffffffffffffffffffffffffffffff16021790555060fe60008881526020019081526020016000208054806110fb577f4e487b7100000000000000000000000000000000000000000000000000000000600052603160045260246000fd5b6001900381819060005260206000200160006101000a81549073ffffffffffffffffffffffffffffffffffffffff0219169055905561113a898861314c565b50505b60008114156112215760fe6000868152602001908152602001600020869080600181540180825580915050600190039060005260206000200160009091909190916101000a81548173ffffffffffffffffffffffffffffffffffffffff021916908373ffffffffffffffffffffffffffffffffffffffff16021790555060fd60008773ffffffffffffffffffffffffffffffffffffffff1673ffffffffffffffffffffffffffffffffffffffff1681526020019081526020016000208590806001815401808255809150506001900390600052602060002001600090919091909150555b50505050505050565b600060fc600083815260200190815260200160002060000160009054906101000a900473ffffffffffffffffffffffffffffffffffffffff169050919050565b606060ff8054806020026020016040519081016040528092919081815260200182805480156112b857602002820191906000526020600020905b8154815260200190600101908083116112a4575b5050505050905090565b6112ca612f6c565b73ffffffffffffffffffffffffffffffffffffffff166112e86117ac565b73ffffffffffffffffffffffffffffffffffffffff161461133e576040517f08c379a000000000000000000000000000000000000000000000000000000000815260040161133590615983565b60405180910390fd5b600073ffffffffffffffffffffffffffffffffffffffff1660c960009054906101000a900473ffffffffffffffffffffffffffffffffffffffff1673ffffffffffffffffffffffffffffffffffffffff167f8be0079c531659141344cd1fd0a4f28419497f9722a3daafe3b4186f6b6457e060405160405180910390a3600060c960006101000a81548173ffffffffffffffffffffffffffffffffffffffff021916908373ffffffffffffffffffffffffffffffffffffffff160217905550565b611407612f6c565b73ffffffffffffffffffffffffffffffffffffffff166114256117ac565b73ffffffffffffffffffffffffffffffffffffffff161461147b576040517f08c379a000000000000000000000000000000000000000000000000000000000815260040161147290615983565b60405180910390fd5b611483610e22565b156114c3576040517f08c379a00000000000000000000000000000000000000000000000000000000081526004016114ba90615a23565b60405180910390fd5b60006114cf82856104e0565b905082811015611514576040517f08c379a000000000000000000000000000000000000000000000000000000000815260040161150b906158c3565b60405180910390fd5b61151f8285856133e8565b8281141561172057611531828561314c565b61153b8285613610565b600060fe600086815260200190815260200160002080549050141561171f57600060ff8054905090506000805b828110156115d75760ff81815481106115aa577f4e487b7100000000000000000000000000000000000000000000000000000000600052603260045260246000fd5b90600052602060002001548714156115c4578091506115d7565b80806115cf90615d8c565b915050611568565b5060ff6001836115e79190615c70565b8154811061161e577f4e487b7100000000000000000000000000000000000000000000000000000000600052603260045260246000fd5b906000526020600020015460ff8281548110611663577f4e487b7100000000000000000000000000000000000000000000000000000000600052603260045260246000fd5b906000526020600020018190555060ff8054806116a9577f4e487b7100000000000000000000000000000000000000000000000000000000600052603160045260246000fd5b6001900381819060005260206000200160009055905560fc6000878152602001908152602001600020600080820160006101000a81549073ffffffffffffffffffffffffffffffffffffffff02191690556001820160009055600282016000905560038201600061171a91906142c1565b505050505b5b50505050565b61172e612f6c565b73ffffffffffffffffffffffffffffffffffffffff1661174c6117ac565b73ffffffffffffffffffffffffffffffffffffffff16146117a2576040517f08c379a000000000000000000000000000000000000000000000000000000000815260040161179990615983565b60405180910390fd5b6117aa613895565b565b600060c960009054906101000a900473ffffffffffffffffffffffffffffffffffffffff16905090565b6117de610e22565b1561181e576040517f08c379a000000000000000000000000000000000000000000000000000000000815260040161181590615a23565b60405180910390fd5b600060fc6000838152602001908152602001600020600201549050600061184533846104e0565b9050808214611889576040517f08c379a0000000000000000000000000000000000000000000000000000000008152600401611880906157e3565b60405180910390fd5b600060fc600085815260200190815260200160002060000160009054906101000a900473ffffffffffffffffffffffffffffffffffffffff169050600060fc600086815260200190815260200160002060010154905060008290508073ffffffffffffffffffffffffffffffffffffffff166323b872dd3033856040518463ffffffff1660e01b81526004016119219392919061560e565b600060405180830381600087803b15801561193b57600080fd5b505af115801561194f573d6000803e3d6000fd5b5050505061195e3387876133e8565b611968338761314c565b600060ff8054905090506000805b828110156119e55760ff81815481106119b8577f4e487b7100000000000000000000000000000000000000000000000000000000600052603260045260246000fd5b90600052602060002001548914156119d2578091506119e5565b80806119dd90615d8c565b915050611976565b5060ff6001836119f59190615c70565b81548110611a2c577f4e487b7100000000000000000000000000000000000000000000000000000000600052603260045260246000fd5b906000526020600020015460ff8281548110611a71577f4e487b7100000000000000000000000000000000000000000000000000000000600052603260045260246000fd5b906000526020600020018190555060ff805480611ab7577f4e487b7100000000000000000000000000000000000000000000000000000000600052603160045260246000fd5b6001900381819060005260206000200160009055905560fe60008981526020019081526020016000206000611aec9190614301565b60fc6000898152602001908152602001600020600080820160006101000a81549073ffffffffffffffffffffffffffffffffffffffff021916905560018201600090556002820160009055600382016000611b4791906142c1565b50505050505050505050565b611b5b612f6c565b73ffffffffffffffffffffffffffffffffffffffff16611b796117ac565b73ffffffffffffffffffffffffffffffffffffffff1614611bcf576040517f08c379a0000000000000000000000000000000000000000000000000000000008152600401611bc690615983565b60405180910390fd5b611bd7610e22565b15611c17576040517f08c379a0000000000000000000000000000000000000000000000000000000008152600401611c0e90615a23565b60405180910390fd5b611c3282868660405180602001604052806000815250613938565b600073ffffffffffffffffffffffffffffffffffffffff1660fc600087815260200190815260200160002060000160009054906101000a900473ffffffffffffffffffffffffffffffffffffffff1673ffffffffffffffffffffffffffffffffffffffff161415611db457611ca5614322565b87816000019073ffffffffffffffffffffffffffffffffffffffff16908173ffffffffffffffffffffffffffffffffffffffff168152505086816020018181525050838160400181815250508181606001819052508060fc600088815260200190815260200160002060008201518160000160006101000a81548173ffffffffffffffffffffffffffffffffffffffff021916908373ffffffffffffffffffffffffffffffffffffffff16021790555060208201518160010155604082015181600201556060820151816003019080519060200190611d85929190614360565b5090505060ff869080600181540180825580915050600190039060005260206000200160009091909190915055505b600060fd60008473ffffffffffffffffffffffffffffffffffffffff1673ffffffffffffffffffffffffffffffffffffffff1681526020019081526020016000208054905090506000811415611e6f5760fd60008473ffffffffffffffffffffffffffffffffffffffff1673ffffffffffffffffffffffffffffffffffffffff168152602001908152602001600020869080600181540180825580915050600190039060005260206000200160009091909190915055611f98565b60005b81811015611f965760fd60008573ffffffffffffffffffffffffffffffffffffffff1673ffffffffffffffffffffffffffffffffffffffff1681526020019081526020016000208181548110611ef1577f4e487b7100000000000000000000000000000000000000000000000000000000600052603260045260246000fd5b9060005260206000200154871415611f0857611f96565b600182611f159190615c70565b811415611f835760fd60008573ffffffffffffffffffffffffffffffffffffffff1673ffffffffffffffffffffffffffffffffffffffff1681526020019081526020016000208790806001815401808255809150506001900390600052602060002001600090919091909150555b8080611f8e90615d8c565b915050611e72565b505b600060fe600088815260200190815260200160002080549050905060008114156120355760fe6000888152602001908152602001600020849080600181540180825580915050600190039060005260206000200160009091909190916101000a81548173ffffffffffffffffffffffffffffffffffffffff021916908373ffffffffffffffffffffffffffffffffffffffff16021790555061218c565b60005b8181101561218a5760fe6000898152602001908152602001600020818154811061208b577f4e487b7100000000000000000000000000000000000000000000000000000000600052603260045260246000fd5b9060005260206000200160009054906101000a900473ffffffffffffffffffffffffffffffffffffffff1673ffffffffffffffffffffffffffffffffffffffff168573ffffffffffffffffffffffffffffffffffffffff1614156120ee5761218a565b6001826120fb9190615c70565b8114156121775760fe6000898152602001908152602001600020859080600181540180825580915050600190039060005260206000200160009091909190916101000a81548173ffffffffffffffffffffffffffffffffffffffff021916908373ffffffffffffffffffffffffffffffffffffffff1602179055505b808061218290615d8c565b915050612038565b505b505050505050505050565b8173ffffffffffffffffffffffffffffffffffffffff166121b6612f6c565b73ffffffffffffffffffffffffffffffffffffffff16141561220d576040517f08c379a0000000000000000000000000000000000000000000000000000000008152600401612204906159a3565b60405180910390fd5b806066600061221a612f6c565b73ffffffffffffffffffffffffffffffffffffffff1673ffffffffffffffffffffffffffffffffffffffff16815260200190815260200160002060008473ffffffffffffffffffffffffffffffffffffffff1673ffffffffffffffffffffffffffffffffffffffff16815260200190815260200160002060006101000a81548160ff0219169083151502179055508173ffffffffffffffffffffffffffffffffffffffff166122c7612f6c565b73ffffffffffffffffffffffffffffffffffffffff167f17307eab39ab6107e8899845ad3d59bd9653f200f220920489ca2b5937696c318360405161230c9190615766565b60405180910390a35050565b6000806000606060fc600086815260200190815260200160002060000160009054906101000a900473ffffffffffffffffffffffffffffffffffffffff1660fc60008781526020019081526020016000206001015460fc60008881526020019081526020016000206002015460fc60008981526020019081526020016000206003018080546123a690615d5a565b80601f01602080910402602001604051908101604052809291908181526020018280546123d290615d5a565b801561241f5780601f106123f45761010080835404028352916020019161241f565b820191906000526020600020905b81548152906001019060200180831161240257829003601f168201915b5050505050905093509350935093509193509193565b61243d610e22565b1561247d576040517f08c379a000000000000000000000000000000000000000000000000000000000815260040161247490615a23565b60405180910390fd5b60008390503373ffffffffffffffffffffffffffffffffffffffff168173ffffffffffffffffffffffffffffffffffffffff16636352211e856040518263ffffffff1660e01b81526004016124d29190615a43565b60206040518083038186803b1580156124ea57600080fd5b505afa1580156124fe573d6000803e3d6000fd5b505050506040513d601f19601f82011682018060405250810190612522919061470e565b73ffffffffffffffffffffffffffffffffffffffff1614612578576040517f08c379a000000000000000000000000000000000000000000000000000000000815260040161256f90615803565b60405180910390fd5b8073ffffffffffffffffffffffffffffffffffffffff166323b872dd3330866040518463ffffffff1660e01b81526004016125b59392919061560e565b600060405180830381600087803b1580156125cf57600080fd5b505af11580156125e3573d6000803e3d6000fd5b505050506125f160fb613acf565b60006125fd60fb613ae5565b905061261a33828560405180602001604052806000815250613938565b60608273ffffffffffffffffffffffffffffffffffffffff1663c87b56dd866040518263ffffffff1660e01b81526004016126559190615a43565b60006040518083038186803b15801561266d57600080fd5b505afa158015612681573d6000803e3d6000fd5b505050506040513d6000823e3d601f19601f820116820180604052508101906126aa9190614b3d565b90506126b4614322565b86816000019073ffffffffffffffffffffffffffffffffffffffff16908173ffffffffffffffffffffffffffffffffffffffff168152505085816020018181525050848160400181815250508181606001819052508060fc600085815260200190815260200160002060008201518160000160006101000a81548173ffffffffffffffffffffffffffffffffffffffff021916908373ffffffffffffffffffffffffffffffffffffffff16021790555060208201518160010155604082015181600201556060820151816003019080519060200190612794929190614360565b5090505060fd60003373ffffffffffffffffffffffffffffffffffffffff1673ffffffffffffffffffffffffffffffffffffffff16815260200190815260200160002083908060018154018082558091505060019003906000526020600020016000909190919091505560fe6000848152602001908152602001600020339080600181540180825580915050600190039060005260206000200160009091909190916101000a81548173ffffffffffffffffffffffffffffffffffffffff021916908373ffffffffffffffffffffffffffffffffffffffff16021790555060ff83908060018154018082558091505060019003906000526020600020016000909190919091505550505050505050565b6000606660008473ffffffffffffffffffffffffffffffffffffffff1673ffffffffffffffffffffffffffffffffffffffff16815260200190815260200160002060008373ffffffffffffffffffffffffffffffffffffffff1673ffffffffffffffffffffffffffffffffffffffff16815260200190815260200160002060009054906101000a900460ff16905092915050565b600073ffffffffffffffffffffffffffffffffffffffff168473ffffffffffffffffffffffffffffffffffffffff1614156129a8576040517f08c379a000000000000000000000000000000000000000000000000000000000815260040161299f906158e3565b60405180910390fd5b6129b0612f6c565b73ffffffffffffffffffffffffffffffffffffffff168573ffffffffffffffffffffffffffffffffffffffff1614806129f657506129f5856129f0612f6c565b6128a4565b5b612a35576040517f08c379a0000000000000000000000000000000000000000000000000000000008152600401612a2c90615883565b60405180910390fd5b6000612a3f612f6c565b9050612a5f818787612a5088613af3565b612a5988613af3565b87612f74565b60006065600086815260200190815260200160002060008873ffffffffffffffffffffffffffffffffffffffff1673ffffffffffffffffffffffffffffffffffffffff16815260200190815260200160002054905083811015612af7576040517f08c379a0000000000000000000000000000000000000000000000000000000008152600401612aee90615963565b60405180910390fd5b8381612b039190615c70565b6065600087815260200190815260200160002060008973ffffffffffffffffffffffffffffffffffffffff1673ffffffffffffffffffffffffffffffffffffffff16815260200190815260200160002081905550836065600087815260200190815260200160002060008873ffffffffffffffffffffffffffffffffffffffff1673ffffffffffffffffffffffffffffffffffffffff1681526020019081526020016000206000828254612bb79190615c1a565b925050819055508573ffffffffffffffffffffffffffffffffffffffff168773ffffffffffffffffffffffffffffffffffffffff168373ffffffffffffffffffffffffffffffffffffffff167fc3d58168c5ae7397731d063d5bbf3d657854427343f4c083240f7aacaa2d0f628888604051612c34929190615a5e565b60405180910390a4612c4a828888888888613bb9565b50505050505050565b612c5b612f6c565b73ffffffffffffffffffffffffffffffffffffffff16612c796117ac565b73ffffffffffffffffffffffffffffffffffffffff1614612ccf576040517f08c379a0000000000000000000000000000000000000000000000000000000008152600401612cc690615983565b60405180910390fd5b600073ffffffffffffffffffffffffffffffffffffffff168173ffffffffffffffffffffffffffffffffffffffff161415612d3f576040517f08c379a0000000000000000000000000000000000000000000000000000000008152600401612d3690615843565b60405180910390fd5b8073ffffffffffffffffffffffffffffffffffffffff1660c960009054906101000a900473ffffffffffffffffffffffffffffffffffffffff1673ffffffffffffffffffffffffffffffffffffffff167f8be0079c531659141344cd1fd0a4f28419497f9722a3daafe3b4186f6b6457e060405160405180910390a38060c960006101000a81548173ffffffffffffffffffffffffffffffffffffffff021916908373ffffffffffffffffffffffffffffffffffffffff16021790555050565b600060019054906101000a900460ff1680612e25575060008054906101000a900460ff16155b612e64576040517f08c379a0000000000000000000000000000000000000000000000000000000008152600401612e5b90615923565b60405180910390fd5b60008060019054906101000a900460ff161590508015612eb4576001600060016101000a81548160ff02191690831515021790555060016000806101000a81548160ff0219169083151502179055505b612ebc613d89565b612ec4613e62565b612ecc613f3b565b612ed58261402f565b612edd614112565b8015612efe5760008060016101000a81548160ff0219169083151502179055505b5050565b60007f01ffc9a7000000000000000000000000000000000000000000000000000000007bffffffffffffffffffffffffffffffffffffffffffffffffffffffff1916827bffffffffffffffffffffffffffffffffffffffffffffffffffffffff1916149050919050565b600033905090565b505050505050565b612f9b8473ffffffffffffffffffffffffffffffffffffffff16614294565b15613144578373ffffffffffffffffffffffffffffffffffffffff1663bc197c8187878686866040518663ffffffff1660e01b8152600401612fe19594939291906155a6565b602060405180830381600087803b158015612ffb57600080fd5b505af192505050801561302c57506040513d601f19601f820116820180604052508101906130299190614ad3565b60015b6130bb57613038615e80565b806130435750613080565b806040517f08c379a00000000000000000000000000000000000000000000000000000000081526004016130779190615781565b60405180910390fd5b6040517f08c379a00000000000000000000000000000000000000000000000000000000081526004016130b2906157a3565b60405180910390fd5b63bc197c8160e01b7bffffffffffffffffffffffffffffffffffffffffffffffffffffffff1916817bffffffffffffffffffffffffffffffffffffffffffffffffffffffff191614613142576040517f08c379a0000000000000000000000000000000000000000000000000000000008152600401613139906157c3565b60405180910390fd5b505b505050505050565b600060fd60008473ffffffffffffffffffffffffffffffffffffffff1673ffffffffffffffffffffffffffffffffffffffff1681526020019081526020016000208054905090506000805b828110156132435760fd60008673ffffffffffffffffffffffffffffffffffffffff1673ffffffffffffffffffffffffffffffffffffffff1681526020019081526020016000208181548110613216577f4e487b7100000000000000000000000000000000000000000000000000000000600052603260045260246000fd5b906000526020600020015484141561323057809150613243565b808061323b90615d8c565b915050613197565b5060fd60008573ffffffffffffffffffffffffffffffffffffffff1673ffffffffffffffffffffffffffffffffffffffff1681526020019081526020016000206001836132909190615c70565b815481106132c7577f4e487b7100000000000000000000000000000000000000000000000000000000600052603260045260246000fd5b906000526020600020015460fd60008673ffffffffffffffffffffffffffffffffffffffff1673ffffffffffffffffffffffffffffffffffffffff1681526020019081526020016000208281548110613349577f4e487b7100000000000000000000000000000000000000000000000000000000600052603260045260246000fd5b906000526020600020018190555060fd60008573ffffffffffffffffffffffffffffffffffffffff1673ffffffffffffffffffffffffffffffffffffffff1681526020019081526020016000208054806133cc577f4e487b7100000000000000000000000000000000000000000000000000000000600052603160045260246000fd5b6001900381819060005260206000200160009055905550505050565b600073ffffffffffffffffffffffffffffffffffffffff168373ffffffffffffffffffffffffffffffffffffffff161415613458576040517f08c379a000000000000000000000000000000000000000000000000000000000815260040161344f90615943565b60405180910390fd5b6000613462612f6c565b90506134928185600061347487613af3565b61347d87613af3565b60405180602001604052806000815250612f74565b60006065600085815260200190815260200160002060008673ffffffffffffffffffffffffffffffffffffffff1673ffffffffffffffffffffffffffffffffffffffff1681526020019081526020016000205490508281101561352a576040517f08c379a000000000000000000000000000000000000000000000000000000000815260040161352190615863565b60405180910390fd5b82816135369190615c70565b6065600086815260200190815260200160002060008773ffffffffffffffffffffffffffffffffffffffff1673ffffffffffffffffffffffffffffffffffffffff16815260200190815260200160002081905550600073ffffffffffffffffffffffffffffffffffffffff168573ffffffffffffffffffffffffffffffffffffffff168373ffffffffffffffffffffffffffffffffffffffff167fc3d58168c5ae7397731d063d5bbf3d657854427343f4c083240f7aacaa2d0f628787604051613601929190615a5e565b60405180910390a45050505050565b600060fe60008381526020019081526020016000208054905090506000805b828110156136fb5760fe60008581526020019081526020016000208181548110613682577f4e487b7100000000000000000000000000000000000000000000000000000000600052603260045260246000fd5b9060005260206000200160009054906101000a900473ffffffffffffffffffffffffffffffffffffffff1673ffffffffffffffffffffffffffffffffffffffff168573ffffffffffffffffffffffffffffffffffffffff1614156136e8578091506136fb565b80806136f390615d8c565b91505061362f565b5060fe600084815260200190815260200160002060018361371c9190615c70565b81548110613753577f4e487b7100000000000000000000000000000000000000000000000000000000600052603260045260246000fd5b9060005260206000200160009054906101000a900473ffffffffffffffffffffffffffffffffffffffff1660fe600085815260200190815260200160002082815481106137c9577f4e487b7100000000000000000000000000000000000000000000000000000000600052603260045260246000fd5b9060005260206000200160006101000a81548173ffffffffffffffffffffffffffffffffffffffff021916908373ffffffffffffffffffffffffffffffffffffffff16021790555060fe600084815260200190815260200160002080548061385a577f4e487b7100000000000000000000000000000000000000000000000000000000600052603160045260246000fd5b6001900381819060005260206000200160006101000a81549073ffffffffffffffffffffffffffffffffffffffff0219169055905550505050565b61389d610e22565b156138dd576040517f08c379a00000000000000000000000000000000000000000000000000000000081526004016138d4906158a3565b60405180910390fd5b6001609760006101000a81548160ff0219169083151502179055507f62e78cea01bee320cd4e420270b5ea74000d11b0c9f74754ebdbfc544b05a258613921612f6c565b60405161392e919061558b565b60405180910390a1565b600073ffffffffffffffffffffffffffffffffffffffff168473ffffffffffffffffffffffffffffffffffffffff1614156139a8576040517f08c379a000000000000000000000000000000000000000000000000000000000815260040161399f90615a03565b60405180910390fd5b60006139b2612f6c565b90506139d3816000876139c488613af3565b6139cd88613af3565b87612f74565b826065600086815260200190815260200160002060008773ffffffffffffffffffffffffffffffffffffffff1673ffffffffffffffffffffffffffffffffffffffff1681526020019081526020016000206000828254613a339190615c1a565b925050819055508473ffffffffffffffffffffffffffffffffffffffff16600073ffffffffffffffffffffffffffffffffffffffff168273ffffffffffffffffffffffffffffffffffffffff167fc3d58168c5ae7397731d063d5bbf3d657854427343f4c083240f7aacaa2d0f628787604051613ab1929190615a5e565b60405180910390a4613ac881600087878787613bb9565b5050505050565b6001816000016000828254019250508190555050565b600081600001549050919050565b60606000600167ffffffffffffffff811115613b38577f4e487b7100000000000000000000000000000000000000000000000000000000600052604160045260246000fd5b604051908082528060200260200182016040528015613b665781602001602082028036833780820191505090505b5090508281600081518110613ba4577f4e487b7100000000000000000000000000000000000000000000000000000000600052603260045260246000fd5b60200260200101818152505080915050919050565b613bd88473ffffffffffffffffffffffffffffffffffffffff16614294565b15613d81578373ffffffffffffffffffffffffffffffffffffffff1663f23a6e6187878686866040518663ffffffff1660e01b8152600401613c1e959493929190615645565b602060405180830381600087803b158015613c3857600080fd5b505af1925050508015613c6957506040513d601f19601f82011682018060405250810190613c669190614ad3565b60015b613cf857613c75615e80565b80613c805750613cbd565b806040517f08c379a0000000000000000000000000000000000000000000000000000000008152600401613cb49190615781565b60405180910390fd5b6040517f08c379a0000000000000000000000000000000000000000000000000000000008152600401613cef906157a3565b60405180910390fd5b63f23a6e6160e01b7bffffffffffffffffffffffffffffffffffffffffffffffffffffffff1916817bffffffffffffffffffffffffffffffffffffffffffffffffffffffff191614613d7f576040517f08c379a0000000000000000000000000000000000000000000000000000000008152600401613d76906157c3565b60405180910390fd5b505b505050505050565b600060019054906101000a900460ff1680613daf575060008054906101000a900460ff16155b613dee576040517f08c379a0000000000000000000000000000000000000000000000000000000008152600401613de590615923565b60405180910390fd5b60008060019054906101000a900460ff161590508015613e3e576001600060016101000a81548160ff02191690831515021790555060016000806101000a81548160ff0219169083151502179055505b8015613e5f5760008060016101000a81548160ff0219169083151502179055505b50565b600060019054906101000a900460ff1680613e88575060008054906101000a900460ff16155b613ec7576040517f08c379a0000000000000000000000000000000000000000000000000000000008152600401613ebe90615923565b60405180910390fd5b60008060019054906101000a900460ff161590508015613f17576001600060016101000a81548160ff02191690831515021790555060016000806101000a81548160ff0219169083151502179055505b8015613f385760008060016101000a81548160ff0219169083151502179055505b50565b600060019054906101000a900460ff1680613f61575060008054906101000a900460ff16155b613fa0576040517f08c379a0000000000000000000000000000000000000000000000000000000008152600401613f9790615923565b60405180910390fd5b60008060019054906101000a900460ff161590508015613ff0576001600060016101000a81548160ff02191690831515021790555060016000806101000a81548160ff0219169083151502179055505b6000609760006101000a81548160ff021916908315150217905550801561402c5760008060016101000a81548160ff0219169083151502179055505b50565b600060019054906101000a900460ff1680614055575060008054906101000a900460ff16155b614094576040517f08c379a000000000000000000000000000000000000000000000000000000000815260040161408b90615923565b60405180910390fd5b60008060019054906101000a900460ff1615905080156140e4576001600060016101000a81548160ff02191690831515021790555060016000806101000a81548160ff0219169083151502179055505b6140ed826142a7565b801561410e5760008060016101000a81548160ff0219169083151502179055505b5050565b600060019054906101000a900460ff1680614138575060008054906101000a900460ff16155b614177576040517f08c379a000000000000000000000000000000000000000000000000000000000815260040161416e90615923565b60405180910390fd5b60008060019054906101000a900460ff1615905080156141c7576001600060016101000a81548160ff02191690831515021790555060016000806101000a81548160ff0219169083151502179055505b60006141d1612f6c565b90508060c960006101000a81548173ffffffffffffffffffffffffffffffffffffffff021916908373ffffffffffffffffffffffffffffffffffffffff1602179055508073ffffffffffffffffffffffffffffffffffffffff16600073ffffffffffffffffffffffffffffffffffffffff167f8be0079c531659141344cd1fd0a4f28419497f9722a3daafe3b4186f6b6457e060405160405180910390a35080156142915760008060016101000a81548160ff0219169083151502179055505b50565b600080823b905060008111915050919050565b80606790805190602001906142bd929190614360565b5050565b5080546142cd90615d5a565b6000825580601f106142df57506142fe565b601f0160209004906000526020600020908101906142fd91906143e6565b5b50565b508054600082559060005260206000209081019061431f91906143e6565b50565b6040518060800160405280600073ffffffffffffffffffffffffffffffffffffffff1681526020016000815260200160008152602001606081525090565b82805461436c90615d5a565b90600052602060002090601f01602090048101928261438e57600085556143d5565b82601f106143a757805160ff19168380011785556143d5565b828001600101855582156143d5579182015b828111156143d45782518255916020019190600101906143b9565b5b5090506143e291906143e6565b5090565b5b808211156143ff5760008160009055506001016143e7565b5090565b600061441661441184615ab8565b615a87565b9050808382526020820190508285602086028201111561443557600080fd5b60005b85811015614465578161444b8882614595565b845260208401935060208301925050600181019050614438565b5050509392505050565b600061448261447d84615ae4565b615a87565b905080838252602082019050828560208602820111156144a157600080fd5b60005b858110156144d157816144b788826146d0565b8452602084019350602083019250506001810190506144a4565b5050509392505050565b60006144ee6144e984615b10565b615a87565b90508281526020810184848401111561450657600080fd5b614511848285615d18565b509392505050565b600061452c61452784615b40565b615a87565b90508281526020810184848401111561454457600080fd5b61454f848285615d18565b509392505050565b600061456a61456584615b40565b615a87565b90508281526020810184848401111561458257600080fd5b61458d848285615d27565b509392505050565b6000813590506145a481615f36565b92915050565b6000815190506145b981615f36565b92915050565b600082601f8301126145d057600080fd5b81356145e0848260208601614403565b91505092915050565b600082601f8301126145fa57600080fd5b813561460a84826020860161446f565b91505092915050565b60008135905061462281615f4d565b92915050565b60008135905061463781615f64565b92915050565b60008151905061464c81615f64565b92915050565b600082601f83011261466357600080fd5b81356146738482602086016144db565b91505092915050565b600082601f83011261468d57600080fd5b813561469d848260208601614519565b91505092915050565b600082601f8301126146b757600080fd5b81516146c7848260208601614557565b91505092915050565b6000813590506146df81615f7b565b92915050565b6000602082840312156146f757600080fd5b600061470584828501614595565b91505092915050565b60006020828403121561472057600080fd5b600061472e848285016145aa565b91505092915050565b6000806040838503121561474a57600080fd5b600061475885828601614595565b925050602061476985828601614595565b9150509250929050565b600080600080600060a0868803121561478b57600080fd5b600061479988828901614595565b95505060206147aa88828901614595565b945050604086013567ffffffffffffffff8111156147c757600080fd5b6147d3888289016145e9565b935050606086013567ffffffffffffffff8111156147f057600080fd5b6147fc888289016145e9565b925050608086013567ffffffffffffffff81111561481957600080fd5b61482588828901614652565b9150509295509295909350565b600080600080600060a0868803121561484a57600080fd5b600061485888828901614595565b955050602061486988828901614595565b945050604061487a888289016146d0565b935050606061488b888289016146d0565b925050608086013567ffffffffffffffff8111156148a857600080fd5b6148b488828901614652565b9150509295509295909350565b600080604083850312156148d457600080fd5b60006148e285828601614595565b92505060206148f385828601614613565b9150509250929050565b6000806040838503121561491057600080fd5b600061491e85828601614595565b925050602061492f858286016146d0565b9150509250929050565b60008060006060848603121561494e57600080fd5b600061495c86828701614595565b935050602061496d868287016146d0565b925050604061497e868287016146d0565b9150509250925092565b600080600080600080600060e0888a0312156149a357600080fd5b60006149b18a828b01614595565b97505060206149c28a828b016146d0565b96505060406149d38a828b016146d0565b95505060606149e48a828b016146d0565b94505060806149f58a828b016146d0565b93505060a0614a068a828b01614595565b92505060c088013567ffffffffffffffff811115614a2357600080fd5b614a2f8a828b0161467c565b91505092959891949750929550565b60008060408385031215614a5157600080fd5b600083013567ffffffffffffffff811115614a6b57600080fd5b614a77858286016145bf565b925050602083013567ffffffffffffffff811115614a9457600080fd5b614aa0858286016145e9565b9150509250929050565b600060208284031215614abc57600080fd5b6000614aca84828501614628565b91505092915050565b600060208284031215614ae557600080fd5b6000614af38482850161463d565b91505092915050565b600060208284031215614b0e57600080fd5b600082013567ffffffffffffffff811115614b2857600080fd5b614b348482850161467c565b91505092915050565b600060208284031215614b4f57600080fd5b600082015167ffffffffffffffff811115614b6957600080fd5b614b75848285016146a6565b91505092915050565b600060208284031215614b9057600080fd5b6000614b9e848285016146d0565b91505092915050565b600080600060608486031215614bbc57600080fd5b6000614bca868287016146d0565b9350506020614bdb868287016146d0565b9250506040614bec86828701614595565b9150509250925092565b6000614c028383614c26565b60208301905092915050565b6000614c1a838361556d565b60208301905092915050565b614c2f81615ca4565b82525050565b614c3e81615ca4565b82525050565b6000614c4f82615b90565b614c598185615bd6565b9350614c6483615b70565b8060005b83811015614c95578151614c7c8882614bf6565b9750614c8783615bbc565b925050600181019050614c68565b5085935050505092915050565b6000614cad82615b9b565b614cb78185615be7565b9350614cc283615b80565b8060005b83811015614cf3578151614cda8882614c0e565b9750614ce583615bc9565b925050600181019050614cc6565b5085935050505092915050565b614d0981615cb6565b82525050565b6000614d1a82615ba6565b614d248185615bf8565b9350614d34818560208601615d27565b614d3d81615e62565b840191505092915050565b6000614d5382615bb1565b614d5d8185615c09565b9350614d6d818560208601615d27565b614d7681615e62565b840191505092915050565b6000614d8e603483615c09565b91507f455243313135353a207472616e7366657220746f206e6f6e204552433131353560008301527f526563656976657220696d706c656d656e7465720000000000000000000000006020830152604082019050919050565b6000614df4602883615c09565b91507f455243313135353a204552433131353552656365697665722072656a6563746560008301527f6420746f6b656e730000000000000000000000000000000000000000000000006020830152604082019050919050565b6000614e5a602b83615c09565b91507f6d6573736167652073656e6465722068617320746f206f776e20616c6c206f6660008301527f20746865207368617265730000000000000000000000000000000000000000006020830152604082019050919050565b6000614ec0602a83615c09565b91507f6d73672073656e6465722068617320746f206f776e2074686520746f6b656e2060008301527f746f206465706f736974000000000000000000000000000000000000000000006020830152604082019050919050565b6000614f26602b83615c09565b91507f455243313135353a2062616c616e636520717565727920666f7220746865207a60008301527f65726f20616464726573730000000000000000000000000000000000000000006020830152604082019050919050565b6000614f8c602683615c09565b91507f4f776e61626c653a206e6577206f776e657220697320746865207a65726f206160008301527f64647265737300000000000000000000000000000000000000000000000000006020830152604082019050919050565b6000614ff2602483615c09565b91507f455243313135353a206275726e20616d6f756e7420657863656564732062616c60008301527f616e6365000000000000000000000000000000000000000000000000000000006020830152604082019050919050565b6000615058602983615c09565b91507f455243313135353a2063616c6c6572206973206e6f74206f776e6572206e6f7260008301527f20617070726f76656400000000000000000000000000000000000000000000006020830152604082019050919050565b60006150be601083615c09565b91507f5061757361626c653a20706175736564000000000000000000000000000000006000830152602082019050919050565b60006150fe604083615c09565b91507f7472616e7366657265722068617320746f206f776e20657175616c206f72206d60008301527f6f726520736861726573207468616e2074686520676976656e20616d6f756e746020830152604082019050919050565b6000615164602583615c09565b91507f455243313135353a207472616e7366657220746f20746865207a65726f20616460008301527f64726573730000000000000000000000000000000000000000000000000000006020830152604082019050919050565b60006151ca603283615c09565b91507f455243313135353a207472616e736665722063616c6c6572206973206e6f742060008301527f6f776e6572206e6f7220617070726f76656400000000000000000000000000006020830152604082019050919050565b6000615230602e83615c09565b91507f496e697469616c697a61626c653a20636f6e747261637420697320616c72656160008301527f647920696e697469616c697a65640000000000000000000000000000000000006020830152604082019050919050565b6000615296602383615c09565b91507f455243313135353a206275726e2066726f6d20746865207a65726f206164647260008301527f65737300000000000000000000000000000000000000000000000000000000006020830152604082019050919050565b60006152fc602a83615c09565b91507f455243313135353a20696e73756666696369656e742062616c616e636520666f60008301527f72207472616e73666572000000000000000000000000000000000000000000006020830152604082019050919050565b6000615362602083615c09565b91507f4f776e61626c653a2063616c6c6572206973206e6f7420746865206f776e65726000830152602082019050919050565b60006153a2602983615c09565b91507f455243313135353a2073657474696e6720617070726f76616c2073746174757360008301527f20666f722073656c6600000000000000000000000000000000000000000000006020830152604082019050919050565b6000615408602983615c09565b91507f455243313135353a206163636f756e747320616e6420696473206c656e67746860008301527f206d69736d6174636800000000000000000000000000000000000000000000006020830152604082019050919050565b600061546e602883615c09565b91507f455243313135353a2069647320616e6420616d6f756e7473206c656e6774682060008301527f6d69736d617463680000000000000000000000000000000000000000000000006020830152604082019050919050565b60006154d4602183615c09565b91507f455243313135353a206d696e7420746f20746865207a65726f2061646472657360008301527f73000000000000000000000000000000000000000000000000000000000000006020830152604082019050919050565b600061553a601883615c09565b91507f4e6f7420616c6c6f776564207768696c652070617573656400000000000000006000830152602082019050919050565b61557681615d0e565b82525050565b61558581615d0e565b82525050565b60006020820190506155a06000830184614c35565b92915050565b600060a0820190506155bb6000830188614c35565b6155c86020830187614c35565b81810360408301526155da8186614ca2565b905081810360608301526155ee8185614ca2565b905081810360808301526156028184614d0f565b90509695505050505050565b60006060820190506156236000830186614c35565b6156306020830185614c35565b61563d604083018461557c565b949350505050565b600060a08201905061565a6000830188614c35565b6156676020830187614c35565b615674604083018661557c565b615681606083018561557c565b81810360808301526156938184614d0f565b90509695505050505050565b60006080820190506156b46000830187614c35565b6156c1602083018661557c565b6156ce604083018561557c565b81810360608301526156e08184614d48565b905095945050505050565b600060208201905081810360008301526157058184614c44565b905092915050565b600060208201905081810360008301526157278184614ca2565b905092915050565b600060408201905081810360008301526157498185614ca2565b9050818103602083015261575d8184614ca2565b90509392505050565b600060208201905061577b6000830184614d00565b92915050565b6000602082019050818103600083015261579b8184614d48565b905092915050565b600060208201905081810360008301526157bc81614d81565b9050919050565b600060208201905081810360008301526157dc81614de7565b9050919050565b600060208201905081810360008301526157fc81614e4d565b9050919050565b6000602082019050818103600083015261581c81614eb3565b9050919050565b6000602082019050818103600083015261583c81614f19565b9050919050565b6000602082019050818103600083015261585c81614f7f565b9050919050565b6000602082019050818103600083015261587c81614fe5565b9050919050565b6000602082019050818103600083015261589c8161504b565b9050919050565b600060208201905081810360008301526158bc816150b1565b9050919050565b600060208201905081810360008301526158dc816150f1565b9050919050565b600060208201905081810360008301526158fc81615157565b9050919050565b6000602082019050818103600083015261591c816151bd565b9050919050565b6000602082019050818103600083015261593c81615223565b9050919050565b6000602082019050818103600083015261595c81615289565b9050919050565b6000602082019050818103600083015261597c816152ef565b9050919050565b6000602082019050818103600083015261599c81615355565b9050919050565b600060208201905081810360008301526159bc81615395565b9050919050565b600060208201905081810360008301526159dc816153fb565b9050919050565b600060208201905081810360008301526159fc81615461565b9050919050565b60006020820190508181036000830152615a1c816154c7565b9050919050565b60006020820190508181036000830152615a3c8161552d565b9050919050565b6000602082019050615a58600083018461557c565b92915050565b6000604082019050615a73600083018561557c565b615a80602083018461557c565b9392505050565b6000604051905081810181811067ffffffffffffffff82111715615aae57615aad615e33565b5b8060405250919050565b600067ffffffffffffffff821115615ad357615ad2615e33565b5b602082029050602081019050919050565b600067ffffffffffffffff821115615aff57615afe615e33565b5b602082029050602081019050919050565b600067ffffffffffffffff821115615b2b57615b2a615e33565b5b601f19601f8301169050602081019050919050565b600067ffffffffffffffff821115615b5b57615b5a615e33565b5b601f19601f8301169050602081019050919050565b6000819050602082019050919050565b6000819050602082019050919050565b600081519050919050565b600081519050919050565b600081519050919050565b600081519050919050565b6000602082019050919050565b6000602082019050919050565b600082825260208201905092915050565b600082825260208201905092915050565b600082825260208201905092915050565b600082825260208201905092915050565b6000615c2582615d0e565b9150615c3083615d0e565b9250827fffffffffffffffffffffffffffffffffffffffffffffffffffffffffffffffff03821115615c6557615c64615dd5565b5b828201905092915050565b6000615c7b82615d0e565b9150615c8683615d0e565b925082821015615c9957615c98615dd5565b5b828203905092915050565b6000615caf82615cee565b9050919050565b60008115159050919050565b60007fffffffff0000000000000000000000000000000000000000000000000000000082169050919050565b600073ffffffffffffffffffffffffffffffffffffffff82169050919050565b6000819050919050565b82818337600083830152505050565b60005b83811015615d45578082015181840152602081019050615d2a565b83811115615d54576000848401525b50505050565b60006002820490506001821680615d7257607f821691505b60208210811415615d8657615d85615e04565b5b50919050565b6000615d9782615d0e565b91507fffffffffffffffffffffffffffffffffffffffffffffffffffffffffffffffff821415615dca57615dc9615dd5565b5b600182019050919050565b7f4e487b7100000000000000000000000000000000000000000000000000000000600052601160045260246000fd5b7f4e487b7100000000000000000000000000000000000000000000000000000000600052602260045260246000fd5b7f4e487b7100000000000000000000000000000000000000000000000000000000600052604160045260246000fd5b6000601f19601f8301169050919050565b60008160e01c9050919050565b600060443d1015615e9057615f33565b60046000803e615ea1600051615e73565b6308c379a08114615eb25750615f33565b60405160043d036004823e80513d602482011167ffffffffffffffff82111715615ede57505050615f33565b808201805167ffffffffffffffff811115615efd575050505050615f33565b8060208301013d8501811115615f1857505050505050615f33565b615f2182615e62565b60208401016040528296505050505050505b90565b615f3f81615ca4565b8114615f4a57600080fd5b50565b615f5681615cb6565b8114615f6157600080fd5b50565b615f6d81615cc2565b8114615f7857600080fd5b50565b615f8481615d0e565b8114615f8f57600080fd5b5056fea264697066735822122051ae4a5c84a2951783101b35389b1b62c6e136d189917b3a3a0b1a0ab6743a1e64736f6c63430008000033",
  "immutableReferences": {},
  "source": "// SPDX-License-Identifier: MIT\n\npragma solidity ^0.8.0;\n\nimport \"@openzeppelin/contracts-upgradeable/token/ERC1155/ERC1155Upgradeable.sol\";\nimport \"@openzeppelin/contracts-upgradeable/security/PausableUpgradeable.sol\";\nimport \"@openzeppelin/contracts-upgradeable/proxy/utils/Initializable.sol\";\nimport \"@openzeppelin/contracts/token/ERC721/extensions/ERC721URIStorage.sol\";\nimport \"@openzeppelin/contracts-upgradeable/utils/CountersUpgradeable.sol\";\nimport \"@openzeppelin/contracts-upgradeable/access/OwnableUpgradeable.sol\";\n\ncontract NftFractionsRepository is\n    Initializable,\n    ERC1155Upgradeable,\n    PausableUpgradeable,\n    OwnableUpgradeable\n{\n    using CountersUpgradeable for CountersUpgradeable.Counter;\n\n    struct Token {\n        address erc721ContractAddress;\n        uint256 erc721TokenId;\n        uint256 totalFractionsAmount;\n        string tokenURI;\n    }\n\n    CountersUpgradeable.Counter private _ids;\n    mapping(uint256 => Token) tokens;\n    // data structures to keep track of:\n    // tokenIds by owner:\n    mapping(address => uint256[]) tokenIdsByShareOwner;\n    // owners by tokenId:\n    mapping(uint256 => address[]) ownersByTokenId;\n    // all tokenIds:\n    uint256[] tokenIds;\n\n    function initialize(string memory uri_) public initializer {\n        __Context_init_unchained();\n        __ERC165_init_unchained();\n        __Pausable_init_unchained();\n        __ERC1155_init_unchained(uri_);\n        __Ownable_init_unchained();\n    }\n\n    /**\n     * @dev Deposit an ERC721 token and mints an ERC1155 token with the given fractions amount\n     * the original ERC721 token is transferred to the address of this smart contract.\n     * Before calling this function the user has to call the apporve function on the original NFT contract and\n     * approve this smart contract to transfer his NFT.\n     *\n     * Requirements:\n     * - msg.sender has to own the token that is deposited\n     * - the contract is not paused\n     */\n    function depositNft(\n        address erc721ContractAddress,\n        uint256 erc721TokenId,\n        uint256 fractionsAmountToMint\n    ) external {\n        require(!paused(), \"Not allowed while paused\");\n        ERC721URIStorage erc721Contract =\n            ERC721URIStorage(erc721ContractAddress);\n        require(\n            erc721Contract.ownerOf(erc721TokenId) == msg.sender,\n            \"msg sender has to own the token to deposit\"\n        );\n        erc721Contract.transferFrom(msg.sender, address(this), erc721TokenId);\n        _ids.increment();\n        uint256 newItemId = _ids.current();\n        _mint(msg.sender, newItemId, fractionsAmountToMint, \"\");\n        string memory tokenURI;\n        tokenURI = erc721Contract.tokenURI(erc721TokenId);\n        Token memory token;\n        token.erc721ContractAddress = erc721ContractAddress;\n        token.erc721TokenId = erc721TokenId;\n        token.totalFractionsAmount = fractionsAmountToMint;\n        token.tokenURI = tokenURI;\n        tokens[newItemId] = token;\n        tokenIdsByShareOwner[msg.sender].push(newItemId);\n        ownersByTokenId[newItemId].push(msg.sender);\n        tokenIds.push(newItemId);\n    }\n\n    /**\n     * @dev Withdraw an ERC721 token from this contract. The message sender has to own all of the shares in\n     * the correspondign ERC1155 token.\n     * Successfull withdraw means:\n     * - burning the ERC1155 token\n     * - transfering the ERC721 token to the owner (msg.sender) = owner of all shares in the ERC1155 token\n     *\n     * Requirements:\n     * - msg.sender has to own all shares in the corresponding ERC1155 token\n     * - the contract is not paused\n     */\n    function withdrawNft(uint256 tokenId) external {\n        require(!paused(), \"Not allowed while paused\");\n        uint256 totalFractionsAmount = tokens[tokenId].totalFractionsAmount;\n        uint256 sendersAmount = balanceOf(msg.sender, tokenId);\n        require(\n            totalFractionsAmount == sendersAmount,\n            \"message sender has to own all of the shares\"\n        );\n        //sends the original token in the ERC721 contract\n        address erc721ContractAddress = tokens[tokenId].erc721ContractAddress;\n        uint256 erc721TokenId = tokens[tokenId].erc721TokenId;\n        IERC721 erc721Contract = IERC721(erc721ContractAddress);\n        erc721Contract.transferFrom(address(this), msg.sender, erc721TokenId);\n        //burns the ERC1155 token\n        _burn(msg.sender, tokenId, totalFractionsAmount);\n        //deletes the ERC1155 token from the tokenIdsByShareOwner array\n        deleteIdFromTokenIdsByShareOwner(msg.sender, tokenId);\n        //deletes the ERC1155 token from the tokenIds array\n        uint256 nrOfTokens = tokenIds.length;\n        uint256 tokenIdPosition;\n        for (uint256 i; i < nrOfTokens; i++) {\n            if (tokenId == tokenIds[i]) {\n                tokenIdPosition = i;\n                break;\n            }\n        }\n        tokenIds[tokenIdPosition] = tokenIds[nrOfTokens - 1];\n        tokenIds.pop();\n        //deletes the token from the owners mapping\n        delete ownersByTokenId[tokenId];\n        //deletes the token struct\n        delete tokens[tokenId];\n    }\n\n    /**\n     * @dev when someone transfers his tokens to the other chain the bridge contract will call this burn function\n     * The bridge contract is the owner of NftFractionsRepository.\n     *\n     * Requirements:\n     * - only the owner (the bridge contract) can call\n     * - the contract is not paused\n     */\n    function burn(\n        uint256 tokenId,\n        uint256 amount,\n        address transferer\n    ) external onlyOwner() {\n        require(!paused(), \"Not allowed while paused\");\n        uint256 transferersAmount = balanceOf(transferer, tokenId);\n        require(\n            transferersAmount >= amount,\n            \"transferer has to own equal or more shares than the given amount\"\n        );\n        //burns the shares from ERC1155 token\n        _burn(transferer, tokenId, amount);\n        // if the transferer transfers all his amount\n        if (transferersAmount == amount) {\n            deleteIdFromTokenIdsByShareOwner(transferer, tokenId);\n            deleteOwnerFromOwnersByTokenId(transferer, tokenId);\n            // if no onwer left\n            if (ownersByTokenId[tokenId].length == 0) {\n                //deletes the ERC1155 token from the tokenIds array\n                uint256 nrOfTokens = tokenIds.length;\n                uint256 tokenIdPosition;\n                for (uint256 i; i < nrOfTokens; i++) {\n                    if (tokenId == tokenIds[i]) {\n                        tokenIdPosition = i;\n                        break;\n                    }\n                }\n                tokenIds[tokenIdPosition] = tokenIds[nrOfTokens - 1];\n                tokenIds.pop();\n                //deletes the token struct\n                delete tokens[tokenId];\n            }\n        }\n    }\n\n    /**\n     * @dev when someone transfers his tokens from the other chain to this chain the bridge contract will call this mint function\n     *\n     * Requirements:\n     * - only the owner (the bridge contract) can call\n     * - the contract is not paused\n     */\n    function mint(\n        address erc721ContractAddress,\n        uint256 erc721TokenId,\n        uint256 erc1155TokenId,\n        uint256 erc1155Amount,\n        uint256 totalFractionsAmount,\n        address transferer,\n        string memory tokenURI\n    ) external onlyOwner() {\n        require(!paused(), \"Not allowed while paused\");\n        _mint(transferer, erc1155TokenId, erc1155Amount, \"\");\n        // if the token does not exist in this chain yet\n        if (tokens[erc1155TokenId].erc721ContractAddress == address(0)) {\n            Token memory token;\n            token.erc721ContractAddress = erc721ContractAddress;\n            token.erc721TokenId = erc721TokenId;\n            token.totalFractionsAmount = totalFractionsAmount;\n            token.tokenURI = tokenURI;\n            tokens[erc1155TokenId] = token;\n            tokenIds.push(erc1155TokenId);\n        }\n        // Has to check if the transferer does not own this tokenId in this chain yet\n        uint256 nrOfTokensByTransferer =\n            tokenIdsByShareOwner[transferer].length;\n        if (nrOfTokensByTransferer == 0) {\n            tokenIdsByShareOwner[transferer].push(erc1155TokenId);\n        } else {\n            for (uint256 i; i < nrOfTokensByTransferer; i++) {\n                if (erc1155TokenId == tokenIdsByShareOwner[transferer][i]) {\n                    break;\n                }\n                if (i == nrOfTokensByTransferer - 1) {\n                    tokenIdsByShareOwner[transferer].push(erc1155TokenId);\n                }\n            }\n        }\n        // Has to check if the transferer is amoung the owners of this token in this chain\n        uint256 nrOfOwnerByTokenId = ownersByTokenId[erc1155TokenId].length;\n        if (nrOfOwnerByTokenId == 0) {\n            ownersByTokenId[erc1155TokenId].push(transferer);\n        } else {\n            for (uint256 i; i < nrOfOwnerByTokenId; i++) {\n                if (transferer == ownersByTokenId[erc1155TokenId][i]) {\n                    break;\n                }\n                if (i == nrOfOwnerByTokenId - 1) {\n                    ownersByTokenId[erc1155TokenId].push(transferer);\n                }\n            }\n        }\n    }\n\n    /**\n     * @dev same as safeTransferFrom in ERC1155 with updating the internal data structures:\n     * - updates the ownersByTokenId data structure\n     * - updates the tokenIdsByShareOwner data structure\n     */\n    function transferFrom(\n        address from,\n        address to,\n        uint256 id,\n        uint256 amount,\n        bytes memory data\n    ) public {\n        require(!paused(), \"Not allowed while paused\");\n        uint256 fromBalanceBefore = balanceOf(from, id);\n        uint256 toBalanceBefore = balanceOf(to, id);\n        safeTransferFrom(from, to, id, amount, data);\n        if (amount >= fromBalanceBefore) {\n            // remove the tokenId from ownersByTokenId[tokenId][from]\n            uint256 nrOfOwners = ownersByTokenId[id].length;\n            uint256 ownerPosition;\n            for (uint256 i; i < nrOfOwners; i++) {\n                if (from == ownersByTokenId[id][i]) {\n                    ownerPosition = i;\n                    break;\n                }\n            }\n            ownersByTokenId[id][ownerPosition] = ownersByTokenId[id][\n                nrOfOwners - 1\n            ];\n            ownersByTokenId[id].pop();\n            // delete the tokenId from the tokenIdsByShareOwner array\n            deleteIdFromTokenIdsByShareOwner(from, id);\n        }\n        if (toBalanceBefore == 0) {\n            ownersByTokenId[id].push(to);\n            tokenIdsByShareOwner[to].push(id);\n        }\n    }\n\n    /**\n     * @dev returns relevant token data:\n     * - original ERC721 contract address\n     * - original ERC721 token id\n     * - amount of fractions minted\n     */\n    function getTokenData(uint256 _tokenId)\n        public\n        view\n        returns (\n            address erc721ContractAddress,\n            uint256 erc721TokenId,\n            uint256 totalFractionsAmount,\n            string memory tokenURI\n        )\n    {\n        return (\n            tokens[_tokenId].erc721ContractAddress,\n            tokens[_tokenId].erc721TokenId,\n            tokens[_tokenId].totalFractionsAmount,\n            tokens[_tokenId].tokenURI\n        );\n    }\n\n    /**\n     * @dev returns amount of fractions minted for a token\n     */\n    function getTotalFractionsAmount(uint256 _tokenId)\n        public\n        view\n        returns (uint256)\n    {\n        return (tokens[_tokenId].totalFractionsAmount);\n    }\n\n    /**\n     * @dev returns original ERC721 contract address for a token\n     */\n    function getErc721ContractAddress(uint256 _tokenId)\n        public\n        view\n        returns (address)\n    {\n        return (tokens[_tokenId].erc721ContractAddress);\n    }\n\n    function pause() public onlyOwner() {\n        _pause();\n    }\n\n    /**\n     * @dev returns the ERC1155 tokenIds that the shareOwner has shares in\n     */\n    function getTokenIdsByShareOwner(address shareOwner)\n        public\n        view\n        returns (uint256[] memory)\n    {\n        return tokenIdsByShareOwner[shareOwner];\n    }\n\n    /**\n     * @dev returns the owners of a token\n     */\n    function getOwnersBYtokenId(uint256 tokenId)\n        public\n        view\n        returns (address[] memory)\n    {\n        return ownersByTokenId[tokenId];\n    }\n\n    /**\n     * @dev returns all ERC1155 tokenIds managed by this contract\n     */\n    function getTokenIds() public view returns (uint256[] memory) {\n        return tokenIds;\n    }\n\n    /**\n     * @dev helper to delete a tokenId from tokenIdsByShareOwner\n     */\n    function deleteIdFromTokenIdsByShareOwner(address owner, uint256 id)\n        private\n    {\n        uint256 nrOfTokensByShareOwner = tokenIdsByShareOwner[owner].length;\n        uint256 tokenIdPositionInShareOwner;\n        for (uint256 i; i < nrOfTokensByShareOwner; i++) {\n            if (id == tokenIdsByShareOwner[owner][i]) {\n                tokenIdPositionInShareOwner = i;\n                break;\n            }\n        }\n        tokenIdsByShareOwner[owner][\n            tokenIdPositionInShareOwner\n        ] = tokenIdsByShareOwner[owner][nrOfTokensByShareOwner - 1];\n        tokenIdsByShareOwner[owner].pop();\n    }\n\n    /**\n     * @dev helper to delete an owner from ownersByTokenId\n     */\n    function deleteOwnerFromOwnersByTokenId(address owner, uint256 id) private {\n        uint256 nrOfOwnersByTokenId = ownersByTokenId[id].length;\n        uint256 ownerPositionInOwners;\n        for (uint256 i; i < nrOfOwnersByTokenId; i++) {\n            if (owner == ownersByTokenId[id][i]) {\n                ownerPositionInOwners = i;\n                break;\n            }\n        }\n        ownersByTokenId[id][ownerPositionInOwners] = ownersByTokenId[id][\n            nrOfOwnersByTokenId - 1\n        ];\n        ownersByTokenId[id].pop();\n    }\n}\n",
  "sourcePath": "/Users/szabolcs/Documents/Personal/Szakmai/Ethereum/nft-fractions-dex/contracts/NftFractionsRepository.sol",
  "compiler": {
    "name": "solc",
    "version": "0.8.0+commit.c7dfd78e.Emscripten.clang"
  },
  "schemaVersion": "3.3.4",
  "updatedAt": "2021-06-11T14:46:54.982Z",
  "networkType": "ethereum",
  "devdoc": {
    "kind": "dev",
    "methods": {
      "balanceOf(address,uint256)": {
        "details": "See {IERC1155-balanceOf}. Requirements: - `account` cannot be the zero address."
      },
      "balanceOfBatch(address[],uint256[])": {
        "details": "See {IERC1155-balanceOfBatch}. Requirements: - `accounts` and `ids` must have the same length."
      },
      "burn(uint256,uint256,address)": {
        "details": "when someone transfers his tokens to the other chain the bridge contract will call this burn function The bridge contract is the owner of NftFractionsRepository. Requirements: - only the owner (the bridge contract) can call - the contract is not paused"
      },
      "depositNft(address,uint256,uint256)": {
        "details": "Deposit an ERC721 token and mints an ERC1155 token with the given fractions amount the original ERC721 token is transferred to the address of this smart contract. Before calling this function the user has to call the apporve function on the original NFT contract and approve this smart contract to transfer his NFT. Requirements: - msg.sender has to own the token that is deposited - the contract is not paused"
      },
      "getErc721ContractAddress(uint256)": {
        "details": "returns original ERC721 contract address for a token"
      },
      "getOwnersBYtokenId(uint256)": {
        "details": "returns the owners of a token"
      },
      "getTokenData(uint256)": {
        "details": "returns relevant token data: - original ERC721 contract address - original ERC721 token id - amount of fractions minted"
      },
      "getTokenIds()": {
        "details": "returns all ERC1155 tokenIds managed by this contract"
      },
      "getTokenIdsByShareOwner(address)": {
        "details": "returns the ERC1155 tokenIds that the shareOwner has shares in"
      },
      "getTotalFractionsAmount(uint256)": {
        "details": "returns amount of fractions minted for a token"
      },
      "isApprovedForAll(address,address)": {
        "details": "See {IERC1155-isApprovedForAll}."
      },
      "mint(address,uint256,uint256,uint256,uint256,address,string)": {
        "details": "when someone transfers his tokens from the other chain to this chain the bridge contract will call this mint function Requirements: - only the owner (the bridge contract) can call - the contract is not paused"
      },
      "owner()": {
        "details": "Returns the address of the current owner."
      },
      "paused()": {
        "details": "Returns true if the contract is paused, and false otherwise."
      },
      "renounceOwnership()": {
        "details": "Leaves the contract without owner. It will not be possible to call `onlyOwner` functions anymore. Can only be called by the current owner. NOTE: Renouncing ownership will leave the contract without an owner, thereby removing any functionality that is only available to the owner."
      },
      "safeBatchTransferFrom(address,address,uint256[],uint256[],bytes)": {
        "details": "See {IERC1155-safeBatchTransferFrom}."
      },
      "safeTransferFrom(address,address,uint256,uint256,bytes)": {
        "details": "See {IERC1155-safeTransferFrom}."
      },
      "setApprovalForAll(address,bool)": {
        "details": "See {IERC1155-setApprovalForAll}."
      },
      "supportsInterface(bytes4)": {
        "details": "See {IERC165-supportsInterface}."
      },
      "transferFrom(address,address,uint256,uint256,bytes)": {
        "details": "same as safeTransferFrom in ERC1155 with updating the internal data structures: - updates the ownersByTokenId data structure - updates the tokenIdsByShareOwner data structure"
      },
      "transferOwnership(address)": {
        "details": "Transfers ownership of the contract to a new account (`newOwner`). Can only be called by the current owner."
      },
      "uri(uint256)": {
        "details": "See {IERC1155MetadataURI-uri}. This implementation returns the same URI for *all* token types. It relies on the token type ID substitution mechanism https://eips.ethereum.org/EIPS/eip-1155#metadata[defined in the EIP]. Clients calling this function must replace the `\\{id\\}` substring with the actual token type ID."
      },
      "withdrawNft(uint256)": {
        "details": "Withdraw an ERC721 token from this contract. The message sender has to own all of the shares in the correspondign ERC1155 token. Successfull withdraw means: - burning the ERC1155 token - transfering the ERC721 token to the owner (msg.sender) = owner of all shares in the ERC1155 token Requirements: - msg.sender has to own all shares in the corresponding ERC1155 token - the contract is not paused"
      }
    },
    "version": 1
  },
  "userdoc": {
    "kind": "user",
    "methods": {},
    "version": 1
  }
}