{
  "contractName": "BscDex",
  "abi": [
    {
      "anonymous": false,
      "inputs": [
        {
          "indexed": true,
          "internalType": "address",
          "name": "previousOwner",
          "type": "address"
        },
        {
          "indexed": true,
          "internalType": "address",
          "name": "newOwner",
          "type": "address"
        }
      ],
      "name": "OwnershipTransferred",
      "type": "event"
    },
    {
      "anonymous": false,
      "inputs": [
        {
          "indexed": false,
          "internalType": "address",
          "name": "account",
          "type": "address"
        }
      ],
      "name": "Paused",
      "type": "event"
    },
    {
      "anonymous": false,
      "inputs": [
        {
          "indexed": false,
          "internalType": "address",
          "name": "account",
          "type": "address"
        }
      ],
      "name": "Unpaused",
      "type": "event"
    },
    {
      "inputs": [],
      "name": "__DexBase_init",
      "outputs": [],
      "stateMutability": "nonpayable",
      "type": "function"
    },
    {
      "inputs": [
        {
          "internalType": "uint256",
          "name": "tokenId",
          "type": "uint256"
        },
        {
          "internalType": "uint256",
          "name": "amount",
          "type": "uint256"
        },
        {
          "internalType": "uint256",
          "name": "price",
          "type": "uint256"
        },
        {
          "internalType": "enum DexBase.Side",
          "name": "side",
          "type": "uint8"
        }
      ],
      "name": "createLimitOrder",
      "outputs": [],
      "stateMutability": "nonpayable",
      "type": "function"
    },
    {
      "inputs": [
        {
          "internalType": "uint256",
          "name": "tokenId",
          "type": "uint256"
        },
        {
          "internalType": "uint256",
          "name": "amount",
          "type": "uint256"
        },
        {
          "internalType": "enum DexBase.Side",
          "name": "side",
          "type": "uint8"
        }
      ],
      "name": "createMarketOrder",
      "outputs": [],
      "stateMutability": "nonpayable",
      "type": "function"
    },
    {
      "inputs": [
        {
          "internalType": "uint256",
          "name": "tokenId",
          "type": "uint256"
        },
        {
          "internalType": "enum DexBase.Side",
          "name": "side",
          "type": "uint8"
        },
        {
          "internalType": "uint256",
          "name": "orderId",
          "type": "uint256"
        }
      ],
      "name": "deleteOrder",
      "outputs": [],
      "stateMutability": "nonpayable",
      "type": "function"
    },
    {
      "inputs": [],
      "name": "depositEth",
      "outputs": [],
      "stateMutability": "payable",
      "type": "function"
    },
    {
      "inputs": [],
      "name": "owner",
      "outputs": [
        {
          "internalType": "address",
          "name": "",
          "type": "address"
        }
      ],
      "stateMutability": "view",
      "type": "function"
    },
    {
      "inputs": [],
      "name": "pause",
      "outputs": [],
      "stateMutability": "nonpayable",
      "type": "function"
    },
    {
      "inputs": [],
      "name": "paused",
      "outputs": [
        {
          "internalType": "bool",
          "name": "",
          "type": "bool"
        }
      ],
      "stateMutability": "view",
      "type": "function"
    },
    {
      "inputs": [],
      "name": "renounceOwnership",
      "outputs": [],
      "stateMutability": "nonpayable",
      "type": "function"
    },
    {
      "inputs": [
        {
          "internalType": "address",
          "name": "nftFractionsRepositoryAddress",
          "type": "address"
        }
      ],
      "name": "setNftFractionsRepository",
      "outputs": [],
      "stateMutability": "nonpayable",
      "type": "function"
    },
    {
      "inputs": [
        {
          "internalType": "address",
          "name": "newOwner",
          "type": "address"
        }
      ],
      "name": "transferOwnership",
      "outputs": [],
      "stateMutability": "nonpayable",
      "type": "function"
    },
    {
      "inputs": [
        {
          "internalType": "uint256",
          "name": "amount",
          "type": "uint256"
        }
      ],
      "name": "withdrawEth",
      "outputs": [],
      "stateMutability": "nonpayable",
      "type": "function"
    },
    {
      "inputs": [],
      "name": "initialize",
      "outputs": [],
      "stateMutability": "nonpayable",
      "type": "function"
    },
    {
      "inputs": [
        {
          "internalType": "uint256",
          "name": "tokenId",
          "type": "uint256"
        },
        {
          "internalType": "enum DexBase.Side",
          "name": "side",
          "type": "uint8"
        }
      ],
      "name": "getOrders",
      "outputs": [
        {
          "components": [
            {
              "internalType": "uint256",
              "name": "id",
              "type": "uint256"
            },
            {
              "internalType": "address",
              "name": "trader",
              "type": "address"
            },
            {
              "internalType": "enum DexBase.Side",
              "name": "side",
              "type": "uint8"
            },
            {
              "internalType": "uint256",
              "name": "tokenId",
              "type": "uint256"
            },
            {
              "internalType": "uint256",
              "name": "amount",
              "type": "uint256"
            },
            {
              "internalType": "uint256",
              "name": "filled",
              "type": "uint256"
            },
            {
              "internalType": "uint256",
              "name": "price",
              "type": "uint256"
            },
            {
              "internalType": "uint256",
              "name": "date",
              "type": "uint256"
            }
          ],
          "internalType": "struct DexBase.Order[]",
          "name": "",
          "type": "tuple[]"
        }
      ],
      "stateMutability": "view",
      "type": "function"
    },
    {
      "inputs": [
        {
          "internalType": "address",
          "name": "owner",
          "type": "address"
        }
      ],
      "name": "getEthBalance",
      "outputs": [
        {
          "internalType": "uint256",
          "name": "",
          "type": "uint256"
        }
      ],
      "stateMutability": "view",
      "type": "function"
    },
    {
      "inputs": [
        {
          "internalType": "address",
          "name": "owner",
          "type": "address"
        }
      ],
      "name": "getEthReserveBalance",
      "outputs": [
        {
          "internalType": "uint256",
          "name": "",
          "type": "uint256"
        }
      ],
      "stateMutability": "view",
      "type": "function"
    },
    {
      "inputs": [
        {
          "internalType": "address",
          "name": "owner",
          "type": "address"
        },
        {
          "internalType": "uint256",
          "name": "tokenId",
          "type": "uint256"
        }
      ],
      "name": "getSharesReserveBalance",
      "outputs": [
        {
          "internalType": "uint256",
          "name": "",
          "type": "uint256"
        }
      ],
      "stateMutability": "view",
      "type": "function"
    }
  ],
  "bytecode": "0x608060405234801561001057600080fd5b50615159806100206000396000f3fe6080604052600436106100fe5760003560e01c80638456cb5911610095578063b85b9e4011610064578063b85b9e40146102da578063b8737fba146102f1578063c311d0491461032e578063f2fde38b14610357578063fbe2767414610380576100fe565b80638456cb59146102325780638da5cb5b146102495780639c793bac14610274578063b141bd391461029d576100fe565b806354c0cde4116100d157806354c0cde4146101b05780635c975abb146101d9578063715018a6146102045780638129fc1c1461021b576100fe565b80630bbf2085146101035780631f9af29c1461012c578063439370b1146101695780634d2301cc14610173575b600080fd5b34801561010f57600080fd5b5061012a60048036038101906101259190614632565b6103a9565b005b34801561013857600080fd5b50610153600480360381019061014e9190614478565b6112b9565b6040516101609190614e39565b60405180910390f35b610171611302565b005b34801561017f57600080fd5b5061019a60048036038101906101959190614478565b6113eb565b6040516101a79190614e39565b60405180910390f35b3480156101bc57600080fd5b506101d760048036038101906101d291906145e3565b611434565b005b3480156101e557600080fd5b506101ee612dc8565b6040516101fb9190614c9e565b60405180910390f35b34801561021057600080fd5b50610219612ddf565b005b34801561022757600080fd5b50610230612f1c565b005b34801561023e57600080fd5b50610247612ffd565b005b34801561025557600080fd5b5061025e613083565b60405161026b9190614be0565b60405180910390f35b34801561028057600080fd5b5061029b60048036038101906102969190614594565b6130ad565b005b3480156102a957600080fd5b506102c460048036038101906102bf9190614558565b6137ec565b6040516102d19190614c7c565b60405180910390f35b3480156102e657600080fd5b506102ef6139c2565b005b3480156102fd57600080fd5b50610318600480360381019061031391906144ca565b613ab3565b6040516103259190614e39565b60405180910390f35b34801561033a57600080fd5b5061035560048036038101906103509190614506565b613b0e565b005b34801561036357600080fd5b5061037e60048036038101906103799190614478565b613d61565b005b34801561038c57600080fd5b506103a760048036038101906103a29190614478565b613f0d565b005b83600060cf60009054906101000a900473ffffffffffffffffffffffffffffffffffffffff1673ffffffffffffffffffffffffffffffffffffffff166366d0330c836040518263ffffffff1660e01b81526004016104079190614e39565b602060405180830381600087803b15801561042157600080fd5b505af1158015610435573d6000803e3d6000fd5b505050506040513d601f19601f8201168201806040525081019061045991906144a1565b9050600073ffffffffffffffffffffffffffffffffffffffff168173ffffffffffffffffffffffffffffffffffffffff1614156104cb576040517f08c379a00000000000000000000000000000000000000000000000000000000081526004016104c290614df9565b60405180910390fd5b6104d3612dc8565b15610513576040517f08c379a000000000000000000000000000000000000000000000000000000000815260040161050a90614e19565b60405180910390fd5b60018081111561054c577f4e487b7100000000000000000000000000000000000000000000000000000000600052602160045260246000fd5b836001811115610585577f4e487b7100000000000000000000000000000000000000000000000000000000600052602160045260246000fd5b141561074657600060cf60009054906101000a900473ffffffffffffffffffffffffffffffffffffffff1673ffffffffffffffffffffffffffffffffffffffff1662fdd58e33896040518363ffffffff1660e01b81526004016105e9929190614c53565b60206040518083038186803b15801561060157600080fd5b505afa158015610615573d6000803e3d6000fd5b505050506040513d601f19601f82011682018060405250810190610639919061452f565b90508581101561067e576040517f08c379a000000000000000000000000000000000000000000000000000000000815260040161067590614d99565b60405180910390fd5b8560ce60003373ffffffffffffffffffffffffffffffffffffffff1673ffffffffffffffffffffffffffffffffffffffff168152602001908152602001600020600089815260200190815260200160002060008282546106de9190614eaf565b92505081905550610740338860ce60003373ffffffffffffffffffffffffffffffffffffffff1673ffffffffffffffffffffffffffffffffffffffff16815260200190815260200160002060008b815260200190815260200160002054613fcd565b506109bd565b600060cf60009054906101000a900473ffffffffffffffffffffffffffffffffffffffff1673ffffffffffffffffffffffffffffffffffffffff166333d59207886040518263ffffffff1660e01b81526004016107a39190614e39565b602060405180830381600087803b1580156107bd57600080fd5b505af11580156107d1573d6000803e3d6000fd5b505050506040513d601f19601f820116820180604052508101906107f5919061452f565b90508581101561083a576040517f08c379a000000000000000000000000000000000000000000000000000000000815260040161083190614db9565b60405180910390fd5b84866108469190614f05565b60cc60003373ffffffffffffffffffffffffffffffffffffffff1673ffffffffffffffffffffffffffffffffffffffff1681526020019081526020016000205460cb60003373ffffffffffffffffffffffffffffffffffffffff1673ffffffffffffffffffffffffffffffffffffffff168152602001908152602001600020546108d09190614f5f565b1015610911576040517f08c379a000000000000000000000000000000000000000000000000000000000815260040161090890614d19565b60405180910390fd5b848661091d9190614f05565b60cc60003373ffffffffffffffffffffffffffffffffffffffff1673ffffffffffffffffffffffffffffffffffffffff168152602001908152602001600020600082825461096b9190614eaf565b925050819055506109bb3360cc60003373ffffffffffffffffffffffffffffffffffffffff1673ffffffffffffffffffffffffffffffffffffffff16815260200190815260200160002054613fd2565b505b600060cd60008881526020019081526020016000206000856001811115610a0d577f4e487b7100000000000000000000000000000000000000000000000000000000600052602160045260246000fd5b81526020019081526020016000209050610a2760c9613fd6565b6000610a3360c9613fec565b9050816040518061010001604052808381526020013373ffffffffffffffffffffffffffffffffffffffff168152602001876001811115610a9d577f4e487b7100000000000000000000000000000000000000000000000000000000600052602160045260246000fd5b81526020018a8152602001898152602001600081526020018881526020014281525090806001815401808255809150506001900390600052602060002090600702016000909190919091506000820151816000015560208201518160010160006101000a81548173ffffffffffffffffffffffffffffffffffffffff021916908373ffffffffffffffffffffffffffffffffffffffff16021790555060408201518160010160146101000a81548160ff02191690836001811115610b8a577f4e487b7100000000000000000000000000000000000000000000000000000000600052602160045260246000fd5b0217905550606082015181600201556080820151816003015560a0820151816004015560c0820151816005015560e082015181600601555050610bd48133878b8b60008c42613ffa565b600080838054905011610be8576000610bfa565b60018380549050610bf99190614f5f565b5b90505b60008111156112ae5760006001811115610c40577f4e487b7100000000000000000000000000000000000000000000000000000000600052602160045260246000fd5b866001811115610c79577f4e487b7100000000000000000000000000000000000000000000000000000000600052602160045260246000fd5b148015610d255750828181548110610cba577f4e487b7100000000000000000000000000000000000000000000000000000000600052603260045260246000fd5b90600052602060002090600702016005015483600183610cda9190614f5f565b81548110610d11577f4e487b7100000000000000000000000000000000000000000000000000000000600052603260045260246000fd5b906000526020600020906007020160050154115b15610d2f576112ae565b600180811115610d68577f4e487b7100000000000000000000000000000000000000000000000000000000600052602160045260246000fd5b866001811115610da1577f4e487b7100000000000000000000000000000000000000000000000000000000600052602160045260246000fd5b148015610e4d5750828181548110610de2577f4e487b7100000000000000000000000000000000000000000000000000000000600052603260045260246000fd5b90600052602060002090600702016005015483600183610e029190614f5f565b81548110610e39577f4e487b7100000000000000000000000000000000000000000000000000000000600052603260045260246000fd5b906000526020600020906007020160050154105b15610e57576112ae565b600083600183610e679190614f5f565b81548110610e9e577f4e487b7100000000000000000000000000000000000000000000000000000000600052603260045260246000fd5b906000526020600020906007020160405180610100016040529081600082015481526020016001820160009054906101000a900473ffffffffffffffffffffffffffffffffffffffff1673ffffffffffffffffffffffffffffffffffffffff1673ffffffffffffffffffffffffffffffffffffffff1681526020016001820160149054906101000a900460ff166001811115610f63577f4e487b7100000000000000000000000000000000000000000000000000000000600052602160045260246000fd5b6001811115610f9b577f4e487b7100000000000000000000000000000000000000000000000000000000600052602160045260246000fd5b815260200160028201548152602001600382015481526020016004820154815260200160058201548152602001600682015481525050905083828154811061100c577f4e487b7100000000000000000000000000000000000000000000000000000000600052603260045260246000fd5b9060005260206000209060070201846001846110289190614f5f565b8154811061105f577f4e487b7100000000000000000000000000000000000000000000000000000000600052603260045260246000fd5b9060005260206000209060070201600082015481600001556001820160009054906101000a900473ffffffffffffffffffffffffffffffffffffffff168160010160006101000a81548173ffffffffffffffffffffffffffffffffffffffff021916908373ffffffffffffffffffffffffffffffffffffffff1602179055506001820160149054906101000a900460ff168160010160146101000a81548160ff0219169083600181111561113c577f4e487b7100000000000000000000000000000000000000000000000000000000600052602160045260246000fd5b02179055506002820154816002015560038201548160030155600482015481600401556005820154816005015560068201548160060155905050808483815481106111b0577f4e487b7100000000000000000000000000000000000000000000000000000000600052603260045260246000fd5b90600052602060002090600702016000820151816000015560208201518160010160006101000a81548173ffffffffffffffffffffffffffffffffffffffff021916908373ffffffffffffffffffffffffffffffffffffffff16021790555060408201518160010160146101000a81548160ff02191690836001811115611260577f4e487b7100000000000000000000000000000000000000000000000000000000600052602160045260246000fd5b0217905550606082015181600201556080820151816003015560a0820151816004015560c0820151816005015560e0820151816006015590505081806112a590615000565b92505050610bfd565b505050505050505050565b600060cc60008373ffffffffffffffffffffffffffffffffffffffff1673ffffffffffffffffffffffffffffffffffffffff168152602001908152602001600020549050919050565b61130a612dc8565b1561134a576040517f08c379a000000000000000000000000000000000000000000000000000000000815260040161134190614e19565b60405180910390fd5b3460cb60003373ffffffffffffffffffffffffffffffffffffffff1673ffffffffffffffffffffffffffffffffffffffff16815260200190815260200160002060008282546113999190614eaf565b925050819055506113e93360cb60003373ffffffffffffffffffffffffffffffffffffffff1673ffffffffffffffffffffffffffffffffffffffff16815260200190815260200160002054614004565b565b600060cb60008373ffffffffffffffffffffffffffffffffffffffff1673ffffffffffffffffffffffffffffffffffffffff168152602001908152602001600020549050919050565b82600060cf60009054906101000a900473ffffffffffffffffffffffffffffffffffffffff1673ffffffffffffffffffffffffffffffffffffffff166366d0330c836040518263ffffffff1660e01b81526004016114929190614e39565b602060405180830381600087803b1580156114ac57600080fd5b505af11580156114c0573d6000803e3d6000fd5b505050506040513d601f19601f820116820180604052508101906114e491906144a1565b9050600073ffffffffffffffffffffffffffffffffffffffff168173ffffffffffffffffffffffffffffffffffffffff161415611556576040517f08c379a000000000000000000000000000000000000000000000000000000000815260040161154d90614df9565b60405180910390fd5b61155e612dc8565b1561159e576040517f08c379a000000000000000000000000000000000000000000000000000000000815260040161159590614e19565b60405180910390fd5b6001808111156115d7577f4e487b7100000000000000000000000000000000000000000000000000000000600052602160045260246000fd5b836001811115611610577f4e487b7100000000000000000000000000000000000000000000000000000000600052602160045260246000fd5b141561170b57600060cf60009054906101000a900473ffffffffffffffffffffffffffffffffffffffff1673ffffffffffffffffffffffffffffffffffffffff1662fdd58e33886040518363ffffffff1660e01b8152600401611674929190614c53565b60206040518083038186803b15801561168c57600080fd5b505afa1580156116a0573d6000803e3d6000fd5b505050506040513d601f19601f820116820180604052508101906116c4919061452f565b905084811015611709576040517f08c379a000000000000000000000000000000000000000000000000000000000815260040161170090614d99565b60405180910390fd5b505b600060cd6000878152602001908152602001600020600080600181111561175b577f4e487b7100000000000000000000000000000000000000000000000000000000600052602160045260246000fd5b866001811115611794577f4e487b7100000000000000000000000000000000000000000000000000000000600052602160045260246000fd5b146117a05760006117a3565b60015b60018111156117db577f4e487b7100000000000000000000000000000000000000000000000000000000600052602160045260246000fd5b815260200190815260200160002090506000808690505b8280549050821080156118055750600081115b15612a18576000838381548110611845577f4e487b7100000000000000000000000000000000000000000000000000000000600052603260045260246000fd5b906000526020600020906007020160040154848481548110611890577f4e487b7100000000000000000000000000000000000000000000000000000000600052603260045260246000fd5b9060005260206000209060070201600301546118ac9190614f5f565b905060008183116118bd57826118bf565b815b905080836118cd9190614f5f565b925080858581548110611909577f4e487b7100000000000000000000000000000000000000000000000000000000600052603260045260246000fd5b9060005260206000209060070201600401546119259190614eaf565b85858154811061195e577f4e487b7100000000000000000000000000000000000000000000000000000000600052603260045260246000fd5b90600052602060002090600702016004018190555061197d60ca613fd6565b600061198960ca613fec565b9050611a99818787815481106119c8577f4e487b7100000000000000000000000000000000000000000000000000000000600052603260045260246000fd5b9060005260206000209060070201600001548d898981548110611a14577f4e487b7100000000000000000000000000000000000000000000000000000000600052603260045260246000fd5b906000526020600020906007020160010160009054906101000a900473ffffffffffffffffffffffffffffffffffffffff1633878c8c81548110611a81577f4e487b7100000000000000000000000000000000000000000000000000000000600052603260045260246000fd5b90600052602060002090600702016005015442614008565b611cdc868681548110611ad5577f4e487b7100000000000000000000000000000000000000000000000000000000600052603260045260246000fd5b906000526020600020906007020160000154878781548110611b20577f4e487b7100000000000000000000000000000000000000000000000000000000600052603260045260246000fd5b906000526020600020906007020160010160009054906101000a900473ffffffffffffffffffffffffffffffffffffffff16888881548110611b8b577f4e487b7100000000000000000000000000000000000000000000000000000000600052603260045260246000fd5b906000526020600020906007020160010160149054906101000a900460ff16898981548110611be3577f4e487b7100000000000000000000000000000000000000000000000000000000600052603260045260246000fd5b9060005260206000209060070201600201548a8a81548110611c2e577f4e487b7100000000000000000000000000000000000000000000000000000000600052603260045260246000fd5b9060005260206000209060070201600301548b8b81548110611c79577f4e487b7100000000000000000000000000000000000000000000000000000000600052603260045260246000fd5b9060005260206000209060070201600401548c8c81548110611cc4577f4e487b7100000000000000000000000000000000000000000000000000000000600052603260045260246000fd5b90600052602060002090600702016005015442613ffa565b600180811115611d15577f4e487b7100000000000000000000000000000000000000000000000000000000600052602160045260246000fd5b896001811115611d4e577f4e487b7100000000000000000000000000000000000000000000000000000000600052602160045260246000fd5b14156122445760cf60009054906101000a900473ffffffffffffffffffffffffffffffffffffffff1673ffffffffffffffffffffffffffffffffffffffff1663605105f033888881548110611dcc577f4e487b7100000000000000000000000000000000000000000000000000000000600052603260045260246000fd5b906000526020600020906007020160010160009054906101000a900473ffffffffffffffffffffffffffffffffffffffff168e866040518563ffffffff1660e01b8152600401611e1f9493929190614bfb565b600060405180830381600087803b158015611e3957600080fd5b505af1158015611e4d573d6000803e3d6000fd5b5050505081868681548110611e8b577f4e487b7100000000000000000000000000000000000000000000000000000000600052603260045260246000fd5b906000526020600020906007020160050154611ea79190614f05565b60cb60003373ffffffffffffffffffffffffffffffffffffffff1673ffffffffffffffffffffffffffffffffffffffff1681526020019081526020016000206000828254611ef59190614eaf565b9250508190555081868681548110611f36577f4e487b7100000000000000000000000000000000000000000000000000000000600052603260045260246000fd5b906000526020600020906007020160050154611f529190614f05565b60cb6000888881548110611f8f577f4e487b7100000000000000000000000000000000000000000000000000000000600052603260045260246000fd5b906000526020600020906007020160010160009054906101000a900473ffffffffffffffffffffffffffffffffffffffff1673ffffffffffffffffffffffffffffffffffffffff1673ffffffffffffffffffffffffffffffffffffffff168152602001908152602001600020600082825461200a9190614f5f565b925050819055508186868154811061204b577f4e487b7100000000000000000000000000000000000000000000000000000000600052603260045260246000fd5b9060005260206000209060070201600501546120679190614f05565b60cc60008888815481106120a4577f4e487b7100000000000000000000000000000000000000000000000000000000600052603260045260246000fd5b906000526020600020906007020160010160009054906101000a900473ffffffffffffffffffffffffffffffffffffffff1673ffffffffffffffffffffffffffffffffffffffff1673ffffffffffffffffffffffffffffffffffffffff168152602001908152602001600020600082825461211f9190614f5f565b92505081905550612243868681548110612162577f4e487b7100000000000000000000000000000000000000000000000000000000600052603260045260246000fd5b906000526020600020906007020160010160009054906101000a900473ffffffffffffffffffffffffffffffffffffffff1660cc60008989815481106121d1577f4e487b7100000000000000000000000000000000000000000000000000000000600052603260045260246000fd5b906000526020600020906007020160010160009054906101000a900473ffffffffffffffffffffffffffffffffffffffff1673ffffffffffffffffffffffffffffffffffffffff1673ffffffffffffffffffffffffffffffffffffffff16815260200190815260200160002054613fd2565b5b6000600181111561227e577f4e487b7100000000000000000000000000000000000000000000000000000000600052602160045260246000fd5b8960018111156122b7577f4e487b7100000000000000000000000000000000000000000000000000000000600052602160045260246000fd5b141561289c57818686815481106122f7577f4e487b7100000000000000000000000000000000000000000000000000000000600052603260045260246000fd5b9060005260206000209060070201600501546123139190614f05565b60cc60003373ffffffffffffffffffffffffffffffffffffffff1673ffffffffffffffffffffffffffffffffffffffff1681526020019081526020016000205460cb60003373ffffffffffffffffffffffffffffffffffffffff1673ffffffffffffffffffffffffffffffffffffffff1681526020019081526020016000205461239d9190614f5f565b10156123de576040517f08c379a00000000000000000000000000000000000000000000000000000000081526004016123d590614d19565b60405180910390fd5b60cf60009054906101000a900473ffffffffffffffffffffffffffffffffffffffff1673ffffffffffffffffffffffffffffffffffffffff1663605105f0878781548110612455577f4e487b7100000000000000000000000000000000000000000000000000000000600052603260045260246000fd5b906000526020600020906007020160010160009054906101000a900473ffffffffffffffffffffffffffffffffffffffff16338e866040518563ffffffff1660e01b81526004016124a99493929190614bfb565b600060405180830381600087803b1580156124c357600080fd5b505af11580156124d7573d6000803e3d6000fd5b5050505081868681548110612515577f4e487b7100000000000000000000000000000000000000000000000000000000600052603260045260246000fd5b9060005260206000209060070201600501546125319190614f05565b60cb60003373ffffffffffffffffffffffffffffffffffffffff1673ffffffffffffffffffffffffffffffffffffffff168152602001908152602001600020600082825461257f9190614f5f565b92505081905550818686815481106125c0577f4e487b7100000000000000000000000000000000000000000000000000000000600052603260045260246000fd5b9060005260206000209060070201600501546125dc9190614f05565b60cb6000888881548110612619577f4e487b7100000000000000000000000000000000000000000000000000000000600052603260045260246000fd5b906000526020600020906007020160010160009054906101000a900473ffffffffffffffffffffffffffffffffffffffff1673ffffffffffffffffffffffffffffffffffffffff1673ffffffffffffffffffffffffffffffffffffffff16815260200190815260200160002060008282546126949190614eaf565b925050819055508160ce60008888815481106126d9577f4e487b7100000000000000000000000000000000000000000000000000000000600052603260045260246000fd5b906000526020600020906007020160010160009054906101000a900473ffffffffffffffffffffffffffffffffffffffff1673ffffffffffffffffffffffffffffffffffffffff1673ffffffffffffffffffffffffffffffffffffffff16815260200190815260200160002060008d815260200190815260200160002060008282546127659190614f5f565b9250508190555061289b8686815481106127a8577f4e487b7100000000000000000000000000000000000000000000000000000000600052603260045260246000fd5b906000526020600020906007020160010160009054906101000a900473ffffffffffffffffffffffffffffffffffffffff168c60ce60008a8a81548110612818577f4e487b7100000000000000000000000000000000000000000000000000000000600052603260045260246000fd5b906000526020600020906007020160010160009054906101000a900473ffffffffffffffffffffffffffffffffffffffff1673ffffffffffffffffffffffffffffffffffffffff1673ffffffffffffffffffffffffffffffffffffffff16815260200190815260200160002060008f815260200190815260200160002054613fcd565b5b6128e53360cb60003373ffffffffffffffffffffffffffffffffffffffff1673ffffffffffffffffffffffffffffffffffffffff16815260200190815260200160002054614004565b612a02868681548110612921577f4e487b7100000000000000000000000000000000000000000000000000000000600052603260045260246000fd5b906000526020600020906007020160010160009054906101000a900473ffffffffffffffffffffffffffffffffffffffff1660cb6000898981548110612990577f4e487b7100000000000000000000000000000000000000000000000000000000600052603260045260246000fd5b906000526020600020906007020160010160009054906101000a900473ffffffffffffffffffffffffffffffffffffffff1673ffffffffffffffffffffffffffffffffffffffff1673ffffffffffffffffffffffffffffffffffffffff16815260200190815260200160002054614004565b8480612a0d9061502a565b9550505050506117f2565b600091505b828054905082108015612ac35750828281548110612a64577f4e487b7100000000000000000000000000000000000000000000000000000000600052603260045260246000fd5b906000526020600020906007020160030154838381548110612aaf577f4e487b7100000000000000000000000000000000000000000000000000000000600052603260045260246000fd5b906000526020600020906007020160040154145b15612dbe57612b1b838381548110612b04577f4e487b7100000000000000000000000000000000000000000000000000000000600052603260045260246000fd5b906000526020600020906007020160000154614012565b60008290505b60018480549050612b329190614f5f565b811015612cef5783600182612b479190614eaf565b81548110612b7e577f4e487b7100000000000000000000000000000000000000000000000000000000600052603260045260246000fd5b9060005260206000209060070201848281548110612bc5577f4e487b7100000000000000000000000000000000000000000000000000000000600052603260045260246000fd5b9060005260206000209060070201600082015481600001556001820160009054906101000a900473ffffffffffffffffffffffffffffffffffffffff168160010160006101000a81548173ffffffffffffffffffffffffffffffffffffffff021916908373ffffffffffffffffffffffffffffffffffffffff1602179055506001820160149054906101000a900460ff168160010160146101000a81548160ff02191690836001811115612ca2577f4e487b7100000000000000000000000000000000000000000000000000000000600052602160045260246000fd5b021790555060028201548160020155600382015481600301556004820154816004015560058201548160050155600682015481600601559050508080612ce79061502a565b915050612b21565b5082805480612d27577f4e487b7100000000000000000000000000000000000000000000000000000000600052603160045260246000fd5b60019003818190600052602060002090600702016000808201600090556001820160006101000a81549073ffffffffffffffffffffffffffffffffffffffff02191690556001820160146101000a81549060ff021916905560028201600090556003820160009055600482016000905560058201600090556006820160009055505090558180612db69061502a565b925050612a1d565b5050505050505050565b6000603360009054906101000a900460ff16905090565b612de7614015565b73ffffffffffffffffffffffffffffffffffffffff16612e05613083565b73ffffffffffffffffffffffffffffffffffffffff1614612e5b576040517f08c379a0000000000000000000000000000000000000000000000000000000008152600401612e5290614d39565b60405180910390fd5b600073ffffffffffffffffffffffffffffffffffffffff16606560009054906101000a900473ffffffffffffffffffffffffffffffffffffffff1673ffffffffffffffffffffffffffffffffffffffff167f8be0079c531659141344cd1fd0a4f28419497f9722a3daafe3b4186f6b6457e060405160405180910390a36000606560006101000a81548173ffffffffffffffffffffffffffffffffffffffff021916908373ffffffffffffffffffffffffffffffffffffffff160217905550565b600060019054906101000a900460ff1680612f42575060008054906101000a900460ff16155b612f81576040517f08c379a0000000000000000000000000000000000000000000000000000000008152600401612f7890614cf9565b60405180910390fd5b60008060019054906101000a900460ff161590508015612fd1576001600060016101000a81548160ff02191690831515021790555060016000806101000a81548160ff0219169083151502179055505b612fd96139c2565b8015612ffa5760008060016101000a81548160ff0219169083151502179055505b50565b613005614015565b73ffffffffffffffffffffffffffffffffffffffff16613023613083565b73ffffffffffffffffffffffffffffffffffffffff1614613079576040517f08c379a000000000000000000000000000000000000000000000000000000000815260040161307090614d39565b60405180910390fd5b61308161401d565b565b6000606560009054906101000a900473ffffffffffffffffffffffffffffffffffffffff16905090565b600060cd600085815260200190815260200160002060008460018111156130fd577f4e487b7100000000000000000000000000000000000000000000000000000000600052602160045260246000fd5b8152602001908152602001600020905060005b81805490508110156137e55782828281548110613156577f4e487b7100000000000000000000000000000000000000000000000000000000600052603260045260246000fd5b90600052602060002090600702016000015414156137d2578181815481106131a7577f4e487b7100000000000000000000000000000000000000000000000000000000600052603260045260246000fd5b906000526020600020906007020160010160009054906101000a900473ffffffffffffffffffffffffffffffffffffffff1673ffffffffffffffffffffffffffffffffffffffff163373ffffffffffffffffffffffffffffffffffffffff1614613246576040517f08c379a000000000000000000000000000000000000000000000000000000000815260040161323d90614d79565b60405180910390fd5b60006001811115613280577f4e487b7100000000000000000000000000000000000000000000000000000000600052602160045260246000fd5b8282815481106132b9577f4e487b7100000000000000000000000000000000000000000000000000000000600052603260045260246000fd5b906000526020600020906007020160010160149054906101000a900460ff166001811115613310577f4e487b7100000000000000000000000000000000000000000000000000000000600052602160045260246000fd5b14156134595781818154811061334f577f4e487b7100000000000000000000000000000000000000000000000000000000600052603260045260246000fd5b90600052602060002090600702016005015482828154811061339a577f4e487b7100000000000000000000000000000000000000000000000000000000600052603260045260246000fd5b9060005260206000209060070201600301546133b69190614f05565b60cc60003373ffffffffffffffffffffffffffffffffffffffff1673ffffffffffffffffffffffffffffffffffffffff16815260200190815260200160002060008282546134049190614f5f565b925050819055506134543360cc60003373ffffffffffffffffffffffffffffffffffffffff1673ffffffffffffffffffffffffffffffffffffffff16815260200190815260200160002054613fd2565b613566565b818181548110613492577f4e487b7100000000000000000000000000000000000000000000000000000000600052603260045260246000fd5b90600052602060002090600702016003015460ce60003373ffffffffffffffffffffffffffffffffffffffff1673ffffffffffffffffffffffffffffffffffffffff168152602001908152602001600020600087815260200190815260200160002060008282546135039190614f5f565b92505081905550613565338660ce60003373ffffffffffffffffffffffffffffffffffffffff1673ffffffffffffffffffffffffffffffffffffffff168152602001908152602001600020600089815260200190815260200160002054613fcd565b5b81600183805490506135789190614f5f565b815481106135af577f4e487b7100000000000000000000000000000000000000000000000000000000600052603260045260246000fd5b90600052602060002090600702018282815481106135f6577f4e487b7100000000000000000000000000000000000000000000000000000000600052603260045260246000fd5b9060005260206000209060070201600082015481600001556001820160009054906101000a900473ffffffffffffffffffffffffffffffffffffffff168160010160006101000a81548173ffffffffffffffffffffffffffffffffffffffff021916908373ffffffffffffffffffffffffffffffffffffffff1602179055506001820160149054906101000a900460ff168160010160146101000a81548160ff021916908360018111156136d3577f4e487b7100000000000000000000000000000000000000000000000000000000600052602160045260246000fd5b0217905550600282015481600201556003820154816003015560048201548160040155600582015481600501556006820154816006015590505081805480613744577f4e487b7100000000000000000000000000000000000000000000000000000000600052603160045260246000fd5b60019003818190600052602060002090600702016000808201600090556001820160006101000a81549073ffffffffffffffffffffffffffffffffffffffff02191690556001820160146101000a81549060ff021916905560028201600090556003820160009055600482016000905560058201600090556006820160009055505090556137d183614012565b5b80806137dd9061502a565b915050613110565b5050505050565b606060cd6000848152602001908152602001600020600083600181111561383c577f4e487b7100000000000000000000000000000000000000000000000000000000600052602160045260246000fd5b8152602001908152602001600020805480602002602001604051908101604052809291908181526020016000905b828210156139b6578382906000526020600020906007020160405180610100016040529081600082015481526020016001820160009054906101000a900473ffffffffffffffffffffffffffffffffffffffff1673ffffffffffffffffffffffffffffffffffffffff1673ffffffffffffffffffffffffffffffffffffffff1681526020016001820160149054906101000a900460ff166001811115613939577f4e487b7100000000000000000000000000000000000000000000000000000000600052602160045260246000fd5b6001811115613971577f4e487b7100000000000000000000000000000000000000000000000000000000600052602160045260246000fd5b8152602001600282015481526020016003820154815260200160048201548152602001600582015481526020016006820154815250508152602001906001019061386a565b50505050905092915050565b600060019054906101000a900460ff16806139e8575060008054906101000a900460ff16155b613a27576040517f08c379a0000000000000000000000000000000000000000000000000000000008152600401613a1e90614cf9565b60405180910390fd5b60008060019054906101000a900460ff161590508015613a77576001600060016101000a81548160ff02191690831515021790555060016000806101000a81548160ff0219169083151502179055505b613a7f6140c0565b613a87614199565b613a8f61428d565b8015613ab05760008060016101000a81548160ff0219169083151502179055505b50565b600060ce60008473ffffffffffffffffffffffffffffffffffffffff1673ffffffffffffffffffffffffffffffffffffffff168152602001908152602001600020600083815260200190815260200160002054905092915050565b60026097541415613b54576040517f08c379a0000000000000000000000000000000000000000000000000000000008152600401613b4b90614dd9565b60405180910390fd5b6002609781905550613b64612dc8565b15613ba4576040517f08c379a0000000000000000000000000000000000000000000000000000000008152600401613b9b90614e19565b60405180910390fd5b8060cc60003373ffffffffffffffffffffffffffffffffffffffff1673ffffffffffffffffffffffffffffffffffffffff1681526020019081526020016000205460cb60003373ffffffffffffffffffffffffffffffffffffffff1673ffffffffffffffffffffffffffffffffffffffff16815260200190815260200160002054613c2f9190614f5f565b1015613c70576040517f08c379a0000000000000000000000000000000000000000000000000000000008152600401613c6790614d59565b60405180910390fd5b8060cb60003373ffffffffffffffffffffffffffffffffffffffff1673ffffffffffffffffffffffffffffffffffffffff1681526020019081526020016000206000828254613cbf9190614f5f565b925050819055503373ffffffffffffffffffffffffffffffffffffffff166108fc829081150290604051600060405180830381858888f19350505050158015613d0c573d6000803e3d6000fd5b50613d563360cb60003373ffffffffffffffffffffffffffffffffffffffff1673ffffffffffffffffffffffffffffffffffffffff16815260200190815260200160002054614004565b600160978190555050565b613d69614015565b73ffffffffffffffffffffffffffffffffffffffff16613d87613083565b73ffffffffffffffffffffffffffffffffffffffff1614613ddd576040517f08c379a0000000000000000000000000000000000000000000000000000000008152600401613dd490614d39565b60405180910390fd5b600073ffffffffffffffffffffffffffffffffffffffff168173ffffffffffffffffffffffffffffffffffffffff161415613e4d576040517f08c379a0000000000000000000000000000000000000000000000000000000008152600401613e4490614cb9565b60405180910390fd5b8073ffffffffffffffffffffffffffffffffffffffff16606560009054906101000a900473ffffffffffffffffffffffffffffffffffffffff1673ffffffffffffffffffffffffffffffffffffffff167f8be0079c531659141344cd1fd0a4f28419497f9722a3daafe3b4186f6b6457e060405160405180910390a380606560006101000a81548173ffffffffffffffffffffffffffffffffffffffff021916908373ffffffffffffffffffffffffffffffffffffffff16021790555050565b613f15614015565b73ffffffffffffffffffffffffffffffffffffffff16613f33613083565b73ffffffffffffffffffffffffffffffffffffffff1614613f89576040517f08c379a0000000000000000000000000000000000000000000000000000000008152600401613f8090614d39565b60405180910390fd5b8060cf60006101000a81548173ffffffffffffffffffffffffffffffffffffffff021916908373ffffffffffffffffffffffffffffffffffffffff16021790555050565b505050565b5050565b6001816000016000828254019250508190555050565b600081600001549050919050565b5050505050505050565b5050565b5050505050505050565b50565b600033905090565b614025612dc8565b15614065576040517f08c379a000000000000000000000000000000000000000000000000000000000815260040161405c90614cd9565b60405180910390fd5b6001603360006101000a81548160ff0219169083151502179055507f62e78cea01bee320cd4e420270b5ea74000d11b0c9f74754ebdbfc544b05a2586140a9614015565b6040516140b69190614be0565b60405180910390a1565b600060019054906101000a900460ff16806140e6575060008054906101000a900460ff16155b614125576040517f08c379a000000000000000000000000000000000000000000000000000000000815260040161411c90614cf9565b60405180910390fd5b60008060019054906101000a900460ff161590508015614175576001600060016101000a81548160ff02191690831515021790555060016000806101000a81548160ff0219169083151502179055505b80156141965760008060016101000a81548160ff0219169083151502179055505b50565b600060019054906101000a900460ff16806141bf575060008054906101000a900460ff16155b6141fe576040517f08c379a00000000000000000000000000000000000000000000000000000000081526004016141f590614cf9565b60405180910390fd5b60008060019054906101000a900460ff16159050801561424e576001600060016101000a81548160ff02191690831515021790555060016000806101000a81548160ff0219169083151502179055505b6000603360006101000a81548160ff021916908315150217905550801561428a5760008060016101000a81548160ff0219169083151502179055505b50565b600060019054906101000a900460ff16806142b3575060008054906101000a900460ff16155b6142f2576040517f08c379a00000000000000000000000000000000000000000000000000000000081526004016142e990614cf9565b60405180910390fd5b60008060019054906101000a900460ff161590508015614342576001600060016101000a81548160ff02191690831515021790555060016000806101000a81548160ff0219169083151502179055505b600061434c614015565b905080606560006101000a81548173ffffffffffffffffffffffffffffffffffffffff021916908373ffffffffffffffffffffffffffffffffffffffff1602179055508073ffffffffffffffffffffffffffffffffffffffff16600073ffffffffffffffffffffffffffffffffffffffff167f8be0079c531659141344cd1fd0a4f28419497f9722a3daafe3b4186f6b6457e060405160405180910390a350801561440c5760008060016101000a81548160ff0219169083151502179055505b50565b60008135905061441e816150e5565b92915050565b600081519050614433816150e5565b92915050565b600081359050614448816150fc565b92915050565b60008135905061445d8161510c565b92915050565b6000815190506144728161510c565b92915050565b60006020828403121561448a57600080fd5b60006144988482850161440f565b91505092915050565b6000602082840312156144b357600080fd5b60006144c184828501614424565b91505092915050565b600080604083850312156144dd57600080fd5b60006144eb8582860161440f565b92505060206144fc8582860161444e565b9150509250929050565b60006020828403121561451857600080fd5b60006145268482850161444e565b91505092915050565b60006020828403121561454157600080fd5b600061454f84828501614463565b91505092915050565b6000806040838503121561456b57600080fd5b60006145798582860161444e565b925050602061458a85828601614439565b9150509250929050565b6000806000606084860312156145a957600080fd5b60006145b78682870161444e565b93505060206145c886828701614439565b92505060406145d98682870161444e565b9150509250925092565b6000806000606084860312156145f857600080fd5b60006146068682870161444e565b93505060206146178682870161444e565b925050604061462886828701614439565b9150509250925092565b6000806000806080858703121561464857600080fd5b60006146568782880161444e565b94505060206146678782880161444e565b93505060406146788782880161444e565b925050606061468987828801614439565b91505092959194509250565b60006146a18383614b20565b6101008301905092915050565b6146b781614f93565b82525050565b6146c681614f93565b82525050565b60006146d782614e64565b6146e18185614e7c565b93506146ec83614e54565b8060005b8381101561471d5781516147048882614695565b975061470f83614e6f565b9250506001810190506146f0565b5085935050505092915050565b61473381614fa5565b82525050565b61474281614fee565b82525050565b6000614755602683614e9e565b91507f4f776e61626c653a206e6577206f776e657220697320746865207a65726f206160008301527f64647265737300000000000000000000000000000000000000000000000000006020830152604082019050919050565b60006147bb601083614e9e565b91507f5061757361626c653a20706175736564000000000000000000000000000000006000830152602082019050919050565b60006147fb602e83614e9e565b91507f496e697469616c697a61626c653a20636f6e747261637420697320616c72656160008301527f647920696e697469616c697a65640000000000000000000000000000000000006020830152604082019050919050565b6000614861601383614e9e565b91507f6574682062616c616e636520746f6f206c6f77000000000000000000000000006000830152602082019050919050565b60006148a1602083614e9e565b91507f4f776e61626c653a2063616c6c6572206973206e6f7420746865206f776e65726000830152602082019050919050565b60006148e1601983614e9e565b91507f4554482062616c616e6365206973206e6f7420656e6f756768000000000000006000830152602082019050919050565b6000614921602483614e9e565b91507f4f6e6c7920746865207472616465722063616e2064656c65746520686973206f60008301527f72646572000000000000000000000000000000000000000000000000000000006020830152604082019050919050565b6000614987600083614e8d565b9150600082019050919050565b60006149a1602983614e9e565b91507f6d6573736167652073656e646572277320746f6b656e2062616c616e6365206960008301527f7320746f6f206c6f7700000000000000000000000000000000000000000000006020830152604082019050919050565b6000614a07603883614e9e565b91507f746f74616c20616d6f756e74206f66206672616374696f6e73206973206c6f7760008301527f6572207468616e2074686520676976656e20616d6f756e7400000000000000006020830152604082019050919050565b6000614a6d601f83614e9e565b91507f5265656e7472616e637947756172643a207265656e7472616e742063616c6c006000830152602082019050919050565b6000614aad601983614e9e565b91507f7468697320746f6b656e20646f6573206e6f74206578697374000000000000006000830152602082019050919050565b6000614aed601883614e9e565b91507f4e6f7420616c6c6f776564207768696c652070617573656400000000000000006000830152602082019050919050565b61010082016000820151614b376000850182614bc2565b506020820151614b4a60208501826146ae565b506040820151614b5d6040850182614739565b506060820151614b706060850182614bc2565b506080820151614b836080850182614bc2565b5060a0820151614b9660a0850182614bc2565b5060c0820151614ba960c0850182614bc2565b5060e0820151614bbc60e0850182614bc2565b50505050565b614bcb81614fe4565b82525050565b614bda81614fe4565b82525050565b6000602082019050614bf560008301846146bd565b92915050565b600060a082019050614c1060008301876146bd565b614c1d60208301866146bd565b614c2a6040830185614bd1565b614c376060830184614bd1565b8181036080830152614c488161497a565b905095945050505050565b6000604082019050614c6860008301856146bd565b614c756020830184614bd1565b9392505050565b60006020820190508181036000830152614c9681846146cc565b905092915050565b6000602082019050614cb3600083018461472a565b92915050565b60006020820190508181036000830152614cd281614748565b9050919050565b60006020820190508181036000830152614cf2816147ae565b9050919050565b60006020820190508181036000830152614d12816147ee565b9050919050565b60006020820190508181036000830152614d3281614854565b9050919050565b60006020820190508181036000830152614d5281614894565b9050919050565b60006020820190508181036000830152614d72816148d4565b9050919050565b60006020820190508181036000830152614d9281614914565b9050919050565b60006020820190508181036000830152614db281614994565b9050919050565b60006020820190508181036000830152614dd2816149fa565b9050919050565b60006020820190508181036000830152614df281614a60565b9050919050565b60006020820190508181036000830152614e1281614aa0565b9050919050565b60006020820190508181036000830152614e3281614ae0565b9050919050565b6000602082019050614e4e6000830184614bd1565b92915050565b6000819050602082019050919050565b600081519050919050565b6000602082019050919050565b600082825260208201905092915050565b600082825260208201905092915050565b600082825260208201905092915050565b6000614eba82614fe4565b9150614ec583614fe4565b9250827fffffffffffffffffffffffffffffffffffffffffffffffffffffffffffffffff03821115614efa57614ef9615073565b5b828201905092915050565b6000614f1082614fe4565b9150614f1b83614fe4565b9250817fffffffffffffffffffffffffffffffffffffffffffffffffffffffffffffffff0483118215151615614f5457614f53615073565b5b828202905092915050565b6000614f6a82614fe4565b9150614f7583614fe4565b925082821015614f8857614f87615073565b5b828203905092915050565b6000614f9e82614fc4565b9050919050565b60008115159050919050565b6000819050614fbf826150d1565b919050565b600073ffffffffffffffffffffffffffffffffffffffff82169050919050565b6000819050919050565b6000614ff982614fb1565b9050919050565b600061500b82614fe4565b9150600082141561501f5761501e615073565b5b600182039050919050565b600061503582614fe4565b91507fffffffffffffffffffffffffffffffffffffffffffffffffffffffffffffffff82141561506857615067615073565b5b600182019050919050565b7f4e487b7100000000000000000000000000000000000000000000000000000000600052601160045260246000fd5b7f4e487b7100000000000000000000000000000000000000000000000000000000600052602160045260246000fd5b600281106150e2576150e16150a2565b5b50565b6150ee81614f93565b81146150f957600080fd5b50565b6002811061510957600080fd5b50565b61511581614fe4565b811461512057600080fd5b5056fea264697066735822122059c278f4bb837cc8c6bff02780ad127356076621a5ae1509cefce8ddd79f154c64736f6c63430008000033",
  "immutableReferences": {},
  "source": "// SPDX-License-Identifier: MIT\n\npragma solidity ^0.8.0;\n\nimport \"./DexBase.sol\";\n\ncontract BscDex is DexBase {\n    function initialize() public initializer {\n        __DexBase_init();\n    }\n\n    /**\n     * @dev returns the orders of the token and side\n     */\n    function getOrders(uint256 tokenId, Side side)\n        external\n        view\n        returns (Order[] memory)\n    {\n        return orderBook[tokenId][uint256(side)];\n    }\n\n    /**\n     * @dev returns the ETH balance of the owner\n     */\n    function getEthBalance(address owner) public view returns (uint256) {\n        return ethBalance[owner];\n    }\n\n    /**\n     * @dev returns the ETH reserved balance of the owner\n     */\n    function getEthReserveBalance(address owner) public view returns (uint256) {\n        return ethReservedBalance[owner];\n    }\n\n    /**\n     * @dev returns the shares reserved in orders for a given owner and tokenId\n     */\n    function getSharesReserveBalance(address owner, uint256 tokenId)\n        public\n        view\n        returns (uint256)\n    {\n        return sharesReserved[owner][tokenId];\n    }\n}\n",
  "sourcePath": "/Users/szabolcs/Documents/Personal/Szakmai/Ethereum/nft-fractions-dex/contracts/BscDex.sol",
  "compiler": {
    "name": "solc",
    "version": "0.8.0+commit.c7dfd78e.Emscripten.clang"
  },
  "schemaVersion": "3.3.4",
  "updatedAt": "2021-09-27T12:18:53.237Z",
  "devdoc": {
    "kind": "dev",
    "methods": {
      "createLimitOrder(uint256,uint256,uint256,uint8)": {
        "details": "Creates a limit order Requirements: - in case of sell: msg.sender has to have sufficient shares available for selling - in case of buy: msg.sender has to have sufficient ETH deposited The relevant hooks are called: _onOrderUpsert, _onSharesReservedChange, _onEthReservedBalanceChange"
      },
      "createMarketOrder(uint256,uint256,uint8)": {
        "details": "Creates a market order and executes against the registered limit orders Requirements: - in case of sell: msg.sender has to have sufficient shares available for selling - in case of buy: msg.sender has to have sufficient ETH deposited The relevant hooks are called: _onTradeExecution, _onOrderUpsert, _onSharesReservedChange, _onEthReservedBalanceChange, _onEthBalanceChange"
      },
      "deleteOrder(uint256,uint8,uint256)": {
        "details": "delete the order"
      },
      "depositEth()": {
        "details": "deposit ETH for trading"
      },
      "getEthBalance(address)": {
        "details": "returns the ETH balance of the owner"
      },
      "getEthReserveBalance(address)": {
        "details": "returns the ETH reserved balance of the owner"
      },
      "getOrders(uint256,uint8)": {
        "details": "returns the orders of the token and side"
      },
      "getSharesReserveBalance(address,uint256)": {
        "details": "returns the shares reserved in orders for a given owner and tokenId"
      },
      "owner()": {
        "details": "Returns the address of the current owner."
      },
      "paused()": {
        "details": "Returns true if the contract is paused, and false otherwise."
      },
      "renounceOwnership()": {
        "details": "Leaves the contract without owner. It will not be possible to call `onlyOwner` functions anymore. Can only be called by the current owner. NOTE: Renouncing ownership will leave the contract without an owner, thereby removing any functionality that is only available to the owner."
      },
      "transferOwnership(address)": {
        "details": "Transfers ownership of the contract to a new account (`newOwner`). Can only be called by the current owner."
      },
      "withdrawEth(uint256)": {
        "details": "Withdraw ETH Requirements: - msg.sender has to have equal or more ETH than the amount to withdraw"
      }
    },
    "version": 1
  },
  "userdoc": {
    "kind": "user",
    "methods": {},
    "version": 1
  }
}