{
  "contractName": "BscDex",
  "abi": [
    {
      "anonymous": false,
      "inputs": [
        {
          "indexed": true,
          "internalType": "address",
          "name": "previousOwner",
          "type": "address"
        },
        {
          "indexed": true,
          "internalType": "address",
          "name": "newOwner",
          "type": "address"
        }
      ],
      "name": "OwnershipTransferred",
      "type": "event"
    },
    {
      "anonymous": false,
      "inputs": [
        {
          "indexed": false,
          "internalType": "address",
          "name": "account",
          "type": "address"
        }
      ],
      "name": "Paused",
      "type": "event"
    },
    {
      "anonymous": false,
      "inputs": [
        {
          "indexed": false,
          "internalType": "address",
          "name": "account",
          "type": "address"
        }
      ],
      "name": "Unpaused",
      "type": "event"
    },
    {
      "inputs": [],
      "name": "__DexBase_init",
      "outputs": [],
      "stateMutability": "nonpayable",
      "type": "function"
    },
    {
      "inputs": [
        {
          "internalType": "uint256",
          "name": "tokenId",
          "type": "uint256"
        },
        {
          "internalType": "uint256",
          "name": "amount",
          "type": "uint256"
        },
        {
          "internalType": "uint256",
          "name": "price",
          "type": "uint256"
        },
        {
          "internalType": "enum DexBase.Side",
          "name": "side",
          "type": "uint8"
        }
      ],
      "name": "createLimitOrder",
      "outputs": [],
      "stateMutability": "nonpayable",
      "type": "function"
    },
    {
      "inputs": [
        {
          "internalType": "uint256",
          "name": "tokenId",
          "type": "uint256"
        },
        {
          "internalType": "uint256",
          "name": "amount",
          "type": "uint256"
        },
        {
          "internalType": "enum DexBase.Side",
          "name": "side",
          "type": "uint8"
        }
      ],
      "name": "createMarketOrder",
      "outputs": [],
      "stateMutability": "nonpayable",
      "type": "function"
    },
    {
      "inputs": [
        {
          "internalType": "uint256",
          "name": "tokenId",
          "type": "uint256"
        },
        {
          "internalType": "enum DexBase.Side",
          "name": "side",
          "type": "uint8"
        },
        {
          "internalType": "uint256",
          "name": "orderId",
          "type": "uint256"
        }
      ],
      "name": "deleteOrder",
      "outputs": [],
      "stateMutability": "nonpayable",
      "type": "function"
    },
    {
      "inputs": [],
      "name": "depositEth",
      "outputs": [],
      "stateMutability": "payable",
      "type": "function"
    },
    {
      "inputs": [],
      "name": "owner",
      "outputs": [
        {
          "internalType": "address",
          "name": "",
          "type": "address"
        }
      ],
      "stateMutability": "view",
      "type": "function"
    },
    {
      "inputs": [],
      "name": "pause",
      "outputs": [],
      "stateMutability": "nonpayable",
      "type": "function"
    },
    {
      "inputs": [],
      "name": "paused",
      "outputs": [
        {
          "internalType": "bool",
          "name": "",
          "type": "bool"
        }
      ],
      "stateMutability": "view",
      "type": "function"
    },
    {
      "inputs": [],
      "name": "renounceOwnership",
      "outputs": [],
      "stateMutability": "nonpayable",
      "type": "function"
    },
    {
      "inputs": [
        {
          "internalType": "address",
          "name": "nftFractionsRepositoryAddress",
          "type": "address"
        }
      ],
      "name": "setNftFractionsRepository",
      "outputs": [],
      "stateMutability": "nonpayable",
      "type": "function"
    },
    {
      "inputs": [
        {
          "internalType": "address",
          "name": "newOwner",
          "type": "address"
        }
      ],
      "name": "transferOwnership",
      "outputs": [],
      "stateMutability": "nonpayable",
      "type": "function"
    },
    {
      "inputs": [
        {
          "internalType": "uint256",
          "name": "amount",
          "type": "uint256"
        }
      ],
      "name": "withdrawEth",
      "outputs": [],
      "stateMutability": "nonpayable",
      "type": "function"
    },
    {
      "inputs": [],
      "name": "initialize",
      "outputs": [],
      "stateMutability": "nonpayable",
      "type": "function"
    },
    {
      "inputs": [
        {
          "internalType": "uint256",
          "name": "tokenId",
          "type": "uint256"
        },
        {
          "internalType": "enum DexBase.Side",
          "name": "side",
          "type": "uint8"
        }
      ],
      "name": "getOrders",
      "outputs": [
        {
          "components": [
            {
              "internalType": "uint256",
              "name": "id",
              "type": "uint256"
            },
            {
              "internalType": "address",
              "name": "trader",
              "type": "address"
            },
            {
              "internalType": "enum DexBase.Side",
              "name": "side",
              "type": "uint8"
            },
            {
              "internalType": "uint256",
              "name": "tokenId",
              "type": "uint256"
            },
            {
              "internalType": "uint256",
              "name": "amount",
              "type": "uint256"
            },
            {
              "internalType": "uint256",
              "name": "filled",
              "type": "uint256"
            },
            {
              "internalType": "uint256",
              "name": "price",
              "type": "uint256"
            },
            {
              "internalType": "uint256",
              "name": "date",
              "type": "uint256"
            }
          ],
          "internalType": "struct DexBase.Order[]",
          "name": "",
          "type": "tuple[]"
        }
      ],
      "stateMutability": "view",
      "type": "function"
    },
    {
      "inputs": [
        {
          "internalType": "address",
          "name": "owner",
          "type": "address"
        }
      ],
      "name": "getEthBalance",
      "outputs": [
        {
          "internalType": "uint256",
          "name": "",
          "type": "uint256"
        }
      ],
      "stateMutability": "view",
      "type": "function"
    },
    {
      "inputs": [
        {
          "internalType": "address",
          "name": "owner",
          "type": "address"
        }
      ],
      "name": "getEthReserveBalance",
      "outputs": [
        {
          "internalType": "uint256",
          "name": "",
          "type": "uint256"
        }
      ],
      "stateMutability": "view",
      "type": "function"
    },
    {
      "inputs": [
        {
          "internalType": "address",
          "name": "owner",
          "type": "address"
        },
        {
          "internalType": "uint256",
          "name": "tokenId",
          "type": "uint256"
        }
      ],
      "name": "getSharesReserveBalance",
      "outputs": [
        {
          "internalType": "uint256",
          "name": "",
          "type": "uint256"
        }
      ],
      "stateMutability": "view",
      "type": "function"
    }
  ],
  "bytecode": "0x608060405234801561001057600080fd5b50615098806100206000396000f3fe6080604052600436106100fe5760003560e01c80638456cb5911610095578063b85b9e4011610064578063b85b9e40146102da578063b8737fba146102f1578063c311d0491461032e578063f2fde38b14610357578063fbe2767414610380576100fe565b80638456cb59146102325780638da5cb5b146102495780639c793bac14610274578063b141bd391461029d576100fe565b806354c0cde4116100d157806354c0cde4146101b05780635c975abb146101d9578063715018a6146102045780638129fc1c1461021b576100fe565b80630bbf2085146101035780631f9af29c1461012c578063439370b1146101695780634d2301cc14610173575b600080fd5b34801561010f57600080fd5b5061012a600480360381019061012591906145d1565b6103a9565b005b34801561013857600080fd5b50610153600480360381019061014e9190614417565b6112b9565b6040516101609190614d78565b60405180910390f35b610171611302565b005b34801561017f57600080fd5b5061019a60048036038101906101959190614417565b6113eb565b6040516101a79190614d78565b60405180910390f35b3480156101bc57600080fd5b506101d760048036038101906101d29190614582565b611434565b005b3480156101e557600080fd5b506101ee612dbe565b6040516101fb9190614bfd565b60405180910390f35b34801561021057600080fd5b50610219612dd5565b005b34801561022757600080fd5b50610230612f12565b005b34801561023e57600080fd5b50610247612ff3565b005b34801561025557600080fd5b5061025e613079565b60405161026b9190614b3f565b60405180910390f35b34801561028057600080fd5b5061029b60048036038101906102969190614533565b6130a3565b005b3480156102a957600080fd5b506102c460048036038101906102bf91906144f7565b6137e2565b6040516102d19190614bdb565b60405180910390f35b3480156102e657600080fd5b506102ef6139b8565b005b3480156102fd57600080fd5b5061031860048036038101906103139190614469565b613aa9565b6040516103259190614d78565b60405180910390f35b34801561033a57600080fd5b50610355600480360381019061035091906144a5565b613b04565b005b34801561036357600080fd5b5061037e60048036038101906103799190614417565b613d01565b005b34801561038c57600080fd5b506103a760048036038101906103a29190614417565b613ead565b005b836000609c60009054906101000a900473ffffffffffffffffffffffffffffffffffffffff1673ffffffffffffffffffffffffffffffffffffffff166366d0330c836040518263ffffffff1660e01b81526004016104079190614d78565b602060405180830381600087803b15801561042157600080fd5b505af1158015610435573d6000803e3d6000fd5b505050506040513d601f19601f820116820180604052508101906104599190614440565b9050600073ffffffffffffffffffffffffffffffffffffffff168173ffffffffffffffffffffffffffffffffffffffff1614156104cb576040517f08c379a00000000000000000000000000000000000000000000000000000000081526004016104c290614d38565b60405180910390fd5b6104d3612dbe565b15610513576040517f08c379a000000000000000000000000000000000000000000000000000000000815260040161050a90614d58565b60405180910390fd5b60018081111561054c577f4e487b7100000000000000000000000000000000000000000000000000000000600052602160045260246000fd5b836001811115610585577f4e487b7100000000000000000000000000000000000000000000000000000000600052602160045260246000fd5b1415610746576000609c60009054906101000a900473ffffffffffffffffffffffffffffffffffffffff1673ffffffffffffffffffffffffffffffffffffffff1662fdd58e33896040518363ffffffff1660e01b81526004016105e9929190614bb2565b60206040518083038186803b15801561060157600080fd5b505afa158015610615573d6000803e3d6000fd5b505050506040513d601f19601f8201168201806040525081019061063991906144ce565b90508581101561067e576040517f08c379a000000000000000000000000000000000000000000000000000000000815260040161067590614cf8565b60405180910390fd5b85609b60003373ffffffffffffffffffffffffffffffffffffffff1673ffffffffffffffffffffffffffffffffffffffff168152602001908152602001600020600089815260200190815260200160002060008282546106de9190614dee565b925050819055506107403388609b60003373ffffffffffffffffffffffffffffffffffffffff1673ffffffffffffffffffffffffffffffffffffffff16815260200190815260200160002060008b815260200190815260200160002054613f6d565b506109bd565b6000609c60009054906101000a900473ffffffffffffffffffffffffffffffffffffffff1673ffffffffffffffffffffffffffffffffffffffff166333d59207886040518263ffffffff1660e01b81526004016107a39190614d78565b602060405180830381600087803b1580156107bd57600080fd5b505af11580156107d1573d6000803e3d6000fd5b505050506040513d601f19601f820116820180604052508101906107f591906144ce565b90508581101561083a576040517f08c379a000000000000000000000000000000000000000000000000000000000815260040161083190614d18565b60405180910390fd5b84866108469190614e44565b609960003373ffffffffffffffffffffffffffffffffffffffff1673ffffffffffffffffffffffffffffffffffffffff16815260200190815260200160002054609860003373ffffffffffffffffffffffffffffffffffffffff1673ffffffffffffffffffffffffffffffffffffffff168152602001908152602001600020546108d09190614e9e565b1015610911576040517f08c379a000000000000000000000000000000000000000000000000000000000815260040161090890614c78565b60405180910390fd5b848661091d9190614e44565b609960003373ffffffffffffffffffffffffffffffffffffffff1673ffffffffffffffffffffffffffffffffffffffff168152602001908152602001600020600082825461096b9190614dee565b925050819055506109bb33609960003373ffffffffffffffffffffffffffffffffffffffff1673ffffffffffffffffffffffffffffffffffffffff16815260200190815260200160002054613f72565b505b6000609a60008881526020019081526020016000206000856001811115610a0d577f4e487b7100000000000000000000000000000000000000000000000000000000600052602160045260246000fd5b81526020019081526020016000209050610a276097613f76565b6000610a336097613f8c565b9050816040518061010001604052808381526020013373ffffffffffffffffffffffffffffffffffffffff168152602001876001811115610a9d577f4e487b7100000000000000000000000000000000000000000000000000000000600052602160045260246000fd5b81526020018a8152602001898152602001600081526020018881526020014281525090806001815401808255809150506001900390600052602060002090600702016000909190919091506000820151816000015560208201518160010160006101000a81548173ffffffffffffffffffffffffffffffffffffffff021916908373ffffffffffffffffffffffffffffffffffffffff16021790555060408201518160010160146101000a81548160ff02191690836001811115610b8a577f4e487b7100000000000000000000000000000000000000000000000000000000600052602160045260246000fd5b0217905550606082015181600201556080820151816003015560a0820151816004015560c0820151816005015560e082015181600601555050610bd48133878b8b60008c42613f9a565b600080838054905011610be8576000610bfa565b60018380549050610bf99190614e9e565b5b90505b60008111156112ae5760006001811115610c40577f4e487b7100000000000000000000000000000000000000000000000000000000600052602160045260246000fd5b866001811115610c79577f4e487b7100000000000000000000000000000000000000000000000000000000600052602160045260246000fd5b148015610d255750828181548110610cba577f4e487b7100000000000000000000000000000000000000000000000000000000600052603260045260246000fd5b90600052602060002090600702016005015483600183610cda9190614e9e565b81548110610d11577f4e487b7100000000000000000000000000000000000000000000000000000000600052603260045260246000fd5b906000526020600020906007020160050154115b15610d2f576112ae565b600180811115610d68577f4e487b7100000000000000000000000000000000000000000000000000000000600052602160045260246000fd5b866001811115610da1577f4e487b7100000000000000000000000000000000000000000000000000000000600052602160045260246000fd5b148015610e4d5750828181548110610de2577f4e487b7100000000000000000000000000000000000000000000000000000000600052603260045260246000fd5b90600052602060002090600702016005015483600183610e029190614e9e565b81548110610e39577f4e487b7100000000000000000000000000000000000000000000000000000000600052603260045260246000fd5b906000526020600020906007020160050154105b15610e57576112ae565b600083600183610e679190614e9e565b81548110610e9e577f4e487b7100000000000000000000000000000000000000000000000000000000600052603260045260246000fd5b906000526020600020906007020160405180610100016040529081600082015481526020016001820160009054906101000a900473ffffffffffffffffffffffffffffffffffffffff1673ffffffffffffffffffffffffffffffffffffffff1673ffffffffffffffffffffffffffffffffffffffff1681526020016001820160149054906101000a900460ff166001811115610f63577f4e487b7100000000000000000000000000000000000000000000000000000000600052602160045260246000fd5b6001811115610f9b577f4e487b7100000000000000000000000000000000000000000000000000000000600052602160045260246000fd5b815260200160028201548152602001600382015481526020016004820154815260200160058201548152602001600682015481525050905083828154811061100c577f4e487b7100000000000000000000000000000000000000000000000000000000600052603260045260246000fd5b9060005260206000209060070201846001846110289190614e9e565b8154811061105f577f4e487b7100000000000000000000000000000000000000000000000000000000600052603260045260246000fd5b9060005260206000209060070201600082015481600001556001820160009054906101000a900473ffffffffffffffffffffffffffffffffffffffff168160010160006101000a81548173ffffffffffffffffffffffffffffffffffffffff021916908373ffffffffffffffffffffffffffffffffffffffff1602179055506001820160149054906101000a900460ff168160010160146101000a81548160ff0219169083600181111561113c577f4e487b7100000000000000000000000000000000000000000000000000000000600052602160045260246000fd5b02179055506002820154816002015560038201548160030155600482015481600401556005820154816005015560068201548160060155905050808483815481106111b0577f4e487b7100000000000000000000000000000000000000000000000000000000600052603260045260246000fd5b90600052602060002090600702016000820151816000015560208201518160010160006101000a81548173ffffffffffffffffffffffffffffffffffffffff021916908373ffffffffffffffffffffffffffffffffffffffff16021790555060408201518160010160146101000a81548160ff02191690836001811115611260577f4e487b7100000000000000000000000000000000000000000000000000000000600052602160045260246000fd5b0217905550606082015181600201556080820151816003015560a0820151816004015560c0820151816005015560e0820151816006015590505081806112a590614f3f565b92505050610bfd565b505050505050505050565b6000609960008373ffffffffffffffffffffffffffffffffffffffff1673ffffffffffffffffffffffffffffffffffffffff168152602001908152602001600020549050919050565b61130a612dbe565b1561134a576040517f08c379a000000000000000000000000000000000000000000000000000000000815260040161134190614d58565b60405180910390fd5b34609860003373ffffffffffffffffffffffffffffffffffffffff1673ffffffffffffffffffffffffffffffffffffffff16815260200190815260200160002060008282546113999190614dee565b925050819055506113e933609860003373ffffffffffffffffffffffffffffffffffffffff1673ffffffffffffffffffffffffffffffffffffffff16815260200190815260200160002054613fa4565b565b6000609860008373ffffffffffffffffffffffffffffffffffffffff1673ffffffffffffffffffffffffffffffffffffffff168152602001908152602001600020549050919050565b826000609c60009054906101000a900473ffffffffffffffffffffffffffffffffffffffff1673ffffffffffffffffffffffffffffffffffffffff166366d0330c836040518263ffffffff1660e01b81526004016114929190614d78565b602060405180830381600087803b1580156114ac57600080fd5b505af11580156114c0573d6000803e3d6000fd5b505050506040513d601f19601f820116820180604052508101906114e49190614440565b9050600073ffffffffffffffffffffffffffffffffffffffff168173ffffffffffffffffffffffffffffffffffffffff161415611556576040517f08c379a000000000000000000000000000000000000000000000000000000000815260040161154d90614d38565b60405180910390fd5b61155e612dbe565b1561159e576040517f08c379a000000000000000000000000000000000000000000000000000000000815260040161159590614d58565b60405180910390fd5b6001808111156115d7577f4e487b7100000000000000000000000000000000000000000000000000000000600052602160045260246000fd5b836001811115611610577f4e487b7100000000000000000000000000000000000000000000000000000000600052602160045260246000fd5b141561170b576000609c60009054906101000a900473ffffffffffffffffffffffffffffffffffffffff1673ffffffffffffffffffffffffffffffffffffffff1662fdd58e33886040518363ffffffff1660e01b8152600401611674929190614bb2565b60206040518083038186803b15801561168c57600080fd5b505afa1580156116a0573d6000803e3d6000fd5b505050506040513d601f19601f820116820180604052508101906116c491906144ce565b905084811015611709576040517f08c379a000000000000000000000000000000000000000000000000000000000815260040161170090614cf8565b60405180910390fd5b505b6000609a6000878152602001908152602001600020600080600181111561175b577f4e487b7100000000000000000000000000000000000000000000000000000000600052602160045260246000fd5b866001811115611794577f4e487b7100000000000000000000000000000000000000000000000000000000600052602160045260246000fd5b146117a05760006117a3565b60015b60018111156117db577f4e487b7100000000000000000000000000000000000000000000000000000000600052602160045260246000fd5b815260200190815260200160002090506000808690505b8280549050821080156118055750600081115b156129fe576000838381548110611845577f4e487b7100000000000000000000000000000000000000000000000000000000600052603260045260246000fd5b906000526020600020906007020160040154848481548110611890577f4e487b7100000000000000000000000000000000000000000000000000000000600052603260045260246000fd5b9060005260206000209060070201600301546118ac9190614e9e565b905060008183116118bd57826118bf565b815b905080836118cd9190614e9e565b925080858581548110611909577f4e487b7100000000000000000000000000000000000000000000000000000000600052603260045260246000fd5b9060005260206000209060070201600401546119259190614dee565b85858154811061195e577f4e487b7100000000000000000000000000000000000000000000000000000000600052603260045260246000fd5b906000526020600020906007020160040181905550611a808585815481106119af577f4e487b7100000000000000000000000000000000000000000000000000000000600052603260045260246000fd5b9060005260206000209060070201600001548b8787815481106119fb577f4e487b7100000000000000000000000000000000000000000000000000000000600052603260045260246000fd5b906000526020600020906007020160010160009054906101000a900473ffffffffffffffffffffffffffffffffffffffff1633858a8a81548110611a68577f4e487b7100000000000000000000000000000000000000000000000000000000600052603260045260246000fd5b90600052602060002090600702016005015442613fa8565b611cc3858581548110611abc577f4e487b7100000000000000000000000000000000000000000000000000000000600052603260045260246000fd5b906000526020600020906007020160000154868681548110611b07577f4e487b7100000000000000000000000000000000000000000000000000000000600052603260045260246000fd5b906000526020600020906007020160010160009054906101000a900473ffffffffffffffffffffffffffffffffffffffff16878781548110611b72577f4e487b7100000000000000000000000000000000000000000000000000000000600052603260045260246000fd5b906000526020600020906007020160010160149054906101000a900460ff16888881548110611bca577f4e487b7100000000000000000000000000000000000000000000000000000000600052603260045260246000fd5b906000526020600020906007020160020154898981548110611c15577f4e487b7100000000000000000000000000000000000000000000000000000000600052603260045260246000fd5b9060005260206000209060070201600301548a8a81548110611c60577f4e487b7100000000000000000000000000000000000000000000000000000000600052603260045260246000fd5b9060005260206000209060070201600401548b8b81548110611cab577f4e487b7100000000000000000000000000000000000000000000000000000000600052603260045260246000fd5b90600052602060002090600702016005015442613f9a565b600180811115611cfc577f4e487b7100000000000000000000000000000000000000000000000000000000600052602160045260246000fd5b886001811115611d35577f4e487b7100000000000000000000000000000000000000000000000000000000600052602160045260246000fd5b141561222b57609c60009054906101000a900473ffffffffffffffffffffffffffffffffffffffff1673ffffffffffffffffffffffffffffffffffffffff1663605105f033878781548110611db3577f4e487b7100000000000000000000000000000000000000000000000000000000600052603260045260246000fd5b906000526020600020906007020160010160009054906101000a900473ffffffffffffffffffffffffffffffffffffffff168d856040518563ffffffff1660e01b8152600401611e069493929190614b5a565b600060405180830381600087803b158015611e2057600080fd5b505af1158015611e34573d6000803e3d6000fd5b5050505080858581548110611e72577f4e487b7100000000000000000000000000000000000000000000000000000000600052603260045260246000fd5b906000526020600020906007020160050154611e8e9190614e44565b609860003373ffffffffffffffffffffffffffffffffffffffff1673ffffffffffffffffffffffffffffffffffffffff1681526020019081526020016000206000828254611edc9190614dee565b9250508190555080858581548110611f1d577f4e487b7100000000000000000000000000000000000000000000000000000000600052603260045260246000fd5b906000526020600020906007020160050154611f399190614e44565b60986000878781548110611f76577f4e487b7100000000000000000000000000000000000000000000000000000000600052603260045260246000fd5b906000526020600020906007020160010160009054906101000a900473ffffffffffffffffffffffffffffffffffffffff1673ffffffffffffffffffffffffffffffffffffffff1673ffffffffffffffffffffffffffffffffffffffff1681526020019081526020016000206000828254611ff19190614e9e565b9250508190555080858581548110612032577f4e487b7100000000000000000000000000000000000000000000000000000000600052603260045260246000fd5b90600052602060002090600702016005015461204e9190614e44565b6099600087878154811061208b577f4e487b7100000000000000000000000000000000000000000000000000000000600052603260045260246000fd5b906000526020600020906007020160010160009054906101000a900473ffffffffffffffffffffffffffffffffffffffff1673ffffffffffffffffffffffffffffffffffffffff1673ffffffffffffffffffffffffffffffffffffffff16815260200190815260200160002060008282546121069190614e9e565b9250508190555061222a858581548110612149577f4e487b7100000000000000000000000000000000000000000000000000000000600052603260045260246000fd5b906000526020600020906007020160010160009054906101000a900473ffffffffffffffffffffffffffffffffffffffff16609960008888815481106121b8577f4e487b7100000000000000000000000000000000000000000000000000000000600052603260045260246000fd5b906000526020600020906007020160010160009054906101000a900473ffffffffffffffffffffffffffffffffffffffff1673ffffffffffffffffffffffffffffffffffffffff1673ffffffffffffffffffffffffffffffffffffffff16815260200190815260200160002054613f72565b5b60006001811115612265577f4e487b7100000000000000000000000000000000000000000000000000000000600052602160045260246000fd5b88600181111561229e577f4e487b7100000000000000000000000000000000000000000000000000000000600052602160045260246000fd5b141561288357808585815481106122de577f4e487b7100000000000000000000000000000000000000000000000000000000600052603260045260246000fd5b9060005260206000209060070201600501546122fa9190614e44565b609960003373ffffffffffffffffffffffffffffffffffffffff1673ffffffffffffffffffffffffffffffffffffffff16815260200190815260200160002054609860003373ffffffffffffffffffffffffffffffffffffffff1673ffffffffffffffffffffffffffffffffffffffff168152602001908152602001600020546123849190614e9e565b10156123c5576040517f08c379a00000000000000000000000000000000000000000000000000000000081526004016123bc90614c78565b60405180910390fd5b609c60009054906101000a900473ffffffffffffffffffffffffffffffffffffffff1673ffffffffffffffffffffffffffffffffffffffff1663605105f086868154811061243c577f4e487b7100000000000000000000000000000000000000000000000000000000600052603260045260246000fd5b906000526020600020906007020160010160009054906101000a900473ffffffffffffffffffffffffffffffffffffffff16338d856040518563ffffffff1660e01b81526004016124909493929190614b5a565b600060405180830381600087803b1580156124aa57600080fd5b505af11580156124be573d6000803e3d6000fd5b50505050808585815481106124fc577f4e487b7100000000000000000000000000000000000000000000000000000000600052603260045260246000fd5b9060005260206000209060070201600501546125189190614e44565b609860003373ffffffffffffffffffffffffffffffffffffffff1673ffffffffffffffffffffffffffffffffffffffff16815260200190815260200160002060008282546125669190614e9e565b92505081905550808585815481106125a7577f4e487b7100000000000000000000000000000000000000000000000000000000600052603260045260246000fd5b9060005260206000209060070201600501546125c39190614e44565b60986000878781548110612600577f4e487b7100000000000000000000000000000000000000000000000000000000600052603260045260246000fd5b906000526020600020906007020160010160009054906101000a900473ffffffffffffffffffffffffffffffffffffffff1673ffffffffffffffffffffffffffffffffffffffff1673ffffffffffffffffffffffffffffffffffffffff168152602001908152602001600020600082825461267b9190614dee565b9250508190555080609b60008787815481106126c0577f4e487b7100000000000000000000000000000000000000000000000000000000600052603260045260246000fd5b906000526020600020906007020160010160009054906101000a900473ffffffffffffffffffffffffffffffffffffffff1673ffffffffffffffffffffffffffffffffffffffff1673ffffffffffffffffffffffffffffffffffffffff16815260200190815260200160002060008c8152602001908152602001600020600082825461274c9190614e9e565b9250508190555061288285858154811061278f577f4e487b7100000000000000000000000000000000000000000000000000000000600052603260045260246000fd5b906000526020600020906007020160010160009054906101000a900473ffffffffffffffffffffffffffffffffffffffff168b609b60008989815481106127ff577f4e487b7100000000000000000000000000000000000000000000000000000000600052603260045260246000fd5b906000526020600020906007020160010160009054906101000a900473ffffffffffffffffffffffffffffffffffffffff1673ffffffffffffffffffffffffffffffffffffffff1673ffffffffffffffffffffffffffffffffffffffff16815260200190815260200160002060008e815260200190815260200160002054613f6d565b5b6128cc33609860003373ffffffffffffffffffffffffffffffffffffffff1673ffffffffffffffffffffffffffffffffffffffff16815260200190815260200160002054613fa4565b6129e9858581548110612908577f4e487b7100000000000000000000000000000000000000000000000000000000600052603260045260246000fd5b906000526020600020906007020160010160009054906101000a900473ffffffffffffffffffffffffffffffffffffffff1660986000888881548110612977577f4e487b7100000000000000000000000000000000000000000000000000000000600052603260045260246000fd5b906000526020600020906007020160010160009054906101000a900473ffffffffffffffffffffffffffffffffffffffff1673ffffffffffffffffffffffffffffffffffffffff1673ffffffffffffffffffffffffffffffffffffffff16815260200190815260200160002054613fa4565b83806129f490614f69565b94505050506117f2565b600091505b828054905082108015612aa95750828281548110612a4a577f4e487b7100000000000000000000000000000000000000000000000000000000600052603260045260246000fd5b906000526020600020906007020160030154838381548110612a95577f4e487b7100000000000000000000000000000000000000000000000000000000600052603260045260246000fd5b906000526020600020906007020160040154145b15612db45760008290505b60018480549050612ac59190614e9e565b811015612c825783600182612ada9190614dee565b81548110612b11577f4e487b7100000000000000000000000000000000000000000000000000000000600052603260045260246000fd5b9060005260206000209060070201848281548110612b58577f4e487b7100000000000000000000000000000000000000000000000000000000600052603260045260246000fd5b9060005260206000209060070201600082015481600001556001820160009054906101000a900473ffffffffffffffffffffffffffffffffffffffff168160010160006101000a81548173ffffffffffffffffffffffffffffffffffffffff021916908373ffffffffffffffffffffffffffffffffffffffff1602179055506001820160149054906101000a900460ff168160010160146101000a81548160ff02191690836001811115612c35577f4e487b7100000000000000000000000000000000000000000000000000000000600052602160045260246000fd5b021790555060028201548160020155600382015481600301556004820154816004015560058201548160050155600682015481600601559050508080612c7a90614f69565b915050612ab4565b50612ce68360018580549050612c989190614e9e565b81548110612ccf577f4e487b7100000000000000000000000000000000000000000000000000000000600052603260045260246000fd5b906000526020600020906007020160000154613fb1565b82805480612d1d577f4e487b7100000000000000000000000000000000000000000000000000000000600052603160045260246000fd5b60019003818190600052602060002090600702016000808201600090556001820160006101000a81549073ffffffffffffffffffffffffffffffffffffffff02191690556001820160146101000a81549060ff021916905560028201600090556003820160009055600482016000905560058201600090556006820160009055505090558180612dac90614f69565b925050612a03565b5050505050505050565b6000603360009054906101000a900460ff16905090565b612ddd613fb4565b73ffffffffffffffffffffffffffffffffffffffff16612dfb613079565b73ffffffffffffffffffffffffffffffffffffffff1614612e51576040517f08c379a0000000000000000000000000000000000000000000000000000000008152600401612e4890614c98565b60405180910390fd5b600073ffffffffffffffffffffffffffffffffffffffff16606560009054906101000a900473ffffffffffffffffffffffffffffffffffffffff1673ffffffffffffffffffffffffffffffffffffffff167f8be0079c531659141344cd1fd0a4f28419497f9722a3daafe3b4186f6b6457e060405160405180910390a36000606560006101000a81548173ffffffffffffffffffffffffffffffffffffffff021916908373ffffffffffffffffffffffffffffffffffffffff160217905550565b600060019054906101000a900460ff1680612f38575060008054906101000a900460ff16155b612f77576040517f08c379a0000000000000000000000000000000000000000000000000000000008152600401612f6e90614c58565b60405180910390fd5b60008060019054906101000a900460ff161590508015612fc7576001600060016101000a81548160ff02191690831515021790555060016000806101000a81548160ff0219169083151502179055505b612fcf6139b8565b8015612ff05760008060016101000a81548160ff0219169083151502179055505b50565b612ffb613fb4565b73ffffffffffffffffffffffffffffffffffffffff16613019613079565b73ffffffffffffffffffffffffffffffffffffffff161461306f576040517f08c379a000000000000000000000000000000000000000000000000000000000815260040161306690614c98565b60405180910390fd5b613077613fbc565b565b6000606560009054906101000a900473ffffffffffffffffffffffffffffffffffffffff16905090565b6000609a600085815260200190815260200160002060008460018111156130f3577f4e487b7100000000000000000000000000000000000000000000000000000000600052602160045260246000fd5b8152602001908152602001600020905060005b81805490508110156137db578282828154811061314c577f4e487b7100000000000000000000000000000000000000000000000000000000600052603260045260246000fd5b90600052602060002090600702016000015414156137c85781818154811061319d577f4e487b7100000000000000000000000000000000000000000000000000000000600052603260045260246000fd5b906000526020600020906007020160010160009054906101000a900473ffffffffffffffffffffffffffffffffffffffff1673ffffffffffffffffffffffffffffffffffffffff163373ffffffffffffffffffffffffffffffffffffffff161461323c576040517f08c379a000000000000000000000000000000000000000000000000000000000815260040161323390614cd8565b60405180910390fd5b60006001811115613276577f4e487b7100000000000000000000000000000000000000000000000000000000600052602160045260246000fd5b8282815481106132af577f4e487b7100000000000000000000000000000000000000000000000000000000600052603260045260246000fd5b906000526020600020906007020160010160149054906101000a900460ff166001811115613306577f4e487b7100000000000000000000000000000000000000000000000000000000600052602160045260246000fd5b141561344f57818181548110613345577f4e487b7100000000000000000000000000000000000000000000000000000000600052603260045260246000fd5b906000526020600020906007020160050154828281548110613390577f4e487b7100000000000000000000000000000000000000000000000000000000600052603260045260246000fd5b9060005260206000209060070201600301546133ac9190614e44565b609960003373ffffffffffffffffffffffffffffffffffffffff1673ffffffffffffffffffffffffffffffffffffffff16815260200190815260200160002060008282546133fa9190614e9e565b9250508190555061344a33609960003373ffffffffffffffffffffffffffffffffffffffff1673ffffffffffffffffffffffffffffffffffffffff16815260200190815260200160002054613f72565b61355c565b818181548110613488577f4e487b7100000000000000000000000000000000000000000000000000000000600052603260045260246000fd5b906000526020600020906007020160030154609b60003373ffffffffffffffffffffffffffffffffffffffff1673ffffffffffffffffffffffffffffffffffffffff168152602001908152602001600020600087815260200190815260200160002060008282546134f99190614e9e565b9250508190555061355b3386609b60003373ffffffffffffffffffffffffffffffffffffffff1673ffffffffffffffffffffffffffffffffffffffff168152602001908152602001600020600089815260200190815260200160002054613f6d565b5b816001838054905061356e9190614e9e565b815481106135a5577f4e487b7100000000000000000000000000000000000000000000000000000000600052603260045260246000fd5b90600052602060002090600702018282815481106135ec577f4e487b7100000000000000000000000000000000000000000000000000000000600052603260045260246000fd5b9060005260206000209060070201600082015481600001556001820160009054906101000a900473ffffffffffffffffffffffffffffffffffffffff168160010160006101000a81548173ffffffffffffffffffffffffffffffffffffffff021916908373ffffffffffffffffffffffffffffffffffffffff1602179055506001820160149054906101000a900460ff168160010160146101000a81548160ff021916908360018111156136c9577f4e487b7100000000000000000000000000000000000000000000000000000000600052602160045260246000fd5b021790555060028201548160020155600382015481600301556004820154816004015560058201548160050155600682015481600601559050508180548061373a577f4e487b7100000000000000000000000000000000000000000000000000000000600052603160045260246000fd5b60019003818190600052602060002090600702016000808201600090556001820160006101000a81549073ffffffffffffffffffffffffffffffffffffffff02191690556001820160146101000a81549060ff021916905560028201600090556003820160009055600482016000905560058201600090556006820160009055505090556137c783613fb1565b5b80806137d390614f69565b915050613106565b5050505050565b6060609a60008481526020019081526020016000206000836001811115613832577f4e487b7100000000000000000000000000000000000000000000000000000000600052602160045260246000fd5b8152602001908152602001600020805480602002602001604051908101604052809291908181526020016000905b828210156139ac578382906000526020600020906007020160405180610100016040529081600082015481526020016001820160009054906101000a900473ffffffffffffffffffffffffffffffffffffffff1673ffffffffffffffffffffffffffffffffffffffff1673ffffffffffffffffffffffffffffffffffffffff1681526020016001820160149054906101000a900460ff16600181111561392f577f4e487b7100000000000000000000000000000000000000000000000000000000600052602160045260246000fd5b6001811115613967577f4e487b7100000000000000000000000000000000000000000000000000000000600052602160045260246000fd5b81526020016002820154815260200160038201548152602001600482015481526020016005820154815260200160068201548152505081526020019060010190613860565b50505050905092915050565b600060019054906101000a900460ff16806139de575060008054906101000a900460ff16155b613a1d576040517f08c379a0000000000000000000000000000000000000000000000000000000008152600401613a1490614c58565b60405180910390fd5b60008060019054906101000a900460ff161590508015613a6d576001600060016101000a81548160ff02191690831515021790555060016000806101000a81548160ff0219169083151502179055505b613a7561405f565b613a7d614138565b613a8561422c565b8015613aa65760008060016101000a81548160ff0219169083151502179055505b50565b6000609b60008473ffffffffffffffffffffffffffffffffffffffff1673ffffffffffffffffffffffffffffffffffffffff168152602001908152602001600020600083815260200190815260200160002054905092915050565b613b0c612dbe565b15613b4c576040517f08c379a0000000000000000000000000000000000000000000000000000000008152600401613b4390614d58565b60405180910390fd5b80609960003373ffffffffffffffffffffffffffffffffffffffff1673ffffffffffffffffffffffffffffffffffffffff16815260200190815260200160002054609860003373ffffffffffffffffffffffffffffffffffffffff1673ffffffffffffffffffffffffffffffffffffffff16815260200190815260200160002054613bd79190614e9e565b1015613c18576040517f08c379a0000000000000000000000000000000000000000000000000000000008152600401613c0f90614cb8565b60405180910390fd5b80609860003373ffffffffffffffffffffffffffffffffffffffff1673ffffffffffffffffffffffffffffffffffffffff1681526020019081526020016000206000828254613c679190614e9e565b925050819055503373ffffffffffffffffffffffffffffffffffffffff166108fc829081150290604051600060405180830381858888f19350505050158015613cb4573d6000803e3d6000fd5b50613cfe33609860003373ffffffffffffffffffffffffffffffffffffffff1673ffffffffffffffffffffffffffffffffffffffff16815260200190815260200160002054613fa4565b50565b613d09613fb4565b73ffffffffffffffffffffffffffffffffffffffff16613d27613079565b73ffffffffffffffffffffffffffffffffffffffff1614613d7d576040517f08c379a0000000000000000000000000000000000000000000000000000000008152600401613d7490614c98565b60405180910390fd5b600073ffffffffffffffffffffffffffffffffffffffff168173ffffffffffffffffffffffffffffffffffffffff161415613ded576040517f08c379a0000000000000000000000000000000000000000000000000000000008152600401613de490614c18565b60405180910390fd5b8073ffffffffffffffffffffffffffffffffffffffff16606560009054906101000a900473ffffffffffffffffffffffffffffffffffffffff1673ffffffffffffffffffffffffffffffffffffffff167f8be0079c531659141344cd1fd0a4f28419497f9722a3daafe3b4186f6b6457e060405160405180910390a380606560006101000a81548173ffffffffffffffffffffffffffffffffffffffff021916908373ffffffffffffffffffffffffffffffffffffffff16021790555050565b613eb5613fb4565b73ffffffffffffffffffffffffffffffffffffffff16613ed3613079565b73ffffffffffffffffffffffffffffffffffffffff1614613f29576040517f08c379a0000000000000000000000000000000000000000000000000000000008152600401613f2090614c98565b60405180910390fd5b80609c60006101000a81548173ffffffffffffffffffffffffffffffffffffffff021916908373ffffffffffffffffffffffffffffffffffffffff16021790555050565b505050565b5050565b6001816000016000828254019250508190555050565b600081600001549050919050565b5050505050505050565b5050565b50505050505050565b50565b600033905090565b613fc4612dbe565b15614004576040517f08c379a0000000000000000000000000000000000000000000000000000000008152600401613ffb90614c38565b60405180910390fd5b6001603360006101000a81548160ff0219169083151502179055507f62e78cea01bee320cd4e420270b5ea74000d11b0c9f74754ebdbfc544b05a258614048613fb4565b6040516140559190614b3f565b60405180910390a1565b600060019054906101000a900460ff1680614085575060008054906101000a900460ff16155b6140c4576040517f08c379a00000000000000000000000000000000000000000000000000000000081526004016140bb90614c58565b60405180910390fd5b60008060019054906101000a900460ff161590508015614114576001600060016101000a81548160ff02191690831515021790555060016000806101000a81548160ff0219169083151502179055505b80156141355760008060016101000a81548160ff0219169083151502179055505b50565b600060019054906101000a900460ff168061415e575060008054906101000a900460ff16155b61419d576040517f08c379a000000000000000000000000000000000000000000000000000000000815260040161419490614c58565b60405180910390fd5b60008060019054906101000a900460ff1615905080156141ed576001600060016101000a81548160ff02191690831515021790555060016000806101000a81548160ff0219169083151502179055505b6000603360006101000a81548160ff02191690831515021790555080156142295760008060016101000a81548160ff0219169083151502179055505b50565b600060019054906101000a900460ff1680614252575060008054906101000a900460ff16155b614291576040517f08c379a000000000000000000000000000000000000000000000000000000000815260040161428890614c58565b60405180910390fd5b60008060019054906101000a900460ff1615905080156142e1576001600060016101000a81548160ff02191690831515021790555060016000806101000a81548160ff0219169083151502179055505b60006142eb613fb4565b905080606560006101000a81548173ffffffffffffffffffffffffffffffffffffffff021916908373ffffffffffffffffffffffffffffffffffffffff1602179055508073ffffffffffffffffffffffffffffffffffffffff16600073ffffffffffffffffffffffffffffffffffffffff167f8be0079c531659141344cd1fd0a4f28419497f9722a3daafe3b4186f6b6457e060405160405180910390a35080156143ab5760008060016101000a81548160ff0219169083151502179055505b50565b6000813590506143bd81615024565b92915050565b6000815190506143d281615024565b92915050565b6000813590506143e78161503b565b92915050565b6000813590506143fc8161504b565b92915050565b6000815190506144118161504b565b92915050565b60006020828403121561442957600080fd5b6000614437848285016143ae565b91505092915050565b60006020828403121561445257600080fd5b6000614460848285016143c3565b91505092915050565b6000806040838503121561447c57600080fd5b600061448a858286016143ae565b925050602061449b858286016143ed565b9150509250929050565b6000602082840312156144b757600080fd5b60006144c5848285016143ed565b91505092915050565b6000602082840312156144e057600080fd5b60006144ee84828501614402565b91505092915050565b6000806040838503121561450a57600080fd5b6000614518858286016143ed565b9250506020614529858286016143d8565b9150509250929050565b60008060006060848603121561454857600080fd5b6000614556868287016143ed565b9350506020614567868287016143d8565b9250506040614578868287016143ed565b9150509250925092565b60008060006060848603121561459757600080fd5b60006145a5868287016143ed565b93505060206145b6868287016143ed565b92505060406145c7868287016143d8565b9150509250925092565b600080600080608085870312156145e757600080fd5b60006145f5878288016143ed565b9450506020614606878288016143ed565b9350506040614617878288016143ed565b9250506060614628878288016143d8565b91505092959194509250565b60006146408383614a7f565b6101008301905092915050565b61465681614ed2565b82525050565b61466581614ed2565b82525050565b600061467682614da3565b6146808185614dbb565b935061468b83614d93565b8060005b838110156146bc5781516146a38882614634565b97506146ae83614dae565b92505060018101905061468f565b5085935050505092915050565b6146d281614ee4565b82525050565b6146e181614f2d565b82525050565b60006146f4602683614ddd565b91507f4f776e61626c653a206e6577206f776e657220697320746865207a65726f206160008301527f64647265737300000000000000000000000000000000000000000000000000006020830152604082019050919050565b600061475a601083614ddd565b91507f5061757361626c653a20706175736564000000000000000000000000000000006000830152602082019050919050565b600061479a602e83614ddd565b91507f496e697469616c697a61626c653a20636f6e747261637420697320616c72656160008301527f647920696e697469616c697a65640000000000000000000000000000000000006020830152604082019050919050565b6000614800601383614ddd565b91507f6574682062616c616e636520746f6f206c6f77000000000000000000000000006000830152602082019050919050565b6000614840602083614ddd565b91507f4f776e61626c653a2063616c6c6572206973206e6f7420746865206f776e65726000830152602082019050919050565b6000614880601983614ddd565b91507f4554482062616c616e6365206973206e6f7420656e6f756768000000000000006000830152602082019050919050565b60006148c0602483614ddd565b91507f4f6e6c7920746865207472616465722063616e2064656c65746520686973206f60008301527f72646572000000000000000000000000000000000000000000000000000000006020830152604082019050919050565b6000614926600083614dcc565b9150600082019050919050565b6000614940602983614ddd565b91507f6d6573736167652073656e646572277320746f6b656e2062616c616e6365206960008301527f7320746f6f206c6f7700000000000000000000000000000000000000000000006020830152604082019050919050565b60006149a6603883614ddd565b91507f746f74616c20616d6f756e74206f66206672616374696f6e73206973206c6f7760008301527f6572207468616e2074686520676976656e20616d6f756e7400000000000000006020830152604082019050919050565b6000614a0c601983614ddd565b91507f7468697320746f6b656e20646f6573206e6f74206578697374000000000000006000830152602082019050919050565b6000614a4c601883614ddd565b91507f4e6f7420616c6c6f776564207768696c652070617573656400000000000000006000830152602082019050919050565b61010082016000820151614a966000850182614b21565b506020820151614aa9602085018261464d565b506040820151614abc60408501826146d8565b506060820151614acf6060850182614b21565b506080820151614ae26080850182614b21565b5060a0820151614af560a0850182614b21565b5060c0820151614b0860c0850182614b21565b5060e0820151614b1b60e0850182614b21565b50505050565b614b2a81614f23565b82525050565b614b3981614f23565b82525050565b6000602082019050614b54600083018461465c565b92915050565b600060a082019050614b6f600083018761465c565b614b7c602083018661465c565b614b896040830185614b30565b614b966060830184614b30565b8181036080830152614ba781614919565b905095945050505050565b6000604082019050614bc7600083018561465c565b614bd46020830184614b30565b9392505050565b60006020820190508181036000830152614bf5818461466b565b905092915050565b6000602082019050614c1260008301846146c9565b92915050565b60006020820190508181036000830152614c31816146e7565b9050919050565b60006020820190508181036000830152614c518161474d565b9050919050565b60006020820190508181036000830152614c718161478d565b9050919050565b60006020820190508181036000830152614c91816147f3565b9050919050565b60006020820190508181036000830152614cb181614833565b9050919050565b60006020820190508181036000830152614cd181614873565b9050919050565b60006020820190508181036000830152614cf1816148b3565b9050919050565b60006020820190508181036000830152614d1181614933565b9050919050565b60006020820190508181036000830152614d3181614999565b9050919050565b60006020820190508181036000830152614d51816149ff565b9050919050565b60006020820190508181036000830152614d7181614a3f565b9050919050565b6000602082019050614d8d6000830184614b30565b92915050565b6000819050602082019050919050565b600081519050919050565b6000602082019050919050565b600082825260208201905092915050565b600082825260208201905092915050565b600082825260208201905092915050565b6000614df982614f23565b9150614e0483614f23565b9250827fffffffffffffffffffffffffffffffffffffffffffffffffffffffffffffffff03821115614e3957614e38614fb2565b5b828201905092915050565b6000614e4f82614f23565b9150614e5a83614f23565b9250817fffffffffffffffffffffffffffffffffffffffffffffffffffffffffffffffff0483118215151615614e9357614e92614fb2565b5b828202905092915050565b6000614ea982614f23565b9150614eb483614f23565b925082821015614ec757614ec6614fb2565b5b828203905092915050565b6000614edd82614f03565b9050919050565b60008115159050919050565b6000819050614efe82615010565b919050565b600073ffffffffffffffffffffffffffffffffffffffff82169050919050565b6000819050919050565b6000614f3882614ef0565b9050919050565b6000614f4a82614f23565b91506000821415614f5e57614f5d614fb2565b5b600182039050919050565b6000614f7482614f23565b91507fffffffffffffffffffffffffffffffffffffffffffffffffffffffffffffffff821415614fa757614fa6614fb2565b5b600182019050919050565b7f4e487b7100000000000000000000000000000000000000000000000000000000600052601160045260246000fd5b7f4e487b7100000000000000000000000000000000000000000000000000000000600052602160045260246000fd5b6002811061502157615020614fe1565b5b50565b61502d81614ed2565b811461503857600080fd5b50565b6002811061504857600080fd5b50565b61505481614f23565b811461505f57600080fd5b5056fea264697066735822122007c74d9ff0e0a14c72d75352decd3e8414022f137d2d4d866846d14db1a56fa864736f6c63430008000033",
  "immutableReferences": {},
  "source": "// SPDX-License-Identifier: MIT\n\npragma solidity ^0.8.0;\n\nimport \"./DexBase.sol\";\n\ncontract BscDex is DexBase {\n    function initialize() public initializer {\n        __DexBase_init();\n    }\n\n    /**\n     * @dev returns the orders of the token and side\n     */\n    function getOrders(uint256 tokenId, Side side)\n        external\n        view\n        returns (Order[] memory)\n    {\n        return orderBook[tokenId][uint256(side)];\n    }\n\n    /**\n     * @dev returns the ETH balance of the owner\n     */\n    function getEthBalance(address owner) public view returns (uint256) {\n        return ethBalance[owner];\n    }\n\n    /**\n     * @dev returns the ETH reserved balance of the owner\n     */\n    function getEthReserveBalance(address owner) public view returns (uint256) {\n        return ethReservedBalance[owner];\n    }\n\n    /**\n     * @dev returns the shares reserved in orders for a given owner and tokenId\n     */\n    function getSharesReserveBalance(address owner, uint256 tokenId)\n        public\n        view\n        returns (uint256)\n    {\n        return sharesReserved[owner][tokenId];\n    }\n}\n",
  "sourcePath": "/Users/szabolcs/Documents/Personal/Szakmai/Ethereum/nft-fractions-dex/contracts/BscDex.sol",
  "compiler": {
    "name": "solc",
    "version": "0.8.0+commit.c7dfd78e.Emscripten.clang"
  },
  "schemaVersion": "3.3.4",
  "updatedAt": "2021-07-20T09:10:30.003Z",
  "devdoc": {
    "kind": "dev",
    "methods": {
      "createLimitOrder(uint256,uint256,uint256,uint8)": {
        "details": "Creates a limit order Requirements: - in case of sell: msg.sender has to have sufficient shares available for selling - in case of buy: msg.sender has to have sufficient ETH deposited The relevant hooks are called: _onOrderUpsert, _onSharesReservedChange, _onEthReservedBalanceChange"
      },
      "createMarketOrder(uint256,uint256,uint8)": {
        "details": "Creates a market order and executes against the registered limit orders Requirements: - in case of sell: msg.sender has to have sufficient shares available for selling - in case of buy: msg.sender has to have sufficient ETH deposited The relevant hooks are called: _onTradeExecution, _onOrderUpsert, _onSharesReservedChange, _onEthReservedBalanceChange, _onEthBalanceChange"
      },
      "deleteOrder(uint256,uint8,uint256)": {
        "details": "delete the order"
      },
      "depositEth()": {
        "details": "deposit ETH for trading"
      },
      "getEthBalance(address)": {
        "details": "returns the ETH balance of the owner"
      },
      "getEthReserveBalance(address)": {
        "details": "returns the ETH reserved balance of the owner"
      },
      "getOrders(uint256,uint8)": {
        "details": "returns the orders of the token and side"
      },
      "getSharesReserveBalance(address,uint256)": {
        "details": "returns the shares reserved in orders for a given owner and tokenId"
      },
      "owner()": {
        "details": "Returns the address of the current owner."
      },
      "paused()": {
        "details": "Returns true if the contract is paused, and false otherwise."
      },
      "renounceOwnership()": {
        "details": "Leaves the contract without owner. It will not be possible to call `onlyOwner` functions anymore. Can only be called by the current owner. NOTE: Renouncing ownership will leave the contract without an owner, thereby removing any functionality that is only available to the owner."
      },
      "transferOwnership(address)": {
        "details": "Transfers ownership of the contract to a new account (`newOwner`). Can only be called by the current owner."
      },
      "withdrawEth(uint256)": {
        "details": "Withdraw ETH Requirements: - msg.sender has to have equal or more ETH than the amount to withdraw"
      }
    },
    "version": 1
  },
  "userdoc": {
    "kind": "user",
    "methods": {},
    "version": 1
  }
}