{
  "contractName": "BscNftFractionsRepository",
  "abi": [
    {
      "anonymous": false,
      "inputs": [
        {
          "indexed": true,
          "internalType": "address",
          "name": "account",
          "type": "address"
        },
        {
          "indexed": true,
          "internalType": "address",
          "name": "operator",
          "type": "address"
        },
        {
          "indexed": false,
          "internalType": "bool",
          "name": "approved",
          "type": "bool"
        }
      ],
      "name": "ApprovalForAll",
      "type": "event"
    },
    {
      "anonymous": false,
      "inputs": [
        {
          "indexed": true,
          "internalType": "address",
          "name": "previousOwner",
          "type": "address"
        },
        {
          "indexed": true,
          "internalType": "address",
          "name": "newOwner",
          "type": "address"
        }
      ],
      "name": "OwnershipTransferred",
      "type": "event"
    },
    {
      "anonymous": false,
      "inputs": [
        {
          "indexed": false,
          "internalType": "address",
          "name": "account",
          "type": "address"
        }
      ],
      "name": "Paused",
      "type": "event"
    },
    {
      "anonymous": false,
      "inputs": [
        {
          "indexed": true,
          "internalType": "address",
          "name": "operator",
          "type": "address"
        },
        {
          "indexed": true,
          "internalType": "address",
          "name": "from",
          "type": "address"
        },
        {
          "indexed": true,
          "internalType": "address",
          "name": "to",
          "type": "address"
        },
        {
          "indexed": false,
          "internalType": "uint256[]",
          "name": "ids",
          "type": "uint256[]"
        },
        {
          "indexed": false,
          "internalType": "uint256[]",
          "name": "values",
          "type": "uint256[]"
        }
      ],
      "name": "TransferBatch",
      "type": "event"
    },
    {
      "anonymous": false,
      "inputs": [
        {
          "indexed": true,
          "internalType": "address",
          "name": "operator",
          "type": "address"
        },
        {
          "indexed": true,
          "internalType": "address",
          "name": "from",
          "type": "address"
        },
        {
          "indexed": true,
          "internalType": "address",
          "name": "to",
          "type": "address"
        },
        {
          "indexed": false,
          "internalType": "uint256",
          "name": "id",
          "type": "uint256"
        },
        {
          "indexed": false,
          "internalType": "uint256",
          "name": "value",
          "type": "uint256"
        }
      ],
      "name": "TransferSingle",
      "type": "event"
    },
    {
      "anonymous": false,
      "inputs": [
        {
          "indexed": false,
          "internalType": "string",
          "name": "value",
          "type": "string"
        },
        {
          "indexed": true,
          "internalType": "uint256",
          "name": "id",
          "type": "uint256"
        }
      ],
      "name": "URI",
      "type": "event"
    },
    {
      "anonymous": false,
      "inputs": [
        {
          "indexed": false,
          "internalType": "address",
          "name": "account",
          "type": "address"
        }
      ],
      "name": "Unpaused",
      "type": "event"
    },
    {
      "inputs": [
        {
          "internalType": "address",
          "name": "account",
          "type": "address"
        },
        {
          "internalType": "uint256",
          "name": "id",
          "type": "uint256"
        }
      ],
      "name": "balanceOf",
      "outputs": [
        {
          "internalType": "uint256",
          "name": "",
          "type": "uint256"
        }
      ],
      "stateMutability": "view",
      "type": "function"
    },
    {
      "inputs": [
        {
          "internalType": "address[]",
          "name": "accounts",
          "type": "address[]"
        },
        {
          "internalType": "uint256[]",
          "name": "ids",
          "type": "uint256[]"
        }
      ],
      "name": "balanceOfBatch",
      "outputs": [
        {
          "internalType": "uint256[]",
          "name": "",
          "type": "uint256[]"
        }
      ],
      "stateMutability": "view",
      "type": "function"
    },
    {
      "inputs": [
        {
          "internalType": "uint256",
          "name": "tokenId",
          "type": "uint256"
        },
        {
          "internalType": "uint256",
          "name": "amount",
          "type": "uint256"
        },
        {
          "internalType": "address",
          "name": "transferer",
          "type": "address"
        }
      ],
      "name": "burn",
      "outputs": [],
      "stateMutability": "nonpayable",
      "type": "function"
    },
    {
      "inputs": [
        {
          "internalType": "uint256",
          "name": "_tokenId",
          "type": "uint256"
        }
      ],
      "name": "getErc721ContractAddress",
      "outputs": [
        {
          "internalType": "address",
          "name": "",
          "type": "address"
        }
      ],
      "stateMutability": "view",
      "type": "function"
    },
    {
      "inputs": [
        {
          "internalType": "uint256",
          "name": "_tokenId",
          "type": "uint256"
        }
      ],
      "name": "getTokenData",
      "outputs": [
        {
          "internalType": "address",
          "name": "erc721ContractAddress",
          "type": "address"
        },
        {
          "internalType": "uint256",
          "name": "erc721TokenId",
          "type": "uint256"
        },
        {
          "internalType": "uint256",
          "name": "totalFractionsAmount",
          "type": "uint256"
        },
        {
          "internalType": "string",
          "name": "tokenURI",
          "type": "string"
        }
      ],
      "stateMutability": "view",
      "type": "function"
    },
    {
      "inputs": [
        {
          "internalType": "uint256",
          "name": "_tokenId",
          "type": "uint256"
        }
      ],
      "name": "getTotalFractionsAmount",
      "outputs": [
        {
          "internalType": "uint256",
          "name": "",
          "type": "uint256"
        }
      ],
      "stateMutability": "view",
      "type": "function"
    },
    {
      "inputs": [
        {
          "internalType": "address",
          "name": "account",
          "type": "address"
        },
        {
          "internalType": "address",
          "name": "operator",
          "type": "address"
        }
      ],
      "name": "isApprovedForAll",
      "outputs": [
        {
          "internalType": "bool",
          "name": "",
          "type": "bool"
        }
      ],
      "stateMutability": "view",
      "type": "function"
    },
    {
      "inputs": [
        {
          "internalType": "address",
          "name": "erc721ContractAddress",
          "type": "address"
        },
        {
          "internalType": "uint256",
          "name": "erc721TokenId",
          "type": "uint256"
        },
        {
          "internalType": "uint256",
          "name": "erc1155TokenId",
          "type": "uint256"
        },
        {
          "internalType": "uint256",
          "name": "erc1155Amount",
          "type": "uint256"
        },
        {
          "internalType": "uint256",
          "name": "totalFractionsAmount",
          "type": "uint256"
        },
        {
          "internalType": "address",
          "name": "transferer",
          "type": "address"
        },
        {
          "internalType": "string",
          "name": "tokenURI",
          "type": "string"
        }
      ],
      "name": "mint",
      "outputs": [],
      "stateMutability": "nonpayable",
      "type": "function"
    },
    {
      "inputs": [],
      "name": "owner",
      "outputs": [
        {
          "internalType": "address",
          "name": "",
          "type": "address"
        }
      ],
      "stateMutability": "view",
      "type": "function"
    },
    {
      "inputs": [],
      "name": "pause",
      "outputs": [],
      "stateMutability": "nonpayable",
      "type": "function"
    },
    {
      "inputs": [],
      "name": "paused",
      "outputs": [
        {
          "internalType": "bool",
          "name": "",
          "type": "bool"
        }
      ],
      "stateMutability": "view",
      "type": "function"
    },
    {
      "inputs": [],
      "name": "renounceOwnership",
      "outputs": [],
      "stateMutability": "nonpayable",
      "type": "function"
    },
    {
      "inputs": [
        {
          "internalType": "address",
          "name": "from",
          "type": "address"
        },
        {
          "internalType": "address",
          "name": "to",
          "type": "address"
        },
        {
          "internalType": "uint256[]",
          "name": "ids",
          "type": "uint256[]"
        },
        {
          "internalType": "uint256[]",
          "name": "amounts",
          "type": "uint256[]"
        },
        {
          "internalType": "bytes",
          "name": "data",
          "type": "bytes"
        }
      ],
      "name": "safeBatchTransferFrom",
      "outputs": [],
      "stateMutability": "nonpayable",
      "type": "function"
    },
    {
      "inputs": [
        {
          "internalType": "address",
          "name": "from",
          "type": "address"
        },
        {
          "internalType": "address",
          "name": "to",
          "type": "address"
        },
        {
          "internalType": "uint256",
          "name": "id",
          "type": "uint256"
        },
        {
          "internalType": "uint256",
          "name": "amount",
          "type": "uint256"
        },
        {
          "internalType": "bytes",
          "name": "data",
          "type": "bytes"
        }
      ],
      "name": "safeTransferFrom",
      "outputs": [],
      "stateMutability": "nonpayable",
      "type": "function"
    },
    {
      "inputs": [
        {
          "internalType": "address",
          "name": "operator",
          "type": "address"
        },
        {
          "internalType": "bool",
          "name": "approved",
          "type": "bool"
        }
      ],
      "name": "setApprovalForAll",
      "outputs": [],
      "stateMutability": "nonpayable",
      "type": "function"
    },
    {
      "inputs": [
        {
          "internalType": "bytes4",
          "name": "interfaceId",
          "type": "bytes4"
        }
      ],
      "name": "supportsInterface",
      "outputs": [
        {
          "internalType": "bool",
          "name": "",
          "type": "bool"
        }
      ],
      "stateMutability": "view",
      "type": "function"
    },
    {
      "inputs": [
        {
          "internalType": "address",
          "name": "from",
          "type": "address"
        },
        {
          "internalType": "address",
          "name": "to",
          "type": "address"
        },
        {
          "internalType": "uint256",
          "name": "id",
          "type": "uint256"
        },
        {
          "internalType": "uint256",
          "name": "amount",
          "type": "uint256"
        },
        {
          "internalType": "bytes",
          "name": "data",
          "type": "bytes"
        }
      ],
      "name": "transferFrom",
      "outputs": [],
      "stateMutability": "nonpayable",
      "type": "function"
    },
    {
      "inputs": [
        {
          "internalType": "address",
          "name": "newOwner",
          "type": "address"
        }
      ],
      "name": "transferOwnership",
      "outputs": [],
      "stateMutability": "nonpayable",
      "type": "function"
    },
    {
      "inputs": [
        {
          "internalType": "uint256",
          "name": "",
          "type": "uint256"
        }
      ],
      "name": "uri",
      "outputs": [
        {
          "internalType": "string",
          "name": "",
          "type": "string"
        }
      ],
      "stateMutability": "view",
      "type": "function"
    },
    {
      "inputs": [
        {
          "internalType": "string",
          "name": "uri_",
          "type": "string"
        }
      ],
      "name": "initialize",
      "outputs": [],
      "stateMutability": "nonpayable",
      "type": "function"
    },
    {
      "inputs": [
        {
          "internalType": "address",
          "name": "shareOwner",
          "type": "address"
        }
      ],
      "name": "getTokenIdsByShareOwner",
      "outputs": [
        {
          "internalType": "uint256[]",
          "name": "",
          "type": "uint256[]"
        }
      ],
      "stateMutability": "view",
      "type": "function"
    },
    {
      "inputs": [
        {
          "internalType": "uint256",
          "name": "tokenId",
          "type": "uint256"
        }
      ],
      "name": "getOwnersBYtokenId",
      "outputs": [
        {
          "internalType": "address[]",
          "name": "",
          "type": "address[]"
        }
      ],
      "stateMutability": "view",
      "type": "function"
    },
    {
      "inputs": [],
      "name": "getTokenIds",
      "outputs": [
        {
          "internalType": "uint256[]",
          "name": "",
          "type": "uint256[]"
        }
      ],
      "stateMutability": "view",
      "type": "function"
    }
  ],
  "bytecode": "0x608060405234801561001057600080fd5b506153c8806100206000396000f3fe608060405234801561001057600080fd5b506004361061014c5760003560e01c806367f718a9116100c3578063a22cb4651161007c578063a22cb465146103af578063b09afec1146103cb578063e985e9c5146103fe578063f242432a1461042e578063f2fde38b1461044a578063f62d1888146104665761014c565b806367f718a914610327578063715018a614610345578063749388c41461034f5780638456cb591461036b5780638da5cb5b14610375578063971a5847146103935761014c565b806333ae11ae1161011557806333ae11ae1461022d57806333d592071461025d5780634e1273f41461028d5780635c975abb146102bd578063605105f0146102db57806366d0330c146102f75761014c565b8062fdd58e1461015157806301ffc9a7146101815780630e89341c146101b1578063180e1ef8146101e15780632eb2c2d614610211575b600080fd5b61016b60048036038101906101669190613ed0565b610482565b6040516101789190614e43565b60405180910390f35b61019b6004803603810190610196919061402e565b61054c565b6040516101a89190614ba6565b60405180910390f35b6101cb60048036038101906101c691906140c1565b61062e565b6040516101d89190614bc1565b60405180910390f35b6101fb60048036038101906101f69190613ce1565b6106c2565b6040516102089190614b4d565b60405180910390f35b61022b60048036038101906102269190613d46565b610759565b005b610247600480360381019061024291906140c1565b610b52565b6040516102549190614b2b565b60405180910390f35b610277600480360381019061027291906140c1565b610bf3565b6040516102849190614e43565b60405180910390f35b6102a760048036038101906102a29190613fc2565b610c13565b6040516102b49190614b4d565b60405180910390f35b6102c5610dc4565b6040516102d29190614ba6565b60405180910390f35b6102f560048036038101906102f09190613e05565b610ddb565b005b610311600480360381019061030c91906140c1565b610e63565b60405161031e9190614a02565b60405180910390f35b61032f610ea3565b60405161033c9190614b4d565b60405180910390f35b61034d610efb565b005b610369600480360381019061036491906140ea565b611038565b005b61037361116a565b005b61037d6111f0565b60405161038a9190614a02565b60405180910390f35b6103ad60048036038101906103a89190613f0c565b61121a565b005b6103c960048036038101906103c49190613e94565b611471565b005b6103e560048036038101906103e091906140c1565b6115f2565b6040516103f59493929190614adf565b60405180910390f35b61041860048036038101906104139190613d0a565b61170f565b6040516104259190614ba6565b60405180910390f35b61044860048036038101906104439190613e05565b6117a3565b005b610464600480360381019061045f9190613ce1565b611abe565b005b610480600480360381019061047b9190614080565b611c6a565b005b60008073ffffffffffffffffffffffffffffffffffffffff168373ffffffffffffffffffffffffffffffffffffffff1614156104f3576040517f08c379a00000000000000000000000000000000000000000000000000000000081526004016104ea90614c23565b60405180910390fd5b6065600083815260200190815260200160002060008473ffffffffffffffffffffffffffffffffffffffff1673ffffffffffffffffffffffffffffffffffffffff16815260200190815260200160002054905092915050565b60007fd9b67a26000000000000000000000000000000000000000000000000000000007bffffffffffffffffffffffffffffffffffffffffffffffffffffffff1916827bffffffffffffffffffffffffffffffffffffffffffffffffffffffff1916148061061757507f0e89341c000000000000000000000000000000000000000000000000000000007bffffffffffffffffffffffffffffffffffffffffffffffffffffffff1916827bffffffffffffffffffffffffffffffffffffffffffffffffffffffff1916145b80610627575061062682611d4d565b5b9050919050565b60606067805461063d9061515a565b80601f01602080910402602001604051908101604052809291908181526020018280546106699061515a565b80156106b65780601f1061068b576101008083540402835291602001916106b6565b820191906000526020600020905b81548152906001019060200180831161069957829003601f168201915b50505050509050919050565b606060fc60008373ffffffffffffffffffffffffffffffffffffffff1673ffffffffffffffffffffffffffffffffffffffff16815260200190815260200160002080548060200260200160405190810160405280929190818152602001828054801561074d57602002820191906000526020600020905b815481526020019060010190808311610739575b50505050509050919050565b815183511461079d576040517f08c379a000000000000000000000000000000000000000000000000000000000815260040161079490614de3565b60405180910390fd5b600073ffffffffffffffffffffffffffffffffffffffff168473ffffffffffffffffffffffffffffffffffffffff16141561080d576040517f08c379a000000000000000000000000000000000000000000000000000000000815260040161080490614ce3565b60405180910390fd5b610815611db7565b73ffffffffffffffffffffffffffffffffffffffff168573ffffffffffffffffffffffffffffffffffffffff16148061085b575061085a85610855611db7565b61170f565b5b61089a576040517f08c379a000000000000000000000000000000000000000000000000000000000815260040161089190614d03565b60405180910390fd5b60006108a4611db7565b90506108b4818787878787611dbf565b60005b8451811015610abd5760008582815181106108fb577f4e487b7100000000000000000000000000000000000000000000000000000000600052603260045260246000fd5b602002602001015190506000858381518110610940577f4e487b7100000000000000000000000000000000000000000000000000000000600052603260045260246000fd5b6020026020010151905060006065600084815260200190815260200160002060008b73ffffffffffffffffffffffffffffffffffffffff1673ffffffffffffffffffffffffffffffffffffffff168152602001908152602001600020549050818110156109e2576040517f08c379a00000000000000000000000000000000000000000000000000000000081526004016109d990614d63565b60405180910390fd5b81816109ee9190615070565b6065600085815260200190815260200160002060008c73ffffffffffffffffffffffffffffffffffffffff1673ffffffffffffffffffffffffffffffffffffffff16815260200190815260200160002081905550816065600085815260200190815260200160002060008b73ffffffffffffffffffffffffffffffffffffffff1673ffffffffffffffffffffffffffffffffffffffff1681526020019081526020016000206000828254610aa2919061501a565b9250508190555050505080610ab69061518c565b90506108b7565b508473ffffffffffffffffffffffffffffffffffffffff168673ffffffffffffffffffffffffffffffffffffffff168273ffffffffffffffffffffffffffffffffffffffff167f4a39dc06d4c0dbc64b70af90fd698a233a518aa5d07e595d983b8c0526c8f7fb8787604051610b34929190614b6f565b60405180910390a4610b4a818787878787611dc7565b505050505050565b606060fd6000838152602001908152602001600020805480602002602001604051908101604052809291908181526020018280548015610be757602002820191906000526020600020905b8160009054906101000a900473ffffffffffffffffffffffffffffffffffffffff1673ffffffffffffffffffffffffffffffffffffffff1681526020019060010190808311610b9d575b50505050509050919050565b600060fb6000838152602001908152602001600020600201549050919050565b60608151835114610c59576040517f08c379a0000000000000000000000000000000000000000000000000000000008152600401610c5090614dc3565b60405180910390fd5b6000835167ffffffffffffffff811115610c9c577f4e487b7100000000000000000000000000000000000000000000000000000000600052604160045260246000fd5b604051908082528060200260200182016040528015610cca5781602001602082028036833780820191505090505b50905060005b8451811015610db957610d63858281518110610d15577f4e487b7100000000000000000000000000000000000000000000000000000000600052603260045260246000fd5b6020026020010151858381518110610d56577f4e487b7100000000000000000000000000000000000000000000000000000000600052603260045260246000fd5b6020026020010151610482565b828281518110610d9c577f4e487b7100000000000000000000000000000000000000000000000000000000600052603260045260246000fd5b60200260200101818152505080610db29061518c565b9050610cd0565b508091505092915050565b6000609760009054906101000a900460ff16905090565b610de3610dc4565b15610e23576040517f08c379a0000000000000000000000000000000000000000000000000000000008152600401610e1a90614e23565b60405180910390fd5b6000610e2f8685610482565b90506000610e3d8686610482565b9050610e4c87878787876117a3565b610e5a878787878686611f97565b50505050505050565b600060fb600083815260200190815260200160002060000160009054906101000a900473ffffffffffffffffffffffffffffffffffffffff169050919050565b606060fe805480602002602001604051908101604052809291908181526020018280548015610ef157602002820191906000526020600020905b815481526020019060010190808311610edd575b5050505050905090565b610f03611db7565b73ffffffffffffffffffffffffffffffffffffffff16610f216111f0565b73ffffffffffffffffffffffffffffffffffffffff1614610f77576040517f08c379a0000000000000000000000000000000000000000000000000000000008152600401610f6e90614d83565b60405180910390fd5b600073ffffffffffffffffffffffffffffffffffffffff1660c960009054906101000a900473ffffffffffffffffffffffffffffffffffffffff1673ffffffffffffffffffffffffffffffffffffffff167f8be0079c531659141344cd1fd0a4f28419497f9722a3daafe3b4186f6b6457e060405160405180910390a3600060c960006101000a81548173ffffffffffffffffffffffffffffffffffffffff021916908373ffffffffffffffffffffffffffffffffffffffff160217905550565b611040611db7565b73ffffffffffffffffffffffffffffffffffffffff1661105e6111f0565b73ffffffffffffffffffffffffffffffffffffffff16146110b4576040517f08c379a00000000000000000000000000000000000000000000000000000000081526004016110ab90614d83565b60405180910390fd5b6110bc610dc4565b156110fc576040517f08c379a00000000000000000000000000000000000000000000000000000000081526004016110f390614e23565b60405180910390fd5b60006111088285610482565b90508281101561114d576040517f08c379a000000000000000000000000000000000000000000000000000000000815260040161114490614cc3565b60405180910390fd5b611158828585612316565b6111648484848461253e565b50505050565b611172611db7565b73ffffffffffffffffffffffffffffffffffffffff166111906111f0565b73ffffffffffffffffffffffffffffffffffffffff16146111e6576040517f08c379a00000000000000000000000000000000000000000000000000000000081526004016111dd90614d83565b60405180910390fd5b6111ee612561565b565b600060c960009054906101000a900473ffffffffffffffffffffffffffffffffffffffff16905090565b611222611db7565b73ffffffffffffffffffffffffffffffffffffffff166112406111f0565b73ffffffffffffffffffffffffffffffffffffffff1614611296576040517f08c379a000000000000000000000000000000000000000000000000000000000815260040161128d90614d83565b60405180910390fd5b61129e610dc4565b156112de576040517f08c379a00000000000000000000000000000000000000000000000000000000081526004016112d590614e23565b60405180910390fd5b6112f982868660405180602001604052806000815250612604565b600060019050600073ffffffffffffffffffffffffffffffffffffffff1660fb600088815260200190815260200160002060000160009054906101000a900473ffffffffffffffffffffffffffffffffffffffff1673ffffffffffffffffffffffffffffffffffffffff16141561145c5761137261399b565b88816000019073ffffffffffffffffffffffffffffffffffffffff16908173ffffffffffffffffffffffffffffffffffffffff168152505087816020018181525050848160400181815250508281606001819052508060fb600089815260200190815260200160002060008201518160000160006101000a81548173ffffffffffffffffffffffffffffffffffffffff021916908373ffffffffffffffffffffffffffffffffffffffff160217905550602082015181600101556040820151816002015560608201518160030190805190602001906114529291906139d9565b5090505060009150505b61146786848361279b565b5050505050505050565b8173ffffffffffffffffffffffffffffffffffffffff16611490611db7565b73ffffffffffffffffffffffffffffffffffffffff1614156114e7576040517f08c379a00000000000000000000000000000000000000000000000000000000081526004016114de90614da3565b60405180910390fd5b80606660006114f4611db7565b73ffffffffffffffffffffffffffffffffffffffff1673ffffffffffffffffffffffffffffffffffffffff16815260200190815260200160002060008473ffffffffffffffffffffffffffffffffffffffff1673ffffffffffffffffffffffffffffffffffffffff16815260200190815260200160002060006101000a81548160ff0219169083151502179055508173ffffffffffffffffffffffffffffffffffffffff166115a1611db7565b73ffffffffffffffffffffffffffffffffffffffff167f17307eab39ab6107e8899845ad3d59bd9653f200f220920489ca2b5937696c31836040516115e69190614ba6565b60405180910390a35050565b6000806000606060fb600086815260200190815260200160002060000160009054906101000a900473ffffffffffffffffffffffffffffffffffffffff1660fb60008781526020019081526020016000206001015460fb60008881526020019081526020016000206002015460fb60008981526020019081526020016000206003018080546116809061515a565b80601f01602080910402602001604051908101604052809291908181526020018280546116ac9061515a565b80156116f95780601f106116ce576101008083540402835291602001916116f9565b820191906000526020600020905b8154815290600101906020018083116116dc57829003601f168201915b5050505050905093509350935093509193509193565b6000606660008473ffffffffffffffffffffffffffffffffffffffff1673ffffffffffffffffffffffffffffffffffffffff16815260200190815260200160002060008373ffffffffffffffffffffffffffffffffffffffff1673ffffffffffffffffffffffffffffffffffffffff16815260200190815260200160002060009054906101000a900460ff16905092915050565b600073ffffffffffffffffffffffffffffffffffffffff168473ffffffffffffffffffffffffffffffffffffffff161415611813576040517f08c379a000000000000000000000000000000000000000000000000000000000815260040161180a90614ce3565b60405180910390fd5b61181b611db7565b73ffffffffffffffffffffffffffffffffffffffff168573ffffffffffffffffffffffffffffffffffffffff16148061186157506118608561185b611db7565b61170f565b5b6118a0576040517f08c379a000000000000000000000000000000000000000000000000000000000815260040161189790614c83565b60405180910390fd5b60006118aa611db7565b90506118ca8187876118bb88612ba9565b6118c488612ba9565b87611dbf565b60006065600086815260200190815260200160002060008873ffffffffffffffffffffffffffffffffffffffff1673ffffffffffffffffffffffffffffffffffffffff16815260200190815260200160002054905083811015611962576040517f08c379a000000000000000000000000000000000000000000000000000000000815260040161195990614d63565b60405180910390fd5b838161196e9190615070565b6065600087815260200190815260200160002060008973ffffffffffffffffffffffffffffffffffffffff1673ffffffffffffffffffffffffffffffffffffffff16815260200190815260200160002081905550836065600087815260200190815260200160002060008873ffffffffffffffffffffffffffffffffffffffff1673ffffffffffffffffffffffffffffffffffffffff1681526020019081526020016000206000828254611a22919061501a565b925050819055508573ffffffffffffffffffffffffffffffffffffffff168773ffffffffffffffffffffffffffffffffffffffff168373ffffffffffffffffffffffffffffffffffffffff167fc3d58168c5ae7397731d063d5bbf3d657854427343f4c083240f7aacaa2d0f628888604051611a9f929190614e5e565b60405180910390a4611ab5828888888888612c6f565b50505050505050565b611ac6611db7565b73ffffffffffffffffffffffffffffffffffffffff16611ae46111f0565b73ffffffffffffffffffffffffffffffffffffffff1614611b3a576040517f08c379a0000000000000000000000000000000000000000000000000000000008152600401611b3190614d83565b60405180910390fd5b600073ffffffffffffffffffffffffffffffffffffffff168173ffffffffffffffffffffffffffffffffffffffff161415611baa576040517f08c379a0000000000000000000000000000000000000000000000000000000008152600401611ba190614c43565b60405180910390fd5b8073ffffffffffffffffffffffffffffffffffffffff1660c960009054906101000a900473ffffffffffffffffffffffffffffffffffffffff1673ffffffffffffffffffffffffffffffffffffffff167f8be0079c531659141344cd1fd0a4f28419497f9722a3daafe3b4186f6b6457e060405160405180910390a38060c960006101000a81548173ffffffffffffffffffffffffffffffffffffffff021916908373ffffffffffffffffffffffffffffffffffffffff16021790555050565b600060019054906101000a900460ff1680611c90575060008054906101000a900460ff16155b611ccf576040517f08c379a0000000000000000000000000000000000000000000000000000000008152600401611cc690614d23565b60405180910390fd5b60008060019054906101000a900460ff161590508015611d1f576001600060016101000a81548160ff02191690831515021790555060016000806101000a81548160ff0219169083151502179055505b611d2882612e3f565b8015611d495760008060016101000a81548160ff0219169083151502179055505b5050565b60007f01ffc9a7000000000000000000000000000000000000000000000000000000007bffffffffffffffffffffffffffffffffffffffffffffffffffffffff1916827bffffffffffffffffffffffffffffffffffffffffffffffffffffffff1916149050919050565b600033905090565b505050505050565b611de68473ffffffffffffffffffffffffffffffffffffffff16612f42565b15611f8f578373ffffffffffffffffffffffffffffffffffffffff1663bc197c8187878686866040518663ffffffff1660e01b8152600401611e2c959493929190614a1d565b602060405180830381600087803b158015611e4657600080fd5b505af1925050508015611e7757506040513d601f19601f82011682018060405250810190611e749190614057565b60015b611f0657611e83615280565b80611e8e5750611ecb565b806040517f08c379a0000000000000000000000000000000000000000000000000000000008152600401611ec29190614bc1565b60405180910390fd5b6040517f08c379a0000000000000000000000000000000000000000000000000000000008152600401611efd90614be3565b60405180910390fd5b63bc197c8160e01b7bffffffffffffffffffffffffffffffffffffffffffffffffffffffff1916817bffffffffffffffffffffffffffffffffffffffffffffffffffffffff191614611f8d576040517f08c379a0000000000000000000000000000000000000000000000000000000008152600401611f8490614c03565b60405180910390fd5b505b505050505050565b81831061222a57600060fd60008681526020019081526020016000208054905090506000805b828110156120895760fd60008881526020019081526020016000208181548110612010577f4e487b7100000000000000000000000000000000000000000000000000000000600052603260045260246000fd5b9060005260206000200160009054906101000a900473ffffffffffffffffffffffffffffffffffffffff1673ffffffffffffffffffffffffffffffffffffffff168973ffffffffffffffffffffffffffffffffffffffff16141561207657809150612089565b80806120819061518c565b915050611fbd565b5060fd60008781526020019081526020016000206001836120aa9190615070565b815481106120e1577f4e487b7100000000000000000000000000000000000000000000000000000000600052603260045260246000fd5b9060005260206000200160009054906101000a900473ffffffffffffffffffffffffffffffffffffffff1660fd60008881526020019081526020016000208281548110612157577f4e487b7100000000000000000000000000000000000000000000000000000000600052603260045260246000fd5b9060005260206000200160006101000a81548173ffffffffffffffffffffffffffffffffffffffff021916908373ffffffffffffffffffffffffffffffffffffffff16021790555060fd60008781526020019081526020016000208054806121e8577f4e487b7100000000000000000000000000000000000000000000000000000000600052603160045260246000fd5b6001900381819060005260206000200160006101000a81549073ffffffffffffffffffffffffffffffffffffffff021916905590556122278887612f55565b50505b600081141561230e5760fd6000858152602001908152602001600020859080600181540180825580915050600190039060005260206000200160009091909190916101000a81548173ffffffffffffffffffffffffffffffffffffffff021916908373ffffffffffffffffffffffffffffffffffffffff16021790555060fc60008673ffffffffffffffffffffffffffffffffffffffff1673ffffffffffffffffffffffffffffffffffffffff1681526020019081526020016000208490806001815401808255809150506001900390600052602060002001600090919091909150555b505050505050565b600073ffffffffffffffffffffffffffffffffffffffff168373ffffffffffffffffffffffffffffffffffffffff161415612386576040517f08c379a000000000000000000000000000000000000000000000000000000000815260040161237d90614d43565b60405180910390fd5b6000612390611db7565b90506123c0818560006123a287612ba9565b6123ab87612ba9565b60405180602001604052806000815250611dbf565b60006065600085815260200190815260200160002060008673ffffffffffffffffffffffffffffffffffffffff1673ffffffffffffffffffffffffffffffffffffffff16815260200190815260200160002054905082811015612458576040517f08c379a000000000000000000000000000000000000000000000000000000000815260040161244f90614c63565b60405180910390fd5b82816124649190615070565b6065600086815260200190815260200160002060008773ffffffffffffffffffffffffffffffffffffffff1673ffffffffffffffffffffffffffffffffffffffff16815260200190815260200160002081905550600073ffffffffffffffffffffffffffffffffffffffff168573ffffffffffffffffffffffffffffffffffffffff168373ffffffffffffffffffffffffffffffffffffffff167fc3d58168c5ae7397731d063d5bbf3d657854427343f4c083240f7aacaa2d0f62878760405161252f929190614e5e565b60405180910390a45050505050565b8281141561255b576125508285612f55565b61255a82856131f1565b5b50505050565b612569610dc4565b156125a9576040517f08c379a00000000000000000000000000000000000000000000000000000000081526004016125a090614ca3565b60405180910390fd5b6001609760006101000a81548160ff0219169083151502179055507f62e78cea01bee320cd4e420270b5ea74000d11b0c9f74754ebdbfc544b05a2586125ed611db7565b6040516125fa9190614a02565b60405180910390a1565b600073ffffffffffffffffffffffffffffffffffffffff168473ffffffffffffffffffffffffffffffffffffffff161415612674576040517f08c379a000000000000000000000000000000000000000000000000000000000815260040161266b90614e03565b60405180910390fd5b600061267e611db7565b905061269f8160008761269088612ba9565b61269988612ba9565b87611dbf565b826065600086815260200190815260200160002060008773ffffffffffffffffffffffffffffffffffffffff1673ffffffffffffffffffffffffffffffffffffffff16815260200190815260200160002060008282546126ff919061501a565b925050819055508473ffffffffffffffffffffffffffffffffffffffff16600073ffffffffffffffffffffffffffffffffffffffff168273ffffffffffffffffffffffffffffffffffffffff167fc3d58168c5ae7397731d063d5bbf3d657854427343f4c083240f7aacaa2d0f62878760405161277d929190614e5e565b60405180910390a461279481600087878787612c6f565b5050505050565b806127ca5760fe8390806001815401808255809150506001900390600052602060002001600090919091909150555b600060fc60008473ffffffffffffffffffffffffffffffffffffffff1673ffffffffffffffffffffffffffffffffffffffff16815260200190815260200160002080549050905060008114156128855760fc60008473ffffffffffffffffffffffffffffffffffffffff1673ffffffffffffffffffffffffffffffffffffffff1681526020019081526020016000208490806001815401808255809150506001900390600052602060002001600090919091909150556129ae565b60005b818110156129ac5760fc60008573ffffffffffffffffffffffffffffffffffffffff1673ffffffffffffffffffffffffffffffffffffffff1681526020019081526020016000208181548110612907577f4e487b7100000000000000000000000000000000000000000000000000000000600052603260045260246000fd5b906000526020600020015485141561291e576129ac565b60018261292b9190615070565b8114156129995760fc60008573ffffffffffffffffffffffffffffffffffffffff1673ffffffffffffffffffffffffffffffffffffffff1681526020019081526020016000208590806001815401808255809150506001900390600052602060002001600090919091909150555b80806129a49061518c565b915050612888565b505b600060fd60008681526020019081526020016000208054905090506000811415612a4b5760fd6000868152602001908152602001600020849080600181540180825580915050600190039060005260206000200160009091909190916101000a81548173ffffffffffffffffffffffffffffffffffffffff021916908373ffffffffffffffffffffffffffffffffffffffff160217905550612ba2565b60005b81811015612ba05760fd60008781526020019081526020016000208181548110612aa1577f4e487b7100000000000000000000000000000000000000000000000000000000600052603260045260246000fd5b9060005260206000200160009054906101000a900473ffffffffffffffffffffffffffffffffffffffff1673ffffffffffffffffffffffffffffffffffffffff168573ffffffffffffffffffffffffffffffffffffffff161415612b0457612ba0565b600182612b119190615070565b811415612b8d5760fd6000878152602001908152602001600020859080600181540180825580915050600190039060005260206000200160009091909190916101000a81548173ffffffffffffffffffffffffffffffffffffffff021916908373ffffffffffffffffffffffffffffffffffffffff1602179055505b8080612b989061518c565b915050612a4e565b505b5050505050565b60606000600167ffffffffffffffff811115612bee577f4e487b7100000000000000000000000000000000000000000000000000000000600052604160045260246000fd5b604051908082528060200260200182016040528015612c1c5781602001602082028036833780820191505090505b5090508281600081518110612c5a577f4e487b7100000000000000000000000000000000000000000000000000000000600052603260045260246000fd5b60200260200101818152505080915050919050565b612c8e8473ffffffffffffffffffffffffffffffffffffffff16612f42565b15612e37578373ffffffffffffffffffffffffffffffffffffffff1663f23a6e6187878686866040518663ffffffff1660e01b8152600401612cd4959493929190614a85565b602060405180830381600087803b158015612cee57600080fd5b505af1925050508015612d1f57506040513d601f19601f82011682018060405250810190612d1c9190614057565b60015b612dae57612d2b615280565b80612d365750612d73565b806040517f08c379a0000000000000000000000000000000000000000000000000000000008152600401612d6a9190614bc1565b60405180910390fd5b6040517f08c379a0000000000000000000000000000000000000000000000000000000008152600401612da590614be3565b60405180910390fd5b63f23a6e6160e01b7bffffffffffffffffffffffffffffffffffffffffffffffffffffffff1916817bffffffffffffffffffffffffffffffffffffffffffffffffffffffff191614612e35576040517f08c379a0000000000000000000000000000000000000000000000000000000008152600401612e2c90614c03565b60405180910390fd5b505b505050505050565b600060019054906101000a900460ff1680612e65575060008054906101000a900460ff16155b612ea4576040517f08c379a0000000000000000000000000000000000000000000000000000000008152600401612e9b90614d23565b60405180910390fd5b60008060019054906101000a900460ff161590508015612ef4576001600060016101000a81548160ff02191690831515021790555060016000806101000a81548160ff0219169083151502179055505b612efc613476565b612f0461354f565b612f0c613628565b612f158261371c565b612f1d6137ff565b8015612f3e5760008060016101000a81548160ff0219169083151502179055505b5050565b600080823b905060008111915050919050565b600060fc60008473ffffffffffffffffffffffffffffffffffffffff1673ffffffffffffffffffffffffffffffffffffffff1681526020019081526020016000208054905090506000805b8281101561304c5760fc60008673ffffffffffffffffffffffffffffffffffffffff1673ffffffffffffffffffffffffffffffffffffffff168152602001908152602001600020818154811061301f577f4e487b7100000000000000000000000000000000000000000000000000000000600052603260045260246000fd5b90600052602060002001548414156130395780915061304c565b80806130449061518c565b915050612fa0565b5060fc60008573ffffffffffffffffffffffffffffffffffffffff1673ffffffffffffffffffffffffffffffffffffffff1681526020019081526020016000206001836130999190615070565b815481106130d0577f4e487b7100000000000000000000000000000000000000000000000000000000600052603260045260246000fd5b906000526020600020015460fc60008673ffffffffffffffffffffffffffffffffffffffff1673ffffffffffffffffffffffffffffffffffffffff1681526020019081526020016000208281548110613152577f4e487b7100000000000000000000000000000000000000000000000000000000600052603260045260246000fd5b906000526020600020018190555060fc60008573ffffffffffffffffffffffffffffffffffffffff1673ffffffffffffffffffffffffffffffffffffffff1681526020019081526020016000208054806131d5577f4e487b7100000000000000000000000000000000000000000000000000000000600052603160045260246000fd5b6001900381819060005260206000200160009055905550505050565b600060fd60008381526020019081526020016000208054905090506000805b828110156132dc5760fd60008581526020019081526020016000208181548110613263577f4e487b7100000000000000000000000000000000000000000000000000000000600052603260045260246000fd5b9060005260206000200160009054906101000a900473ffffffffffffffffffffffffffffffffffffffff1673ffffffffffffffffffffffffffffffffffffffff168573ffffffffffffffffffffffffffffffffffffffff1614156132c9578091506132dc565b80806132d49061518c565b915050613210565b5060fd60008481526020019081526020016000206001836132fd9190615070565b81548110613334577f4e487b7100000000000000000000000000000000000000000000000000000000600052603260045260246000fd5b9060005260206000200160009054906101000a900473ffffffffffffffffffffffffffffffffffffffff1660fd600085815260200190815260200160002082815481106133aa577f4e487b7100000000000000000000000000000000000000000000000000000000600052603260045260246000fd5b9060005260206000200160006101000a81548173ffffffffffffffffffffffffffffffffffffffff021916908373ffffffffffffffffffffffffffffffffffffffff16021790555060fd600084815260200190815260200160002080548061343b577f4e487b7100000000000000000000000000000000000000000000000000000000600052603160045260246000fd5b6001900381819060005260206000200160006101000a81549073ffffffffffffffffffffffffffffffffffffffff0219169055905550505050565b600060019054906101000a900460ff168061349c575060008054906101000a900460ff16155b6134db576040517f08c379a00000000000000000000000000000000000000000000000000000000081526004016134d290614d23565b60405180910390fd5b60008060019054906101000a900460ff16159050801561352b576001600060016101000a81548160ff02191690831515021790555060016000806101000a81548160ff0219169083151502179055505b801561354c5760008060016101000a81548160ff0219169083151502179055505b50565b600060019054906101000a900460ff1680613575575060008054906101000a900460ff16155b6135b4576040517f08c379a00000000000000000000000000000000000000000000000000000000081526004016135ab90614d23565b60405180910390fd5b60008060019054906101000a900460ff161590508015613604576001600060016101000a81548160ff02191690831515021790555060016000806101000a81548160ff0219169083151502179055505b80156136255760008060016101000a81548160ff0219169083151502179055505b50565b600060019054906101000a900460ff168061364e575060008054906101000a900460ff16155b61368d576040517f08c379a000000000000000000000000000000000000000000000000000000000815260040161368490614d23565b60405180910390fd5b60008060019054906101000a900460ff1615905080156136dd576001600060016101000a81548160ff02191690831515021790555060016000806101000a81548160ff0219169083151502179055505b6000609760006101000a81548160ff02191690831515021790555080156137195760008060016101000a81548160ff0219169083151502179055505b50565b600060019054906101000a900460ff1680613742575060008054906101000a900460ff16155b613781576040517f08c379a000000000000000000000000000000000000000000000000000000000815260040161377890614d23565b60405180910390fd5b60008060019054906101000a900460ff1615905080156137d1576001600060016101000a81548160ff02191690831515021790555060016000806101000a81548160ff0219169083151502179055505b6137da82613981565b80156137fb5760008060016101000a81548160ff0219169083151502179055505b5050565b600060019054906101000a900460ff1680613825575060008054906101000a900460ff16155b613864576040517f08c379a000000000000000000000000000000000000000000000000000000000815260040161385b90614d23565b60405180910390fd5b60008060019054906101000a900460ff1615905080156138b4576001600060016101000a81548160ff02191690831515021790555060016000806101000a81548160ff0219169083151502179055505b60006138be611db7565b90508060c960006101000a81548173ffffffffffffffffffffffffffffffffffffffff021916908373ffffffffffffffffffffffffffffffffffffffff1602179055508073ffffffffffffffffffffffffffffffffffffffff16600073ffffffffffffffffffffffffffffffffffffffff167f8be0079c531659141344cd1fd0a4f28419497f9722a3daafe3b4186f6b6457e060405160405180910390a350801561397e5760008060016101000a81548160ff0219169083151502179055505b50565b80606790805190602001906139979291906139d9565b5050565b6040518060800160405280600073ffffffffffffffffffffffffffffffffffffffff1681526020016000815260200160008152602001606081525090565b8280546139e59061515a565b90600052602060002090601f016020900481019282613a075760008555613a4e565b82601f10613a2057805160ff1916838001178555613a4e565b82800160010185558215613a4e579182015b82811115613a4d578251825591602001919060010190613a32565b5b509050613a5b9190613a5f565b5090565b5b80821115613a78576000816000905550600101613a60565b5090565b6000613a8f613a8a84614eb8565b614e87565b90508083825260208201905082856020860282011115613aae57600080fd5b60005b85811015613ade5781613ac48882613bd0565b845260208401935060208301925050600181019050613ab1565b5050509392505050565b6000613afb613af684614ee4565b614e87565b90508083825260208201905082856020860282011115613b1a57600080fd5b60005b85811015613b4a5781613b308882613ccc565b845260208401935060208301925050600181019050613b1d565b5050509392505050565b6000613b67613b6284614f10565b614e87565b905082815260208101848484011115613b7f57600080fd5b613b8a848285615118565b509392505050565b6000613ba5613ba084614f40565b614e87565b905082815260208101848484011115613bbd57600080fd5b613bc8848285615118565b509392505050565b600081359050613bdf81615336565b92915050565b600082601f830112613bf657600080fd5b8135613c06848260208601613a7c565b91505092915050565b600082601f830112613c2057600080fd5b8135613c30848260208601613ae8565b91505092915050565b600081359050613c488161534d565b92915050565b600081359050613c5d81615364565b92915050565b600081519050613c7281615364565b92915050565b600082601f830112613c8957600080fd5b8135613c99848260208601613b54565b91505092915050565b600082601f830112613cb357600080fd5b8135613cc3848260208601613b92565b91505092915050565b600081359050613cdb8161537b565b92915050565b600060208284031215613cf357600080fd5b6000613d0184828501613bd0565b91505092915050565b60008060408385031215613d1d57600080fd5b6000613d2b85828601613bd0565b9250506020613d3c85828601613bd0565b9150509250929050565b600080600080600060a08688031215613d5e57600080fd5b6000613d6c88828901613bd0565b9550506020613d7d88828901613bd0565b945050604086013567ffffffffffffffff811115613d9a57600080fd5b613da688828901613c0f565b935050606086013567ffffffffffffffff811115613dc357600080fd5b613dcf88828901613c0f565b925050608086013567ffffffffffffffff811115613dec57600080fd5b613df888828901613c78565b9150509295509295909350565b600080600080600060a08688031215613e1d57600080fd5b6000613e2b88828901613bd0565b9550506020613e3c88828901613bd0565b9450506040613e4d88828901613ccc565b9350506060613e5e88828901613ccc565b925050608086013567ffffffffffffffff811115613e7b57600080fd5b613e8788828901613c78565b9150509295509295909350565b60008060408385031215613ea757600080fd5b6000613eb585828601613bd0565b9250506020613ec685828601613c39565b9150509250929050565b60008060408385031215613ee357600080fd5b6000613ef185828601613bd0565b9250506020613f0285828601613ccc565b9150509250929050565b600080600080600080600060e0888a031215613f2757600080fd5b6000613f358a828b01613bd0565b9750506020613f468a828b01613ccc565b9650506040613f578a828b01613ccc565b9550506060613f688a828b01613ccc565b9450506080613f798a828b01613ccc565b93505060a0613f8a8a828b01613bd0565b92505060c088013567ffffffffffffffff811115613fa757600080fd5b613fb38a828b01613ca2565b91505092959891949750929550565b60008060408385031215613fd557600080fd5b600083013567ffffffffffffffff811115613fef57600080fd5b613ffb85828601613be5565b925050602083013567ffffffffffffffff81111561401857600080fd5b61402485828601613c0f565b9150509250929050565b60006020828403121561404057600080fd5b600061404e84828501613c4e565b91505092915050565b60006020828403121561406957600080fd5b600061407784828501613c63565b91505092915050565b60006020828403121561409257600080fd5b600082013567ffffffffffffffff8111156140ac57600080fd5b6140b884828501613ca2565b91505092915050565b6000602082840312156140d357600080fd5b60006140e184828501613ccc565b91505092915050565b6000806000606084860312156140ff57600080fd5b600061410d86828701613ccc565b935050602061411e86828701613ccc565b925050604061412f86828701613bd0565b9150509250925092565b60006141458383614169565b60208301905092915050565b600061415d83836149e4565b60208301905092915050565b614172816150a4565b82525050565b614181816150a4565b82525050565b600061419282614f90565b61419c8185614fd6565b93506141a783614f70565b8060005b838110156141d85781516141bf8882614139565b97506141ca83614fbc565b9250506001810190506141ab565b5085935050505092915050565b60006141f082614f9b565b6141fa8185614fe7565b935061420583614f80565b8060005b8381101561423657815161421d8882614151565b975061422883614fc9565b925050600181019050614209565b5085935050505092915050565b61424c816150b6565b82525050565b600061425d82614fa6565b6142678185614ff8565b9350614277818560208601615127565b61428081615262565b840191505092915050565b600061429682614fb1565b6142a08185615009565b93506142b0818560208601615127565b6142b981615262565b840191505092915050565b60006142d1603483615009565b91507f455243313135353a207472616e7366657220746f206e6f6e204552433131353560008301527f526563656976657220696d706c656d656e7465720000000000000000000000006020830152604082019050919050565b6000614337602883615009565b91507f455243313135353a204552433131353552656365697665722072656a6563746560008301527f6420746f6b656e730000000000000000000000000000000000000000000000006020830152604082019050919050565b600061439d602b83615009565b91507f455243313135353a2062616c616e636520717565727920666f7220746865207a60008301527f65726f20616464726573730000000000000000000000000000000000000000006020830152604082019050919050565b6000614403602683615009565b91507f4f776e61626c653a206e6577206f776e657220697320746865207a65726f206160008301527f64647265737300000000000000000000000000000000000000000000000000006020830152604082019050919050565b6000614469602483615009565b91507f455243313135353a206275726e20616d6f756e7420657863656564732062616c60008301527f616e6365000000000000000000000000000000000000000000000000000000006020830152604082019050919050565b60006144cf602983615009565b91507f455243313135353a2063616c6c6572206973206e6f74206f776e6572206e6f7260008301527f20617070726f76656400000000000000000000000000000000000000000000006020830152604082019050919050565b6000614535601083615009565b91507f5061757361626c653a20706175736564000000000000000000000000000000006000830152602082019050919050565b6000614575604083615009565b91507f7472616e7366657265722068617320746f206f776e20657175616c206f72206d60008301527f6f726520736861726573207468616e2074686520676976656e20616d6f756e746020830152604082019050919050565b60006145db602583615009565b91507f455243313135353a207472616e7366657220746f20746865207a65726f20616460008301527f64726573730000000000000000000000000000000000000000000000000000006020830152604082019050919050565b6000614641603283615009565b91507f455243313135353a207472616e736665722063616c6c6572206973206e6f742060008301527f6f776e6572206e6f7220617070726f76656400000000000000000000000000006020830152604082019050919050565b60006146a7602e83615009565b91507f496e697469616c697a61626c653a20636f6e747261637420697320616c72656160008301527f647920696e697469616c697a65640000000000000000000000000000000000006020830152604082019050919050565b600061470d602383615009565b91507f455243313135353a206275726e2066726f6d20746865207a65726f206164647260008301527f65737300000000000000000000000000000000000000000000000000000000006020830152604082019050919050565b6000614773602a83615009565b91507f455243313135353a20696e73756666696369656e742062616c616e636520666f60008301527f72207472616e73666572000000000000000000000000000000000000000000006020830152604082019050919050565b60006147d9602083615009565b91507f4f776e61626c653a2063616c6c6572206973206e6f7420746865206f776e65726000830152602082019050919050565b6000614819602983615009565b91507f455243313135353a2073657474696e6720617070726f76616c2073746174757360008301527f20666f722073656c6600000000000000000000000000000000000000000000006020830152604082019050919050565b600061487f602983615009565b91507f455243313135353a206163636f756e747320616e6420696473206c656e67746860008301527f206d69736d6174636800000000000000000000000000000000000000000000006020830152604082019050919050565b60006148e5602883615009565b91507f455243313135353a2069647320616e6420616d6f756e7473206c656e6774682060008301527f6d69736d617463680000000000000000000000000000000000000000000000006020830152604082019050919050565b600061494b602183615009565b91507f455243313135353a206d696e7420746f20746865207a65726f2061646472657360008301527f73000000000000000000000000000000000000000000000000000000000000006020830152604082019050919050565b60006149b1601883615009565b91507f4e6f7420616c6c6f776564207768696c652070617573656400000000000000006000830152602082019050919050565b6149ed8161510e565b82525050565b6149fc8161510e565b82525050565b6000602082019050614a176000830184614178565b92915050565b600060a082019050614a326000830188614178565b614a3f6020830187614178565b8181036040830152614a5181866141e5565b90508181036060830152614a6581856141e5565b90508181036080830152614a798184614252565b90509695505050505050565b600060a082019050614a9a6000830188614178565b614aa76020830187614178565b614ab460408301866149f3565b614ac160608301856149f3565b8181036080830152614ad38184614252565b90509695505050505050565b6000608082019050614af46000830187614178565b614b0160208301866149f3565b614b0e60408301856149f3565b8181036060830152614b20818461428b565b905095945050505050565b60006020820190508181036000830152614b458184614187565b905092915050565b60006020820190508181036000830152614b6781846141e5565b905092915050565b60006040820190508181036000830152614b8981856141e5565b90508181036020830152614b9d81846141e5565b90509392505050565b6000602082019050614bbb6000830184614243565b92915050565b60006020820190508181036000830152614bdb818461428b565b905092915050565b60006020820190508181036000830152614bfc816142c4565b9050919050565b60006020820190508181036000830152614c1c8161432a565b9050919050565b60006020820190508181036000830152614c3c81614390565b9050919050565b60006020820190508181036000830152614c5c816143f6565b9050919050565b60006020820190508181036000830152614c7c8161445c565b9050919050565b60006020820190508181036000830152614c9c816144c2565b9050919050565b60006020820190508181036000830152614cbc81614528565b9050919050565b60006020820190508181036000830152614cdc81614568565b9050919050565b60006020820190508181036000830152614cfc816145ce565b9050919050565b60006020820190508181036000830152614d1c81614634565b9050919050565b60006020820190508181036000830152614d3c8161469a565b9050919050565b60006020820190508181036000830152614d5c81614700565b9050919050565b60006020820190508181036000830152614d7c81614766565b9050919050565b60006020820190508181036000830152614d9c816147cc565b9050919050565b60006020820190508181036000830152614dbc8161480c565b9050919050565b60006020820190508181036000830152614ddc81614872565b9050919050565b60006020820190508181036000830152614dfc816148d8565b9050919050565b60006020820190508181036000830152614e1c8161493e565b9050919050565b60006020820190508181036000830152614e3c816149a4565b9050919050565b6000602082019050614e5860008301846149f3565b92915050565b6000604082019050614e7360008301856149f3565b614e8060208301846149f3565b9392505050565b6000604051905081810181811067ffffffffffffffff82111715614eae57614ead615233565b5b8060405250919050565b600067ffffffffffffffff821115614ed357614ed2615233565b5b602082029050602081019050919050565b600067ffffffffffffffff821115614eff57614efe615233565b5b602082029050602081019050919050565b600067ffffffffffffffff821115614f2b57614f2a615233565b5b601f19601f8301169050602081019050919050565b600067ffffffffffffffff821115614f5b57614f5a615233565b5b601f19601f8301169050602081019050919050565b6000819050602082019050919050565b6000819050602082019050919050565b600081519050919050565b600081519050919050565b600081519050919050565b600081519050919050565b6000602082019050919050565b6000602082019050919050565b600082825260208201905092915050565b600082825260208201905092915050565b600082825260208201905092915050565b600082825260208201905092915050565b60006150258261510e565b91506150308361510e565b9250827fffffffffffffffffffffffffffffffffffffffffffffffffffffffffffffffff03821115615065576150646151d5565b5b828201905092915050565b600061507b8261510e565b91506150868361510e565b925082821015615099576150986151d5565b5b828203905092915050565b60006150af826150ee565b9050919050565b60008115159050919050565b60007fffffffff0000000000000000000000000000000000000000000000000000000082169050919050565b600073ffffffffffffffffffffffffffffffffffffffff82169050919050565b6000819050919050565b82818337600083830152505050565b60005b8381101561514557808201518184015260208101905061512a565b83811115615154576000848401525b50505050565b6000600282049050600182168061517257607f821691505b6020821081141561518657615185615204565b5b50919050565b60006151978261510e565b91507fffffffffffffffffffffffffffffffffffffffffffffffffffffffffffffffff8214156151ca576151c96151d5565b5b600182019050919050565b7f4e487b7100000000000000000000000000000000000000000000000000000000600052601160045260246000fd5b7f4e487b7100000000000000000000000000000000000000000000000000000000600052602260045260246000fd5b7f4e487b7100000000000000000000000000000000000000000000000000000000600052604160045260246000fd5b6000601f19601f8301169050919050565b60008160e01c9050919050565b600060443d101561529057615333565b60046000803e6152a1600051615273565b6308c379a081146152b25750615333565b60405160043d036004823e80513d602482011167ffffffffffffffff821117156152de57505050615333565b808201805167ffffffffffffffff8111156152fd575050505050615333565b8060208301013d850181111561531857505050505050615333565b61532182615262565b60208401016040528296505050505050505b90565b61533f816150a4565b811461534a57600080fd5b50565b615356816150b6565b811461536157600080fd5b50565b61536d816150c2565b811461537857600080fd5b50565b6153848161510e565b811461538f57600080fd5b5056fea26469706673582212205ed64833f0214dd3164fa4b8c62509c49d4acbccf9eb255e5f48dabc7d16f7f864736f6c63430008000033",
  "immutableReferences": {},
  "source": "// SPDX-License-Identifier: MIT\n\npragma solidity ^0.8.0;\n\nimport \"@openzeppelin/contracts-upgradeable/token/ERC1155/ERC1155Upgradeable.sol\";\nimport \"@openzeppelin/contracts-upgradeable/security/PausableUpgradeable.sol\";\nimport \"@openzeppelin/contracts-upgradeable/proxy/utils/Initializable.sol\";\nimport \"@openzeppelin/contracts/token/ERC721/extensions/ERC721URIStorage.sol\";\nimport \"@openzeppelin/contracts-upgradeable/access/OwnableUpgradeable.sol\";\nimport \"./NftFractionsRepositoryBase.sol\";\n\ncontract BscNftFractionsRepository is\n    Initializable,\n    ERC1155Upgradeable,\n    PausableUpgradeable,\n    OwnableUpgradeable,\n    NftFractionsRepositoryBase\n{\n    // custom data structures to keep track of:\n    // tokenIds by owner:\n    mapping(address => uint256[]) tokenIdsByShareOwner;\n    // owners by tokenId:\n    mapping(uint256 => address[]) ownersByTokenId;\n    // all tokenIds:\n    uint256[] tokenIds;\n\n    function initialize(string memory uri_) public initializer {\n        __NftFractionsRepositoryBase_init(uri_);\n    }\n\n    /**\n     * This hook keeps the custom data structures updated after the burn function exectution\n     */\n    function _afterBurn(\n        uint256 tokenId,\n        uint256 amount,\n        address transferer,\n        uint256 transferersAmount\n    ) internal override {\n        // if the transferer transfers all his amount\n        if (transferersAmount == amount) {\n            deleteIdFromTokenIdsByShareOwner(transferer, tokenId);\n            deleteOwnerFromOwnersByTokenId(transferer, tokenId);\n        }\n    }\n\n    /**\n     * This hook keeps the custom data structures updated after the mint function exectution\n     */\n    function _afterMint(\n        uint256 erc1155TokenId,\n        address transferer,\n        bool existingToken\n    ) internal override {\n        // if the token does not exist in this chain yet\n        if (!existingToken) {\n            tokenIds.push(erc1155TokenId);\n        }\n        // Has to check if the transferer does not own this tokenId in this chain yet\n        uint256 nrOfTokensByTransferer = tokenIdsByShareOwner[transferer]\n        .length;\n        if (nrOfTokensByTransferer == 0) {\n            tokenIdsByShareOwner[transferer].push(erc1155TokenId);\n        } else {\n            for (uint256 i; i < nrOfTokensByTransferer; i++) {\n                if (erc1155TokenId == tokenIdsByShareOwner[transferer][i]) {\n                    break;\n                }\n                if (i == nrOfTokensByTransferer - 1) {\n                    tokenIdsByShareOwner[transferer].push(erc1155TokenId);\n                }\n            }\n        }\n        // Has to check if the transferer is amoung the owners of this token in this chain\n        uint256 nrOfOwnerByTokenId = ownersByTokenId[erc1155TokenId].length;\n        if (nrOfOwnerByTokenId == 0) {\n            ownersByTokenId[erc1155TokenId].push(transferer);\n        } else {\n            for (uint256 i; i < nrOfOwnerByTokenId; i++) {\n                if (transferer == ownersByTokenId[erc1155TokenId][i]) {\n                    break;\n                }\n                if (i == nrOfOwnerByTokenId - 1) {\n                    ownersByTokenId[erc1155TokenId].push(transferer);\n                }\n            }\n        }\n    }\n\n    /**\n     * This hook keeps the custom data structures updated after the transferFrom function exectution\n     */\n    function _afterTransferFrom(\n        address from,\n        address to,\n        uint256 id,\n        uint256 amount,\n        uint256 fromBalanceBefore,\n        uint256 toBalanceBefore\n    ) internal override {\n        if (amount >= fromBalanceBefore) {\n            // remove the tokenId from ownersByTokenId[tokenId][from]\n            uint256 nrOfOwners = ownersByTokenId[id].length;\n            uint256 ownerPosition;\n            for (uint256 i; i < nrOfOwners; i++) {\n                if (from == ownersByTokenId[id][i]) {\n                    ownerPosition = i;\n                    break;\n                }\n            }\n            ownersByTokenId[id][ownerPosition] = ownersByTokenId[id][\n                nrOfOwners - 1\n            ];\n            ownersByTokenId[id].pop();\n            // delete the tokenId from the tokenIdsByShareOwner array\n            deleteIdFromTokenIdsByShareOwner(from, id);\n        }\n        if (toBalanceBefore == 0) {\n            ownersByTokenId[id].push(to);\n            tokenIdsByShareOwner[to].push(id);\n        }\n    }\n\n    /**\n     * @dev returns the ERC1155 tokenIds that the shareOwner has shares in\n     */\n    function getTokenIdsByShareOwner(address shareOwner)\n        public\n        view\n        returns (uint256[] memory)\n    {\n        return tokenIdsByShareOwner[shareOwner];\n    }\n\n    /**\n     * @dev returns the owners of a token\n     */\n    function getOwnersBYtokenId(uint256 tokenId)\n        public\n        view\n        returns (address[] memory)\n    {\n        return ownersByTokenId[tokenId];\n    }\n\n    /**\n     * @dev returns all ERC1155 tokenIds managed by this contract\n     */\n    function getTokenIds() public view returns (uint256[] memory) {\n        return tokenIds;\n    }\n\n    /**\n     * @dev helper to delete a tokenId from tokenIdsByShareOwner\n     */\n    function deleteIdFromTokenIdsByShareOwner(address owner, uint256 id)\n        private\n    {\n        uint256 nrOfTokensByShareOwner = tokenIdsByShareOwner[owner].length;\n        uint256 tokenIdPositionInShareOwner;\n        for (uint256 i; i < nrOfTokensByShareOwner; i++) {\n            if (id == tokenIdsByShareOwner[owner][i]) {\n                tokenIdPositionInShareOwner = i;\n                break;\n            }\n        }\n        tokenIdsByShareOwner[owner][\n            tokenIdPositionInShareOwner\n        ] = tokenIdsByShareOwner[owner][nrOfTokensByShareOwner - 1];\n        tokenIdsByShareOwner[owner].pop();\n    }\n\n    /**\n     * @dev helper to delete an owner from ownersByTokenId\n     */\n    function deleteOwnerFromOwnersByTokenId(address owner, uint256 id) private {\n        uint256 nrOfOwnersByTokenId = ownersByTokenId[id].length;\n        uint256 ownerPositionInOwners;\n        for (uint256 i; i < nrOfOwnersByTokenId; i++) {\n            if (owner == ownersByTokenId[id][i]) {\n                ownerPositionInOwners = i;\n                break;\n            }\n        }\n        ownersByTokenId[id][ownerPositionInOwners] = ownersByTokenId[id][\n            nrOfOwnersByTokenId - 1\n        ];\n        ownersByTokenId[id].pop();\n    }\n}\n",
  "sourcePath": "/Users/szabolcs/Documents/Personal/Szakmai/Ethereum/nft-fractions-dex/contracts/BscNftFractionsRepository.sol",
  "compiler": {
    "name": "solc",
    "version": "0.8.0+commit.c7dfd78e.Emscripten.clang"
  },
  "schemaVersion": "3.3.4",
  "updatedAt": "2021-07-21T11:46:49.922Z",
  "networkType": "ethereum",
  "devdoc": {
    "kind": "dev",
    "methods": {
      "balanceOf(address,uint256)": {
        "details": "See {IERC1155-balanceOf}. Requirements: - `account` cannot be the zero address."
      },
      "balanceOfBatch(address[],uint256[])": {
        "details": "See {IERC1155-balanceOfBatch}. Requirements: - `accounts` and `ids` must have the same length."
      },
      "burn(uint256,uint256,address)": {
        "details": "when someone transfers his tokens to the other chain the bridge contract will call this burn function The bridge contract is the owner of NftFractionsRepository. Requirements: - only the owner (the bridge contract = owner) can call - the contract is not paused There is a hook (_afterBurn) that can be overriden to implement some custom logic performed after the burn"
      },
      "getErc721ContractAddress(uint256)": {
        "details": "returns original ERC721 contract address for a token"
      },
      "getOwnersBYtokenId(uint256)": {
        "details": "returns the owners of a token"
      },
      "getTokenData(uint256)": {
        "details": "returns relevant token data: - original ERC721 contract address - original ERC721 token id - amount of fractions minted"
      },
      "getTokenIds()": {
        "details": "returns all ERC1155 tokenIds managed by this contract"
      },
      "getTokenIdsByShareOwner(address)": {
        "details": "returns the ERC1155 tokenIds that the shareOwner has shares in"
      },
      "getTotalFractionsAmount(uint256)": {
        "details": "returns amount of fractions minted for a token"
      },
      "isApprovedForAll(address,address)": {
        "details": "See {IERC1155-isApprovedForAll}."
      },
      "mint(address,uint256,uint256,uint256,uint256,address,string)": {
        "details": "when someone transfers his tokens from the other chain to this chain the bridge contract will call this mint function Requirements: - only the owner (the bridge contract = owner) can call - the contract is not paused There is a hook (_afterMint) that can be overriden to implement some custom logic performed after the mint"
      },
      "owner()": {
        "details": "Returns the address of the current owner."
      },
      "paused()": {
        "details": "Returns true if the contract is paused, and false otherwise."
      },
      "renounceOwnership()": {
        "details": "Leaves the contract without owner. It will not be possible to call `onlyOwner` functions anymore. Can only be called by the current owner. NOTE: Renouncing ownership will leave the contract without an owner, thereby removing any functionality that is only available to the owner."
      },
      "safeBatchTransferFrom(address,address,uint256[],uint256[],bytes)": {
        "details": "See {IERC1155-safeBatchTransferFrom}."
      },
      "safeTransferFrom(address,address,uint256,uint256,bytes)": {
        "details": "See {IERC1155-safeTransferFrom}."
      },
      "setApprovalForAll(address,bool)": {
        "details": "See {IERC1155-setApprovalForAll}."
      },
      "supportsInterface(bytes4)": {
        "details": "See {IERC165-supportsInterface}."
      },
      "transferFrom(address,address,uint256,uint256,bytes)": {
        "details": "same as safeTransferFrom in ERC1155 with one restriction: - the contract is not paused There is a hook (_afterTransfer) that can be overriden to implement some custom logic performed after the transferFrom"
      },
      "transferOwnership(address)": {
        "details": "Transfers ownership of the contract to a new account (`newOwner`). Can only be called by the current owner."
      },
      "uri(uint256)": {
        "details": "See {IERC1155MetadataURI-uri}. This implementation returns the same URI for *all* token types. It relies on the token type ID substitution mechanism https://eips.ethereum.org/EIPS/eip-1155#metadata[defined in the EIP]. Clients calling this function must replace the `\\{id\\}` substring with the actual token type ID."
      }
    },
    "version": 1
  },
  "userdoc": {
    "kind": "user",
    "methods": {},
    "version": 1
  }
}