{
  "contractName": "Dex",
  "abi": [
    {
      "anonymous": false,
      "inputs": [
        {
          "indexed": false,
          "internalType": "uint256",
          "name": "orderId",
          "type": "uint256"
        },
        {
          "indexed": true,
          "internalType": "uint256",
          "name": "tokenId",
          "type": "uint256"
        },
        {
          "indexed": true,
          "internalType": "address",
          "name": "trader1",
          "type": "address"
        },
        {
          "indexed": true,
          "internalType": "address",
          "name": "trader2",
          "type": "address"
        },
        {
          "indexed": false,
          "internalType": "uint256",
          "name": "amount",
          "type": "uint256"
        },
        {
          "indexed": false,
          "internalType": "uint256",
          "name": "price",
          "type": "uint256"
        },
        {
          "indexed": false,
          "internalType": "uint256",
          "name": "date",
          "type": "uint256"
        }
      ],
      "name": "NewTrade",
      "type": "event"
    },
    {
      "anonymous": false,
      "inputs": [
        {
          "indexed": true,
          "internalType": "address",
          "name": "previousOwner",
          "type": "address"
        },
        {
          "indexed": true,
          "internalType": "address",
          "name": "newOwner",
          "type": "address"
        }
      ],
      "name": "OwnershipTransferred",
      "type": "event"
    },
    {
      "anonymous": false,
      "inputs": [
        {
          "indexed": false,
          "internalType": "address",
          "name": "account",
          "type": "address"
        }
      ],
      "name": "Paused",
      "type": "event"
    },
    {
      "anonymous": false,
      "inputs": [
        {
          "indexed": false,
          "internalType": "address",
          "name": "account",
          "type": "address"
        }
      ],
      "name": "Unpaused",
      "type": "event"
    },
    {
      "inputs": [],
      "name": "owner",
      "outputs": [
        {
          "internalType": "address",
          "name": "",
          "type": "address"
        }
      ],
      "stateMutability": "view",
      "type": "function",
      "constant": true
    },
    {
      "inputs": [],
      "name": "paused",
      "outputs": [
        {
          "internalType": "bool",
          "name": "",
          "type": "bool"
        }
      ],
      "stateMutability": "view",
      "type": "function",
      "constant": true
    },
    {
      "inputs": [],
      "name": "renounceOwnership",
      "outputs": [],
      "stateMutability": "nonpayable",
      "type": "function"
    },
    {
      "inputs": [
        {
          "internalType": "address",
          "name": "newOwner",
          "type": "address"
        }
      ],
      "name": "transferOwnership",
      "outputs": [],
      "stateMutability": "nonpayable",
      "type": "function"
    },
    {
      "inputs": [],
      "name": "initialize",
      "outputs": [],
      "stateMutability": "nonpayable",
      "type": "function"
    },
    {
      "inputs": [
        {
          "internalType": "address",
          "name": "nftFractionsRepositoryAddress",
          "type": "address"
        }
      ],
      "name": "setNftFractionsRepository",
      "outputs": [],
      "stateMutability": "nonpayable",
      "type": "function"
    },
    {
      "inputs": [],
      "name": "depositEth",
      "outputs": [],
      "stateMutability": "payable",
      "type": "function",
      "payable": true
    },
    {
      "inputs": [
        {
          "internalType": "uint256",
          "name": "amount",
          "type": "uint256"
        }
      ],
      "name": "withdrawEth",
      "outputs": [],
      "stateMutability": "nonpayable",
      "type": "function"
    },
    {
      "inputs": [
        {
          "internalType": "address",
          "name": "owner",
          "type": "address"
        }
      ],
      "name": "getEthBalance",
      "outputs": [
        {
          "internalType": "uint256",
          "name": "",
          "type": "uint256"
        }
      ],
      "stateMutability": "view",
      "type": "function",
      "constant": true
    },
    {
      "inputs": [
        {
          "internalType": "address",
          "name": "owner",
          "type": "address"
        }
      ],
      "name": "getEthReserveBalance",
      "outputs": [
        {
          "internalType": "uint256",
          "name": "",
          "type": "uint256"
        }
      ],
      "stateMutability": "view",
      "type": "function",
      "constant": true
    },
    {
      "inputs": [
        {
          "internalType": "address",
          "name": "owner",
          "type": "address"
        },
        {
          "internalType": "uint256",
          "name": "tokenId",
          "type": "uint256"
        }
      ],
      "name": "getSharesReserveBalance",
      "outputs": [
        {
          "internalType": "uint256",
          "name": "",
          "type": "uint256"
        }
      ],
      "stateMutability": "view",
      "type": "function",
      "constant": true
    },
    {
      "inputs": [],
      "name": "pause",
      "outputs": [],
      "stateMutability": "nonpayable",
      "type": "function"
    },
    {
      "inputs": [
        {
          "internalType": "uint256",
          "name": "tokenId",
          "type": "uint256"
        },
        {
          "internalType": "uint256",
          "name": "amount",
          "type": "uint256"
        },
        {
          "internalType": "uint256",
          "name": "price",
          "type": "uint256"
        },
        {
          "internalType": "enum Dex.Side",
          "name": "side",
          "type": "uint8"
        }
      ],
      "name": "createLimitOrder",
      "outputs": [],
      "stateMutability": "nonpayable",
      "type": "function"
    },
    {
      "inputs": [
        {
          "internalType": "uint256",
          "name": "tokenId",
          "type": "uint256"
        },
        {
          "internalType": "uint256",
          "name": "amount",
          "type": "uint256"
        },
        {
          "internalType": "enum Dex.Side",
          "name": "side",
          "type": "uint8"
        }
      ],
      "name": "createMarketOrder",
      "outputs": [],
      "stateMutability": "nonpayable",
      "type": "function"
    },
    {
      "inputs": [
        {
          "internalType": "uint256",
          "name": "tokenId",
          "type": "uint256"
        },
        {
          "internalType": "enum Dex.Side",
          "name": "side",
          "type": "uint8"
        }
      ],
      "name": "getOrders",
      "outputs": [
        {
          "components": [
            {
              "internalType": "uint256",
              "name": "id",
              "type": "uint256"
            },
            {
              "internalType": "address",
              "name": "trader",
              "type": "address"
            },
            {
              "internalType": "enum Dex.Side",
              "name": "side",
              "type": "uint8"
            },
            {
              "internalType": "uint256",
              "name": "tokenId",
              "type": "uint256"
            },
            {
              "internalType": "uint256",
              "name": "amount",
              "type": "uint256"
            },
            {
              "internalType": "uint256",
              "name": "filled",
              "type": "uint256"
            },
            {
              "internalType": "uint256",
              "name": "price",
              "type": "uint256"
            },
            {
              "internalType": "uint256",
              "name": "date",
              "type": "uint256"
            }
          ],
          "internalType": "struct Dex.Order[]",
          "name": "",
          "type": "tuple[]"
        }
      ],
      "stateMutability": "view",
      "type": "function",
      "constant": true
    },
    {
      "inputs": [
        {
          "internalType": "uint256",
          "name": "tokenId",
          "type": "uint256"
        },
        {
          "internalType": "enum Dex.Side",
          "name": "side",
          "type": "uint8"
        },
        {
          "internalType": "uint256",
          "name": "orderId",
          "type": "uint256"
        }
      ],
      "name": "deleteOrder",
      "outputs": [],
      "stateMutability": "nonpayable",
      "type": "function"
    }
  ],
  "bytecode": "0x608060405234801561001057600080fd5b506143b3806100206000396000f3fe6080604052600436106100f35760003560e01c80638456cb591161008a578063b8737fba11610059578063b8737fba146102cf578063c311d0491461030c578063f2fde38b14610335578063fbe276741461035e576100f3565b80638456cb59146102275780638da5cb5b1461023e5780639c793bac14610269578063b141bd3914610292576100f3565b806354c0cde4116100c657806354c0cde4146101a55780635c975abb146101ce578063715018a6146101f95780638129fc1c14610210576100f3565b80630bbf2085146100f85780631f9af29c14610121578063439370b11461015e5780634d2301cc14610168575b600080fd5b34801561010457600080fd5b5061011f600480360381019061011a91906138a7565b610387565b005b34801561012d57600080fd5b50610148600480360381019061014391906136c7565b6111fc565b604051610155919061404e565b60405180910390f35b610166611245565b005b34801561017457600080fd5b5061018f600480360381019061018a91906136c7565b6112e5565b60405161019c919061404e565b60405180910390f35b3480156101b157600080fd5b506101cc60048036038101906101c79190613858565b61132e565b005b3480156101da57600080fd5b506101e36124e4565b6040516101f09190613ed3565b60405180910390f35b34801561020557600080fd5b5061020e6124fb565b005b34801561021c57600080fd5b50610225612638565b005b34801561023357600080fd5b5061023c612729565b005b34801561024a57600080fd5b506102536127af565b6040516102609190613e15565b60405180910390f35b34801561027557600080fd5b50610290600480360381019061028b9190613809565b6127d9565b005b34801561029e57600080fd5b506102b960048036038101906102b491906137cd565b612bef565b6040516102c69190613eb1565b60405180910390f35b3480156102db57600080fd5b506102f660048036038101906102f191906136f0565b612dc5565b604051610303919061404e565b60405180910390f35b34801561031857600080fd5b50610333600480360381019061032e919061377b565b612e20565b005b34801561034157600080fd5b5061035c600480360381019061035791906136c7565b612fd4565b005b34801561036a57600080fd5b50610385600480360381019061038091906136c7565b613180565b005b836000806000609c60009054906101000a900473ffffffffffffffffffffffffffffffffffffffff1673ffffffffffffffffffffffffffffffffffffffff1663b09afec1856040518263ffffffff1660e01b81526004016103e8919061404e565b60606040518083038186803b15801561040057600080fd5b505afa158015610414573d6000803e3d6000fd5b505050506040513d601f19601f82011682018060405250810190610438919061372c565b809350819450829550505050600073ffffffffffffffffffffffffffffffffffffffff168373ffffffffffffffffffffffffffffffffffffffff1614156104b4576040517f08c379a00000000000000000000000000000000000000000000000000000000081526004016104ab9061400e565b60405180910390fd5b6104bc6124e4565b156104fc576040517f08c379a00000000000000000000000000000000000000000000000000000000081526004016104f39061402e565b60405180910390fd5b600180811115610535577f4e487b7100000000000000000000000000000000000000000000000000000000600052602160045260246000fd5b85600181111561056e577f4e487b7100000000000000000000000000000000000000000000000000000000600052602160045260246000fd5b14156106d4576000609c60009054906101000a900473ffffffffffffffffffffffffffffffffffffffff1673ffffffffffffffffffffffffffffffffffffffff1662fdd58e338b6040518363ffffffff1660e01b81526004016105d2929190613e88565b60206040518083038186803b1580156105ea57600080fd5b505afa1580156105fe573d6000803e3d6000fd5b505050506040513d601f19601f8201168201806040525081019061062291906137a4565b905087811015610667576040517f08c379a000000000000000000000000000000000000000000000000000000000815260040161065e90613fce565b60405180910390fd5b87609b60003373ffffffffffffffffffffffffffffffffffffffff1673ffffffffffffffffffffffffffffffffffffffff16815260200190815260200160002060008b815260200190815260200160002060008282546106c79190614109565b925050819055505061090f565b6000806000609c60009054906101000a900473ffffffffffffffffffffffffffffffffffffffff1673ffffffffffffffffffffffffffffffffffffffff1663b09afec18c6040518263ffffffff1660e01b8152600401610734919061404e565b60606040518083038186803b15801561074c57600080fd5b505afa158015610760573d6000803e3d6000fd5b505050506040513d601f19601f82011682018060405250810190610784919061372c565b809350819450829550505050898110156107d3576040517f08c379a00000000000000000000000000000000000000000000000000000000081526004016107ca90613fee565b60405180910390fd5b888a6107df919061415f565b609960003373ffffffffffffffffffffffffffffffffffffffff1673ffffffffffffffffffffffffffffffffffffffff16815260200190815260200160002054609860003373ffffffffffffffffffffffffffffffffffffffff1673ffffffffffffffffffffffffffffffffffffffff1681526020019081526020016000205461086991906141b9565b10156108aa576040517f08c379a00000000000000000000000000000000000000000000000000000000081526004016108a190613f4e565b60405180910390fd5b888a6108b6919061415f565b609960003373ffffffffffffffffffffffffffffffffffffffff1673ffffffffffffffffffffffffffffffffffffffff16815260200190815260200160002060008282546109049190614109565b925050819055505050505b6000609a60008a8152602001908152602001600020600087600181111561095f577f4e487b7100000000000000000000000000000000000000000000000000000000600052602160045260246000fd5b815260200190815260200160002090506109796097613240565b60006109856097613256565b9050816040518061010001604052808381526020013373ffffffffffffffffffffffffffffffffffffffff1681526020018960018111156109ef577f4e487b7100000000000000000000000000000000000000000000000000000000600052602160045260246000fd5b81526020018c81526020018b8152602001600081526020018a81526020014281525090806001815401808255809150506001900390600052602060002090600702016000909190919091506000820151816000015560208201518160010160006101000a81548173ffffffffffffffffffffffffffffffffffffffff021916908373ffffffffffffffffffffffffffffffffffffffff16021790555060408201518160010160146101000a81548160ff02191690836001811115610adc577f4e487b7100000000000000000000000000000000000000000000000000000000600052602160045260246000fd5b0217905550606082015181600201556080820151816003015560a0820151816004015560c0820151816005015560e082015181600601555050600080838054905011610b29576000610b3b565b60018380549050610b3a91906141b9565b5b90505b60008111156111ef5760006001811115610b81577f4e487b7100000000000000000000000000000000000000000000000000000000600052602160045260246000fd5b886001811115610bba577f4e487b7100000000000000000000000000000000000000000000000000000000600052602160045260246000fd5b148015610c665750828181548110610bfb577f4e487b7100000000000000000000000000000000000000000000000000000000600052603260045260246000fd5b90600052602060002090600702016005015483600183610c1b91906141b9565b81548110610c52577f4e487b7100000000000000000000000000000000000000000000000000000000600052603260045260246000fd5b906000526020600020906007020160050154115b15610c70576111ef565b600180811115610ca9577f4e487b7100000000000000000000000000000000000000000000000000000000600052602160045260246000fd5b886001811115610ce2577f4e487b7100000000000000000000000000000000000000000000000000000000600052602160045260246000fd5b148015610d8e5750828181548110610d23577f4e487b7100000000000000000000000000000000000000000000000000000000600052603260045260246000fd5b90600052602060002090600702016005015483600183610d4391906141b9565b81548110610d7a577f4e487b7100000000000000000000000000000000000000000000000000000000600052603260045260246000fd5b906000526020600020906007020160050154105b15610d98576111ef565b600083600183610da891906141b9565b81548110610ddf577f4e487b7100000000000000000000000000000000000000000000000000000000600052603260045260246000fd5b906000526020600020906007020160405180610100016040529081600082015481526020016001820160009054906101000a900473ffffffffffffffffffffffffffffffffffffffff1673ffffffffffffffffffffffffffffffffffffffff1673ffffffffffffffffffffffffffffffffffffffff1681526020016001820160149054906101000a900460ff166001811115610ea4577f4e487b7100000000000000000000000000000000000000000000000000000000600052602160045260246000fd5b6001811115610edc577f4e487b7100000000000000000000000000000000000000000000000000000000600052602160045260246000fd5b8152602001600282015481526020016003820154815260200160048201548152602001600582015481526020016006820154815250509050838281548110610f4d577f4e487b7100000000000000000000000000000000000000000000000000000000600052603260045260246000fd5b906000526020600020906007020184600184610f6991906141b9565b81548110610fa0577f4e487b7100000000000000000000000000000000000000000000000000000000600052603260045260246000fd5b9060005260206000209060070201600082015481600001556001820160009054906101000a900473ffffffffffffffffffffffffffffffffffffffff168160010160006101000a81548173ffffffffffffffffffffffffffffffffffffffff021916908373ffffffffffffffffffffffffffffffffffffffff1602179055506001820160149054906101000a900460ff168160010160146101000a81548160ff0219169083600181111561107d577f4e487b7100000000000000000000000000000000000000000000000000000000600052602160045260246000fd5b02179055506002820154816002015560038201548160030155600482015481600401556005820154816005015560068201548160060155905050808483815481106110f1577f4e487b7100000000000000000000000000000000000000000000000000000000600052603260045260246000fd5b90600052602060002090600702016000820151816000015560208201518160010160006101000a81548173ffffffffffffffffffffffffffffffffffffffff021916908373ffffffffffffffffffffffffffffffffffffffff16021790555060408201518160010160146101000a81548160ff021916908360018111156111a1577f4e487b7100000000000000000000000000000000000000000000000000000000600052602160045260246000fd5b0217905550606082015181600201556080820151816003015560a0820151816004015560c0820151816005015560e0820151816006015590505081806111e69061425a565b92505050610b3e565b5050505050505050505050565b6000609960008373ffffffffffffffffffffffffffffffffffffffff1673ffffffffffffffffffffffffffffffffffffffff168152602001908152602001600020549050919050565b61124d6124e4565b1561128d576040517f08c379a00000000000000000000000000000000000000000000000000000000081526004016112849061402e565b60405180910390fd5b34609860003373ffffffffffffffffffffffffffffffffffffffff1673ffffffffffffffffffffffffffffffffffffffff16815260200190815260200160002060008282546112dc9190614109565b92505081905550565b6000609860008373ffffffffffffffffffffffffffffffffffffffff1673ffffffffffffffffffffffffffffffffffffffff168152602001908152602001600020549050919050565b826000806000609c60009054906101000a900473ffffffffffffffffffffffffffffffffffffffff1673ffffffffffffffffffffffffffffffffffffffff1663b09afec1856040518263ffffffff1660e01b815260040161138f919061404e565b60606040518083038186803b1580156113a757600080fd5b505afa1580156113bb573d6000803e3d6000fd5b505050506040513d601f19601f820116820180604052508101906113df919061372c565b809350819450829550505050600073ffffffffffffffffffffffffffffffffffffffff168373ffffffffffffffffffffffffffffffffffffffff16141561145b576040517f08c379a00000000000000000000000000000000000000000000000000000000081526004016114529061400e565b60405180910390fd5b6114636124e4565b156114a3576040517f08c379a000000000000000000000000000000000000000000000000000000000815260040161149a9061402e565b60405180910390fd5b6001808111156114dc577f4e487b7100000000000000000000000000000000000000000000000000000000600052602160045260246000fd5b856001811115611515577f4e487b7100000000000000000000000000000000000000000000000000000000600052602160045260246000fd5b1415611610576000609c60009054906101000a900473ffffffffffffffffffffffffffffffffffffffff1673ffffffffffffffffffffffffffffffffffffffff1662fdd58e338a6040518363ffffffff1660e01b8152600401611579929190613e88565b60206040518083038186803b15801561159157600080fd5b505afa1580156115a5573d6000803e3d6000fd5b505050506040513d601f19601f820116820180604052508101906115c991906137a4565b90508681101561160e576040517f08c379a000000000000000000000000000000000000000000000000000000000815260040161160590613fce565b60405180910390fd5b505b6000609a60008981526020019081526020016000206000806001811115611660577f4e487b7100000000000000000000000000000000000000000000000000000000600052602160045260246000fd5b886001811115611699577f4e487b7100000000000000000000000000000000000000000000000000000000600052602160045260246000fd5b146116a55760006116a8565b60015b60018111156116e0577f4e487b7100000000000000000000000000000000000000000000000000000000600052602160045260246000fd5b815260200190815260200160002090506000808890505b82805490508210801561170a5750600081115b1561218557600083838154811061174a577f4e487b7100000000000000000000000000000000000000000000000000000000600052603260045260246000fd5b906000526020600020906007020160040154848481548110611795577f4e487b7100000000000000000000000000000000000000000000000000000000600052603260045260246000fd5b9060005260206000209060070201600301546117b191906141b9565b905060008183116117c257826117c4565b815b905080836117d291906141b9565b92508085858154811061180e577f4e487b7100000000000000000000000000000000000000000000000000000000600052603260045260246000fd5b90600052602060002090600702016004015461182a9190614109565b858581548110611863577f4e487b7100000000000000000000000000000000000000000000000000000000600052603260045260246000fd5b9060005260206000209060070201600401819055503373ffffffffffffffffffffffffffffffffffffffff168585815481106118c8577f4e487b7100000000000000000000000000000000000000000000000000000000600052603260045260246000fd5b906000526020600020906007020160010160009054906101000a900473ffffffffffffffffffffffffffffffffffffffff1673ffffffffffffffffffffffffffffffffffffffff168d7f9978fdb3a211975622b71134cdca10c08d124f7251547ffa8fc72880f7e7499288888154811061196b577f4e487b7100000000000000000000000000000000000000000000000000000000600052603260045260246000fd5b906000526020600020906007020160000154858a8a815481106119b7577f4e487b7100000000000000000000000000000000000000000000000000000000600052603260045260246000fd5b906000526020600020906007020160050154426040516119da9493929190614069565b60405180910390a4600180811115611a1b577f4e487b7100000000000000000000000000000000000000000000000000000000600052602160045260246000fd5b8a6001811115611a54577f4e487b7100000000000000000000000000000000000000000000000000000000600052602160045260246000fd5b1415611d1857609c60009054906101000a900473ffffffffffffffffffffffffffffffffffffffff1673ffffffffffffffffffffffffffffffffffffffff1663605105f033878781548110611ad2577f4e487b7100000000000000000000000000000000000000000000000000000000600052603260045260246000fd5b906000526020600020906007020160010160009054906101000a900473ffffffffffffffffffffffffffffffffffffffff168f856040518563ffffffff1660e01b8152600401611b259493929190613e30565b600060405180830381600087803b158015611b3f57600080fd5b505af1158015611b53573d6000803e3d6000fd5b5050505080858581548110611b91577f4e487b7100000000000000000000000000000000000000000000000000000000600052603260045260246000fd5b906000526020600020906007020160050154611bad919061415f565b609860003373ffffffffffffffffffffffffffffffffffffffff1673ffffffffffffffffffffffffffffffffffffffff1681526020019081526020016000206000828254611bfb9190614109565b9250508190555080858581548110611c3c577f4e487b7100000000000000000000000000000000000000000000000000000000600052603260045260246000fd5b906000526020600020906007020160050154611c58919061415f565b60986000878781548110611c95577f4e487b7100000000000000000000000000000000000000000000000000000000600052603260045260246000fd5b906000526020600020906007020160010160009054906101000a900473ffffffffffffffffffffffffffffffffffffffff1673ffffffffffffffffffffffffffffffffffffffff1673ffffffffffffffffffffffffffffffffffffffff1681526020019081526020016000206000828254611d1091906141b9565b925050819055505b60006001811115611d52577f4e487b7100000000000000000000000000000000000000000000000000000000600052602160045260246000fd5b8a6001811115611d8b577f4e487b7100000000000000000000000000000000000000000000000000000000600052602160045260246000fd5b14156121705780858581548110611dcb577f4e487b7100000000000000000000000000000000000000000000000000000000600052603260045260246000fd5b906000526020600020906007020160050154611de7919061415f565b609960003373ffffffffffffffffffffffffffffffffffffffff1673ffffffffffffffffffffffffffffffffffffffff16815260200190815260200160002054609860003373ffffffffffffffffffffffffffffffffffffffff1673ffffffffffffffffffffffffffffffffffffffff16815260200190815260200160002054611e7191906141b9565b1015611eb2576040517f08c379a0000000000000000000000000000000000000000000000000000000008152600401611ea990613f4e565b60405180910390fd5b609c60009054906101000a900473ffffffffffffffffffffffffffffffffffffffff1673ffffffffffffffffffffffffffffffffffffffff1663605105f0868681548110611f29577f4e487b7100000000000000000000000000000000000000000000000000000000600052603260045260246000fd5b906000526020600020906007020160010160009054906101000a900473ffffffffffffffffffffffffffffffffffffffff16338f856040518563ffffffff1660e01b8152600401611f7d9493929190613e30565b600060405180830381600087803b158015611f9757600080fd5b505af1158015611fab573d6000803e3d6000fd5b5050505080858581548110611fe9577f4e487b7100000000000000000000000000000000000000000000000000000000600052603260045260246000fd5b906000526020600020906007020160050154612005919061415f565b609860003373ffffffffffffffffffffffffffffffffffffffff1673ffffffffffffffffffffffffffffffffffffffff168152602001908152602001600020600082825461205391906141b9565b9250508190555080858581548110612094577f4e487b7100000000000000000000000000000000000000000000000000000000600052603260045260246000fd5b9060005260206000209060070201600501546120b0919061415f565b609860008787815481106120ed577f4e487b7100000000000000000000000000000000000000000000000000000000600052603260045260246000fd5b906000526020600020906007020160010160009054906101000a900473ffffffffffffffffffffffffffffffffffffffff1673ffffffffffffffffffffffffffffffffffffffff1673ffffffffffffffffffffffffffffffffffffffff16815260200190815260200160002060008282546121689190614109565b925050819055505b838061217b90614284565b94505050506116f7565b600091505b82805490508210801561223057508282815481106121d1577f4e487b7100000000000000000000000000000000000000000000000000000000600052603260045260246000fd5b90600052602060002090600702016003015483838154811061221c577f4e487b7100000000000000000000000000000000000000000000000000000000600052603260045260246000fd5b906000526020600020906007020160040154145b156124d85760008290505b6001848054905061224c91906141b9565b81101561240957836001826122619190614109565b81548110612298577f4e487b7100000000000000000000000000000000000000000000000000000000600052603260045260246000fd5b90600052602060002090600702018482815481106122df577f4e487b7100000000000000000000000000000000000000000000000000000000600052603260045260246000fd5b9060005260206000209060070201600082015481600001556001820160009054906101000a900473ffffffffffffffffffffffffffffffffffffffff168160010160006101000a81548173ffffffffffffffffffffffffffffffffffffffff021916908373ffffffffffffffffffffffffffffffffffffffff1602179055506001820160149054906101000a900460ff168160010160146101000a81548160ff021916908360018111156123bc577f4e487b7100000000000000000000000000000000000000000000000000000000600052602160045260246000fd5b02179055506002820154816002015560038201548160030155600482015481600401556005820154816005015560068201548160060155905050808061240190614284565b91505061223b565b5082805480612441577f4e487b7100000000000000000000000000000000000000000000000000000000600052603160045260246000fd5b60019003818190600052602060002090600702016000808201600090556001820160006101000a81549073ffffffffffffffffffffffffffffffffffffffff02191690556001820160146101000a81549060ff0219169055600282016000905560038201600090556004820160009055600582016000905560068201600090555050905581806124d090614284565b92505061218a565b50505050505050505050565b6000603360009054906101000a900460ff16905090565b612503613264565b73ffffffffffffffffffffffffffffffffffffffff166125216127af565b73ffffffffffffffffffffffffffffffffffffffff1614612577576040517f08c379a000000000000000000000000000000000000000000000000000000000815260040161256e90613f6e565b60405180910390fd5b600073ffffffffffffffffffffffffffffffffffffffff16606560009054906101000a900473ffffffffffffffffffffffffffffffffffffffff1673ffffffffffffffffffffffffffffffffffffffff167f8be0079c531659141344cd1fd0a4f28419497f9722a3daafe3b4186f6b6457e060405160405180910390a36000606560006101000a81548173ffffffffffffffffffffffffffffffffffffffff021916908373ffffffffffffffffffffffffffffffffffffffff160217905550565b600060019054906101000a900460ff168061265e575060008054906101000a900460ff16155b61269d576040517f08c379a000000000000000000000000000000000000000000000000000000000815260040161269490613f2e565b60405180910390fd5b60008060019054906101000a900460ff1615905080156126ed576001600060016101000a81548160ff02191690831515021790555060016000806101000a81548160ff0219169083151502179055505b6126f561326c565b6126fd613345565b612705613439565b80156127265760008060016101000a81548160ff0219169083151502179055505b50565b612731613264565b73ffffffffffffffffffffffffffffffffffffffff1661274f6127af565b73ffffffffffffffffffffffffffffffffffffffff16146127a5576040517f08c379a000000000000000000000000000000000000000000000000000000000815260040161279c90613f6e565b60405180910390fd5b6127ad6135bb565b565b6000606560009054906101000a900473ffffffffffffffffffffffffffffffffffffffff16905090565b6000609a60008581526020019081526020016000206000846001811115612829577f4e487b7100000000000000000000000000000000000000000000000000000000600052602160045260246000fd5b8152602001908152602001600020905060005b8180549050811015612be85782828281548110612882577f4e487b7100000000000000000000000000000000000000000000000000000000600052603260045260246000fd5b9060005260206000209060070201600001541415612bd5578181815481106128d3577f4e487b7100000000000000000000000000000000000000000000000000000000600052603260045260246000fd5b906000526020600020906007020160010160009054906101000a900473ffffffffffffffffffffffffffffffffffffffff1673ffffffffffffffffffffffffffffffffffffffff163373ffffffffffffffffffffffffffffffffffffffff1614612972576040517f08c379a000000000000000000000000000000000000000000000000000000000815260040161296990613fae565b60405180910390fd5b816001838054905061298491906141b9565b815481106129bb577f4e487b7100000000000000000000000000000000000000000000000000000000600052603260045260246000fd5b9060005260206000209060070201828281548110612a02577f4e487b7100000000000000000000000000000000000000000000000000000000600052603260045260246000fd5b9060005260206000209060070201600082015481600001556001820160009054906101000a900473ffffffffffffffffffffffffffffffffffffffff168160010160006101000a81548173ffffffffffffffffffffffffffffffffffffffff021916908373ffffffffffffffffffffffffffffffffffffffff1602179055506001820160149054906101000a900460ff168160010160146101000a81548160ff02191690836001811115612adf577f4e487b7100000000000000000000000000000000000000000000000000000000600052602160045260246000fd5b0217905550600282015481600201556003820154816003015560048201548160040155600582015481600501556006820154816006015590505081805480612b50577f4e487b7100000000000000000000000000000000000000000000000000000000600052603160045260246000fd5b60019003818190600052602060002090600702016000808201600090556001820160006101000a81549073ffffffffffffffffffffffffffffffffffffffff02191690556001820160146101000a81549060ff021916905560028201600090556003820160009055600482016000905560058201600090556006820160009055505090555b8080612be090614284565b91505061283c565b5050505050565b6060609a60008481526020019081526020016000206000836001811115612c3f577f4e487b7100000000000000000000000000000000000000000000000000000000600052602160045260246000fd5b8152602001908152602001600020805480602002602001604051908101604052809291908181526020016000905b82821015612db9578382906000526020600020906007020160405180610100016040529081600082015481526020016001820160009054906101000a900473ffffffffffffffffffffffffffffffffffffffff1673ffffffffffffffffffffffffffffffffffffffff1673ffffffffffffffffffffffffffffffffffffffff1681526020016001820160149054906101000a900460ff166001811115612d3c577f4e487b7100000000000000000000000000000000000000000000000000000000600052602160045260246000fd5b6001811115612d74577f4e487b7100000000000000000000000000000000000000000000000000000000600052602160045260246000fd5b81526020016002820154815260200160038201548152602001600482015481526020016005820154815260200160068201548152505081526020019060010190612c6d565b50505050905092915050565b6000609b60008473ffffffffffffffffffffffffffffffffffffffff1673ffffffffffffffffffffffffffffffffffffffff168152602001908152602001600020600083815260200190815260200160002054905092915050565b612e286124e4565b15612e68576040517f08c379a0000000000000000000000000000000000000000000000000000000008152600401612e5f9061402e565b60405180910390fd5b80609960003373ffffffffffffffffffffffffffffffffffffffff1673ffffffffffffffffffffffffffffffffffffffff16815260200190815260200160002054609860003373ffffffffffffffffffffffffffffffffffffffff1673ffffffffffffffffffffffffffffffffffffffff16815260200190815260200160002054612ef391906141b9565b1015612f34576040517f08c379a0000000000000000000000000000000000000000000000000000000008152600401612f2b90613f8e565b60405180910390fd5b80609860003373ffffffffffffffffffffffffffffffffffffffff1673ffffffffffffffffffffffffffffffffffffffff1681526020019081526020016000206000828254612f8391906141b9565b925050819055503373ffffffffffffffffffffffffffffffffffffffff166108fc829081150290604051600060405180830381858888f19350505050158015612fd0573d6000803e3d6000fd5b5050565b612fdc613264565b73ffffffffffffffffffffffffffffffffffffffff16612ffa6127af565b73ffffffffffffffffffffffffffffffffffffffff1614613050576040517f08c379a000000000000000000000000000000000000000000000000000000000815260040161304790613f6e565b60405180910390fd5b600073ffffffffffffffffffffffffffffffffffffffff168173ffffffffffffffffffffffffffffffffffffffff1614156130c0576040517f08c379a00000000000000000000000000000000000000000000000000000000081526004016130b790613eee565b60405180910390fd5b8073ffffffffffffffffffffffffffffffffffffffff16606560009054906101000a900473ffffffffffffffffffffffffffffffffffffffff1673ffffffffffffffffffffffffffffffffffffffff167f8be0079c531659141344cd1fd0a4f28419497f9722a3daafe3b4186f6b6457e060405160405180910390a380606560006101000a81548173ffffffffffffffffffffffffffffffffffffffff021916908373ffffffffffffffffffffffffffffffffffffffff16021790555050565b613188613264565b73ffffffffffffffffffffffffffffffffffffffff166131a66127af565b73ffffffffffffffffffffffffffffffffffffffff16146131fc576040517f08c379a00000000000000000000000000000000000000000000000000000000081526004016131f390613f6e565b60405180910390fd5b80609c60006101000a81548173ffffffffffffffffffffffffffffffffffffffff021916908373ffffffffffffffffffffffffffffffffffffffff16021790555050565b6001816000016000828254019250508190555050565b600081600001549050919050565b600033905090565b600060019054906101000a900460ff1680613292575060008054906101000a900460ff16155b6132d1576040517f08c379a00000000000000000000000000000000000000000000000000000000081526004016132c890613f2e565b60405180910390fd5b60008060019054906101000a900460ff161590508015613321576001600060016101000a81548160ff02191690831515021790555060016000806101000a81548160ff0219169083151502179055505b80156133425760008060016101000a81548160ff0219169083151502179055505b50565b600060019054906101000a900460ff168061336b575060008054906101000a900460ff16155b6133aa576040517f08c379a00000000000000000000000000000000000000000000000000000000081526004016133a190613f2e565b60405180910390fd5b60008060019054906101000a900460ff1615905080156133fa576001600060016101000a81548160ff02191690831515021790555060016000806101000a81548160ff0219169083151502179055505b6000603360006101000a81548160ff02191690831515021790555080156134365760008060016101000a81548160ff0219169083151502179055505b50565b600060019054906101000a900460ff168061345f575060008054906101000a900460ff16155b61349e576040517f08c379a000000000000000000000000000000000000000000000000000000000815260040161349590613f2e565b60405180910390fd5b60008060019054906101000a900460ff1615905080156134ee576001600060016101000a81548160ff02191690831515021790555060016000806101000a81548160ff0219169083151502179055505b60006134f8613264565b905080606560006101000a81548173ffffffffffffffffffffffffffffffffffffffff021916908373ffffffffffffffffffffffffffffffffffffffff1602179055508073ffffffffffffffffffffffffffffffffffffffff16600073ffffffffffffffffffffffffffffffffffffffff167f8be0079c531659141344cd1fd0a4f28419497f9722a3daafe3b4186f6b6457e060405160405180910390a35080156135b85760008060016101000a81548160ff0219169083151502179055505b50565b6135c36124e4565b15613603576040517f08c379a00000000000000000000000000000000000000000000000000000000081526004016135fa90613f0e565b60405180910390fd5b6001603360006101000a81548160ff0219169083151502179055507f62e78cea01bee320cd4e420270b5ea74000d11b0c9f74754ebdbfc544b05a258613647613264565b6040516136549190613e15565b60405180910390a1565b60008135905061366d8161433f565b92915050565b6000815190506136828161433f565b92915050565b60008135905061369781614356565b92915050565b6000813590506136ac81614366565b92915050565b6000815190506136c181614366565b92915050565b6000602082840312156136d957600080fd5b60006136e78482850161365e565b91505092915050565b6000806040838503121561370357600080fd5b60006137118582860161365e565b92505060206137228582860161369d565b9150509250929050565b60008060006060848603121561374157600080fd5b600061374f86828701613673565b9350506020613760868287016136b2565b9250506040613771868287016136b2565b9150509250925092565b60006020828403121561378d57600080fd5b600061379b8482850161369d565b91505092915050565b6000602082840312156137b657600080fd5b60006137c4848285016136b2565b91505092915050565b600080604083850312156137e057600080fd5b60006137ee8582860161369d565b92505060206137ff85828601613688565b9150509250929050565b60008060006060848603121561381e57600080fd5b600061382c8682870161369d565b935050602061383d86828701613688565b925050604061384e8682870161369d565b9150509250925092565b60008060006060848603121561386d57600080fd5b600061387b8682870161369d565b935050602061388c8682870161369d565b925050604061389d86828701613688565b9150509250925092565b600080600080608085870312156138bd57600080fd5b60006138cb8782880161369d565b94505060206138dc8782880161369d565b93505060406138ed8782880161369d565b92505060606138fe87828801613688565b91505092959194509250565b60006139168383613d55565b6101008301905092915050565b61392c816141ed565b82525050565b61393b816141ed565b82525050565b600061394c826140be565b61395681856140d6565b9350613961836140ae565b8060005b83811015613992578151613979888261390a565b9750613984836140c9565b925050600181019050613965565b5085935050505092915050565b6139a8816141ff565b82525050565b6139b781614248565b82525050565b60006139ca6026836140f8565b91507f4f776e61626c653a206e6577206f776e657220697320746865207a65726f206160008301527f64647265737300000000000000000000000000000000000000000000000000006020830152604082019050919050565b6000613a306010836140f8565b91507f5061757361626c653a20706175736564000000000000000000000000000000006000830152602082019050919050565b6000613a70602e836140f8565b91507f496e697469616c697a61626c653a20636f6e747261637420697320616c72656160008301527f647920696e697469616c697a65640000000000000000000000000000000000006020830152604082019050919050565b6000613ad66013836140f8565b91507f6574682062616c616e636520746f6f206c6f77000000000000000000000000006000830152602082019050919050565b6000613b166020836140f8565b91507f4f776e61626c653a2063616c6c6572206973206e6f7420746865206f776e65726000830152602082019050919050565b6000613b566019836140f8565b91507f4554482062616c616e6365206973206e6f7420656e6f756768000000000000006000830152602082019050919050565b6000613b966024836140f8565b91507f4f6e6c7920746865207472616465722063616e2064656c65746520686973206f60008301527f72646572000000000000000000000000000000000000000000000000000000006020830152604082019050919050565b6000613bfc6000836140e7565b9150600082019050919050565b6000613c166029836140f8565b91507f6d6573736167652073656e646572277320746f6b656e2062616c616e6365206960008301527f7320746f6f206c6f7700000000000000000000000000000000000000000000006020830152604082019050919050565b6000613c7c6038836140f8565b91507f746f74616c20616d6f756e74206f66206672616374696f6e73206973206c6f7760008301527f6572207468616e2074686520676976656e20616d6f756e7400000000000000006020830152604082019050919050565b6000613ce26019836140f8565b91507f7468697320746f6b656e20646f6573206e6f74206578697374000000000000006000830152602082019050919050565b6000613d226018836140f8565b91507f4e6f7420616c6c6f776564207768696c652070617573656400000000000000006000830152602082019050919050565b61010082016000820151613d6c6000850182613df7565b506020820151613d7f6020850182613923565b506040820151613d9260408501826139ae565b506060820151613da56060850182613df7565b506080820151613db86080850182613df7565b5060a0820151613dcb60a0850182613df7565b5060c0820151613dde60c0850182613df7565b5060e0820151613df160e0850182613df7565b50505050565b613e008161423e565b82525050565b613e0f8161423e565b82525050565b6000602082019050613e2a6000830184613932565b92915050565b600060a082019050613e456000830187613932565b613e526020830186613932565b613e5f6040830185613e06565b613e6c6060830184613e06565b8181036080830152613e7d81613bef565b905095945050505050565b6000604082019050613e9d6000830185613932565b613eaa6020830184613e06565b9392505050565b60006020820190508181036000830152613ecb8184613941565b905092915050565b6000602082019050613ee8600083018461399f565b92915050565b60006020820190508181036000830152613f07816139bd565b9050919050565b60006020820190508181036000830152613f2781613a23565b9050919050565b60006020820190508181036000830152613f4781613a63565b9050919050565b60006020820190508181036000830152613f6781613ac9565b9050919050565b60006020820190508181036000830152613f8781613b09565b9050919050565b60006020820190508181036000830152613fa781613b49565b9050919050565b60006020820190508181036000830152613fc781613b89565b9050919050565b60006020820190508181036000830152613fe781613c09565b9050919050565b6000602082019050818103600083015261400781613c6f565b9050919050565b6000602082019050818103600083015261402781613cd5565b9050919050565b6000602082019050818103600083015261404781613d15565b9050919050565b60006020820190506140636000830184613e06565b92915050565b600060808201905061407e6000830187613e06565b61408b6020830186613e06565b6140986040830185613e06565b6140a56060830184613e06565b95945050505050565b6000819050602082019050919050565b600081519050919050565b6000602082019050919050565b600082825260208201905092915050565b600082825260208201905092915050565b600082825260208201905092915050565b60006141148261423e565b915061411f8361423e565b9250827fffffffffffffffffffffffffffffffffffffffffffffffffffffffffffffffff03821115614154576141536142cd565b5b828201905092915050565b600061416a8261423e565b91506141758361423e565b9250817fffffffffffffffffffffffffffffffffffffffffffffffffffffffffffffffff04831182151516156141ae576141ad6142cd565b5b828202905092915050565b60006141c48261423e565b91506141cf8361423e565b9250828210156141e2576141e16142cd565b5b828203905092915050565b60006141f88261421e565b9050919050565b60008115159050919050565b60008190506142198261432b565b919050565b600073ffffffffffffffffffffffffffffffffffffffff82169050919050565b6000819050919050565b60006142538261420b565b9050919050565b60006142658261423e565b91506000821415614279576142786142cd565b5b600182039050919050565b600061428f8261423e565b91507fffffffffffffffffffffffffffffffffffffffffffffffffffffffffffffffff8214156142c2576142c16142cd565b5b600182019050919050565b7f4e487b7100000000000000000000000000000000000000000000000000000000600052601160045260246000fd5b7f4e487b7100000000000000000000000000000000000000000000000000000000600052602160045260246000fd5b6002811061433c5761433b6142fc565b5b50565b614348816141ed565b811461435357600080fd5b50565b6002811061436357600080fd5b50565b61436f8161423e565b811461437a57600080fd5b5056fea2646970667358221220f2616dd81435ce2ee92c452b774e99ede9fd3ebf4b7c6e575fd37e829175188964736f6c63430008000033",
  "immutableReferences": {},
  "source": "// SPDX-License-Identifier: MIT\n\npragma solidity ^0.8.0;\n\nimport \"@openzeppelin/contracts-upgradeable/security/PausableUpgradeable.sol\";\nimport \"@openzeppelin/contracts-upgradeable/proxy/utils/Initializable.sol\";\nimport \"@openzeppelin/contracts-upgradeable/utils/CountersUpgradeable.sol\";\nimport \"@openzeppelin/contracts-upgradeable/access/OwnableUpgradeable.sol\";\nimport \"./NftFractionsRepository.sol\";\n\ncontract Dex is Initializable, PausableUpgradeable, OwnableUpgradeable {\n    using CountersUpgradeable for CountersUpgradeable.Counter;\n\n    enum Side {BUY, SELL}\n\n    struct Order {\n        uint256 id;\n        address trader;\n        Side side;\n        uint256 tokenId;\n        uint256 amount;\n        uint256 filled;\n        uint256 price;\n        uint256 date;\n    }\n\n    event NewTrade(\n        uint256 orderId,\n        uint256 indexed tokenId,\n        address indexed trader1,\n        address indexed trader2,\n        uint256 amount,\n        uint256 price,\n        uint256 date\n    );\n\n    CountersUpgradeable.Counter private _orderIds;\n    mapping(address => uint256) ethBalance;\n    mapping(address => uint256) ethReservedBalance;\n    mapping(uint256 => mapping(uint256 => Order[])) orderBook;\n    mapping(address => mapping(uint256 => uint256)) sharesReserved;\n    NftFractionsRepository nftFractionsRepository;\n\n    function initialize() public initializer {\n        __Context_init_unchained();\n        __Pausable_init_unchained();\n        __Ownable_init_unchained();\n    }\n\n    function setNftFractionsRepository(address nftFractionsRepositoryAddress)\n        public\n        onlyOwner()\n    {\n        nftFractionsRepository = NftFractionsRepository(\n            nftFractionsRepositoryAddress\n        );\n    }\n\n    /**\n     * @dev deposit ETH for trading\n     */\n    function depositEth() public payable {\n        require(!paused(), \"Not allowed while paused\");\n        ethBalance[msg.sender] += msg.value;\n    }\n\n    /**\n     * @dev Withdraw ETH\n     *\n     * Requirements:\n     * - msg.sender has to have equal or more ETH than the amount to withdraw\n     */\n    function withdrawEth(uint256 amount) public {\n        require(!paused(), \"Not allowed while paused\");\n        require(\n            ethBalance[msg.sender] - ethReservedBalance[msg.sender] >= amount,\n            \"ETH balance is not enough\"\n        );\n        ethBalance[msg.sender] -= amount;\n        payable(msg.sender).transfer(amount);\n    }\n\n    /**\n     * @dev returns the ETH balance of the owner\n     */\n    function getEthBalance(address owner) public view returns (uint256) {\n        return ethBalance[owner];\n    }\n\n    /**\n     * @dev returns the ETH reserved balance of the owner\n     */\n    function getEthReserveBalance(address owner) public view returns (uint256) {\n        return ethReservedBalance[owner];\n    }\n\n    /**\n     * @dev returns the shares reserved in orders for a given owner and tokenId\n     */\n    function getSharesReserveBalance(address owner, uint256 tokenId)\n        public\n        view\n        returns (uint256)\n    {\n        return sharesReserved[owner][tokenId];\n    }\n\n    function pause() public onlyOwner() {\n        _pause();\n    }\n\n    function createLimitOrder(\n        uint256 tokenId,\n        uint256 amount,\n        uint256 price,\n        Side side\n    ) external tokenExist(tokenId) {\n        require(!paused(), \"Not allowed while paused\");\n        if (side == Side.SELL) {\n            uint256 sendersBalance =\n                nftFractionsRepository.balanceOf(msg.sender, tokenId);\n            require(\n                sendersBalance >= amount,\n                \"message sender's token balance is too low\"\n            );\n            sharesReserved[msg.sender][tokenId] += amount;\n        } else {\n            address erc721ContractAddress;\n            uint256 erc721TokenId;\n            uint256 totalFractionsAmount;\n            (\n                erc721ContractAddress,\n                erc721TokenId,\n                totalFractionsAmount\n            ) = nftFractionsRepository.getTokenData(tokenId);\n            require(\n                totalFractionsAmount >= amount,\n                \"total amount of fractions is lower than the given amount\"\n            );\n            require(\n                ethBalance[msg.sender] - ethReservedBalance[msg.sender] >=\n                    amount * price,\n                \"eth balance too low\"\n            );\n            ethReservedBalance[msg.sender] += amount * price;\n        }\n        Order[] storage orders = orderBook[tokenId][uint256(side)];\n        _orderIds.increment();\n        uint256 newOrderId = _orderIds.current();\n        orders.push(\n            Order(\n                newOrderId,\n                msg.sender,\n                side,\n                tokenId,\n                amount,\n                0,\n                price,\n                block.timestamp\n            )\n        );\n\n        uint256 i = orders.length > 0 ? orders.length - 1 : 0;\n        while (i > 0) {\n            if (side == Side.BUY && orders[i - 1].price > orders[i].price) {\n                break;\n            }\n            if (side == Side.SELL && orders[i - 1].price < orders[i].price) {\n                break;\n            }\n            Order memory order = orders[i - 1];\n            orders[i - 1] = orders[i];\n            orders[i] = order;\n            i--;\n        }\n    }\n\n    function createMarketOrder(\n        uint256 tokenId,\n        uint256 amount,\n        Side side\n    ) external tokenExist(tokenId) {\n        require(!paused(), \"Not allowed while paused\");\n        if (side == Side.SELL) {\n            uint256 sendersBalance =\n                nftFractionsRepository.balanceOf(msg.sender, tokenId);\n            require(\n                sendersBalance >= amount,\n                \"message sender's token balance is too low\"\n            );\n        }\n        Order[] storage orders =\n            orderBook[tokenId][\n                uint256(side == Side.BUY ? Side.SELL : Side.BUY)\n            ];\n        uint256 i;\n        uint256 remaining = amount;\n\n        while (i < orders.length && remaining > 0) {\n            uint256 available = orders[i].amount - orders[i].filled;\n            uint256 matched = (remaining > available) ? available : remaining;\n            remaining = remaining - matched;\n            orders[i].filled = orders[i].filled + matched;\n            emit NewTrade(\n                orders[i].id,\n                tokenId,\n                orders[i].trader,\n                msg.sender,\n                matched,\n                orders[i].price,\n                block.timestamp\n            );\n            if (side == Side.SELL) {\n                nftFractionsRepository.transferFrom(\n                    msg.sender,\n                    orders[i].trader,\n                    tokenId,\n                    matched,\n                    \"\"\n                );\n                ethBalance[msg.sender] += orders[i].price * matched;\n                ethBalance[orders[i].trader] -= orders[i].price * matched;\n            }\n            if (side == Side.BUY) {\n                require(\n                    ethBalance[msg.sender] - ethReservedBalance[msg.sender] >=\n                        orders[i].price * matched,\n                    \"eth balance too low\"\n                );\n                nftFractionsRepository.transferFrom(\n                    orders[i].trader,\n                    msg.sender,\n                    tokenId,\n                    matched,\n                    \"\"\n                );\n                ethBalance[msg.sender] -= orders[i].price * matched;\n                ethBalance[orders[i].trader] += orders[i].price * matched;\n            }\n            i++;\n        }\n\n        i = 0;\n        while (i < orders.length && orders[i].filled == orders[i].amount) {\n            for (uint256 j = i; j < orders.length - 1; j++) {\n                orders[j] = orders[j + 1];\n            }\n            orders.pop();\n            i++;\n        }\n    }\n\n    /**\n     * @dev returns the orders of the token and side\n     */\n    function getOrders(uint256 tokenId, Side side)\n        external\n        view\n        returns (Order[] memory)\n    {\n        return orderBook[tokenId][uint256(side)];\n    }\n\n    /**\n     * @dev delete the order\n     */\n    function deleteOrder(\n        uint256 tokenId,\n        Side side,\n        uint256 orderId\n    ) public {\n        Order[] storage orders = orderBook[tokenId][uint256(side)];\n        for (uint256 i = 0; i < orders.length; i++) {\n            if (orders[i].id == orderId) {\n                require(\n                    msg.sender == orders[i].trader,\n                    \"Only the trader can delete his order\"\n                );\n                orders[i] = orders[orders.length - 1];\n                orders.pop();\n            }\n        }\n    }\n\n    modifier tokenExist(uint256 tokenId) {\n        address erc721ContractAddress;\n        uint256 erc721TokenId;\n        uint256 totalFractionsAmount;\n        (\n            erc721ContractAddress,\n            erc721TokenId,\n            totalFractionsAmount\n        ) = nftFractionsRepository.getTokenData(tokenId);\n        require(\n            erc721ContractAddress != address(0),\n            \"this token does not exist\"\n        );\n        _;\n    }\n}\n",
  "sourcePath": "/Users/szabolcs/Documents/Personal/Szakmai/Ethereum/nft-fractions-dex/contracts/Dex.sol",
  "compiler": {
    "name": "solc",
    "version": "0.8.0+commit.c7dfd78e.Emscripten.clang"
  },
  "schemaVersion": "3.3.4",
  "updatedAt": "2021-06-07T14:46:41.528Z",
  "networkType": "ethereum",
  "devdoc": {
    "kind": "dev",
    "methods": {
      "deleteOrder(uint256,uint8,uint256)": {
        "details": "delete the order"
      },
      "depositEth()": {
        "details": "deposit ETH for trading"
      },
      "getEthBalance(address)": {
        "details": "returns the ETH balance of the owner"
      },
      "getEthReserveBalance(address)": {
        "details": "returns the ETH reserved balance of the owner"
      },
      "getOrders(uint256,uint8)": {
        "details": "returns the orders of the token and side"
      },
      "getSharesReserveBalance(address,uint256)": {
        "details": "returns the shares reserved in orders for a given owner and tokenId"
      },
      "owner()": {
        "details": "Returns the address of the current owner."
      },
      "paused()": {
        "details": "Returns true if the contract is paused, and false otherwise."
      },
      "renounceOwnership()": {
        "details": "Leaves the contract without owner. It will not be possible to call `onlyOwner` functions anymore. Can only be called by the current owner. NOTE: Renouncing ownership will leave the contract without an owner, thereby removing any functionality that is only available to the owner."
      },
      "transferOwnership(address)": {
        "details": "Transfers ownership of the contract to a new account (`newOwner`). Can only be called by the current owner."
      },
      "withdrawEth(uint256)": {
        "details": "Withdraw ETH Requirements: - msg.sender has to have equal or more ETH than the amount to withdraw"
      }
    },
    "version": 1
  },
  "userdoc": {
    "kind": "user",
    "methods": {},
    "version": 1
  }
}