{
  "contractName": "DexBase",
  "abi": [
    {
      "anonymous": false,
      "inputs": [
        {
          "indexed": true,
          "internalType": "address",
          "name": "previousOwner",
          "type": "address"
        },
        {
          "indexed": true,
          "internalType": "address",
          "name": "newOwner",
          "type": "address"
        }
      ],
      "name": "OwnershipTransferred",
      "type": "event"
    },
    {
      "anonymous": false,
      "inputs": [
        {
          "indexed": false,
          "internalType": "address",
          "name": "account",
          "type": "address"
        }
      ],
      "name": "Paused",
      "type": "event"
    },
    {
      "anonymous": false,
      "inputs": [
        {
          "indexed": false,
          "internalType": "address",
          "name": "account",
          "type": "address"
        }
      ],
      "name": "Unpaused",
      "type": "event"
    },
    {
      "inputs": [],
      "name": "owner",
      "outputs": [
        {
          "internalType": "address",
          "name": "",
          "type": "address"
        }
      ],
      "stateMutability": "view",
      "type": "function"
    },
    {
      "inputs": [],
      "name": "paused",
      "outputs": [
        {
          "internalType": "bool",
          "name": "",
          "type": "bool"
        }
      ],
      "stateMutability": "view",
      "type": "function"
    },
    {
      "inputs": [],
      "name": "renounceOwnership",
      "outputs": [],
      "stateMutability": "nonpayable",
      "type": "function"
    },
    {
      "inputs": [
        {
          "internalType": "address",
          "name": "newOwner",
          "type": "address"
        }
      ],
      "name": "transferOwnership",
      "outputs": [],
      "stateMutability": "nonpayable",
      "type": "function"
    },
    {
      "inputs": [],
      "name": "__DexBase_init",
      "outputs": [],
      "stateMutability": "nonpayable",
      "type": "function"
    },
    {
      "inputs": [
        {
          "internalType": "address",
          "name": "nftFractionsRepositoryAddress",
          "type": "address"
        }
      ],
      "name": "setNftFractionsRepository",
      "outputs": [],
      "stateMutability": "nonpayable",
      "type": "function"
    },
    {
      "inputs": [],
      "name": "depositEth",
      "outputs": [],
      "stateMutability": "payable",
      "type": "function"
    },
    {
      "inputs": [
        {
          "internalType": "uint256",
          "name": "amount",
          "type": "uint256"
        }
      ],
      "name": "withdrawEth",
      "outputs": [],
      "stateMutability": "nonpayable",
      "type": "function"
    },
    {
      "inputs": [],
      "name": "pause",
      "outputs": [],
      "stateMutability": "nonpayable",
      "type": "function"
    },
    {
      "inputs": [
        {
          "internalType": "uint256",
          "name": "tokenId",
          "type": "uint256"
        },
        {
          "internalType": "uint256",
          "name": "amount",
          "type": "uint256"
        },
        {
          "internalType": "uint256",
          "name": "price",
          "type": "uint256"
        },
        {
          "internalType": "enum DexBase.Side",
          "name": "side",
          "type": "uint8"
        }
      ],
      "name": "createLimitOrder",
      "outputs": [],
      "stateMutability": "nonpayable",
      "type": "function"
    },
    {
      "inputs": [
        {
          "internalType": "uint256",
          "name": "tokenId",
          "type": "uint256"
        },
        {
          "internalType": "uint256",
          "name": "amount",
          "type": "uint256"
        },
        {
          "internalType": "enum DexBase.Side",
          "name": "side",
          "type": "uint8"
        }
      ],
      "name": "createMarketOrder",
      "outputs": [],
      "stateMutability": "nonpayable",
      "type": "function"
    },
    {
      "inputs": [
        {
          "internalType": "uint256",
          "name": "tokenId",
          "type": "uint256"
        },
        {
          "internalType": "enum DexBase.Side",
          "name": "side",
          "type": "uint8"
        },
        {
          "internalType": "uint256",
          "name": "orderId",
          "type": "uint256"
        }
      ],
      "name": "deleteOrder",
      "outputs": [],
      "stateMutability": "nonpayable",
      "type": "function"
    }
  ],
  "bytecode": "0x608060405234801561001057600080fd5b506149d2806100206000396000f3fe6080604052600436106100a75760003560e01c80638da5cb5b116100645780638da5cb5b146101615780639c793bac1461018c578063b85b9e40146101b5578063c311d049146101cc578063f2fde38b146101f5578063fbe276741461021e576100a7565b80630bbf2085146100ac578063439370b1146100d557806354c0cde4146100df5780635c975abb14610108578063715018a6146101335780638456cb591461014a575b600080fd5b3480156100b857600080fd5b506100d360048036038101906100ce91906140b4565b610247565b005b6100dd611157565b005b3480156100eb57600080fd5b5061010660048036038101906101019190614065565b611240565b005b34801561011457600080fd5b5061011d612bd4565b60405161012a91906145b8565b60405180910390f35b34801561013f57600080fd5b50610148612beb565b005b34801561015657600080fd5b5061015f612d28565b005b34801561016d57600080fd5b50610176612dae565b604051610183919061451c565b60405180910390f35b34801561019857600080fd5b506101b360048036038101906101ae9190614016565b612dd8565b005b3480156101c157600080fd5b506101ca613517565b005b3480156101d857600080fd5b506101f360048036038101906101ee9190613fc4565b613608565b005b34801561020157600080fd5b5061021c60048036038101906102179190613f72565b61385b565b005b34801561022a57600080fd5b5061024560048036038101906102409190613f72565b613a07565b005b83600060cf60009054906101000a900473ffffffffffffffffffffffffffffffffffffffff1673ffffffffffffffffffffffffffffffffffffffff166366d0330c836040518263ffffffff1660e01b81526004016102a59190614753565b602060405180830381600087803b1580156102bf57600080fd5b505af11580156102d3573d6000803e3d6000fd5b505050506040513d601f19601f820116820180604052508101906102f79190613f9b565b9050600073ffffffffffffffffffffffffffffffffffffffff168173ffffffffffffffffffffffffffffffffffffffff161415610369576040517f08c379a000000000000000000000000000000000000000000000000000000000815260040161036090614713565b60405180910390fd5b610371612bd4565b156103b1576040517f08c379a00000000000000000000000000000000000000000000000000000000081526004016103a890614733565b60405180910390fd5b6001808111156103ea577f4e487b7100000000000000000000000000000000000000000000000000000000600052602160045260246000fd5b836001811115610423577f4e487b7100000000000000000000000000000000000000000000000000000000600052602160045260246000fd5b14156105e457600060cf60009054906101000a900473ffffffffffffffffffffffffffffffffffffffff1673ffffffffffffffffffffffffffffffffffffffff1662fdd58e33896040518363ffffffff1660e01b815260040161048792919061458f565b60206040518083038186803b15801561049f57600080fd5b505afa1580156104b3573d6000803e3d6000fd5b505050506040513d601f19601f820116820180604052508101906104d79190613fed565b90508581101561051c576040517f08c379a0000000000000000000000000000000000000000000000000000000008152600401610513906146b3565b60405180910390fd5b8560ce60003373ffffffffffffffffffffffffffffffffffffffff1673ffffffffffffffffffffffffffffffffffffffff1681526020019081526020016000206000898152602001908152602001600020600082825461057c9190614790565b925050819055506105de338860ce60003373ffffffffffffffffffffffffffffffffffffffff1673ffffffffffffffffffffffffffffffffffffffff16815260200190815260200160002060008b815260200190815260200160002054613ac7565b5061085b565b600060cf60009054906101000a900473ffffffffffffffffffffffffffffffffffffffff1673ffffffffffffffffffffffffffffffffffffffff166333d59207886040518263ffffffff1660e01b81526004016106419190614753565b602060405180830381600087803b15801561065b57600080fd5b505af115801561066f573d6000803e3d6000fd5b505050506040513d601f19601f820116820180604052508101906106939190613fed565b9050858110156106d8576040517f08c379a00000000000000000000000000000000000000000000000000000000081526004016106cf906146d3565b60405180910390fd5b84866106e491906147e6565b60cc60003373ffffffffffffffffffffffffffffffffffffffff1673ffffffffffffffffffffffffffffffffffffffff1681526020019081526020016000205460cb60003373ffffffffffffffffffffffffffffffffffffffff1673ffffffffffffffffffffffffffffffffffffffff1681526020019081526020016000205461076e9190614840565b10156107af576040517f08c379a00000000000000000000000000000000000000000000000000000000081526004016107a690614633565b60405180910390fd5b84866107bb91906147e6565b60cc60003373ffffffffffffffffffffffffffffffffffffffff1673ffffffffffffffffffffffffffffffffffffffff16815260200190815260200160002060008282546108099190614790565b925050819055506108593360cc60003373ffffffffffffffffffffffffffffffffffffffff1673ffffffffffffffffffffffffffffffffffffffff16815260200190815260200160002054613acc565b505b600060cd600088815260200190815260200160002060008560018111156108ab577f4e487b7100000000000000000000000000000000000000000000000000000000600052602160045260246000fd5b815260200190815260200160002090506108c560c9613ad0565b60006108d160c9613ae6565b9050816040518061010001604052808381526020013373ffffffffffffffffffffffffffffffffffffffff16815260200187600181111561093b577f4e487b7100000000000000000000000000000000000000000000000000000000600052602160045260246000fd5b81526020018a8152602001898152602001600081526020018881526020014281525090806001815401808255809150506001900390600052602060002090600702016000909190919091506000820151816000015560208201518160010160006101000a81548173ffffffffffffffffffffffffffffffffffffffff021916908373ffffffffffffffffffffffffffffffffffffffff16021790555060408201518160010160146101000a81548160ff02191690836001811115610a28577f4e487b7100000000000000000000000000000000000000000000000000000000600052602160045260246000fd5b0217905550606082015181600201556080820151816003015560a0820151816004015560c0820151816005015560e082015181600601555050610a728133878b8b60008c42613af4565b600080838054905011610a86576000610a98565b60018380549050610a979190614840565b5b90505b600081111561114c5760006001811115610ade577f4e487b7100000000000000000000000000000000000000000000000000000000600052602160045260246000fd5b866001811115610b17577f4e487b7100000000000000000000000000000000000000000000000000000000600052602160045260246000fd5b148015610bc35750828181548110610b58577f4e487b7100000000000000000000000000000000000000000000000000000000600052603260045260246000fd5b90600052602060002090600702016005015483600183610b789190614840565b81548110610baf577f4e487b7100000000000000000000000000000000000000000000000000000000600052603260045260246000fd5b906000526020600020906007020160050154115b15610bcd5761114c565b600180811115610c06577f4e487b7100000000000000000000000000000000000000000000000000000000600052602160045260246000fd5b866001811115610c3f577f4e487b7100000000000000000000000000000000000000000000000000000000600052602160045260246000fd5b148015610ceb5750828181548110610c80577f4e487b7100000000000000000000000000000000000000000000000000000000600052603260045260246000fd5b90600052602060002090600702016005015483600183610ca09190614840565b81548110610cd7577f4e487b7100000000000000000000000000000000000000000000000000000000600052603260045260246000fd5b906000526020600020906007020160050154105b15610cf55761114c565b600083600183610d059190614840565b81548110610d3c577f4e487b7100000000000000000000000000000000000000000000000000000000600052603260045260246000fd5b906000526020600020906007020160405180610100016040529081600082015481526020016001820160009054906101000a900473ffffffffffffffffffffffffffffffffffffffff1673ffffffffffffffffffffffffffffffffffffffff1673ffffffffffffffffffffffffffffffffffffffff1681526020016001820160149054906101000a900460ff166001811115610e01577f4e487b7100000000000000000000000000000000000000000000000000000000600052602160045260246000fd5b6001811115610e39577f4e487b7100000000000000000000000000000000000000000000000000000000600052602160045260246000fd5b8152602001600282015481526020016003820154815260200160048201548152602001600582015481526020016006820154815250509050838281548110610eaa577f4e487b7100000000000000000000000000000000000000000000000000000000600052603260045260246000fd5b906000526020600020906007020184600184610ec69190614840565b81548110610efd577f4e487b7100000000000000000000000000000000000000000000000000000000600052603260045260246000fd5b9060005260206000209060070201600082015481600001556001820160009054906101000a900473ffffffffffffffffffffffffffffffffffffffff168160010160006101000a81548173ffffffffffffffffffffffffffffffffffffffff021916908373ffffffffffffffffffffffffffffffffffffffff1602179055506001820160149054906101000a900460ff168160010160146101000a81548160ff02191690836001811115610fda577f4e487b7100000000000000000000000000000000000000000000000000000000600052602160045260246000fd5b021790555060028201548160020155600382015481600301556004820154816004015560058201548160050155600682015481600601559050508084838154811061104e577f4e487b7100000000000000000000000000000000000000000000000000000000600052603260045260246000fd5b90600052602060002090600702016000820151816000015560208201518160010160006101000a81548173ffffffffffffffffffffffffffffffffffffffff021916908373ffffffffffffffffffffffffffffffffffffffff16021790555060408201518160010160146101000a81548160ff021916908360018111156110fe577f4e487b7100000000000000000000000000000000000000000000000000000000600052602160045260246000fd5b0217905550606082015181600201556080820151816003015560a0820151816004015560c0820151816005015560e082015181600601559050508180611143906148bc565b92505050610a9b565b505050505050505050565b61115f612bd4565b1561119f576040517f08c379a000000000000000000000000000000000000000000000000000000000815260040161119690614733565b60405180910390fd5b3460cb60003373ffffffffffffffffffffffffffffffffffffffff1673ffffffffffffffffffffffffffffffffffffffff16815260200190815260200160002060008282546111ee9190614790565b9250508190555061123e3360cb60003373ffffffffffffffffffffffffffffffffffffffff1673ffffffffffffffffffffffffffffffffffffffff16815260200190815260200160002054613afe565b565b82600060cf60009054906101000a900473ffffffffffffffffffffffffffffffffffffffff1673ffffffffffffffffffffffffffffffffffffffff166366d0330c836040518263ffffffff1660e01b815260040161129e9190614753565b602060405180830381600087803b1580156112b857600080fd5b505af11580156112cc573d6000803e3d6000fd5b505050506040513d601f19601f820116820180604052508101906112f09190613f9b565b9050600073ffffffffffffffffffffffffffffffffffffffff168173ffffffffffffffffffffffffffffffffffffffff161415611362576040517f08c379a000000000000000000000000000000000000000000000000000000000815260040161135990614713565b60405180910390fd5b61136a612bd4565b156113aa576040517f08c379a00000000000000000000000000000000000000000000000000000000081526004016113a190614733565b60405180910390fd5b6001808111156113e3577f4e487b7100000000000000000000000000000000000000000000000000000000600052602160045260246000fd5b83600181111561141c577f4e487b7100000000000000000000000000000000000000000000000000000000600052602160045260246000fd5b141561151757600060cf60009054906101000a900473ffffffffffffffffffffffffffffffffffffffff1673ffffffffffffffffffffffffffffffffffffffff1662fdd58e33886040518363ffffffff1660e01b815260040161148092919061458f565b60206040518083038186803b15801561149857600080fd5b505afa1580156114ac573d6000803e3d6000fd5b505050506040513d601f19601f820116820180604052508101906114d09190613fed565b905084811015611515576040517f08c379a000000000000000000000000000000000000000000000000000000000815260040161150c906146b3565b60405180910390fd5b505b600060cd60008781526020019081526020016000206000806001811115611567577f4e487b7100000000000000000000000000000000000000000000000000000000600052602160045260246000fd5b8660018111156115a0577f4e487b7100000000000000000000000000000000000000000000000000000000600052602160045260246000fd5b146115ac5760006115af565b60015b60018111156115e7577f4e487b7100000000000000000000000000000000000000000000000000000000600052602160045260246000fd5b815260200190815260200160002090506000808690505b8280549050821080156116115750600081115b15612824576000838381548110611651577f4e487b7100000000000000000000000000000000000000000000000000000000600052603260045260246000fd5b90600052602060002090600702016004015484848154811061169c577f4e487b7100000000000000000000000000000000000000000000000000000000600052603260045260246000fd5b9060005260206000209060070201600301546116b89190614840565b905060008183116116c957826116cb565b815b905080836116d99190614840565b925080858581548110611715577f4e487b7100000000000000000000000000000000000000000000000000000000600052603260045260246000fd5b9060005260206000209060070201600401546117319190614790565b85858154811061176a577f4e487b7100000000000000000000000000000000000000000000000000000000600052603260045260246000fd5b90600052602060002090600702016004018190555061178960ca613ad0565b600061179560ca613ae6565b90506118a5818787815481106117d4577f4e487b7100000000000000000000000000000000000000000000000000000000600052603260045260246000fd5b9060005260206000209060070201600001548d898981548110611820577f4e487b7100000000000000000000000000000000000000000000000000000000600052603260045260246000fd5b906000526020600020906007020160010160009054906101000a900473ffffffffffffffffffffffffffffffffffffffff1633878c8c8154811061188d577f4e487b7100000000000000000000000000000000000000000000000000000000600052603260045260246000fd5b90600052602060002090600702016005015442613b02565b611ae88686815481106118e1577f4e487b7100000000000000000000000000000000000000000000000000000000600052603260045260246000fd5b90600052602060002090600702016000015487878154811061192c577f4e487b7100000000000000000000000000000000000000000000000000000000600052603260045260246000fd5b906000526020600020906007020160010160009054906101000a900473ffffffffffffffffffffffffffffffffffffffff16888881548110611997577f4e487b7100000000000000000000000000000000000000000000000000000000600052603260045260246000fd5b906000526020600020906007020160010160149054906101000a900460ff168989815481106119ef577f4e487b7100000000000000000000000000000000000000000000000000000000600052603260045260246000fd5b9060005260206000209060070201600201548a8a81548110611a3a577f4e487b7100000000000000000000000000000000000000000000000000000000600052603260045260246000fd5b9060005260206000209060070201600301548b8b81548110611a85577f4e487b7100000000000000000000000000000000000000000000000000000000600052603260045260246000fd5b9060005260206000209060070201600401548c8c81548110611ad0577f4e487b7100000000000000000000000000000000000000000000000000000000600052603260045260246000fd5b90600052602060002090600702016005015442613af4565b600180811115611b21577f4e487b7100000000000000000000000000000000000000000000000000000000600052602160045260246000fd5b896001811115611b5a577f4e487b7100000000000000000000000000000000000000000000000000000000600052602160045260246000fd5b14156120505760cf60009054906101000a900473ffffffffffffffffffffffffffffffffffffffff1673ffffffffffffffffffffffffffffffffffffffff1663605105f033888881548110611bd8577f4e487b7100000000000000000000000000000000000000000000000000000000600052603260045260246000fd5b906000526020600020906007020160010160009054906101000a900473ffffffffffffffffffffffffffffffffffffffff168e866040518563ffffffff1660e01b8152600401611c2b9493929190614537565b600060405180830381600087803b158015611c4557600080fd5b505af1158015611c59573d6000803e3d6000fd5b5050505081868681548110611c97577f4e487b7100000000000000000000000000000000000000000000000000000000600052603260045260246000fd5b906000526020600020906007020160050154611cb391906147e6565b60cb60003373ffffffffffffffffffffffffffffffffffffffff1673ffffffffffffffffffffffffffffffffffffffff1681526020019081526020016000206000828254611d019190614790565b9250508190555081868681548110611d42577f4e487b7100000000000000000000000000000000000000000000000000000000600052603260045260246000fd5b906000526020600020906007020160050154611d5e91906147e6565b60cb6000888881548110611d9b577f4e487b7100000000000000000000000000000000000000000000000000000000600052603260045260246000fd5b906000526020600020906007020160010160009054906101000a900473ffffffffffffffffffffffffffffffffffffffff1673ffffffffffffffffffffffffffffffffffffffff1673ffffffffffffffffffffffffffffffffffffffff1681526020019081526020016000206000828254611e169190614840565b9250508190555081868681548110611e57577f4e487b7100000000000000000000000000000000000000000000000000000000600052603260045260246000fd5b906000526020600020906007020160050154611e7391906147e6565b60cc6000888881548110611eb0577f4e487b7100000000000000000000000000000000000000000000000000000000600052603260045260246000fd5b906000526020600020906007020160010160009054906101000a900473ffffffffffffffffffffffffffffffffffffffff1673ffffffffffffffffffffffffffffffffffffffff1673ffffffffffffffffffffffffffffffffffffffff1681526020019081526020016000206000828254611f2b9190614840565b9250508190555061204f868681548110611f6e577f4e487b7100000000000000000000000000000000000000000000000000000000600052603260045260246000fd5b906000526020600020906007020160010160009054906101000a900473ffffffffffffffffffffffffffffffffffffffff1660cc6000898981548110611fdd577f4e487b7100000000000000000000000000000000000000000000000000000000600052603260045260246000fd5b906000526020600020906007020160010160009054906101000a900473ffffffffffffffffffffffffffffffffffffffff1673ffffffffffffffffffffffffffffffffffffffff1673ffffffffffffffffffffffffffffffffffffffff16815260200190815260200160002054613acc565b5b6000600181111561208a577f4e487b7100000000000000000000000000000000000000000000000000000000600052602160045260246000fd5b8960018111156120c3577f4e487b7100000000000000000000000000000000000000000000000000000000600052602160045260246000fd5b14156126a85781868681548110612103577f4e487b7100000000000000000000000000000000000000000000000000000000600052603260045260246000fd5b90600052602060002090600702016005015461211f91906147e6565b60cc60003373ffffffffffffffffffffffffffffffffffffffff1673ffffffffffffffffffffffffffffffffffffffff1681526020019081526020016000205460cb60003373ffffffffffffffffffffffffffffffffffffffff1673ffffffffffffffffffffffffffffffffffffffff168152602001908152602001600020546121a99190614840565b10156121ea576040517f08c379a00000000000000000000000000000000000000000000000000000000081526004016121e190614633565b60405180910390fd5b60cf60009054906101000a900473ffffffffffffffffffffffffffffffffffffffff1673ffffffffffffffffffffffffffffffffffffffff1663605105f0878781548110612261577f4e487b7100000000000000000000000000000000000000000000000000000000600052603260045260246000fd5b906000526020600020906007020160010160009054906101000a900473ffffffffffffffffffffffffffffffffffffffff16338e866040518563ffffffff1660e01b81526004016122b59493929190614537565b600060405180830381600087803b1580156122cf57600080fd5b505af11580156122e3573d6000803e3d6000fd5b5050505081868681548110612321577f4e487b7100000000000000000000000000000000000000000000000000000000600052603260045260246000fd5b90600052602060002090600702016005015461233d91906147e6565b60cb60003373ffffffffffffffffffffffffffffffffffffffff1673ffffffffffffffffffffffffffffffffffffffff168152602001908152602001600020600082825461238b9190614840565b92505081905550818686815481106123cc577f4e487b7100000000000000000000000000000000000000000000000000000000600052603260045260246000fd5b9060005260206000209060070201600501546123e891906147e6565b60cb6000888881548110612425577f4e487b7100000000000000000000000000000000000000000000000000000000600052603260045260246000fd5b906000526020600020906007020160010160009054906101000a900473ffffffffffffffffffffffffffffffffffffffff1673ffffffffffffffffffffffffffffffffffffffff1673ffffffffffffffffffffffffffffffffffffffff16815260200190815260200160002060008282546124a09190614790565b925050819055508160ce60008888815481106124e5577f4e487b7100000000000000000000000000000000000000000000000000000000600052603260045260246000fd5b906000526020600020906007020160010160009054906101000a900473ffffffffffffffffffffffffffffffffffffffff1673ffffffffffffffffffffffffffffffffffffffff1673ffffffffffffffffffffffffffffffffffffffff16815260200190815260200160002060008d815260200190815260200160002060008282546125719190614840565b925050819055506126a78686815481106125b4577f4e487b7100000000000000000000000000000000000000000000000000000000600052603260045260246000fd5b906000526020600020906007020160010160009054906101000a900473ffffffffffffffffffffffffffffffffffffffff168c60ce60008a8a81548110612624577f4e487b7100000000000000000000000000000000000000000000000000000000600052603260045260246000fd5b906000526020600020906007020160010160009054906101000a900473ffffffffffffffffffffffffffffffffffffffff1673ffffffffffffffffffffffffffffffffffffffff1673ffffffffffffffffffffffffffffffffffffffff16815260200190815260200160002060008f815260200190815260200160002054613ac7565b5b6126f13360cb60003373ffffffffffffffffffffffffffffffffffffffff1673ffffffffffffffffffffffffffffffffffffffff16815260200190815260200160002054613afe565b61280e86868154811061272d577f4e487b7100000000000000000000000000000000000000000000000000000000600052603260045260246000fd5b906000526020600020906007020160010160009054906101000a900473ffffffffffffffffffffffffffffffffffffffff1660cb600089898154811061279c577f4e487b7100000000000000000000000000000000000000000000000000000000600052603260045260246000fd5b906000526020600020906007020160010160009054906101000a900473ffffffffffffffffffffffffffffffffffffffff1673ffffffffffffffffffffffffffffffffffffffff1673ffffffffffffffffffffffffffffffffffffffff16815260200190815260200160002054613afe565b8480612819906148e6565b9550505050506115fe565b600091505b8280549050821080156128cf5750828281548110612870577f4e487b7100000000000000000000000000000000000000000000000000000000600052603260045260246000fd5b9060005260206000209060070201600301548383815481106128bb577f4e487b7100000000000000000000000000000000000000000000000000000000600052603260045260246000fd5b906000526020600020906007020160040154145b15612bca57612927838381548110612910577f4e487b7100000000000000000000000000000000000000000000000000000000600052603260045260246000fd5b906000526020600020906007020160000154613b0c565b60008290505b6001848054905061293e9190614840565b811015612afb57836001826129539190614790565b8154811061298a577f4e487b7100000000000000000000000000000000000000000000000000000000600052603260045260246000fd5b90600052602060002090600702018482815481106129d1577f4e487b7100000000000000000000000000000000000000000000000000000000600052603260045260246000fd5b9060005260206000209060070201600082015481600001556001820160009054906101000a900473ffffffffffffffffffffffffffffffffffffffff168160010160006101000a81548173ffffffffffffffffffffffffffffffffffffffff021916908373ffffffffffffffffffffffffffffffffffffffff1602179055506001820160149054906101000a900460ff168160010160146101000a81548160ff02191690836001811115612aae577f4e487b7100000000000000000000000000000000000000000000000000000000600052602160045260246000fd5b021790555060028201548160020155600382015481600301556004820154816004015560058201548160050155600682015481600601559050508080612af3906148e6565b91505061292d565b5082805480612b33577f4e487b7100000000000000000000000000000000000000000000000000000000600052603160045260246000fd5b60019003818190600052602060002090600702016000808201600090556001820160006101000a81549073ffffffffffffffffffffffffffffffffffffffff02191690556001820160146101000a81549060ff021916905560028201600090556003820160009055600482016000905560058201600090556006820160009055505090558180612bc2906148e6565b925050612829565b5050505050505050565b6000603360009054906101000a900460ff16905090565b612bf3613b0f565b73ffffffffffffffffffffffffffffffffffffffff16612c11612dae565b73ffffffffffffffffffffffffffffffffffffffff1614612c67576040517f08c379a0000000000000000000000000000000000000000000000000000000008152600401612c5e90614653565b60405180910390fd5b600073ffffffffffffffffffffffffffffffffffffffff16606560009054906101000a900473ffffffffffffffffffffffffffffffffffffffff1673ffffffffffffffffffffffffffffffffffffffff167f8be0079c531659141344cd1fd0a4f28419497f9722a3daafe3b4186f6b6457e060405160405180910390a36000606560006101000a81548173ffffffffffffffffffffffffffffffffffffffff021916908373ffffffffffffffffffffffffffffffffffffffff160217905550565b612d30613b0f565b73ffffffffffffffffffffffffffffffffffffffff16612d4e612dae565b73ffffffffffffffffffffffffffffffffffffffff1614612da4576040517f08c379a0000000000000000000000000000000000000000000000000000000008152600401612d9b90614653565b60405180910390fd5b612dac613b17565b565b6000606560009054906101000a900473ffffffffffffffffffffffffffffffffffffffff16905090565b600060cd60008581526020019081526020016000206000846001811115612e28577f4e487b7100000000000000000000000000000000000000000000000000000000600052602160045260246000fd5b8152602001908152602001600020905060005b81805490508110156135105782828281548110612e81577f4e487b7100000000000000000000000000000000000000000000000000000000600052603260045260246000fd5b90600052602060002090600702016000015414156134fd57818181548110612ed2577f4e487b7100000000000000000000000000000000000000000000000000000000600052603260045260246000fd5b906000526020600020906007020160010160009054906101000a900473ffffffffffffffffffffffffffffffffffffffff1673ffffffffffffffffffffffffffffffffffffffff163373ffffffffffffffffffffffffffffffffffffffff1614612f71576040517f08c379a0000000000000000000000000000000000000000000000000000000008152600401612f6890614693565b60405180910390fd5b60006001811115612fab577f4e487b7100000000000000000000000000000000000000000000000000000000600052602160045260246000fd5b828281548110612fe4577f4e487b7100000000000000000000000000000000000000000000000000000000600052603260045260246000fd5b906000526020600020906007020160010160149054906101000a900460ff16600181111561303b577f4e487b7100000000000000000000000000000000000000000000000000000000600052602160045260246000fd5b14156131845781818154811061307a577f4e487b7100000000000000000000000000000000000000000000000000000000600052603260045260246000fd5b9060005260206000209060070201600501548282815481106130c5577f4e487b7100000000000000000000000000000000000000000000000000000000600052603260045260246000fd5b9060005260206000209060070201600301546130e191906147e6565b60cc60003373ffffffffffffffffffffffffffffffffffffffff1673ffffffffffffffffffffffffffffffffffffffff168152602001908152602001600020600082825461312f9190614840565b9250508190555061317f3360cc60003373ffffffffffffffffffffffffffffffffffffffff1673ffffffffffffffffffffffffffffffffffffffff16815260200190815260200160002054613acc565b613291565b8181815481106131bd577f4e487b7100000000000000000000000000000000000000000000000000000000600052603260045260246000fd5b90600052602060002090600702016003015460ce60003373ffffffffffffffffffffffffffffffffffffffff1673ffffffffffffffffffffffffffffffffffffffff1681526020019081526020016000206000878152602001908152602001600020600082825461322e9190614840565b92505081905550613290338660ce60003373ffffffffffffffffffffffffffffffffffffffff1673ffffffffffffffffffffffffffffffffffffffff168152602001908152602001600020600089815260200190815260200160002054613ac7565b5b81600183805490506132a39190614840565b815481106132da577f4e487b7100000000000000000000000000000000000000000000000000000000600052603260045260246000fd5b9060005260206000209060070201828281548110613321577f4e487b7100000000000000000000000000000000000000000000000000000000600052603260045260246000fd5b9060005260206000209060070201600082015481600001556001820160009054906101000a900473ffffffffffffffffffffffffffffffffffffffff168160010160006101000a81548173ffffffffffffffffffffffffffffffffffffffff021916908373ffffffffffffffffffffffffffffffffffffffff1602179055506001820160149054906101000a900460ff168160010160146101000a81548160ff021916908360018111156133fe577f4e487b7100000000000000000000000000000000000000000000000000000000600052602160045260246000fd5b021790555060028201548160020155600382015481600301556004820154816004015560058201548160050155600682015481600601559050508180548061346f577f4e487b7100000000000000000000000000000000000000000000000000000000600052603160045260246000fd5b60019003818190600052602060002090600702016000808201600090556001820160006101000a81549073ffffffffffffffffffffffffffffffffffffffff02191690556001820160146101000a81549060ff021916905560028201600090556003820160009055600482016000905560058201600090556006820160009055505090556134fc83613b0c565b5b8080613508906148e6565b915050612e3b565b5050505050565b600060019054906101000a900460ff168061353d575060008054906101000a900460ff16155b61357c576040517f08c379a000000000000000000000000000000000000000000000000000000000815260040161357390614613565b60405180910390fd5b60008060019054906101000a900460ff1615905080156135cc576001600060016101000a81548160ff02191690831515021790555060016000806101000a81548160ff0219169083151502179055505b6135d4613bba565b6135dc613c93565b6135e4613d87565b80156136055760008060016101000a81548160ff0219169083151502179055505b50565b6002609754141561364e576040517f08c379a0000000000000000000000000000000000000000000000000000000008152600401613645906146f3565b60405180910390fd5b600260978190555061365e612bd4565b1561369e576040517f08c379a000000000000000000000000000000000000000000000000000000000815260040161369590614733565b60405180910390fd5b8060cc60003373ffffffffffffffffffffffffffffffffffffffff1673ffffffffffffffffffffffffffffffffffffffff1681526020019081526020016000205460cb60003373ffffffffffffffffffffffffffffffffffffffff1673ffffffffffffffffffffffffffffffffffffffff168152602001908152602001600020546137299190614840565b101561376a576040517f08c379a000000000000000000000000000000000000000000000000000000000815260040161376190614673565b60405180910390fd5b8060cb60003373ffffffffffffffffffffffffffffffffffffffff1673ffffffffffffffffffffffffffffffffffffffff16815260200190815260200160002060008282546137b99190614840565b925050819055503373ffffffffffffffffffffffffffffffffffffffff166108fc829081150290604051600060405180830381858888f19350505050158015613806573d6000803e3d6000fd5b506138503360cb60003373ffffffffffffffffffffffffffffffffffffffff1673ffffffffffffffffffffffffffffffffffffffff16815260200190815260200160002054613afe565b600160978190555050565b613863613b0f565b73ffffffffffffffffffffffffffffffffffffffff16613881612dae565b73ffffffffffffffffffffffffffffffffffffffff16146138d7576040517f08c379a00000000000000000000000000000000000000000000000000000000081526004016138ce90614653565b60405180910390fd5b600073ffffffffffffffffffffffffffffffffffffffff168173ffffffffffffffffffffffffffffffffffffffff161415613947576040517f08c379a000000000000000000000000000000000000000000000000000000000815260040161393e906145d3565b60405180910390fd5b8073ffffffffffffffffffffffffffffffffffffffff16606560009054906101000a900473ffffffffffffffffffffffffffffffffffffffff1673ffffffffffffffffffffffffffffffffffffffff167f8be0079c531659141344cd1fd0a4f28419497f9722a3daafe3b4186f6b6457e060405160405180910390a380606560006101000a81548173ffffffffffffffffffffffffffffffffffffffff021916908373ffffffffffffffffffffffffffffffffffffffff16021790555050565b613a0f613b0f565b73ffffffffffffffffffffffffffffffffffffffff16613a2d612dae565b73ffffffffffffffffffffffffffffffffffffffff1614613a83576040517f08c379a0000000000000000000000000000000000000000000000000000000008152600401613a7a90614653565b60405180910390fd5b8060cf60006101000a81548173ffffffffffffffffffffffffffffffffffffffff021916908373ffffffffffffffffffffffffffffffffffffffff16021790555050565b505050565b5050565b6001816000016000828254019250508190555050565b600081600001549050919050565b5050505050505050565b5050565b5050505050505050565b50565b600033905090565b613b1f612bd4565b15613b5f576040517f08c379a0000000000000000000000000000000000000000000000000000000008152600401613b56906145f3565b60405180910390fd5b6001603360006101000a81548160ff0219169083151502179055507f62e78cea01bee320cd4e420270b5ea74000d11b0c9f74754ebdbfc544b05a258613ba3613b0f565b604051613bb0919061451c565b60405180910390a1565b600060019054906101000a900460ff1680613be0575060008054906101000a900460ff16155b613c1f576040517f08c379a0000000000000000000000000000000000000000000000000000000008152600401613c1690614613565b60405180910390fd5b60008060019054906101000a900460ff161590508015613c6f576001600060016101000a81548160ff02191690831515021790555060016000806101000a81548160ff0219169083151502179055505b8015613c905760008060016101000a81548160ff0219169083151502179055505b50565b600060019054906101000a900460ff1680613cb9575060008054906101000a900460ff16155b613cf8576040517f08c379a0000000000000000000000000000000000000000000000000000000008152600401613cef90614613565b60405180910390fd5b60008060019054906101000a900460ff161590508015613d48576001600060016101000a81548160ff02191690831515021790555060016000806101000a81548160ff0219169083151502179055505b6000603360006101000a81548160ff0219169083151502179055508015613d845760008060016101000a81548160ff0219169083151502179055505b50565b600060019054906101000a900460ff1680613dad575060008054906101000a900460ff16155b613dec576040517f08c379a0000000000000000000000000000000000000000000000000000000008152600401613de390614613565b60405180910390fd5b60008060019054906101000a900460ff161590508015613e3c576001600060016101000a81548160ff02191690831515021790555060016000806101000a81548160ff0219169083151502179055505b6000613e46613b0f565b905080606560006101000a81548173ffffffffffffffffffffffffffffffffffffffff021916908373ffffffffffffffffffffffffffffffffffffffff1602179055508073ffffffffffffffffffffffffffffffffffffffff16600073ffffffffffffffffffffffffffffffffffffffff167f8be0079c531659141344cd1fd0a4f28419497f9722a3daafe3b4186f6b6457e060405160405180910390a3508015613f065760008060016101000a81548160ff0219169083151502179055505b50565b600081359050613f188161495e565b92915050565b600081519050613f2d8161495e565b92915050565b600081359050613f4281614975565b92915050565b600081359050613f5781614985565b92915050565b600081519050613f6c81614985565b92915050565b600060208284031215613f8457600080fd5b6000613f9284828501613f09565b91505092915050565b600060208284031215613fad57600080fd5b6000613fbb84828501613f1e565b91505092915050565b600060208284031215613fd657600080fd5b6000613fe484828501613f48565b91505092915050565b600060208284031215613fff57600080fd5b600061400d84828501613f5d565b91505092915050565b60008060006060848603121561402b57600080fd5b600061403986828701613f48565b935050602061404a86828701613f33565b925050604061405b86828701613f48565b9150509250925092565b60008060006060848603121561407a57600080fd5b600061408886828701613f48565b935050602061409986828701613f48565b92505060406140aa86828701613f33565b9150509250925092565b600080600080608085870312156140ca57600080fd5b60006140d887828801613f48565b94505060206140e987828801613f48565b93505060406140fa87828801613f48565b925050606061410b87828801613f33565b91505092959194509250565b61412081614874565b82525050565b61412f81614886565b82525050565b600061414260268361477f565b91507f4f776e61626c653a206e6577206f776e657220697320746865207a65726f206160008301527f64647265737300000000000000000000000000000000000000000000000000006020830152604082019050919050565b60006141a860108361477f565b91507f5061757361626c653a20706175736564000000000000000000000000000000006000830152602082019050919050565b60006141e8602e8361477f565b91507f496e697469616c697a61626c653a20636f6e747261637420697320616c72656160008301527f647920696e697469616c697a65640000000000000000000000000000000000006020830152604082019050919050565b600061424e60138361477f565b91507f6574682062616c616e636520746f6f206c6f77000000000000000000000000006000830152602082019050919050565b600061428e60208361477f565b91507f4f776e61626c653a2063616c6c6572206973206e6f7420746865206f776e65726000830152602082019050919050565b60006142ce60198361477f565b91507f4554482062616c616e6365206973206e6f7420656e6f756768000000000000006000830152602082019050919050565b600061430e60248361477f565b91507f4f6e6c7920746865207472616465722063616e2064656c65746520686973206f60008301527f72646572000000000000000000000000000000000000000000000000000000006020830152604082019050919050565b600061437460008361476e565b9150600082019050919050565b600061438e60298361477f565b91507f6d6573736167652073656e646572277320746f6b656e2062616c616e6365206960008301527f7320746f6f206c6f7700000000000000000000000000000000000000000000006020830152604082019050919050565b60006143f460388361477f565b91507f746f74616c20616d6f756e74206f66206672616374696f6e73206973206c6f7760008301527f6572207468616e2074686520676976656e20616d6f756e7400000000000000006020830152604082019050919050565b600061445a601f8361477f565b91507f5265656e7472616e637947756172643a207265656e7472616e742063616c6c006000830152602082019050919050565b600061449a60198361477f565b91507f7468697320746f6b656e20646f6573206e6f74206578697374000000000000006000830152602082019050919050565b60006144da60188361477f565b91507f4e6f7420616c6c6f776564207768696c652070617573656400000000000000006000830152602082019050919050565b614516816148b2565b82525050565b60006020820190506145316000830184614117565b92915050565b600060a08201905061454c6000830187614117565b6145596020830186614117565b614566604083018561450d565b614573606083018461450d565b818103608083015261458481614367565b905095945050505050565b60006040820190506145a46000830185614117565b6145b1602083018461450d565b9392505050565b60006020820190506145cd6000830184614126565b92915050565b600060208201905081810360008301526145ec81614135565b9050919050565b6000602082019050818103600083015261460c8161419b565b9050919050565b6000602082019050818103600083015261462c816141db565b9050919050565b6000602082019050818103600083015261464c81614241565b9050919050565b6000602082019050818103600083015261466c81614281565b9050919050565b6000602082019050818103600083015261468c816142c1565b9050919050565b600060208201905081810360008301526146ac81614301565b9050919050565b600060208201905081810360008301526146cc81614381565b9050919050565b600060208201905081810360008301526146ec816143e7565b9050919050565b6000602082019050818103600083015261470c8161444d565b9050919050565b6000602082019050818103600083015261472c8161448d565b9050919050565b6000602082019050818103600083015261474c816144cd565b9050919050565b6000602082019050614768600083018461450d565b92915050565b600082825260208201905092915050565b600082825260208201905092915050565b600061479b826148b2565b91506147a6836148b2565b9250827fffffffffffffffffffffffffffffffffffffffffffffffffffffffffffffffff038211156147db576147da61492f565b5b828201905092915050565b60006147f1826148b2565b91506147fc836148b2565b9250817fffffffffffffffffffffffffffffffffffffffffffffffffffffffffffffffff04831182151516156148355761483461492f565b5b828202905092915050565b600061484b826148b2565b9150614856836148b2565b9250828210156148695761486861492f565b5b828203905092915050565b600061487f82614892565b9050919050565b60008115159050919050565b600073ffffffffffffffffffffffffffffffffffffffff82169050919050565b6000819050919050565b60006148c7826148b2565b915060008214156148db576148da61492f565b5b600182039050919050565b60006148f1826148b2565b91507fffffffffffffffffffffffffffffffffffffffffffffffffffffffffffffffff8214156149245761492361492f565b5b600182019050919050565b7f4e487b7100000000000000000000000000000000000000000000000000000000600052601160045260246000fd5b61496781614874565b811461497257600080fd5b50565b6002811061498257600080fd5b50565b61498e816148b2565b811461499957600080fd5b5056fea26469706673582212202930ae610bf5f563ce40cae309ad5df2f6f8383c26714f818f0fc1a147bc4e8864736f6c63430008000033",
  "immutableReferences": {},
  "source": "// SPDX-License-Identifier: MIT\n\npragma solidity ^0.8.0;\n\nimport \"@openzeppelin/contracts-upgradeable/security/PausableUpgradeable.sol\";\nimport \"@openzeppelin/contracts-upgradeable/security/ReentrancyGuardUpgradeable.sol\";\nimport \"@openzeppelin/contracts-upgradeable/proxy/utils/Initializable.sol\";\nimport \"@openzeppelin/contracts-upgradeable/utils/CountersUpgradeable.sol\";\nimport \"@openzeppelin/contracts-upgradeable/access/OwnableUpgradeable.sol\";\nimport \"./INftFractionsRepository.sol\";\n\ncontract DexBase is\n    Initializable,\n    PausableUpgradeable,\n    OwnableUpgradeable,\n    ReentrancyGuardUpgradeable\n{\n    using CountersUpgradeable for CountersUpgradeable.Counter;\n\n    enum Side {\n        BUY,\n        SELL\n    }\n\n    struct Order {\n        uint256 id;\n        address trader;\n        Side side;\n        uint256 tokenId;\n        uint256 amount;\n        uint256 filled;\n        uint256 price;\n        uint256 date;\n    }\n\n    CountersUpgradeable.Counter private _orderIds;\n    CountersUpgradeable.Counter private _tradeIds;\n    mapping(address => uint256) ethBalance;\n    mapping(address => uint256) ethReservedBalance;\n    mapping(uint256 => mapping(uint256 => Order[])) orderBook;\n    mapping(address => mapping(uint256 => uint256)) sharesReserved;\n    INftFractionsRepository nftFractionsRepository;\n\n    function __DexBase_init() public initializer {\n        __Context_init_unchained();\n        __Pausable_init_unchained();\n        __Ownable_init_unchained();\n    }\n\n    function setNftFractionsRepository(address nftFractionsRepositoryAddress)\n        public\n        onlyOwner\n    {\n        nftFractionsRepository = INftFractionsRepository(\n            nftFractionsRepositoryAddress\n        );\n    }\n\n    /**\n     * @dev deposit ETH for trading\n     */\n    function depositEth() public payable {\n        require(!paused(), \"Not allowed while paused\");\n        ethBalance[msg.sender] += msg.value;\n\n        _onEthBalanceChange(msg.sender, ethBalance[msg.sender]);\n    }\n\n    /**\n     * @dev Withdraw ETH\n     *\n     * Requirements:\n     * - msg.sender has to have equal or more ETH than the amount to withdraw\n     */\n    function withdrawEth(uint256 amount) public nonReentrant {\n        require(!paused(), \"Not allowed while paused\");\n        require(\n            ethBalance[msg.sender] - ethReservedBalance[msg.sender] >= amount,\n            \"ETH balance is not enough\"\n        );\n        ethBalance[msg.sender] -= amount;\n        payable(msg.sender).transfer(amount);\n\n        _onEthBalanceChange(msg.sender, ethBalance[msg.sender]);\n    }\n\n    function pause() public onlyOwner {\n        _pause();\n    }\n\n    /**\n     * @dev Creates a limit order\n     *\n     * Requirements:\n     * - in case of sell: msg.sender has to have sufficient shares available for selling\n     * - in case of buy: msg.sender has to have sufficient ETH deposited\n     *\n     * The relevant hooks are called: _onOrderUpsert, _onSharesReservedChange, _onEthReservedBalanceChange\n     */\n    function createLimitOrder(\n        uint256 tokenId,\n        uint256 amount,\n        uint256 price,\n        Side side\n    ) external tokenExist(tokenId) {\n        require(!paused(), \"Not allowed while paused\");\n        if (side == Side.SELL) {\n            uint256 sendersBalance = nftFractionsRepository.balanceOf(\n                msg.sender,\n                tokenId\n            );\n            require(\n                sendersBalance >= amount,\n                \"message sender's token balance is too low\"\n            );\n            sharesReserved[msg.sender][tokenId] += amount;\n            _onSharesReservedChange(\n                msg.sender,\n                tokenId,\n                sharesReserved[msg.sender][tokenId]\n            );\n        } else {\n            uint256 totalFractionsAmount;\n            totalFractionsAmount = nftFractionsRepository\n                .getTotalFractionsAmount(tokenId);\n            require(\n                totalFractionsAmount >= amount,\n                \"total amount of fractions is lower than the given amount\"\n            );\n            require(\n                ethBalance[msg.sender] - ethReservedBalance[msg.sender] >=\n                    amount * price,\n                \"eth balance too low\"\n            );\n            ethReservedBalance[msg.sender] += amount * price;\n            _onEthReservedBalanceChange(\n                msg.sender,\n                ethReservedBalance[msg.sender]\n            );\n        }\n        Order[] storage orders = orderBook[tokenId][uint256(side)];\n        _orderIds.increment();\n        uint256 newOrderId = _orderIds.current();\n        orders.push(\n            Order(\n                newOrderId,\n                msg.sender,\n                side,\n                tokenId,\n                amount,\n                0,\n                price,\n                block.timestamp\n            )\n        );\n        _onOrderUpsert(\n            newOrderId,\n            msg.sender,\n            side,\n            tokenId,\n            amount,\n            0,\n            price,\n            block.timestamp\n        );\n\n        uint256 i = orders.length > 0 ? orders.length - 1 : 0;\n        while (i > 0) {\n            if (side == Side.BUY && orders[i - 1].price > orders[i].price) {\n                break;\n            }\n            if (side == Side.SELL && orders[i - 1].price < orders[i].price) {\n                break;\n            }\n            Order memory order = orders[i - 1];\n            orders[i - 1] = orders[i];\n            orders[i] = order;\n            i--;\n        }\n    }\n\n    /**\n     * @dev Creates a market order and executes against the registered limit orders\n     *\n     * Requirements:\n     * - in case of sell: msg.sender has to have sufficient shares available for selling\n     * - in case of buy: msg.sender has to have sufficient ETH deposited\n     *\n     * The relevant hooks are called: _onTradeExecution, _onOrderUpsert, _onSharesReservedChange, _onEthReservedBalanceChange, _onEthBalanceChange\n     */\n    function createMarketOrder(\n        uint256 tokenId,\n        uint256 amount,\n        Side side\n    ) external tokenExist(tokenId) {\n        require(!paused(), \"Not allowed while paused\");\n        if (side == Side.SELL) {\n            uint256 sendersBalance = nftFractionsRepository.balanceOf(\n                msg.sender,\n                tokenId\n            );\n            require(\n                sendersBalance >= amount,\n                \"message sender's token balance is too low\"\n            );\n        }\n        Order[] storage orders = orderBook[tokenId][\n            uint256(side == Side.BUY ? Side.SELL : Side.BUY)\n        ];\n        uint256 i;\n        uint256 remaining = amount;\n\n        while (i < orders.length && remaining > 0) {\n            uint256 available = orders[i].amount - orders[i].filled;\n            uint256 matched = (remaining > available) ? available : remaining;\n            remaining = remaining - matched;\n            orders[i].filled = orders[i].filled + matched;\n            _tradeIds.increment();\n            uint256 newTradeId = _tradeIds.current();\n            _onTradeExecution(\n                newTradeId,\n                orders[i].id,\n                tokenId,\n                orders[i].trader,\n                msg.sender,\n                matched,\n                orders[i].price,\n                block.timestamp\n            );\n            _onOrderUpsert(\n                orders[i].id,\n                orders[i].trader,\n                orders[i].side,\n                orders[i].tokenId,\n                orders[i].amount,\n                orders[i].filled,\n                orders[i].price,\n                block.timestamp\n            );\n            if (side == Side.SELL) {\n                nftFractionsRepository.transferFrom(\n                    msg.sender,\n                    orders[i].trader,\n                    tokenId,\n                    matched,\n                    \"\"\n                );\n                ethBalance[msg.sender] += orders[i].price * matched;\n                ethBalance[orders[i].trader] -= orders[i].price * matched;\n                ethReservedBalance[orders[i].trader] -=\n                    orders[i].price *\n                    matched;\n                _onEthReservedBalanceChange(\n                    orders[i].trader,\n                    ethReservedBalance[orders[i].trader]\n                );\n            }\n            if (side == Side.BUY) {\n                require(\n                    ethBalance[msg.sender] - ethReservedBalance[msg.sender] >=\n                        orders[i].price * matched,\n                    \"eth balance too low\"\n                );\n                nftFractionsRepository.transferFrom(\n                    orders[i].trader,\n                    msg.sender,\n                    tokenId,\n                    matched,\n                    \"\"\n                );\n                ethBalance[msg.sender] -= orders[i].price * matched;\n                ethBalance[orders[i].trader] += orders[i].price * matched;\n                sharesReserved[orders[i].trader][tokenId] -= matched;\n                _onSharesReservedChange(\n                    orders[i].trader,\n                    tokenId,\n                    sharesReserved[orders[i].trader][tokenId]\n                );\n            }\n            _onEthBalanceChange(msg.sender, ethBalance[msg.sender]);\n            _onEthBalanceChange(orders[i].trader, ethBalance[orders[i].trader]);\n            i++;\n        }\n\n        i = 0;\n        while (i < orders.length && orders[i].filled == orders[i].amount) {\n            _onOrderRemoval(orders[i].id);\n            for (uint256 j = i; j < orders.length - 1; j++) {\n                orders[j] = orders[j + 1];\n            }\n            orders.pop();\n            i++;\n        }\n    }\n\n    /**\n     * @dev delete the order\n     */\n    function deleteOrder(\n        uint256 tokenId,\n        Side side,\n        uint256 orderId\n    ) public {\n        Order[] storage orders = orderBook[tokenId][uint256(side)];\n        for (uint256 i = 0; i < orders.length; i++) {\n            if (orders[i].id == orderId) {\n                require(\n                    msg.sender == orders[i].trader,\n                    \"Only the trader can delete his order\"\n                );\n                if (orders[i].side == Side.BUY) {\n                    ethReservedBalance[msg.sender] -=\n                        orders[i].amount *\n                        orders[i].price;\n                    _onEthReservedBalanceChange(\n                        msg.sender,\n                        ethReservedBalance[msg.sender]\n                    );\n                } else {\n                    sharesReserved[msg.sender][tokenId] -= orders[i].amount;\n                    _onSharesReservedChange(\n                        msg.sender,\n                        tokenId,\n                        sharesReserved[msg.sender][tokenId]\n                    );\n                }\n                orders[i] = orders[orders.length - 1];\n                orders.pop();\n                _onOrderRemoval(orderId);\n            }\n        }\n    }\n\n    modifier tokenExist(uint256 tokenId) {\n        address erc721ContractAddress;\n        (erc721ContractAddress) = nftFractionsRepository\n            .getErc721ContractAddress(tokenId);\n        require(\n            erc721ContractAddress != address(0),\n            \"this token does not exist\"\n        );\n        _;\n    }\n\n    /**\n     * @dev hook function that is called when an order is created or updated\n     */\n    function _onOrderUpsert(\n        uint256 orderId,\n        address trader,\n        Side side,\n        uint256 tokenId,\n        uint256 amount,\n        uint256 filled,\n        uint256 price,\n        uint256 timestamp\n    ) internal virtual {}\n\n    /**\n     * @dev hook function that is called when an order is deleted\n     */\n    function _onOrderRemoval(uint256 orderId) internal virtual {}\n\n    /**\n     * @dev hook function that is called when a traded happened\n     */\n    function _onTradeExecution(\n        uint256 tradeId,\n        uint256 orderId,\n        uint256 tokenId,\n        address trader1,\n        address trader2,\n        uint256 matchedAmount,\n        uint256 price,\n        uint256 timestamp\n    ) internal virtual {}\n\n    /**\n     * @dev hook function that is called when an account's balance has changed in a trade\n     */\n    function _onEthBalanceChange(address account, uint256 balance)\n        internal\n        virtual\n    {}\n\n    /**\n     * @dev hook function that is called when an account's reserved balance has changed, e.g.:\n     * - created a buy order (so the necessary ETH has been reserved)\n     * - the buy order has executed\n     * - the order has been deleted\n     */\n    function _onEthReservedBalanceChange(\n        address account,\n        uint256 reservedBalance\n    ) internal virtual {}\n\n    /**\n     * @dev hook function that is called when an account's token shares reserved balance has changed, e.g.:\n     * - created a sell order (so the shares are reserved)\n     * - the sell order has executed\n     * - the order has been deleted\n     */\n    function _onSharesReservedChange(\n        address account,\n        uint256 tokenId,\n        uint256 sharesReservedBalance\n    ) internal virtual {}\n}\n",
  "sourcePath": "/Users/szabolcs/Documents/Personal/Szakmai/Ethereum/nft-fractions-dex/contracts/DexBase.sol",
  "compiler": {
    "name": "solc",
    "version": "0.8.0+commit.c7dfd78e.Emscripten.clang"
  },
  "schemaVersion": "3.3.4",
  "updatedAt": "2021-09-27T12:18:53.279Z",
  "devdoc": {
    "kind": "dev",
    "methods": {
      "createLimitOrder(uint256,uint256,uint256,uint8)": {
        "details": "Creates a limit order Requirements: - in case of sell: msg.sender has to have sufficient shares available for selling - in case of buy: msg.sender has to have sufficient ETH deposited The relevant hooks are called: _onOrderUpsert, _onSharesReservedChange, _onEthReservedBalanceChange"
      },
      "createMarketOrder(uint256,uint256,uint8)": {
        "details": "Creates a market order and executes against the registered limit orders Requirements: - in case of sell: msg.sender has to have sufficient shares available for selling - in case of buy: msg.sender has to have sufficient ETH deposited The relevant hooks are called: _onTradeExecution, _onOrderUpsert, _onSharesReservedChange, _onEthReservedBalanceChange, _onEthBalanceChange"
      },
      "deleteOrder(uint256,uint8,uint256)": {
        "details": "delete the order"
      },
      "depositEth()": {
        "details": "deposit ETH for trading"
      },
      "owner()": {
        "details": "Returns the address of the current owner."
      },
      "paused()": {
        "details": "Returns true if the contract is paused, and false otherwise."
      },
      "renounceOwnership()": {
        "details": "Leaves the contract without owner. It will not be possible to call `onlyOwner` functions anymore. Can only be called by the current owner. NOTE: Renouncing ownership will leave the contract without an owner, thereby removing any functionality that is only available to the owner."
      },
      "transferOwnership(address)": {
        "details": "Transfers ownership of the contract to a new account (`newOwner`). Can only be called by the current owner."
      },
      "withdrawEth(uint256)": {
        "details": "Withdraw ETH Requirements: - msg.sender has to have equal or more ETH than the amount to withdraw"
      }
    },
    "version": 1
  },
  "userdoc": {
    "kind": "user",
    "methods": {},
    "version": 1
  }
}