{
  "contractName": "MaticDex",
  "abi": [
    {
      "anonymous": false,
      "inputs": [
        {
          "indexed": false,
          "internalType": "address",
          "name": "account",
          "type": "address"
        },
        {
          "indexed": false,
          "internalType": "uint256",
          "name": "balance",
          "type": "uint256"
        }
      ],
      "name": "EthBalanceChange",
      "type": "event"
    },
    {
      "anonymous": false,
      "inputs": [
        {
          "indexed": false,
          "internalType": "address",
          "name": "account",
          "type": "address"
        },
        {
          "indexed": false,
          "internalType": "uint256",
          "name": "balance",
          "type": "uint256"
        }
      ],
      "name": "EthReservedBalanceChange",
      "type": "event"
    },
    {
      "anonymous": false,
      "inputs": [
        {
          "indexed": false,
          "internalType": "uint256",
          "name": "tradeId",
          "type": "uint256"
        },
        {
          "indexed": false,
          "internalType": "uint256",
          "name": "orderId",
          "type": "uint256"
        },
        {
          "indexed": false,
          "internalType": "uint256",
          "name": "tokenId",
          "type": "uint256"
        },
        {
          "indexed": false,
          "internalType": "address",
          "name": "trader1",
          "type": "address"
        },
        {
          "indexed": false,
          "internalType": "address",
          "name": "trader2",
          "type": "address"
        },
        {
          "indexed": false,
          "internalType": "uint256",
          "name": "amount",
          "type": "uint256"
        },
        {
          "indexed": false,
          "internalType": "uint256",
          "name": "price",
          "type": "uint256"
        },
        {
          "indexed": false,
          "internalType": "uint256",
          "name": "date",
          "type": "uint256"
        }
      ],
      "name": "NewTrade",
      "type": "event"
    },
    {
      "anonymous": false,
      "inputs": [
        {
          "indexed": false,
          "internalType": "uint256",
          "name": "orderId",
          "type": "uint256"
        }
      ],
      "name": "OrderRemoval",
      "type": "event"
    },
    {
      "anonymous": false,
      "inputs": [
        {
          "indexed": false,
          "internalType": "uint256",
          "name": "orderId",
          "type": "uint256"
        },
        {
          "indexed": false,
          "internalType": "address",
          "name": "trader",
          "type": "address"
        },
        {
          "indexed": false,
          "internalType": "enum DexBase.Side",
          "name": "side",
          "type": "uint8"
        },
        {
          "indexed": false,
          "internalType": "uint256",
          "name": "tokenId",
          "type": "uint256"
        },
        {
          "indexed": false,
          "internalType": "uint256",
          "name": "amount",
          "type": "uint256"
        },
        {
          "indexed": false,
          "internalType": "uint256",
          "name": "filled",
          "type": "uint256"
        },
        {
          "indexed": false,
          "internalType": "uint256",
          "name": "price",
          "type": "uint256"
        },
        {
          "indexed": false,
          "internalType": "uint256",
          "name": "timestamp",
          "type": "uint256"
        }
      ],
      "name": "OrderUpsert",
      "type": "event"
    },
    {
      "anonymous": false,
      "inputs": [
        {
          "indexed": true,
          "internalType": "address",
          "name": "previousOwner",
          "type": "address"
        },
        {
          "indexed": true,
          "internalType": "address",
          "name": "newOwner",
          "type": "address"
        }
      ],
      "name": "OwnershipTransferred",
      "type": "event"
    },
    {
      "anonymous": false,
      "inputs": [
        {
          "indexed": false,
          "internalType": "address",
          "name": "account",
          "type": "address"
        }
      ],
      "name": "Paused",
      "type": "event"
    },
    {
      "anonymous": false,
      "inputs": [
        {
          "indexed": false,
          "internalType": "address",
          "name": "account",
          "type": "address"
        },
        {
          "indexed": false,
          "internalType": "uint256",
          "name": "tokenId",
          "type": "uint256"
        },
        {
          "indexed": false,
          "internalType": "uint256",
          "name": "sharesReservedBalance",
          "type": "uint256"
        }
      ],
      "name": "SharesReservedBalanceChange",
      "type": "event"
    },
    {
      "anonymous": false,
      "inputs": [
        {
          "indexed": false,
          "internalType": "address",
          "name": "account",
          "type": "address"
        }
      ],
      "name": "Unpaused",
      "type": "event"
    },
    {
      "inputs": [],
      "name": "__DexBase_init",
      "outputs": [],
      "stateMutability": "nonpayable",
      "type": "function"
    },
    {
      "inputs": [
        {
          "internalType": "uint256",
          "name": "tokenId",
          "type": "uint256"
        },
        {
          "internalType": "uint256",
          "name": "amount",
          "type": "uint256"
        },
        {
          "internalType": "uint256",
          "name": "price",
          "type": "uint256"
        },
        {
          "internalType": "enum DexBase.Side",
          "name": "side",
          "type": "uint8"
        }
      ],
      "name": "createLimitOrder",
      "outputs": [],
      "stateMutability": "nonpayable",
      "type": "function"
    },
    {
      "inputs": [
        {
          "internalType": "uint256",
          "name": "tokenId",
          "type": "uint256"
        },
        {
          "internalType": "uint256",
          "name": "amount",
          "type": "uint256"
        },
        {
          "internalType": "enum DexBase.Side",
          "name": "side",
          "type": "uint8"
        }
      ],
      "name": "createMarketOrder",
      "outputs": [],
      "stateMutability": "nonpayable",
      "type": "function"
    },
    {
      "inputs": [
        {
          "internalType": "uint256",
          "name": "tokenId",
          "type": "uint256"
        },
        {
          "internalType": "enum DexBase.Side",
          "name": "side",
          "type": "uint8"
        },
        {
          "internalType": "uint256",
          "name": "orderId",
          "type": "uint256"
        }
      ],
      "name": "deleteOrder",
      "outputs": [],
      "stateMutability": "nonpayable",
      "type": "function"
    },
    {
      "inputs": [],
      "name": "depositEth",
      "outputs": [],
      "stateMutability": "payable",
      "type": "function"
    },
    {
      "inputs": [],
      "name": "owner",
      "outputs": [
        {
          "internalType": "address",
          "name": "",
          "type": "address"
        }
      ],
      "stateMutability": "view",
      "type": "function"
    },
    {
      "inputs": [],
      "name": "pause",
      "outputs": [],
      "stateMutability": "nonpayable",
      "type": "function"
    },
    {
      "inputs": [],
      "name": "paused",
      "outputs": [
        {
          "internalType": "bool",
          "name": "",
          "type": "bool"
        }
      ],
      "stateMutability": "view",
      "type": "function"
    },
    {
      "inputs": [],
      "name": "renounceOwnership",
      "outputs": [],
      "stateMutability": "nonpayable",
      "type": "function"
    },
    {
      "inputs": [
        {
          "internalType": "address",
          "name": "nftFractionsRepositoryAddress",
          "type": "address"
        }
      ],
      "name": "setNftFractionsRepository",
      "outputs": [],
      "stateMutability": "nonpayable",
      "type": "function"
    },
    {
      "inputs": [
        {
          "internalType": "address",
          "name": "newOwner",
          "type": "address"
        }
      ],
      "name": "transferOwnership",
      "outputs": [],
      "stateMutability": "nonpayable",
      "type": "function"
    },
    {
      "inputs": [
        {
          "internalType": "uint256",
          "name": "amount",
          "type": "uint256"
        }
      ],
      "name": "withdrawEth",
      "outputs": [],
      "stateMutability": "nonpayable",
      "type": "function"
    },
    {
      "inputs": [],
      "name": "initialize",
      "outputs": [],
      "stateMutability": "nonpayable",
      "type": "function"
    }
  ],
  "bytecode": "0x608060405234801561001057600080fd5b50614dfd806100206000396000f3fe6080604052600436106100c25760003560e01c80638456cb591161007f578063b85b9e4011610059578063b85b9e40146101e7578063c311d049146101fe578063f2fde38b14610227578063fbe2767414610250576100c2565b80638456cb591461017c5780638da5cb5b146101935780639c793bac146101be576100c2565b80630bbf2085146100c7578063439370b1146100f057806354c0cde4146100fa5780635c975abb14610123578063715018a61461014e5780638129fc1c14610165575b600080fd5b3480156100d357600080fd5b506100ee60048036038101906100e99190614335565b610279565b005b6100f8611189565b005b34801561010657600080fd5b50610121600480360381019061011c91906142e6565b611272565b005b34801561012f57600080fd5b50610138612c06565b604051610145919061487f565b60405180910390f35b34801561015a57600080fd5b50610163612c1d565b005b34801561017157600080fd5b5061017a612d5a565b005b34801561018857600080fd5b50610191612e3b565b005b34801561019f57600080fd5b506101a8612ec1565b6040516101b591906147ac565b60405180910390f35b3480156101ca57600080fd5b506101e560048036038101906101e09190614297565b612eeb565b005b3480156101f357600080fd5b506101fc61362a565b005b34801561020a57600080fd5b5061022560048036038101906102209190614245565b61371b565b005b34801561023357600080fd5b5061024e600480360381019061024991906141f3565b61396e565b005b34801561025c57600080fd5b50610277600480360381019061027291906141f3565b613b1a565b005b83600060cf60009054906101000a900473ffffffffffffffffffffffffffffffffffffffff1673ffffffffffffffffffffffffffffffffffffffff166366d0330c836040518263ffffffff1660e01b81526004016102d79190614a1a565b602060405180830381600087803b1580156102f157600080fd5b505af1158015610305573d6000803e3d6000fd5b505050506040513d601f19601f82011682018060405250810190610329919061421c565b9050600073ffffffffffffffffffffffffffffffffffffffff168173ffffffffffffffffffffffffffffffffffffffff16141561039b576040517f08c379a0000000000000000000000000000000000000000000000000000000008152600401610392906149da565b60405180910390fd5b6103a3612c06565b156103e3576040517f08c379a00000000000000000000000000000000000000000000000000000000081526004016103da906149fa565b60405180910390fd5b60018081111561041c577f4e487b7100000000000000000000000000000000000000000000000000000000600052602160045260246000fd5b836001811115610455577f4e487b7100000000000000000000000000000000000000000000000000000000600052602160045260246000fd5b141561061657600060cf60009054906101000a900473ffffffffffffffffffffffffffffffffffffffff1673ffffffffffffffffffffffffffffffffffffffff1662fdd58e33896040518363ffffffff1660e01b81526004016104b992919061481f565b60206040518083038186803b1580156104d157600080fd5b505afa1580156104e5573d6000803e3d6000fd5b505050506040513d601f19601f82011682018060405250810190610509919061426e565b90508581101561054e576040517f08c379a00000000000000000000000000000000000000000000000000000000081526004016105459061497a565b60405180910390fd5b8560ce60003373ffffffffffffffffffffffffffffffffffffffff1673ffffffffffffffffffffffffffffffffffffffff168152602001908152602001600020600089815260200190815260200160002060008282546105ae9190614b53565b92505081905550610610338860ce60003373ffffffffffffffffffffffffffffffffffffffff1673ffffffffffffffffffffffffffffffffffffffff16815260200190815260200160002060008b815260200190815260200160002054613bda565b5061088d565b600060cf60009054906101000a900473ffffffffffffffffffffffffffffffffffffffff1673ffffffffffffffffffffffffffffffffffffffff166333d59207886040518263ffffffff1660e01b81526004016106739190614a1a565b602060405180830381600087803b15801561068d57600080fd5b505af11580156106a1573d6000803e3d6000fd5b505050506040513d601f19601f820116820180604052508101906106c5919061426e565b90508581101561070a576040517f08c379a00000000000000000000000000000000000000000000000000000000081526004016107019061499a565b60405180910390fd5b84866107169190614ba9565b60cc60003373ffffffffffffffffffffffffffffffffffffffff1673ffffffffffffffffffffffffffffffffffffffff1681526020019081526020016000205460cb60003373ffffffffffffffffffffffffffffffffffffffff1673ffffffffffffffffffffffffffffffffffffffff168152602001908152602001600020546107a09190614c03565b10156107e1576040517f08c379a00000000000000000000000000000000000000000000000000000000081526004016107d8906148fa565b60405180910390fd5b84866107ed9190614ba9565b60cc60003373ffffffffffffffffffffffffffffffffffffffff1673ffffffffffffffffffffffffffffffffffffffff168152602001908152602001600020600082825461083b9190614b53565b9250508190555061088b3360cc60003373ffffffffffffffffffffffffffffffffffffffff1673ffffffffffffffffffffffffffffffffffffffff16815260200190815260200160002054613c1a565b505b600060cd600088815260200190815260200160002060008560018111156108dd577f4e487b7100000000000000000000000000000000000000000000000000000000600052602160045260246000fd5b815260200190815260200160002090506108f760c9613c57565b600061090360c9613c6d565b9050816040518061010001604052808381526020013373ffffffffffffffffffffffffffffffffffffffff16815260200187600181111561096d577f4e487b7100000000000000000000000000000000000000000000000000000000600052602160045260246000fd5b81526020018a8152602001898152602001600081526020018881526020014281525090806001815401808255809150506001900390600052602060002090600702016000909190919091506000820151816000015560208201518160010160006101000a81548173ffffffffffffffffffffffffffffffffffffffff021916908373ffffffffffffffffffffffffffffffffffffffff16021790555060408201518160010160146101000a81548160ff02191690836001811115610a5a577f4e487b7100000000000000000000000000000000000000000000000000000000600052602160045260246000fd5b0217905550606082015181600201556080820151816003015560a0820151816004015560c0820151816005015560e082015181600601555050610aa48133878b8b60008c42613c7b565b600080838054905011610ab8576000610aca565b60018380549050610ac99190614c03565b5b90505b600081111561117e5760006001811115610b10577f4e487b7100000000000000000000000000000000000000000000000000000000600052602160045260246000fd5b866001811115610b49577f4e487b7100000000000000000000000000000000000000000000000000000000600052602160045260246000fd5b148015610bf55750828181548110610b8a577f4e487b7100000000000000000000000000000000000000000000000000000000600052603260045260246000fd5b90600052602060002090600702016005015483600183610baa9190614c03565b81548110610be1577f4e487b7100000000000000000000000000000000000000000000000000000000600052603260045260246000fd5b906000526020600020906007020160050154115b15610bff5761117e565b600180811115610c38577f4e487b7100000000000000000000000000000000000000000000000000000000600052602160045260246000fd5b866001811115610c71577f4e487b7100000000000000000000000000000000000000000000000000000000600052602160045260246000fd5b148015610d1d5750828181548110610cb2577f4e487b7100000000000000000000000000000000000000000000000000000000600052603260045260246000fd5b90600052602060002090600702016005015483600183610cd29190614c03565b81548110610d09577f4e487b7100000000000000000000000000000000000000000000000000000000600052603260045260246000fd5b906000526020600020906007020160050154105b15610d275761117e565b600083600183610d379190614c03565b81548110610d6e577f4e487b7100000000000000000000000000000000000000000000000000000000600052603260045260246000fd5b906000526020600020906007020160405180610100016040529081600082015481526020016001820160009054906101000a900473ffffffffffffffffffffffffffffffffffffffff1673ffffffffffffffffffffffffffffffffffffffff1673ffffffffffffffffffffffffffffffffffffffff1681526020016001820160149054906101000a900460ff166001811115610e33577f4e487b7100000000000000000000000000000000000000000000000000000000600052602160045260246000fd5b6001811115610e6b577f4e487b7100000000000000000000000000000000000000000000000000000000600052602160045260246000fd5b8152602001600282015481526020016003820154815260200160048201548152602001600582015481526020016006820154815250509050838281548110610edc577f4e487b7100000000000000000000000000000000000000000000000000000000600052603260045260246000fd5b906000526020600020906007020184600184610ef89190614c03565b81548110610f2f577f4e487b7100000000000000000000000000000000000000000000000000000000600052603260045260246000fd5b9060005260206000209060070201600082015481600001556001820160009054906101000a900473ffffffffffffffffffffffffffffffffffffffff168160010160006101000a81548173ffffffffffffffffffffffffffffffffffffffff021916908373ffffffffffffffffffffffffffffffffffffffff1602179055506001820160149054906101000a900460ff168160010160146101000a81548160ff0219169083600181111561100c577f4e487b7100000000000000000000000000000000000000000000000000000000600052602160045260246000fd5b0217905550600282015481600201556003820154816003015560048201548160040155600582015481600501556006820154816006015590505080848381548110611080577f4e487b7100000000000000000000000000000000000000000000000000000000600052603260045260246000fd5b90600052602060002090600702016000820151816000015560208201518160010160006101000a81548173ffffffffffffffffffffffffffffffffffffffff021916908373ffffffffffffffffffffffffffffffffffffffff16021790555060408201518160010160146101000a81548160ff02191690836001811115611130577f4e487b7100000000000000000000000000000000000000000000000000000000600052602160045260246000fd5b0217905550606082015181600201556080820151816003015560a0820151816004015560c0820151816005015560e08201518160060155905050818061117590614ca4565b92505050610acd565b505050505050505050565b611191612c06565b156111d1576040517f08c379a00000000000000000000000000000000000000000000000000000000081526004016111c8906149fa565b60405180910390fd5b3460cb60003373ffffffffffffffffffffffffffffffffffffffff1673ffffffffffffffffffffffffffffffffffffffff16815260200190815260200160002060008282546112209190614b53565b925050819055506112703360cb60003373ffffffffffffffffffffffffffffffffffffffff1673ffffffffffffffffffffffffffffffffffffffff16815260200190815260200160002054613cca565b565b82600060cf60009054906101000a900473ffffffffffffffffffffffffffffffffffffffff1673ffffffffffffffffffffffffffffffffffffffff166366d0330c836040518263ffffffff1660e01b81526004016112d09190614a1a565b602060405180830381600087803b1580156112ea57600080fd5b505af11580156112fe573d6000803e3d6000fd5b505050506040513d601f19601f82011682018060405250810190611322919061421c565b9050600073ffffffffffffffffffffffffffffffffffffffff168173ffffffffffffffffffffffffffffffffffffffff161415611394576040517f08c379a000000000000000000000000000000000000000000000000000000000815260040161138b906149da565b60405180910390fd5b61139c612c06565b156113dc576040517f08c379a00000000000000000000000000000000000000000000000000000000081526004016113d3906149fa565b60405180910390fd5b600180811115611415577f4e487b7100000000000000000000000000000000000000000000000000000000600052602160045260246000fd5b83600181111561144e577f4e487b7100000000000000000000000000000000000000000000000000000000600052602160045260246000fd5b141561154957600060cf60009054906101000a900473ffffffffffffffffffffffffffffffffffffffff1673ffffffffffffffffffffffffffffffffffffffff1662fdd58e33886040518363ffffffff1660e01b81526004016114b292919061481f565b60206040518083038186803b1580156114ca57600080fd5b505afa1580156114de573d6000803e3d6000fd5b505050506040513d601f19601f82011682018060405250810190611502919061426e565b905084811015611547576040517f08c379a000000000000000000000000000000000000000000000000000000000815260040161153e9061497a565b60405180910390fd5b505b600060cd60008781526020019081526020016000206000806001811115611599577f4e487b7100000000000000000000000000000000000000000000000000000000600052602160045260246000fd5b8660018111156115d2577f4e487b7100000000000000000000000000000000000000000000000000000000600052602160045260246000fd5b146115de5760006115e1565b60015b6001811115611619577f4e487b7100000000000000000000000000000000000000000000000000000000600052602160045260246000fd5b815260200190815260200160002090506000808690505b8280549050821080156116435750600081115b15612856576000838381548110611683577f4e487b7100000000000000000000000000000000000000000000000000000000600052603260045260246000fd5b9060005260206000209060070201600401548484815481106116ce577f4e487b7100000000000000000000000000000000000000000000000000000000600052603260045260246000fd5b9060005260206000209060070201600301546116ea9190614c03565b905060008183116116fb57826116fd565b815b9050808361170b9190614c03565b925080858581548110611747577f4e487b7100000000000000000000000000000000000000000000000000000000600052603260045260246000fd5b9060005260206000209060070201600401546117639190614b53565b85858154811061179c577f4e487b7100000000000000000000000000000000000000000000000000000000600052603260045260246000fd5b9060005260206000209060070201600401819055506117bb60ca613c57565b60006117c760ca613c6d565b90506118d781878781548110611806577f4e487b7100000000000000000000000000000000000000000000000000000000600052603260045260246000fd5b9060005260206000209060070201600001548d898981548110611852577f4e487b7100000000000000000000000000000000000000000000000000000000600052603260045260246000fd5b906000526020600020906007020160010160009054906101000a900473ffffffffffffffffffffffffffffffffffffffff1633878c8c815481106118bf577f4e487b7100000000000000000000000000000000000000000000000000000000600052603260045260246000fd5b90600052602060002090600702016005015442613d07565b611b1a868681548110611913577f4e487b7100000000000000000000000000000000000000000000000000000000600052603260045260246000fd5b90600052602060002090600702016000015487878154811061195e577f4e487b7100000000000000000000000000000000000000000000000000000000600052603260045260246000fd5b906000526020600020906007020160010160009054906101000a900473ffffffffffffffffffffffffffffffffffffffff168888815481106119c9577f4e487b7100000000000000000000000000000000000000000000000000000000600052603260045260246000fd5b906000526020600020906007020160010160149054906101000a900460ff16898981548110611a21577f4e487b7100000000000000000000000000000000000000000000000000000000600052603260045260246000fd5b9060005260206000209060070201600201548a8a81548110611a6c577f4e487b7100000000000000000000000000000000000000000000000000000000600052603260045260246000fd5b9060005260206000209060070201600301548b8b81548110611ab7577f4e487b7100000000000000000000000000000000000000000000000000000000600052603260045260246000fd5b9060005260206000209060070201600401548c8c81548110611b02577f4e487b7100000000000000000000000000000000000000000000000000000000600052603260045260246000fd5b90600052602060002090600702016005015442613c7b565b600180811115611b53577f4e487b7100000000000000000000000000000000000000000000000000000000600052602160045260246000fd5b896001811115611b8c577f4e487b7100000000000000000000000000000000000000000000000000000000600052602160045260246000fd5b14156120825760cf60009054906101000a900473ffffffffffffffffffffffffffffffffffffffff1673ffffffffffffffffffffffffffffffffffffffff1663605105f033888881548110611c0a577f4e487b7100000000000000000000000000000000000000000000000000000000600052603260045260246000fd5b906000526020600020906007020160010160009054906101000a900473ffffffffffffffffffffffffffffffffffffffff168e866040518563ffffffff1660e01b8152600401611c5d94939291906147c7565b600060405180830381600087803b158015611c7757600080fd5b505af1158015611c8b573d6000803e3d6000fd5b5050505081868681548110611cc9577f4e487b7100000000000000000000000000000000000000000000000000000000600052603260045260246000fd5b906000526020600020906007020160050154611ce59190614ba9565b60cb60003373ffffffffffffffffffffffffffffffffffffffff1673ffffffffffffffffffffffffffffffffffffffff1681526020019081526020016000206000828254611d339190614b53565b9250508190555081868681548110611d74577f4e487b7100000000000000000000000000000000000000000000000000000000600052603260045260246000fd5b906000526020600020906007020160050154611d909190614ba9565b60cb6000888881548110611dcd577f4e487b7100000000000000000000000000000000000000000000000000000000600052603260045260246000fd5b906000526020600020906007020160010160009054906101000a900473ffffffffffffffffffffffffffffffffffffffff1673ffffffffffffffffffffffffffffffffffffffff1673ffffffffffffffffffffffffffffffffffffffff1681526020019081526020016000206000828254611e489190614c03565b9250508190555081868681548110611e89577f4e487b7100000000000000000000000000000000000000000000000000000000600052603260045260246000fd5b906000526020600020906007020160050154611ea59190614ba9565b60cc6000888881548110611ee2577f4e487b7100000000000000000000000000000000000000000000000000000000600052603260045260246000fd5b906000526020600020906007020160010160009054906101000a900473ffffffffffffffffffffffffffffffffffffffff1673ffffffffffffffffffffffffffffffffffffffff1673ffffffffffffffffffffffffffffffffffffffff1681526020019081526020016000206000828254611f5d9190614c03565b92505081905550612081868681548110611fa0577f4e487b7100000000000000000000000000000000000000000000000000000000600052603260045260246000fd5b906000526020600020906007020160010160009054906101000a900473ffffffffffffffffffffffffffffffffffffffff1660cc600089898154811061200f577f4e487b7100000000000000000000000000000000000000000000000000000000600052603260045260246000fd5b906000526020600020906007020160010160009054906101000a900473ffffffffffffffffffffffffffffffffffffffff1673ffffffffffffffffffffffffffffffffffffffff1673ffffffffffffffffffffffffffffffffffffffff16815260200190815260200160002054613c1a565b5b600060018111156120bc577f4e487b7100000000000000000000000000000000000000000000000000000000600052602160045260246000fd5b8960018111156120f5577f4e487b7100000000000000000000000000000000000000000000000000000000600052602160045260246000fd5b14156126da5781868681548110612135577f4e487b7100000000000000000000000000000000000000000000000000000000600052603260045260246000fd5b9060005260206000209060070201600501546121519190614ba9565b60cc60003373ffffffffffffffffffffffffffffffffffffffff1673ffffffffffffffffffffffffffffffffffffffff1681526020019081526020016000205460cb60003373ffffffffffffffffffffffffffffffffffffffff1673ffffffffffffffffffffffffffffffffffffffff168152602001908152602001600020546121db9190614c03565b101561221c576040517f08c379a0000000000000000000000000000000000000000000000000000000008152600401612213906148fa565b60405180910390fd5b60cf60009054906101000a900473ffffffffffffffffffffffffffffffffffffffff1673ffffffffffffffffffffffffffffffffffffffff1663605105f0878781548110612293577f4e487b7100000000000000000000000000000000000000000000000000000000600052603260045260246000fd5b906000526020600020906007020160010160009054906101000a900473ffffffffffffffffffffffffffffffffffffffff16338e866040518563ffffffff1660e01b81526004016122e794939291906147c7565b600060405180830381600087803b15801561230157600080fd5b505af1158015612315573d6000803e3d6000fd5b5050505081868681548110612353577f4e487b7100000000000000000000000000000000000000000000000000000000600052603260045260246000fd5b90600052602060002090600702016005015461236f9190614ba9565b60cb60003373ffffffffffffffffffffffffffffffffffffffff1673ffffffffffffffffffffffffffffffffffffffff16815260200190815260200160002060008282546123bd9190614c03565b92505081905550818686815481106123fe577f4e487b7100000000000000000000000000000000000000000000000000000000600052603260045260246000fd5b90600052602060002090600702016005015461241a9190614ba9565b60cb6000888881548110612457577f4e487b7100000000000000000000000000000000000000000000000000000000600052603260045260246000fd5b906000526020600020906007020160010160009054906101000a900473ffffffffffffffffffffffffffffffffffffffff1673ffffffffffffffffffffffffffffffffffffffff1673ffffffffffffffffffffffffffffffffffffffff16815260200190815260200160002060008282546124d29190614b53565b925050819055508160ce6000888881548110612517577f4e487b7100000000000000000000000000000000000000000000000000000000600052603260045260246000fd5b906000526020600020906007020160010160009054906101000a900473ffffffffffffffffffffffffffffffffffffffff1673ffffffffffffffffffffffffffffffffffffffff1673ffffffffffffffffffffffffffffffffffffffff16815260200190815260200160002060008d815260200190815260200160002060008282546125a39190614c03565b925050819055506126d98686815481106125e6577f4e487b7100000000000000000000000000000000000000000000000000000000600052603260045260246000fd5b906000526020600020906007020160010160009054906101000a900473ffffffffffffffffffffffffffffffffffffffff168c60ce60008a8a81548110612656577f4e487b7100000000000000000000000000000000000000000000000000000000600052603260045260246000fd5b906000526020600020906007020160010160009054906101000a900473ffffffffffffffffffffffffffffffffffffffff1673ffffffffffffffffffffffffffffffffffffffff1673ffffffffffffffffffffffffffffffffffffffff16815260200190815260200160002060008f815260200190815260200160002054613bda565b5b6127233360cb60003373ffffffffffffffffffffffffffffffffffffffff1673ffffffffffffffffffffffffffffffffffffffff16815260200190815260200160002054613cca565b61284086868154811061275f577f4e487b7100000000000000000000000000000000000000000000000000000000600052603260045260246000fd5b906000526020600020906007020160010160009054906101000a900473ffffffffffffffffffffffffffffffffffffffff1660cb60008989815481106127ce577f4e487b7100000000000000000000000000000000000000000000000000000000600052603260045260246000fd5b906000526020600020906007020160010160009054906101000a900473ffffffffffffffffffffffffffffffffffffffff1673ffffffffffffffffffffffffffffffffffffffff1673ffffffffffffffffffffffffffffffffffffffff16815260200190815260200160002054613cca565b848061284b90614cce565b955050505050611630565b600091505b82805490508210801561290157508282815481106128a2577f4e487b7100000000000000000000000000000000000000000000000000000000600052603260045260246000fd5b9060005260206000209060070201600301548383815481106128ed577f4e487b7100000000000000000000000000000000000000000000000000000000600052603260045260246000fd5b906000526020600020906007020160040154145b15612bfc57612959838381548110612942577f4e487b7100000000000000000000000000000000000000000000000000000000600052603260045260246000fd5b906000526020600020906007020160000154613d56565b60008290505b600184805490506129709190614c03565b811015612b2d57836001826129859190614b53565b815481106129bc577f4e487b7100000000000000000000000000000000000000000000000000000000600052603260045260246000fd5b9060005260206000209060070201848281548110612a03577f4e487b7100000000000000000000000000000000000000000000000000000000600052603260045260246000fd5b9060005260206000209060070201600082015481600001556001820160009054906101000a900473ffffffffffffffffffffffffffffffffffffffff168160010160006101000a81548173ffffffffffffffffffffffffffffffffffffffff021916908373ffffffffffffffffffffffffffffffffffffffff1602179055506001820160149054906101000a900460ff168160010160146101000a81548160ff02191690836001811115612ae0577f4e487b7100000000000000000000000000000000000000000000000000000000600052602160045260246000fd5b021790555060028201548160020155600382015481600301556004820154816004015560058201548160050155600682015481600601559050508080612b2590614cce565b91505061295f565b5082805480612b65577f4e487b7100000000000000000000000000000000000000000000000000000000600052603160045260246000fd5b60019003818190600052602060002090600702016000808201600090556001820160006101000a81549073ffffffffffffffffffffffffffffffffffffffff02191690556001820160146101000a81549060ff021916905560028201600090556003820160009055600482016000905560058201600090556006820160009055505090558180612bf490614cce565b92505061285b565b5050505050505050565b6000603360009054906101000a900460ff16905090565b612c25613d90565b73ffffffffffffffffffffffffffffffffffffffff16612c43612ec1565b73ffffffffffffffffffffffffffffffffffffffff1614612c99576040517f08c379a0000000000000000000000000000000000000000000000000000000008152600401612c909061491a565b60405180910390fd5b600073ffffffffffffffffffffffffffffffffffffffff16606560009054906101000a900473ffffffffffffffffffffffffffffffffffffffff1673ffffffffffffffffffffffffffffffffffffffff167f8be0079c531659141344cd1fd0a4f28419497f9722a3daafe3b4186f6b6457e060405160405180910390a36000606560006101000a81548173ffffffffffffffffffffffffffffffffffffffff021916908373ffffffffffffffffffffffffffffffffffffffff160217905550565b600060019054906101000a900460ff1680612d80575060008054906101000a900460ff16155b612dbf576040517f08c379a0000000000000000000000000000000000000000000000000000000008152600401612db6906148da565b60405180910390fd5b60008060019054906101000a900460ff161590508015612e0f576001600060016101000a81548160ff02191690831515021790555060016000806101000a81548160ff0219169083151502179055505b612e1761362a565b8015612e385760008060016101000a81548160ff0219169083151502179055505b50565b612e43613d90565b73ffffffffffffffffffffffffffffffffffffffff16612e61612ec1565b73ffffffffffffffffffffffffffffffffffffffff1614612eb7576040517f08c379a0000000000000000000000000000000000000000000000000000000008152600401612eae9061491a565b60405180910390fd5b612ebf613d98565b565b6000606560009054906101000a900473ffffffffffffffffffffffffffffffffffffffff16905090565b600060cd60008581526020019081526020016000206000846001811115612f3b577f4e487b7100000000000000000000000000000000000000000000000000000000600052602160045260246000fd5b8152602001908152602001600020905060005b81805490508110156136235782828281548110612f94577f4e487b7100000000000000000000000000000000000000000000000000000000600052603260045260246000fd5b906000526020600020906007020160000154141561361057818181548110612fe5577f4e487b7100000000000000000000000000000000000000000000000000000000600052603260045260246000fd5b906000526020600020906007020160010160009054906101000a900473ffffffffffffffffffffffffffffffffffffffff1673ffffffffffffffffffffffffffffffffffffffff163373ffffffffffffffffffffffffffffffffffffffff1614613084576040517f08c379a000000000000000000000000000000000000000000000000000000000815260040161307b9061495a565b60405180910390fd5b600060018111156130be577f4e487b7100000000000000000000000000000000000000000000000000000000600052602160045260246000fd5b8282815481106130f7577f4e487b7100000000000000000000000000000000000000000000000000000000600052603260045260246000fd5b906000526020600020906007020160010160149054906101000a900460ff16600181111561314e577f4e487b7100000000000000000000000000000000000000000000000000000000600052602160045260246000fd5b14156132975781818154811061318d577f4e487b7100000000000000000000000000000000000000000000000000000000600052603260045260246000fd5b9060005260206000209060070201600501548282815481106131d8577f4e487b7100000000000000000000000000000000000000000000000000000000600052603260045260246000fd5b9060005260206000209060070201600301546131f49190614ba9565b60cc60003373ffffffffffffffffffffffffffffffffffffffff1673ffffffffffffffffffffffffffffffffffffffff16815260200190815260200160002060008282546132429190614c03565b925050819055506132923360cc60003373ffffffffffffffffffffffffffffffffffffffff1673ffffffffffffffffffffffffffffffffffffffff16815260200190815260200160002054613c1a565b6133a4565b8181815481106132d0577f4e487b7100000000000000000000000000000000000000000000000000000000600052603260045260246000fd5b90600052602060002090600702016003015460ce60003373ffffffffffffffffffffffffffffffffffffffff1673ffffffffffffffffffffffffffffffffffffffff168152602001908152602001600020600087815260200190815260200160002060008282546133419190614c03565b925050819055506133a3338660ce60003373ffffffffffffffffffffffffffffffffffffffff1673ffffffffffffffffffffffffffffffffffffffff168152602001908152602001600020600089815260200190815260200160002054613bda565b5b81600183805490506133b69190614c03565b815481106133ed577f4e487b7100000000000000000000000000000000000000000000000000000000600052603260045260246000fd5b9060005260206000209060070201828281548110613434577f4e487b7100000000000000000000000000000000000000000000000000000000600052603260045260246000fd5b9060005260206000209060070201600082015481600001556001820160009054906101000a900473ffffffffffffffffffffffffffffffffffffffff168160010160006101000a81548173ffffffffffffffffffffffffffffffffffffffff021916908373ffffffffffffffffffffffffffffffffffffffff1602179055506001820160149054906101000a900460ff168160010160146101000a81548160ff02191690836001811115613511577f4e487b7100000000000000000000000000000000000000000000000000000000600052602160045260246000fd5b0217905550600282015481600201556003820154816003015560048201548160040155600582015481600501556006820154816006015590505081805480613582577f4e487b7100000000000000000000000000000000000000000000000000000000600052603160045260246000fd5b60019003818190600052602060002090600702016000808201600090556001820160006101000a81549073ffffffffffffffffffffffffffffffffffffffff02191690556001820160146101000a81549060ff0219169055600282016000905560038201600090556004820160009055600582016000905560068201600090555050905561360f83613d56565b5b808061361b90614cce565b915050612f4e565b5050505050565b600060019054906101000a900460ff1680613650575060008054906101000a900460ff16155b61368f576040517f08c379a0000000000000000000000000000000000000000000000000000000008152600401613686906148da565b60405180910390fd5b60008060019054906101000a900460ff1615905080156136df576001600060016101000a81548160ff02191690831515021790555060016000806101000a81548160ff0219169083151502179055505b6136e7613e3b565b6136ef613f14565b6136f7614008565b80156137185760008060016101000a81548160ff0219169083151502179055505b50565b60026097541415613761576040517f08c379a0000000000000000000000000000000000000000000000000000000008152600401613758906149ba565b60405180910390fd5b6002609781905550613771612c06565b156137b1576040517f08c379a00000000000000000000000000000000000000000000000000000000081526004016137a8906149fa565b60405180910390fd5b8060cc60003373ffffffffffffffffffffffffffffffffffffffff1673ffffffffffffffffffffffffffffffffffffffff1681526020019081526020016000205460cb60003373ffffffffffffffffffffffffffffffffffffffff1673ffffffffffffffffffffffffffffffffffffffff1681526020019081526020016000205461383c9190614c03565b101561387d576040517f08c379a00000000000000000000000000000000000000000000000000000000081526004016138749061493a565b60405180910390fd5b8060cb60003373ffffffffffffffffffffffffffffffffffffffff1673ffffffffffffffffffffffffffffffffffffffff16815260200190815260200160002060008282546138cc9190614c03565b925050819055503373ffffffffffffffffffffffffffffffffffffffff166108fc829081150290604051600060405180830381858888f19350505050158015613919573d6000803e3d6000fd5b506139633360cb60003373ffffffffffffffffffffffffffffffffffffffff1673ffffffffffffffffffffffffffffffffffffffff16815260200190815260200160002054613cca565b600160978190555050565b613976613d90565b73ffffffffffffffffffffffffffffffffffffffff16613994612ec1565b73ffffffffffffffffffffffffffffffffffffffff16146139ea576040517f08c379a00000000000000000000000000000000000000000000000000000000081526004016139e19061491a565b60405180910390fd5b600073ffffffffffffffffffffffffffffffffffffffff168173ffffffffffffffffffffffffffffffffffffffff161415613a5a576040517f08c379a0000000000000000000000000000000000000000000000000000000008152600401613a519061489a565b60405180910390fd5b8073ffffffffffffffffffffffffffffffffffffffff16606560009054906101000a900473ffffffffffffffffffffffffffffffffffffffff1673ffffffffffffffffffffffffffffffffffffffff167f8be0079c531659141344cd1fd0a4f28419497f9722a3daafe3b4186f6b6457e060405160405180910390a380606560006101000a81548173ffffffffffffffffffffffffffffffffffffffff021916908373ffffffffffffffffffffffffffffffffffffffff16021790555050565b613b22613d90565b73ffffffffffffffffffffffffffffffffffffffff16613b40612ec1565b73ffffffffffffffffffffffffffffffffffffffff1614613b96576040517f08c379a0000000000000000000000000000000000000000000000000000000008152600401613b8d9061491a565b60405180910390fd5b8060cf60006101000a81548173ffffffffffffffffffffffffffffffffffffffff021916908373ffffffffffffffffffffffffffffffffffffffff16021790555050565b7f0900e4995c14b4dddd66912896cf782669558020f363ce2c94a3912722a9c925838383604051613c0d93929190614848565b60405180910390a1505050565b7fb486a8060a6238f98a4851b9c98b78fcd1b052b434dad5b30dc3ca31063df8738282604051613c4b92919061481f565b60405180910390a15050565b6001816000016000828254019250508190555050565b600081600001549050919050565b7f288076ee5e10de6c038192ef83911bfe6b347ecb651d2f6035a1a4d1726084428888888888888888604051613cb8989796959493929190614a35565b60405180910390a15050505050505050565b7f702c3ef9c38697b937aef436b7d6a53cff9a6d4d47aad60c2d14983e931da3cc8282604051613cfb92919061481f565b60405180910390a15050565b7fb845d1268702d27ff6f56722cc54204649b096d86c120f1469bd7c446049c01d8888888888888888604051613d44989796959493929190614ab3565b60405180910390a15050505050505050565b7f4e90531decf11ba7b2cf9c19322f06d9fea54a3707f8d71bf678fdfdfa20f57a81604051613d859190614a1a565b60405180910390a150565b600033905090565b613da0612c06565b15613de0576040517f08c379a0000000000000000000000000000000000000000000000000000000008152600401613dd7906148ba565b60405180910390fd5b6001603360006101000a81548160ff0219169083151502179055507f62e78cea01bee320cd4e420270b5ea74000d11b0c9f74754ebdbfc544b05a258613e24613d90565b604051613e3191906147ac565b60405180910390a1565b600060019054906101000a900460ff1680613e61575060008054906101000a900460ff16155b613ea0576040517f08c379a0000000000000000000000000000000000000000000000000000000008152600401613e97906148da565b60405180910390fd5b60008060019054906101000a900460ff161590508015613ef0576001600060016101000a81548160ff02191690831515021790555060016000806101000a81548160ff0219169083151502179055505b8015613f115760008060016101000a81548160ff0219169083151502179055505b50565b600060019054906101000a900460ff1680613f3a575060008054906101000a900460ff16155b613f79576040517f08c379a0000000000000000000000000000000000000000000000000000000008152600401613f70906148da565b60405180910390fd5b60008060019054906101000a900460ff161590508015613fc9576001600060016101000a81548160ff02191690831515021790555060016000806101000a81548160ff0219169083151502179055505b6000603360006101000a81548160ff02191690831515021790555080156140055760008060016101000a81548160ff0219169083151502179055505b50565b600060019054906101000a900460ff168061402e575060008054906101000a900460ff16155b61406d576040517f08c379a0000000000000000000000000000000000000000000000000000000008152600401614064906148da565b60405180910390fd5b60008060019054906101000a900460ff1615905080156140bd576001600060016101000a81548160ff02191690831515021790555060016000806101000a81548160ff0219169083151502179055505b60006140c7613d90565b905080606560006101000a81548173ffffffffffffffffffffffffffffffffffffffff021916908373ffffffffffffffffffffffffffffffffffffffff1602179055508073ffffffffffffffffffffffffffffffffffffffff16600073ffffffffffffffffffffffffffffffffffffffff167f8be0079c531659141344cd1fd0a4f28419497f9722a3daafe3b4186f6b6457e060405160405180910390a35080156141875760008060016101000a81548160ff0219169083151502179055505b50565b60008135905061419981614d89565b92915050565b6000815190506141ae81614d89565b92915050565b6000813590506141c381614da0565b92915050565b6000813590506141d881614db0565b92915050565b6000815190506141ed81614db0565b92915050565b60006020828403121561420557600080fd5b60006142138482850161418a565b91505092915050565b60006020828403121561422e57600080fd5b600061423c8482850161419f565b91505092915050565b60006020828403121561425757600080fd5b6000614265848285016141c9565b91505092915050565b60006020828403121561428057600080fd5b600061428e848285016141de565b91505092915050565b6000806000606084860312156142ac57600080fd5b60006142ba868287016141c9565b93505060206142cb868287016141b4565b92505060406142dc868287016141c9565b9150509250925092565b6000806000606084860312156142fb57600080fd5b6000614309868287016141c9565b935050602061431a868287016141c9565b925050604061432b868287016141b4565b9150509250925092565b6000806000806080858703121561434b57600080fd5b6000614359878288016141c9565b945050602061436a878288016141c9565b935050604061437b878288016141c9565b925050606061438c878288016141b4565b91505092959194509250565b6143a181614c37565b82525050565b6143b081614c49565b82525050565b6143bf81614c92565b82525050565b60006143d2602683614b42565b91507f4f776e61626c653a206e6577206f776e657220697320746865207a65726f206160008301527f64647265737300000000000000000000000000000000000000000000000000006020830152604082019050919050565b6000614438601083614b42565b91507f5061757361626c653a20706175736564000000000000000000000000000000006000830152602082019050919050565b6000614478602e83614b42565b91507f496e697469616c697a61626c653a20636f6e747261637420697320616c72656160008301527f647920696e697469616c697a65640000000000000000000000000000000000006020830152604082019050919050565b60006144de601383614b42565b91507f6574682062616c616e636520746f6f206c6f77000000000000000000000000006000830152602082019050919050565b600061451e602083614b42565b91507f4f776e61626c653a2063616c6c6572206973206e6f7420746865206f776e65726000830152602082019050919050565b600061455e601983614b42565b91507f4554482062616c616e6365206973206e6f7420656e6f756768000000000000006000830152602082019050919050565b600061459e602483614b42565b91507f4f6e6c7920746865207472616465722063616e2064656c65746520686973206f60008301527f72646572000000000000000000000000000000000000000000000000000000006020830152604082019050919050565b6000614604600083614b31565b9150600082019050919050565b600061461e602983614b42565b91507f6d6573736167652073656e646572277320746f6b656e2062616c616e6365206960008301527f7320746f6f206c6f7700000000000000000000000000000000000000000000006020830152604082019050919050565b6000614684603883614b42565b91507f746f74616c20616d6f756e74206f66206672616374696f6e73206973206c6f7760008301527f6572207468616e2074686520676976656e20616d6f756e7400000000000000006020830152604082019050919050565b60006146ea601f83614b42565b91507f5265656e7472616e637947756172643a207265656e7472616e742063616c6c006000830152602082019050919050565b600061472a601983614b42565b91507f7468697320746f6b656e20646f6573206e6f74206578697374000000000000006000830152602082019050919050565b600061476a601883614b42565b91507f4e6f7420616c6c6f776564207768696c652070617573656400000000000000006000830152602082019050919050565b6147a681614c88565b82525050565b60006020820190506147c16000830184614398565b92915050565b600060a0820190506147dc6000830187614398565b6147e96020830186614398565b6147f6604083018561479d565b614803606083018461479d565b8181036080830152614814816145f7565b905095945050505050565b60006040820190506148346000830185614398565b614841602083018461479d565b9392505050565b600060608201905061485d6000830186614398565b61486a602083018561479d565b614877604083018461479d565b949350505050565b600060208201905061489460008301846143a7565b92915050565b600060208201905081810360008301526148b3816143c5565b9050919050565b600060208201905081810360008301526148d38161442b565b9050919050565b600060208201905081810360008301526148f38161446b565b9050919050565b60006020820190508181036000830152614913816144d1565b9050919050565b6000602082019050818103600083015261493381614511565b9050919050565b6000602082019050818103600083015261495381614551565b9050919050565b6000602082019050818103600083015261497381614591565b9050919050565b6000602082019050818103600083015261499381614611565b9050919050565b600060208201905081810360008301526149b381614677565b9050919050565b600060208201905081810360008301526149d3816146dd565b9050919050565b600060208201905081810360008301526149f38161471d565b9050919050565b60006020820190508181036000830152614a138161475d565b9050919050565b6000602082019050614a2f600083018461479d565b92915050565b600061010082019050614a4b600083018b61479d565b614a58602083018a614398565b614a6560408301896143b6565b614a72606083018861479d565b614a7f608083018761479d565b614a8c60a083018661479d565b614a9960c083018561479d565b614aa660e083018461479d565b9998505050505050505050565b600061010082019050614ac9600083018b61479d565b614ad6602083018a61479d565b614ae3604083018961479d565b614af06060830188614398565b614afd6080830187614398565b614b0a60a083018661479d565b614b1760c083018561479d565b614b2460e083018461479d565b9998505050505050505050565b600082825260208201905092915050565b600082825260208201905092915050565b6000614b5e82614c88565b9150614b6983614c88565b9250827fffffffffffffffffffffffffffffffffffffffffffffffffffffffffffffffff03821115614b9e57614b9d614d17565b5b828201905092915050565b6000614bb482614c88565b9150614bbf83614c88565b9250817fffffffffffffffffffffffffffffffffffffffffffffffffffffffffffffffff0483118215151615614bf857614bf7614d17565b5b828202905092915050565b6000614c0e82614c88565b9150614c1983614c88565b925082821015614c2c57614c2b614d17565b5b828203905092915050565b6000614c4282614c68565b9050919050565b60008115159050919050565b6000819050614c6382614d75565b919050565b600073ffffffffffffffffffffffffffffffffffffffff82169050919050565b6000819050919050565b6000614c9d82614c55565b9050919050565b6000614caf82614c88565b91506000821415614cc357614cc2614d17565b5b600182039050919050565b6000614cd982614c88565b91507fffffffffffffffffffffffffffffffffffffffffffffffffffffffffffffffff821415614d0c57614d0b614d17565b5b600182019050919050565b7f4e487b7100000000000000000000000000000000000000000000000000000000600052601160045260246000fd5b7f4e487b7100000000000000000000000000000000000000000000000000000000600052602160045260246000fd5b60028110614d8657614d85614d46565b5b50565b614d9281614c37565b8114614d9d57600080fd5b50565b60028110614dad57600080fd5b50565b614db981614c88565b8114614dc457600080fd5b5056fea2646970667358221220066a3418403909ed3532cef5ab94eef501f5c542728073012284c7e18889921d64736f6c63430008000033",
  "immutableReferences": {},
  "source": "// SPDX-License-Identifier: MIT\n\npragma solidity ^0.8.0;\n\nimport \"@openzeppelin/contracts-upgradeable/utils/CountersUpgradeable.sol\";\nimport \"./DexBase.sol\";\n\ncontract MaticDex is DexBase {\n    using CountersUpgradeable for CountersUpgradeable.Counter;\n\n    event OrderUpsert(\n        uint256 orderId,\n        address trader,\n        Side side,\n        uint256 tokenId,\n        uint256 amount,\n        uint256 filled,\n        uint256 price,\n        uint256 timestamp\n    );\n\n    event OrderRemoval(uint256 orderId);\n\n    event NewTrade(\n        uint256 tradeId,\n        uint256 orderId,\n        uint256 tokenId,\n        address trader1,\n        address trader2,\n        uint256 amount,\n        uint256 price,\n        uint256 date\n    );\n\n    event EthBalanceChange(address account, uint256 balance);\n\n    event EthReservedBalanceChange(address account, uint256 balance);\n\n    event SharesReservedBalanceChange(\n        address account,\n        uint256 tokenId,\n        uint256 sharesReservedBalance\n    );\n\n    CountersUpgradeable.Counter private _ids;\n\n    function initialize() public initializer {\n        __DexBase_init();\n    }\n\n    function _onOrderUpsert(\n        uint256 orderId,\n        address trader,\n        Side side,\n        uint256 tokenId,\n        uint256 amount,\n        uint256 filled,\n        uint256 price,\n        uint256 timestamp\n    ) internal override {\n        emit OrderUpsert(\n            orderId,\n            trader,\n            side,\n            tokenId,\n            amount,\n            filled,\n            price,\n            timestamp\n        );\n    }\n\n    function _onOrderRemoval(uint256 orderId) internal override {\n        emit OrderRemoval(orderId);\n    }\n\n    function _onTradeExecution(\n        uint256 tradeId,\n        uint256 orderId,\n        uint256 tokenId,\n        address trader1,\n        address trader2,\n        uint256 matchedAmount,\n        uint256 price,\n        uint256 timestamp\n    ) internal override {\n        emit NewTrade(\n            tradeId,\n            orderId,\n            tokenId,\n            trader1,\n            trader2,\n            matchedAmount,\n            price,\n            timestamp\n        );\n    }\n\n    function _onEthBalanceChange(address account, uint256 balance)\n        internal\n        override\n    {\n        emit EthBalanceChange(account, balance);\n    }\n\n    function _onEthReservedBalanceChange(\n        address account,\n        uint256 reservedBalance\n    ) internal override {\n        emit EthReservedBalanceChange(account, reservedBalance);\n    }\n\n    function _onSharesReservedChange(\n        address account,\n        uint256 tokenId,\n        uint256 sharesReservedBalance\n    ) internal override {\n        emit SharesReservedBalanceChange(\n            account,\n            tokenId,\n            sharesReservedBalance\n        );\n    }\n}\n",
  "sourcePath": "/Users/szabolcs/Documents/Personal/Szakmai/Ethereum/nft-fractions-dex/contracts/MaticDex.sol",
  "compiler": {
    "name": "solc",
    "version": "0.8.0+commit.c7dfd78e.Emscripten.clang"
  },
  "schemaVersion": "3.3.4",
  "updatedAt": "2021-09-27T12:18:53.317Z",
  "devdoc": {
    "kind": "dev",
    "methods": {
      "createLimitOrder(uint256,uint256,uint256,uint8)": {
        "details": "Creates a limit order Requirements: - in case of sell: msg.sender has to have sufficient shares available for selling - in case of buy: msg.sender has to have sufficient ETH deposited The relevant hooks are called: _onOrderUpsert, _onSharesReservedChange, _onEthReservedBalanceChange"
      },
      "createMarketOrder(uint256,uint256,uint8)": {
        "details": "Creates a market order and executes against the registered limit orders Requirements: - in case of sell: msg.sender has to have sufficient shares available for selling - in case of buy: msg.sender has to have sufficient ETH deposited The relevant hooks are called: _onTradeExecution, _onOrderUpsert, _onSharesReservedChange, _onEthReservedBalanceChange, _onEthBalanceChange"
      },
      "deleteOrder(uint256,uint8,uint256)": {
        "details": "delete the order"
      },
      "depositEth()": {
        "details": "deposit ETH for trading"
      },
      "owner()": {
        "details": "Returns the address of the current owner."
      },
      "paused()": {
        "details": "Returns true if the contract is paused, and false otherwise."
      },
      "renounceOwnership()": {
        "details": "Leaves the contract without owner. It will not be possible to call `onlyOwner` functions anymore. Can only be called by the current owner. NOTE: Renouncing ownership will leave the contract without an owner, thereby removing any functionality that is only available to the owner."
      },
      "transferOwnership(address)": {
        "details": "Transfers ownership of the contract to a new account (`newOwner`). Can only be called by the current owner."
      },
      "withdrawEth(uint256)": {
        "details": "Withdraw ETH Requirements: - msg.sender has to have equal or more ETH than the amount to withdraw"
      }
    },
    "version": 1
  },
  "userdoc": {
    "kind": "user",
    "methods": {},
    "version": 1
  }
}