{
  "contractName": "MaticNftFractionsRepository",
  "abi": [
    {
      "anonymous": false,
      "inputs": [
        {
          "indexed": true,
          "internalType": "address",
          "name": "account",
          "type": "address"
        },
        {
          "indexed": true,
          "internalType": "address",
          "name": "operator",
          "type": "address"
        },
        {
          "indexed": false,
          "internalType": "bool",
          "name": "approved",
          "type": "bool"
        }
      ],
      "name": "ApprovalForAll",
      "type": "event"
    },
    {
      "anonymous": false,
      "inputs": [
        {
          "indexed": false,
          "internalType": "uint256",
          "name": "erc1155TokenId",
          "type": "uint256"
        },
        {
          "indexed": false,
          "internalType": "address",
          "name": "erc721ContractAddress",
          "type": "address"
        },
        {
          "indexed": false,
          "internalType": "uint256",
          "name": "erc721TokenId",
          "type": "uint256"
        },
        {
          "indexed": false,
          "internalType": "uint256",
          "name": "totalFractionsAmount",
          "type": "uint256"
        },
        {
          "indexed": false,
          "internalType": "string",
          "name": "tokenURI",
          "type": "string"
        }
      ],
      "name": "DepositNft",
      "type": "event"
    },
    {
      "anonymous": false,
      "inputs": [
        {
          "indexed": true,
          "internalType": "address",
          "name": "previousOwner",
          "type": "address"
        },
        {
          "indexed": true,
          "internalType": "address",
          "name": "newOwner",
          "type": "address"
        }
      ],
      "name": "OwnershipTransferred",
      "type": "event"
    },
    {
      "anonymous": false,
      "inputs": [
        {
          "indexed": false,
          "internalType": "address",
          "name": "account",
          "type": "address"
        }
      ],
      "name": "Paused",
      "type": "event"
    },
    {
      "anonymous": false,
      "inputs": [
        {
          "indexed": true,
          "internalType": "address",
          "name": "operator",
          "type": "address"
        },
        {
          "indexed": true,
          "internalType": "address",
          "name": "from",
          "type": "address"
        },
        {
          "indexed": true,
          "internalType": "address",
          "name": "to",
          "type": "address"
        },
        {
          "indexed": false,
          "internalType": "uint256[]",
          "name": "ids",
          "type": "uint256[]"
        },
        {
          "indexed": false,
          "internalType": "uint256[]",
          "name": "values",
          "type": "uint256[]"
        }
      ],
      "name": "TransferBatch",
      "type": "event"
    },
    {
      "anonymous": false,
      "inputs": [
        {
          "indexed": true,
          "internalType": "address",
          "name": "operator",
          "type": "address"
        },
        {
          "indexed": true,
          "internalType": "address",
          "name": "from",
          "type": "address"
        },
        {
          "indexed": true,
          "internalType": "address",
          "name": "to",
          "type": "address"
        },
        {
          "indexed": false,
          "internalType": "uint256",
          "name": "id",
          "type": "uint256"
        },
        {
          "indexed": false,
          "internalType": "uint256",
          "name": "value",
          "type": "uint256"
        }
      ],
      "name": "TransferSingle",
      "type": "event"
    },
    {
      "anonymous": false,
      "inputs": [
        {
          "indexed": false,
          "internalType": "string",
          "name": "value",
          "type": "string"
        },
        {
          "indexed": true,
          "internalType": "uint256",
          "name": "id",
          "type": "uint256"
        }
      ],
      "name": "URI",
      "type": "event"
    },
    {
      "anonymous": false,
      "inputs": [
        {
          "indexed": false,
          "internalType": "address",
          "name": "account",
          "type": "address"
        }
      ],
      "name": "Unpaused",
      "type": "event"
    },
    {
      "anonymous": false,
      "inputs": [
        {
          "indexed": false,
          "internalType": "uint256",
          "name": "erc1155TokenId",
          "type": "uint256"
        },
        {
          "indexed": false,
          "internalType": "address",
          "name": "erc721ContractAddress",
          "type": "address"
        },
        {
          "indexed": false,
          "internalType": "uint256",
          "name": "erc721TokenId",
          "type": "uint256"
        }
      ],
      "name": "WithdrawNft",
      "type": "event"
    },
    {
      "inputs": [
        {
          "internalType": "address",
          "name": "account",
          "type": "address"
        },
        {
          "internalType": "uint256",
          "name": "id",
          "type": "uint256"
        }
      ],
      "name": "balanceOf",
      "outputs": [
        {
          "internalType": "uint256",
          "name": "",
          "type": "uint256"
        }
      ],
      "stateMutability": "view",
      "type": "function"
    },
    {
      "inputs": [
        {
          "internalType": "address[]",
          "name": "accounts",
          "type": "address[]"
        },
        {
          "internalType": "uint256[]",
          "name": "ids",
          "type": "uint256[]"
        }
      ],
      "name": "balanceOfBatch",
      "outputs": [
        {
          "internalType": "uint256[]",
          "name": "",
          "type": "uint256[]"
        }
      ],
      "stateMutability": "view",
      "type": "function"
    },
    {
      "inputs": [
        {
          "internalType": "uint256",
          "name": "tokenId",
          "type": "uint256"
        },
        {
          "internalType": "uint256",
          "name": "amount",
          "type": "uint256"
        },
        {
          "internalType": "address",
          "name": "transferer",
          "type": "address"
        }
      ],
      "name": "burn",
      "outputs": [],
      "stateMutability": "nonpayable",
      "type": "function"
    },
    {
      "inputs": [
        {
          "internalType": "uint256",
          "name": "_tokenId",
          "type": "uint256"
        }
      ],
      "name": "getErc721ContractAddress",
      "outputs": [
        {
          "internalType": "address",
          "name": "",
          "type": "address"
        }
      ],
      "stateMutability": "view",
      "type": "function"
    },
    {
      "inputs": [
        {
          "internalType": "uint256",
          "name": "_tokenId",
          "type": "uint256"
        }
      ],
      "name": "getTokenData",
      "outputs": [
        {
          "internalType": "address",
          "name": "erc721ContractAddress",
          "type": "address"
        },
        {
          "internalType": "uint256",
          "name": "erc721TokenId",
          "type": "uint256"
        },
        {
          "internalType": "uint256",
          "name": "totalFractionsAmount",
          "type": "uint256"
        },
        {
          "internalType": "string",
          "name": "tokenURI",
          "type": "string"
        }
      ],
      "stateMutability": "view",
      "type": "function"
    },
    {
      "inputs": [
        {
          "internalType": "uint256",
          "name": "_tokenId",
          "type": "uint256"
        }
      ],
      "name": "getTotalFractionsAmount",
      "outputs": [
        {
          "internalType": "uint256",
          "name": "",
          "type": "uint256"
        }
      ],
      "stateMutability": "view",
      "type": "function"
    },
    {
      "inputs": [
        {
          "internalType": "address",
          "name": "account",
          "type": "address"
        },
        {
          "internalType": "address",
          "name": "operator",
          "type": "address"
        }
      ],
      "name": "isApprovedForAll",
      "outputs": [
        {
          "internalType": "bool",
          "name": "",
          "type": "bool"
        }
      ],
      "stateMutability": "view",
      "type": "function"
    },
    {
      "inputs": [
        {
          "internalType": "address",
          "name": "erc721ContractAddress",
          "type": "address"
        },
        {
          "internalType": "uint256",
          "name": "erc721TokenId",
          "type": "uint256"
        },
        {
          "internalType": "uint256",
          "name": "erc1155TokenId",
          "type": "uint256"
        },
        {
          "internalType": "uint256",
          "name": "erc1155Amount",
          "type": "uint256"
        },
        {
          "internalType": "uint256",
          "name": "totalFractionsAmount",
          "type": "uint256"
        },
        {
          "internalType": "address",
          "name": "transferer",
          "type": "address"
        },
        {
          "internalType": "string",
          "name": "tokenURI",
          "type": "string"
        }
      ],
      "name": "mint",
      "outputs": [],
      "stateMutability": "nonpayable",
      "type": "function"
    },
    {
      "inputs": [],
      "name": "owner",
      "outputs": [
        {
          "internalType": "address",
          "name": "",
          "type": "address"
        }
      ],
      "stateMutability": "view",
      "type": "function"
    },
    {
      "inputs": [],
      "name": "pause",
      "outputs": [],
      "stateMutability": "nonpayable",
      "type": "function"
    },
    {
      "inputs": [],
      "name": "paused",
      "outputs": [
        {
          "internalType": "bool",
          "name": "",
          "type": "bool"
        }
      ],
      "stateMutability": "view",
      "type": "function"
    },
    {
      "inputs": [],
      "name": "renounceOwnership",
      "outputs": [],
      "stateMutability": "nonpayable",
      "type": "function"
    },
    {
      "inputs": [
        {
          "internalType": "address",
          "name": "from",
          "type": "address"
        },
        {
          "internalType": "address",
          "name": "to",
          "type": "address"
        },
        {
          "internalType": "uint256[]",
          "name": "ids",
          "type": "uint256[]"
        },
        {
          "internalType": "uint256[]",
          "name": "amounts",
          "type": "uint256[]"
        },
        {
          "internalType": "bytes",
          "name": "data",
          "type": "bytes"
        }
      ],
      "name": "safeBatchTransferFrom",
      "outputs": [],
      "stateMutability": "nonpayable",
      "type": "function"
    },
    {
      "inputs": [
        {
          "internalType": "address",
          "name": "from",
          "type": "address"
        },
        {
          "internalType": "address",
          "name": "to",
          "type": "address"
        },
        {
          "internalType": "uint256",
          "name": "id",
          "type": "uint256"
        },
        {
          "internalType": "uint256",
          "name": "amount",
          "type": "uint256"
        },
        {
          "internalType": "bytes",
          "name": "data",
          "type": "bytes"
        }
      ],
      "name": "safeTransferFrom",
      "outputs": [],
      "stateMutability": "nonpayable",
      "type": "function"
    },
    {
      "inputs": [
        {
          "internalType": "address",
          "name": "operator",
          "type": "address"
        },
        {
          "internalType": "bool",
          "name": "approved",
          "type": "bool"
        }
      ],
      "name": "setApprovalForAll",
      "outputs": [],
      "stateMutability": "nonpayable",
      "type": "function"
    },
    {
      "inputs": [
        {
          "internalType": "bytes4",
          "name": "interfaceId",
          "type": "bytes4"
        }
      ],
      "name": "supportsInterface",
      "outputs": [
        {
          "internalType": "bool",
          "name": "",
          "type": "bool"
        }
      ],
      "stateMutability": "view",
      "type": "function"
    },
    {
      "inputs": [
        {
          "internalType": "address",
          "name": "from",
          "type": "address"
        },
        {
          "internalType": "address",
          "name": "to",
          "type": "address"
        },
        {
          "internalType": "uint256",
          "name": "id",
          "type": "uint256"
        },
        {
          "internalType": "uint256",
          "name": "amount",
          "type": "uint256"
        },
        {
          "internalType": "bytes",
          "name": "data",
          "type": "bytes"
        }
      ],
      "name": "transferFrom",
      "outputs": [],
      "stateMutability": "nonpayable",
      "type": "function"
    },
    {
      "inputs": [
        {
          "internalType": "address",
          "name": "newOwner",
          "type": "address"
        }
      ],
      "name": "transferOwnership",
      "outputs": [],
      "stateMutability": "nonpayable",
      "type": "function"
    },
    {
      "inputs": [
        {
          "internalType": "uint256",
          "name": "",
          "type": "uint256"
        }
      ],
      "name": "uri",
      "outputs": [
        {
          "internalType": "string",
          "name": "",
          "type": "string"
        }
      ],
      "stateMutability": "view",
      "type": "function"
    },
    {
      "inputs": [
        {
          "internalType": "string",
          "name": "uri_",
          "type": "string"
        }
      ],
      "name": "initialize",
      "outputs": [],
      "stateMutability": "nonpayable",
      "type": "function"
    },
    {
      "inputs": [
        {
          "internalType": "address",
          "name": "erc721ContractAddress",
          "type": "address"
        },
        {
          "internalType": "uint256",
          "name": "erc721TokenId",
          "type": "uint256"
        },
        {
          "internalType": "uint256",
          "name": "fractionsAmountToMint",
          "type": "uint256"
        }
      ],
      "name": "depositNft",
      "outputs": [],
      "stateMutability": "nonpayable",
      "type": "function"
    },
    {
      "inputs": [
        {
          "internalType": "uint256",
          "name": "tokenId",
          "type": "uint256"
        }
      ],
      "name": "withdrawNft",
      "outputs": [],
      "stateMutability": "nonpayable",
      "type": "function"
    }
  ],
  "bytecode": "0x608060405234801561001057600080fd5b50614d8a806100206000396000f3fe608060405234801561001057600080fd5b50600436106101415760003560e01c80638456cb59116100b8578063b09afec11161007c578063b09afec11461035e578063e09a3cb414610391578063e985e9c5146103ad578063f242432a146103dd578063f2fde38b146103f9578063f62d18881461041557610141565b80638456cb59146102e25780638da5cb5b146102ec578063910efae81461030a578063971a584714610326578063a22cb4651461034257610141565b80634e1273f41161010a5780634e1273f4146102225780635c975abb14610252578063605105f01461027057806366d0330c1461028c578063715018a6146102bc578063749388c4146102c657610141565b8062fdd58e1461014657806301ffc9a7146101765780630e89341c146101a65780632eb2c2d6146101d657806333d59207146101f2575b600080fd5b610160600480360381019061015b919061370e565b610431565b60405161016d91906147ad565b60405180910390f35b610190600480360381019061018b91906138bb565b6104fb565b60405161019d91906144d0565b60405180910390f35b6101c060048036038101906101bb919061398f565b6105dd565b6040516101cd91906144eb565b60405180910390f35b6101f060048036038101906101eb9190613584565b610671565b005b61020c6004803603810190610207919061398f565b610a6a565b60405161021991906147ad565b60405180910390f35b61023c6004803603810190610237919061384f565b610a8a565b6040516102499190614477565b60405180910390f35b61025a610c3b565b60405161026791906144d0565b60405180910390f35b61028a60048036038101906102859190613643565b610c52565b005b6102a660048036038101906102a1919061398f565b610cda565b6040516102b39190614317565b60405180910390f35b6102c4610d1a565b005b6102e060048036038101906102db91906139b8565b610e57565b005b6102ea610f89565b005b6102f461100f565b6040516103019190614317565b60405180910390f35b610324600480360381019061031f919061398f565b611039565b005b610340600480360381019061033b9190613799565b611261565b005b61035c600480360381019061035791906136d2565b6114b8565b005b6103786004803603810190610373919061398f565b611639565b604051610388949392919061442b565b60405180910390f35b6103ab60048036038101906103a6919061374a565b611756565b005b6103c760048036038101906103c29190613548565b611b01565b6040516103d491906144d0565b60405180910390f35b6103f760048036038101906103f29190613643565b611b95565b005b610413600480360381019061040e91906134f6565b611eb0565b005b61042f600480360381019061042a919061390d565b61205c565b005b60008073ffffffffffffffffffffffffffffffffffffffff168373ffffffffffffffffffffffffffffffffffffffff1614156104a2576040517f08c379a00000000000000000000000000000000000000000000000000000000081526004016104999061458d565b60405180910390fd5b6065600083815260200190815260200160002060008473ffffffffffffffffffffffffffffffffffffffff1673ffffffffffffffffffffffffffffffffffffffff16815260200190815260200160002054905092915050565b60007fd9b67a26000000000000000000000000000000000000000000000000000000007bffffffffffffffffffffffffffffffffffffffffffffffffffffffff1916827bffffffffffffffffffffffffffffffffffffffffffffffffffffffff191614806105c657507f0e89341c000000000000000000000000000000000000000000000000000000007bffffffffffffffffffffffffffffffffffffffffffffffffffffffff1916827bffffffffffffffffffffffffffffffffffffffffffffffffffffffff1916145b806105d657506105d58261213f565b5b9050919050565b6060606780546105ec90614b1c565b80601f016020809104026020016040519081016040528092919081815260200182805461061890614b1c565b80156106655780601f1061063a57610100808354040283529160200191610665565b820191906000526020600020905b81548152906001019060200180831161064857829003601f168201915b50505050509050919050565b81518351146106b5576040517f08c379a00000000000000000000000000000000000000000000000000000000081526004016106ac9061474d565b60405180910390fd5b600073ffffffffffffffffffffffffffffffffffffffff168473ffffffffffffffffffffffffffffffffffffffff161415610725576040517f08c379a000000000000000000000000000000000000000000000000000000000815260040161071c9061464d565b60405180910390fd5b61072d6121a9565b73ffffffffffffffffffffffffffffffffffffffff168573ffffffffffffffffffffffffffffffffffffffff16148061077357506107728561076d6121a9565b611b01565b5b6107b2576040517f08c379a00000000000000000000000000000000000000000000000000000000081526004016107a99061466d565b60405180910390fd5b60006107bc6121a9565b90506107cc8187878787876121b1565b60005b84518110156109d5576000858281518110610813577f4e487b7100000000000000000000000000000000000000000000000000000000600052603260045260246000fd5b602002602001015190506000858381518110610858577f4e487b7100000000000000000000000000000000000000000000000000000000600052603260045260246000fd5b6020026020010151905060006065600084815260200190815260200160002060008b73ffffffffffffffffffffffffffffffffffffffff1673ffffffffffffffffffffffffffffffffffffffff168152602001908152602001600020549050818110156108fa576040517f08c379a00000000000000000000000000000000000000000000000000000000081526004016108f1906146cd565b60405180910390fd5b81816109069190614a32565b6065600085815260200190815260200160002060008c73ffffffffffffffffffffffffffffffffffffffff1673ffffffffffffffffffffffffffffffffffffffff16815260200190815260200160002081905550816065600085815260200190815260200160002060008b73ffffffffffffffffffffffffffffffffffffffff1673ffffffffffffffffffffffffffffffffffffffff16815260200190815260200160002060008282546109ba91906149dc565b92505081905550505050806109ce90614b4e565b90506107cf565b508473ffffffffffffffffffffffffffffffffffffffff168673ffffffffffffffffffffffffffffffffffffffff168273ffffffffffffffffffffffffffffffffffffffff167f4a39dc06d4c0dbc64b70af90fd698a233a518aa5d07e595d983b8c0526c8f7fb8787604051610a4c929190614499565b60405180910390a4610a628187878787876121b9565b505050505050565b600060fb6000838152602001908152602001600020600201549050919050565b60608151835114610ad0576040517f08c379a0000000000000000000000000000000000000000000000000000000008152600401610ac79061472d565b60405180910390fd5b6000835167ffffffffffffffff811115610b13577f4e487b7100000000000000000000000000000000000000000000000000000000600052604160045260246000fd5b604051908082528060200260200182016040528015610b415781602001602082028036833780820191505090505b50905060005b8451811015610c3057610bda858281518110610b8c577f4e487b7100000000000000000000000000000000000000000000000000000000600052603260045260246000fd5b6020026020010151858381518110610bcd577f4e487b7100000000000000000000000000000000000000000000000000000000600052603260045260246000fd5b6020026020010151610431565b828281518110610c13577f4e487b7100000000000000000000000000000000000000000000000000000000600052603260045260246000fd5b60200260200101818152505080610c2990614b4e565b9050610b47565b508091505092915050565b6000609760009054906101000a900460ff16905090565b610c5a610c3b565b15610c9a576040517f08c379a0000000000000000000000000000000000000000000000000000000008152600401610c919061478d565b60405180910390fd5b6000610ca68685610431565b90506000610cb48686610431565b9050610cc38787878787611b95565b610cd1878787878686612389565b50505050505050565b600060fb600083815260200190815260200160002060000160009054906101000a900473ffffffffffffffffffffffffffffffffffffffff169050919050565b610d226121a9565b73ffffffffffffffffffffffffffffffffffffffff16610d4061100f565b73ffffffffffffffffffffffffffffffffffffffff1614610d96576040517f08c379a0000000000000000000000000000000000000000000000000000000008152600401610d8d906146ed565b60405180910390fd5b600073ffffffffffffffffffffffffffffffffffffffff1660c960009054906101000a900473ffffffffffffffffffffffffffffffffffffffff1673ffffffffffffffffffffffffffffffffffffffff167f8be0079c531659141344cd1fd0a4f28419497f9722a3daafe3b4186f6b6457e060405160405180910390a3600060c960006101000a81548173ffffffffffffffffffffffffffffffffffffffff021916908373ffffffffffffffffffffffffffffffffffffffff160217905550565b610e5f6121a9565b73ffffffffffffffffffffffffffffffffffffffff16610e7d61100f565b73ffffffffffffffffffffffffffffffffffffffff1614610ed3576040517f08c379a0000000000000000000000000000000000000000000000000000000008152600401610eca906146ed565b60405180910390fd5b610edb610c3b565b15610f1b576040517f08c379a0000000000000000000000000000000000000000000000000000000008152600401610f129061478d565b60405180910390fd5b6000610f278285610431565b905082811015610f6c576040517f08c379a0000000000000000000000000000000000000000000000000000000008152600401610f639061462d565b60405180910390fd5b610f77828585612391565b610f83848484846125b9565b50505050565b610f916121a9565b73ffffffffffffffffffffffffffffffffffffffff16610faf61100f565b73ffffffffffffffffffffffffffffffffffffffff1614611005576040517f08c379a0000000000000000000000000000000000000000000000000000000008152600401610ffc906146ed565b60405180910390fd5b61100d6125bf565b565b600060c960009054906101000a900473ffffffffffffffffffffffffffffffffffffffff16905090565b611041610c3b565b15611081576040517f08c379a00000000000000000000000000000000000000000000000000000000081526004016110789061478d565b60405180910390fd5b600060fb600083815260200190815260200160002060020154905060006110a83384610431565b90508082146110ec576040517f08c379a00000000000000000000000000000000000000000000000000000000081526004016110e39061454d565b60405180910390fd5b600060fb600085815260200190815260200160002060000160009054906101000a900473ffffffffffffffffffffffffffffffffffffffff169050600060fb600086815260200190815260200160002060010154905060008290508073ffffffffffffffffffffffffffffffffffffffff166323b872dd3033856040518463ffffffff1660e01b81526004016111849392919061439a565b600060405180830381600087803b15801561119e57600080fd5b505af11580156111b2573d6000803e3d6000fd5b505050506111c1338787612391565b60fb6000878152602001908152602001600020600080820160006101000a81549073ffffffffffffffffffffffffffffffffffffffff02191690556001820160009055600282016000905560038201600061121c91906130f3565b50507f93099f51c64ef1232856a1b30fa669561cf1d6a628ef780bb9ed4f6872c36fff868484604051611251939291906147c8565b60405180910390a1505050505050565b6112696121a9565b73ffffffffffffffffffffffffffffffffffffffff1661128761100f565b73ffffffffffffffffffffffffffffffffffffffff16146112dd576040517f08c379a00000000000000000000000000000000000000000000000000000000081526004016112d4906146ed565b60405180910390fd5b6112e5610c3b565b15611325576040517f08c379a000000000000000000000000000000000000000000000000000000000815260040161131c9061478d565b60405180910390fd5b61134082868660405180602001604052806000815250612662565b600060019050600073ffffffffffffffffffffffffffffffffffffffff1660fb600088815260200190815260200160002060000160009054906101000a900473ffffffffffffffffffffffffffffffffffffffff1673ffffffffffffffffffffffffffffffffffffffff1614156114a3576113b9613133565b88816000019073ffffffffffffffffffffffffffffffffffffffff16908173ffffffffffffffffffffffffffffffffffffffff168152505087816020018181525050848160400181815250508281606001819052508060fb600089815260200190815260200160002060008201518160000160006101000a81548173ffffffffffffffffffffffffffffffffffffffff021916908373ffffffffffffffffffffffffffffffffffffffff16021790555060208201518160010155604082015181600201556060820151816003019080519060200190611499929190613171565b5090505060009150505b6114ae8684836127f9565b5050505050505050565b8173ffffffffffffffffffffffffffffffffffffffff166114d76121a9565b73ffffffffffffffffffffffffffffffffffffffff16141561152e576040517f08c379a00000000000000000000000000000000000000000000000000000000081526004016115259061470d565b60405180910390fd5b806066600061153b6121a9565b73ffffffffffffffffffffffffffffffffffffffff1673ffffffffffffffffffffffffffffffffffffffff16815260200190815260200160002060008473ffffffffffffffffffffffffffffffffffffffff1673ffffffffffffffffffffffffffffffffffffffff16815260200190815260200160002060006101000a81548160ff0219169083151502179055508173ffffffffffffffffffffffffffffffffffffffff166115e86121a9565b73ffffffffffffffffffffffffffffffffffffffff167f17307eab39ab6107e8899845ad3d59bd9653f200f220920489ca2b5937696c318360405161162d91906144d0565b60405180910390a35050565b6000806000606060fb600086815260200190815260200160002060000160009054906101000a900473ffffffffffffffffffffffffffffffffffffffff1660fb60008781526020019081526020016000206001015460fb60008881526020019081526020016000206002015460fb60008981526020019081526020016000206003018080546116c790614b1c565b80601f01602080910402602001604051908101604052809291908181526020018280546116f390614b1c565b80156117405780601f1061171557610100808354040283529160200191611740565b820191906000526020600020905b81548152906001019060200180831161172357829003601f168201915b5050505050905093509350935093509193509193565b61175e610c3b565b1561179e576040517f08c379a00000000000000000000000000000000000000000000000000000000081526004016117959061478d565b60405180910390fd5b60008390503373ffffffffffffffffffffffffffffffffffffffff168173ffffffffffffffffffffffffffffffffffffffff16636352211e856040518263ffffffff1660e01b81526004016117f391906147ad565b60206040518083038186803b15801561180b57600080fd5b505afa15801561181f573d6000803e3d6000fd5b505050506040513d601f19601f82011682018060405250810190611843919061351f565b73ffffffffffffffffffffffffffffffffffffffff1614611899576040517f08c379a00000000000000000000000000000000000000000000000000000000081526004016118909061456d565b60405180910390fd5b8073ffffffffffffffffffffffffffffffffffffffff166323b872dd3330866040518463ffffffff1660e01b81526004016118d69392919061439a565b600060405180830381600087803b1580156118f057600080fd5b505af1158015611904573d6000803e3d6000fd5b5050505061191260fc6127fe565b600061191e60fc612814565b905061193b33828560405180602001604052806000815250612662565b60608273ffffffffffffffffffffffffffffffffffffffff1663c87b56dd866040518263ffffffff1660e01b815260040161197691906147ad565b60006040518083038186803b15801561198e57600080fd5b505afa1580156119a2573d6000803e3d6000fd5b505050506040513d6000823e3d601f19601f820116820180604052508101906119cb919061394e565b90506119d5613133565b86816000019073ffffffffffffffffffffffffffffffffffffffff16908173ffffffffffffffffffffffffffffffffffffffff168152505085816020018181525050848160400181815250508181606001819052508060fb600085815260200190815260200160002060008201518160000160006101000a81548173ffffffffffffffffffffffffffffffffffffffff021916908373ffffffffffffffffffffffffffffffffffffffff16021790555060208201518160010155604082015181600201556060820151816003019080519060200190611ab5929190613171565b509050507fc418f7a91f366be09b65548b396e0f63940f86274faace87fe5e604acd5f43c98388888886604051611af09594939291906147ff565b60405180910390a150505050505050565b6000606660008473ffffffffffffffffffffffffffffffffffffffff1673ffffffffffffffffffffffffffffffffffffffff16815260200190815260200160002060008373ffffffffffffffffffffffffffffffffffffffff1673ffffffffffffffffffffffffffffffffffffffff16815260200190815260200160002060009054906101000a900460ff16905092915050565b600073ffffffffffffffffffffffffffffffffffffffff168473ffffffffffffffffffffffffffffffffffffffff161415611c05576040517f08c379a0000000000000000000000000000000000000000000000000000000008152600401611bfc9061464d565b60405180910390fd5b611c0d6121a9565b73ffffffffffffffffffffffffffffffffffffffff168573ffffffffffffffffffffffffffffffffffffffff161480611c535750611c5285611c4d6121a9565b611b01565b5b611c92576040517f08c379a0000000000000000000000000000000000000000000000000000000008152600401611c89906145ed565b60405180910390fd5b6000611c9c6121a9565b9050611cbc818787611cad88612822565b611cb688612822565b876121b1565b60006065600086815260200190815260200160002060008873ffffffffffffffffffffffffffffffffffffffff1673ffffffffffffffffffffffffffffffffffffffff16815260200190815260200160002054905083811015611d54576040517f08c379a0000000000000000000000000000000000000000000000000000000008152600401611d4b906146cd565b60405180910390fd5b8381611d609190614a32565b6065600087815260200190815260200160002060008973ffffffffffffffffffffffffffffffffffffffff1673ffffffffffffffffffffffffffffffffffffffff16815260200190815260200160002081905550836065600087815260200190815260200160002060008873ffffffffffffffffffffffffffffffffffffffff1673ffffffffffffffffffffffffffffffffffffffff1681526020019081526020016000206000828254611e1491906149dc565b925050819055508573ffffffffffffffffffffffffffffffffffffffff168773ffffffffffffffffffffffffffffffffffffffff168373ffffffffffffffffffffffffffffffffffffffff167fc3d58168c5ae7397731d063d5bbf3d657854427343f4c083240f7aacaa2d0f628888604051611e91929190614859565b60405180910390a4611ea78288888888886128e8565b50505050505050565b611eb86121a9565b73ffffffffffffffffffffffffffffffffffffffff16611ed661100f565b73ffffffffffffffffffffffffffffffffffffffff1614611f2c576040517f08c379a0000000000000000000000000000000000000000000000000000000008152600401611f23906146ed565b60405180910390fd5b600073ffffffffffffffffffffffffffffffffffffffff168173ffffffffffffffffffffffffffffffffffffffff161415611f9c576040517f08c379a0000000000000000000000000000000000000000000000000000000008152600401611f93906145ad565b60405180910390fd5b8073ffffffffffffffffffffffffffffffffffffffff1660c960009054906101000a900473ffffffffffffffffffffffffffffffffffffffff1673ffffffffffffffffffffffffffffffffffffffff167f8be0079c531659141344cd1fd0a4f28419497f9722a3daafe3b4186f6b6457e060405160405180910390a38060c960006101000a81548173ffffffffffffffffffffffffffffffffffffffff021916908373ffffffffffffffffffffffffffffffffffffffff16021790555050565b600060019054906101000a900460ff1680612082575060008054906101000a900460ff16155b6120c1576040517f08c379a00000000000000000000000000000000000000000000000000000000081526004016120b89061468d565b60405180910390fd5b60008060019054906101000a900460ff161590508015612111576001600060016101000a81548160ff02191690831515021790555060016000806101000a81548160ff0219169083151502179055505b61211a82612ab8565b801561213b5760008060016101000a81548160ff0219169083151502179055505b5050565b60007f01ffc9a7000000000000000000000000000000000000000000000000000000007bffffffffffffffffffffffffffffffffffffffffffffffffffffffff1916827bffffffffffffffffffffffffffffffffffffffffffffffffffffffff1916149050919050565b600033905090565b505050505050565b6121d88473ffffffffffffffffffffffffffffffffffffffff16612bbb565b15612381578373ffffffffffffffffffffffffffffffffffffffff1663bc197c8187878686866040518663ffffffff1660e01b815260040161221e959493929190614332565b602060405180830381600087803b15801561223857600080fd5b505af192505050801561226957506040513d601f19601f8201168201806040525081019061226691906138e4565b60015b6122f857612275614c42565b8061228057506122bd565b806040517f08c379a00000000000000000000000000000000000000000000000000000000081526004016122b491906144eb565b60405180910390fd5b6040517f08c379a00000000000000000000000000000000000000000000000000000000081526004016122ef9061450d565b60405180910390fd5b63bc197c8160e01b7bffffffffffffffffffffffffffffffffffffffffffffffffffffffff1916817bffffffffffffffffffffffffffffffffffffffffffffffffffffffff19161461237f576040517f08c379a00000000000000000000000000000000000000000000000000000000081526004016123769061452d565b60405180910390fd5b505b505050505050565b505050505050565b600073ffffffffffffffffffffffffffffffffffffffff168373ffffffffffffffffffffffffffffffffffffffff161415612401576040517f08c379a00000000000000000000000000000000000000000000000000000000081526004016123f8906146ad565b60405180910390fd5b600061240b6121a9565b905061243b8185600061241d87612822565b61242687612822565b604051806020016040528060008152506121b1565b60006065600085815260200190815260200160002060008673ffffffffffffffffffffffffffffffffffffffff1673ffffffffffffffffffffffffffffffffffffffff168152602001908152602001600020549050828110156124d3576040517f08c379a00000000000000000000000000000000000000000000000000000000081526004016124ca906145cd565b60405180910390fd5b82816124df9190614a32565b6065600086815260200190815260200160002060008773ffffffffffffffffffffffffffffffffffffffff1673ffffffffffffffffffffffffffffffffffffffff16815260200190815260200160002081905550600073ffffffffffffffffffffffffffffffffffffffff168573ffffffffffffffffffffffffffffffffffffffff168373ffffffffffffffffffffffffffffffffffffffff167fc3d58168c5ae7397731d063d5bbf3d657854427343f4c083240f7aacaa2d0f6287876040516125aa929190614859565b60405180910390a45050505050565b50505050565b6125c7610c3b565b15612607576040517f08c379a00000000000000000000000000000000000000000000000000000000081526004016125fe9061460d565b60405180910390fd5b6001609760006101000a81548160ff0219169083151502179055507f62e78cea01bee320cd4e420270b5ea74000d11b0c9f74754ebdbfc544b05a25861264b6121a9565b6040516126589190614317565b60405180910390a1565b600073ffffffffffffffffffffffffffffffffffffffff168473ffffffffffffffffffffffffffffffffffffffff1614156126d2576040517f08c379a00000000000000000000000000000000000000000000000000000000081526004016126c99061476d565b60405180910390fd5b60006126dc6121a9565b90506126fd816000876126ee88612822565b6126f788612822565b876121b1565b826065600086815260200190815260200160002060008773ffffffffffffffffffffffffffffffffffffffff1673ffffffffffffffffffffffffffffffffffffffff168152602001908152602001600020600082825461275d91906149dc565b925050819055508473ffffffffffffffffffffffffffffffffffffffff16600073ffffffffffffffffffffffffffffffffffffffff168273ffffffffffffffffffffffffffffffffffffffff167fc3d58168c5ae7397731d063d5bbf3d657854427343f4c083240f7aacaa2d0f6287876040516127db929190614859565b60405180910390a46127f2816000878787876128e8565b5050505050565b505050565b6001816000016000828254019250508190555050565b600081600001549050919050565b60606000600167ffffffffffffffff811115612867577f4e487b7100000000000000000000000000000000000000000000000000000000600052604160045260246000fd5b6040519080825280602002602001820160405280156128955781602001602082028036833780820191505090505b50905082816000815181106128d3577f4e487b7100000000000000000000000000000000000000000000000000000000600052603260045260246000fd5b60200260200101818152505080915050919050565b6129078473ffffffffffffffffffffffffffffffffffffffff16612bbb565b15612ab0578373ffffffffffffffffffffffffffffffffffffffff1663f23a6e6187878686866040518663ffffffff1660e01b815260040161294d9594939291906143d1565b602060405180830381600087803b15801561296757600080fd5b505af192505050801561299857506040513d601f19601f8201168201806040525081019061299591906138e4565b60015b612a27576129a4614c42565b806129af57506129ec565b806040517f08c379a00000000000000000000000000000000000000000000000000000000081526004016129e391906144eb565b60405180910390fd5b6040517f08c379a0000000000000000000000000000000000000000000000000000000008152600401612a1e9061450d565b60405180910390fd5b63f23a6e6160e01b7bffffffffffffffffffffffffffffffffffffffffffffffffffffffff1916817bffffffffffffffffffffffffffffffffffffffffffffffffffffffff191614612aae576040517f08c379a0000000000000000000000000000000000000000000000000000000008152600401612aa59061452d565b60405180910390fd5b505b505050505050565b600060019054906101000a900460ff1680612ade575060008054906101000a900460ff16155b612b1d576040517f08c379a0000000000000000000000000000000000000000000000000000000008152600401612b149061468d565b60405180910390fd5b60008060019054906101000a900460ff161590508015612b6d576001600060016101000a81548160ff02191690831515021790555060016000806101000a81548160ff0219169083151502179055505b612b75612bce565b612b7d612ca7565b612b85612d80565b612b8e82612e74565b612b96612f57565b8015612bb75760008060016101000a81548160ff0219169083151502179055505b5050565b600080823b905060008111915050919050565b600060019054906101000a900460ff1680612bf4575060008054906101000a900460ff16155b612c33576040517f08c379a0000000000000000000000000000000000000000000000000000000008152600401612c2a9061468d565b60405180910390fd5b60008060019054906101000a900460ff161590508015612c83576001600060016101000a81548160ff02191690831515021790555060016000806101000a81548160ff0219169083151502179055505b8015612ca45760008060016101000a81548160ff0219169083151502179055505b50565b600060019054906101000a900460ff1680612ccd575060008054906101000a900460ff16155b612d0c576040517f08c379a0000000000000000000000000000000000000000000000000000000008152600401612d039061468d565b60405180910390fd5b60008060019054906101000a900460ff161590508015612d5c576001600060016101000a81548160ff02191690831515021790555060016000806101000a81548160ff0219169083151502179055505b8015612d7d5760008060016101000a81548160ff0219169083151502179055505b50565b600060019054906101000a900460ff1680612da6575060008054906101000a900460ff16155b612de5576040517f08c379a0000000000000000000000000000000000000000000000000000000008152600401612ddc9061468d565b60405180910390fd5b60008060019054906101000a900460ff161590508015612e35576001600060016101000a81548160ff02191690831515021790555060016000806101000a81548160ff0219169083151502179055505b6000609760006101000a81548160ff0219169083151502179055508015612e715760008060016101000a81548160ff0219169083151502179055505b50565b600060019054906101000a900460ff1680612e9a575060008054906101000a900460ff16155b612ed9576040517f08c379a0000000000000000000000000000000000000000000000000000000008152600401612ed09061468d565b60405180910390fd5b60008060019054906101000a900460ff161590508015612f29576001600060016101000a81548160ff02191690831515021790555060016000806101000a81548160ff0219169083151502179055505b612f32826130d9565b8015612f535760008060016101000a81548160ff0219169083151502179055505b5050565b600060019054906101000a900460ff1680612f7d575060008054906101000a900460ff16155b612fbc576040517f08c379a0000000000000000000000000000000000000000000000000000000008152600401612fb39061468d565b60405180910390fd5b60008060019054906101000a900460ff16159050801561300c576001600060016101000a81548160ff02191690831515021790555060016000806101000a81548160ff0219169083151502179055505b60006130166121a9565b90508060c960006101000a81548173ffffffffffffffffffffffffffffffffffffffff021916908373ffffffffffffffffffffffffffffffffffffffff1602179055508073ffffffffffffffffffffffffffffffffffffffff16600073ffffffffffffffffffffffffffffffffffffffff167f8be0079c531659141344cd1fd0a4f28419497f9722a3daafe3b4186f6b6457e060405160405180910390a35080156130d65760008060016101000a81548160ff0219169083151502179055505b50565b80606790805190602001906130ef929190613171565b5050565b5080546130ff90614b1c565b6000825580601f106131115750613130565b601f01602090049060005260206000209081019061312f91906131f7565b5b50565b6040518060800160405280600073ffffffffffffffffffffffffffffffffffffffff1681526020016000815260200160008152602001606081525090565b82805461317d90614b1c565b90600052602060002090601f01602090048101928261319f57600085556131e6565b82601f106131b857805160ff19168380011785556131e6565b828001600101855582156131e6579182015b828111156131e55782518255916020019190600101906131ca565b5b5090506131f391906131f7565b5090565b5b808211156132105760008160009055506001016131f8565b5090565b6000613227613222846148b3565b614882565b9050808382526020820190508285602086028201111561324657600080fd5b60005b85811015613276578161325c88826133a6565b845260208401935060208301925050600181019050613249565b5050509392505050565b600061329361328e846148df565b614882565b905080838252602082019050828560208602820111156132b257600080fd5b60005b858110156132e257816132c888826134e1565b8452602084019350602083019250506001810190506132b5565b5050509392505050565b60006132ff6132fa8461490b565b614882565b90508281526020810184848401111561331757600080fd5b613322848285614ada565b509392505050565b600061333d6133388461493b565b614882565b90508281526020810184848401111561335557600080fd5b613360848285614ada565b509392505050565b600061337b6133768461493b565b614882565b90508281526020810184848401111561339357600080fd5b61339e848285614ae9565b509392505050565b6000813590506133b581614cf8565b92915050565b6000815190506133ca81614cf8565b92915050565b600082601f8301126133e157600080fd5b81356133f1848260208601613214565b91505092915050565b600082601f83011261340b57600080fd5b813561341b848260208601613280565b91505092915050565b60008135905061343381614d0f565b92915050565b60008135905061344881614d26565b92915050565b60008151905061345d81614d26565b92915050565b600082601f83011261347457600080fd5b81356134848482602086016132ec565b91505092915050565b600082601f83011261349e57600080fd5b81356134ae84826020860161332a565b91505092915050565b600082601f8301126134c857600080fd5b81516134d8848260208601613368565b91505092915050565b6000813590506134f081614d3d565b92915050565b60006020828403121561350857600080fd5b6000613516848285016133a6565b91505092915050565b60006020828403121561353157600080fd5b600061353f848285016133bb565b91505092915050565b6000806040838503121561355b57600080fd5b6000613569858286016133a6565b925050602061357a858286016133a6565b9150509250929050565b600080600080600060a0868803121561359c57600080fd5b60006135aa888289016133a6565b95505060206135bb888289016133a6565b945050604086013567ffffffffffffffff8111156135d857600080fd5b6135e4888289016133fa565b935050606086013567ffffffffffffffff81111561360157600080fd5b61360d888289016133fa565b925050608086013567ffffffffffffffff81111561362a57600080fd5b61363688828901613463565b9150509295509295909350565b600080600080600060a0868803121561365b57600080fd5b6000613669888289016133a6565b955050602061367a888289016133a6565b945050604061368b888289016134e1565b935050606061369c888289016134e1565b925050608086013567ffffffffffffffff8111156136b957600080fd5b6136c588828901613463565b9150509295509295909350565b600080604083850312156136e557600080fd5b60006136f3858286016133a6565b925050602061370485828601613424565b9150509250929050565b6000806040838503121561372157600080fd5b600061372f858286016133a6565b9250506020613740858286016134e1565b9150509250929050565b60008060006060848603121561375f57600080fd5b600061376d868287016133a6565b935050602061377e868287016134e1565b925050604061378f868287016134e1565b9150509250925092565b600080600080600080600060e0888a0312156137b457600080fd5b60006137c28a828b016133a6565b97505060206137d38a828b016134e1565b96505060406137e48a828b016134e1565b95505060606137f58a828b016134e1565b94505060806138068a828b016134e1565b93505060a06138178a828b016133a6565b92505060c088013567ffffffffffffffff81111561383457600080fd5b6138408a828b0161348d565b91505092959891949750929550565b6000806040838503121561386257600080fd5b600083013567ffffffffffffffff81111561387c57600080fd5b613888858286016133d0565b925050602083013567ffffffffffffffff8111156138a557600080fd5b6138b1858286016133fa565b9150509250929050565b6000602082840312156138cd57600080fd5b60006138db84828501613439565b91505092915050565b6000602082840312156138f657600080fd5b60006139048482850161344e565b91505092915050565b60006020828403121561391f57600080fd5b600082013567ffffffffffffffff81111561393957600080fd5b6139458482850161348d565b91505092915050565b60006020828403121561396057600080fd5b600082015167ffffffffffffffff81111561397a57600080fd5b613986848285016134b7565b91505092915050565b6000602082840312156139a157600080fd5b60006139af848285016134e1565b91505092915050565b6000806000606084860312156139cd57600080fd5b60006139db868287016134e1565b93505060206139ec868287016134e1565b92505060406139fd868287016133a6565b9150509250925092565b6000613a1383836142f9565b60208301905092915050565b613a2881614a66565b82525050565b6000613a398261497b565b613a4381856149a9565b9350613a4e8361496b565b8060005b83811015613a7f578151613a668882613a07565b9750613a718361499c565b925050600181019050613a52565b5085935050505092915050565b613a9581614a78565b82525050565b6000613aa682614986565b613ab081856149ba565b9350613ac0818560208601614ae9565b613ac981614c24565b840191505092915050565b6000613adf82614991565b613ae981856149cb565b9350613af9818560208601614ae9565b613b0281614c24565b840191505092915050565b6000613b1a6034836149cb565b91507f455243313135353a207472616e7366657220746f206e6f6e204552433131353560008301527f526563656976657220696d706c656d656e7465720000000000000000000000006020830152604082019050919050565b6000613b806028836149cb565b91507f455243313135353a204552433131353552656365697665722072656a6563746560008301527f6420746f6b656e730000000000000000000000000000000000000000000000006020830152604082019050919050565b6000613be6602b836149cb565b91507f6d6573736167652073656e6465722068617320746f206f776e20616c6c206f6660008301527f20746865207368617265730000000000000000000000000000000000000000006020830152604082019050919050565b6000613c4c602a836149cb565b91507f6d73672073656e6465722068617320746f206f776e2074686520746f6b656e2060008301527f746f206465706f736974000000000000000000000000000000000000000000006020830152604082019050919050565b6000613cb2602b836149cb565b91507f455243313135353a2062616c616e636520717565727920666f7220746865207a60008301527f65726f20616464726573730000000000000000000000000000000000000000006020830152604082019050919050565b6000613d186026836149cb565b91507f4f776e61626c653a206e6577206f776e657220697320746865207a65726f206160008301527f64647265737300000000000000000000000000000000000000000000000000006020830152604082019050919050565b6000613d7e6024836149cb565b91507f455243313135353a206275726e20616d6f756e7420657863656564732062616c60008301527f616e6365000000000000000000000000000000000000000000000000000000006020830152604082019050919050565b6000613de46029836149cb565b91507f455243313135353a2063616c6c6572206973206e6f74206f776e6572206e6f7260008301527f20617070726f76656400000000000000000000000000000000000000000000006020830152604082019050919050565b6000613e4a6010836149cb565b91507f5061757361626c653a20706175736564000000000000000000000000000000006000830152602082019050919050565b6000613e8a6040836149cb565b91507f7472616e7366657265722068617320746f206f776e20657175616c206f72206d60008301527f6f726520736861726573207468616e2074686520676976656e20616d6f756e746020830152604082019050919050565b6000613ef06025836149cb565b91507f455243313135353a207472616e7366657220746f20746865207a65726f20616460008301527f64726573730000000000000000000000000000000000000000000000000000006020830152604082019050919050565b6000613f566032836149cb565b91507f455243313135353a207472616e736665722063616c6c6572206973206e6f742060008301527f6f776e6572206e6f7220617070726f76656400000000000000000000000000006020830152604082019050919050565b6000613fbc602e836149cb565b91507f496e697469616c697a61626c653a20636f6e747261637420697320616c72656160008301527f647920696e697469616c697a65640000000000000000000000000000000000006020830152604082019050919050565b60006140226023836149cb565b91507f455243313135353a206275726e2066726f6d20746865207a65726f206164647260008301527f65737300000000000000000000000000000000000000000000000000000000006020830152604082019050919050565b6000614088602a836149cb565b91507f455243313135353a20696e73756666696369656e742062616c616e636520666f60008301527f72207472616e73666572000000000000000000000000000000000000000000006020830152604082019050919050565b60006140ee6020836149cb565b91507f4f776e61626c653a2063616c6c6572206973206e6f7420746865206f776e65726000830152602082019050919050565b600061412e6029836149cb565b91507f455243313135353a2073657474696e6720617070726f76616c2073746174757360008301527f20666f722073656c6600000000000000000000000000000000000000000000006020830152604082019050919050565b60006141946029836149cb565b91507f455243313135353a206163636f756e747320616e6420696473206c656e67746860008301527f206d69736d6174636800000000000000000000000000000000000000000000006020830152604082019050919050565b60006141fa6028836149cb565b91507f455243313135353a2069647320616e6420616d6f756e7473206c656e6774682060008301527f6d69736d617463680000000000000000000000000000000000000000000000006020830152604082019050919050565b60006142606021836149cb565b91507f455243313135353a206d696e7420746f20746865207a65726f2061646472657360008301527f73000000000000000000000000000000000000000000000000000000000000006020830152604082019050919050565b60006142c66018836149cb565b91507f4e6f7420616c6c6f776564207768696c652070617573656400000000000000006000830152602082019050919050565b61430281614ad0565b82525050565b61431181614ad0565b82525050565b600060208201905061432c6000830184613a1f565b92915050565b600060a0820190506143476000830188613a1f565b6143546020830187613a1f565b81810360408301526143668186613a2e565b9050818103606083015261437a8185613a2e565b9050818103608083015261438e8184613a9b565b90509695505050505050565b60006060820190506143af6000830186613a1f565b6143bc6020830185613a1f565b6143c96040830184614308565b949350505050565b600060a0820190506143e66000830188613a1f565b6143f36020830187613a1f565b6144006040830186614308565b61440d6060830185614308565b818103608083015261441f8184613a9b565b90509695505050505050565b60006080820190506144406000830187613a1f565b61444d6020830186614308565b61445a6040830185614308565b818103606083015261446c8184613ad4565b905095945050505050565b600060208201905081810360008301526144918184613a2e565b905092915050565b600060408201905081810360008301526144b38185613a2e565b905081810360208301526144c78184613a2e565b90509392505050565b60006020820190506144e56000830184613a8c565b92915050565b600060208201905081810360008301526145058184613ad4565b905092915050565b6000602082019050818103600083015261452681613b0d565b9050919050565b6000602082019050818103600083015261454681613b73565b9050919050565b6000602082019050818103600083015261456681613bd9565b9050919050565b6000602082019050818103600083015261458681613c3f565b9050919050565b600060208201905081810360008301526145a681613ca5565b9050919050565b600060208201905081810360008301526145c681613d0b565b9050919050565b600060208201905081810360008301526145e681613d71565b9050919050565b6000602082019050818103600083015261460681613dd7565b9050919050565b6000602082019050818103600083015261462681613e3d565b9050919050565b6000602082019050818103600083015261464681613e7d565b9050919050565b6000602082019050818103600083015261466681613ee3565b9050919050565b6000602082019050818103600083015261468681613f49565b9050919050565b600060208201905081810360008301526146a681613faf565b9050919050565b600060208201905081810360008301526146c681614015565b9050919050565b600060208201905081810360008301526146e68161407b565b9050919050565b60006020820190508181036000830152614706816140e1565b9050919050565b6000602082019050818103600083015261472681614121565b9050919050565b6000602082019050818103600083015261474681614187565b9050919050565b60006020820190508181036000830152614766816141ed565b9050919050565b6000602082019050818103600083015261478681614253565b9050919050565b600060208201905081810360008301526147a6816142b9565b9050919050565b60006020820190506147c26000830184614308565b92915050565b60006060820190506147dd6000830186614308565b6147ea6020830185613a1f565b6147f76040830184614308565b949350505050565b600060a0820190506148146000830188614308565b6148216020830187613a1f565b61482e6040830186614308565b61483b6060830185614308565b818103608083015261484d8184613ad4565b90509695505050505050565b600060408201905061486e6000830185614308565b61487b6020830184614308565b9392505050565b6000604051905081810181811067ffffffffffffffff821117156148a9576148a8614bf5565b5b8060405250919050565b600067ffffffffffffffff8211156148ce576148cd614bf5565b5b602082029050602081019050919050565b600067ffffffffffffffff8211156148fa576148f9614bf5565b5b602082029050602081019050919050565b600067ffffffffffffffff82111561492657614925614bf5565b5b601f19601f8301169050602081019050919050565b600067ffffffffffffffff82111561495657614955614bf5565b5b601f19601f8301169050602081019050919050565b6000819050602082019050919050565b600081519050919050565b600081519050919050565b600081519050919050565b6000602082019050919050565b600082825260208201905092915050565b600082825260208201905092915050565b600082825260208201905092915050565b60006149e782614ad0565b91506149f283614ad0565b9250827fffffffffffffffffffffffffffffffffffffffffffffffffffffffffffffffff03821115614a2757614a26614b97565b5b828201905092915050565b6000614a3d82614ad0565b9150614a4883614ad0565b925082821015614a5b57614a5a614b97565b5b828203905092915050565b6000614a7182614ab0565b9050919050565b60008115159050919050565b60007fffffffff0000000000000000000000000000000000000000000000000000000082169050919050565b600073ffffffffffffffffffffffffffffffffffffffff82169050919050565b6000819050919050565b82818337600083830152505050565b60005b83811015614b07578082015181840152602081019050614aec565b83811115614b16576000848401525b50505050565b60006002820490506001821680614b3457607f821691505b60208210811415614b4857614b47614bc6565b5b50919050565b6000614b5982614ad0565b91507fffffffffffffffffffffffffffffffffffffffffffffffffffffffffffffffff821415614b8c57614b8b614b97565b5b600182019050919050565b7f4e487b7100000000000000000000000000000000000000000000000000000000600052601160045260246000fd5b7f4e487b7100000000000000000000000000000000000000000000000000000000600052602260045260246000fd5b7f4e487b7100000000000000000000000000000000000000000000000000000000600052604160045260246000fd5b6000601f19601f8301169050919050565b60008160e01c9050919050565b600060443d1015614c5257614cf5565b60046000803e614c63600051614c35565b6308c379a08114614c745750614cf5565b60405160043d036004823e80513d602482011167ffffffffffffffff82111715614ca057505050614cf5565b808201805167ffffffffffffffff811115614cbf575050505050614cf5565b8060208301013d8501811115614cda57505050505050614cf5565b614ce382614c24565b60208401016040528296505050505050505b90565b614d0181614a66565b8114614d0c57600080fd5b50565b614d1881614a78565b8114614d2357600080fd5b50565b614d2f81614a84565b8114614d3a57600080fd5b50565b614d4681614ad0565b8114614d5157600080fd5b5056fea2646970667358221220d87a17cbe805a51ba962ab2e2c25c0d82d189d0ad20cf338b68bf89e8f3b40ff64736f6c63430008000033",
  "immutableReferences": {},
  "source": "// SPDX-License-Identifier: MIT\n\npragma solidity ^0.8.0;\n\nimport \"@openzeppelin/contracts-upgradeable/utils/CountersUpgradeable.sol\";\nimport \"./NftFractionsRepositoryBase.sol\";\n\ncontract MaticNftFractionsRepository is NftFractionsRepositoryBase {\n    using CountersUpgradeable for CountersUpgradeable.Counter;\n\n    event DepositNft(\n        uint256 erc1155TokenId,\n        address erc721ContractAddress,\n        uint256 erc721TokenId,\n        uint256 totalFractionsAmount,\n        string tokenURI\n    );\n\n    event WithdrawNft(\n        uint256 erc1155TokenId,\n        address erc721ContractAddress,\n        uint256 erc721TokenId\n    );\n\n    CountersUpgradeable.Counter private _ids;\n\n    function initialize(string memory uri_) public initializer {\n        __NftFractionsRepositoryBase_init(uri_);\n    }\n\n    /**\n     * @dev Deposit an ERC721 token and mints an ERC1155 token with the given fractions amount\n     * the original ERC721 token is transferred to the address of this smart contract.\n     * Before calling this function the user has to call the apporve function on the original NFT contract and\n     * approve this smart contract to transfer his NFT.\n     * It emits DepositNft event.\n     *\n     * Requirements:\n     * - msg.sender has to own the token that is deposited\n     * - the contract is not paused\n     */\n    function depositNft(\n        address erc721ContractAddress,\n        uint256 erc721TokenId,\n        uint256 fractionsAmountToMint\n    ) external {\n        require(!paused(), \"Not allowed while paused\");\n        ERC721URIStorage erc721Contract = ERC721URIStorage(\n            erc721ContractAddress\n        );\n        require(\n            erc721Contract.ownerOf(erc721TokenId) == msg.sender,\n            \"msg sender has to own the token to deposit\"\n        );\n        erc721Contract.transferFrom(msg.sender, address(this), erc721TokenId);\n        _ids.increment();\n        uint256 newItemId = _ids.current();\n        _mint(msg.sender, newItemId, fractionsAmountToMint, \"\");\n        string memory tokenURI;\n        tokenURI = erc721Contract.tokenURI(erc721TokenId);\n        Token memory token;\n        token.erc721ContractAddress = erc721ContractAddress;\n        token.erc721TokenId = erc721TokenId;\n        token.totalFractionsAmount = fractionsAmountToMint;\n        token.tokenURI = tokenURI;\n        tokens[newItemId] = token;\n\n        emit DepositNft(\n            newItemId,\n            erc721ContractAddress,\n            erc721TokenId,\n            fractionsAmountToMint,\n            tokenURI\n        );\n    }\n\n    /**\n     * @dev Withdraw an ERC721 token from this contract. The message sender has to own all of the shares in\n     * the correspondign ERC1155 token.\n     * Successfull withdraw means:\n     * - burning the ERC1155 token\n     * - transfering the ERC721 token to the owner (msg.sender) = owner of all shares in the ERC1155 token\n     * It emits WithdraeNft event.\n     *\n     * Requirements:\n     * - msg.sender has to own all shares in the corresponding ERC1155 token\n     * - the contract is not paused\n     */\n    function withdrawNft(uint256 tokenId) external {\n        require(!paused(), \"Not allowed while paused\");\n        uint256 totalFractionsAmount = tokens[tokenId].totalFractionsAmount;\n        uint256 sendersAmount = balanceOf(msg.sender, tokenId);\n        require(\n            totalFractionsAmount == sendersAmount,\n            \"message sender has to own all of the shares\"\n        );\n        //sends the original token in the ERC721 contract\n        address erc721ContractAddress = tokens[tokenId].erc721ContractAddress;\n        uint256 erc721TokenId = tokens[tokenId].erc721TokenId;\n        IERC721 erc721Contract = IERC721(erc721ContractAddress);\n        erc721Contract.transferFrom(address(this), msg.sender, erc721TokenId);\n        //burns the ERC1155 token\n        _burn(msg.sender, tokenId, totalFractionsAmount);\n        //deletes the token struct\n        delete tokens[tokenId];\n\n        emit WithdrawNft(tokenId, erc721ContractAddress, erc721TokenId);\n    }\n}\n",
  "sourcePath": "/Users/szabolcs/Documents/Personal/Szakmai/Ethereum/nft-fractions-dex/contracts/MaticNftFractionsRepository.sol",
  "compiler": {
    "name": "solc",
    "version": "0.8.0+commit.c7dfd78e.Emscripten.clang"
  },
  "schemaVersion": "3.3.4",
  "updatedAt": "2021-07-20T09:10:30.157Z",
  "devdoc": {
    "kind": "dev",
    "methods": {
      "balanceOf(address,uint256)": {
        "details": "See {IERC1155-balanceOf}. Requirements: - `account` cannot be the zero address."
      },
      "balanceOfBatch(address[],uint256[])": {
        "details": "See {IERC1155-balanceOfBatch}. Requirements: - `accounts` and `ids` must have the same length."
      },
      "burn(uint256,uint256,address)": {
        "details": "when someone transfers his tokens to the other chain the bridge contract will call this burn function The bridge contract is the owner of NftFractionsRepository. Requirements: - only the owner (the bridge contract = owner) can call - the contract is not paused There is a hook (_afterBurn) that can be overriden to implement some custom logic performed after the burn"
      },
      "depositNft(address,uint256,uint256)": {
        "details": "Deposit an ERC721 token and mints an ERC1155 token with the given fractions amount the original ERC721 token is transferred to the address of this smart contract. Before calling this function the user has to call the apporve function on the original NFT contract and approve this smart contract to transfer his NFT. It emits DepositNft event. Requirements: - msg.sender has to own the token that is deposited - the contract is not paused"
      },
      "getErc721ContractAddress(uint256)": {
        "details": "returns original ERC721 contract address for a token"
      },
      "getTokenData(uint256)": {
        "details": "returns relevant token data: - original ERC721 contract address - original ERC721 token id - amount of fractions minted"
      },
      "getTotalFractionsAmount(uint256)": {
        "details": "returns amount of fractions minted for a token"
      },
      "isApprovedForAll(address,address)": {
        "details": "See {IERC1155-isApprovedForAll}."
      },
      "mint(address,uint256,uint256,uint256,uint256,address,string)": {
        "details": "when someone transfers his tokens from the other chain to this chain the bridge contract will call this mint function Requirements: - only the owner (the bridge contract = owner) can call - the contract is not paused There is a hook (_afterMint) that can be overriden to implement some custom logic performed after the mint"
      },
      "owner()": {
        "details": "Returns the address of the current owner."
      },
      "paused()": {
        "details": "Returns true if the contract is paused, and false otherwise."
      },
      "renounceOwnership()": {
        "details": "Leaves the contract without owner. It will not be possible to call `onlyOwner` functions anymore. Can only be called by the current owner. NOTE: Renouncing ownership will leave the contract without an owner, thereby removing any functionality that is only available to the owner."
      },
      "safeBatchTransferFrom(address,address,uint256[],uint256[],bytes)": {
        "details": "See {IERC1155-safeBatchTransferFrom}."
      },
      "safeTransferFrom(address,address,uint256,uint256,bytes)": {
        "details": "See {IERC1155-safeTransferFrom}."
      },
      "setApprovalForAll(address,bool)": {
        "details": "See {IERC1155-setApprovalForAll}."
      },
      "supportsInterface(bytes4)": {
        "details": "See {IERC165-supportsInterface}."
      },
      "transferFrom(address,address,uint256,uint256,bytes)": {
        "details": "same as safeTransferFrom in ERC1155 with one restriction: - the contract is not paused There is a hook (_afterTransfer) that can be overriden to implement some custom logic performed after the transferFrom"
      },
      "transferOwnership(address)": {
        "details": "Transfers ownership of the contract to a new account (`newOwner`). Can only be called by the current owner."
      },
      "uri(uint256)": {
        "details": "See {IERC1155MetadataURI-uri}. This implementation returns the same URI for *all* token types. It relies on the token type ID substitution mechanism https://eips.ethereum.org/EIPS/eip-1155#metadata[defined in the EIP]. Clients calling this function must replace the `\\{id\\}` substring with the actual token type ID."
      },
      "withdrawNft(uint256)": {
        "details": "Withdraw an ERC721 token from this contract. The message sender has to own all of the shares in the correspondign ERC1155 token. Successfull withdraw means: - burning the ERC1155 token - transfering the ERC721 token to the owner (msg.sender) = owner of all shares in the ERC1155 token It emits WithdraeNft event. Requirements: - msg.sender has to own all shares in the corresponding ERC1155 token - the contract is not paused"
      }
    },
    "version": 1
  },
  "userdoc": {
    "kind": "user",
    "methods": {},
    "version": 1
  }
}