{
  "contractName": "MaticNftFractionsRepository",
  "abi": [
    {
      "anonymous": false,
      "inputs": [
        {
          "indexed": true,
          "internalType": "address",
          "name": "account",
          "type": "address"
        },
        {
          "indexed": true,
          "internalType": "address",
          "name": "operator",
          "type": "address"
        },
        {
          "indexed": false,
          "internalType": "bool",
          "name": "approved",
          "type": "bool"
        }
      ],
      "name": "ApprovalForAll",
      "type": "event"
    },
    {
      "anonymous": false,
      "inputs": [
        {
          "indexed": false,
          "internalType": "uint256",
          "name": "erc1155TokenId",
          "type": "uint256"
        },
        {
          "indexed": false,
          "internalType": "address",
          "name": "erc721ContractAddress",
          "type": "address"
        },
        {
          "indexed": false,
          "internalType": "uint256",
          "name": "erc721TokenId",
          "type": "uint256"
        },
        {
          "indexed": false,
          "internalType": "uint256",
          "name": "totalFractionsAmount",
          "type": "uint256"
        },
        {
          "indexed": false,
          "internalType": "string",
          "name": "tokenURI",
          "type": "string"
        }
      ],
      "name": "DepositNft",
      "type": "event"
    },
    {
      "anonymous": false,
      "inputs": [
        {
          "indexed": true,
          "internalType": "address",
          "name": "previousOwner",
          "type": "address"
        },
        {
          "indexed": true,
          "internalType": "address",
          "name": "newOwner",
          "type": "address"
        }
      ],
      "name": "OwnershipTransferred",
      "type": "event"
    },
    {
      "anonymous": false,
      "inputs": [
        {
          "indexed": false,
          "internalType": "address",
          "name": "account",
          "type": "address"
        }
      ],
      "name": "Paused",
      "type": "event"
    },
    {
      "anonymous": false,
      "inputs": [
        {
          "indexed": true,
          "internalType": "address",
          "name": "operator",
          "type": "address"
        },
        {
          "indexed": true,
          "internalType": "address",
          "name": "from",
          "type": "address"
        },
        {
          "indexed": true,
          "internalType": "address",
          "name": "to",
          "type": "address"
        },
        {
          "indexed": false,
          "internalType": "uint256[]",
          "name": "ids",
          "type": "uint256[]"
        },
        {
          "indexed": false,
          "internalType": "uint256[]",
          "name": "values",
          "type": "uint256[]"
        }
      ],
      "name": "TransferBatch",
      "type": "event"
    },
    {
      "anonymous": false,
      "inputs": [
        {
          "indexed": true,
          "internalType": "address",
          "name": "operator",
          "type": "address"
        },
        {
          "indexed": true,
          "internalType": "address",
          "name": "from",
          "type": "address"
        },
        {
          "indexed": true,
          "internalType": "address",
          "name": "to",
          "type": "address"
        },
        {
          "indexed": false,
          "internalType": "uint256",
          "name": "id",
          "type": "uint256"
        },
        {
          "indexed": false,
          "internalType": "uint256",
          "name": "value",
          "type": "uint256"
        }
      ],
      "name": "TransferSingle",
      "type": "event"
    },
    {
      "anonymous": false,
      "inputs": [
        {
          "indexed": false,
          "internalType": "string",
          "name": "value",
          "type": "string"
        },
        {
          "indexed": true,
          "internalType": "uint256",
          "name": "id",
          "type": "uint256"
        }
      ],
      "name": "URI",
      "type": "event"
    },
    {
      "anonymous": false,
      "inputs": [
        {
          "indexed": false,
          "internalType": "address",
          "name": "account",
          "type": "address"
        }
      ],
      "name": "Unpaused",
      "type": "event"
    },
    {
      "anonymous": false,
      "inputs": [
        {
          "indexed": false,
          "internalType": "uint256",
          "name": "erc1155TokenId",
          "type": "uint256"
        },
        {
          "indexed": false,
          "internalType": "address",
          "name": "erc721ContractAddress",
          "type": "address"
        },
        {
          "indexed": false,
          "internalType": "uint256",
          "name": "erc721TokenId",
          "type": "uint256"
        }
      ],
      "name": "WithdrawNft",
      "type": "event"
    },
    {
      "inputs": [
        {
          "internalType": "address",
          "name": "account",
          "type": "address"
        },
        {
          "internalType": "uint256",
          "name": "id",
          "type": "uint256"
        }
      ],
      "name": "balanceOf",
      "outputs": [
        {
          "internalType": "uint256",
          "name": "",
          "type": "uint256"
        }
      ],
      "stateMutability": "view",
      "type": "function",
      "constant": true
    },
    {
      "inputs": [
        {
          "internalType": "address[]",
          "name": "accounts",
          "type": "address[]"
        },
        {
          "internalType": "uint256[]",
          "name": "ids",
          "type": "uint256[]"
        }
      ],
      "name": "balanceOfBatch",
      "outputs": [
        {
          "internalType": "uint256[]",
          "name": "",
          "type": "uint256[]"
        }
      ],
      "stateMutability": "view",
      "type": "function",
      "constant": true
    },
    {
      "inputs": [
        {
          "internalType": "address",
          "name": "account",
          "type": "address"
        },
        {
          "internalType": "address",
          "name": "operator",
          "type": "address"
        }
      ],
      "name": "isApprovedForAll",
      "outputs": [
        {
          "internalType": "bool",
          "name": "",
          "type": "bool"
        }
      ],
      "stateMutability": "view",
      "type": "function",
      "constant": true
    },
    {
      "inputs": [],
      "name": "owner",
      "outputs": [
        {
          "internalType": "address",
          "name": "",
          "type": "address"
        }
      ],
      "stateMutability": "view",
      "type": "function",
      "constant": true
    },
    {
      "inputs": [],
      "name": "paused",
      "outputs": [
        {
          "internalType": "bool",
          "name": "",
          "type": "bool"
        }
      ],
      "stateMutability": "view",
      "type": "function",
      "constant": true
    },
    {
      "inputs": [],
      "name": "renounceOwnership",
      "outputs": [],
      "stateMutability": "nonpayable",
      "type": "function"
    },
    {
      "inputs": [
        {
          "internalType": "address",
          "name": "from",
          "type": "address"
        },
        {
          "internalType": "address",
          "name": "to",
          "type": "address"
        },
        {
          "internalType": "uint256[]",
          "name": "ids",
          "type": "uint256[]"
        },
        {
          "internalType": "uint256[]",
          "name": "amounts",
          "type": "uint256[]"
        },
        {
          "internalType": "bytes",
          "name": "data",
          "type": "bytes"
        }
      ],
      "name": "safeBatchTransferFrom",
      "outputs": [],
      "stateMutability": "nonpayable",
      "type": "function"
    },
    {
      "inputs": [
        {
          "internalType": "address",
          "name": "from",
          "type": "address"
        },
        {
          "internalType": "address",
          "name": "to",
          "type": "address"
        },
        {
          "internalType": "uint256",
          "name": "id",
          "type": "uint256"
        },
        {
          "internalType": "uint256",
          "name": "amount",
          "type": "uint256"
        },
        {
          "internalType": "bytes",
          "name": "data",
          "type": "bytes"
        }
      ],
      "name": "safeTransferFrom",
      "outputs": [],
      "stateMutability": "nonpayable",
      "type": "function"
    },
    {
      "inputs": [
        {
          "internalType": "address",
          "name": "operator",
          "type": "address"
        },
        {
          "internalType": "bool",
          "name": "approved",
          "type": "bool"
        }
      ],
      "name": "setApprovalForAll",
      "outputs": [],
      "stateMutability": "nonpayable",
      "type": "function"
    },
    {
      "inputs": [
        {
          "internalType": "bytes4",
          "name": "interfaceId",
          "type": "bytes4"
        }
      ],
      "name": "supportsInterface",
      "outputs": [
        {
          "internalType": "bool",
          "name": "",
          "type": "bool"
        }
      ],
      "stateMutability": "view",
      "type": "function",
      "constant": true
    },
    {
      "inputs": [
        {
          "internalType": "address",
          "name": "newOwner",
          "type": "address"
        }
      ],
      "name": "transferOwnership",
      "outputs": [],
      "stateMutability": "nonpayable",
      "type": "function"
    },
    {
      "inputs": [
        {
          "internalType": "uint256",
          "name": "",
          "type": "uint256"
        }
      ],
      "name": "uri",
      "outputs": [
        {
          "internalType": "string",
          "name": "",
          "type": "string"
        }
      ],
      "stateMutability": "view",
      "type": "function",
      "constant": true
    },
    {
      "inputs": [
        {
          "internalType": "string",
          "name": "uri_",
          "type": "string"
        }
      ],
      "name": "initialize",
      "outputs": [],
      "stateMutability": "nonpayable",
      "type": "function"
    },
    {
      "inputs": [
        {
          "internalType": "address",
          "name": "erc721ContractAddress",
          "type": "address"
        },
        {
          "internalType": "uint256",
          "name": "erc721TokenId",
          "type": "uint256"
        },
        {
          "internalType": "uint256",
          "name": "fractionsAmountToMint",
          "type": "uint256"
        }
      ],
      "name": "depositNft",
      "outputs": [],
      "stateMutability": "nonpayable",
      "type": "function"
    },
    {
      "inputs": [
        {
          "internalType": "uint256",
          "name": "tokenId",
          "type": "uint256"
        }
      ],
      "name": "withdrawNft",
      "outputs": [],
      "stateMutability": "nonpayable",
      "type": "function"
    },
    {
      "inputs": [
        {
          "internalType": "uint256",
          "name": "tokenId",
          "type": "uint256"
        },
        {
          "internalType": "uint256",
          "name": "amount",
          "type": "uint256"
        },
        {
          "internalType": "address",
          "name": "transferer",
          "type": "address"
        }
      ],
      "name": "burn",
      "outputs": [],
      "stateMutability": "nonpayable",
      "type": "function"
    },
    {
      "inputs": [
        {
          "internalType": "address",
          "name": "erc721ContractAddress",
          "type": "address"
        },
        {
          "internalType": "uint256",
          "name": "erc721TokenId",
          "type": "uint256"
        },
        {
          "internalType": "uint256",
          "name": "erc1155TokenId",
          "type": "uint256"
        },
        {
          "internalType": "uint256",
          "name": "erc1155Amount",
          "type": "uint256"
        },
        {
          "internalType": "uint256",
          "name": "totalFractionsAmount",
          "type": "uint256"
        },
        {
          "internalType": "address",
          "name": "transferer",
          "type": "address"
        },
        {
          "internalType": "string",
          "name": "tokenURI",
          "type": "string"
        }
      ],
      "name": "mint",
      "outputs": [],
      "stateMutability": "nonpayable",
      "type": "function"
    },
    {
      "inputs": [
        {
          "internalType": "address",
          "name": "from",
          "type": "address"
        },
        {
          "internalType": "address",
          "name": "to",
          "type": "address"
        },
        {
          "internalType": "uint256",
          "name": "id",
          "type": "uint256"
        },
        {
          "internalType": "uint256",
          "name": "amount",
          "type": "uint256"
        },
        {
          "internalType": "bytes",
          "name": "data",
          "type": "bytes"
        }
      ],
      "name": "transferFrom",
      "outputs": [],
      "stateMutability": "nonpayable",
      "type": "function"
    },
    {
      "inputs": [
        {
          "internalType": "uint256",
          "name": "_tokenId",
          "type": "uint256"
        }
      ],
      "name": "getTokenData",
      "outputs": [
        {
          "internalType": "address",
          "name": "erc721ContractAddress",
          "type": "address"
        },
        {
          "internalType": "uint256",
          "name": "erc721TokenId",
          "type": "uint256"
        },
        {
          "internalType": "uint256",
          "name": "totalFractionsAmount",
          "type": "uint256"
        },
        {
          "internalType": "string",
          "name": "tokenURI",
          "type": "string"
        }
      ],
      "stateMutability": "view",
      "type": "function",
      "constant": true
    },
    {
      "inputs": [
        {
          "internalType": "uint256",
          "name": "_tokenId",
          "type": "uint256"
        }
      ],
      "name": "getTotalFractionsAmount",
      "outputs": [
        {
          "internalType": "uint256",
          "name": "",
          "type": "uint256"
        }
      ],
      "stateMutability": "view",
      "type": "function",
      "constant": true
    },
    {
      "inputs": [
        {
          "internalType": "uint256",
          "name": "_tokenId",
          "type": "uint256"
        }
      ],
      "name": "getErc721ContractAddress",
      "outputs": [
        {
          "internalType": "address",
          "name": "",
          "type": "address"
        }
      ],
      "stateMutability": "view",
      "type": "function",
      "constant": true
    },
    {
      "inputs": [],
      "name": "pause",
      "outputs": [],
      "stateMutability": "nonpayable",
      "type": "function"
    }
  ],
  "bytecode": "0x608060405234801561001057600080fd5b50614c46806100206000396000f3fe608060405234801561001057600080fd5b50600436106101415760003560e01c80638456cb59116100b8578063b09afec11161007c578063b09afec11461035e578063e09a3cb414610391578063e985e9c5146103ad578063f242432a146103dd578063f2fde38b146103f9578063f62d18881461041557610141565b80638456cb59146102e25780638da5cb5b146102ec578063910efae81461030a578063971a584714610326578063a22cb4651461034257610141565b80634e1273f41161010a5780634e1273f4146102225780635c975abb14610252578063605105f01461027057806366d0330c1461028c578063715018a6146102bc578063749388c4146102c657610141565b8062fdd58e1461014657806301ffc9a7146101765780630e89341c146101a65780632eb2c2d6146101d657806333d59207146101f2575b600080fd5b610160600480360381019061015b91906135ca565b610431565b60405161016d9190614669565b60405180910390f35b610190600480360381019061018b9190613777565b6104fb565b60405161019d919061438c565b60405180910390f35b6101c060048036038101906101bb919061384b565b6105dd565b6040516101cd91906143a7565b60405180910390f35b6101f060048036038101906101eb9190613440565b610671565b005b61020c6004803603810190610207919061384b565b610a6a565b6040516102199190614669565b60405180910390f35b61023c6004803603810190610237919061370b565b610a8a565b6040516102499190614333565b60405180910390f35b61025a610c3b565b604051610267919061438c565b60405180910390f35b61028a600480360381019061028591906134ff565b610c52565b005b6102a660048036038101906102a1919061384b565b610cae565b6040516102b391906141d3565b60405180910390f35b6102c4610cee565b005b6102e060048036038101906102db9190613874565b610e2b565b005b6102ea610f51565b005b6102f4610fd7565b60405161030191906141d3565b60405180910390f35b610324600480360381019061031f919061384b565b611001565b005b610340600480360381019061033b9190613655565b611229565b005b61035c6004803603810190610357919061358e565b61146a565b005b6103786004803603810190610373919061384b565b6115eb565b60405161038894939291906142e7565b60405180910390f35b6103ab60048036038101906103a69190613606565b611708565b005b6103c760048036038101906103c29190613404565b611ab3565b6040516103d4919061438c565b60405180910390f35b6103f760048036038101906103f291906134ff565b611b47565b005b610413600480360381019061040e91906133b2565b611e62565b005b61042f600480360381019061042a91906137c9565b61200e565b005b60008073ffffffffffffffffffffffffffffffffffffffff168373ffffffffffffffffffffffffffffffffffffffff1614156104a2576040517f08c379a000000000000000000000000000000000000000000000000000000000815260040161049990614449565b60405180910390fd5b6065600083815260200190815260200160002060008473ffffffffffffffffffffffffffffffffffffffff1673ffffffffffffffffffffffffffffffffffffffff16815260200190815260200160002054905092915050565b60007fd9b67a26000000000000000000000000000000000000000000000000000000007bffffffffffffffffffffffffffffffffffffffffffffffffffffffff1916827bffffffffffffffffffffffffffffffffffffffffffffffffffffffff191614806105c657507f0e89341c000000000000000000000000000000000000000000000000000000007bffffffffffffffffffffffffffffffffffffffffffffffffffffffff1916827bffffffffffffffffffffffffffffffffffffffffffffffffffffffff1916145b806105d657506105d582612111565b5b9050919050565b6060606780546105ec906149d8565b80601f0160208091040260200160405190810160405280929190818152602001828054610618906149d8565b80156106655780601f1061063a57610100808354040283529160200191610665565b820191906000526020600020905b81548152906001019060200180831161064857829003601f168201915b50505050509050919050565b81518351146106b5576040517f08c379a00000000000000000000000000000000000000000000000000000000081526004016106ac90614609565b60405180910390fd5b600073ffffffffffffffffffffffffffffffffffffffff168473ffffffffffffffffffffffffffffffffffffffff161415610725576040517f08c379a000000000000000000000000000000000000000000000000000000000815260040161071c90614509565b60405180910390fd5b61072d61217b565b73ffffffffffffffffffffffffffffffffffffffff168573ffffffffffffffffffffffffffffffffffffffff16148061077357506107728561076d61217b565b611ab3565b5b6107b2576040517f08c379a00000000000000000000000000000000000000000000000000000000081526004016107a990614529565b60405180910390fd5b60006107bc61217b565b90506107cc818787878787612183565b60005b84518110156109d5576000858281518110610813577f4e487b7100000000000000000000000000000000000000000000000000000000600052603260045260246000fd5b602002602001015190506000858381518110610858577f4e487b7100000000000000000000000000000000000000000000000000000000600052603260045260246000fd5b6020026020010151905060006065600084815260200190815260200160002060008b73ffffffffffffffffffffffffffffffffffffffff1673ffffffffffffffffffffffffffffffffffffffff168152602001908152602001600020549050818110156108fa576040517f08c379a00000000000000000000000000000000000000000000000000000000081526004016108f190614589565b60405180910390fd5b818161090691906148ee565b6065600085815260200190815260200160002060008c73ffffffffffffffffffffffffffffffffffffffff1673ffffffffffffffffffffffffffffffffffffffff16815260200190815260200160002081905550816065600085815260200190815260200160002060008b73ffffffffffffffffffffffffffffffffffffffff1673ffffffffffffffffffffffffffffffffffffffff16815260200190815260200160002060008282546109ba9190614898565b92505081905550505050806109ce90614a0a565b90506107cf565b508473ffffffffffffffffffffffffffffffffffffffff168673ffffffffffffffffffffffffffffffffffffffff168273ffffffffffffffffffffffffffffffffffffffff167f4a39dc06d4c0dbc64b70af90fd698a233a518aa5d07e595d983b8c0526c8f7fb8787604051610a4c929190614355565b60405180910390a4610a6281878787878761218b565b505050505050565b600060fc6000838152602001908152602001600020600201549050919050565b60608151835114610ad0576040517f08c379a0000000000000000000000000000000000000000000000000000000008152600401610ac7906145e9565b60405180910390fd5b6000835167ffffffffffffffff811115610b13577f4e487b7100000000000000000000000000000000000000000000000000000000600052604160045260246000fd5b604051908082528060200260200182016040528015610b415781602001602082028036833780820191505090505b50905060005b8451811015610c3057610bda858281518110610b8c577f4e487b7100000000000000000000000000000000000000000000000000000000600052603260045260246000fd5b6020026020010151858381518110610bcd577f4e487b7100000000000000000000000000000000000000000000000000000000600052603260045260246000fd5b6020026020010151610431565b828281518110610c13577f4e487b7100000000000000000000000000000000000000000000000000000000600052603260045260246000fd5b60200260200101818152505080610c2990614a0a565b9050610b47565b508091505092915050565b6000609760009054906101000a900460ff16905090565b610c5a610c3b565b15610c9a576040517f08c379a0000000000000000000000000000000000000000000000000000000008152600401610c9190614649565b60405180910390fd5b610ca78585858585611b47565b5050505050565b600060fc600083815260200190815260200160002060000160009054906101000a900473ffffffffffffffffffffffffffffffffffffffff169050919050565b610cf661217b565b73ffffffffffffffffffffffffffffffffffffffff16610d14610fd7565b73ffffffffffffffffffffffffffffffffffffffff1614610d6a576040517f08c379a0000000000000000000000000000000000000000000000000000000008152600401610d61906145a9565b60405180910390fd5b600073ffffffffffffffffffffffffffffffffffffffff1660c960009054906101000a900473ffffffffffffffffffffffffffffffffffffffff1673ffffffffffffffffffffffffffffffffffffffff167f8be0079c531659141344cd1fd0a4f28419497f9722a3daafe3b4186f6b6457e060405160405180910390a3600060c960006101000a81548173ffffffffffffffffffffffffffffffffffffffff021916908373ffffffffffffffffffffffffffffffffffffffff160217905550565b610e3361217b565b73ffffffffffffffffffffffffffffffffffffffff16610e51610fd7565b73ffffffffffffffffffffffffffffffffffffffff1614610ea7576040517f08c379a0000000000000000000000000000000000000000000000000000000008152600401610e9e906145a9565b60405180910390fd5b610eaf610c3b565b15610eef576040517f08c379a0000000000000000000000000000000000000000000000000000000008152600401610ee690614649565b60405180910390fd5b6000610efb8285610431565b905082811015610f40576040517f08c379a0000000000000000000000000000000000000000000000000000000008152600401610f37906144e9565b60405180910390fd5b610f4b82858561235b565b50505050565b610f5961217b565b73ffffffffffffffffffffffffffffffffffffffff16610f77610fd7565b73ffffffffffffffffffffffffffffffffffffffff1614610fcd576040517f08c379a0000000000000000000000000000000000000000000000000000000008152600401610fc4906145a9565b60405180910390fd5b610fd5612583565b565b600060c960009054906101000a900473ffffffffffffffffffffffffffffffffffffffff16905090565b611009610c3b565b15611049576040517f08c379a000000000000000000000000000000000000000000000000000000000815260040161104090614649565b60405180910390fd5b600060fc600083815260200190815260200160002060020154905060006110703384610431565b90508082146110b4576040517f08c379a00000000000000000000000000000000000000000000000000000000081526004016110ab90614409565b60405180910390fd5b600060fc600085815260200190815260200160002060000160009054906101000a900473ffffffffffffffffffffffffffffffffffffffff169050600060fc600086815260200190815260200160002060010154905060008290508073ffffffffffffffffffffffffffffffffffffffff166323b872dd3033856040518463ffffffff1660e01b815260040161114c93929190614256565b600060405180830381600087803b15801561116657600080fd5b505af115801561117a573d6000803e3d6000fd5b5050505061118933878761235b565b60fc6000878152602001908152602001600020600080820160006101000a81549073ffffffffffffffffffffffffffffffffffffffff0219169055600182016000905560028201600090556003820160006111e49190612faf565b50507f93099f51c64ef1232856a1b30fa669561cf1d6a628ef780bb9ed4f6872c36fff86848460405161121993929190614684565b60405180910390a1505050505050565b61123161217b565b73ffffffffffffffffffffffffffffffffffffffff1661124f610fd7565b73ffffffffffffffffffffffffffffffffffffffff16146112a5576040517f08c379a000000000000000000000000000000000000000000000000000000000815260040161129c906145a9565b60405180910390fd5b6112ad610c3b565b156112ed576040517f08c379a00000000000000000000000000000000000000000000000000000000081526004016112e490614649565b60405180910390fd5b61130882868660405180602001604052806000815250612626565b600073ffffffffffffffffffffffffffffffffffffffff1660fc600087815260200190815260200160002060000160009054906101000a900473ffffffffffffffffffffffffffffffffffffffff1673ffffffffffffffffffffffffffffffffffffffff1614156114615761137b612fef565b87816000019073ffffffffffffffffffffffffffffffffffffffff16908173ffffffffffffffffffffffffffffffffffffffff168152505086816020018181525050838160400181815250508181606001819052508060fc600088815260200190815260200160002060008201518160000160006101000a81548173ffffffffffffffffffffffffffffffffffffffff021916908373ffffffffffffffffffffffffffffffffffffffff1602179055506020820151816001015560408201518160020155606082015181600301908051906020019061145b92919061302d565b50905050505b50505050505050565b8173ffffffffffffffffffffffffffffffffffffffff1661148961217b565b73ffffffffffffffffffffffffffffffffffffffff1614156114e0576040517f08c379a00000000000000000000000000000000000000000000000000000000081526004016114d7906145c9565b60405180910390fd5b80606660006114ed61217b565b73ffffffffffffffffffffffffffffffffffffffff1673ffffffffffffffffffffffffffffffffffffffff16815260200190815260200160002060008473ffffffffffffffffffffffffffffffffffffffff1673ffffffffffffffffffffffffffffffffffffffff16815260200190815260200160002060006101000a81548160ff0219169083151502179055508173ffffffffffffffffffffffffffffffffffffffff1661159a61217b565b73ffffffffffffffffffffffffffffffffffffffff167f17307eab39ab6107e8899845ad3d59bd9653f200f220920489ca2b5937696c31836040516115df919061438c565b60405180910390a35050565b6000806000606060fc600086815260200190815260200160002060000160009054906101000a900473ffffffffffffffffffffffffffffffffffffffff1660fc60008781526020019081526020016000206001015460fc60008881526020019081526020016000206002015460fc6000898152602001908152602001600020600301808054611679906149d8565b80601f01602080910402602001604051908101604052809291908181526020018280546116a5906149d8565b80156116f25780601f106116c7576101008083540402835291602001916116f2565b820191906000526020600020905b8154815290600101906020018083116116d557829003601f168201915b5050505050905093509350935093509193509193565b611710610c3b565b15611750576040517f08c379a000000000000000000000000000000000000000000000000000000000815260040161174790614649565b60405180910390fd5b60008390503373ffffffffffffffffffffffffffffffffffffffff168173ffffffffffffffffffffffffffffffffffffffff16636352211e856040518263ffffffff1660e01b81526004016117a59190614669565b60206040518083038186803b1580156117bd57600080fd5b505afa1580156117d1573d6000803e3d6000fd5b505050506040513d601f19601f820116820180604052508101906117f591906133db565b73ffffffffffffffffffffffffffffffffffffffff161461184b576040517f08c379a000000000000000000000000000000000000000000000000000000000815260040161184290614429565b60405180910390fd5b8073ffffffffffffffffffffffffffffffffffffffff166323b872dd3330866040518463ffffffff1660e01b815260040161188893929190614256565b600060405180830381600087803b1580156118a257600080fd5b505af11580156118b6573d6000803e3d6000fd5b505050506118c460fb6127bd565b60006118d060fb6127d3565b90506118ed33828560405180602001604052806000815250612626565b60608273ffffffffffffffffffffffffffffffffffffffff1663c87b56dd866040518263ffffffff1660e01b81526004016119289190614669565b60006040518083038186803b15801561194057600080fd5b505afa158015611954573d6000803e3d6000fd5b505050506040513d6000823e3d601f19601f8201168201806040525081019061197d919061380a565b9050611987612fef565b86816000019073ffffffffffffffffffffffffffffffffffffffff16908173ffffffffffffffffffffffffffffffffffffffff168152505085816020018181525050848160400181815250508181606001819052508060fc600085815260200190815260200160002060008201518160000160006101000a81548173ffffffffffffffffffffffffffffffffffffffff021916908373ffffffffffffffffffffffffffffffffffffffff16021790555060208201518160010155604082015181600201556060820151816003019080519060200190611a6792919061302d565b509050507fc418f7a91f366be09b65548b396e0f63940f86274faace87fe5e604acd5f43c98388888886604051611aa29594939291906146bb565b60405180910390a150505050505050565b6000606660008473ffffffffffffffffffffffffffffffffffffffff1673ffffffffffffffffffffffffffffffffffffffff16815260200190815260200160002060008373ffffffffffffffffffffffffffffffffffffffff1673ffffffffffffffffffffffffffffffffffffffff16815260200190815260200160002060009054906101000a900460ff16905092915050565b600073ffffffffffffffffffffffffffffffffffffffff168473ffffffffffffffffffffffffffffffffffffffff161415611bb7576040517f08c379a0000000000000000000000000000000000000000000000000000000008152600401611bae90614509565b60405180910390fd5b611bbf61217b565b73ffffffffffffffffffffffffffffffffffffffff168573ffffffffffffffffffffffffffffffffffffffff161480611c055750611c0485611bff61217b565b611ab3565b5b611c44576040517f08c379a0000000000000000000000000000000000000000000000000000000008152600401611c3b906144a9565b60405180910390fd5b6000611c4e61217b565b9050611c6e818787611c5f886127e1565b611c68886127e1565b87612183565b60006065600086815260200190815260200160002060008873ffffffffffffffffffffffffffffffffffffffff1673ffffffffffffffffffffffffffffffffffffffff16815260200190815260200160002054905083811015611d06576040517f08c379a0000000000000000000000000000000000000000000000000000000008152600401611cfd90614589565b60405180910390fd5b8381611d1291906148ee565b6065600087815260200190815260200160002060008973ffffffffffffffffffffffffffffffffffffffff1673ffffffffffffffffffffffffffffffffffffffff16815260200190815260200160002081905550836065600087815260200190815260200160002060008873ffffffffffffffffffffffffffffffffffffffff1673ffffffffffffffffffffffffffffffffffffffff1681526020019081526020016000206000828254611dc69190614898565b925050819055508573ffffffffffffffffffffffffffffffffffffffff168773ffffffffffffffffffffffffffffffffffffffff168373ffffffffffffffffffffffffffffffffffffffff167fc3d58168c5ae7397731d063d5bbf3d657854427343f4c083240f7aacaa2d0f628888604051611e43929190614715565b60405180910390a4611e598288888888886128a7565b50505050505050565b611e6a61217b565b73ffffffffffffffffffffffffffffffffffffffff16611e88610fd7565b73ffffffffffffffffffffffffffffffffffffffff1614611ede576040517f08c379a0000000000000000000000000000000000000000000000000000000008152600401611ed5906145a9565b60405180910390fd5b600073ffffffffffffffffffffffffffffffffffffffff168173ffffffffffffffffffffffffffffffffffffffff161415611f4e576040517f08c379a0000000000000000000000000000000000000000000000000000000008152600401611f4590614469565b60405180910390fd5b8073ffffffffffffffffffffffffffffffffffffffff1660c960009054906101000a900473ffffffffffffffffffffffffffffffffffffffff1673ffffffffffffffffffffffffffffffffffffffff167f8be0079c531659141344cd1fd0a4f28419497f9722a3daafe3b4186f6b6457e060405160405180910390a38060c960006101000a81548173ffffffffffffffffffffffffffffffffffffffff021916908373ffffffffffffffffffffffffffffffffffffffff16021790555050565b600060019054906101000a900460ff1680612034575060008054906101000a900460ff16155b612073576040517f08c379a000000000000000000000000000000000000000000000000000000000815260040161206a90614549565b60405180910390fd5b60008060019054906101000a900460ff1615905080156120c3576001600060016101000a81548160ff02191690831515021790555060016000806101000a81548160ff0219169083151502179055505b6120cb612a77565b6120d3612b50565b6120db612c29565b6120e482612d1d565b6120ec612e00565b801561210d5760008060016101000a81548160ff0219169083151502179055505b5050565b60007f01ffc9a7000000000000000000000000000000000000000000000000000000007bffffffffffffffffffffffffffffffffffffffffffffffffffffffff1916827bffffffffffffffffffffffffffffffffffffffffffffffffffffffff1916149050919050565b600033905090565b505050505050565b6121aa8473ffffffffffffffffffffffffffffffffffffffff16612f82565b15612353578373ffffffffffffffffffffffffffffffffffffffff1663bc197c8187878686866040518663ffffffff1660e01b81526004016121f09594939291906141ee565b602060405180830381600087803b15801561220a57600080fd5b505af192505050801561223b57506040513d601f19601f8201168201806040525081019061223891906137a0565b60015b6122ca57612247614afe565b80612252575061228f565b806040517f08c379a000000000000000000000000000000000000000000000000000000000815260040161228691906143a7565b60405180910390fd5b6040517f08c379a00000000000000000000000000000000000000000000000000000000081526004016122c1906143c9565b60405180910390fd5b63bc197c8160e01b7bffffffffffffffffffffffffffffffffffffffffffffffffffffffff1916817bffffffffffffffffffffffffffffffffffffffffffffffffffffffff191614612351576040517f08c379a0000000000000000000000000000000000000000000000000000000008152600401612348906143e9565b60405180910390fd5b505b505050505050565b600073ffffffffffffffffffffffffffffffffffffffff168373ffffffffffffffffffffffffffffffffffffffff1614156123cb576040517f08c379a00000000000000000000000000000000000000000000000000000000081526004016123c290614569565b60405180910390fd5b60006123d561217b565b9050612405818560006123e7876127e1565b6123f0876127e1565b60405180602001604052806000815250612183565b60006065600085815260200190815260200160002060008673ffffffffffffffffffffffffffffffffffffffff1673ffffffffffffffffffffffffffffffffffffffff1681526020019081526020016000205490508281101561249d576040517f08c379a000000000000000000000000000000000000000000000000000000000815260040161249490614489565b60405180910390fd5b82816124a991906148ee565b6065600086815260200190815260200160002060008773ffffffffffffffffffffffffffffffffffffffff1673ffffffffffffffffffffffffffffffffffffffff16815260200190815260200160002081905550600073ffffffffffffffffffffffffffffffffffffffff168573ffffffffffffffffffffffffffffffffffffffff168373ffffffffffffffffffffffffffffffffffffffff167fc3d58168c5ae7397731d063d5bbf3d657854427343f4c083240f7aacaa2d0f628787604051612574929190614715565b60405180910390a45050505050565b61258b610c3b565b156125cb576040517f08c379a00000000000000000000000000000000000000000000000000000000081526004016125c2906144c9565b60405180910390fd5b6001609760006101000a81548160ff0219169083151502179055507f62e78cea01bee320cd4e420270b5ea74000d11b0c9f74754ebdbfc544b05a25861260f61217b565b60405161261c91906141d3565b60405180910390a1565b600073ffffffffffffffffffffffffffffffffffffffff168473ffffffffffffffffffffffffffffffffffffffff161415612696576040517f08c379a000000000000000000000000000000000000000000000000000000000815260040161268d90614629565b60405180910390fd5b60006126a061217b565b90506126c1816000876126b2886127e1565b6126bb886127e1565b87612183565b826065600086815260200190815260200160002060008773ffffffffffffffffffffffffffffffffffffffff1673ffffffffffffffffffffffffffffffffffffffff16815260200190815260200160002060008282546127219190614898565b925050819055508473ffffffffffffffffffffffffffffffffffffffff16600073ffffffffffffffffffffffffffffffffffffffff168273ffffffffffffffffffffffffffffffffffffffff167fc3d58168c5ae7397731d063d5bbf3d657854427343f4c083240f7aacaa2d0f62878760405161279f929190614715565b60405180910390a46127b6816000878787876128a7565b5050505050565b6001816000016000828254019250508190555050565b600081600001549050919050565b60606000600167ffffffffffffffff811115612826577f4e487b7100000000000000000000000000000000000000000000000000000000600052604160045260246000fd5b6040519080825280602002602001820160405280156128545781602001602082028036833780820191505090505b5090508281600081518110612892577f4e487b7100000000000000000000000000000000000000000000000000000000600052603260045260246000fd5b60200260200101818152505080915050919050565b6128c68473ffffffffffffffffffffffffffffffffffffffff16612f82565b15612a6f578373ffffffffffffffffffffffffffffffffffffffff1663f23a6e6187878686866040518663ffffffff1660e01b815260040161290c95949392919061428d565b602060405180830381600087803b15801561292657600080fd5b505af192505050801561295757506040513d601f19601f8201168201806040525081019061295491906137a0565b60015b6129e657612963614afe565b8061296e57506129ab565b806040517f08c379a00000000000000000000000000000000000000000000000000000000081526004016129a291906143a7565b60405180910390fd5b6040517f08c379a00000000000000000000000000000000000000000000000000000000081526004016129dd906143c9565b60405180910390fd5b63f23a6e6160e01b7bffffffffffffffffffffffffffffffffffffffffffffffffffffffff1916817bffffffffffffffffffffffffffffffffffffffffffffffffffffffff191614612a6d576040517f08c379a0000000000000000000000000000000000000000000000000000000008152600401612a64906143e9565b60405180910390fd5b505b505050505050565b600060019054906101000a900460ff1680612a9d575060008054906101000a900460ff16155b612adc576040517f08c379a0000000000000000000000000000000000000000000000000000000008152600401612ad390614549565b60405180910390fd5b60008060019054906101000a900460ff161590508015612b2c576001600060016101000a81548160ff02191690831515021790555060016000806101000a81548160ff0219169083151502179055505b8015612b4d5760008060016101000a81548160ff0219169083151502179055505b50565b600060019054906101000a900460ff1680612b76575060008054906101000a900460ff16155b612bb5576040517f08c379a0000000000000000000000000000000000000000000000000000000008152600401612bac90614549565b60405180910390fd5b60008060019054906101000a900460ff161590508015612c05576001600060016101000a81548160ff02191690831515021790555060016000806101000a81548160ff0219169083151502179055505b8015612c265760008060016101000a81548160ff0219169083151502179055505b50565b600060019054906101000a900460ff1680612c4f575060008054906101000a900460ff16155b612c8e576040517f08c379a0000000000000000000000000000000000000000000000000000000008152600401612c8590614549565b60405180910390fd5b60008060019054906101000a900460ff161590508015612cde576001600060016101000a81548160ff02191690831515021790555060016000806101000a81548160ff0219169083151502179055505b6000609760006101000a81548160ff0219169083151502179055508015612d1a5760008060016101000a81548160ff0219169083151502179055505b50565b600060019054906101000a900460ff1680612d43575060008054906101000a900460ff16155b612d82576040517f08c379a0000000000000000000000000000000000000000000000000000000008152600401612d7990614549565b60405180910390fd5b60008060019054906101000a900460ff161590508015612dd2576001600060016101000a81548160ff02191690831515021790555060016000806101000a81548160ff0219169083151502179055505b612ddb82612f95565b8015612dfc5760008060016101000a81548160ff0219169083151502179055505b5050565b600060019054906101000a900460ff1680612e26575060008054906101000a900460ff16155b612e65576040517f08c379a0000000000000000000000000000000000000000000000000000000008152600401612e5c90614549565b60405180910390fd5b60008060019054906101000a900460ff161590508015612eb5576001600060016101000a81548160ff02191690831515021790555060016000806101000a81548160ff0219169083151502179055505b6000612ebf61217b565b90508060c960006101000a81548173ffffffffffffffffffffffffffffffffffffffff021916908373ffffffffffffffffffffffffffffffffffffffff1602179055508073ffffffffffffffffffffffffffffffffffffffff16600073ffffffffffffffffffffffffffffffffffffffff167f8be0079c531659141344cd1fd0a4f28419497f9722a3daafe3b4186f6b6457e060405160405180910390a3508015612f7f5760008060016101000a81548160ff0219169083151502179055505b50565b600080823b905060008111915050919050565b8060679080519060200190612fab92919061302d565b5050565b508054612fbb906149d8565b6000825580601f10612fcd5750612fec565b601f016020900490600052602060002090810190612feb91906130b3565b5b50565b6040518060800160405280600073ffffffffffffffffffffffffffffffffffffffff1681526020016000815260200160008152602001606081525090565b828054613039906149d8565b90600052602060002090601f01602090048101928261305b57600085556130a2565b82601f1061307457805160ff19168380011785556130a2565b828001600101855582156130a2579182015b828111156130a1578251825591602001919060010190613086565b5b5090506130af91906130b3565b5090565b5b808211156130cc5760008160009055506001016130b4565b5090565b60006130e36130de8461476f565b61473e565b9050808382526020820190508285602086028201111561310257600080fd5b60005b8581101561313257816131188882613262565b845260208401935060208301925050600181019050613105565b5050509392505050565b600061314f61314a8461479b565b61473e565b9050808382526020820190508285602086028201111561316e57600080fd5b60005b8581101561319e5781613184888261339d565b845260208401935060208301925050600181019050613171565b5050509392505050565b60006131bb6131b6846147c7565b61473e565b9050828152602081018484840111156131d357600080fd5b6131de848285614996565b509392505050565b60006131f96131f4846147f7565b61473e565b90508281526020810184848401111561321157600080fd5b61321c848285614996565b509392505050565b6000613237613232846147f7565b61473e565b90508281526020810184848401111561324f57600080fd5b61325a8482856149a5565b509392505050565b60008135905061327181614bb4565b92915050565b60008151905061328681614bb4565b92915050565b600082601f83011261329d57600080fd5b81356132ad8482602086016130d0565b91505092915050565b600082601f8301126132c757600080fd5b81356132d784826020860161313c565b91505092915050565b6000813590506132ef81614bcb565b92915050565b60008135905061330481614be2565b92915050565b60008151905061331981614be2565b92915050565b600082601f83011261333057600080fd5b81356133408482602086016131a8565b91505092915050565b600082601f83011261335a57600080fd5b813561336a8482602086016131e6565b91505092915050565b600082601f83011261338457600080fd5b8151613394848260208601613224565b91505092915050565b6000813590506133ac81614bf9565b92915050565b6000602082840312156133c457600080fd5b60006133d284828501613262565b91505092915050565b6000602082840312156133ed57600080fd5b60006133fb84828501613277565b91505092915050565b6000806040838503121561341757600080fd5b600061342585828601613262565b925050602061343685828601613262565b9150509250929050565b600080600080600060a0868803121561345857600080fd5b600061346688828901613262565b955050602061347788828901613262565b945050604086013567ffffffffffffffff81111561349457600080fd5b6134a0888289016132b6565b935050606086013567ffffffffffffffff8111156134bd57600080fd5b6134c9888289016132b6565b925050608086013567ffffffffffffffff8111156134e657600080fd5b6134f28882890161331f565b9150509295509295909350565b600080600080600060a0868803121561351757600080fd5b600061352588828901613262565b955050602061353688828901613262565b94505060406135478882890161339d565b93505060606135588882890161339d565b925050608086013567ffffffffffffffff81111561357557600080fd5b6135818882890161331f565b9150509295509295909350565b600080604083850312156135a157600080fd5b60006135af85828601613262565b92505060206135c0858286016132e0565b9150509250929050565b600080604083850312156135dd57600080fd5b60006135eb85828601613262565b92505060206135fc8582860161339d565b9150509250929050565b60008060006060848603121561361b57600080fd5b600061362986828701613262565b935050602061363a8682870161339d565b925050604061364b8682870161339d565b9150509250925092565b600080600080600080600060e0888a03121561367057600080fd5b600061367e8a828b01613262565b975050602061368f8a828b0161339d565b96505060406136a08a828b0161339d565b95505060606136b18a828b0161339d565b94505060806136c28a828b0161339d565b93505060a06136d38a828b01613262565b92505060c088013567ffffffffffffffff8111156136f057600080fd5b6136fc8a828b01613349565b91505092959891949750929550565b6000806040838503121561371e57600080fd5b600083013567ffffffffffffffff81111561373857600080fd5b6137448582860161328c565b925050602083013567ffffffffffffffff81111561376157600080fd5b61376d858286016132b6565b9150509250929050565b60006020828403121561378957600080fd5b6000613797848285016132f5565b91505092915050565b6000602082840312156137b257600080fd5b60006137c08482850161330a565b91505092915050565b6000602082840312156137db57600080fd5b600082013567ffffffffffffffff8111156137f557600080fd5b61380184828501613349565b91505092915050565b60006020828403121561381c57600080fd5b600082015167ffffffffffffffff81111561383657600080fd5b61384284828501613373565b91505092915050565b60006020828403121561385d57600080fd5b600061386b8482850161339d565b91505092915050565b60008060006060848603121561388957600080fd5b60006138978682870161339d565b93505060206138a88682870161339d565b92505060406138b986828701613262565b9150509250925092565b60006138cf83836141b5565b60208301905092915050565b6138e481614922565b82525050565b60006138f582614837565b6138ff8185614865565b935061390a83614827565b8060005b8381101561393b57815161392288826138c3565b975061392d83614858565b92505060018101905061390e565b5085935050505092915050565b61395181614934565b82525050565b600061396282614842565b61396c8185614876565b935061397c8185602086016149a5565b61398581614ae0565b840191505092915050565b600061399b8261484d565b6139a58185614887565b93506139b58185602086016149a5565b6139be81614ae0565b840191505092915050565b60006139d6603483614887565b91507f455243313135353a207472616e7366657220746f206e6f6e204552433131353560008301527f526563656976657220696d706c656d656e7465720000000000000000000000006020830152604082019050919050565b6000613a3c602883614887565b91507f455243313135353a204552433131353552656365697665722072656a6563746560008301527f6420746f6b656e730000000000000000000000000000000000000000000000006020830152604082019050919050565b6000613aa2602b83614887565b91507f6d6573736167652073656e6465722068617320746f206f776e20616c6c206f6660008301527f20746865207368617265730000000000000000000000000000000000000000006020830152604082019050919050565b6000613b08602a83614887565b91507f6d73672073656e6465722068617320746f206f776e2074686520746f6b656e2060008301527f746f206465706f736974000000000000000000000000000000000000000000006020830152604082019050919050565b6000613b6e602b83614887565b91507f455243313135353a2062616c616e636520717565727920666f7220746865207a60008301527f65726f20616464726573730000000000000000000000000000000000000000006020830152604082019050919050565b6000613bd4602683614887565b91507f4f776e61626c653a206e6577206f776e657220697320746865207a65726f206160008301527f64647265737300000000000000000000000000000000000000000000000000006020830152604082019050919050565b6000613c3a602483614887565b91507f455243313135353a206275726e20616d6f756e7420657863656564732062616c60008301527f616e6365000000000000000000000000000000000000000000000000000000006020830152604082019050919050565b6000613ca0602983614887565b91507f455243313135353a2063616c6c6572206973206e6f74206f776e6572206e6f7260008301527f20617070726f76656400000000000000000000000000000000000000000000006020830152604082019050919050565b6000613d06601083614887565b91507f5061757361626c653a20706175736564000000000000000000000000000000006000830152602082019050919050565b6000613d46604083614887565b91507f7472616e7366657265722068617320746f206f776e20657175616c206f72206d60008301527f6f726520736861726573207468616e2074686520676976656e20616d6f756e746020830152604082019050919050565b6000613dac602583614887565b91507f455243313135353a207472616e7366657220746f20746865207a65726f20616460008301527f64726573730000000000000000000000000000000000000000000000000000006020830152604082019050919050565b6000613e12603283614887565b91507f455243313135353a207472616e736665722063616c6c6572206973206e6f742060008301527f6f776e6572206e6f7220617070726f76656400000000000000000000000000006020830152604082019050919050565b6000613e78602e83614887565b91507f496e697469616c697a61626c653a20636f6e747261637420697320616c72656160008301527f647920696e697469616c697a65640000000000000000000000000000000000006020830152604082019050919050565b6000613ede602383614887565b91507f455243313135353a206275726e2066726f6d20746865207a65726f206164647260008301527f65737300000000000000000000000000000000000000000000000000000000006020830152604082019050919050565b6000613f44602a83614887565b91507f455243313135353a20696e73756666696369656e742062616c616e636520666f60008301527f72207472616e73666572000000000000000000000000000000000000000000006020830152604082019050919050565b6000613faa602083614887565b91507f4f776e61626c653a2063616c6c6572206973206e6f7420746865206f776e65726000830152602082019050919050565b6000613fea602983614887565b91507f455243313135353a2073657474696e6720617070726f76616c2073746174757360008301527f20666f722073656c6600000000000000000000000000000000000000000000006020830152604082019050919050565b6000614050602983614887565b91507f455243313135353a206163636f756e747320616e6420696473206c656e67746860008301527f206d69736d6174636800000000000000000000000000000000000000000000006020830152604082019050919050565b60006140b6602883614887565b91507f455243313135353a2069647320616e6420616d6f756e7473206c656e6774682060008301527f6d69736d617463680000000000000000000000000000000000000000000000006020830152604082019050919050565b600061411c602183614887565b91507f455243313135353a206d696e7420746f20746865207a65726f2061646472657360008301527f73000000000000000000000000000000000000000000000000000000000000006020830152604082019050919050565b6000614182601883614887565b91507f4e6f7420616c6c6f776564207768696c652070617573656400000000000000006000830152602082019050919050565b6141be8161498c565b82525050565b6141cd8161498c565b82525050565b60006020820190506141e860008301846138db565b92915050565b600060a08201905061420360008301886138db565b61421060208301876138db565b818103604083015261422281866138ea565b9050818103606083015261423681856138ea565b9050818103608083015261424a8184613957565b90509695505050505050565b600060608201905061426b60008301866138db565b61427860208301856138db565b61428560408301846141c4565b949350505050565b600060a0820190506142a260008301886138db565b6142af60208301876138db565b6142bc60408301866141c4565b6142c960608301856141c4565b81810360808301526142db8184613957565b90509695505050505050565b60006080820190506142fc60008301876138db565b61430960208301866141c4565b61431660408301856141c4565b81810360608301526143288184613990565b905095945050505050565b6000602082019050818103600083015261434d81846138ea565b905092915050565b6000604082019050818103600083015261436f81856138ea565b9050818103602083015261438381846138ea565b90509392505050565b60006020820190506143a16000830184613948565b92915050565b600060208201905081810360008301526143c18184613990565b905092915050565b600060208201905081810360008301526143e2816139c9565b9050919050565b6000602082019050818103600083015261440281613a2f565b9050919050565b6000602082019050818103600083015261442281613a95565b9050919050565b6000602082019050818103600083015261444281613afb565b9050919050565b6000602082019050818103600083015261446281613b61565b9050919050565b6000602082019050818103600083015261448281613bc7565b9050919050565b600060208201905081810360008301526144a281613c2d565b9050919050565b600060208201905081810360008301526144c281613c93565b9050919050565b600060208201905081810360008301526144e281613cf9565b9050919050565b6000602082019050818103600083015261450281613d39565b9050919050565b6000602082019050818103600083015261452281613d9f565b9050919050565b6000602082019050818103600083015261454281613e05565b9050919050565b6000602082019050818103600083015261456281613e6b565b9050919050565b6000602082019050818103600083015261458281613ed1565b9050919050565b600060208201905081810360008301526145a281613f37565b9050919050565b600060208201905081810360008301526145c281613f9d565b9050919050565b600060208201905081810360008301526145e281613fdd565b9050919050565b6000602082019050818103600083015261460281614043565b9050919050565b60006020820190508181036000830152614622816140a9565b9050919050565b600060208201905081810360008301526146428161410f565b9050919050565b6000602082019050818103600083015261466281614175565b9050919050565b600060208201905061467e60008301846141c4565b92915050565b600060608201905061469960008301866141c4565b6146a660208301856138db565b6146b360408301846141c4565b949350505050565b600060a0820190506146d060008301886141c4565b6146dd60208301876138db565b6146ea60408301866141c4565b6146f760608301856141c4565b81810360808301526147098184613990565b90509695505050505050565b600060408201905061472a60008301856141c4565b61473760208301846141c4565b9392505050565b6000604051905081810181811067ffffffffffffffff8211171561476557614764614ab1565b5b8060405250919050565b600067ffffffffffffffff82111561478a57614789614ab1565b5b602082029050602081019050919050565b600067ffffffffffffffff8211156147b6576147b5614ab1565b5b602082029050602081019050919050565b600067ffffffffffffffff8211156147e2576147e1614ab1565b5b601f19601f8301169050602081019050919050565b600067ffffffffffffffff82111561481257614811614ab1565b5b601f19601f8301169050602081019050919050565b6000819050602082019050919050565b600081519050919050565b600081519050919050565b600081519050919050565b6000602082019050919050565b600082825260208201905092915050565b600082825260208201905092915050565b600082825260208201905092915050565b60006148a38261498c565b91506148ae8361498c565b9250827fffffffffffffffffffffffffffffffffffffffffffffffffffffffffffffffff038211156148e3576148e2614a53565b5b828201905092915050565b60006148f98261498c565b91506149048361498c565b92508282101561491757614916614a53565b5b828203905092915050565b600061492d8261496c565b9050919050565b60008115159050919050565b60007fffffffff0000000000000000000000000000000000000000000000000000000082169050919050565b600073ffffffffffffffffffffffffffffffffffffffff82169050919050565b6000819050919050565b82818337600083830152505050565b60005b838110156149c35780820151818401526020810190506149a8565b838111156149d2576000848401525b50505050565b600060028204905060018216806149f057607f821691505b60208210811415614a0457614a03614a82565b5b50919050565b6000614a158261498c565b91507fffffffffffffffffffffffffffffffffffffffffffffffffffffffffffffffff821415614a4857614a47614a53565b5b600182019050919050565b7f4e487b7100000000000000000000000000000000000000000000000000000000600052601160045260246000fd5b7f4e487b7100000000000000000000000000000000000000000000000000000000600052602260045260246000fd5b7f4e487b7100000000000000000000000000000000000000000000000000000000600052604160045260246000fd5b6000601f19601f8301169050919050565b60008160e01c9050919050565b600060443d1015614b0e57614bb1565b60046000803e614b1f600051614af1565b6308c379a08114614b305750614bb1565b60405160043d036004823e80513d602482011167ffffffffffffffff82111715614b5c57505050614bb1565b808201805167ffffffffffffffff811115614b7b575050505050614bb1565b8060208301013d8501811115614b9657505050505050614bb1565b614b9f82614ae0565b60208401016040528296505050505050505b90565b614bbd81614922565b8114614bc857600080fd5b50565b614bd481614934565b8114614bdf57600080fd5b50565b614beb81614940565b8114614bf657600080fd5b50565b614c028161498c565b8114614c0d57600080fd5b5056fea2646970667358221220a57bee9d4ef33132ce6a138ed83cb28d4deafeda0510c7f418ac4f2e4bf9195b64736f6c63430008000033",
  "immutableReferences": {},
  "source": "// SPDX-License-Identifier: MIT\n\npragma solidity ^0.8.0;\n\nimport \"@openzeppelin/contracts-upgradeable/token/ERC1155/ERC1155Upgradeable.sol\";\nimport \"@openzeppelin/contracts-upgradeable/security/PausableUpgradeable.sol\";\nimport \"@openzeppelin/contracts-upgradeable/proxy/utils/Initializable.sol\";\nimport \"@openzeppelin/contracts/token/ERC721/extensions/ERC721URIStorage.sol\";\nimport \"@openzeppelin/contracts-upgradeable/utils/CountersUpgradeable.sol\";\nimport \"@openzeppelin/contracts-upgradeable/access/OwnableUpgradeable.sol\";\nimport \"./INftFractionsRepository.sol\";\n\ncontract MaticNftFractionsRepository is\n    Initializable,\n    ERC1155Upgradeable,\n    PausableUpgradeable,\n    OwnableUpgradeable,\n    INftFractionsRepository\n{\n    using CountersUpgradeable for CountersUpgradeable.Counter;\n\n    struct Token {\n        address erc721ContractAddress;\n        uint256 erc721TokenId;\n        uint256 totalFractionsAmount;\n        string tokenURI;\n    }\n\n    event DepositNft(\n        uint256 erc1155TokenId,\n        address erc721ContractAddress,\n        uint256 erc721TokenId,\n        uint256 totalFractionsAmount,\n        string tokenURI\n    );\n\n    event WithdrawNft(\n        uint256 erc1155TokenId,\n        address erc721ContractAddress,\n        uint256 erc721TokenId\n    );\n\n    CountersUpgradeable.Counter private _ids;\n    mapping(uint256 => Token) tokens;\n\n    function initialize(string memory uri_) public initializer {\n        __Context_init_unchained();\n        __ERC165_init_unchained();\n        __Pausable_init_unchained();\n        __ERC1155_init_unchained(uri_);\n        __Ownable_init_unchained();\n    }\n\n    /**\n     * @dev Deposit an ERC721 token and mints an ERC1155 token with the given fractions amount\n     * the original ERC721 token is transferred to the address of this smart contract.\n     * Before calling this function the user has to call the apporve function on the original NFT contract and\n     * approve this smart contract to transfer his NFT.\n     *\n     * Requirements:\n     * - msg.sender has to own the token that is deposited\n     * - the contract is not paused\n     */\n    function depositNft(\n        address erc721ContractAddress,\n        uint256 erc721TokenId,\n        uint256 fractionsAmountToMint\n    ) external override {\n        require(!paused(), \"Not allowed while paused\");\n        ERC721URIStorage erc721Contract = ERC721URIStorage(\n            erc721ContractAddress\n        );\n        require(\n            erc721Contract.ownerOf(erc721TokenId) == msg.sender,\n            \"msg sender has to own the token to deposit\"\n        );\n        erc721Contract.transferFrom(msg.sender, address(this), erc721TokenId);\n        _ids.increment();\n        uint256 newItemId = _ids.current();\n        _mint(msg.sender, newItemId, fractionsAmountToMint, \"\");\n        string memory tokenURI;\n        tokenURI = erc721Contract.tokenURI(erc721TokenId);\n        Token memory token;\n        token.erc721ContractAddress = erc721ContractAddress;\n        token.erc721TokenId = erc721TokenId;\n        token.totalFractionsAmount = fractionsAmountToMint;\n        token.tokenURI = tokenURI;\n        tokens[newItemId] = token;\n\n        emit DepositNft(\n            newItemId,\n            erc721ContractAddress,\n            erc721TokenId,\n            fractionsAmountToMint,\n            tokenURI\n        );\n    }\n\n    /**\n     * @dev Withdraw an ERC721 token from this contract. The message sender has to own all of the shares in\n     * the correspondign ERC1155 token.\n     * Successfull withdraw means:\n     * - burning the ERC1155 token\n     * - transfering the ERC721 token to the owner (msg.sender) = owner of all shares in the ERC1155 token\n     *\n     * Requirements:\n     * - msg.sender has to own all shares in the corresponding ERC1155 token\n     * - the contract is not paused\n     */\n    function withdrawNft(uint256 tokenId) external override {\n        require(!paused(), \"Not allowed while paused\");\n        uint256 totalFractionsAmount = tokens[tokenId].totalFractionsAmount;\n        uint256 sendersAmount = balanceOf(msg.sender, tokenId);\n        require(\n            totalFractionsAmount == sendersAmount,\n            \"message sender has to own all of the shares\"\n        );\n        //sends the original token in the ERC721 contract\n        address erc721ContractAddress = tokens[tokenId].erc721ContractAddress;\n        uint256 erc721TokenId = tokens[tokenId].erc721TokenId;\n        IERC721 erc721Contract = IERC721(erc721ContractAddress);\n        erc721Contract.transferFrom(address(this), msg.sender, erc721TokenId);\n        //burns the ERC1155 token\n        _burn(msg.sender, tokenId, totalFractionsAmount);\n        //deletes the token struct\n        delete tokens[tokenId];\n\n        emit WithdrawNft(tokenId, erc721ContractAddress, erc721TokenId);\n    }\n\n    /**\n     * @dev when someone transfers his tokens to the other chain the bridge contract will call this burn function\n     * The bridge contract is the owner of NftFractionsRepository.\n     *\n     * Requirements:\n     * - only the owner (the bridge contract) can call\n     * - the contract is not paused\n     */\n    function burn(\n        uint256 tokenId,\n        uint256 amount,\n        address transferer\n    ) external override onlyOwner() {\n        require(!paused(), \"Not allowed while paused\");\n        uint256 transferersAmount = balanceOf(transferer, tokenId);\n        require(\n            transferersAmount >= amount,\n            \"transferer has to own equal or more shares than the given amount\"\n        );\n        //burns the shares from ERC1155 token\n        _burn(transferer, tokenId, amount);\n    }\n\n    /**\n     * @dev when someone transfers his tokens from the other chain to this chain the bridge contract will call this mint function\n     *\n     * Requirements:\n     * - only the owner (the bridge contract) can call\n     * - the contract is not paused\n     */\n    function mint(\n        address erc721ContractAddress,\n        uint256 erc721TokenId,\n        uint256 erc1155TokenId,\n        uint256 erc1155Amount,\n        uint256 totalFractionsAmount,\n        address transferer,\n        string memory tokenURI\n    ) external override onlyOwner() {\n        require(!paused(), \"Not allowed while paused\");\n        _mint(transferer, erc1155TokenId, erc1155Amount, \"\");\n        // if the token does not exist in this chain yet\n        if (tokens[erc1155TokenId].erc721ContractAddress == address(0)) {\n            Token memory token;\n            token.erc721ContractAddress = erc721ContractAddress;\n            token.erc721TokenId = erc721TokenId;\n            token.totalFractionsAmount = totalFractionsAmount;\n            token.tokenURI = tokenURI;\n            tokens[erc1155TokenId] = token;\n        }\n    }\n\n    /**\n     * @dev same as safeTransferFrom in ERC1155 with updating the internal data structures:\n     * - updates the ownersByTokenId data structure\n     * - updates the tokenIdsByShareOwner data structure\n     */\n    function transferFrom(\n        address from,\n        address to,\n        uint256 id,\n        uint256 amount,\n        bytes memory data\n    ) external override {\n        require(!paused(), \"Not allowed while paused\");\n        safeTransferFrom(from, to, id, amount, data);\n    }\n\n    /**\n     * @dev returns relevant token data:\n     * - original ERC721 contract address\n     * - original ERC721 token id\n     * - amount of fractions minted\n     */\n    function getTokenData(uint256 _tokenId)\n        public\n        view\n        returns (\n            address erc721ContractAddress,\n            uint256 erc721TokenId,\n            uint256 totalFractionsAmount,\n            string memory tokenURI\n        )\n    {\n        return (\n            tokens[_tokenId].erc721ContractAddress,\n            tokens[_tokenId].erc721TokenId,\n            tokens[_tokenId].totalFractionsAmount,\n            tokens[_tokenId].tokenURI\n        );\n    }\n\n    /**\n     * @dev returns amount of fractions minted for a token\n     */\n    function getTotalFractionsAmount(uint256 _tokenId)\n        external\n        view\n        override\n        returns (uint256)\n    {\n        return (tokens[_tokenId].totalFractionsAmount);\n    }\n\n    /**\n     * @dev returns original ERC721 contract address for a token\n     */\n    function getErc721ContractAddress(uint256 _tokenId)\n        external\n        view\n        override\n        returns (address)\n    {\n        return (tokens[_tokenId].erc721ContractAddress);\n    }\n\n    function pause() public onlyOwner() {\n        _pause();\n    }\n}\n",
  "sourcePath": "/Users/szabolcs/Documents/Personal/Szakmai/Ethereum/nft-fractions-dex/contracts/MaticNftFractionsRepository.sol",
  "compiler": {
    "name": "solc",
    "version": "0.8.0+commit.c7dfd78e.Emscripten.clang"
  },
  "schemaVersion": "3.3.4",
  "updatedAt": "2021-07-07T15:34:39.722Z",
  "networkType": "ethereum",
  "devdoc": {
    "kind": "dev",
    "methods": {
      "balanceOf(address,uint256)": {
        "details": "See {IERC1155-balanceOf}. Requirements: - `account` cannot be the zero address."
      },
      "balanceOfBatch(address[],uint256[])": {
        "details": "See {IERC1155-balanceOfBatch}. Requirements: - `accounts` and `ids` must have the same length."
      },
      "burn(uint256,uint256,address)": {
        "details": "when someone transfers his tokens to the other chain the bridge contract will call this burn function The bridge contract is the owner of NftFractionsRepository. Requirements: - only the owner (the bridge contract) can call - the contract is not paused"
      },
      "depositNft(address,uint256,uint256)": {
        "details": "Deposit an ERC721 token and mints an ERC1155 token with the given fractions amount the original ERC721 token is transferred to the address of this smart contract. Before calling this function the user has to call the apporve function on the original NFT contract and approve this smart contract to transfer his NFT. Requirements: - msg.sender has to own the token that is deposited - the contract is not paused"
      },
      "getErc721ContractAddress(uint256)": {
        "details": "returns original ERC721 contract address for a token"
      },
      "getTokenData(uint256)": {
        "details": "returns relevant token data: - original ERC721 contract address - original ERC721 token id - amount of fractions minted"
      },
      "getTotalFractionsAmount(uint256)": {
        "details": "returns amount of fractions minted for a token"
      },
      "isApprovedForAll(address,address)": {
        "details": "See {IERC1155-isApprovedForAll}."
      },
      "mint(address,uint256,uint256,uint256,uint256,address,string)": {
        "details": "when someone transfers his tokens from the other chain to this chain the bridge contract will call this mint function Requirements: - only the owner (the bridge contract) can call - the contract is not paused"
      },
      "owner()": {
        "details": "Returns the address of the current owner."
      },
      "paused()": {
        "details": "Returns true if the contract is paused, and false otherwise."
      },
      "renounceOwnership()": {
        "details": "Leaves the contract without owner. It will not be possible to call `onlyOwner` functions anymore. Can only be called by the current owner. NOTE: Renouncing ownership will leave the contract without an owner, thereby removing any functionality that is only available to the owner."
      },
      "safeBatchTransferFrom(address,address,uint256[],uint256[],bytes)": {
        "details": "See {IERC1155-safeBatchTransferFrom}."
      },
      "safeTransferFrom(address,address,uint256,uint256,bytes)": {
        "details": "See {IERC1155-safeTransferFrom}."
      },
      "setApprovalForAll(address,bool)": {
        "details": "See {IERC1155-setApprovalForAll}."
      },
      "supportsInterface(bytes4)": {
        "details": "See {IERC165-supportsInterface}."
      },
      "transferFrom(address,address,uint256,uint256,bytes)": {
        "details": "same as safeTransferFrom in ERC1155 with updating the internal data structures: - updates the ownersByTokenId data structure - updates the tokenIdsByShareOwner data structure"
      },
      "transferOwnership(address)": {
        "details": "Transfers ownership of the contract to a new account (`newOwner`). Can only be called by the current owner."
      },
      "uri(uint256)": {
        "details": "See {IERC1155MetadataURI-uri}. This implementation returns the same URI for *all* token types. It relies on the token type ID substitution mechanism https://eips.ethereum.org/EIPS/eip-1155#metadata[defined in the EIP]. Clients calling this function must replace the `\\{id\\}` substring with the actual token type ID."
      },
      "withdrawNft(uint256)": {
        "details": "Withdraw an ERC721 token from this contract. The message sender has to own all of the shares in the correspondign ERC1155 token. Successfull withdraw means: - burning the ERC1155 token - transfering the ERC721 token to the owner (msg.sender) = owner of all shares in the ERC1155 token Requirements: - msg.sender has to own all shares in the corresponding ERC1155 token - the contract is not paused"
      }
    },
    "version": 1
  },
  "userdoc": {
    "kind": "user",
    "methods": {},
    "version": 1
  }
}