{
  "contractName": "MaticDex",
  "abi": [
    {
      "anonymous": false,
      "inputs": [
        {
          "indexed": false,
          "internalType": "address",
          "name": "account",
          "type": "address"
        },
        {
          "indexed": false,
          "internalType": "uint256",
          "name": "balance",
          "type": "uint256"
        }
      ],
      "name": "EthBalanceChange",
      "type": "event"
    },
    {
      "anonymous": false,
      "inputs": [
        {
          "indexed": false,
          "internalType": "address",
          "name": "account",
          "type": "address"
        },
        {
          "indexed": false,
          "internalType": "uint256",
          "name": "balance",
          "type": "uint256"
        }
      ],
      "name": "EthReservedBalanceChange",
      "type": "event"
    },
    {
      "anonymous": false,
      "inputs": [
        {
          "indexed": false,
          "internalType": "uint256",
          "name": "orderId",
          "type": "uint256"
        },
        {
          "indexed": false,
          "internalType": "uint256",
          "name": "tokenId",
          "type": "uint256"
        },
        {
          "indexed": false,
          "internalType": "address",
          "name": "trader1",
          "type": "address"
        },
        {
          "indexed": false,
          "internalType": "address",
          "name": "trader2",
          "type": "address"
        },
        {
          "indexed": false,
          "internalType": "uint256",
          "name": "amount",
          "type": "uint256"
        },
        {
          "indexed": false,
          "internalType": "uint256",
          "name": "price",
          "type": "uint256"
        },
        {
          "indexed": false,
          "internalType": "uint256",
          "name": "date",
          "type": "uint256"
        }
      ],
      "name": "NewTrade",
      "type": "event"
    },
    {
      "anonymous": false,
      "inputs": [
        {
          "indexed": false,
          "internalType": "uint256",
          "name": "orderId",
          "type": "uint256"
        }
      ],
      "name": "OrderRemoval",
      "type": "event"
    },
    {
      "anonymous": false,
      "inputs": [
        {
          "indexed": false,
          "internalType": "uint256",
          "name": "orderId",
          "type": "uint256"
        },
        {
          "indexed": false,
          "internalType": "address",
          "name": "trader",
          "type": "address"
        },
        {
          "indexed": false,
          "internalType": "enum DexBase.Side",
          "name": "side",
          "type": "uint8"
        },
        {
          "indexed": false,
          "internalType": "uint256",
          "name": "tokenId",
          "type": "uint256"
        },
        {
          "indexed": false,
          "internalType": "uint256",
          "name": "amount",
          "type": "uint256"
        },
        {
          "indexed": false,
          "internalType": "uint256",
          "name": "filled",
          "type": "uint256"
        },
        {
          "indexed": false,
          "internalType": "uint256",
          "name": "price",
          "type": "uint256"
        },
        {
          "indexed": false,
          "internalType": "uint256",
          "name": "timestamp",
          "type": "uint256"
        }
      ],
      "name": "OrderUpsert",
      "type": "event"
    },
    {
      "anonymous": false,
      "inputs": [
        {
          "indexed": true,
          "internalType": "address",
          "name": "previousOwner",
          "type": "address"
        },
        {
          "indexed": true,
          "internalType": "address",
          "name": "newOwner",
          "type": "address"
        }
      ],
      "name": "OwnershipTransferred",
      "type": "event"
    },
    {
      "anonymous": false,
      "inputs": [
        {
          "indexed": false,
          "internalType": "address",
          "name": "account",
          "type": "address"
        }
      ],
      "name": "Paused",
      "type": "event"
    },
    {
      "anonymous": false,
      "inputs": [
        {
          "indexed": false,
          "internalType": "address",
          "name": "account",
          "type": "address"
        },
        {
          "indexed": false,
          "internalType": "uint256",
          "name": "tokenId",
          "type": "uint256"
        },
        {
          "indexed": false,
          "internalType": "uint256",
          "name": "sharesReservedBalance",
          "type": "uint256"
        }
      ],
      "name": "SharesReservedBalanceChange",
      "type": "event"
    },
    {
      "anonymous": false,
      "inputs": [
        {
          "indexed": false,
          "internalType": "address",
          "name": "account",
          "type": "address"
        }
      ],
      "name": "Unpaused",
      "type": "event"
    },
    {
      "inputs": [],
      "name": "__DexBase_init",
      "outputs": [],
      "stateMutability": "nonpayable",
      "type": "function"
    },
    {
      "inputs": [
        {
          "internalType": "uint256",
          "name": "tokenId",
          "type": "uint256"
        },
        {
          "internalType": "uint256",
          "name": "amount",
          "type": "uint256"
        },
        {
          "internalType": "uint256",
          "name": "price",
          "type": "uint256"
        },
        {
          "internalType": "enum DexBase.Side",
          "name": "side",
          "type": "uint8"
        }
      ],
      "name": "createLimitOrder",
      "outputs": [],
      "stateMutability": "nonpayable",
      "type": "function"
    },
    {
      "inputs": [
        {
          "internalType": "uint256",
          "name": "tokenId",
          "type": "uint256"
        },
        {
          "internalType": "uint256",
          "name": "amount",
          "type": "uint256"
        },
        {
          "internalType": "enum DexBase.Side",
          "name": "side",
          "type": "uint8"
        }
      ],
      "name": "createMarketOrder",
      "outputs": [],
      "stateMutability": "nonpayable",
      "type": "function"
    },
    {
      "inputs": [
        {
          "internalType": "uint256",
          "name": "tokenId",
          "type": "uint256"
        },
        {
          "internalType": "enum DexBase.Side",
          "name": "side",
          "type": "uint8"
        },
        {
          "internalType": "uint256",
          "name": "orderId",
          "type": "uint256"
        }
      ],
      "name": "deleteOrder",
      "outputs": [],
      "stateMutability": "nonpayable",
      "type": "function"
    },
    {
      "inputs": [],
      "name": "depositEth",
      "outputs": [],
      "stateMutability": "payable",
      "type": "function"
    },
    {
      "inputs": [],
      "name": "owner",
      "outputs": [
        {
          "internalType": "address",
          "name": "",
          "type": "address"
        }
      ],
      "stateMutability": "view",
      "type": "function"
    },
    {
      "inputs": [],
      "name": "pause",
      "outputs": [],
      "stateMutability": "nonpayable",
      "type": "function"
    },
    {
      "inputs": [],
      "name": "paused",
      "outputs": [
        {
          "internalType": "bool",
          "name": "",
          "type": "bool"
        }
      ],
      "stateMutability": "view",
      "type": "function"
    },
    {
      "inputs": [],
      "name": "renounceOwnership",
      "outputs": [],
      "stateMutability": "nonpayable",
      "type": "function"
    },
    {
      "inputs": [
        {
          "internalType": "address",
          "name": "nftFractionsRepositoryAddress",
          "type": "address"
        }
      ],
      "name": "setNftFractionsRepository",
      "outputs": [],
      "stateMutability": "nonpayable",
      "type": "function"
    },
    {
      "inputs": [
        {
          "internalType": "address",
          "name": "newOwner",
          "type": "address"
        }
      ],
      "name": "transferOwnership",
      "outputs": [],
      "stateMutability": "nonpayable",
      "type": "function"
    },
    {
      "inputs": [
        {
          "internalType": "uint256",
          "name": "amount",
          "type": "uint256"
        }
      ],
      "name": "withdrawEth",
      "outputs": [],
      "stateMutability": "nonpayable",
      "type": "function"
    },
    {
      "inputs": [],
      "name": "initialize",
      "outputs": [],
      "stateMutability": "nonpayable",
      "type": "function"
    }
  ],
  "bytecode": "0x608060405234801561001057600080fd5b50614d2b806100206000396000f3fe6080604052600436106100c25760003560e01c80638456cb591161007f578063b85b9e4011610059578063b85b9e40146101e7578063c311d049146101fe578063f2fde38b14610227578063fbe2767414610250576100c2565b80638456cb591461017c5780638da5cb5b146101935780639c793bac146101be576100c2565b80630bbf2085146100c7578063439370b1146100f057806354c0cde4146100fa5780635c975abb14610123578063715018a61461014e5780638129fc1c14610165575b600080fd5b3480156100d357600080fd5b506100ee60048036038101906100e991906142d2565b610279565b005b6100f8611189565b005b34801561010657600080fd5b50610121600480360381019061011c9190614283565b611272565b005b34801561012f57600080fd5b50610138612bfc565b60405161014591906147dc565b60405180910390f35b34801561015a57600080fd5b50610163612c13565b005b34801561017157600080fd5b5061017a612d50565b005b34801561018857600080fd5b50610191612e31565b005b34801561019f57600080fd5b506101a8612eb7565b6040516101b59190614709565b60405180910390f35b3480156101ca57600080fd5b506101e560048036038101906101e09190614234565b612ee1565b005b3480156101f357600080fd5b506101fc613620565b005b34801561020a57600080fd5b50610225600480360381019061022091906141e2565b613711565b005b34801561023357600080fd5b5061024e60048036038101906102499190614190565b61390e565b005b34801561025c57600080fd5b5061027760048036038101906102729190614190565b613aba565b005b836000609c60009054906101000a900473ffffffffffffffffffffffffffffffffffffffff1673ffffffffffffffffffffffffffffffffffffffff166366d0330c836040518263ffffffff1660e01b81526004016102d79190614957565b602060405180830381600087803b1580156102f157600080fd5b505af1158015610305573d6000803e3d6000fd5b505050506040513d601f19601f8201168201806040525081019061032991906141b9565b9050600073ffffffffffffffffffffffffffffffffffffffff168173ffffffffffffffffffffffffffffffffffffffff16141561039b576040517f08c379a000000000000000000000000000000000000000000000000000000000815260040161039290614917565b60405180910390fd5b6103a3612bfc565b156103e3576040517f08c379a00000000000000000000000000000000000000000000000000000000081526004016103da90614937565b60405180910390fd5b60018081111561041c577f4e487b7100000000000000000000000000000000000000000000000000000000600052602160045260246000fd5b836001811115610455577f4e487b7100000000000000000000000000000000000000000000000000000000600052602160045260246000fd5b1415610616576000609c60009054906101000a900473ffffffffffffffffffffffffffffffffffffffff1673ffffffffffffffffffffffffffffffffffffffff1662fdd58e33896040518363ffffffff1660e01b81526004016104b992919061477c565b60206040518083038186803b1580156104d157600080fd5b505afa1580156104e5573d6000803e3d6000fd5b505050506040513d601f19601f82011682018060405250810190610509919061420b565b90508581101561054e576040517f08c379a0000000000000000000000000000000000000000000000000000000008152600401610545906148d7565b60405180910390fd5b85609b60003373ffffffffffffffffffffffffffffffffffffffff1673ffffffffffffffffffffffffffffffffffffffff168152602001908152602001600020600089815260200190815260200160002060008282546105ae9190614a81565b925050819055506106103388609b60003373ffffffffffffffffffffffffffffffffffffffff1673ffffffffffffffffffffffffffffffffffffffff16815260200190815260200160002060008b815260200190815260200160002054613b7a565b5061088d565b6000609c60009054906101000a900473ffffffffffffffffffffffffffffffffffffffff1673ffffffffffffffffffffffffffffffffffffffff166333d59207886040518263ffffffff1660e01b81526004016106739190614957565b602060405180830381600087803b15801561068d57600080fd5b505af11580156106a1573d6000803e3d6000fd5b505050506040513d601f19601f820116820180604052508101906106c5919061420b565b90508581101561070a576040517f08c379a0000000000000000000000000000000000000000000000000000000008152600401610701906148f7565b60405180910390fd5b84866107169190614ad7565b609960003373ffffffffffffffffffffffffffffffffffffffff1673ffffffffffffffffffffffffffffffffffffffff16815260200190815260200160002054609860003373ffffffffffffffffffffffffffffffffffffffff1673ffffffffffffffffffffffffffffffffffffffff168152602001908152602001600020546107a09190614b31565b10156107e1576040517f08c379a00000000000000000000000000000000000000000000000000000000081526004016107d890614857565b60405180910390fd5b84866107ed9190614ad7565b609960003373ffffffffffffffffffffffffffffffffffffffff1673ffffffffffffffffffffffffffffffffffffffff168152602001908152602001600020600082825461083b9190614a81565b9250508190555061088b33609960003373ffffffffffffffffffffffffffffffffffffffff1673ffffffffffffffffffffffffffffffffffffffff16815260200190815260200160002054613bba565b505b6000609a600088815260200190815260200160002060008560018111156108dd577f4e487b7100000000000000000000000000000000000000000000000000000000600052602160045260246000fd5b815260200190815260200160002090506108f76097613bf7565b60006109036097613c0d565b9050816040518061010001604052808381526020013373ffffffffffffffffffffffffffffffffffffffff16815260200187600181111561096d577f4e487b7100000000000000000000000000000000000000000000000000000000600052602160045260246000fd5b81526020018a8152602001898152602001600081526020018881526020014281525090806001815401808255809150506001900390600052602060002090600702016000909190919091506000820151816000015560208201518160010160006101000a81548173ffffffffffffffffffffffffffffffffffffffff021916908373ffffffffffffffffffffffffffffffffffffffff16021790555060408201518160010160146101000a81548160ff02191690836001811115610a5a577f4e487b7100000000000000000000000000000000000000000000000000000000600052602160045260246000fd5b0217905550606082015181600201556080820151816003015560a0820151816004015560c0820151816005015560e082015181600601555050610aa48133878b8b60008c42613c1b565b600080838054905011610ab8576000610aca565b60018380549050610ac99190614b31565b5b90505b600081111561117e5760006001811115610b10577f4e487b7100000000000000000000000000000000000000000000000000000000600052602160045260246000fd5b866001811115610b49577f4e487b7100000000000000000000000000000000000000000000000000000000600052602160045260246000fd5b148015610bf55750828181548110610b8a577f4e487b7100000000000000000000000000000000000000000000000000000000600052603260045260246000fd5b90600052602060002090600702016005015483600183610baa9190614b31565b81548110610be1577f4e487b7100000000000000000000000000000000000000000000000000000000600052603260045260246000fd5b906000526020600020906007020160050154115b15610bff5761117e565b600180811115610c38577f4e487b7100000000000000000000000000000000000000000000000000000000600052602160045260246000fd5b866001811115610c71577f4e487b7100000000000000000000000000000000000000000000000000000000600052602160045260246000fd5b148015610d1d5750828181548110610cb2577f4e487b7100000000000000000000000000000000000000000000000000000000600052603260045260246000fd5b90600052602060002090600702016005015483600183610cd29190614b31565b81548110610d09577f4e487b7100000000000000000000000000000000000000000000000000000000600052603260045260246000fd5b906000526020600020906007020160050154105b15610d275761117e565b600083600183610d379190614b31565b81548110610d6e577f4e487b7100000000000000000000000000000000000000000000000000000000600052603260045260246000fd5b906000526020600020906007020160405180610100016040529081600082015481526020016001820160009054906101000a900473ffffffffffffffffffffffffffffffffffffffff1673ffffffffffffffffffffffffffffffffffffffff1673ffffffffffffffffffffffffffffffffffffffff1681526020016001820160149054906101000a900460ff166001811115610e33577f4e487b7100000000000000000000000000000000000000000000000000000000600052602160045260246000fd5b6001811115610e6b577f4e487b7100000000000000000000000000000000000000000000000000000000600052602160045260246000fd5b8152602001600282015481526020016003820154815260200160048201548152602001600582015481526020016006820154815250509050838281548110610edc577f4e487b7100000000000000000000000000000000000000000000000000000000600052603260045260246000fd5b906000526020600020906007020184600184610ef89190614b31565b81548110610f2f577f4e487b7100000000000000000000000000000000000000000000000000000000600052603260045260246000fd5b9060005260206000209060070201600082015481600001556001820160009054906101000a900473ffffffffffffffffffffffffffffffffffffffff168160010160006101000a81548173ffffffffffffffffffffffffffffffffffffffff021916908373ffffffffffffffffffffffffffffffffffffffff1602179055506001820160149054906101000a900460ff168160010160146101000a81548160ff0219169083600181111561100c577f4e487b7100000000000000000000000000000000000000000000000000000000600052602160045260246000fd5b0217905550600282015481600201556003820154816003015560048201548160040155600582015481600501556006820154816006015590505080848381548110611080577f4e487b7100000000000000000000000000000000000000000000000000000000600052603260045260246000fd5b90600052602060002090600702016000820151816000015560208201518160010160006101000a81548173ffffffffffffffffffffffffffffffffffffffff021916908373ffffffffffffffffffffffffffffffffffffffff16021790555060408201518160010160146101000a81548160ff02191690836001811115611130577f4e487b7100000000000000000000000000000000000000000000000000000000600052602160045260246000fd5b0217905550606082015181600201556080820151816003015560a0820151816004015560c0820151816005015560e08201518160060155905050818061117590614bd2565b92505050610acd565b505050505050505050565b611191612bfc565b156111d1576040517f08c379a00000000000000000000000000000000000000000000000000000000081526004016111c890614937565b60405180910390fd5b34609860003373ffffffffffffffffffffffffffffffffffffffff1673ffffffffffffffffffffffffffffffffffffffff16815260200190815260200160002060008282546112209190614a81565b9250508190555061127033609860003373ffffffffffffffffffffffffffffffffffffffff1673ffffffffffffffffffffffffffffffffffffffff16815260200190815260200160002054613c6a565b565b826000609c60009054906101000a900473ffffffffffffffffffffffffffffffffffffffff1673ffffffffffffffffffffffffffffffffffffffff166366d0330c836040518263ffffffff1660e01b81526004016112d09190614957565b602060405180830381600087803b1580156112ea57600080fd5b505af11580156112fe573d6000803e3d6000fd5b505050506040513d601f19601f8201168201806040525081019061132291906141b9565b9050600073ffffffffffffffffffffffffffffffffffffffff168173ffffffffffffffffffffffffffffffffffffffff161415611394576040517f08c379a000000000000000000000000000000000000000000000000000000000815260040161138b90614917565b60405180910390fd5b61139c612bfc565b156113dc576040517f08c379a00000000000000000000000000000000000000000000000000000000081526004016113d390614937565b60405180910390fd5b600180811115611415577f4e487b7100000000000000000000000000000000000000000000000000000000600052602160045260246000fd5b83600181111561144e577f4e487b7100000000000000000000000000000000000000000000000000000000600052602160045260246000fd5b1415611549576000609c60009054906101000a900473ffffffffffffffffffffffffffffffffffffffff1673ffffffffffffffffffffffffffffffffffffffff1662fdd58e33886040518363ffffffff1660e01b81526004016114b292919061477c565b60206040518083038186803b1580156114ca57600080fd5b505afa1580156114de573d6000803e3d6000fd5b505050506040513d601f19601f82011682018060405250810190611502919061420b565b905084811015611547576040517f08c379a000000000000000000000000000000000000000000000000000000000815260040161153e906148d7565b60405180910390fd5b505b6000609a60008781526020019081526020016000206000806001811115611599577f4e487b7100000000000000000000000000000000000000000000000000000000600052602160045260246000fd5b8660018111156115d2577f4e487b7100000000000000000000000000000000000000000000000000000000600052602160045260246000fd5b146115de5760006115e1565b60015b6001811115611619577f4e487b7100000000000000000000000000000000000000000000000000000000600052602160045260246000fd5b815260200190815260200160002090506000808690505b8280549050821080156116435750600081115b1561283c576000838381548110611683577f4e487b7100000000000000000000000000000000000000000000000000000000600052603260045260246000fd5b9060005260206000209060070201600401548484815481106116ce577f4e487b7100000000000000000000000000000000000000000000000000000000600052603260045260246000fd5b9060005260206000209060070201600301546116ea9190614b31565b905060008183116116fb57826116fd565b815b9050808361170b9190614b31565b925080858581548110611747577f4e487b7100000000000000000000000000000000000000000000000000000000600052603260045260246000fd5b9060005260206000209060070201600401546117639190614a81565b85858154811061179c577f4e487b7100000000000000000000000000000000000000000000000000000000600052603260045260246000fd5b9060005260206000209060070201600401819055506118be8585815481106117ed577f4e487b7100000000000000000000000000000000000000000000000000000000600052603260045260246000fd5b9060005260206000209060070201600001548b878781548110611839577f4e487b7100000000000000000000000000000000000000000000000000000000600052603260045260246000fd5b906000526020600020906007020160010160009054906101000a900473ffffffffffffffffffffffffffffffffffffffff1633858a8a815481106118a6577f4e487b7100000000000000000000000000000000000000000000000000000000600052603260045260246000fd5b90600052602060002090600702016005015442613ca7565b611b018585815481106118fa577f4e487b7100000000000000000000000000000000000000000000000000000000600052603260045260246000fd5b906000526020600020906007020160000154868681548110611945577f4e487b7100000000000000000000000000000000000000000000000000000000600052603260045260246000fd5b906000526020600020906007020160010160009054906101000a900473ffffffffffffffffffffffffffffffffffffffff168787815481106119b0577f4e487b7100000000000000000000000000000000000000000000000000000000600052603260045260246000fd5b906000526020600020906007020160010160149054906101000a900460ff16888881548110611a08577f4e487b7100000000000000000000000000000000000000000000000000000000600052603260045260246000fd5b906000526020600020906007020160020154898981548110611a53577f4e487b7100000000000000000000000000000000000000000000000000000000600052603260045260246000fd5b9060005260206000209060070201600301548a8a81548110611a9e577f4e487b7100000000000000000000000000000000000000000000000000000000600052603260045260246000fd5b9060005260206000209060070201600401548b8b81548110611ae9577f4e487b7100000000000000000000000000000000000000000000000000000000600052603260045260246000fd5b90600052602060002090600702016005015442613c1b565b600180811115611b3a577f4e487b7100000000000000000000000000000000000000000000000000000000600052602160045260246000fd5b886001811115611b73577f4e487b7100000000000000000000000000000000000000000000000000000000600052602160045260246000fd5b141561206957609c60009054906101000a900473ffffffffffffffffffffffffffffffffffffffff1673ffffffffffffffffffffffffffffffffffffffff1663605105f033878781548110611bf1577f4e487b7100000000000000000000000000000000000000000000000000000000600052603260045260246000fd5b906000526020600020906007020160010160009054906101000a900473ffffffffffffffffffffffffffffffffffffffff168d856040518563ffffffff1660e01b8152600401611c449493929190614724565b600060405180830381600087803b158015611c5e57600080fd5b505af1158015611c72573d6000803e3d6000fd5b5050505080858581548110611cb0577f4e487b7100000000000000000000000000000000000000000000000000000000600052603260045260246000fd5b906000526020600020906007020160050154611ccc9190614ad7565b609860003373ffffffffffffffffffffffffffffffffffffffff1673ffffffffffffffffffffffffffffffffffffffff1681526020019081526020016000206000828254611d1a9190614a81565b9250508190555080858581548110611d5b577f4e487b7100000000000000000000000000000000000000000000000000000000600052603260045260246000fd5b906000526020600020906007020160050154611d779190614ad7565b60986000878781548110611db4577f4e487b7100000000000000000000000000000000000000000000000000000000600052603260045260246000fd5b906000526020600020906007020160010160009054906101000a900473ffffffffffffffffffffffffffffffffffffffff1673ffffffffffffffffffffffffffffffffffffffff1673ffffffffffffffffffffffffffffffffffffffff1681526020019081526020016000206000828254611e2f9190614b31565b9250508190555080858581548110611e70577f4e487b7100000000000000000000000000000000000000000000000000000000600052603260045260246000fd5b906000526020600020906007020160050154611e8c9190614ad7565b60996000878781548110611ec9577f4e487b7100000000000000000000000000000000000000000000000000000000600052603260045260246000fd5b906000526020600020906007020160010160009054906101000a900473ffffffffffffffffffffffffffffffffffffffff1673ffffffffffffffffffffffffffffffffffffffff1673ffffffffffffffffffffffffffffffffffffffff1681526020019081526020016000206000828254611f449190614b31565b92505081905550612068858581548110611f87577f4e487b7100000000000000000000000000000000000000000000000000000000600052603260045260246000fd5b906000526020600020906007020160010160009054906101000a900473ffffffffffffffffffffffffffffffffffffffff1660996000888881548110611ff6577f4e487b7100000000000000000000000000000000000000000000000000000000600052603260045260246000fd5b906000526020600020906007020160010160009054906101000a900473ffffffffffffffffffffffffffffffffffffffff1673ffffffffffffffffffffffffffffffffffffffff1673ffffffffffffffffffffffffffffffffffffffff16815260200190815260200160002054613bba565b5b600060018111156120a3577f4e487b7100000000000000000000000000000000000000000000000000000000600052602160045260246000fd5b8860018111156120dc577f4e487b7100000000000000000000000000000000000000000000000000000000600052602160045260246000fd5b14156126c1578085858154811061211c577f4e487b7100000000000000000000000000000000000000000000000000000000600052603260045260246000fd5b9060005260206000209060070201600501546121389190614ad7565b609960003373ffffffffffffffffffffffffffffffffffffffff1673ffffffffffffffffffffffffffffffffffffffff16815260200190815260200160002054609860003373ffffffffffffffffffffffffffffffffffffffff1673ffffffffffffffffffffffffffffffffffffffff168152602001908152602001600020546121c29190614b31565b1015612203576040517f08c379a00000000000000000000000000000000000000000000000000000000081526004016121fa90614857565b60405180910390fd5b609c60009054906101000a900473ffffffffffffffffffffffffffffffffffffffff1673ffffffffffffffffffffffffffffffffffffffff1663605105f086868154811061227a577f4e487b7100000000000000000000000000000000000000000000000000000000600052603260045260246000fd5b906000526020600020906007020160010160009054906101000a900473ffffffffffffffffffffffffffffffffffffffff16338d856040518563ffffffff1660e01b81526004016122ce9493929190614724565b600060405180830381600087803b1580156122e857600080fd5b505af11580156122fc573d6000803e3d6000fd5b505050508085858154811061233a577f4e487b7100000000000000000000000000000000000000000000000000000000600052603260045260246000fd5b9060005260206000209060070201600501546123569190614ad7565b609860003373ffffffffffffffffffffffffffffffffffffffff1673ffffffffffffffffffffffffffffffffffffffff16815260200190815260200160002060008282546123a49190614b31565b92505081905550808585815481106123e5577f4e487b7100000000000000000000000000000000000000000000000000000000600052603260045260246000fd5b9060005260206000209060070201600501546124019190614ad7565b6098600087878154811061243e577f4e487b7100000000000000000000000000000000000000000000000000000000600052603260045260246000fd5b906000526020600020906007020160010160009054906101000a900473ffffffffffffffffffffffffffffffffffffffff1673ffffffffffffffffffffffffffffffffffffffff1673ffffffffffffffffffffffffffffffffffffffff16815260200190815260200160002060008282546124b99190614a81565b9250508190555080609b60008787815481106124fe577f4e487b7100000000000000000000000000000000000000000000000000000000600052603260045260246000fd5b906000526020600020906007020160010160009054906101000a900473ffffffffffffffffffffffffffffffffffffffff1673ffffffffffffffffffffffffffffffffffffffff1673ffffffffffffffffffffffffffffffffffffffff16815260200190815260200160002060008c8152602001908152602001600020600082825461258a9190614b31565b925050819055506126c08585815481106125cd577f4e487b7100000000000000000000000000000000000000000000000000000000600052603260045260246000fd5b906000526020600020906007020160010160009054906101000a900473ffffffffffffffffffffffffffffffffffffffff168b609b600089898154811061263d577f4e487b7100000000000000000000000000000000000000000000000000000000600052603260045260246000fd5b906000526020600020906007020160010160009054906101000a900473ffffffffffffffffffffffffffffffffffffffff1673ffffffffffffffffffffffffffffffffffffffff1673ffffffffffffffffffffffffffffffffffffffff16815260200190815260200160002060008e815260200190815260200160002054613b7a565b5b61270a33609860003373ffffffffffffffffffffffffffffffffffffffff1673ffffffffffffffffffffffffffffffffffffffff16815260200190815260200160002054613c6a565b612827858581548110612746577f4e487b7100000000000000000000000000000000000000000000000000000000600052603260045260246000fd5b906000526020600020906007020160010160009054906101000a900473ffffffffffffffffffffffffffffffffffffffff16609860008888815481106127b5577f4e487b7100000000000000000000000000000000000000000000000000000000600052603260045260246000fd5b906000526020600020906007020160010160009054906101000a900473ffffffffffffffffffffffffffffffffffffffff1673ffffffffffffffffffffffffffffffffffffffff1673ffffffffffffffffffffffffffffffffffffffff16815260200190815260200160002054613c6a565b838061283290614bfc565b9450505050611630565b600091505b8280549050821080156128e75750828281548110612888577f4e487b7100000000000000000000000000000000000000000000000000000000600052603260045260246000fd5b9060005260206000209060070201600301548383815481106128d3577f4e487b7100000000000000000000000000000000000000000000000000000000600052603260045260246000fd5b906000526020600020906007020160040154145b15612bf25760008290505b600184805490506129039190614b31565b811015612ac057836001826129189190614a81565b8154811061294f577f4e487b7100000000000000000000000000000000000000000000000000000000600052603260045260246000fd5b9060005260206000209060070201848281548110612996577f4e487b7100000000000000000000000000000000000000000000000000000000600052603260045260246000fd5b9060005260206000209060070201600082015481600001556001820160009054906101000a900473ffffffffffffffffffffffffffffffffffffffff168160010160006101000a81548173ffffffffffffffffffffffffffffffffffffffff021916908373ffffffffffffffffffffffffffffffffffffffff1602179055506001820160149054906101000a900460ff168160010160146101000a81548160ff02191690836001811115612a73577f4e487b7100000000000000000000000000000000000000000000000000000000600052602160045260246000fd5b021790555060028201548160020155600382015481600301556004820154816004015560058201548160050155600682015481600601559050508080612ab890614bfc565b9150506128f2565b50612b248360018580549050612ad69190614b31565b81548110612b0d577f4e487b7100000000000000000000000000000000000000000000000000000000600052603260045260246000fd5b906000526020600020906007020160000154613cf3565b82805480612b5b577f4e487b7100000000000000000000000000000000000000000000000000000000600052603160045260246000fd5b60019003818190600052602060002090600702016000808201600090556001820160006101000a81549073ffffffffffffffffffffffffffffffffffffffff02191690556001820160146101000a81549060ff021916905560028201600090556003820160009055600482016000905560058201600090556006820160009055505090558180612bea90614bfc565b925050612841565b5050505050505050565b6000603360009054906101000a900460ff16905090565b612c1b613d2d565b73ffffffffffffffffffffffffffffffffffffffff16612c39612eb7565b73ffffffffffffffffffffffffffffffffffffffff1614612c8f576040517f08c379a0000000000000000000000000000000000000000000000000000000008152600401612c8690614877565b60405180910390fd5b600073ffffffffffffffffffffffffffffffffffffffff16606560009054906101000a900473ffffffffffffffffffffffffffffffffffffffff1673ffffffffffffffffffffffffffffffffffffffff167f8be0079c531659141344cd1fd0a4f28419497f9722a3daafe3b4186f6b6457e060405160405180910390a36000606560006101000a81548173ffffffffffffffffffffffffffffffffffffffff021916908373ffffffffffffffffffffffffffffffffffffffff160217905550565b600060019054906101000a900460ff1680612d76575060008054906101000a900460ff16155b612db5576040517f08c379a0000000000000000000000000000000000000000000000000000000008152600401612dac90614837565b60405180910390fd5b60008060019054906101000a900460ff161590508015612e05576001600060016101000a81548160ff02191690831515021790555060016000806101000a81548160ff0219169083151502179055505b612e0d613620565b8015612e2e5760008060016101000a81548160ff0219169083151502179055505b50565b612e39613d2d565b73ffffffffffffffffffffffffffffffffffffffff16612e57612eb7565b73ffffffffffffffffffffffffffffffffffffffff1614612ead576040517f08c379a0000000000000000000000000000000000000000000000000000000008152600401612ea490614877565b60405180910390fd5b612eb5613d35565b565b6000606560009054906101000a900473ffffffffffffffffffffffffffffffffffffffff16905090565b6000609a60008581526020019081526020016000206000846001811115612f31577f4e487b7100000000000000000000000000000000000000000000000000000000600052602160045260246000fd5b8152602001908152602001600020905060005b81805490508110156136195782828281548110612f8a577f4e487b7100000000000000000000000000000000000000000000000000000000600052603260045260246000fd5b906000526020600020906007020160000154141561360657818181548110612fdb577f4e487b7100000000000000000000000000000000000000000000000000000000600052603260045260246000fd5b906000526020600020906007020160010160009054906101000a900473ffffffffffffffffffffffffffffffffffffffff1673ffffffffffffffffffffffffffffffffffffffff163373ffffffffffffffffffffffffffffffffffffffff161461307a576040517f08c379a0000000000000000000000000000000000000000000000000000000008152600401613071906148b7565b60405180910390fd5b600060018111156130b4577f4e487b7100000000000000000000000000000000000000000000000000000000600052602160045260246000fd5b8282815481106130ed577f4e487b7100000000000000000000000000000000000000000000000000000000600052603260045260246000fd5b906000526020600020906007020160010160149054906101000a900460ff166001811115613144577f4e487b7100000000000000000000000000000000000000000000000000000000600052602160045260246000fd5b141561328d57818181548110613183577f4e487b7100000000000000000000000000000000000000000000000000000000600052603260045260246000fd5b9060005260206000209060070201600501548282815481106131ce577f4e487b7100000000000000000000000000000000000000000000000000000000600052603260045260246000fd5b9060005260206000209060070201600301546131ea9190614ad7565b609960003373ffffffffffffffffffffffffffffffffffffffff1673ffffffffffffffffffffffffffffffffffffffff16815260200190815260200160002060008282546132389190614b31565b9250508190555061328833609960003373ffffffffffffffffffffffffffffffffffffffff1673ffffffffffffffffffffffffffffffffffffffff16815260200190815260200160002054613bba565b61339a565b8181815481106132c6577f4e487b7100000000000000000000000000000000000000000000000000000000600052603260045260246000fd5b906000526020600020906007020160030154609b60003373ffffffffffffffffffffffffffffffffffffffff1673ffffffffffffffffffffffffffffffffffffffff168152602001908152602001600020600087815260200190815260200160002060008282546133379190614b31565b925050819055506133993386609b60003373ffffffffffffffffffffffffffffffffffffffff1673ffffffffffffffffffffffffffffffffffffffff168152602001908152602001600020600089815260200190815260200160002054613b7a565b5b81600183805490506133ac9190614b31565b815481106133e3577f4e487b7100000000000000000000000000000000000000000000000000000000600052603260045260246000fd5b906000526020600020906007020182828154811061342a577f4e487b7100000000000000000000000000000000000000000000000000000000600052603260045260246000fd5b9060005260206000209060070201600082015481600001556001820160009054906101000a900473ffffffffffffffffffffffffffffffffffffffff168160010160006101000a81548173ffffffffffffffffffffffffffffffffffffffff021916908373ffffffffffffffffffffffffffffffffffffffff1602179055506001820160149054906101000a900460ff168160010160146101000a81548160ff02191690836001811115613507577f4e487b7100000000000000000000000000000000000000000000000000000000600052602160045260246000fd5b0217905550600282015481600201556003820154816003015560048201548160040155600582015481600501556006820154816006015590505081805480613578577f4e487b7100000000000000000000000000000000000000000000000000000000600052603160045260246000fd5b60019003818190600052602060002090600702016000808201600090556001820160006101000a81549073ffffffffffffffffffffffffffffffffffffffff02191690556001820160146101000a81549060ff0219169055600282016000905560038201600090556004820160009055600582016000905560068201600090555050905561360583613cf3565b5b808061361190614bfc565b915050612f44565b5050505050565b600060019054906101000a900460ff1680613646575060008054906101000a900460ff16155b613685576040517f08c379a000000000000000000000000000000000000000000000000000000000815260040161367c90614837565b60405180910390fd5b60008060019054906101000a900460ff1615905080156136d5576001600060016101000a81548160ff02191690831515021790555060016000806101000a81548160ff0219169083151502179055505b6136dd613dd8565b6136e5613eb1565b6136ed613fa5565b801561370e5760008060016101000a81548160ff0219169083151502179055505b50565b613719612bfc565b15613759576040517f08c379a000000000000000000000000000000000000000000000000000000000815260040161375090614937565b60405180910390fd5b80609960003373ffffffffffffffffffffffffffffffffffffffff1673ffffffffffffffffffffffffffffffffffffffff16815260200190815260200160002054609860003373ffffffffffffffffffffffffffffffffffffffff1673ffffffffffffffffffffffffffffffffffffffff168152602001908152602001600020546137e49190614b31565b1015613825576040517f08c379a000000000000000000000000000000000000000000000000000000000815260040161381c90614897565b60405180910390fd5b80609860003373ffffffffffffffffffffffffffffffffffffffff1673ffffffffffffffffffffffffffffffffffffffff16815260200190815260200160002060008282546138749190614b31565b925050819055503373ffffffffffffffffffffffffffffffffffffffff166108fc829081150290604051600060405180830381858888f193505050501580156138c1573d6000803e3d6000fd5b5061390b33609860003373ffffffffffffffffffffffffffffffffffffffff1673ffffffffffffffffffffffffffffffffffffffff16815260200190815260200160002054613c6a565b50565b613916613d2d565b73ffffffffffffffffffffffffffffffffffffffff16613934612eb7565b73ffffffffffffffffffffffffffffffffffffffff161461398a576040517f08c379a000000000000000000000000000000000000000000000000000000000815260040161398190614877565b60405180910390fd5b600073ffffffffffffffffffffffffffffffffffffffff168173ffffffffffffffffffffffffffffffffffffffff1614156139fa576040517f08c379a00000000000000000000000000000000000000000000000000000000081526004016139f1906147f7565b60405180910390fd5b8073ffffffffffffffffffffffffffffffffffffffff16606560009054906101000a900473ffffffffffffffffffffffffffffffffffffffff1673ffffffffffffffffffffffffffffffffffffffff167f8be0079c531659141344cd1fd0a4f28419497f9722a3daafe3b4186f6b6457e060405160405180910390a380606560006101000a81548173ffffffffffffffffffffffffffffffffffffffff021916908373ffffffffffffffffffffffffffffffffffffffff16021790555050565b613ac2613d2d565b73ffffffffffffffffffffffffffffffffffffffff16613ae0612eb7565b73ffffffffffffffffffffffffffffffffffffffff1614613b36576040517f08c379a0000000000000000000000000000000000000000000000000000000008152600401613b2d90614877565b60405180910390fd5b80609c60006101000a81548173ffffffffffffffffffffffffffffffffffffffff021916908373ffffffffffffffffffffffffffffffffffffffff16021790555050565b7f0900e4995c14b4dddd66912896cf782669558020f363ce2c94a3912722a9c925838383604051613bad939291906147a5565b60405180910390a1505050565b7fb486a8060a6238f98a4851b9c98b78fcd1b052b434dad5b30dc3ca31063df8738282604051613beb92919061477c565b60405180910390a15050565b6001816000016000828254019250508190555050565b600081600001549050919050565b7f288076ee5e10de6c038192ef83911bfe6b347ecb651d2f6035a1a4d1726084428888888888888888604051613c58989796959493929190614972565b60405180910390a15050505050505050565b7f702c3ef9c38697b937aef436b7d6a53cff9a6d4d47aad60c2d14983e931da3cc8282604051613c9b92919061477c565b60405180910390a15050565b7f9978fdb3a211975622b71134cdca10c08d124f7251547ffa8fc72880f7e7499287878787878787604051613ce297969594939291906149f0565b60405180910390a150505050505050565b7f4e90531decf11ba7b2cf9c19322f06d9fea54a3707f8d71bf678fdfdfa20f57a81604051613d229190614957565b60405180910390a150565b600033905090565b613d3d612bfc565b15613d7d576040517f08c379a0000000000000000000000000000000000000000000000000000000008152600401613d7490614817565b60405180910390fd5b6001603360006101000a81548160ff0219169083151502179055507f62e78cea01bee320cd4e420270b5ea74000d11b0c9f74754ebdbfc544b05a258613dc1613d2d565b604051613dce9190614709565b60405180910390a1565b600060019054906101000a900460ff1680613dfe575060008054906101000a900460ff16155b613e3d576040517f08c379a0000000000000000000000000000000000000000000000000000000008152600401613e3490614837565b60405180910390fd5b60008060019054906101000a900460ff161590508015613e8d576001600060016101000a81548160ff02191690831515021790555060016000806101000a81548160ff0219169083151502179055505b8015613eae5760008060016101000a81548160ff0219169083151502179055505b50565b600060019054906101000a900460ff1680613ed7575060008054906101000a900460ff16155b613f16576040517f08c379a0000000000000000000000000000000000000000000000000000000008152600401613f0d90614837565b60405180910390fd5b60008060019054906101000a900460ff161590508015613f66576001600060016101000a81548160ff02191690831515021790555060016000806101000a81548160ff0219169083151502179055505b6000603360006101000a81548160ff0219169083151502179055508015613fa25760008060016101000a81548160ff0219169083151502179055505b50565b600060019054906101000a900460ff1680613fcb575060008054906101000a900460ff16155b61400a576040517f08c379a000000000000000000000000000000000000000000000000000000000815260040161400190614837565b60405180910390fd5b60008060019054906101000a900460ff16159050801561405a576001600060016101000a81548160ff02191690831515021790555060016000806101000a81548160ff0219169083151502179055505b6000614064613d2d565b905080606560006101000a81548173ffffffffffffffffffffffffffffffffffffffff021916908373ffffffffffffffffffffffffffffffffffffffff1602179055508073ffffffffffffffffffffffffffffffffffffffff16600073ffffffffffffffffffffffffffffffffffffffff167f8be0079c531659141344cd1fd0a4f28419497f9722a3daafe3b4186f6b6457e060405160405180910390a35080156141245760008060016101000a81548160ff0219169083151502179055505b50565b60008135905061413681614cb7565b92915050565b60008151905061414b81614cb7565b92915050565b60008135905061416081614cce565b92915050565b60008135905061417581614cde565b92915050565b60008151905061418a81614cde565b92915050565b6000602082840312156141a257600080fd5b60006141b084828501614127565b91505092915050565b6000602082840312156141cb57600080fd5b60006141d98482850161413c565b91505092915050565b6000602082840312156141f457600080fd5b600061420284828501614166565b91505092915050565b60006020828403121561421d57600080fd5b600061422b8482850161417b565b91505092915050565b60008060006060848603121561424957600080fd5b600061425786828701614166565b935050602061426886828701614151565b925050604061427986828701614166565b9150509250925092565b60008060006060848603121561429857600080fd5b60006142a686828701614166565b93505060206142b786828701614166565b92505060406142c886828701614151565b9150509250925092565b600080600080608085870312156142e857600080fd5b60006142f687828801614166565b945050602061430787828801614166565b935050604061431887828801614166565b925050606061432987828801614151565b91505092959194509250565b61433e81614b65565b82525050565b61434d81614b77565b82525050565b61435c81614bc0565b82525050565b600061436f602683614a70565b91507f4f776e61626c653a206e6577206f776e657220697320746865207a65726f206160008301527f64647265737300000000000000000000000000000000000000000000000000006020830152604082019050919050565b60006143d5601083614a70565b91507f5061757361626c653a20706175736564000000000000000000000000000000006000830152602082019050919050565b6000614415602e83614a70565b91507f496e697469616c697a61626c653a20636f6e747261637420697320616c72656160008301527f647920696e697469616c697a65640000000000000000000000000000000000006020830152604082019050919050565b600061447b601383614a70565b91507f6574682062616c616e636520746f6f206c6f77000000000000000000000000006000830152602082019050919050565b60006144bb602083614a70565b91507f4f776e61626c653a2063616c6c6572206973206e6f7420746865206f776e65726000830152602082019050919050565b60006144fb601983614a70565b91507f4554482062616c616e6365206973206e6f7420656e6f756768000000000000006000830152602082019050919050565b600061453b602483614a70565b91507f4f6e6c7920746865207472616465722063616e2064656c65746520686973206f60008301527f72646572000000000000000000000000000000000000000000000000000000006020830152604082019050919050565b60006145a1600083614a5f565b9150600082019050919050565b60006145bb602983614a70565b91507f6d6573736167652073656e646572277320746f6b656e2062616c616e6365206960008301527f7320746f6f206c6f7700000000000000000000000000000000000000000000006020830152604082019050919050565b6000614621603883614a70565b91507f746f74616c20616d6f756e74206f66206672616374696f6e73206973206c6f7760008301527f6572207468616e2074686520676976656e20616d6f756e7400000000000000006020830152604082019050919050565b6000614687601983614a70565b91507f7468697320746f6b656e20646f6573206e6f74206578697374000000000000006000830152602082019050919050565b60006146c7601883614a70565b91507f4e6f7420616c6c6f776564207768696c652070617573656400000000000000006000830152602082019050919050565b61470381614bb6565b82525050565b600060208201905061471e6000830184614335565b92915050565b600060a0820190506147396000830187614335565b6147466020830186614335565b61475360408301856146fa565b61476060608301846146fa565b818103608083015261477181614594565b905095945050505050565b60006040820190506147916000830185614335565b61479e60208301846146fa565b9392505050565b60006060820190506147ba6000830186614335565b6147c760208301856146fa565b6147d460408301846146fa565b949350505050565b60006020820190506147f16000830184614344565b92915050565b6000602082019050818103600083015261481081614362565b9050919050565b60006020820190508181036000830152614830816143c8565b9050919050565b6000602082019050818103600083015261485081614408565b9050919050565b600060208201905081810360008301526148708161446e565b9050919050565b60006020820190508181036000830152614890816144ae565b9050919050565b600060208201905081810360008301526148b0816144ee565b9050919050565b600060208201905081810360008301526148d08161452e565b9050919050565b600060208201905081810360008301526148f0816145ae565b9050919050565b6000602082019050818103600083015261491081614614565b9050919050565b600060208201905081810360008301526149308161467a565b9050919050565b60006020820190508181036000830152614950816146ba565b9050919050565b600060208201905061496c60008301846146fa565b92915050565b600061010082019050614988600083018b6146fa565b614995602083018a614335565b6149a26040830189614353565b6149af60608301886146fa565b6149bc60808301876146fa565b6149c960a08301866146fa565b6149d660c08301856146fa565b6149e360e08301846146fa565b9998505050505050505050565b600060e082019050614a05600083018a6146fa565b614a1260208301896146fa565b614a1f6040830188614335565b614a2c6060830187614335565b614a3960808301866146fa565b614a4660a08301856146fa565b614a5360c08301846146fa565b98975050505050505050565b600082825260208201905092915050565b600082825260208201905092915050565b6000614a8c82614bb6565b9150614a9783614bb6565b9250827fffffffffffffffffffffffffffffffffffffffffffffffffffffffffffffffff03821115614acc57614acb614c45565b5b828201905092915050565b6000614ae282614bb6565b9150614aed83614bb6565b9250817fffffffffffffffffffffffffffffffffffffffffffffffffffffffffffffffff0483118215151615614b2657614b25614c45565b5b828202905092915050565b6000614b3c82614bb6565b9150614b4783614bb6565b925082821015614b5a57614b59614c45565b5b828203905092915050565b6000614b7082614b96565b9050919050565b60008115159050919050565b6000819050614b9182614ca3565b919050565b600073ffffffffffffffffffffffffffffffffffffffff82169050919050565b6000819050919050565b6000614bcb82614b83565b9050919050565b6000614bdd82614bb6565b91506000821415614bf157614bf0614c45565b5b600182039050919050565b6000614c0782614bb6565b91507fffffffffffffffffffffffffffffffffffffffffffffffffffffffffffffffff821415614c3a57614c39614c45565b5b600182019050919050565b7f4e487b7100000000000000000000000000000000000000000000000000000000600052601160045260246000fd5b7f4e487b7100000000000000000000000000000000000000000000000000000000600052602160045260246000fd5b60028110614cb457614cb3614c74565b5b50565b614cc081614b65565b8114614ccb57600080fd5b50565b60028110614cdb57600080fd5b50565b614ce781614bb6565b8114614cf257600080fd5b5056fea264697066735822122079aa3126b27f7a1e8af0b0bbf54a1fc69f6ff7768cb3703d2618d979bbefdb2064736f6c63430008000033",
  "immutableReferences": {},
  "source": "// SPDX-License-Identifier: MIT\n\npragma solidity ^0.8.0;\n\nimport \"@openzeppelin/contracts-upgradeable/utils/CountersUpgradeable.sol\";\nimport \"./DexBase.sol\";\n\ncontract MaticDex is DexBase {\n    using CountersUpgradeable for CountersUpgradeable.Counter;\n\n    event OrderUpsert(\n        uint256 orderId,\n        address trader,\n        Side side,\n        uint256 tokenId,\n        uint256 amount,\n        uint256 filled,\n        uint256 price,\n        uint256 timestamp\n    );\n\n    event OrderRemoval(uint256 orderId);\n\n    event NewTrade(\n        uint256 orderId,\n        uint256 tokenId,\n        address trader1,\n        address trader2,\n        uint256 amount,\n        uint256 price,\n        uint256 date\n    );\n\n    event EthBalanceChange(address account, uint256 balance);\n\n    event EthReservedBalanceChange(address account, uint256 balance);\n\n    event SharesReservedBalanceChange(\n        address account,\n        uint256 tokenId,\n        uint256 sharesReservedBalance\n    );\n\n    CountersUpgradeable.Counter private _ids;\n\n    function initialize() public initializer {\n        __DexBase_init();\n    }\n\n    function _onOrderUpsert(\n        uint256 orderId,\n        address trader,\n        Side side,\n        uint256 tokenId,\n        uint256 amount,\n        uint256 filled,\n        uint256 price,\n        uint256 timestamp\n    ) internal override {\n        emit OrderUpsert(\n            orderId,\n            trader,\n            side,\n            tokenId,\n            amount,\n            filled,\n            price,\n            timestamp\n        );\n    }\n\n    function _onOrderRemoval(uint256 orderId) internal override {\n        emit OrderRemoval(orderId);\n    }\n\n    function _onTradeExecution(\n        uint256 orderId,\n        uint256 tokenId,\n        address trader1,\n        address trader2,\n        uint256 matchedAmount,\n        uint256 price,\n        uint256 timestamp\n    ) internal override {\n        emit NewTrade(\n            orderId,\n            tokenId,\n            trader1,\n            trader2,\n            matchedAmount,\n            price,\n            timestamp\n        );\n    }\n\n    function _onEthBalanceChange(address account, uint256 balance)\n        internal\n        override\n    {\n        emit EthBalanceChange(account, balance);\n    }\n\n    function _onEthReservedBalanceChange(\n        address account,\n        uint256 reservedBalance\n    ) internal override {\n        emit EthReservedBalanceChange(account, reservedBalance);\n    }\n\n    function _onSharesReservedChange(\n        address account,\n        uint256 tokenId,\n        uint256 sharesReservedBalance\n    ) internal override {\n        emit SharesReservedBalanceChange(\n            account,\n            tokenId,\n            sharesReservedBalance\n        );\n    }\n}\n",
  "sourcePath": "/Users/szabolcs/Documents/Personal/Szakmai/Ethereum/nft-fractions-dex/contracts/MaticDex.sol",
  "compiler": {
    "name": "solc",
    "version": "0.8.0+commit.c7dfd78e.Emscripten.clang"
  },
  "schemaVersion": "3.3.4",
  "updatedAt": "2021-07-20T09:10:30.144Z",
  "devdoc": {
    "kind": "dev",
    "methods": {
      "createLimitOrder(uint256,uint256,uint256,uint8)": {
        "details": "Creates a limit order Requirements: - in case of sell: msg.sender has to have sufficient shares available for selling - in case of buy: msg.sender has to have sufficient ETH deposited The relevant hooks are called: _onOrderUpsert, _onSharesReservedChange, _onEthReservedBalanceChange"
      },
      "createMarketOrder(uint256,uint256,uint8)": {
        "details": "Creates a market order and executes against the registered limit orders Requirements: - in case of sell: msg.sender has to have sufficient shares available for selling - in case of buy: msg.sender has to have sufficient ETH deposited The relevant hooks are called: _onTradeExecution, _onOrderUpsert, _onSharesReservedChange, _onEthReservedBalanceChange, _onEthBalanceChange"
      },
      "deleteOrder(uint256,uint8,uint256)": {
        "details": "delete the order"
      },
      "depositEth()": {
        "details": "deposit ETH for trading"
      },
      "owner()": {
        "details": "Returns the address of the current owner."
      },
      "paused()": {
        "details": "Returns true if the contract is paused, and false otherwise."
      },
      "renounceOwnership()": {
        "details": "Leaves the contract without owner. It will not be possible to call `onlyOwner` functions anymore. Can only be called by the current owner. NOTE: Renouncing ownership will leave the contract without an owner, thereby removing any functionality that is only available to the owner."
      },
      "transferOwnership(address)": {
        "details": "Transfers ownership of the contract to a new account (`newOwner`). Can only be called by the current owner."
      },
      "withdrawEth(uint256)": {
        "details": "Withdraw ETH Requirements: - msg.sender has to have equal or more ETH than the amount to withdraw"
      }
    },
    "version": 1
  },
  "userdoc": {
    "kind": "user",
    "methods": {},
    "version": 1
  }
}