{
  "contractName": "NftFractionsRepository",
  "abi": [
    {
      "anonymous": false,
      "inputs": [
        {
          "indexed": true,
          "internalType": "address",
          "name": "account",
          "type": "address"
        },
        {
          "indexed": true,
          "internalType": "address",
          "name": "operator",
          "type": "address"
        },
        {
          "indexed": false,
          "internalType": "bool",
          "name": "approved",
          "type": "bool"
        }
      ],
      "name": "ApprovalForAll",
      "type": "event"
    },
    {
      "anonymous": false,
      "inputs": [
        {
          "indexed": true,
          "internalType": "address",
          "name": "previousOwner",
          "type": "address"
        },
        {
          "indexed": true,
          "internalType": "address",
          "name": "newOwner",
          "type": "address"
        }
      ],
      "name": "OwnershipTransferred",
      "type": "event"
    },
    {
      "anonymous": false,
      "inputs": [
        {
          "indexed": false,
          "internalType": "address",
          "name": "account",
          "type": "address"
        }
      ],
      "name": "Paused",
      "type": "event"
    },
    {
      "anonymous": false,
      "inputs": [
        {
          "indexed": true,
          "internalType": "address",
          "name": "operator",
          "type": "address"
        },
        {
          "indexed": true,
          "internalType": "address",
          "name": "from",
          "type": "address"
        },
        {
          "indexed": true,
          "internalType": "address",
          "name": "to",
          "type": "address"
        },
        {
          "indexed": false,
          "internalType": "uint256[]",
          "name": "ids",
          "type": "uint256[]"
        },
        {
          "indexed": false,
          "internalType": "uint256[]",
          "name": "values",
          "type": "uint256[]"
        }
      ],
      "name": "TransferBatch",
      "type": "event"
    },
    {
      "anonymous": false,
      "inputs": [
        {
          "indexed": true,
          "internalType": "address",
          "name": "operator",
          "type": "address"
        },
        {
          "indexed": true,
          "internalType": "address",
          "name": "from",
          "type": "address"
        },
        {
          "indexed": true,
          "internalType": "address",
          "name": "to",
          "type": "address"
        },
        {
          "indexed": false,
          "internalType": "uint256",
          "name": "id",
          "type": "uint256"
        },
        {
          "indexed": false,
          "internalType": "uint256",
          "name": "value",
          "type": "uint256"
        }
      ],
      "name": "TransferSingle",
      "type": "event"
    },
    {
      "anonymous": false,
      "inputs": [
        {
          "indexed": false,
          "internalType": "string",
          "name": "value",
          "type": "string"
        },
        {
          "indexed": true,
          "internalType": "uint256",
          "name": "id",
          "type": "uint256"
        }
      ],
      "name": "URI",
      "type": "event"
    },
    {
      "anonymous": false,
      "inputs": [
        {
          "indexed": false,
          "internalType": "address",
          "name": "account",
          "type": "address"
        }
      ],
      "name": "Unpaused",
      "type": "event"
    },
    {
      "inputs": [
        {
          "internalType": "address",
          "name": "account",
          "type": "address"
        },
        {
          "internalType": "uint256",
          "name": "id",
          "type": "uint256"
        }
      ],
      "name": "balanceOf",
      "outputs": [
        {
          "internalType": "uint256",
          "name": "",
          "type": "uint256"
        }
      ],
      "stateMutability": "view",
      "type": "function"
    },
    {
      "inputs": [
        {
          "internalType": "address[]",
          "name": "accounts",
          "type": "address[]"
        },
        {
          "internalType": "uint256[]",
          "name": "ids",
          "type": "uint256[]"
        }
      ],
      "name": "balanceOfBatch",
      "outputs": [
        {
          "internalType": "uint256[]",
          "name": "",
          "type": "uint256[]"
        }
      ],
      "stateMutability": "view",
      "type": "function"
    },
    {
      "inputs": [
        {
          "internalType": "uint256",
          "name": "tokenId",
          "type": "uint256"
        },
        {
          "internalType": "uint256",
          "name": "amount",
          "type": "uint256"
        },
        {
          "internalType": "address",
          "name": "transferer",
          "type": "address"
        }
      ],
      "name": "burn",
      "outputs": [],
      "stateMutability": "nonpayable",
      "type": "function"
    },
    {
      "inputs": [
        {
          "internalType": "uint256",
          "name": "_tokenId",
          "type": "uint256"
        }
      ],
      "name": "getErc721ContractAddress",
      "outputs": [
        {
          "internalType": "address",
          "name": "",
          "type": "address"
        }
      ],
      "stateMutability": "view",
      "type": "function"
    },
    {
      "inputs": [
        {
          "internalType": "uint256",
          "name": "_tokenId",
          "type": "uint256"
        }
      ],
      "name": "getTokenData",
      "outputs": [
        {
          "internalType": "address",
          "name": "erc721ContractAddress",
          "type": "address"
        },
        {
          "internalType": "uint256",
          "name": "erc721TokenId",
          "type": "uint256"
        },
        {
          "internalType": "uint256",
          "name": "totalFractionsAmount",
          "type": "uint256"
        },
        {
          "internalType": "string",
          "name": "tokenURI",
          "type": "string"
        }
      ],
      "stateMutability": "view",
      "type": "function"
    },
    {
      "inputs": [
        {
          "internalType": "uint256",
          "name": "_tokenId",
          "type": "uint256"
        }
      ],
      "name": "getTotalFractionsAmount",
      "outputs": [
        {
          "internalType": "uint256",
          "name": "",
          "type": "uint256"
        }
      ],
      "stateMutability": "view",
      "type": "function"
    },
    {
      "inputs": [
        {
          "internalType": "address",
          "name": "account",
          "type": "address"
        },
        {
          "internalType": "address",
          "name": "operator",
          "type": "address"
        }
      ],
      "name": "isApprovedForAll",
      "outputs": [
        {
          "internalType": "bool",
          "name": "",
          "type": "bool"
        }
      ],
      "stateMutability": "view",
      "type": "function"
    },
    {
      "inputs": [
        {
          "internalType": "address",
          "name": "erc721ContractAddress",
          "type": "address"
        },
        {
          "internalType": "uint256",
          "name": "erc721TokenId",
          "type": "uint256"
        },
        {
          "internalType": "uint256",
          "name": "erc1155TokenId",
          "type": "uint256"
        },
        {
          "internalType": "uint256",
          "name": "erc1155Amount",
          "type": "uint256"
        },
        {
          "internalType": "uint256",
          "name": "totalFractionsAmount",
          "type": "uint256"
        },
        {
          "internalType": "address",
          "name": "transferer",
          "type": "address"
        },
        {
          "internalType": "string",
          "name": "tokenURI",
          "type": "string"
        }
      ],
      "name": "mint",
      "outputs": [],
      "stateMutability": "nonpayable",
      "type": "function"
    },
    {
      "inputs": [],
      "name": "owner",
      "outputs": [
        {
          "internalType": "address",
          "name": "",
          "type": "address"
        }
      ],
      "stateMutability": "view",
      "type": "function"
    },
    {
      "inputs": [],
      "name": "pause",
      "outputs": [],
      "stateMutability": "nonpayable",
      "type": "function"
    },
    {
      "inputs": [],
      "name": "paused",
      "outputs": [
        {
          "internalType": "bool",
          "name": "",
          "type": "bool"
        }
      ],
      "stateMutability": "view",
      "type": "function"
    },
    {
      "inputs": [],
      "name": "renounceOwnership",
      "outputs": [],
      "stateMutability": "nonpayable",
      "type": "function"
    },
    {
      "inputs": [
        {
          "internalType": "address",
          "name": "from",
          "type": "address"
        },
        {
          "internalType": "address",
          "name": "to",
          "type": "address"
        },
        {
          "internalType": "uint256[]",
          "name": "ids",
          "type": "uint256[]"
        },
        {
          "internalType": "uint256[]",
          "name": "amounts",
          "type": "uint256[]"
        },
        {
          "internalType": "bytes",
          "name": "data",
          "type": "bytes"
        }
      ],
      "name": "safeBatchTransferFrom",
      "outputs": [],
      "stateMutability": "nonpayable",
      "type": "function"
    },
    {
      "inputs": [
        {
          "internalType": "address",
          "name": "from",
          "type": "address"
        },
        {
          "internalType": "address",
          "name": "to",
          "type": "address"
        },
        {
          "internalType": "uint256",
          "name": "id",
          "type": "uint256"
        },
        {
          "internalType": "uint256",
          "name": "amount",
          "type": "uint256"
        },
        {
          "internalType": "bytes",
          "name": "data",
          "type": "bytes"
        }
      ],
      "name": "safeTransferFrom",
      "outputs": [],
      "stateMutability": "nonpayable",
      "type": "function"
    },
    {
      "inputs": [
        {
          "internalType": "address",
          "name": "operator",
          "type": "address"
        },
        {
          "internalType": "bool",
          "name": "approved",
          "type": "bool"
        }
      ],
      "name": "setApprovalForAll",
      "outputs": [],
      "stateMutability": "nonpayable",
      "type": "function"
    },
    {
      "inputs": [
        {
          "internalType": "bytes4",
          "name": "interfaceId",
          "type": "bytes4"
        }
      ],
      "name": "supportsInterface",
      "outputs": [
        {
          "internalType": "bool",
          "name": "",
          "type": "bool"
        }
      ],
      "stateMutability": "view",
      "type": "function"
    },
    {
      "inputs": [
        {
          "internalType": "address",
          "name": "from",
          "type": "address"
        },
        {
          "internalType": "address",
          "name": "to",
          "type": "address"
        },
        {
          "internalType": "uint256",
          "name": "id",
          "type": "uint256"
        },
        {
          "internalType": "uint256",
          "name": "amount",
          "type": "uint256"
        },
        {
          "internalType": "bytes",
          "name": "data",
          "type": "bytes"
        }
      ],
      "name": "transferFrom",
      "outputs": [],
      "stateMutability": "nonpayable",
      "type": "function"
    },
    {
      "inputs": [
        {
          "internalType": "address",
          "name": "newOwner",
          "type": "address"
        }
      ],
      "name": "transferOwnership",
      "outputs": [],
      "stateMutability": "nonpayable",
      "type": "function"
    },
    {
      "inputs": [
        {
          "internalType": "uint256",
          "name": "",
          "type": "uint256"
        }
      ],
      "name": "uri",
      "outputs": [
        {
          "internalType": "string",
          "name": "",
          "type": "string"
        }
      ],
      "stateMutability": "view",
      "type": "function"
    },
    {
      "inputs": [
        {
          "internalType": "string",
          "name": "uri_",
          "type": "string"
        }
      ],
      "name": "initialize",
      "outputs": [],
      "stateMutability": "nonpayable",
      "type": "function"
    },
    {
      "inputs": [
        {
          "internalType": "address",
          "name": "shareOwner",
          "type": "address"
        }
      ],
      "name": "getTokenIdsByShareOwner",
      "outputs": [
        {
          "internalType": "uint256[]",
          "name": "",
          "type": "uint256[]"
        }
      ],
      "stateMutability": "view",
      "type": "function"
    },
    {
      "inputs": [
        {
          "internalType": "uint256",
          "name": "tokenId",
          "type": "uint256"
        }
      ],
      "name": "getOwnersBYtokenId",
      "outputs": [
        {
          "internalType": "address[]",
          "name": "",
          "type": "address[]"
        }
      ],
      "stateMutability": "view",
      "type": "function"
    },
    {
      "inputs": [],
      "name": "getTokenIds",
      "outputs": [
        {
          "internalType": "uint256[]",
          "name": "",
          "type": "uint256[]"
        }
      ],
      "stateMutability": "view",
      "type": "function"
    }
  ],
  "bytecode": "0x608060405234801561001057600080fd5b506152e5806100206000396000f3fe608060405234801561001057600080fd5b506004361061014c5760003560e01c806367f718a9116100c3578063a22cb4651161007c578063a22cb465146103af578063b09afec1146103cb578063e985e9c5146103fe578063f242432a1461042e578063f2fde38b1461044a578063f62d1888146104665761014c565b806367f718a914610327578063715018a614610345578063749388c41461034f5780638456cb591461036b5780638da5cb5b14610375578063971a5847146103935761014c565b806333ae11ae1161011557806333ae11ae1461022d57806333d592071461025d5780634e1273f41461028d5780635c975abb146102bd578063605105f0146102db57806366d0330c146102f75761014c565b8062fdd58e1461015157806301ffc9a7146101815780630e89341c146101b1578063180e1ef8146101e15780632eb2c2d614610211575b600080fd5b61016b60048036038101906101669190613ded565b610482565b6040516101789190614d60565b60405180910390f35b61019b60048036038101906101969190613f4b565b61054c565b6040516101a89190614ac3565b60405180910390f35b6101cb60048036038101906101c69190613fde565b61062e565b6040516101d89190614ade565b60405180910390f35b6101fb60048036038101906101f69190613bfe565b6106c2565b6040516102089190614a6a565b60405180910390f35b61022b60048036038101906102269190613c63565b610759565b005b61024760048036038101906102429190613fde565b610b52565b6040516102549190614a48565b60405180910390f35b61027760048036038101906102729190613fde565b610bf3565b6040516102849190614d60565b60405180910390f35b6102a760048036038101906102a29190613edf565b610c13565b6040516102b49190614a6a565b60405180910390f35b6102c5610dc4565b6040516102d29190614ac3565b60405180910390f35b6102f560048036038101906102f09190613d22565b610ddb565b005b610311600480360381019061030c9190613fde565b610e63565b60405161031e919061491f565b60405180910390f35b61032f610ea3565b60405161033c9190614a6a565b60405180910390f35b61034d610efb565b005b61036960048036038101906103649190614007565b611038565b005b61037361116a565b005b61037d6111f0565b60405161038a919061491f565b60405180910390f35b6103ad60048036038101906103a89190613e29565b61121a565b005b6103c960048036038101906103c49190613db1565b611471565b005b6103e560048036038101906103e09190613fde565b6115f2565b6040516103f594939291906149fc565b60405180910390f35b61041860048036038101906104139190613c27565b61170f565b6040516104259190614ac3565b60405180910390f35b61044860048036038101906104439190613d22565b6117a3565b005b610464600480360381019061045f9190613bfe565b611abe565b005b610480600480360381019061047b9190613f9d565b611c6a565b005b60008073ffffffffffffffffffffffffffffffffffffffff168373ffffffffffffffffffffffffffffffffffffffff1614156104f3576040517f08c379a00000000000000000000000000000000000000000000000000000000081526004016104ea90614b40565b60405180910390fd5b6065600083815260200190815260200160002060008473ffffffffffffffffffffffffffffffffffffffff1673ffffffffffffffffffffffffffffffffffffffff16815260200190815260200160002054905092915050565b60007fd9b67a26000000000000000000000000000000000000000000000000000000007bffffffffffffffffffffffffffffffffffffffffffffffffffffffff1916827bffffffffffffffffffffffffffffffffffffffffffffffffffffffff1916148061061757507f0e89341c000000000000000000000000000000000000000000000000000000007bffffffffffffffffffffffffffffffffffffffffffffffffffffffff1916827bffffffffffffffffffffffffffffffffffffffffffffffffffffffff1916145b80610627575061062682611d6d565b5b9050919050565b60606067805461063d90615077565b80601f016020809104026020016040519081016040528092919081815260200182805461066990615077565b80156106b65780601f1061068b576101008083540402835291602001916106b6565b820191906000526020600020905b81548152906001019060200180831161069957829003601f168201915b50505050509050919050565b606060fc60008373ffffffffffffffffffffffffffffffffffffffff1673ffffffffffffffffffffffffffffffffffffffff16815260200190815260200160002080548060200260200160405190810160405280929190818152602001828054801561074d57602002820191906000526020600020905b815481526020019060010190808311610739575b50505050509050919050565b815183511461079d576040517f08c379a000000000000000000000000000000000000000000000000000000000815260040161079490614d00565b60405180910390fd5b600073ffffffffffffffffffffffffffffffffffffffff168473ffffffffffffffffffffffffffffffffffffffff16141561080d576040517f08c379a000000000000000000000000000000000000000000000000000000000815260040161080490614c00565b60405180910390fd5b610815611dd7565b73ffffffffffffffffffffffffffffffffffffffff168573ffffffffffffffffffffffffffffffffffffffff16148061085b575061085a85610855611dd7565b61170f565b5b61089a576040517f08c379a000000000000000000000000000000000000000000000000000000000815260040161089190614c20565b60405180910390fd5b60006108a4611dd7565b90506108b4818787878787611ddf565b60005b8451811015610abd5760008582815181106108fb577f4e487b7100000000000000000000000000000000000000000000000000000000600052603260045260246000fd5b602002602001015190506000858381518110610940577f4e487b7100000000000000000000000000000000000000000000000000000000600052603260045260246000fd5b6020026020010151905060006065600084815260200190815260200160002060008b73ffffffffffffffffffffffffffffffffffffffff1673ffffffffffffffffffffffffffffffffffffffff168152602001908152602001600020549050818110156109e2576040517f08c379a00000000000000000000000000000000000000000000000000000000081526004016109d990614c80565b60405180910390fd5b81816109ee9190614f8d565b6065600085815260200190815260200160002060008c73ffffffffffffffffffffffffffffffffffffffff1673ffffffffffffffffffffffffffffffffffffffff16815260200190815260200160002081905550816065600085815260200190815260200160002060008b73ffffffffffffffffffffffffffffffffffffffff1673ffffffffffffffffffffffffffffffffffffffff1681526020019081526020016000206000828254610aa29190614f37565b9250508190555050505080610ab6906150a9565b90506108b7565b508473ffffffffffffffffffffffffffffffffffffffff168673ffffffffffffffffffffffffffffffffffffffff168273ffffffffffffffffffffffffffffffffffffffff167f4a39dc06d4c0dbc64b70af90fd698a233a518aa5d07e595d983b8c0526c8f7fb8787604051610b34929190614a8c565b60405180910390a4610b4a818787878787611de7565b505050505050565b606060fd6000838152602001908152602001600020805480602002602001604051908101604052809291908181526020018280548015610be757602002820191906000526020600020905b8160009054906101000a900473ffffffffffffffffffffffffffffffffffffffff1673ffffffffffffffffffffffffffffffffffffffff1681526020019060010190808311610b9d575b50505050509050919050565b600060fb6000838152602001908152602001600020600201549050919050565b60608151835114610c59576040517f08c379a0000000000000000000000000000000000000000000000000000000008152600401610c5090614ce0565b60405180910390fd5b6000835167ffffffffffffffff811115610c9c577f4e487b7100000000000000000000000000000000000000000000000000000000600052604160045260246000fd5b604051908082528060200260200182016040528015610cca5781602001602082028036833780820191505090505b50905060005b8451811015610db957610d63858281518110610d15577f4e487b7100000000000000000000000000000000000000000000000000000000600052603260045260246000fd5b6020026020010151858381518110610d56577f4e487b7100000000000000000000000000000000000000000000000000000000600052603260045260246000fd5b6020026020010151610482565b828281518110610d9c577f4e487b7100000000000000000000000000000000000000000000000000000000600052603260045260246000fd5b60200260200101818152505080610db2906150a9565b9050610cd0565b508091505092915050565b6000609760009054906101000a900460ff16905090565b610de3610dc4565b15610e23576040517f08c379a0000000000000000000000000000000000000000000000000000000008152600401610e1a90614d40565b60405180910390fd5b6000610e2f8685610482565b90506000610e3d8686610482565b9050610e4c87878787876117a3565b610e5a878787878686611fb7565b50505050505050565b600060fb600083815260200190815260200160002060000160009054906101000a900473ffffffffffffffffffffffffffffffffffffffff169050919050565b606060fe805480602002602001604051908101604052809291908181526020018280548015610ef157602002820191906000526020600020905b815481526020019060010190808311610edd575b5050505050905090565b610f03611dd7565b73ffffffffffffffffffffffffffffffffffffffff16610f216111f0565b73ffffffffffffffffffffffffffffffffffffffff1614610f77576040517f08c379a0000000000000000000000000000000000000000000000000000000008152600401610f6e90614ca0565b60405180910390fd5b600073ffffffffffffffffffffffffffffffffffffffff1660c960009054906101000a900473ffffffffffffffffffffffffffffffffffffffff1673ffffffffffffffffffffffffffffffffffffffff167f8be0079c531659141344cd1fd0a4f28419497f9722a3daafe3b4186f6b6457e060405160405180910390a3600060c960006101000a81548173ffffffffffffffffffffffffffffffffffffffff021916908373ffffffffffffffffffffffffffffffffffffffff160217905550565b611040611dd7565b73ffffffffffffffffffffffffffffffffffffffff1661105e6111f0565b73ffffffffffffffffffffffffffffffffffffffff16146110b4576040517f08c379a00000000000000000000000000000000000000000000000000000000081526004016110ab90614ca0565b60405180910390fd5b6110bc610dc4565b156110fc576040517f08c379a00000000000000000000000000000000000000000000000000000000081526004016110f390614d40565b60405180910390fd5b60006111088285610482565b90508281101561114d576040517f08c379a000000000000000000000000000000000000000000000000000000000815260040161114490614be0565b60405180910390fd5b611158828585612336565b6111648484848461255e565b50505050565b611172611dd7565b73ffffffffffffffffffffffffffffffffffffffff166111906111f0565b73ffffffffffffffffffffffffffffffffffffffff16146111e6576040517f08c379a00000000000000000000000000000000000000000000000000000000081526004016111dd90614ca0565b60405180910390fd5b6111ee612581565b565b600060c960009054906101000a900473ffffffffffffffffffffffffffffffffffffffff16905090565b611222611dd7565b73ffffffffffffffffffffffffffffffffffffffff166112406111f0565b73ffffffffffffffffffffffffffffffffffffffff1614611296576040517f08c379a000000000000000000000000000000000000000000000000000000000815260040161128d90614ca0565b60405180910390fd5b61129e610dc4565b156112de576040517f08c379a00000000000000000000000000000000000000000000000000000000081526004016112d590614d40565b60405180910390fd5b6112f982868660405180602001604052806000815250612624565b600060019050600073ffffffffffffffffffffffffffffffffffffffff1660fb600088815260200190815260200160002060000160009054906101000a900473ffffffffffffffffffffffffffffffffffffffff1673ffffffffffffffffffffffffffffffffffffffff16141561145c576113726138b8565b88816000019073ffffffffffffffffffffffffffffffffffffffff16908173ffffffffffffffffffffffffffffffffffffffff168152505087816020018181525050848160400181815250508281606001819052508060fb600089815260200190815260200160002060008201518160000160006101000a81548173ffffffffffffffffffffffffffffffffffffffff021916908373ffffffffffffffffffffffffffffffffffffffff160217905550602082015181600101556040820151816002015560608201518160030190805190602001906114529291906138f6565b5090505060009150505b6114678684836127bb565b5050505050505050565b8173ffffffffffffffffffffffffffffffffffffffff16611490611dd7565b73ffffffffffffffffffffffffffffffffffffffff1614156114e7576040517f08c379a00000000000000000000000000000000000000000000000000000000081526004016114de90614cc0565b60405180910390fd5b80606660006114f4611dd7565b73ffffffffffffffffffffffffffffffffffffffff1673ffffffffffffffffffffffffffffffffffffffff16815260200190815260200160002060008473ffffffffffffffffffffffffffffffffffffffff1673ffffffffffffffffffffffffffffffffffffffff16815260200190815260200160002060006101000a81548160ff0219169083151502179055508173ffffffffffffffffffffffffffffffffffffffff166115a1611dd7565b73ffffffffffffffffffffffffffffffffffffffff167f17307eab39ab6107e8899845ad3d59bd9653f200f220920489ca2b5937696c31836040516115e69190614ac3565b60405180910390a35050565b6000806000606060fb600086815260200190815260200160002060000160009054906101000a900473ffffffffffffffffffffffffffffffffffffffff1660fb60008781526020019081526020016000206001015460fb60008881526020019081526020016000206002015460fb600089815260200190815260200160002060030180805461168090615077565b80601f01602080910402602001604051908101604052809291908181526020018280546116ac90615077565b80156116f95780601f106116ce576101008083540402835291602001916116f9565b820191906000526020600020905b8154815290600101906020018083116116dc57829003601f168201915b5050505050905093509350935093509193509193565b6000606660008473ffffffffffffffffffffffffffffffffffffffff1673ffffffffffffffffffffffffffffffffffffffff16815260200190815260200160002060008373ffffffffffffffffffffffffffffffffffffffff1673ffffffffffffffffffffffffffffffffffffffff16815260200190815260200160002060009054906101000a900460ff16905092915050565b600073ffffffffffffffffffffffffffffffffffffffff168473ffffffffffffffffffffffffffffffffffffffff161415611813576040517f08c379a000000000000000000000000000000000000000000000000000000000815260040161180a90614c00565b60405180910390fd5b61181b611dd7565b73ffffffffffffffffffffffffffffffffffffffff168573ffffffffffffffffffffffffffffffffffffffff16148061186157506118608561185b611dd7565b61170f565b5b6118a0576040517f08c379a000000000000000000000000000000000000000000000000000000000815260040161189790614ba0565b60405180910390fd5b60006118aa611dd7565b90506118ca8187876118bb88612bc9565b6118c488612bc9565b87611ddf565b60006065600086815260200190815260200160002060008873ffffffffffffffffffffffffffffffffffffffff1673ffffffffffffffffffffffffffffffffffffffff16815260200190815260200160002054905083811015611962576040517f08c379a000000000000000000000000000000000000000000000000000000000815260040161195990614c80565b60405180910390fd5b838161196e9190614f8d565b6065600087815260200190815260200160002060008973ffffffffffffffffffffffffffffffffffffffff1673ffffffffffffffffffffffffffffffffffffffff16815260200190815260200160002081905550836065600087815260200190815260200160002060008873ffffffffffffffffffffffffffffffffffffffff1673ffffffffffffffffffffffffffffffffffffffff1681526020019081526020016000206000828254611a229190614f37565b925050819055508573ffffffffffffffffffffffffffffffffffffffff168773ffffffffffffffffffffffffffffffffffffffff168373ffffffffffffffffffffffffffffffffffffffff167fc3d58168c5ae7397731d063d5bbf3d657854427343f4c083240f7aacaa2d0f628888604051611a9f929190614d7b565b60405180910390a4611ab5828888888888612c8f565b50505050505050565b611ac6611dd7565b73ffffffffffffffffffffffffffffffffffffffff16611ae46111f0565b73ffffffffffffffffffffffffffffffffffffffff1614611b3a576040517f08c379a0000000000000000000000000000000000000000000000000000000008152600401611b3190614ca0565b60405180910390fd5b600073ffffffffffffffffffffffffffffffffffffffff168173ffffffffffffffffffffffffffffffffffffffff161415611baa576040517f08c379a0000000000000000000000000000000000000000000000000000000008152600401611ba190614b60565b60405180910390fd5b8073ffffffffffffffffffffffffffffffffffffffff1660c960009054906101000a900473ffffffffffffffffffffffffffffffffffffffff1673ffffffffffffffffffffffffffffffffffffffff167f8be0079c531659141344cd1fd0a4f28419497f9722a3daafe3b4186f6b6457e060405160405180910390a38060c960006101000a81548173ffffffffffffffffffffffffffffffffffffffff021916908373ffffffffffffffffffffffffffffffffffffffff16021790555050565b600060019054906101000a900460ff1680611c90575060008054906101000a900460ff16155b611ccf576040517f08c379a0000000000000000000000000000000000000000000000000000000008152600401611cc690614c40565b60405180910390fd5b60008060019054906101000a900460ff161590508015611d1f576001600060016101000a81548160ff02191690831515021790555060016000806101000a81548160ff0219169083151502179055505b611d27612e5f565b611d2f612f38565b611d37613011565b611d4082613105565b611d486131e8565b8015611d695760008060016101000a81548160ff0219169083151502179055505b5050565b60007f01ffc9a7000000000000000000000000000000000000000000000000000000007bffffffffffffffffffffffffffffffffffffffffffffffffffffffff1916827bffffffffffffffffffffffffffffffffffffffffffffffffffffffff1916149050919050565b600033905090565b505050505050565b611e068473ffffffffffffffffffffffffffffffffffffffff1661336a565b15611faf578373ffffffffffffffffffffffffffffffffffffffff1663bc197c8187878686866040518663ffffffff1660e01b8152600401611e4c95949392919061493a565b602060405180830381600087803b158015611e6657600080fd5b505af1925050508015611e9757506040513d601f19601f82011682018060405250810190611e949190613f74565b60015b611f2657611ea361519d565b80611eae5750611eeb565b806040517f08c379a0000000000000000000000000000000000000000000000000000000008152600401611ee29190614ade565b60405180910390fd5b6040517f08c379a0000000000000000000000000000000000000000000000000000000008152600401611f1d90614b00565b60405180910390fd5b63bc197c8160e01b7bffffffffffffffffffffffffffffffffffffffffffffffffffffffff1916817bffffffffffffffffffffffffffffffffffffffffffffffffffffffff191614611fad576040517f08c379a0000000000000000000000000000000000000000000000000000000008152600401611fa490614b20565b60405180910390fd5b505b505050505050565b81831061224a57600060fd60008681526020019081526020016000208054905090506000805b828110156120a95760fd60008881526020019081526020016000208181548110612030577f4e487b7100000000000000000000000000000000000000000000000000000000600052603260045260246000fd5b9060005260206000200160009054906101000a900473ffffffffffffffffffffffffffffffffffffffff1673ffffffffffffffffffffffffffffffffffffffff168973ffffffffffffffffffffffffffffffffffffffff161415612096578091506120a9565b80806120a1906150a9565b915050611fdd565b5060fd60008781526020019081526020016000206001836120ca9190614f8d565b81548110612101577f4e487b7100000000000000000000000000000000000000000000000000000000600052603260045260246000fd5b9060005260206000200160009054906101000a900473ffffffffffffffffffffffffffffffffffffffff1660fd60008881526020019081526020016000208281548110612177577f4e487b7100000000000000000000000000000000000000000000000000000000600052603260045260246000fd5b9060005260206000200160006101000a81548173ffffffffffffffffffffffffffffffffffffffff021916908373ffffffffffffffffffffffffffffffffffffffff16021790555060fd6000878152602001908152602001600020805480612208577f4e487b7100000000000000000000000000000000000000000000000000000000600052603160045260246000fd5b6001900381819060005260206000200160006101000a81549073ffffffffffffffffffffffffffffffffffffffff02191690559055612247888761337d565b50505b600081141561232e5760fd6000858152602001908152602001600020859080600181540180825580915050600190039060005260206000200160009091909190916101000a81548173ffffffffffffffffffffffffffffffffffffffff021916908373ffffffffffffffffffffffffffffffffffffffff16021790555060fc60008673ffffffffffffffffffffffffffffffffffffffff1673ffffffffffffffffffffffffffffffffffffffff1681526020019081526020016000208490806001815401808255809150506001900390600052602060002001600090919091909150555b505050505050565b600073ffffffffffffffffffffffffffffffffffffffff168373ffffffffffffffffffffffffffffffffffffffff1614156123a6576040517f08c379a000000000000000000000000000000000000000000000000000000000815260040161239d90614c60565b60405180910390fd5b60006123b0611dd7565b90506123e0818560006123c287612bc9565b6123cb87612bc9565b60405180602001604052806000815250611ddf565b60006065600085815260200190815260200160002060008673ffffffffffffffffffffffffffffffffffffffff1673ffffffffffffffffffffffffffffffffffffffff16815260200190815260200160002054905082811015612478576040517f08c379a000000000000000000000000000000000000000000000000000000000815260040161246f90614b80565b60405180910390fd5b82816124849190614f8d565b6065600086815260200190815260200160002060008773ffffffffffffffffffffffffffffffffffffffff1673ffffffffffffffffffffffffffffffffffffffff16815260200190815260200160002081905550600073ffffffffffffffffffffffffffffffffffffffff168573ffffffffffffffffffffffffffffffffffffffff168373ffffffffffffffffffffffffffffffffffffffff167fc3d58168c5ae7397731d063d5bbf3d657854427343f4c083240f7aacaa2d0f62878760405161254f929190614d7b565b60405180910390a45050505050565b8281141561257b57612570828561337d565b61257a8285613619565b5b50505050565b612589610dc4565b156125c9576040517f08c379a00000000000000000000000000000000000000000000000000000000081526004016125c090614bc0565b60405180910390fd5b6001609760006101000a81548160ff0219169083151502179055507f62e78cea01bee320cd4e420270b5ea74000d11b0c9f74754ebdbfc544b05a25861260d611dd7565b60405161261a919061491f565b60405180910390a1565b600073ffffffffffffffffffffffffffffffffffffffff168473ffffffffffffffffffffffffffffffffffffffff161415612694576040517f08c379a000000000000000000000000000000000000000000000000000000000815260040161268b90614d20565b60405180910390fd5b600061269e611dd7565b90506126bf816000876126b088612bc9565b6126b988612bc9565b87611ddf565b826065600086815260200190815260200160002060008773ffffffffffffffffffffffffffffffffffffffff1673ffffffffffffffffffffffffffffffffffffffff168152602001908152602001600020600082825461271f9190614f37565b925050819055508473ffffffffffffffffffffffffffffffffffffffff16600073ffffffffffffffffffffffffffffffffffffffff168273ffffffffffffffffffffffffffffffffffffffff167fc3d58168c5ae7397731d063d5bbf3d657854427343f4c083240f7aacaa2d0f62878760405161279d929190614d7b565b60405180910390a46127b481600087878787612c8f565b5050505050565b806127ea5760fe8390806001815401808255809150506001900390600052602060002001600090919091909150555b600060fc60008473ffffffffffffffffffffffffffffffffffffffff1673ffffffffffffffffffffffffffffffffffffffff16815260200190815260200160002080549050905060008114156128a55760fc60008473ffffffffffffffffffffffffffffffffffffffff1673ffffffffffffffffffffffffffffffffffffffff1681526020019081526020016000208490806001815401808255809150506001900390600052602060002001600090919091909150556129ce565b60005b818110156129cc5760fc60008573ffffffffffffffffffffffffffffffffffffffff1673ffffffffffffffffffffffffffffffffffffffff1681526020019081526020016000208181548110612927577f4e487b7100000000000000000000000000000000000000000000000000000000600052603260045260246000fd5b906000526020600020015485141561293e576129cc565b60018261294b9190614f8d565b8114156129b95760fc60008573ffffffffffffffffffffffffffffffffffffffff1673ffffffffffffffffffffffffffffffffffffffff1681526020019081526020016000208590806001815401808255809150506001900390600052602060002001600090919091909150555b80806129c4906150a9565b9150506128a8565b505b600060fd60008681526020019081526020016000208054905090506000811415612a6b5760fd6000868152602001908152602001600020849080600181540180825580915050600190039060005260206000200160009091909190916101000a81548173ffffffffffffffffffffffffffffffffffffffff021916908373ffffffffffffffffffffffffffffffffffffffff160217905550612bc2565b60005b81811015612bc05760fd60008781526020019081526020016000208181548110612ac1577f4e487b7100000000000000000000000000000000000000000000000000000000600052603260045260246000fd5b9060005260206000200160009054906101000a900473ffffffffffffffffffffffffffffffffffffffff1673ffffffffffffffffffffffffffffffffffffffff168573ffffffffffffffffffffffffffffffffffffffff161415612b2457612bc0565b600182612b319190614f8d565b811415612bad5760fd6000878152602001908152602001600020859080600181540180825580915050600190039060005260206000200160009091909190916101000a81548173ffffffffffffffffffffffffffffffffffffffff021916908373ffffffffffffffffffffffffffffffffffffffff1602179055505b8080612bb8906150a9565b915050612a6e565b505b5050505050565b60606000600167ffffffffffffffff811115612c0e577f4e487b7100000000000000000000000000000000000000000000000000000000600052604160045260246000fd5b604051908082528060200260200182016040528015612c3c5781602001602082028036833780820191505090505b5090508281600081518110612c7a577f4e487b7100000000000000000000000000000000000000000000000000000000600052603260045260246000fd5b60200260200101818152505080915050919050565b612cae8473ffffffffffffffffffffffffffffffffffffffff1661336a565b15612e57578373ffffffffffffffffffffffffffffffffffffffff1663f23a6e6187878686866040518663ffffffff1660e01b8152600401612cf49594939291906149a2565b602060405180830381600087803b158015612d0e57600080fd5b505af1925050508015612d3f57506040513d601f19601f82011682018060405250810190612d3c9190613f74565b60015b612dce57612d4b61519d565b80612d565750612d93565b806040517f08c379a0000000000000000000000000000000000000000000000000000000008152600401612d8a9190614ade565b60405180910390fd5b6040517f08c379a0000000000000000000000000000000000000000000000000000000008152600401612dc590614b00565b60405180910390fd5b63f23a6e6160e01b7bffffffffffffffffffffffffffffffffffffffffffffffffffffffff1916817bffffffffffffffffffffffffffffffffffffffffffffffffffffffff191614612e55576040517f08c379a0000000000000000000000000000000000000000000000000000000008152600401612e4c90614b20565b60405180910390fd5b505b505050505050565b600060019054906101000a900460ff1680612e85575060008054906101000a900460ff16155b612ec4576040517f08c379a0000000000000000000000000000000000000000000000000000000008152600401612ebb90614c40565b60405180910390fd5b60008060019054906101000a900460ff161590508015612f14576001600060016101000a81548160ff02191690831515021790555060016000806101000a81548160ff0219169083151502179055505b8015612f355760008060016101000a81548160ff0219169083151502179055505b50565b600060019054906101000a900460ff1680612f5e575060008054906101000a900460ff16155b612f9d576040517f08c379a0000000000000000000000000000000000000000000000000000000008152600401612f9490614c40565b60405180910390fd5b60008060019054906101000a900460ff161590508015612fed576001600060016101000a81548160ff02191690831515021790555060016000806101000a81548160ff0219169083151502179055505b801561300e5760008060016101000a81548160ff0219169083151502179055505b50565b600060019054906101000a900460ff1680613037575060008054906101000a900460ff16155b613076576040517f08c379a000000000000000000000000000000000000000000000000000000000815260040161306d90614c40565b60405180910390fd5b60008060019054906101000a900460ff1615905080156130c6576001600060016101000a81548160ff02191690831515021790555060016000806101000a81548160ff0219169083151502179055505b6000609760006101000a81548160ff02191690831515021790555080156131025760008060016101000a81548160ff0219169083151502179055505b50565b600060019054906101000a900460ff168061312b575060008054906101000a900460ff16155b61316a576040517f08c379a000000000000000000000000000000000000000000000000000000000815260040161316190614c40565b60405180910390fd5b60008060019054906101000a900460ff1615905080156131ba576001600060016101000a81548160ff02191690831515021790555060016000806101000a81548160ff0219169083151502179055505b6131c38261389e565b80156131e45760008060016101000a81548160ff0219169083151502179055505b5050565b600060019054906101000a900460ff168061320e575060008054906101000a900460ff16155b61324d576040517f08c379a000000000000000000000000000000000000000000000000000000000815260040161324490614c40565b60405180910390fd5b60008060019054906101000a900460ff16159050801561329d576001600060016101000a81548160ff02191690831515021790555060016000806101000a81548160ff0219169083151502179055505b60006132a7611dd7565b90508060c960006101000a81548173ffffffffffffffffffffffffffffffffffffffff021916908373ffffffffffffffffffffffffffffffffffffffff1602179055508073ffffffffffffffffffffffffffffffffffffffff16600073ffffffffffffffffffffffffffffffffffffffff167f8be0079c531659141344cd1fd0a4f28419497f9722a3daafe3b4186f6b6457e060405160405180910390a35080156133675760008060016101000a81548160ff0219169083151502179055505b50565b600080823b905060008111915050919050565b600060fc60008473ffffffffffffffffffffffffffffffffffffffff1673ffffffffffffffffffffffffffffffffffffffff1681526020019081526020016000208054905090506000805b828110156134745760fc60008673ffffffffffffffffffffffffffffffffffffffff1673ffffffffffffffffffffffffffffffffffffffff1681526020019081526020016000208181548110613447577f4e487b7100000000000000000000000000000000000000000000000000000000600052603260045260246000fd5b906000526020600020015484141561346157809150613474565b808061346c906150a9565b9150506133c8565b5060fc60008573ffffffffffffffffffffffffffffffffffffffff1673ffffffffffffffffffffffffffffffffffffffff1681526020019081526020016000206001836134c19190614f8d565b815481106134f8577f4e487b7100000000000000000000000000000000000000000000000000000000600052603260045260246000fd5b906000526020600020015460fc60008673ffffffffffffffffffffffffffffffffffffffff1673ffffffffffffffffffffffffffffffffffffffff168152602001908152602001600020828154811061357a577f4e487b7100000000000000000000000000000000000000000000000000000000600052603260045260246000fd5b906000526020600020018190555060fc60008573ffffffffffffffffffffffffffffffffffffffff1673ffffffffffffffffffffffffffffffffffffffff1681526020019081526020016000208054806135fd577f4e487b7100000000000000000000000000000000000000000000000000000000600052603160045260246000fd5b6001900381819060005260206000200160009055905550505050565b600060fd60008381526020019081526020016000208054905090506000805b828110156137045760fd6000858152602001908152602001600020818154811061368b577f4e487b7100000000000000000000000000000000000000000000000000000000600052603260045260246000fd5b9060005260206000200160009054906101000a900473ffffffffffffffffffffffffffffffffffffffff1673ffffffffffffffffffffffffffffffffffffffff168573ffffffffffffffffffffffffffffffffffffffff1614156136f157809150613704565b80806136fc906150a9565b915050613638565b5060fd60008481526020019081526020016000206001836137259190614f8d565b8154811061375c577f4e487b7100000000000000000000000000000000000000000000000000000000600052603260045260246000fd5b9060005260206000200160009054906101000a900473ffffffffffffffffffffffffffffffffffffffff1660fd600085815260200190815260200160002082815481106137d2577f4e487b7100000000000000000000000000000000000000000000000000000000600052603260045260246000fd5b9060005260206000200160006101000a81548173ffffffffffffffffffffffffffffffffffffffff021916908373ffffffffffffffffffffffffffffffffffffffff16021790555060fd6000848152602001908152602001600020805480613863577f4e487b7100000000000000000000000000000000000000000000000000000000600052603160045260246000fd5b6001900381819060005260206000200160006101000a81549073ffffffffffffffffffffffffffffffffffffffff0219169055905550505050565b80606790805190602001906138b49291906138f6565b5050565b6040518060800160405280600073ffffffffffffffffffffffffffffffffffffffff1681526020016000815260200160008152602001606081525090565b82805461390290615077565b90600052602060002090601f016020900481019282613924576000855561396b565b82601f1061393d57805160ff191683800117855561396b565b8280016001018555821561396b579182015b8281111561396a57825182559160200191906001019061394f565b5b509050613978919061397c565b5090565b5b8082111561399557600081600090555060010161397d565b5090565b60006139ac6139a784614dd5565b614da4565b905080838252602082019050828560208602820111156139cb57600080fd5b60005b858110156139fb57816139e18882613aed565b8452602084019350602083019250506001810190506139ce565b5050509392505050565b6000613a18613a1384614e01565b614da4565b90508083825260208201905082856020860282011115613a3757600080fd5b60005b85811015613a675781613a4d8882613be9565b845260208401935060208301925050600181019050613a3a565b5050509392505050565b6000613a84613a7f84614e2d565b614da4565b905082815260208101848484011115613a9c57600080fd5b613aa7848285615035565b509392505050565b6000613ac2613abd84614e5d565b614da4565b905082815260208101848484011115613ada57600080fd5b613ae5848285615035565b509392505050565b600081359050613afc81615253565b92915050565b600082601f830112613b1357600080fd5b8135613b23848260208601613999565b91505092915050565b600082601f830112613b3d57600080fd5b8135613b4d848260208601613a05565b91505092915050565b600081359050613b658161526a565b92915050565b600081359050613b7a81615281565b92915050565b600081519050613b8f81615281565b92915050565b600082601f830112613ba657600080fd5b8135613bb6848260208601613a71565b91505092915050565b600082601f830112613bd057600080fd5b8135613be0848260208601613aaf565b91505092915050565b600081359050613bf881615298565b92915050565b600060208284031215613c1057600080fd5b6000613c1e84828501613aed565b91505092915050565b60008060408385031215613c3a57600080fd5b6000613c4885828601613aed565b9250506020613c5985828601613aed565b9150509250929050565b600080600080600060a08688031215613c7b57600080fd5b6000613c8988828901613aed565b9550506020613c9a88828901613aed565b945050604086013567ffffffffffffffff811115613cb757600080fd5b613cc388828901613b2c565b935050606086013567ffffffffffffffff811115613ce057600080fd5b613cec88828901613b2c565b925050608086013567ffffffffffffffff811115613d0957600080fd5b613d1588828901613b95565b9150509295509295909350565b600080600080600060a08688031215613d3a57600080fd5b6000613d4888828901613aed565b9550506020613d5988828901613aed565b9450506040613d6a88828901613be9565b9350506060613d7b88828901613be9565b925050608086013567ffffffffffffffff811115613d9857600080fd5b613da488828901613b95565b9150509295509295909350565b60008060408385031215613dc457600080fd5b6000613dd285828601613aed565b9250506020613de385828601613b56565b9150509250929050565b60008060408385031215613e0057600080fd5b6000613e0e85828601613aed565b9250506020613e1f85828601613be9565b9150509250929050565b600080600080600080600060e0888a031215613e4457600080fd5b6000613e528a828b01613aed565b9750506020613e638a828b01613be9565b9650506040613e748a828b01613be9565b9550506060613e858a828b01613be9565b9450506080613e968a828b01613be9565b93505060a0613ea78a828b01613aed565b92505060c088013567ffffffffffffffff811115613ec457600080fd5b613ed08a828b01613bbf565b91505092959891949750929550565b60008060408385031215613ef257600080fd5b600083013567ffffffffffffffff811115613f0c57600080fd5b613f1885828601613b02565b925050602083013567ffffffffffffffff811115613f3557600080fd5b613f4185828601613b2c565b9150509250929050565b600060208284031215613f5d57600080fd5b6000613f6b84828501613b6b565b91505092915050565b600060208284031215613f8657600080fd5b6000613f9484828501613b80565b91505092915050565b600060208284031215613faf57600080fd5b600082013567ffffffffffffffff811115613fc957600080fd5b613fd584828501613bbf565b91505092915050565b600060208284031215613ff057600080fd5b6000613ffe84828501613be9565b91505092915050565b60008060006060848603121561401c57600080fd5b600061402a86828701613be9565b935050602061403b86828701613be9565b925050604061404c86828701613aed565b9150509250925092565b60006140628383614086565b60208301905092915050565b600061407a8383614901565b60208301905092915050565b61408f81614fc1565b82525050565b61409e81614fc1565b82525050565b60006140af82614ead565b6140b98185614ef3565b93506140c483614e8d565b8060005b838110156140f55781516140dc8882614056565b97506140e783614ed9565b9250506001810190506140c8565b5085935050505092915050565b600061410d82614eb8565b6141178185614f04565b935061412283614e9d565b8060005b8381101561415357815161413a888261406e565b975061414583614ee6565b925050600181019050614126565b5085935050505092915050565b61416981614fd3565b82525050565b600061417a82614ec3565b6141848185614f15565b9350614194818560208601615044565b61419d8161517f565b840191505092915050565b60006141b382614ece565b6141bd8185614f26565b93506141cd818560208601615044565b6141d68161517f565b840191505092915050565b60006141ee603483614f26565b91507f455243313135353a207472616e7366657220746f206e6f6e204552433131353560008301527f526563656976657220696d706c656d656e7465720000000000000000000000006020830152604082019050919050565b6000614254602883614f26565b91507f455243313135353a204552433131353552656365697665722072656a6563746560008301527f6420746f6b656e730000000000000000000000000000000000000000000000006020830152604082019050919050565b60006142ba602b83614f26565b91507f455243313135353a2062616c616e636520717565727920666f7220746865207a60008301527f65726f20616464726573730000000000000000000000000000000000000000006020830152604082019050919050565b6000614320602683614f26565b91507f4f776e61626c653a206e6577206f776e657220697320746865207a65726f206160008301527f64647265737300000000000000000000000000000000000000000000000000006020830152604082019050919050565b6000614386602483614f26565b91507f455243313135353a206275726e20616d6f756e7420657863656564732062616c60008301527f616e6365000000000000000000000000000000000000000000000000000000006020830152604082019050919050565b60006143ec602983614f26565b91507f455243313135353a2063616c6c6572206973206e6f74206f776e6572206e6f7260008301527f20617070726f76656400000000000000000000000000000000000000000000006020830152604082019050919050565b6000614452601083614f26565b91507f5061757361626c653a20706175736564000000000000000000000000000000006000830152602082019050919050565b6000614492604083614f26565b91507f7472616e7366657265722068617320746f206f776e20657175616c206f72206d60008301527f6f726520736861726573207468616e2074686520676976656e20616d6f756e746020830152604082019050919050565b60006144f8602583614f26565b91507f455243313135353a207472616e7366657220746f20746865207a65726f20616460008301527f64726573730000000000000000000000000000000000000000000000000000006020830152604082019050919050565b600061455e603283614f26565b91507f455243313135353a207472616e736665722063616c6c6572206973206e6f742060008301527f6f776e6572206e6f7220617070726f76656400000000000000000000000000006020830152604082019050919050565b60006145c4602e83614f26565b91507f496e697469616c697a61626c653a20636f6e747261637420697320616c72656160008301527f647920696e697469616c697a65640000000000000000000000000000000000006020830152604082019050919050565b600061462a602383614f26565b91507f455243313135353a206275726e2066726f6d20746865207a65726f206164647260008301527f65737300000000000000000000000000000000000000000000000000000000006020830152604082019050919050565b6000614690602a83614f26565b91507f455243313135353a20696e73756666696369656e742062616c616e636520666f60008301527f72207472616e73666572000000000000000000000000000000000000000000006020830152604082019050919050565b60006146f6602083614f26565b91507f4f776e61626c653a2063616c6c6572206973206e6f7420746865206f776e65726000830152602082019050919050565b6000614736602983614f26565b91507f455243313135353a2073657474696e6720617070726f76616c2073746174757360008301527f20666f722073656c6600000000000000000000000000000000000000000000006020830152604082019050919050565b600061479c602983614f26565b91507f455243313135353a206163636f756e747320616e6420696473206c656e67746860008301527f206d69736d6174636800000000000000000000000000000000000000000000006020830152604082019050919050565b6000614802602883614f26565b91507f455243313135353a2069647320616e6420616d6f756e7473206c656e6774682060008301527f6d69736d617463680000000000000000000000000000000000000000000000006020830152604082019050919050565b6000614868602183614f26565b91507f455243313135353a206d696e7420746f20746865207a65726f2061646472657360008301527f73000000000000000000000000000000000000000000000000000000000000006020830152604082019050919050565b60006148ce601883614f26565b91507f4e6f7420616c6c6f776564207768696c652070617573656400000000000000006000830152602082019050919050565b61490a8161502b565b82525050565b6149198161502b565b82525050565b60006020820190506149346000830184614095565b92915050565b600060a08201905061494f6000830188614095565b61495c6020830187614095565b818103604083015261496e8186614102565b905081810360608301526149828185614102565b90508181036080830152614996818461416f565b90509695505050505050565b600060a0820190506149b76000830188614095565b6149c46020830187614095565b6149d16040830186614910565b6149de6060830185614910565b81810360808301526149f0818461416f565b90509695505050505050565b6000608082019050614a116000830187614095565b614a1e6020830186614910565b614a2b6040830185614910565b8181036060830152614a3d81846141a8565b905095945050505050565b60006020820190508181036000830152614a6281846140a4565b905092915050565b60006020820190508181036000830152614a848184614102565b905092915050565b60006040820190508181036000830152614aa68185614102565b90508181036020830152614aba8184614102565b90509392505050565b6000602082019050614ad86000830184614160565b92915050565b60006020820190508181036000830152614af881846141a8565b905092915050565b60006020820190508181036000830152614b19816141e1565b9050919050565b60006020820190508181036000830152614b3981614247565b9050919050565b60006020820190508181036000830152614b59816142ad565b9050919050565b60006020820190508181036000830152614b7981614313565b9050919050565b60006020820190508181036000830152614b9981614379565b9050919050565b60006020820190508181036000830152614bb9816143df565b9050919050565b60006020820190508181036000830152614bd981614445565b9050919050565b60006020820190508181036000830152614bf981614485565b9050919050565b60006020820190508181036000830152614c19816144eb565b9050919050565b60006020820190508181036000830152614c3981614551565b9050919050565b60006020820190508181036000830152614c59816145b7565b9050919050565b60006020820190508181036000830152614c798161461d565b9050919050565b60006020820190508181036000830152614c9981614683565b9050919050565b60006020820190508181036000830152614cb9816146e9565b9050919050565b60006020820190508181036000830152614cd981614729565b9050919050565b60006020820190508181036000830152614cf98161478f565b9050919050565b60006020820190508181036000830152614d19816147f5565b9050919050565b60006020820190508181036000830152614d398161485b565b9050919050565b60006020820190508181036000830152614d59816148c1565b9050919050565b6000602082019050614d756000830184614910565b92915050565b6000604082019050614d906000830185614910565b614d9d6020830184614910565b9392505050565b6000604051905081810181811067ffffffffffffffff82111715614dcb57614dca615150565b5b8060405250919050565b600067ffffffffffffffff821115614df057614def615150565b5b602082029050602081019050919050565b600067ffffffffffffffff821115614e1c57614e1b615150565b5b602082029050602081019050919050565b600067ffffffffffffffff821115614e4857614e47615150565b5b601f19601f8301169050602081019050919050565b600067ffffffffffffffff821115614e7857614e77615150565b5b601f19601f8301169050602081019050919050565b6000819050602082019050919050565b6000819050602082019050919050565b600081519050919050565b600081519050919050565b600081519050919050565b600081519050919050565b6000602082019050919050565b6000602082019050919050565b600082825260208201905092915050565b600082825260208201905092915050565b600082825260208201905092915050565b600082825260208201905092915050565b6000614f428261502b565b9150614f4d8361502b565b9250827fffffffffffffffffffffffffffffffffffffffffffffffffffffffffffffffff03821115614f8257614f816150f2565b5b828201905092915050565b6000614f988261502b565b9150614fa38361502b565b925082821015614fb657614fb56150f2565b5b828203905092915050565b6000614fcc8261500b565b9050919050565b60008115159050919050565b60007fffffffff0000000000000000000000000000000000000000000000000000000082169050919050565b600073ffffffffffffffffffffffffffffffffffffffff82169050919050565b6000819050919050565b82818337600083830152505050565b60005b83811015615062578082015181840152602081019050615047565b83811115615071576000848401525b50505050565b6000600282049050600182168061508f57607f821691505b602082108114156150a3576150a2615121565b5b50919050565b60006150b48261502b565b91507fffffffffffffffffffffffffffffffffffffffffffffffffffffffffffffffff8214156150e7576150e66150f2565b5b600182019050919050565b7f4e487b7100000000000000000000000000000000000000000000000000000000600052601160045260246000fd5b7f4e487b7100000000000000000000000000000000000000000000000000000000600052602260045260246000fd5b7f4e487b7100000000000000000000000000000000000000000000000000000000600052604160045260246000fd5b6000601f19601f8301169050919050565b60008160e01c9050919050565b600060443d10156151ad57615250565b60046000803e6151be600051615190565b6308c379a081146151cf5750615250565b60405160043d036004823e80513d602482011167ffffffffffffffff821117156151fb57505050615250565b808201805167ffffffffffffffff81111561521a575050505050615250565b8060208301013d850181111561523557505050505050615250565b61523e8261517f565b60208401016040528296505050505050505b90565b61525c81614fc1565b811461526757600080fd5b50565b61527381614fd3565b811461527e57600080fd5b50565b61528a81614fdf565b811461529557600080fd5b50565b6152a18161502b565b81146152ac57600080fd5b5056fea26469706673582212207b6f84564b0bb680c84eff652060e2c4bb5de1a225071cf75b552870b0dcb58b64736f6c63430008000033",
  "immutableReferences": {},
  "source": "// SPDX-License-Identifier: MIT\n\npragma solidity ^0.8.0;\n\nimport \"@openzeppelin/contracts-upgradeable/token/ERC1155/ERC1155Upgradeable.sol\";\nimport \"@openzeppelin/contracts-upgradeable/security/PausableUpgradeable.sol\";\nimport \"@openzeppelin/contracts-upgradeable/proxy/utils/Initializable.sol\";\nimport \"@openzeppelin/contracts/token/ERC721/extensions/ERC721URIStorage.sol\";\nimport \"@openzeppelin/contracts-upgradeable/access/OwnableUpgradeable.sol\";\nimport \"./NftFractionsRepositoryBase.sol\";\n\ncontract NftFractionsRepository is\n    Initializable,\n    ERC1155Upgradeable,\n    PausableUpgradeable,\n    OwnableUpgradeable,\n    NftFractionsRepositoryBase\n{\n    // data structures to keep track of:\n    // tokenIds by owner:\n    mapping(address => uint256[]) tokenIdsByShareOwner;\n    // owners by tokenId:\n    mapping(uint256 => address[]) ownersByTokenId;\n    // all tokenIds:\n    uint256[] tokenIds;\n\n    function initialize(string memory uri_) public initializer {\n        __Context_init_unchained();\n        __ERC165_init_unchained();\n        __Pausable_init_unchained();\n        __ERC1155_init_unchained(uri_);\n        __Ownable_init_unchained();\n    }\n\n    function _afterBurn(\n        uint256 tokenId,\n        uint256 amount,\n        address transferer,\n        uint256 transferersAmount\n    ) internal override {\n        // if the transferer transfers all his amount\n        if (transferersAmount == amount) {\n            deleteIdFromTokenIdsByShareOwner(transferer, tokenId);\n            deleteOwnerFromOwnersByTokenId(transferer, tokenId);\n        }\n    }\n\n    function _afterMint(\n        uint256 erc1155TokenId,\n        address transferer,\n        bool existingToken\n    ) internal override {\n        // if the token does not exist in this chain yet\n        if (!existingToken) {\n            tokenIds.push(erc1155TokenId);\n        }\n        // Has to check if the transferer does not own this tokenId in this chain yet\n        uint256 nrOfTokensByTransferer = tokenIdsByShareOwner[transferer]\n        .length;\n        if (nrOfTokensByTransferer == 0) {\n            tokenIdsByShareOwner[transferer].push(erc1155TokenId);\n        } else {\n            for (uint256 i; i < nrOfTokensByTransferer; i++) {\n                if (erc1155TokenId == tokenIdsByShareOwner[transferer][i]) {\n                    break;\n                }\n                if (i == nrOfTokensByTransferer - 1) {\n                    tokenIdsByShareOwner[transferer].push(erc1155TokenId);\n                }\n            }\n        }\n        // Has to check if the transferer is amoung the owners of this token in this chain\n        uint256 nrOfOwnerByTokenId = ownersByTokenId[erc1155TokenId].length;\n        if (nrOfOwnerByTokenId == 0) {\n            ownersByTokenId[erc1155TokenId].push(transferer);\n        } else {\n            for (uint256 i; i < nrOfOwnerByTokenId; i++) {\n                if (transferer == ownersByTokenId[erc1155TokenId][i]) {\n                    break;\n                }\n                if (i == nrOfOwnerByTokenId - 1) {\n                    ownersByTokenId[erc1155TokenId].push(transferer);\n                }\n            }\n        }\n    }\n\n    function _afterTransferFrom(\n        address from,\n        address to,\n        uint256 id,\n        uint256 amount,\n        uint256 fromBalanceBefore,\n        uint256 toBalanceBefore\n    ) internal override {\n        if (amount >= fromBalanceBefore) {\n            // remove the tokenId from ownersByTokenId[tokenId][from]\n            uint256 nrOfOwners = ownersByTokenId[id].length;\n            uint256 ownerPosition;\n            for (uint256 i; i < nrOfOwners; i++) {\n                if (from == ownersByTokenId[id][i]) {\n                    ownerPosition = i;\n                    break;\n                }\n            }\n            ownersByTokenId[id][ownerPosition] = ownersByTokenId[id][\n                nrOfOwners - 1\n            ];\n            ownersByTokenId[id].pop();\n            // delete the tokenId from the tokenIdsByShareOwner array\n            deleteIdFromTokenIdsByShareOwner(from, id);\n        }\n        if (toBalanceBefore == 0) {\n            ownersByTokenId[id].push(to);\n            tokenIdsByShareOwner[to].push(id);\n        }\n    }\n\n    /**\n     * @dev returns the ERC1155 tokenIds that the shareOwner has shares in\n     */\n    function getTokenIdsByShareOwner(address shareOwner)\n        public\n        view\n        returns (uint256[] memory)\n    {\n        return tokenIdsByShareOwner[shareOwner];\n    }\n\n    /**\n     * @dev returns the owners of a token\n     */\n    function getOwnersBYtokenId(uint256 tokenId)\n        public\n        view\n        returns (address[] memory)\n    {\n        return ownersByTokenId[tokenId];\n    }\n\n    /**\n     * @dev returns all ERC1155 tokenIds managed by this contract\n     */\n    function getTokenIds() public view returns (uint256[] memory) {\n        return tokenIds;\n    }\n\n    /**\n     * @dev helper to delete a tokenId from tokenIdsByShareOwner\n     */\n    function deleteIdFromTokenIdsByShareOwner(address owner, uint256 id)\n        private\n    {\n        uint256 nrOfTokensByShareOwner = tokenIdsByShareOwner[owner].length;\n        uint256 tokenIdPositionInShareOwner;\n        for (uint256 i; i < nrOfTokensByShareOwner; i++) {\n            if (id == tokenIdsByShareOwner[owner][i]) {\n                tokenIdPositionInShareOwner = i;\n                break;\n            }\n        }\n        tokenIdsByShareOwner[owner][\n            tokenIdPositionInShareOwner\n        ] = tokenIdsByShareOwner[owner][nrOfTokensByShareOwner - 1];\n        tokenIdsByShareOwner[owner].pop();\n    }\n\n    /**\n     * @dev helper to delete an owner from ownersByTokenId\n     */\n    function deleteOwnerFromOwnersByTokenId(address owner, uint256 id) private {\n        uint256 nrOfOwnersByTokenId = ownersByTokenId[id].length;\n        uint256 ownerPositionInOwners;\n        for (uint256 i; i < nrOfOwnersByTokenId; i++) {\n            if (owner == ownersByTokenId[id][i]) {\n                ownerPositionInOwners = i;\n                break;\n            }\n        }\n        ownersByTokenId[id][ownerPositionInOwners] = ownersByTokenId[id][\n            nrOfOwnersByTokenId - 1\n        ];\n        ownersByTokenId[id].pop();\n    }\n}\n",
  "sourcePath": "/Users/szabolcs/Documents/Personal/Szakmai/Ethereum/nft-fractions-dex/contracts/NftFractionsRepository.sol",
  "compiler": {
    "name": "solc",
    "version": "0.8.0+commit.c7dfd78e.Emscripten.clang"
  },
  "schemaVersion": "3.3.4",
  "updatedAt": "2021-07-15T12:08:15.883Z",
  "networkType": "ethereum",
  "devdoc": {
    "kind": "dev",
    "methods": {
      "balanceOf(address,uint256)": {
        "details": "See {IERC1155-balanceOf}. Requirements: - `account` cannot be the zero address."
      },
      "balanceOfBatch(address[],uint256[])": {
        "details": "See {IERC1155-balanceOfBatch}. Requirements: - `accounts` and `ids` must have the same length."
      },
      "burn(uint256,uint256,address)": {
        "details": "when someone transfers his tokens to the other chain the bridge contract will call this burn function The bridge contract is the owner of NftFractionsRepository. Requirements: - only the owner (the bridge contract) can call - the contract is not paused"
      },
      "getErc721ContractAddress(uint256)": {
        "details": "returns original ERC721 contract address for a token"
      },
      "getOwnersBYtokenId(uint256)": {
        "details": "returns the owners of a token"
      },
      "getTokenData(uint256)": {
        "details": "returns relevant token data: - original ERC721 contract address - original ERC721 token id - amount of fractions minted"
      },
      "getTokenIds()": {
        "details": "returns all ERC1155 tokenIds managed by this contract"
      },
      "getTokenIdsByShareOwner(address)": {
        "details": "returns the ERC1155 tokenIds that the shareOwner has shares in"
      },
      "getTotalFractionsAmount(uint256)": {
        "details": "returns amount of fractions minted for a token"
      },
      "isApprovedForAll(address,address)": {
        "details": "See {IERC1155-isApprovedForAll}."
      },
      "mint(address,uint256,uint256,uint256,uint256,address,string)": {
        "details": "when someone transfers his tokens from the other chain to this chain the bridge contract will call this mint function Requirements: - only the owner (the bridge contract) can call - the contract is not paused"
      },
      "owner()": {
        "details": "Returns the address of the current owner."
      },
      "paused()": {
        "details": "Returns true if the contract is paused, and false otherwise."
      },
      "renounceOwnership()": {
        "details": "Leaves the contract without owner. It will not be possible to call `onlyOwner` functions anymore. Can only be called by the current owner. NOTE: Renouncing ownership will leave the contract without an owner, thereby removing any functionality that is only available to the owner."
      },
      "safeBatchTransferFrom(address,address,uint256[],uint256[],bytes)": {
        "details": "See {IERC1155-safeBatchTransferFrom}."
      },
      "safeTransferFrom(address,address,uint256,uint256,bytes)": {
        "details": "See {IERC1155-safeTransferFrom}."
      },
      "setApprovalForAll(address,bool)": {
        "details": "See {IERC1155-setApprovalForAll}."
      },
      "supportsInterface(bytes4)": {
        "details": "See {IERC165-supportsInterface}."
      },
      "transferFrom(address,address,uint256,uint256,bytes)": {
        "details": "same as safeTransferFrom in ERC1155 with updating the internal data structures: - updates the ownersByTokenId data structure - updates the tokenIdsByShareOwner data structure"
      },
      "transferOwnership(address)": {
        "details": "Transfers ownership of the contract to a new account (`newOwner`). Can only be called by the current owner."
      },
      "uri(uint256)": {
        "details": "See {IERC1155MetadataURI-uri}. This implementation returns the same URI for *all* token types. It relies on the token type ID substitution mechanism https://eips.ethereum.org/EIPS/eip-1155#metadata[defined in the EIP]. Clients calling this function must replace the `\\{id\\}` substring with the actual token type ID."
      }
    },
    "version": 1
  },
  "userdoc": {
    "kind": "user",
    "methods": {},
    "version": 1
  }
}