{
  "contractName": "Dex",
  "abi": [
    {
      "anonymous": false,
      "inputs": [
        {
          "indexed": true,
          "internalType": "address",
          "name": "previousOwner",
          "type": "address"
        },
        {
          "indexed": true,
          "internalType": "address",
          "name": "newOwner",
          "type": "address"
        }
      ],
      "name": "OwnershipTransferred",
      "type": "event"
    },
    {
      "anonymous": false,
      "inputs": [
        {
          "indexed": false,
          "internalType": "address",
          "name": "account",
          "type": "address"
        }
      ],
      "name": "Paused",
      "type": "event"
    },
    {
      "anonymous": false,
      "inputs": [
        {
          "indexed": false,
          "internalType": "address",
          "name": "account",
          "type": "address"
        }
      ],
      "name": "Unpaused",
      "type": "event"
    },
    {
      "inputs": [],
      "name": "owner",
      "outputs": [
        {
          "internalType": "address",
          "name": "",
          "type": "address"
        }
      ],
      "stateMutability": "view",
      "type": "function",
      "constant": true
    },
    {
      "inputs": [],
      "name": "paused",
      "outputs": [
        {
          "internalType": "bool",
          "name": "",
          "type": "bool"
        }
      ],
      "stateMutability": "view",
      "type": "function",
      "constant": true
    },
    {
      "inputs": [],
      "name": "renounceOwnership",
      "outputs": [],
      "stateMutability": "nonpayable",
      "type": "function"
    },
    {
      "inputs": [
        {
          "internalType": "address",
          "name": "newOwner",
          "type": "address"
        }
      ],
      "name": "transferOwnership",
      "outputs": [],
      "stateMutability": "nonpayable",
      "type": "function"
    },
    {
      "inputs": [],
      "name": "initialize",
      "outputs": [],
      "stateMutability": "nonpayable",
      "type": "function"
    },
    {
      "inputs": [
        {
          "internalType": "address",
          "name": "nftFractionsRepositoryAddress",
          "type": "address"
        }
      ],
      "name": "setNftFractionsRepository",
      "outputs": [],
      "stateMutability": "nonpayable",
      "type": "function"
    },
    {
      "inputs": [],
      "name": "depositEth",
      "outputs": [],
      "stateMutability": "payable",
      "type": "function",
      "payable": true
    },
    {
      "inputs": [
        {
          "internalType": "uint256",
          "name": "amount",
          "type": "uint256"
        }
      ],
      "name": "withdrawEth",
      "outputs": [],
      "stateMutability": "nonpayable",
      "type": "function"
    },
    {
      "inputs": [
        {
          "internalType": "address",
          "name": "owner",
          "type": "address"
        }
      ],
      "name": "getEthBalance",
      "outputs": [
        {
          "internalType": "uint256",
          "name": "",
          "type": "uint256"
        }
      ],
      "stateMutability": "view",
      "type": "function",
      "constant": true
    },
    {
      "inputs": [],
      "name": "pause",
      "outputs": [],
      "stateMutability": "nonpayable",
      "type": "function"
    },
    {
      "inputs": [
        {
          "internalType": "uint256",
          "name": "tokenId",
          "type": "uint256"
        },
        {
          "internalType": "uint256",
          "name": "amount",
          "type": "uint256"
        },
        {
          "internalType": "uint256",
          "name": "price",
          "type": "uint256"
        },
        {
          "internalType": "enum Dex.Side",
          "name": "side",
          "type": "uint8"
        }
      ],
      "name": "createLimitOrder",
      "outputs": [],
      "stateMutability": "nonpayable",
      "type": "function"
    },
    {
      "inputs": [
        {
          "internalType": "uint256",
          "name": "tokenId",
          "type": "uint256"
        },
        {
          "internalType": "enum Dex.Side",
          "name": "side",
          "type": "uint8"
        }
      ],
      "name": "getOrders",
      "outputs": [
        {
          "components": [
            {
              "internalType": "uint256",
              "name": "id",
              "type": "uint256"
            },
            {
              "internalType": "address",
              "name": "trader",
              "type": "address"
            },
            {
              "internalType": "enum Dex.Side",
              "name": "side",
              "type": "uint8"
            },
            {
              "internalType": "uint256",
              "name": "tokenId",
              "type": "uint256"
            },
            {
              "internalType": "uint256",
              "name": "amount",
              "type": "uint256"
            },
            {
              "internalType": "uint256",
              "name": "filled",
              "type": "uint256"
            },
            {
              "internalType": "uint256",
              "name": "price",
              "type": "uint256"
            },
            {
              "internalType": "uint256",
              "name": "date",
              "type": "uint256"
            }
          ],
          "internalType": "struct Dex.Order[]",
          "name": "",
          "type": "tuple[]"
        }
      ],
      "stateMutability": "view",
      "type": "function",
      "constant": true
    }
  ],
  "bytecode": "0x608060405234801561001057600080fd5b50612726806100206000396000f3fe6080604052600436106100a75760003560e01c80638456cb59116100645780638456cb59146101755780638da5cb5b1461018c578063b141bd39146101b7578063c311d049146101f4578063f2fde38b1461021d578063fbe2767414610246576100a7565b80630bbf2085146100ac578063439370b1146100d55780634d2301cc146100df5780635c975abb1461011c578063715018a6146101475780638129fc1c1461015e575b600080fd5b3480156100b857600080fd5b506100d360048036038101906100ce9190611e11565b61026f565b005b6100dd610f8a565b005b3480156100eb57600080fd5b5061010660048036038101906101019190611d0b565b610fe2565b6040516101139190612460565b60405180910390f35b34801561012857600080fd5b5061013161102b565b60405161013e9190612325565b60405180910390f35b34801561015357600080fd5b5061015c611042565b005b34801561016a57600080fd5b5061017361117f565b005b34801561018157600080fd5b5061018a611270565b005b34801561019857600080fd5b506101a16112f6565b6040516101ae91906122bf565b60405180910390f35b3480156101c357600080fd5b506101de60048036038101906101d99190611dd5565b611320565b6040516101eb9190612303565b60405180910390f35b34801561020057600080fd5b5061021b60048036038101906102169190611d83565b6114f6565b005b34801561022957600080fd5b50610244600480360381019061023f9190611d0b565b611618565b005b34801561025257600080fd5b5061026d60048036038101906102689190611d0b565b6117c4565b005b836000806000609a60009054906101000a900473ffffffffffffffffffffffffffffffffffffffff1673ffffffffffffffffffffffffffffffffffffffff1663b09afec1856040518263ffffffff1660e01b81526004016102d09190612460565b60606040518083038186803b1580156102e857600080fd5b505afa1580156102fc573d6000803e3d6000fd5b505050506040513d601f19601f820116820180604052508101906103209190611d34565b809350819450829550505050600073ffffffffffffffffffffffffffffffffffffffff168373ffffffffffffffffffffffffffffffffffffffff16141561039c576040517f08c379a000000000000000000000000000000000000000000000000000000000815260040161039390612440565b60405180910390fd5b6001808111156103d5577f4e487b7100000000000000000000000000000000000000000000000000000000600052602160045260246000fd5b85600181111561040e577f4e487b7100000000000000000000000000000000000000000000000000000000600052602160045260246000fd5b141561050d576000609a60009054906101000a900473ffffffffffffffffffffffffffffffffffffffff1673ffffffffffffffffffffffffffffffffffffffff1662fdd58e338b6040518363ffffffff1660e01b81526004016104729291906122da565b60206040518083038186803b15801561048a57600080fd5b505afa15801561049e573d6000803e3d6000fd5b505050506040513d601f19601f820116820180604052508101906104c29190611dac565b905087811015610507576040517f08c379a00000000000000000000000000000000000000000000000000000000081526004016104fe90612400565b60405180910390fd5b5061069d565b6000806000609a60009054906101000a900473ffffffffffffffffffffffffffffffffffffffff1673ffffffffffffffffffffffffffffffffffffffff1663b09afec18c6040518263ffffffff1660e01b815260040161056d9190612460565b60606040518083038186803b15801561058557600080fd5b505afa158015610599573d6000803e3d6000fd5b505050506040513d601f19601f820116820180604052508101906105bd9190611d34565b8093508194508295505050508981101561060c576040517f08c379a000000000000000000000000000000000000000000000000000000000815260040161060390612420565b60405180910390fd5b888a610618919061251b565b609860003373ffffffffffffffffffffffffffffffffffffffff1673ffffffffffffffffffffffffffffffffffffffff168152602001908152602001600020541015610699576040517f08c379a0000000000000000000000000000000000000000000000000000000008152600401610690906123a0565b60405180910390fd5b5050505b6000609960008a815260200190815260200160002060008760018111156106ed577f4e487b7100000000000000000000000000000000000000000000000000000000600052602160045260246000fd5b815260200190815260200160002090506107076097611884565b6000610713609761189a565b9050816040518061010001604052808381526020013373ffffffffffffffffffffffffffffffffffffffff16815260200189600181111561077d577f4e487b7100000000000000000000000000000000000000000000000000000000600052602160045260246000fd5b81526020018c81526020018b8152602001600081526020018a81526020014281525090806001815401808255809150506001900390600052602060002090600702016000909190919091506000820151816000015560208201518160010160006101000a81548173ffffffffffffffffffffffffffffffffffffffff021916908373ffffffffffffffffffffffffffffffffffffffff16021790555060408201518160010160146101000a81548160ff0219169083600181111561086a577f4e487b7100000000000000000000000000000000000000000000000000000000600052602160045260246000fd5b0217905550606082015181600201556080820151816003015560a0820151816004015560c0820151816005015560e0820151816006015550506000808380549050116108b75760006108c9565b600183805490506108c89190612575565b5b90505b6000811115610f7d576000600181111561090f577f4e487b7100000000000000000000000000000000000000000000000000000000600052602160045260246000fd5b886001811115610948577f4e487b7100000000000000000000000000000000000000000000000000000000600052602160045260246000fd5b1480156109f45750828181548110610989577f4e487b7100000000000000000000000000000000000000000000000000000000600052603260045260246000fd5b906000526020600020906007020160050154836001836109a99190612575565b815481106109e0577f4e487b7100000000000000000000000000000000000000000000000000000000600052603260045260246000fd5b906000526020600020906007020160050154115b156109fe57610f7d565b600180811115610a37577f4e487b7100000000000000000000000000000000000000000000000000000000600052602160045260246000fd5b886001811115610a70577f4e487b7100000000000000000000000000000000000000000000000000000000600052602160045260246000fd5b148015610b1c5750828181548110610ab1577f4e487b7100000000000000000000000000000000000000000000000000000000600052603260045260246000fd5b90600052602060002090600702016005015483600183610ad19190612575565b81548110610b08577f4e487b7100000000000000000000000000000000000000000000000000000000600052603260045260246000fd5b906000526020600020906007020160050154105b15610b2657610f7d565b600083600183610b369190612575565b81548110610b6d577f4e487b7100000000000000000000000000000000000000000000000000000000600052603260045260246000fd5b906000526020600020906007020160405180610100016040529081600082015481526020016001820160009054906101000a900473ffffffffffffffffffffffffffffffffffffffff1673ffffffffffffffffffffffffffffffffffffffff1673ffffffffffffffffffffffffffffffffffffffff1681526020016001820160149054906101000a900460ff166001811115610c32577f4e487b7100000000000000000000000000000000000000000000000000000000600052602160045260246000fd5b6001811115610c6a577f4e487b7100000000000000000000000000000000000000000000000000000000600052602160045260246000fd5b8152602001600282015481526020016003820154815260200160048201548152602001600582015481526020016006820154815250509050838281548110610cdb577f4e487b7100000000000000000000000000000000000000000000000000000000600052603260045260246000fd5b906000526020600020906007020184600184610cf79190612575565b81548110610d2e577f4e487b7100000000000000000000000000000000000000000000000000000000600052603260045260246000fd5b9060005260206000209060070201600082015481600001556001820160009054906101000a900473ffffffffffffffffffffffffffffffffffffffff168160010160006101000a81548173ffffffffffffffffffffffffffffffffffffffff021916908373ffffffffffffffffffffffffffffffffffffffff1602179055506001820160149054906101000a900460ff168160010160146101000a81548160ff02191690836001811115610e0b577f4e487b7100000000000000000000000000000000000000000000000000000000600052602160045260246000fd5b0217905550600282015481600201556003820154816003015560048201548160040155600582015481600501556006820154816006015590505080848381548110610e7f577f4e487b7100000000000000000000000000000000000000000000000000000000600052603260045260246000fd5b90600052602060002090600702016000820151816000015560208201518160010160006101000a81548173ffffffffffffffffffffffffffffffffffffffff021916908373ffffffffffffffffffffffffffffffffffffffff16021790555060408201518160010160146101000a81548160ff02191690836001811115610f2f577f4e487b7100000000000000000000000000000000000000000000000000000000600052602160045260246000fd5b0217905550606082015181600201556080820151816003015560a0820151816004015560c0820151816005015560e082015181600601559050508180610f7490612616565b925050506108cc565b5050505050505050505050565b34609860003373ffffffffffffffffffffffffffffffffffffffff1673ffffffffffffffffffffffffffffffffffffffff1681526020019081526020016000206000828254610fd991906124c5565b92505081905550565b6000609860008373ffffffffffffffffffffffffffffffffffffffff1673ffffffffffffffffffffffffffffffffffffffff168152602001908152602001600020549050919050565b6000603360009054906101000a900460ff16905090565b61104a6118a8565b73ffffffffffffffffffffffffffffffffffffffff166110686112f6565b73ffffffffffffffffffffffffffffffffffffffff16146110be576040517f08c379a00000000000000000000000000000000000000000000000000000000081526004016110b5906123c0565b60405180910390fd5b600073ffffffffffffffffffffffffffffffffffffffff16606560009054906101000a900473ffffffffffffffffffffffffffffffffffffffff1673ffffffffffffffffffffffffffffffffffffffff167f8be0079c531659141344cd1fd0a4f28419497f9722a3daafe3b4186f6b6457e060405160405180910390a36000606560006101000a81548173ffffffffffffffffffffffffffffffffffffffff021916908373ffffffffffffffffffffffffffffffffffffffff160217905550565b600060019054906101000a900460ff16806111a5575060008054906101000a900460ff16155b6111e4576040517f08c379a00000000000000000000000000000000000000000000000000000000081526004016111db90612380565b60405180910390fd5b60008060019054906101000a900460ff161590508015611234576001600060016101000a81548160ff02191690831515021790555060016000806101000a81548160ff0219169083151502179055505b61123c6118b0565b611244611989565b61124c611a7d565b801561126d5760008060016101000a81548160ff0219169083151502179055505b50565b6112786118a8565b73ffffffffffffffffffffffffffffffffffffffff166112966112f6565b73ffffffffffffffffffffffffffffffffffffffff16146112ec576040517f08c379a00000000000000000000000000000000000000000000000000000000081526004016112e3906123c0565b60405180910390fd5b6112f4611bff565b565b6000606560009054906101000a900473ffffffffffffffffffffffffffffffffffffffff16905090565b6060609960008481526020019081526020016000206000836001811115611370577f4e487b7100000000000000000000000000000000000000000000000000000000600052602160045260246000fd5b8152602001908152602001600020805480602002602001604051908101604052809291908181526020016000905b828210156114ea578382906000526020600020906007020160405180610100016040529081600082015481526020016001820160009054906101000a900473ffffffffffffffffffffffffffffffffffffffff1673ffffffffffffffffffffffffffffffffffffffff1673ffffffffffffffffffffffffffffffffffffffff1681526020016001820160149054906101000a900460ff16600181111561146d577f4e487b7100000000000000000000000000000000000000000000000000000000600052602160045260246000fd5b60018111156114a5577f4e487b7100000000000000000000000000000000000000000000000000000000600052602160045260246000fd5b8152602001600282015481526020016003820154815260200160048201548152602001600582015481526020016006820154815250508152602001906001019061139e565b50505050905092915050565b80609860003373ffffffffffffffffffffffffffffffffffffffff1673ffffffffffffffffffffffffffffffffffffffff168152602001908152602001600020541015611578576040517f08c379a000000000000000000000000000000000000000000000000000000000815260040161156f906123e0565b60405180910390fd5b80609860003373ffffffffffffffffffffffffffffffffffffffff1673ffffffffffffffffffffffffffffffffffffffff16815260200190815260200160002060008282546115c79190612575565b925050819055503373ffffffffffffffffffffffffffffffffffffffff166108fc829081150290604051600060405180830381858888f19350505050158015611614573d6000803e3d6000fd5b5050565b6116206118a8565b73ffffffffffffffffffffffffffffffffffffffff1661163e6112f6565b73ffffffffffffffffffffffffffffffffffffffff1614611694576040517f08c379a000000000000000000000000000000000000000000000000000000000815260040161168b906123c0565b60405180910390fd5b600073ffffffffffffffffffffffffffffffffffffffff168173ffffffffffffffffffffffffffffffffffffffff161415611704576040517f08c379a00000000000000000000000000000000000000000000000000000000081526004016116fb90612340565b60405180910390fd5b8073ffffffffffffffffffffffffffffffffffffffff16606560009054906101000a900473ffffffffffffffffffffffffffffffffffffffff1673ffffffffffffffffffffffffffffffffffffffff167f8be0079c531659141344cd1fd0a4f28419497f9722a3daafe3b4186f6b6457e060405160405180910390a380606560006101000a81548173ffffffffffffffffffffffffffffffffffffffff021916908373ffffffffffffffffffffffffffffffffffffffff16021790555050565b6117cc6118a8565b73ffffffffffffffffffffffffffffffffffffffff166117ea6112f6565b73ffffffffffffffffffffffffffffffffffffffff1614611840576040517f08c379a0000000000000000000000000000000000000000000000000000000008152600401611837906123c0565b60405180910390fd5b80609a60006101000a81548173ffffffffffffffffffffffffffffffffffffffff021916908373ffffffffffffffffffffffffffffffffffffffff16021790555050565b6001816000016000828254019250508190555050565b600081600001549050919050565b600033905090565b600060019054906101000a900460ff16806118d6575060008054906101000a900460ff16155b611915576040517f08c379a000000000000000000000000000000000000000000000000000000000815260040161190c90612380565b60405180910390fd5b60008060019054906101000a900460ff161590508015611965576001600060016101000a81548160ff02191690831515021790555060016000806101000a81548160ff0219169083151502179055505b80156119865760008060016101000a81548160ff0219169083151502179055505b50565b600060019054906101000a900460ff16806119af575060008054906101000a900460ff16155b6119ee576040517f08c379a00000000000000000000000000000000000000000000000000000000081526004016119e590612380565b60405180910390fd5b60008060019054906101000a900460ff161590508015611a3e576001600060016101000a81548160ff02191690831515021790555060016000806101000a81548160ff0219169083151502179055505b6000603360006101000a81548160ff0219169083151502179055508015611a7a5760008060016101000a81548160ff0219169083151502179055505b50565b600060019054906101000a900460ff1680611aa3575060008054906101000a900460ff16155b611ae2576040517f08c379a0000000000000000000000000000000000000000000000000000000008152600401611ad990612380565b60405180910390fd5b60008060019054906101000a900460ff161590508015611b32576001600060016101000a81548160ff02191690831515021790555060016000806101000a81548160ff0219169083151502179055505b6000611b3c6118a8565b905080606560006101000a81548173ffffffffffffffffffffffffffffffffffffffff021916908373ffffffffffffffffffffffffffffffffffffffff1602179055508073ffffffffffffffffffffffffffffffffffffffff16600073ffffffffffffffffffffffffffffffffffffffff167f8be0079c531659141344cd1fd0a4f28419497f9722a3daafe3b4186f6b6457e060405160405180910390a3508015611bfc5760008060016101000a81548160ff0219169083151502179055505b50565b611c0761102b565b15611c47576040517f08c379a0000000000000000000000000000000000000000000000000000000008152600401611c3e90612360565b60405180910390fd5b6001603360006101000a81548160ff0219169083151502179055507f62e78cea01bee320cd4e420270b5ea74000d11b0c9f74754ebdbfc544b05a258611c8b6118a8565b604051611c9891906122bf565b60405180910390a1565b600081359050611cb1816126b2565b92915050565b600081519050611cc6816126b2565b92915050565b600081359050611cdb816126c9565b92915050565b600081359050611cf0816126d9565b92915050565b600081519050611d05816126d9565b92915050565b600060208284031215611d1d57600080fd5b6000611d2b84828501611ca2565b91505092915050565b600080600060608486031215611d4957600080fd5b6000611d5786828701611cb7565b9350506020611d6886828701611cf6565b9250506040611d7986828701611cf6565b9150509250925092565b600060208284031215611d9557600080fd5b6000611da384828501611ce1565b91505092915050565b600060208284031215611dbe57600080fd5b6000611dcc84828501611cf6565b91505092915050565b60008060408385031215611de857600080fd5b6000611df685828601611ce1565b9250506020611e0785828601611ccc565b9150509250929050565b60008060008060808587031215611e2757600080fd5b6000611e3587828801611ce1565b9450506020611e4687828801611ce1565b9350506040611e5787828801611ce1565b9250506060611e6887828801611ccc565b91505092959194509250565b6000611e8083836121ff565b6101008301905092915050565b611e96816125a9565b82525050565b611ea5816125a9565b82525050565b6000611eb68261248b565b611ec081856124a3565b9350611ecb8361247b565b8060005b83811015611efc578151611ee38882611e74565b9750611eee83612496565b925050600181019050611ecf565b5085935050505092915050565b611f12816125bb565b82525050565b611f2181612604565b82525050565b6000611f346026836124b4565b91507f4f776e61626c653a206e6577206f776e657220697320746865207a65726f206160008301527f64647265737300000000000000000000000000000000000000000000000000006020830152604082019050919050565b6000611f9a6010836124b4565b91507f5061757361626c653a20706175736564000000000000000000000000000000006000830152602082019050919050565b6000611fda602e836124b4565b91507f496e697469616c697a61626c653a20636f6e747261637420697320616c72656160008301527f647920696e697469616c697a65640000000000000000000000000000000000006020830152604082019050919050565b60006120406013836124b4565b91507f6574682062616c616e636520746f6f206c6f77000000000000000000000000006000830152602082019050919050565b60006120806020836124b4565b91507f4f776e61626c653a2063616c6c6572206973206e6f7420746865206f776e65726000830152602082019050919050565b60006120c06019836124b4565b91507f4554482062616c616e6365206973206e6f7420656e6f756768000000000000006000830152602082019050919050565b60006121006029836124b4565b91507f6d6573736167652073656e646572277320746f6b656e2062616c616e6365206960008301527f7320746f6f206c6f7700000000000000000000000000000000000000000000006020830152604082019050919050565b60006121666038836124b4565b91507f746f74616c20616d6f756e74206f66206672616374696f6e73206973206c6f7760008301527f6572207468616e2074686520676976656e20616d6f756e7400000000000000006020830152604082019050919050565b60006121cc6019836124b4565b91507f7468697320746f6b656e20646f6573206e6f74206578697374000000000000006000830152602082019050919050565b6101008201600082015161221660008501826122a1565b5060208201516122296020850182611e8d565b50604082015161223c6040850182611f18565b50606082015161224f60608501826122a1565b50608082015161226260808501826122a1565b5060a082015161227560a08501826122a1565b5060c082015161228860c08501826122a1565b5060e082015161229b60e08501826122a1565b50505050565b6122aa816125fa565b82525050565b6122b9816125fa565b82525050565b60006020820190506122d46000830184611e9c565b92915050565b60006040820190506122ef6000830185611e9c565b6122fc60208301846122b0565b9392505050565b6000602082019050818103600083015261231d8184611eab565b905092915050565b600060208201905061233a6000830184611f09565b92915050565b6000602082019050818103600083015261235981611f27565b9050919050565b6000602082019050818103600083015261237981611f8d565b9050919050565b6000602082019050818103600083015261239981611fcd565b9050919050565b600060208201905081810360008301526123b981612033565b9050919050565b600060208201905081810360008301526123d981612073565b9050919050565b600060208201905081810360008301526123f9816120b3565b9050919050565b60006020820190508181036000830152612419816120f3565b9050919050565b6000602082019050818103600083015261243981612159565b9050919050565b60006020820190508181036000830152612459816121bf565b9050919050565b600060208201905061247560008301846122b0565b92915050565b6000819050602082019050919050565b600081519050919050565b6000602082019050919050565b600082825260208201905092915050565b600082825260208201905092915050565b60006124d0826125fa565b91506124db836125fa565b9250827fffffffffffffffffffffffffffffffffffffffffffffffffffffffffffffffff038211156125105761250f612640565b5b828201905092915050565b6000612526826125fa565b9150612531836125fa565b9250817fffffffffffffffffffffffffffffffffffffffffffffffffffffffffffffffff048311821515161561256a57612569612640565b5b828202905092915050565b6000612580826125fa565b915061258b836125fa565b92508282101561259e5761259d612640565b5b828203905092915050565b60006125b4826125da565b9050919050565b60008115159050919050565b60008190506125d58261269e565b919050565b600073ffffffffffffffffffffffffffffffffffffffff82169050919050565b6000819050919050565b600061260f826125c7565b9050919050565b6000612621826125fa565b9150600082141561263557612634612640565b5b600182039050919050565b7f4e487b7100000000000000000000000000000000000000000000000000000000600052601160045260246000fd5b7f4e487b7100000000000000000000000000000000000000000000000000000000600052602160045260246000fd5b600281106126af576126ae61266f565b5b50565b6126bb816125a9565b81146126c657600080fd5b50565b600281106126d657600080fd5b50565b6126e2816125fa565b81146126ed57600080fd5b5056fea26469706673582212206040ade9ac686603fdecf146451f096a80c7d2c3dd1216ba37690055b8de2ba964736f6c63430008000033",
  "immutableReferences": {},
  "source": "// SPDX-License-Identifier: MIT\n\npragma solidity ^0.8.0;\n\nimport \"@openzeppelin/contracts-upgradeable/security/PausableUpgradeable.sol\";\nimport \"@openzeppelin/contracts-upgradeable/proxy/utils/Initializable.sol\";\nimport \"@openzeppelin/contracts-upgradeable/utils/CountersUpgradeable.sol\";\nimport \"@openzeppelin/contracts-upgradeable/access/OwnableUpgradeable.sol\";\nimport \"./NftFractionsRepository.sol\";\n\ncontract Dex is Initializable, PausableUpgradeable, OwnableUpgradeable {\n    using CountersUpgradeable for CountersUpgradeable.Counter;\n\n    enum Side {BUY, SELL}\n\n    struct Order {\n        uint256 id;\n        address trader;\n        Side side;\n        uint256 tokenId;\n        uint256 amount;\n        uint256 filled;\n        uint256 price;\n        uint256 date;\n    }\n\n    CountersUpgradeable.Counter private _orderIds;\n    mapping(address => uint256) ethBalance;\n    mapping(uint256 => mapping(uint256 => Order[])) orderBook;\n    NftFractionsRepository nftFractionsRepository;\n\n    function initialize() public initializer {\n        __Context_init_unchained();\n        __Pausable_init_unchained();\n        __Ownable_init_unchained();\n    }\n\n    function setNftFractionsRepository(address nftFractionsRepositoryAddress)\n        public\n        onlyOwner()\n    {\n        nftFractionsRepository = NftFractionsRepository(\n            nftFractionsRepositoryAddress\n        );\n    }\n\n    /**\n     * @dev deposit ETH for trading\n     */\n    function depositEth() public payable {\n        ethBalance[msg.sender] += msg.value;\n    }\n\n    /**\n     * @dev Withdraw ETH\n     *\n     * Requirements:\n     * - msg.sender has to have equal or more ETH than the amount to withdraw\n     */\n    function withdrawEth(uint256 amount) public {\n        require(ethBalance[msg.sender] >= amount, \"ETH balance is not enough\");\n        ethBalance[msg.sender] -= amount;\n        payable(msg.sender).transfer(amount);\n    }\n\n    /**\n     * @dev returns the ETH balance of the owner\n     */\n    function getEthBalance(address owner) public view returns (uint256) {\n        return ethBalance[owner];\n    }\n\n    function pause() public onlyOwner() {\n        _pause();\n    }\n\n    function createLimitOrder(\n        uint256 tokenId,\n        uint256 amount,\n        uint256 price,\n        Side side\n    ) external tokenExist(tokenId) {\n        if (side == Side.SELL) {\n            uint256 sendersBalance =\n                nftFractionsRepository.balanceOf(msg.sender, tokenId);\n            require(\n                sendersBalance >= amount,\n                \"message sender's token balance is too low\"\n            );\n        } else {\n            address erc721ContractAddress;\n            uint256 erc721TokenId;\n            uint256 totalFractionsAmount;\n            (\n                erc721ContractAddress,\n                erc721TokenId,\n                totalFractionsAmount\n            ) = nftFractionsRepository.getTokenData(tokenId);\n            require(\n                totalFractionsAmount >= amount,\n                \"total amount of fractions is lower than the given amount\"\n            );\n            require(\n                ethBalance[msg.sender] >= amount * price,\n                \"eth balance too low\"\n            );\n        }\n        Order[] storage orders = orderBook[tokenId][uint256(side)];\n        _orderIds.increment();\n        uint256 newOrderId = _orderIds.current();\n        orders.push(\n            Order(\n                newOrderId,\n                msg.sender,\n                side,\n                tokenId,\n                amount,\n                0,\n                price,\n                block.timestamp\n            )\n        );\n\n        uint256 i = orders.length > 0 ? orders.length - 1 : 0;\n        while (i > 0) {\n            if (side == Side.BUY && orders[i - 1].price > orders[i].price) {\n                break;\n            }\n            if (side == Side.SELL && orders[i - 1].price < orders[i].price) {\n                break;\n            }\n            Order memory order = orders[i - 1];\n            orders[i - 1] = orders[i];\n            orders[i] = order;\n            i--;\n        }\n    }\n\n    function getOrders(uint256 tokenId, Side side)\n        external\n        view\n        returns (Order[] memory)\n    {\n        return orderBook[tokenId][uint256(side)];\n    }\n\n    modifier tokenExist(uint256 tokenId) {\n        address erc721ContractAddress;\n        uint256 erc721TokenId;\n        uint256 totalFractionsAmount;\n        (\n            erc721ContractAddress,\n            erc721TokenId,\n            totalFractionsAmount\n        ) = nftFractionsRepository.getTokenData(tokenId);\n        require(\n            erc721ContractAddress != address(0),\n            \"this token does not exist\"\n        );\n        _;\n    }\n}\n",
  "sourcePath": "/Users/szabolcs/Documents/Personal/Szakmai/Ethereum/nft-fractions-dex/contracts/Dex.sol",
  "compiler": {
    "name": "solc",
    "version": "0.8.0+commit.c7dfd78e.Emscripten.clang"
  },
  "schemaVersion": "3.3.4",
  "updatedAt": "2021-04-14T20:13:03.708Z",
  "networkType": "ethereum",
  "devdoc": {
    "kind": "dev",
    "methods": {
      "depositEth()": {
        "details": "deposit ETH for trading"
      },
      "getEthBalance(address)": {
        "details": "returns the ETH balance of the owner"
      },
      "owner()": {
        "details": "Returns the address of the current owner."
      },
      "paused()": {
        "details": "Returns true if the contract is paused, and false otherwise."
      },
      "renounceOwnership()": {
        "details": "Leaves the contract without owner. It will not be possible to call `onlyOwner` functions anymore. Can only be called by the current owner. NOTE: Renouncing ownership will leave the contract without an owner, thereby removing any functionality that is only available to the owner."
      },
      "transferOwnership(address)": {
        "details": "Transfers ownership of the contract to a new account (`newOwner`). Can only be called by the current owner."
      },
      "withdrawEth(uint256)": {
        "details": "Withdraw ETH Requirements: - msg.sender has to have equal or more ETH than the amount to withdraw"
      }
    },
    "version": 1
  },
  "userdoc": {
    "kind": "user",
    "methods": {},
    "version": 1
  }
}