{
  "contractName": "Dex",
  "abi": [
    {
      "anonymous": false,
      "inputs": [
        {
          "indexed": false,
          "internalType": "uint256",
          "name": "orderId",
          "type": "uint256"
        },
        {
          "indexed": true,
          "internalType": "uint256",
          "name": "tokenId",
          "type": "uint256"
        },
        {
          "indexed": true,
          "internalType": "address",
          "name": "trader1",
          "type": "address"
        },
        {
          "indexed": true,
          "internalType": "address",
          "name": "trader2",
          "type": "address"
        },
        {
          "indexed": false,
          "internalType": "uint256",
          "name": "amount",
          "type": "uint256"
        },
        {
          "indexed": false,
          "internalType": "uint256",
          "name": "price",
          "type": "uint256"
        },
        {
          "indexed": false,
          "internalType": "uint256",
          "name": "date",
          "type": "uint256"
        }
      ],
      "name": "NewTrade",
      "type": "event"
    },
    {
      "anonymous": false,
      "inputs": [
        {
          "indexed": true,
          "internalType": "address",
          "name": "previousOwner",
          "type": "address"
        },
        {
          "indexed": true,
          "internalType": "address",
          "name": "newOwner",
          "type": "address"
        }
      ],
      "name": "OwnershipTransferred",
      "type": "event"
    },
    {
      "anonymous": false,
      "inputs": [
        {
          "indexed": false,
          "internalType": "address",
          "name": "account",
          "type": "address"
        }
      ],
      "name": "Paused",
      "type": "event"
    },
    {
      "anonymous": false,
      "inputs": [
        {
          "indexed": false,
          "internalType": "address",
          "name": "account",
          "type": "address"
        }
      ],
      "name": "Unpaused",
      "type": "event"
    },
    {
      "inputs": [],
      "name": "owner",
      "outputs": [
        {
          "internalType": "address",
          "name": "",
          "type": "address"
        }
      ],
      "stateMutability": "view",
      "type": "function"
    },
    {
      "inputs": [],
      "name": "paused",
      "outputs": [
        {
          "internalType": "bool",
          "name": "",
          "type": "bool"
        }
      ],
      "stateMutability": "view",
      "type": "function"
    },
    {
      "inputs": [],
      "name": "renounceOwnership",
      "outputs": [],
      "stateMutability": "nonpayable",
      "type": "function"
    },
    {
      "inputs": [
        {
          "internalType": "address",
          "name": "newOwner",
          "type": "address"
        }
      ],
      "name": "transferOwnership",
      "outputs": [],
      "stateMutability": "nonpayable",
      "type": "function"
    },
    {
      "inputs": [],
      "name": "initialize",
      "outputs": [],
      "stateMutability": "nonpayable",
      "type": "function"
    },
    {
      "inputs": [
        {
          "internalType": "address",
          "name": "nftFractionsRepositoryAddress",
          "type": "address"
        }
      ],
      "name": "setNftFractionsRepository",
      "outputs": [],
      "stateMutability": "nonpayable",
      "type": "function"
    },
    {
      "inputs": [],
      "name": "depositEth",
      "outputs": [],
      "stateMutability": "payable",
      "type": "function"
    },
    {
      "inputs": [
        {
          "internalType": "uint256",
          "name": "amount",
          "type": "uint256"
        }
      ],
      "name": "withdrawEth",
      "outputs": [],
      "stateMutability": "nonpayable",
      "type": "function"
    },
    {
      "inputs": [
        {
          "internalType": "address",
          "name": "owner",
          "type": "address"
        }
      ],
      "name": "getEthBalance",
      "outputs": [
        {
          "internalType": "uint256",
          "name": "",
          "type": "uint256"
        }
      ],
      "stateMutability": "view",
      "type": "function"
    },
    {
      "inputs": [],
      "name": "pause",
      "outputs": [],
      "stateMutability": "nonpayable",
      "type": "function"
    },
    {
      "inputs": [
        {
          "internalType": "uint256",
          "name": "tokenId",
          "type": "uint256"
        },
        {
          "internalType": "uint256",
          "name": "amount",
          "type": "uint256"
        },
        {
          "internalType": "uint256",
          "name": "price",
          "type": "uint256"
        },
        {
          "internalType": "enum Dex.Side",
          "name": "side",
          "type": "uint8"
        }
      ],
      "name": "createLimitOrder",
      "outputs": [],
      "stateMutability": "nonpayable",
      "type": "function"
    },
    {
      "inputs": [
        {
          "internalType": "uint256",
          "name": "tokenId",
          "type": "uint256"
        },
        {
          "internalType": "uint256",
          "name": "amount",
          "type": "uint256"
        },
        {
          "internalType": "enum Dex.Side",
          "name": "side",
          "type": "uint8"
        }
      ],
      "name": "createMarketOrder",
      "outputs": [],
      "stateMutability": "nonpayable",
      "type": "function"
    },
    {
      "inputs": [
        {
          "internalType": "uint256",
          "name": "tokenId",
          "type": "uint256"
        },
        {
          "internalType": "enum Dex.Side",
          "name": "side",
          "type": "uint8"
        }
      ],
      "name": "getOrders",
      "outputs": [
        {
          "components": [
            {
              "internalType": "uint256",
              "name": "id",
              "type": "uint256"
            },
            {
              "internalType": "address",
              "name": "trader",
              "type": "address"
            },
            {
              "internalType": "enum Dex.Side",
              "name": "side",
              "type": "uint8"
            },
            {
              "internalType": "uint256",
              "name": "tokenId",
              "type": "uint256"
            },
            {
              "internalType": "uint256",
              "name": "amount",
              "type": "uint256"
            },
            {
              "internalType": "uint256",
              "name": "filled",
              "type": "uint256"
            },
            {
              "internalType": "uint256",
              "name": "price",
              "type": "uint256"
            },
            {
              "internalType": "uint256",
              "name": "date",
              "type": "uint256"
            }
          ],
          "internalType": "struct Dex.Order[]",
          "name": "",
          "type": "tuple[]"
        }
      ],
      "stateMutability": "view",
      "type": "function"
    }
  ],
  "bytecode": "0x608060405234801561001057600080fd5b50613b6e806100206000396000f3fe6080604052600436106100c25760003560e01c80638129fc1c1161007f578063b141bd3911610059578063b141bd39146101fb578063c311d04914610238578063f2fde38b14610261578063fbe276741461028a576100c2565b80638129fc1c146101a25780638456cb59146101b95780638da5cb5b146101d0576100c2565b80630bbf2085146100c7578063439370b1146100f05780634d2301cc146100fa57806354c0cde4146101375780635c975abb14610160578063715018a61461018b575b600080fd5b3480156100d357600080fd5b506100ee60048036038101906100e991906130e8565b6102b3565b005b6100f8611016565b005b34801561010657600080fd5b50610121600480360381019061011c9190612f93565b6110b6565b60405161012e9190613809565b60405180910390f35b34801561014357600080fd5b5061015e60048036038101906101599190613099565b6110ff565b005b34801561016c57600080fd5b5061017561226b565b60405161018291906136ae565b60405180910390f35b34801561019757600080fd5b506101a0612282565b005b3480156101ae57600080fd5b506101b76123bf565b005b3480156101c557600080fd5b506101ce6124b0565b005b3480156101dc57600080fd5b506101e5612536565b6040516101f291906135f0565b60405180910390f35b34801561020757600080fd5b50610222600480360381019061021d919061305d565b612560565b60405161022f919061368c565b60405180910390f35b34801561024457600080fd5b5061025f600480360381019061025a919061300b565b612736565b005b34801561026d57600080fd5b5061028860048036038101906102839190612f93565b6128a0565b005b34801561029657600080fd5b506102b160048036038101906102ac9190612f93565b612a4c565b005b836000806000609a60009054906101000a900473ffffffffffffffffffffffffffffffffffffffff1673ffffffffffffffffffffffffffffffffffffffff1663b09afec1856040518263ffffffff1660e01b81526004016103149190613809565b60606040518083038186803b15801561032c57600080fd5b505afa158015610340573d6000803e3d6000fd5b505050506040513d601f19601f820116820180604052508101906103649190612fbc565b809350819450829550505050600073ffffffffffffffffffffffffffffffffffffffff168373ffffffffffffffffffffffffffffffffffffffff1614156103e0576040517f08c379a00000000000000000000000000000000000000000000000000000000081526004016103d7906137c9565b60405180910390fd5b6103e861226b565b15610428576040517f08c379a000000000000000000000000000000000000000000000000000000000815260040161041f906137e9565b60405180910390fd5b600180811115610461577f4e487b7100000000000000000000000000000000000000000000000000000000600052602160045260246000fd5b85600181111561049a577f4e487b7100000000000000000000000000000000000000000000000000000000600052602160045260246000fd5b1415610599576000609a60009054906101000a900473ffffffffffffffffffffffffffffffffffffffff1673ffffffffffffffffffffffffffffffffffffffff1662fdd58e338b6040518363ffffffff1660e01b81526004016104fe929190613663565b60206040518083038186803b15801561051657600080fd5b505afa15801561052a573d6000803e3d6000fd5b505050506040513d601f19601f8201168201806040525081019061054e9190613034565b905087811015610593576040517f08c379a000000000000000000000000000000000000000000000000000000000815260040161058a90613789565b60405180910390fd5b50610729565b6000806000609a60009054906101000a900473ffffffffffffffffffffffffffffffffffffffff1673ffffffffffffffffffffffffffffffffffffffff1663b09afec18c6040518263ffffffff1660e01b81526004016105f99190613809565b60606040518083038186803b15801561061157600080fd5b505afa158015610625573d6000803e3d6000fd5b505050506040513d601f19601f820116820180604052508101906106499190612fbc565b80935081945082955050505089811015610698576040517f08c379a000000000000000000000000000000000000000000000000000000000815260040161068f906137a9565b60405180910390fd5b888a6106a4919061391a565b609860003373ffffffffffffffffffffffffffffffffffffffff1673ffffffffffffffffffffffffffffffffffffffff168152602001908152602001600020541015610725576040517f08c379a000000000000000000000000000000000000000000000000000000000815260040161071c90613729565b60405180910390fd5b5050505b6000609960008a81526020019081526020016000206000876001811115610779577f4e487b7100000000000000000000000000000000000000000000000000000000600052602160045260246000fd5b815260200190815260200160002090506107936097612b0c565b600061079f6097612b22565b9050816040518061010001604052808381526020013373ffffffffffffffffffffffffffffffffffffffff168152602001896001811115610809577f4e487b7100000000000000000000000000000000000000000000000000000000600052602160045260246000fd5b81526020018c81526020018b8152602001600081526020018a81526020014281525090806001815401808255809150506001900390600052602060002090600702016000909190919091506000820151816000015560208201518160010160006101000a81548173ffffffffffffffffffffffffffffffffffffffff021916908373ffffffffffffffffffffffffffffffffffffffff16021790555060408201518160010160146101000a81548160ff021916908360018111156108f6577f4e487b7100000000000000000000000000000000000000000000000000000000600052602160045260246000fd5b0217905550606082015181600201556080820151816003015560a0820151816004015560c0820151816005015560e082015181600601555050600080838054905011610943576000610955565b600183805490506109549190613974565b5b90505b6000811115611009576000600181111561099b577f4e487b7100000000000000000000000000000000000000000000000000000000600052602160045260246000fd5b8860018111156109d4577f4e487b7100000000000000000000000000000000000000000000000000000000600052602160045260246000fd5b148015610a805750828181548110610a15577f4e487b7100000000000000000000000000000000000000000000000000000000600052603260045260246000fd5b90600052602060002090600702016005015483600183610a359190613974565b81548110610a6c577f4e487b7100000000000000000000000000000000000000000000000000000000600052603260045260246000fd5b906000526020600020906007020160050154115b15610a8a57611009565b600180811115610ac3577f4e487b7100000000000000000000000000000000000000000000000000000000600052602160045260246000fd5b886001811115610afc577f4e487b7100000000000000000000000000000000000000000000000000000000600052602160045260246000fd5b148015610ba85750828181548110610b3d577f4e487b7100000000000000000000000000000000000000000000000000000000600052603260045260246000fd5b90600052602060002090600702016005015483600183610b5d9190613974565b81548110610b94577f4e487b7100000000000000000000000000000000000000000000000000000000600052603260045260246000fd5b906000526020600020906007020160050154105b15610bb257611009565b600083600183610bc29190613974565b81548110610bf9577f4e487b7100000000000000000000000000000000000000000000000000000000600052603260045260246000fd5b906000526020600020906007020160405180610100016040529081600082015481526020016001820160009054906101000a900473ffffffffffffffffffffffffffffffffffffffff1673ffffffffffffffffffffffffffffffffffffffff1673ffffffffffffffffffffffffffffffffffffffff1681526020016001820160149054906101000a900460ff166001811115610cbe577f4e487b7100000000000000000000000000000000000000000000000000000000600052602160045260246000fd5b6001811115610cf6577f4e487b7100000000000000000000000000000000000000000000000000000000600052602160045260246000fd5b8152602001600282015481526020016003820154815260200160048201548152602001600582015481526020016006820154815250509050838281548110610d67577f4e487b7100000000000000000000000000000000000000000000000000000000600052603260045260246000fd5b906000526020600020906007020184600184610d839190613974565b81548110610dba577f4e487b7100000000000000000000000000000000000000000000000000000000600052603260045260246000fd5b9060005260206000209060070201600082015481600001556001820160009054906101000a900473ffffffffffffffffffffffffffffffffffffffff168160010160006101000a81548173ffffffffffffffffffffffffffffffffffffffff021916908373ffffffffffffffffffffffffffffffffffffffff1602179055506001820160149054906101000a900460ff168160010160146101000a81548160ff02191690836001811115610e97577f4e487b7100000000000000000000000000000000000000000000000000000000600052602160045260246000fd5b0217905550600282015481600201556003820154816003015560048201548160040155600582015481600501556006820154816006015590505080848381548110610f0b577f4e487b7100000000000000000000000000000000000000000000000000000000600052603260045260246000fd5b90600052602060002090600702016000820151816000015560208201518160010160006101000a81548173ffffffffffffffffffffffffffffffffffffffff021916908373ffffffffffffffffffffffffffffffffffffffff16021790555060408201518160010160146101000a81548160ff02191690836001811115610fbb577f4e487b7100000000000000000000000000000000000000000000000000000000600052602160045260246000fd5b0217905550606082015181600201556080820151816003015560a0820151816004015560c0820151816005015560e08201518160060155905050818061100090613a15565b92505050610958565b5050505050505050505050565b61101e61226b565b1561105e576040517f08c379a0000000000000000000000000000000000000000000000000000000008152600401611055906137e9565b60405180910390fd5b34609860003373ffffffffffffffffffffffffffffffffffffffff1673ffffffffffffffffffffffffffffffffffffffff16815260200190815260200160002060008282546110ad91906138c4565b92505081905550565b6000609860008373ffffffffffffffffffffffffffffffffffffffff1673ffffffffffffffffffffffffffffffffffffffff168152602001908152602001600020549050919050565b826000806000609a60009054906101000a900473ffffffffffffffffffffffffffffffffffffffff1673ffffffffffffffffffffffffffffffffffffffff1663b09afec1856040518263ffffffff1660e01b81526004016111609190613809565b60606040518083038186803b15801561117857600080fd5b505afa15801561118c573d6000803e3d6000fd5b505050506040513d601f19601f820116820180604052508101906111b09190612fbc565b809350819450829550505050600073ffffffffffffffffffffffffffffffffffffffff168373ffffffffffffffffffffffffffffffffffffffff16141561122c576040517f08c379a0000000000000000000000000000000000000000000000000000000008152600401611223906137c9565b60405180910390fd5b61123461226b565b15611274576040517f08c379a000000000000000000000000000000000000000000000000000000000815260040161126b906137e9565b60405180910390fd5b6001808111156112ad577f4e487b7100000000000000000000000000000000000000000000000000000000600052602160045260246000fd5b8560018111156112e6577f4e487b7100000000000000000000000000000000000000000000000000000000600052602160045260246000fd5b14156113e1576000609a60009054906101000a900473ffffffffffffffffffffffffffffffffffffffff1673ffffffffffffffffffffffffffffffffffffffff1662fdd58e338a6040518363ffffffff1660e01b815260040161134a929190613663565b60206040518083038186803b15801561136257600080fd5b505afa158015611376573d6000803e3d6000fd5b505050506040513d601f19601f8201168201806040525081019061139a9190613034565b9050868110156113df576040517f08c379a00000000000000000000000000000000000000000000000000000000081526004016113d690613789565b60405180910390fd5b505b6000609960008981526020019081526020016000206000806001811115611431577f4e487b7100000000000000000000000000000000000000000000000000000000600052602160045260246000fd5b88600181111561146a577f4e487b7100000000000000000000000000000000000000000000000000000000600052602160045260246000fd5b14611476576000611479565b60015b60018111156114b1577f4e487b7100000000000000000000000000000000000000000000000000000000600052602160045260246000fd5b815260200190815260200160002090506000808890505b8280549050821080156114db5750600081115b15611f0c57600083838154811061151b577f4e487b7100000000000000000000000000000000000000000000000000000000600052603260045260246000fd5b906000526020600020906007020160040154848481548110611566577f4e487b7100000000000000000000000000000000000000000000000000000000600052603260045260246000fd5b9060005260206000209060070201600301546115829190613974565b905060008183116115935782611595565b815b905080836115a39190613974565b9250808585815481106115df577f4e487b7100000000000000000000000000000000000000000000000000000000600052603260045260246000fd5b9060005260206000209060070201600401546115fb91906138c4565b858581548110611634577f4e487b7100000000000000000000000000000000000000000000000000000000600052603260045260246000fd5b9060005260206000209060070201600401819055503373ffffffffffffffffffffffffffffffffffffffff16858581548110611699577f4e487b7100000000000000000000000000000000000000000000000000000000600052603260045260246000fd5b906000526020600020906007020160010160009054906101000a900473ffffffffffffffffffffffffffffffffffffffff1673ffffffffffffffffffffffffffffffffffffffff168d7f9978fdb3a211975622b71134cdca10c08d124f7251547ffa8fc72880f7e7499288888154811061173c577f4e487b7100000000000000000000000000000000000000000000000000000000600052603260045260246000fd5b906000526020600020906007020160000154858a8a81548110611788577f4e487b7100000000000000000000000000000000000000000000000000000000600052603260045260246000fd5b906000526020600020906007020160050154426040516117ab9493929190613824565b60405180910390a46001808111156117ec577f4e487b7100000000000000000000000000000000000000000000000000000000600052602160045260246000fd5b8a6001811115611825577f4e487b7100000000000000000000000000000000000000000000000000000000600052602160045260246000fd5b1415611ae957609a60009054906101000a900473ffffffffffffffffffffffffffffffffffffffff1673ffffffffffffffffffffffffffffffffffffffff1663f242432a338787815481106118a3577f4e487b7100000000000000000000000000000000000000000000000000000000600052603260045260246000fd5b906000526020600020906007020160010160009054906101000a900473ffffffffffffffffffffffffffffffffffffffff168f856040518563ffffffff1660e01b81526004016118f6949392919061360b565b600060405180830381600087803b15801561191057600080fd5b505af1158015611924573d6000803e3d6000fd5b5050505080858581548110611962577f4e487b7100000000000000000000000000000000000000000000000000000000600052603260045260246000fd5b90600052602060002090600702016005015461197e919061391a565b609860003373ffffffffffffffffffffffffffffffffffffffff1673ffffffffffffffffffffffffffffffffffffffff16815260200190815260200160002060008282546119cc91906138c4565b9250508190555080858581548110611a0d577f4e487b7100000000000000000000000000000000000000000000000000000000600052603260045260246000fd5b906000526020600020906007020160050154611a29919061391a565b60986000878781548110611a66577f4e487b7100000000000000000000000000000000000000000000000000000000600052603260045260246000fd5b906000526020600020906007020160010160009054906101000a900473ffffffffffffffffffffffffffffffffffffffff1673ffffffffffffffffffffffffffffffffffffffff1673ffffffffffffffffffffffffffffffffffffffff1681526020019081526020016000206000828254611ae19190613974565b925050819055505b60006001811115611b23577f4e487b7100000000000000000000000000000000000000000000000000000000600052602160045260246000fd5b8a6001811115611b5c577f4e487b7100000000000000000000000000000000000000000000000000000000600052602160045260246000fd5b1415611ef75780858581548110611b9c577f4e487b7100000000000000000000000000000000000000000000000000000000600052603260045260246000fd5b906000526020600020906007020160050154611bb8919061391a565b609860003373ffffffffffffffffffffffffffffffffffffffff1673ffffffffffffffffffffffffffffffffffffffff168152602001908152602001600020541015611c39576040517f08c379a0000000000000000000000000000000000000000000000000000000008152600401611c3090613729565b60405180910390fd5b609a60009054906101000a900473ffffffffffffffffffffffffffffffffffffffff1673ffffffffffffffffffffffffffffffffffffffff1663f242432a868681548110611cb0577f4e487b7100000000000000000000000000000000000000000000000000000000600052603260045260246000fd5b906000526020600020906007020160010160009054906101000a900473ffffffffffffffffffffffffffffffffffffffff16338f856040518563ffffffff1660e01b8152600401611d04949392919061360b565b600060405180830381600087803b158015611d1e57600080fd5b505af1158015611d32573d6000803e3d6000fd5b5050505080858581548110611d70577f4e487b7100000000000000000000000000000000000000000000000000000000600052603260045260246000fd5b906000526020600020906007020160050154611d8c919061391a565b609860003373ffffffffffffffffffffffffffffffffffffffff1673ffffffffffffffffffffffffffffffffffffffff1681526020019081526020016000206000828254611dda9190613974565b9250508190555080858581548110611e1b577f4e487b7100000000000000000000000000000000000000000000000000000000600052603260045260246000fd5b906000526020600020906007020160050154611e37919061391a565b60986000878781548110611e74577f4e487b7100000000000000000000000000000000000000000000000000000000600052603260045260246000fd5b906000526020600020906007020160010160009054906101000a900473ffffffffffffffffffffffffffffffffffffffff1673ffffffffffffffffffffffffffffffffffffffff1673ffffffffffffffffffffffffffffffffffffffff1681526020019081526020016000206000828254611eef91906138c4565b925050819055505b8380611f0290613a3f565b94505050506114c8565b600091505b828054905082108015611fb75750828281548110611f58577f4e487b7100000000000000000000000000000000000000000000000000000000600052603260045260246000fd5b906000526020600020906007020160030154838381548110611fa3577f4e487b7100000000000000000000000000000000000000000000000000000000600052603260045260246000fd5b906000526020600020906007020160040154145b1561225f5760008290505b60018480549050611fd39190613974565b8110156121905783600182611fe891906138c4565b8154811061201f577f4e487b7100000000000000000000000000000000000000000000000000000000600052603260045260246000fd5b9060005260206000209060070201848281548110612066577f4e487b7100000000000000000000000000000000000000000000000000000000600052603260045260246000fd5b9060005260206000209060070201600082015481600001556001820160009054906101000a900473ffffffffffffffffffffffffffffffffffffffff168160010160006101000a81548173ffffffffffffffffffffffffffffffffffffffff021916908373ffffffffffffffffffffffffffffffffffffffff1602179055506001820160149054906101000a900460ff168160010160146101000a81548160ff02191690836001811115612143577f4e487b7100000000000000000000000000000000000000000000000000000000600052602160045260246000fd5b02179055506002820154816002015560038201548160030155600482015481600401556005820154816005015560068201548160060155905050808061218890613a3f565b915050611fc2565b50828054806121c8577f4e487b7100000000000000000000000000000000000000000000000000000000600052603160045260246000fd5b60019003818190600052602060002090600702016000808201600090556001820160006101000a81549073ffffffffffffffffffffffffffffffffffffffff02191690556001820160146101000a81549060ff02191690556002820160009055600382016000905560048201600090556005820160009055600682016000905550509055818061225790613a3f565b925050611f11565b50505050505050505050565b6000603360009054906101000a900460ff16905090565b61228a612b30565b73ffffffffffffffffffffffffffffffffffffffff166122a8612536565b73ffffffffffffffffffffffffffffffffffffffff16146122fe576040517f08c379a00000000000000000000000000000000000000000000000000000000081526004016122f590613749565b60405180910390fd5b600073ffffffffffffffffffffffffffffffffffffffff16606560009054906101000a900473ffffffffffffffffffffffffffffffffffffffff1673ffffffffffffffffffffffffffffffffffffffff167f8be0079c531659141344cd1fd0a4f28419497f9722a3daafe3b4186f6b6457e060405160405180910390a36000606560006101000a81548173ffffffffffffffffffffffffffffffffffffffff021916908373ffffffffffffffffffffffffffffffffffffffff160217905550565b600060019054906101000a900460ff16806123e5575060008054906101000a900460ff16155b612424576040517f08c379a000000000000000000000000000000000000000000000000000000000815260040161241b90613709565b60405180910390fd5b60008060019054906101000a900460ff161590508015612474576001600060016101000a81548160ff02191690831515021790555060016000806101000a81548160ff0219169083151502179055505b61247c612b38565b612484612c11565b61248c612d05565b80156124ad5760008060016101000a81548160ff0219169083151502179055505b50565b6124b8612b30565b73ffffffffffffffffffffffffffffffffffffffff166124d6612536565b73ffffffffffffffffffffffffffffffffffffffff161461252c576040517f08c379a000000000000000000000000000000000000000000000000000000000815260040161252390613749565b60405180910390fd5b612534612e87565b565b6000606560009054906101000a900473ffffffffffffffffffffffffffffffffffffffff16905090565b60606099600084815260200190815260200160002060008360018111156125b0577f4e487b7100000000000000000000000000000000000000000000000000000000600052602160045260246000fd5b8152602001908152602001600020805480602002602001604051908101604052809291908181526020016000905b8282101561272a578382906000526020600020906007020160405180610100016040529081600082015481526020016001820160009054906101000a900473ffffffffffffffffffffffffffffffffffffffff1673ffffffffffffffffffffffffffffffffffffffff1673ffffffffffffffffffffffffffffffffffffffff1681526020016001820160149054906101000a900460ff1660018111156126ad577f4e487b7100000000000000000000000000000000000000000000000000000000600052602160045260246000fd5b60018111156126e5577f4e487b7100000000000000000000000000000000000000000000000000000000600052602160045260246000fd5b815260200160028201548152602001600382015481526020016004820154815260200160058201548152602001600682015481525050815260200190600101906125de565b50505050905092915050565b61273e61226b565b1561277e576040517f08c379a0000000000000000000000000000000000000000000000000000000008152600401612775906137e9565b60405180910390fd5b80609860003373ffffffffffffffffffffffffffffffffffffffff1673ffffffffffffffffffffffffffffffffffffffff168152602001908152602001600020541015612800576040517f08c379a00000000000000000000000000000000000000000000000000000000081526004016127f790613769565b60405180910390fd5b80609860003373ffffffffffffffffffffffffffffffffffffffff1673ffffffffffffffffffffffffffffffffffffffff168152602001908152602001600020600082825461284f9190613974565b925050819055503373ffffffffffffffffffffffffffffffffffffffff166108fc829081150290604051600060405180830381858888f1935050505015801561289c573d6000803e3d6000fd5b5050565b6128a8612b30565b73ffffffffffffffffffffffffffffffffffffffff166128c6612536565b73ffffffffffffffffffffffffffffffffffffffff161461291c576040517f08c379a000000000000000000000000000000000000000000000000000000000815260040161291390613749565b60405180910390fd5b600073ffffffffffffffffffffffffffffffffffffffff168173ffffffffffffffffffffffffffffffffffffffff16141561298c576040517f08c379a0000000000000000000000000000000000000000000000000000000008152600401612983906136c9565b60405180910390fd5b8073ffffffffffffffffffffffffffffffffffffffff16606560009054906101000a900473ffffffffffffffffffffffffffffffffffffffff1673ffffffffffffffffffffffffffffffffffffffff167f8be0079c531659141344cd1fd0a4f28419497f9722a3daafe3b4186f6b6457e060405160405180910390a380606560006101000a81548173ffffffffffffffffffffffffffffffffffffffff021916908373ffffffffffffffffffffffffffffffffffffffff16021790555050565b612a54612b30565b73ffffffffffffffffffffffffffffffffffffffff16612a72612536565b73ffffffffffffffffffffffffffffffffffffffff1614612ac8576040517f08c379a0000000000000000000000000000000000000000000000000000000008152600401612abf90613749565b60405180910390fd5b80609a60006101000a81548173ffffffffffffffffffffffffffffffffffffffff021916908373ffffffffffffffffffffffffffffffffffffffff16021790555050565b6001816000016000828254019250508190555050565b600081600001549050919050565b600033905090565b600060019054906101000a900460ff1680612b5e575060008054906101000a900460ff16155b612b9d576040517f08c379a0000000000000000000000000000000000000000000000000000000008152600401612b9490613709565b60405180910390fd5b60008060019054906101000a900460ff161590508015612bed576001600060016101000a81548160ff02191690831515021790555060016000806101000a81548160ff0219169083151502179055505b8015612c0e5760008060016101000a81548160ff0219169083151502179055505b50565b600060019054906101000a900460ff1680612c37575060008054906101000a900460ff16155b612c76576040517f08c379a0000000000000000000000000000000000000000000000000000000008152600401612c6d90613709565b60405180910390fd5b60008060019054906101000a900460ff161590508015612cc6576001600060016101000a81548160ff02191690831515021790555060016000806101000a81548160ff0219169083151502179055505b6000603360006101000a81548160ff0219169083151502179055508015612d025760008060016101000a81548160ff0219169083151502179055505b50565b600060019054906101000a900460ff1680612d2b575060008054906101000a900460ff16155b612d6a576040517f08c379a0000000000000000000000000000000000000000000000000000000008152600401612d6190613709565b60405180910390fd5b60008060019054906101000a900460ff161590508015612dba576001600060016101000a81548160ff02191690831515021790555060016000806101000a81548160ff0219169083151502179055505b6000612dc4612b30565b905080606560006101000a81548173ffffffffffffffffffffffffffffffffffffffff021916908373ffffffffffffffffffffffffffffffffffffffff1602179055508073ffffffffffffffffffffffffffffffffffffffff16600073ffffffffffffffffffffffffffffffffffffffff167f8be0079c531659141344cd1fd0a4f28419497f9722a3daafe3b4186f6b6457e060405160405180910390a3508015612e845760008060016101000a81548160ff0219169083151502179055505b50565b612e8f61226b565b15612ecf576040517f08c379a0000000000000000000000000000000000000000000000000000000008152600401612ec6906136e9565b60405180910390fd5b6001603360006101000a81548160ff0219169083151502179055507f62e78cea01bee320cd4e420270b5ea74000d11b0c9f74754ebdbfc544b05a258612f13612b30565b604051612f2091906135f0565b60405180910390a1565b600081359050612f3981613afa565b92915050565b600081519050612f4e81613afa565b92915050565b600081359050612f6381613b11565b92915050565b600081359050612f7881613b21565b92915050565b600081519050612f8d81613b21565b92915050565b600060208284031215612fa557600080fd5b6000612fb384828501612f2a565b91505092915050565b600080600060608486031215612fd157600080fd5b6000612fdf86828701612f3f565b9350506020612ff086828701612f7e565b925050604061300186828701612f7e565b9150509250925092565b60006020828403121561301d57600080fd5b600061302b84828501612f69565b91505092915050565b60006020828403121561304657600080fd5b600061305484828501612f7e565b91505092915050565b6000806040838503121561307057600080fd5b600061307e85828601612f69565b925050602061308f85828601612f54565b9150509250929050565b6000806000606084860312156130ae57600080fd5b60006130bc86828701612f69565b93505060206130cd86828701612f69565b92505060406130de86828701612f54565b9150509250925092565b600080600080608085870312156130fe57600080fd5b600061310c87828801612f69565b945050602061311d87828801612f69565b935050604061312e87828801612f69565b925050606061313f87828801612f54565b91505092959194509250565b60006131578383613530565b6101008301905092915050565b61316d816139a8565b82525050565b61317c816139a8565b82525050565b600061318d82613879565b6131978185613891565b93506131a283613869565b8060005b838110156131d35781516131ba888261314b565b97506131c583613884565b9250506001810190506131a6565b5085935050505092915050565b6131e9816139ba565b82525050565b6131f881613a03565b82525050565b600061320b6026836138b3565b91507f4f776e61626c653a206e6577206f776e657220697320746865207a65726f206160008301527f64647265737300000000000000000000000000000000000000000000000000006020830152604082019050919050565b60006132716010836138b3565b91507f5061757361626c653a20706175736564000000000000000000000000000000006000830152602082019050919050565b60006132b1602e836138b3565b91507f496e697469616c697a61626c653a20636f6e747261637420697320616c72656160008301527f647920696e697469616c697a65640000000000000000000000000000000000006020830152604082019050919050565b60006133176013836138b3565b91507f6574682062616c616e636520746f6f206c6f77000000000000000000000000006000830152602082019050919050565b60006133576020836138b3565b91507f4f776e61626c653a2063616c6c6572206973206e6f7420746865206f776e65726000830152602082019050919050565b60006133976019836138b3565b91507f4554482062616c616e6365206973206e6f7420656e6f756768000000000000006000830152602082019050919050565b60006133d76000836138a2565b9150600082019050919050565b60006133f16029836138b3565b91507f6d6573736167652073656e646572277320746f6b656e2062616c616e6365206960008301527f7320746f6f206c6f7700000000000000000000000000000000000000000000006020830152604082019050919050565b60006134576038836138b3565b91507f746f74616c20616d6f756e74206f66206672616374696f6e73206973206c6f7760008301527f6572207468616e2074686520676976656e20616d6f756e7400000000000000006020830152604082019050919050565b60006134bd6019836138b3565b91507f7468697320746f6b656e20646f6573206e6f74206578697374000000000000006000830152602082019050919050565b60006134fd6018836138b3565b91507f4e6f7420616c6c6f776564207768696c652070617573656400000000000000006000830152602082019050919050565b6101008201600082015161354760008501826135d2565b50602082015161355a6020850182613164565b50604082015161356d60408501826131ef565b50606082015161358060608501826135d2565b50608082015161359360808501826135d2565b5060a08201516135a660a08501826135d2565b5060c08201516135b960c08501826135d2565b5060e08201516135cc60e08501826135d2565b50505050565b6135db816139f9565b82525050565b6135ea816139f9565b82525050565b60006020820190506136056000830184613173565b92915050565b600060a0820190506136206000830187613173565b61362d6020830186613173565b61363a60408301856135e1565b61364760608301846135e1565b8181036080830152613658816133ca565b905095945050505050565b60006040820190506136786000830185613173565b61368560208301846135e1565b9392505050565b600060208201905081810360008301526136a68184613182565b905092915050565b60006020820190506136c360008301846131e0565b92915050565b600060208201905081810360008301526136e2816131fe565b9050919050565b6000602082019050818103600083015261370281613264565b9050919050565b60006020820190508181036000830152613722816132a4565b9050919050565b600060208201905081810360008301526137428161330a565b9050919050565b600060208201905081810360008301526137628161334a565b9050919050565b600060208201905081810360008301526137828161338a565b9050919050565b600060208201905081810360008301526137a2816133e4565b9050919050565b600060208201905081810360008301526137c28161344a565b9050919050565b600060208201905081810360008301526137e2816134b0565b9050919050565b60006020820190508181036000830152613802816134f0565b9050919050565b600060208201905061381e60008301846135e1565b92915050565b600060808201905061383960008301876135e1565b61384660208301866135e1565b61385360408301856135e1565b61386060608301846135e1565b95945050505050565b6000819050602082019050919050565b600081519050919050565b6000602082019050919050565b600082825260208201905092915050565b600082825260208201905092915050565b600082825260208201905092915050565b60006138cf826139f9565b91506138da836139f9565b9250827fffffffffffffffffffffffffffffffffffffffffffffffffffffffffffffffff0382111561390f5761390e613a88565b5b828201905092915050565b6000613925826139f9565b9150613930836139f9565b9250817fffffffffffffffffffffffffffffffffffffffffffffffffffffffffffffffff048311821515161561396957613968613a88565b5b828202905092915050565b600061397f826139f9565b915061398a836139f9565b92508282101561399d5761399c613a88565b5b828203905092915050565b60006139b3826139d9565b9050919050565b60008115159050919050565b60008190506139d482613ae6565b919050565b600073ffffffffffffffffffffffffffffffffffffffff82169050919050565b6000819050919050565b6000613a0e826139c6565b9050919050565b6000613a20826139f9565b91506000821415613a3457613a33613a88565b5b600182039050919050565b6000613a4a826139f9565b91507fffffffffffffffffffffffffffffffffffffffffffffffffffffffffffffffff821415613a7d57613a7c613a88565b5b600182019050919050565b7f4e487b7100000000000000000000000000000000000000000000000000000000600052601160045260246000fd5b7f4e487b7100000000000000000000000000000000000000000000000000000000600052602160045260246000fd5b60028110613af757613af6613ab7565b5b50565b613b03816139a8565b8114613b0e57600080fd5b50565b60028110613b1e57600080fd5b50565b613b2a816139f9565b8114613b3557600080fd5b5056fea26469706673582212205a628c48446eb44c34964a4bb6af5cbc9c0d5682529fb578e00e37d98127b9bd64736f6c63430008000033",
  "immutableReferences": {},
  "source": "// SPDX-License-Identifier: MIT\n\npragma solidity ^0.8.0;\n\nimport \"@openzeppelin/contracts-upgradeable/security/PausableUpgradeable.sol\";\nimport \"@openzeppelin/contracts-upgradeable/proxy/utils/Initializable.sol\";\nimport \"@openzeppelin/contracts-upgradeable/utils/CountersUpgradeable.sol\";\nimport \"@openzeppelin/contracts-upgradeable/access/OwnableUpgradeable.sol\";\nimport \"./NftFractionsRepository.sol\";\n\ncontract Dex is Initializable, PausableUpgradeable, OwnableUpgradeable {\n    using CountersUpgradeable for CountersUpgradeable.Counter;\n\n    enum Side {BUY, SELL}\n\n    struct Order {\n        uint256 id;\n        address trader;\n        Side side;\n        uint256 tokenId;\n        uint256 amount;\n        uint256 filled;\n        uint256 price;\n        uint256 date;\n    }\n\n    event NewTrade(\n        uint256 orderId,\n        uint256 indexed tokenId,\n        address indexed trader1,\n        address indexed trader2,\n        uint256 amount,\n        uint256 price,\n        uint256 date\n    );\n\n    CountersUpgradeable.Counter private _orderIds;\n    mapping(address => uint256) ethBalance;\n    mapping(uint256 => mapping(uint256 => Order[])) orderBook;\n    NftFractionsRepository nftFractionsRepository;\n\n    function initialize() public initializer {\n        __Context_init_unchained();\n        __Pausable_init_unchained();\n        __Ownable_init_unchained();\n    }\n\n    function setNftFractionsRepository(address nftFractionsRepositoryAddress)\n        public\n        onlyOwner()\n    {\n        nftFractionsRepository = NftFractionsRepository(\n            nftFractionsRepositoryAddress\n        );\n    }\n\n    /**\n     * @dev deposit ETH for trading\n     */\n    function depositEth() public payable {\n        require(!paused(), \"Not allowed while paused\");\n        ethBalance[msg.sender] += msg.value;\n    }\n\n    /**\n     * @dev Withdraw ETH\n     *\n     * Requirements:\n     * - msg.sender has to have equal or more ETH than the amount to withdraw\n     */\n    function withdrawEth(uint256 amount) public {\n        require(!paused(), \"Not allowed while paused\");\n        require(ethBalance[msg.sender] >= amount, \"ETH balance is not enough\");\n        ethBalance[msg.sender] -= amount;\n        payable(msg.sender).transfer(amount);\n    }\n\n    /**\n     * @dev returns the ETH balance of the owner\n     */\n    function getEthBalance(address owner) public view returns (uint256) {\n        return ethBalance[owner];\n    }\n\n    function pause() public onlyOwner() {\n        _pause();\n    }\n\n    function createLimitOrder(\n        uint256 tokenId,\n        uint256 amount,\n        uint256 price,\n        Side side\n    ) external tokenExist(tokenId) {\n        require(!paused(), \"Not allowed while paused\");\n        if (side == Side.SELL) {\n            uint256 sendersBalance =\n                nftFractionsRepository.balanceOf(msg.sender, tokenId);\n            require(\n                sendersBalance >= amount,\n                \"message sender's token balance is too low\"\n            );\n        } else {\n            address erc721ContractAddress;\n            uint256 erc721TokenId;\n            uint256 totalFractionsAmount;\n            (\n                erc721ContractAddress,\n                erc721TokenId,\n                totalFractionsAmount\n            ) = nftFractionsRepository.getTokenData(tokenId);\n            require(\n                totalFractionsAmount >= amount,\n                \"total amount of fractions is lower than the given amount\"\n            );\n            require(\n                ethBalance[msg.sender] >= amount * price,\n                \"eth balance too low\"\n            );\n        }\n        Order[] storage orders = orderBook[tokenId][uint256(side)];\n        _orderIds.increment();\n        uint256 newOrderId = _orderIds.current();\n        orders.push(\n            Order(\n                newOrderId,\n                msg.sender,\n                side,\n                tokenId,\n                amount,\n                0,\n                price,\n                block.timestamp\n            )\n        );\n\n        uint256 i = orders.length > 0 ? orders.length - 1 : 0;\n        while (i > 0) {\n            if (side == Side.BUY && orders[i - 1].price > orders[i].price) {\n                break;\n            }\n            if (side == Side.SELL && orders[i - 1].price < orders[i].price) {\n                break;\n            }\n            Order memory order = orders[i - 1];\n            orders[i - 1] = orders[i];\n            orders[i] = order;\n            i--;\n        }\n    }\n\n    function createMarketOrder(\n        uint256 tokenId,\n        uint256 amount,\n        Side side\n    ) external tokenExist(tokenId) {\n        require(!paused(), \"Not allowed while paused\");\n        if (side == Side.SELL) {\n            uint256 sendersBalance =\n                nftFractionsRepository.balanceOf(msg.sender, tokenId);\n            require(\n                sendersBalance >= amount,\n                \"message sender's token balance is too low\"\n            );\n        }\n        Order[] storage orders =\n            orderBook[tokenId][\n                uint256(side == Side.BUY ? Side.SELL : Side.BUY)\n            ];\n        uint256 i;\n        uint256 remaining = amount;\n\n        while (i < orders.length && remaining > 0) {\n            uint256 available = orders[i].amount - orders[i].filled;\n            uint256 matched = (remaining > available) ? available : remaining;\n            remaining = remaining - matched;\n            orders[i].filled = orders[i].filled + matched;\n            emit NewTrade(\n                orders[i].id,\n                tokenId,\n                orders[i].trader,\n                msg.sender,\n                matched,\n                orders[i].price,\n                block.timestamp\n            );\n            if (side == Side.SELL) {\n                nftFractionsRepository.safeTransferFrom(\n                    msg.sender,\n                    orders[i].trader,\n                    tokenId,\n                    matched,\n                    \"\"\n                );\n                ethBalance[msg.sender] += orders[i].price * matched;\n                ethBalance[orders[i].trader] -= orders[i].price * matched;\n            }\n            if (side == Side.BUY) {\n                require(\n                    ethBalance[msg.sender] >= orders[i].price * matched,\n                    \"eth balance too low\"\n                );\n                nftFractionsRepository.safeTransferFrom(\n                    orders[i].trader,\n                    msg.sender,\n                    tokenId,\n                    matched,\n                    \"\"\n                );\n                ethBalance[msg.sender] -= orders[i].price * matched;\n                ethBalance[orders[i].trader] += orders[i].price * matched;\n            }\n            i++;\n        }\n\n        i = 0;\n        while (i < orders.length && orders[i].filled == orders[i].amount) {\n            for (uint256 j = i; j < orders.length - 1; j++) {\n                orders[j] = orders[j + 1];\n            }\n            orders.pop();\n            i++;\n        }\n    }\n\n    function getOrders(uint256 tokenId, Side side)\n        external\n        view\n        returns (Order[] memory)\n    {\n        return orderBook[tokenId][uint256(side)];\n    }\n\n    modifier tokenExist(uint256 tokenId) {\n        address erc721ContractAddress;\n        uint256 erc721TokenId;\n        uint256 totalFractionsAmount;\n        (\n            erc721ContractAddress,\n            erc721TokenId,\n            totalFractionsAmount\n        ) = nftFractionsRepository.getTokenData(tokenId);\n        require(\n            erc721ContractAddress != address(0),\n            \"this token does not exist\"\n        );\n        _;\n    }\n}\n",
  "sourcePath": "/Users/szabolcs/Documents/Personal/Szakmai/Ethereum/nft-fractions-dex/contracts/Dex.sol",
  "compiler": {
    "name": "solc",
    "version": "0.8.0+commit.c7dfd78e.Emscripten.clang"
  },
  "schemaVersion": "3.3.4",
  "updatedAt": "2021-04-15T18:58:36.273Z",
  "devdoc": {
    "kind": "dev",
    "methods": {
      "depositEth()": {
        "details": "deposit ETH for trading"
      },
      "getEthBalance(address)": {
        "details": "returns the ETH balance of the owner"
      },
      "owner()": {
        "details": "Returns the address of the current owner."
      },
      "paused()": {
        "details": "Returns true if the contract is paused, and false otherwise."
      },
      "renounceOwnership()": {
        "details": "Leaves the contract without owner. It will not be possible to call `onlyOwner` functions anymore. Can only be called by the current owner. NOTE: Renouncing ownership will leave the contract without an owner, thereby removing any functionality that is only available to the owner."
      },
      "transferOwnership(address)": {
        "details": "Transfers ownership of the contract to a new account (`newOwner`). Can only be called by the current owner."
      },
      "withdrawEth(uint256)": {
        "details": "Withdraw ETH Requirements: - msg.sender has to have equal or more ETH than the amount to withdraw"
      }
    },
    "version": 1
  },
  "userdoc": {
    "kind": "user",
    "methods": {},
    "version": 1
  }
}