{
  "contractName": "Dex",
  "abi": [
    {
      "anonymous": false,
      "inputs": [
        {
          "indexed": false,
          "internalType": "uint256",
          "name": "orderId",
          "type": "uint256"
        },
        {
          "indexed": true,
          "internalType": "uint256",
          "name": "tokenId",
          "type": "uint256"
        },
        {
          "indexed": true,
          "internalType": "address",
          "name": "trader1",
          "type": "address"
        },
        {
          "indexed": true,
          "internalType": "address",
          "name": "trader2",
          "type": "address"
        },
        {
          "indexed": false,
          "internalType": "uint256",
          "name": "amount",
          "type": "uint256"
        },
        {
          "indexed": false,
          "internalType": "uint256",
          "name": "price",
          "type": "uint256"
        },
        {
          "indexed": false,
          "internalType": "uint256",
          "name": "date",
          "type": "uint256"
        }
      ],
      "name": "NewTrade",
      "type": "event"
    },
    {
      "anonymous": false,
      "inputs": [
        {
          "indexed": true,
          "internalType": "address",
          "name": "previousOwner",
          "type": "address"
        },
        {
          "indexed": true,
          "internalType": "address",
          "name": "newOwner",
          "type": "address"
        }
      ],
      "name": "OwnershipTransferred",
      "type": "event"
    },
    {
      "anonymous": false,
      "inputs": [
        {
          "indexed": false,
          "internalType": "address",
          "name": "account",
          "type": "address"
        }
      ],
      "name": "Paused",
      "type": "event"
    },
    {
      "anonymous": false,
      "inputs": [
        {
          "indexed": false,
          "internalType": "address",
          "name": "account",
          "type": "address"
        }
      ],
      "name": "Unpaused",
      "type": "event"
    },
    {
      "inputs": [],
      "name": "owner",
      "outputs": [
        {
          "internalType": "address",
          "name": "",
          "type": "address"
        }
      ],
      "stateMutability": "view",
      "type": "function",
      "constant": true
    },
    {
      "inputs": [],
      "name": "paused",
      "outputs": [
        {
          "internalType": "bool",
          "name": "",
          "type": "bool"
        }
      ],
      "stateMutability": "view",
      "type": "function",
      "constant": true
    },
    {
      "inputs": [],
      "name": "renounceOwnership",
      "outputs": [],
      "stateMutability": "nonpayable",
      "type": "function"
    },
    {
      "inputs": [
        {
          "internalType": "address",
          "name": "newOwner",
          "type": "address"
        }
      ],
      "name": "transferOwnership",
      "outputs": [],
      "stateMutability": "nonpayable",
      "type": "function"
    },
    {
      "inputs": [],
      "name": "initialize",
      "outputs": [],
      "stateMutability": "nonpayable",
      "type": "function"
    },
    {
      "inputs": [
        {
          "internalType": "address",
          "name": "nftFractionsRepositoryAddress",
          "type": "address"
        }
      ],
      "name": "setNftFractionsRepository",
      "outputs": [],
      "stateMutability": "nonpayable",
      "type": "function"
    },
    {
      "inputs": [],
      "name": "depositEth",
      "outputs": [],
      "stateMutability": "payable",
      "type": "function",
      "payable": true
    },
    {
      "inputs": [
        {
          "internalType": "uint256",
          "name": "amount",
          "type": "uint256"
        }
      ],
      "name": "withdrawEth",
      "outputs": [],
      "stateMutability": "nonpayable",
      "type": "function"
    },
    {
      "inputs": [
        {
          "internalType": "address",
          "name": "owner",
          "type": "address"
        }
      ],
      "name": "getEthBalance",
      "outputs": [
        {
          "internalType": "uint256",
          "name": "",
          "type": "uint256"
        }
      ],
      "stateMutability": "view",
      "type": "function",
      "constant": true
    },
    {
      "inputs": [
        {
          "internalType": "address",
          "name": "owner",
          "type": "address"
        }
      ],
      "name": "getEthReserveBalance",
      "outputs": [
        {
          "internalType": "uint256",
          "name": "",
          "type": "uint256"
        }
      ],
      "stateMutability": "view",
      "type": "function",
      "constant": true
    },
    {
      "inputs": [],
      "name": "pause",
      "outputs": [],
      "stateMutability": "nonpayable",
      "type": "function"
    },
    {
      "inputs": [
        {
          "internalType": "uint256",
          "name": "tokenId",
          "type": "uint256"
        },
        {
          "internalType": "uint256",
          "name": "amount",
          "type": "uint256"
        },
        {
          "internalType": "uint256",
          "name": "price",
          "type": "uint256"
        },
        {
          "internalType": "enum Dex.Side",
          "name": "side",
          "type": "uint8"
        }
      ],
      "name": "createLimitOrder",
      "outputs": [],
      "stateMutability": "nonpayable",
      "type": "function"
    },
    {
      "inputs": [
        {
          "internalType": "uint256",
          "name": "tokenId",
          "type": "uint256"
        },
        {
          "internalType": "uint256",
          "name": "amount",
          "type": "uint256"
        },
        {
          "internalType": "enum Dex.Side",
          "name": "side",
          "type": "uint8"
        }
      ],
      "name": "createMarketOrder",
      "outputs": [],
      "stateMutability": "nonpayable",
      "type": "function"
    },
    {
      "inputs": [
        {
          "internalType": "uint256",
          "name": "tokenId",
          "type": "uint256"
        },
        {
          "internalType": "enum Dex.Side",
          "name": "side",
          "type": "uint8"
        }
      ],
      "name": "getOrders",
      "outputs": [
        {
          "components": [
            {
              "internalType": "uint256",
              "name": "id",
              "type": "uint256"
            },
            {
              "internalType": "address",
              "name": "trader",
              "type": "address"
            },
            {
              "internalType": "enum Dex.Side",
              "name": "side",
              "type": "uint8"
            },
            {
              "internalType": "uint256",
              "name": "tokenId",
              "type": "uint256"
            },
            {
              "internalType": "uint256",
              "name": "amount",
              "type": "uint256"
            },
            {
              "internalType": "uint256",
              "name": "filled",
              "type": "uint256"
            },
            {
              "internalType": "uint256",
              "name": "price",
              "type": "uint256"
            },
            {
              "internalType": "uint256",
              "name": "date",
              "type": "uint256"
            }
          ],
          "internalType": "struct Dex.Order[]",
          "name": "",
          "type": "tuple[]"
        }
      ],
      "stateMutability": "view",
      "type": "function",
      "constant": true
    }
  ],
  "bytecode": "0x608060405234801561001057600080fd5b50613d04806100206000396000f3fe6080604052600436106100dd5760003560e01c80638129fc1c1161007f578063b141bd3911610059578063b141bd3914610253578063c311d04914610290578063f2fde38b146102b9578063fbe27674146102e2576100dd565b80638129fc1c146101fa5780638456cb59146102115780638da5cb5b14610228576100dd565b80634d2301cc116100bb5780634d2301cc1461015257806354c0cde41461018f5780635c975abb146101b8578063715018a6146101e3576100dd565b80630bbf2085146100e25780631f9af29c1461010b578063439370b114610148575b600080fd5b3480156100ee57600080fd5b506101096004803603810190610104919061327e565b61030b565b005b34801561011757600080fd5b50610132600480360381019061012d9190613129565b611119565b60405161013f919061399f565b60405180910390f35b610150611162565b005b34801561015e57600080fd5b5061017960048036038101906101749190613129565b611202565b604051610186919061399f565b60405180910390f35b34801561019b57600080fd5b506101b660048036038101906101b1919061322f565b61124b565b005b3480156101c457600080fd5b506101cd612401565b6040516101da9190613844565b60405180910390f35b3480156101ef57600080fd5b506101f8612418565b005b34801561020657600080fd5b5061020f612555565b005b34801561021d57600080fd5b50610226612646565b005b34801561023457600080fd5b5061023d6126cc565b60405161024a9190613786565b60405180910390f35b34801561025f57600080fd5b5061027a600480360381019061027591906131f3565b6126f6565b6040516102879190613822565b60405180910390f35b34801561029c57600080fd5b506102b760048036038101906102b291906131a1565b6128cc565b005b3480156102c557600080fd5b506102e060048036038101906102db9190613129565b612a36565b005b3480156102ee57600080fd5b5061030960048036038101906103049190613129565b612be2565b005b836000806000609b60009054906101000a900473ffffffffffffffffffffffffffffffffffffffff1673ffffffffffffffffffffffffffffffffffffffff1663b09afec1856040518263ffffffff1660e01b815260040161036c919061399f565b60606040518083038186803b15801561038457600080fd5b505afa158015610398573d6000803e3d6000fd5b505050506040513d601f19601f820116820180604052508101906103bc9190613152565b809350819450829550505050600073ffffffffffffffffffffffffffffffffffffffff168373ffffffffffffffffffffffffffffffffffffffff161415610438576040517f08c379a000000000000000000000000000000000000000000000000000000000815260040161042f9061395f565b60405180910390fd5b610440612401565b15610480576040517f08c379a00000000000000000000000000000000000000000000000000000000081526004016104779061397f565b60405180910390fd5b6001808111156104b9577f4e487b7100000000000000000000000000000000000000000000000000000000600052602160045260246000fd5b8560018111156104f2577f4e487b7100000000000000000000000000000000000000000000000000000000600052602160045260246000fd5b14156105f1576000609b60009054906101000a900473ffffffffffffffffffffffffffffffffffffffff1673ffffffffffffffffffffffffffffffffffffffff1662fdd58e338b6040518363ffffffff1660e01b81526004016105569291906137f9565b60206040518083038186803b15801561056e57600080fd5b505afa158015610582573d6000803e3d6000fd5b505050506040513d601f19601f820116820180604052508101906105a691906131ca565b9050878110156105eb576040517f08c379a00000000000000000000000000000000000000000000000000000000081526004016105e29061391f565b60405180910390fd5b5061082c565b6000806000609b60009054906101000a900473ffffffffffffffffffffffffffffffffffffffff1673ffffffffffffffffffffffffffffffffffffffff1663b09afec18c6040518263ffffffff1660e01b8152600401610651919061399f565b60606040518083038186803b15801561066957600080fd5b505afa15801561067d573d6000803e3d6000fd5b505050506040513d601f19601f820116820180604052508101906106a19190613152565b809350819450829550505050898110156106f0576040517f08c379a00000000000000000000000000000000000000000000000000000000081526004016106e79061393f565b60405180910390fd5b888a6106fc9190613ab0565b609960003373ffffffffffffffffffffffffffffffffffffffff1673ffffffffffffffffffffffffffffffffffffffff16815260200190815260200160002054609860003373ffffffffffffffffffffffffffffffffffffffff1673ffffffffffffffffffffffffffffffffffffffff168152602001908152602001600020546107869190613b0a565b10156107c7576040517f08c379a00000000000000000000000000000000000000000000000000000000081526004016107be906138bf565b60405180910390fd5b888a6107d39190613ab0565b609960003373ffffffffffffffffffffffffffffffffffffffff1673ffffffffffffffffffffffffffffffffffffffff16815260200190815260200160002060008282546108219190613a5a565b925050819055505050505b6000609a60008a8152602001908152602001600020600087600181111561087c577f4e487b7100000000000000000000000000000000000000000000000000000000600052602160045260246000fd5b815260200190815260200160002090506108966097612ca2565b60006108a26097612cb8565b9050816040518061010001604052808381526020013373ffffffffffffffffffffffffffffffffffffffff16815260200189600181111561090c577f4e487b7100000000000000000000000000000000000000000000000000000000600052602160045260246000fd5b81526020018c81526020018b8152602001600081526020018a81526020014281525090806001815401808255809150506001900390600052602060002090600702016000909190919091506000820151816000015560208201518160010160006101000a81548173ffffffffffffffffffffffffffffffffffffffff021916908373ffffffffffffffffffffffffffffffffffffffff16021790555060408201518160010160146101000a81548160ff021916908360018111156109f9577f4e487b7100000000000000000000000000000000000000000000000000000000600052602160045260246000fd5b0217905550606082015181600201556080820151816003015560a0820151816004015560c0820151816005015560e082015181600601555050600080838054905011610a46576000610a58565b60018380549050610a579190613b0a565b5b90505b600081111561110c5760006001811115610a9e577f4e487b7100000000000000000000000000000000000000000000000000000000600052602160045260246000fd5b886001811115610ad7577f4e487b7100000000000000000000000000000000000000000000000000000000600052602160045260246000fd5b148015610b835750828181548110610b18577f4e487b7100000000000000000000000000000000000000000000000000000000600052603260045260246000fd5b90600052602060002090600702016005015483600183610b389190613b0a565b81548110610b6f577f4e487b7100000000000000000000000000000000000000000000000000000000600052603260045260246000fd5b906000526020600020906007020160050154115b15610b8d5761110c565b600180811115610bc6577f4e487b7100000000000000000000000000000000000000000000000000000000600052602160045260246000fd5b886001811115610bff577f4e487b7100000000000000000000000000000000000000000000000000000000600052602160045260246000fd5b148015610cab5750828181548110610c40577f4e487b7100000000000000000000000000000000000000000000000000000000600052603260045260246000fd5b90600052602060002090600702016005015483600183610c609190613b0a565b81548110610c97577f4e487b7100000000000000000000000000000000000000000000000000000000600052603260045260246000fd5b906000526020600020906007020160050154105b15610cb55761110c565b600083600183610cc59190613b0a565b81548110610cfc577f4e487b7100000000000000000000000000000000000000000000000000000000600052603260045260246000fd5b906000526020600020906007020160405180610100016040529081600082015481526020016001820160009054906101000a900473ffffffffffffffffffffffffffffffffffffffff1673ffffffffffffffffffffffffffffffffffffffff1673ffffffffffffffffffffffffffffffffffffffff1681526020016001820160149054906101000a900460ff166001811115610dc1577f4e487b7100000000000000000000000000000000000000000000000000000000600052602160045260246000fd5b6001811115610df9577f4e487b7100000000000000000000000000000000000000000000000000000000600052602160045260246000fd5b8152602001600282015481526020016003820154815260200160048201548152602001600582015481526020016006820154815250509050838281548110610e6a577f4e487b7100000000000000000000000000000000000000000000000000000000600052603260045260246000fd5b906000526020600020906007020184600184610e869190613b0a565b81548110610ebd577f4e487b7100000000000000000000000000000000000000000000000000000000600052603260045260246000fd5b9060005260206000209060070201600082015481600001556001820160009054906101000a900473ffffffffffffffffffffffffffffffffffffffff168160010160006101000a81548173ffffffffffffffffffffffffffffffffffffffff021916908373ffffffffffffffffffffffffffffffffffffffff1602179055506001820160149054906101000a900460ff168160010160146101000a81548160ff02191690836001811115610f9a577f4e487b7100000000000000000000000000000000000000000000000000000000600052602160045260246000fd5b021790555060028201548160020155600382015481600301556004820154816004015560058201548160050155600682015481600601559050508084838154811061100e577f4e487b7100000000000000000000000000000000000000000000000000000000600052603260045260246000fd5b90600052602060002090600702016000820151816000015560208201518160010160006101000a81548173ffffffffffffffffffffffffffffffffffffffff021916908373ffffffffffffffffffffffffffffffffffffffff16021790555060408201518160010160146101000a81548160ff021916908360018111156110be577f4e487b7100000000000000000000000000000000000000000000000000000000600052602160045260246000fd5b0217905550606082015181600201556080820151816003015560a0820151816004015560c0820151816005015560e08201518160060155905050818061110390613bab565b92505050610a5b565b5050505050505050505050565b6000609960008373ffffffffffffffffffffffffffffffffffffffff1673ffffffffffffffffffffffffffffffffffffffff168152602001908152602001600020549050919050565b61116a612401565b156111aa576040517f08c379a00000000000000000000000000000000000000000000000000000000081526004016111a19061397f565b60405180910390fd5b34609860003373ffffffffffffffffffffffffffffffffffffffff1673ffffffffffffffffffffffffffffffffffffffff16815260200190815260200160002060008282546111f99190613a5a565b92505081905550565b6000609860008373ffffffffffffffffffffffffffffffffffffffff1673ffffffffffffffffffffffffffffffffffffffff168152602001908152602001600020549050919050565b826000806000609b60009054906101000a900473ffffffffffffffffffffffffffffffffffffffff1673ffffffffffffffffffffffffffffffffffffffff1663b09afec1856040518263ffffffff1660e01b81526004016112ac919061399f565b60606040518083038186803b1580156112c457600080fd5b505afa1580156112d8573d6000803e3d6000fd5b505050506040513d601f19601f820116820180604052508101906112fc9190613152565b809350819450829550505050600073ffffffffffffffffffffffffffffffffffffffff168373ffffffffffffffffffffffffffffffffffffffff161415611378576040517f08c379a000000000000000000000000000000000000000000000000000000000815260040161136f9061395f565b60405180910390fd5b611380612401565b156113c0576040517f08c379a00000000000000000000000000000000000000000000000000000000081526004016113b79061397f565b60405180910390fd5b6001808111156113f9577f4e487b7100000000000000000000000000000000000000000000000000000000600052602160045260246000fd5b856001811115611432577f4e487b7100000000000000000000000000000000000000000000000000000000600052602160045260246000fd5b141561152d576000609b60009054906101000a900473ffffffffffffffffffffffffffffffffffffffff1673ffffffffffffffffffffffffffffffffffffffff1662fdd58e338a6040518363ffffffff1660e01b81526004016114969291906137f9565b60206040518083038186803b1580156114ae57600080fd5b505afa1580156114c2573d6000803e3d6000fd5b505050506040513d601f19601f820116820180604052508101906114e691906131ca565b90508681101561152b576040517f08c379a00000000000000000000000000000000000000000000000000000000081526004016115229061391f565b60405180910390fd5b505b6000609a6000898152602001908152602001600020600080600181111561157d577f4e487b7100000000000000000000000000000000000000000000000000000000600052602160045260246000fd5b8860018111156115b6577f4e487b7100000000000000000000000000000000000000000000000000000000600052602160045260246000fd5b146115c25760006115c5565b60015b60018111156115fd577f4e487b7100000000000000000000000000000000000000000000000000000000600052602160045260246000fd5b815260200190815260200160002090506000808890505b8280549050821080156116275750600081115b156120a2576000838381548110611667577f4e487b7100000000000000000000000000000000000000000000000000000000600052603260045260246000fd5b9060005260206000209060070201600401548484815481106116b2577f4e487b7100000000000000000000000000000000000000000000000000000000600052603260045260246000fd5b9060005260206000209060070201600301546116ce9190613b0a565b905060008183116116df57826116e1565b815b905080836116ef9190613b0a565b92508085858154811061172b577f4e487b7100000000000000000000000000000000000000000000000000000000600052603260045260246000fd5b9060005260206000209060070201600401546117479190613a5a565b858581548110611780577f4e487b7100000000000000000000000000000000000000000000000000000000600052603260045260246000fd5b9060005260206000209060070201600401819055503373ffffffffffffffffffffffffffffffffffffffff168585815481106117e5577f4e487b7100000000000000000000000000000000000000000000000000000000600052603260045260246000fd5b906000526020600020906007020160010160009054906101000a900473ffffffffffffffffffffffffffffffffffffffff1673ffffffffffffffffffffffffffffffffffffffff168d7f9978fdb3a211975622b71134cdca10c08d124f7251547ffa8fc72880f7e74992888881548110611888577f4e487b7100000000000000000000000000000000000000000000000000000000600052603260045260246000fd5b906000526020600020906007020160000154858a8a815481106118d4577f4e487b7100000000000000000000000000000000000000000000000000000000600052603260045260246000fd5b906000526020600020906007020160050154426040516118f794939291906139ba565b60405180910390a4600180811115611938577f4e487b7100000000000000000000000000000000000000000000000000000000600052602160045260246000fd5b8a6001811115611971577f4e487b7100000000000000000000000000000000000000000000000000000000600052602160045260246000fd5b1415611c3557609b60009054906101000a900473ffffffffffffffffffffffffffffffffffffffff1673ffffffffffffffffffffffffffffffffffffffff1663605105f0338787815481106119ef577f4e487b7100000000000000000000000000000000000000000000000000000000600052603260045260246000fd5b906000526020600020906007020160010160009054906101000a900473ffffffffffffffffffffffffffffffffffffffff168f856040518563ffffffff1660e01b8152600401611a4294939291906137a1565b600060405180830381600087803b158015611a5c57600080fd5b505af1158015611a70573d6000803e3d6000fd5b5050505080858581548110611aae577f4e487b7100000000000000000000000000000000000000000000000000000000600052603260045260246000fd5b906000526020600020906007020160050154611aca9190613ab0565b609860003373ffffffffffffffffffffffffffffffffffffffff1673ffffffffffffffffffffffffffffffffffffffff1681526020019081526020016000206000828254611b189190613a5a565b9250508190555080858581548110611b59577f4e487b7100000000000000000000000000000000000000000000000000000000600052603260045260246000fd5b906000526020600020906007020160050154611b759190613ab0565b60986000878781548110611bb2577f4e487b7100000000000000000000000000000000000000000000000000000000600052603260045260246000fd5b906000526020600020906007020160010160009054906101000a900473ffffffffffffffffffffffffffffffffffffffff1673ffffffffffffffffffffffffffffffffffffffff1673ffffffffffffffffffffffffffffffffffffffff1681526020019081526020016000206000828254611c2d9190613b0a565b925050819055505b60006001811115611c6f577f4e487b7100000000000000000000000000000000000000000000000000000000600052602160045260246000fd5b8a6001811115611ca8577f4e487b7100000000000000000000000000000000000000000000000000000000600052602160045260246000fd5b141561208d5780858581548110611ce8577f4e487b7100000000000000000000000000000000000000000000000000000000600052603260045260246000fd5b906000526020600020906007020160050154611d049190613ab0565b609960003373ffffffffffffffffffffffffffffffffffffffff1673ffffffffffffffffffffffffffffffffffffffff16815260200190815260200160002054609860003373ffffffffffffffffffffffffffffffffffffffff1673ffffffffffffffffffffffffffffffffffffffff16815260200190815260200160002054611d8e9190613b0a565b1015611dcf576040517f08c379a0000000000000000000000000000000000000000000000000000000008152600401611dc6906138bf565b60405180910390fd5b609b60009054906101000a900473ffffffffffffffffffffffffffffffffffffffff1673ffffffffffffffffffffffffffffffffffffffff1663605105f0868681548110611e46577f4e487b7100000000000000000000000000000000000000000000000000000000600052603260045260246000fd5b906000526020600020906007020160010160009054906101000a900473ffffffffffffffffffffffffffffffffffffffff16338f856040518563ffffffff1660e01b8152600401611e9a94939291906137a1565b600060405180830381600087803b158015611eb457600080fd5b505af1158015611ec8573d6000803e3d6000fd5b5050505080858581548110611f06577f4e487b7100000000000000000000000000000000000000000000000000000000600052603260045260246000fd5b906000526020600020906007020160050154611f229190613ab0565b609860003373ffffffffffffffffffffffffffffffffffffffff1673ffffffffffffffffffffffffffffffffffffffff1681526020019081526020016000206000828254611f709190613b0a565b9250508190555080858581548110611fb1577f4e487b7100000000000000000000000000000000000000000000000000000000600052603260045260246000fd5b906000526020600020906007020160050154611fcd9190613ab0565b6098600087878154811061200a577f4e487b7100000000000000000000000000000000000000000000000000000000600052603260045260246000fd5b906000526020600020906007020160010160009054906101000a900473ffffffffffffffffffffffffffffffffffffffff1673ffffffffffffffffffffffffffffffffffffffff1673ffffffffffffffffffffffffffffffffffffffff16815260200190815260200160002060008282546120859190613a5a565b925050819055505b838061209890613bd5565b9450505050611614565b600091505b82805490508210801561214d57508282815481106120ee577f4e487b7100000000000000000000000000000000000000000000000000000000600052603260045260246000fd5b906000526020600020906007020160030154838381548110612139577f4e487b7100000000000000000000000000000000000000000000000000000000600052603260045260246000fd5b906000526020600020906007020160040154145b156123f55760008290505b600184805490506121699190613b0a565b811015612326578360018261217e9190613a5a565b815481106121b5577f4e487b7100000000000000000000000000000000000000000000000000000000600052603260045260246000fd5b90600052602060002090600702018482815481106121fc577f4e487b7100000000000000000000000000000000000000000000000000000000600052603260045260246000fd5b9060005260206000209060070201600082015481600001556001820160009054906101000a900473ffffffffffffffffffffffffffffffffffffffff168160010160006101000a81548173ffffffffffffffffffffffffffffffffffffffff021916908373ffffffffffffffffffffffffffffffffffffffff1602179055506001820160149054906101000a900460ff168160010160146101000a81548160ff021916908360018111156122d9577f4e487b7100000000000000000000000000000000000000000000000000000000600052602160045260246000fd5b02179055506002820154816002015560038201548160030155600482015481600401556005820154816005015560068201548160060155905050808061231e90613bd5565b915050612158565b508280548061235e577f4e487b7100000000000000000000000000000000000000000000000000000000600052603160045260246000fd5b60019003818190600052602060002090600702016000808201600090556001820160006101000a81549073ffffffffffffffffffffffffffffffffffffffff02191690556001820160146101000a81549060ff0219169055600282016000905560038201600090556004820160009055600582016000905560068201600090555050905581806123ed90613bd5565b9250506120a7565b50505050505050505050565b6000603360009054906101000a900460ff16905090565b612420612cc6565b73ffffffffffffffffffffffffffffffffffffffff1661243e6126cc565b73ffffffffffffffffffffffffffffffffffffffff1614612494576040517f08c379a000000000000000000000000000000000000000000000000000000000815260040161248b906138df565b60405180910390fd5b600073ffffffffffffffffffffffffffffffffffffffff16606560009054906101000a900473ffffffffffffffffffffffffffffffffffffffff1673ffffffffffffffffffffffffffffffffffffffff167f8be0079c531659141344cd1fd0a4f28419497f9722a3daafe3b4186f6b6457e060405160405180910390a36000606560006101000a81548173ffffffffffffffffffffffffffffffffffffffff021916908373ffffffffffffffffffffffffffffffffffffffff160217905550565b600060019054906101000a900460ff168061257b575060008054906101000a900460ff16155b6125ba576040517f08c379a00000000000000000000000000000000000000000000000000000000081526004016125b19061389f565b60405180910390fd5b60008060019054906101000a900460ff16159050801561260a576001600060016101000a81548160ff02191690831515021790555060016000806101000a81548160ff0219169083151502179055505b612612612cce565b61261a612da7565b612622612e9b565b80156126435760008060016101000a81548160ff0219169083151502179055505b50565b61264e612cc6565b73ffffffffffffffffffffffffffffffffffffffff1661266c6126cc565b73ffffffffffffffffffffffffffffffffffffffff16146126c2576040517f08c379a00000000000000000000000000000000000000000000000000000000081526004016126b9906138df565b60405180910390fd5b6126ca61301d565b565b6000606560009054906101000a900473ffffffffffffffffffffffffffffffffffffffff16905090565b6060609a60008481526020019081526020016000206000836001811115612746577f4e487b7100000000000000000000000000000000000000000000000000000000600052602160045260246000fd5b8152602001908152602001600020805480602002602001604051908101604052809291908181526020016000905b828210156128c0578382906000526020600020906007020160405180610100016040529081600082015481526020016001820160009054906101000a900473ffffffffffffffffffffffffffffffffffffffff1673ffffffffffffffffffffffffffffffffffffffff1673ffffffffffffffffffffffffffffffffffffffff1681526020016001820160149054906101000a900460ff166001811115612843577f4e487b7100000000000000000000000000000000000000000000000000000000600052602160045260246000fd5b600181111561287b577f4e487b7100000000000000000000000000000000000000000000000000000000600052602160045260246000fd5b81526020016002820154815260200160038201548152602001600482015481526020016005820154815260200160068201548152505081526020019060010190612774565b50505050905092915050565b6128d4612401565b15612914576040517f08c379a000000000000000000000000000000000000000000000000000000000815260040161290b9061397f565b60405180910390fd5b80609860003373ffffffffffffffffffffffffffffffffffffffff1673ffffffffffffffffffffffffffffffffffffffff168152602001908152602001600020541015612996576040517f08c379a000000000000000000000000000000000000000000000000000000000815260040161298d906138ff565b60405180910390fd5b80609860003373ffffffffffffffffffffffffffffffffffffffff1673ffffffffffffffffffffffffffffffffffffffff16815260200190815260200160002060008282546129e59190613b0a565b925050819055503373ffffffffffffffffffffffffffffffffffffffff166108fc829081150290604051600060405180830381858888f19350505050158015612a32573d6000803e3d6000fd5b5050565b612a3e612cc6565b73ffffffffffffffffffffffffffffffffffffffff16612a5c6126cc565b73ffffffffffffffffffffffffffffffffffffffff1614612ab2576040517f08c379a0000000000000000000000000000000000000000000000000000000008152600401612aa9906138df565b60405180910390fd5b600073ffffffffffffffffffffffffffffffffffffffff168173ffffffffffffffffffffffffffffffffffffffff161415612b22576040517f08c379a0000000000000000000000000000000000000000000000000000000008152600401612b199061385f565b60405180910390fd5b8073ffffffffffffffffffffffffffffffffffffffff16606560009054906101000a900473ffffffffffffffffffffffffffffffffffffffff1673ffffffffffffffffffffffffffffffffffffffff167f8be0079c531659141344cd1fd0a4f28419497f9722a3daafe3b4186f6b6457e060405160405180910390a380606560006101000a81548173ffffffffffffffffffffffffffffffffffffffff021916908373ffffffffffffffffffffffffffffffffffffffff16021790555050565b612bea612cc6565b73ffffffffffffffffffffffffffffffffffffffff16612c086126cc565b73ffffffffffffffffffffffffffffffffffffffff1614612c5e576040517f08c379a0000000000000000000000000000000000000000000000000000000008152600401612c55906138df565b60405180910390fd5b80609b60006101000a81548173ffffffffffffffffffffffffffffffffffffffff021916908373ffffffffffffffffffffffffffffffffffffffff16021790555050565b6001816000016000828254019250508190555050565b600081600001549050919050565b600033905090565b600060019054906101000a900460ff1680612cf4575060008054906101000a900460ff16155b612d33576040517f08c379a0000000000000000000000000000000000000000000000000000000008152600401612d2a9061389f565b60405180910390fd5b60008060019054906101000a900460ff161590508015612d83576001600060016101000a81548160ff02191690831515021790555060016000806101000a81548160ff0219169083151502179055505b8015612da45760008060016101000a81548160ff0219169083151502179055505b50565b600060019054906101000a900460ff1680612dcd575060008054906101000a900460ff16155b612e0c576040517f08c379a0000000000000000000000000000000000000000000000000000000008152600401612e039061389f565b60405180910390fd5b60008060019054906101000a900460ff161590508015612e5c576001600060016101000a81548160ff02191690831515021790555060016000806101000a81548160ff0219169083151502179055505b6000603360006101000a81548160ff0219169083151502179055508015612e985760008060016101000a81548160ff0219169083151502179055505b50565b600060019054906101000a900460ff1680612ec1575060008054906101000a900460ff16155b612f00576040517f08c379a0000000000000000000000000000000000000000000000000000000008152600401612ef79061389f565b60405180910390fd5b60008060019054906101000a900460ff161590508015612f50576001600060016101000a81548160ff02191690831515021790555060016000806101000a81548160ff0219169083151502179055505b6000612f5a612cc6565b905080606560006101000a81548173ffffffffffffffffffffffffffffffffffffffff021916908373ffffffffffffffffffffffffffffffffffffffff1602179055508073ffffffffffffffffffffffffffffffffffffffff16600073ffffffffffffffffffffffffffffffffffffffff167f8be0079c531659141344cd1fd0a4f28419497f9722a3daafe3b4186f6b6457e060405160405180910390a350801561301a5760008060016101000a81548160ff0219169083151502179055505b50565b613025612401565b15613065576040517f08c379a000000000000000000000000000000000000000000000000000000000815260040161305c9061387f565b60405180910390fd5b6001603360006101000a81548160ff0219169083151502179055507f62e78cea01bee320cd4e420270b5ea74000d11b0c9f74754ebdbfc544b05a2586130a9612cc6565b6040516130b69190613786565b60405180910390a1565b6000813590506130cf81613c90565b92915050565b6000815190506130e481613c90565b92915050565b6000813590506130f981613ca7565b92915050565b60008135905061310e81613cb7565b92915050565b60008151905061312381613cb7565b92915050565b60006020828403121561313b57600080fd5b6000613149848285016130c0565b91505092915050565b60008060006060848603121561316757600080fd5b6000613175868287016130d5565b935050602061318686828701613114565b925050604061319786828701613114565b9150509250925092565b6000602082840312156131b357600080fd5b60006131c1848285016130ff565b91505092915050565b6000602082840312156131dc57600080fd5b60006131ea84828501613114565b91505092915050565b6000806040838503121561320657600080fd5b6000613214858286016130ff565b9250506020613225858286016130ea565b9150509250929050565b60008060006060848603121561324457600080fd5b6000613252868287016130ff565b9350506020613263868287016130ff565b9250506040613274868287016130ea565b9150509250925092565b6000806000806080858703121561329457600080fd5b60006132a2878288016130ff565b94505060206132b3878288016130ff565b93505060406132c4878288016130ff565b92505060606132d5878288016130ea565b91505092959194509250565b60006132ed83836136c6565b6101008301905092915050565b61330381613b3e565b82525050565b61331281613b3e565b82525050565b600061332382613a0f565b61332d8185613a27565b9350613338836139ff565b8060005b8381101561336957815161335088826132e1565b975061335b83613a1a565b92505060018101905061333c565b5085935050505092915050565b61337f81613b50565b82525050565b61338e81613b99565b82525050565b60006133a1602683613a49565b91507f4f776e61626c653a206e6577206f776e657220697320746865207a65726f206160008301527f64647265737300000000000000000000000000000000000000000000000000006020830152604082019050919050565b6000613407601083613a49565b91507f5061757361626c653a20706175736564000000000000000000000000000000006000830152602082019050919050565b6000613447602e83613a49565b91507f496e697469616c697a61626c653a20636f6e747261637420697320616c72656160008301527f647920696e697469616c697a65640000000000000000000000000000000000006020830152604082019050919050565b60006134ad601383613a49565b91507f6574682062616c616e636520746f6f206c6f77000000000000000000000000006000830152602082019050919050565b60006134ed602083613a49565b91507f4f776e61626c653a2063616c6c6572206973206e6f7420746865206f776e65726000830152602082019050919050565b600061352d601983613a49565b91507f4554482062616c616e6365206973206e6f7420656e6f756768000000000000006000830152602082019050919050565b600061356d600083613a38565b9150600082019050919050565b6000613587602983613a49565b91507f6d6573736167652073656e646572277320746f6b656e2062616c616e6365206960008301527f7320746f6f206c6f7700000000000000000000000000000000000000000000006020830152604082019050919050565b60006135ed603883613a49565b91507f746f74616c20616d6f756e74206f66206672616374696f6e73206973206c6f7760008301527f6572207468616e2074686520676976656e20616d6f756e7400000000000000006020830152604082019050919050565b6000613653601983613a49565b91507f7468697320746f6b656e20646f6573206e6f74206578697374000000000000006000830152602082019050919050565b6000613693601883613a49565b91507f4e6f7420616c6c6f776564207768696c652070617573656400000000000000006000830152602082019050919050565b610100820160008201516136dd6000850182613768565b5060208201516136f060208501826132fa565b5060408201516137036040850182613385565b5060608201516137166060850182613768565b5060808201516137296080850182613768565b5060a082015161373c60a0850182613768565b5060c082015161374f60c0850182613768565b5060e082015161376260e0850182613768565b50505050565b61377181613b8f565b82525050565b61378081613b8f565b82525050565b600060208201905061379b6000830184613309565b92915050565b600060a0820190506137b66000830187613309565b6137c36020830186613309565b6137d06040830185613777565b6137dd6060830184613777565b81810360808301526137ee81613560565b905095945050505050565b600060408201905061380e6000830185613309565b61381b6020830184613777565b9392505050565b6000602082019050818103600083015261383c8184613318565b905092915050565b60006020820190506138596000830184613376565b92915050565b6000602082019050818103600083015261387881613394565b9050919050565b60006020820190508181036000830152613898816133fa565b9050919050565b600060208201905081810360008301526138b88161343a565b9050919050565b600060208201905081810360008301526138d8816134a0565b9050919050565b600060208201905081810360008301526138f8816134e0565b9050919050565b6000602082019050818103600083015261391881613520565b9050919050565b600060208201905081810360008301526139388161357a565b9050919050565b60006020820190508181036000830152613958816135e0565b9050919050565b6000602082019050818103600083015261397881613646565b9050919050565b6000602082019050818103600083015261399881613686565b9050919050565b60006020820190506139b46000830184613777565b92915050565b60006080820190506139cf6000830187613777565b6139dc6020830186613777565b6139e96040830185613777565b6139f66060830184613777565b95945050505050565b6000819050602082019050919050565b600081519050919050565b6000602082019050919050565b600082825260208201905092915050565b600082825260208201905092915050565b600082825260208201905092915050565b6000613a6582613b8f565b9150613a7083613b8f565b9250827fffffffffffffffffffffffffffffffffffffffffffffffffffffffffffffffff03821115613aa557613aa4613c1e565b5b828201905092915050565b6000613abb82613b8f565b9150613ac683613b8f565b9250817fffffffffffffffffffffffffffffffffffffffffffffffffffffffffffffffff0483118215151615613aff57613afe613c1e565b5b828202905092915050565b6000613b1582613b8f565b9150613b2083613b8f565b925082821015613b3357613b32613c1e565b5b828203905092915050565b6000613b4982613b6f565b9050919050565b60008115159050919050565b6000819050613b6a82613c7c565b919050565b600073ffffffffffffffffffffffffffffffffffffffff82169050919050565b6000819050919050565b6000613ba482613b5c565b9050919050565b6000613bb682613b8f565b91506000821415613bca57613bc9613c1e565b5b600182039050919050565b6000613be082613b8f565b91507fffffffffffffffffffffffffffffffffffffffffffffffffffffffffffffffff821415613c1357613c12613c1e565b5b600182019050919050565b7f4e487b7100000000000000000000000000000000000000000000000000000000600052601160045260246000fd5b7f4e487b7100000000000000000000000000000000000000000000000000000000600052602160045260246000fd5b60028110613c8d57613c8c613c4d565b5b50565b613c9981613b3e565b8114613ca457600080fd5b50565b60028110613cb457600080fd5b50565b613cc081613b8f565b8114613ccb57600080fd5b5056fea2646970667358221220aacd958ef9884aef83cf88d5d3f2176dd6d9e4efbdf35453c8cddbfe5dd534ef64736f6c63430008000033",
  "immutableReferences": {},
  "source": "// SPDX-License-Identifier: MIT\n\npragma solidity ^0.8.0;\n\nimport \"@openzeppelin/contracts-upgradeable/security/PausableUpgradeable.sol\";\nimport \"@openzeppelin/contracts-upgradeable/proxy/utils/Initializable.sol\";\nimport \"@openzeppelin/contracts-upgradeable/utils/CountersUpgradeable.sol\";\nimport \"@openzeppelin/contracts-upgradeable/access/OwnableUpgradeable.sol\";\nimport \"./NftFractionsRepository.sol\";\n\ncontract Dex is Initializable, PausableUpgradeable, OwnableUpgradeable {\n    using CountersUpgradeable for CountersUpgradeable.Counter;\n\n    enum Side {BUY, SELL}\n\n    struct Order {\n        uint256 id;\n        address trader;\n        Side side;\n        uint256 tokenId;\n        uint256 amount;\n        uint256 filled;\n        uint256 price;\n        uint256 date;\n    }\n\n    event NewTrade(\n        uint256 orderId,\n        uint256 indexed tokenId,\n        address indexed trader1,\n        address indexed trader2,\n        uint256 amount,\n        uint256 price,\n        uint256 date\n    );\n\n    CountersUpgradeable.Counter private _orderIds;\n    mapping(address => uint256) ethBalance;\n    mapping(address => uint256) ethReservedBalance;\n    mapping(uint256 => mapping(uint256 => Order[])) orderBook;\n    NftFractionsRepository nftFractionsRepository;\n\n    function initialize() public initializer {\n        __Context_init_unchained();\n        __Pausable_init_unchained();\n        __Ownable_init_unchained();\n    }\n\n    function setNftFractionsRepository(address nftFractionsRepositoryAddress)\n        public\n        onlyOwner()\n    {\n        nftFractionsRepository = NftFractionsRepository(\n            nftFractionsRepositoryAddress\n        );\n    }\n\n    /**\n     * @dev deposit ETH for trading\n     */\n    function depositEth() public payable {\n        require(!paused(), \"Not allowed while paused\");\n        ethBalance[msg.sender] += msg.value;\n    }\n\n    /**\n     * @dev Withdraw ETH\n     *\n     * Requirements:\n     * - msg.sender has to have equal or more ETH than the amount to withdraw\n     */\n    function withdrawEth(uint256 amount) public {\n        require(!paused(), \"Not allowed while paused\");\n        require(ethBalance[msg.sender] >= amount, \"ETH balance is not enough\");\n        ethBalance[msg.sender] -= amount;\n        payable(msg.sender).transfer(amount);\n    }\n\n    /**\n     * @dev returns the ETH balance of the owner\n     */\n    function getEthBalance(address owner) public view returns (uint256) {\n        return ethBalance[owner];\n    }\n\n    /**\n     * @dev returns the ETH reserved balance of the owner\n     */\n    function getEthReserveBalance(address owner) public view returns (uint256) {\n        return ethReservedBalance[owner];\n    }\n\n    function pause() public onlyOwner() {\n        _pause();\n    }\n\n    function createLimitOrder(\n        uint256 tokenId,\n        uint256 amount,\n        uint256 price,\n        Side side\n    ) external tokenExist(tokenId) {\n        require(!paused(), \"Not allowed while paused\");\n        if (side == Side.SELL) {\n            uint256 sendersBalance =\n                nftFractionsRepository.balanceOf(msg.sender, tokenId);\n            require(\n                sendersBalance >= amount,\n                \"message sender's token balance is too low\"\n            );\n        } else {\n            address erc721ContractAddress;\n            uint256 erc721TokenId;\n            uint256 totalFractionsAmount;\n            (\n                erc721ContractAddress,\n                erc721TokenId,\n                totalFractionsAmount\n            ) = nftFractionsRepository.getTokenData(tokenId);\n            require(\n                totalFractionsAmount >= amount,\n                \"total amount of fractions is lower than the given amount\"\n            );\n            require(\n                ethBalance[msg.sender] - ethReservedBalance[msg.sender] >=\n                    amount * price,\n                \"eth balance too low\"\n            );\n            ethReservedBalance[msg.sender] += amount * price;\n        }\n        Order[] storage orders = orderBook[tokenId][uint256(side)];\n        _orderIds.increment();\n        uint256 newOrderId = _orderIds.current();\n        orders.push(\n            Order(\n                newOrderId,\n                msg.sender,\n                side,\n                tokenId,\n                amount,\n                0,\n                price,\n                block.timestamp\n            )\n        );\n\n        uint256 i = orders.length > 0 ? orders.length - 1 : 0;\n        while (i > 0) {\n            if (side == Side.BUY && orders[i - 1].price > orders[i].price) {\n                break;\n            }\n            if (side == Side.SELL && orders[i - 1].price < orders[i].price) {\n                break;\n            }\n            Order memory order = orders[i - 1];\n            orders[i - 1] = orders[i];\n            orders[i] = order;\n            i--;\n        }\n    }\n\n    function createMarketOrder(\n        uint256 tokenId,\n        uint256 amount,\n        Side side\n    ) external tokenExist(tokenId) {\n        require(!paused(), \"Not allowed while paused\");\n        if (side == Side.SELL) {\n            uint256 sendersBalance =\n                nftFractionsRepository.balanceOf(msg.sender, tokenId);\n            require(\n                sendersBalance >= amount,\n                \"message sender's token balance is too low\"\n            );\n        }\n        Order[] storage orders =\n            orderBook[tokenId][\n                uint256(side == Side.BUY ? Side.SELL : Side.BUY)\n            ];\n        uint256 i;\n        uint256 remaining = amount;\n\n        while (i < orders.length && remaining > 0) {\n            uint256 available = orders[i].amount - orders[i].filled;\n            uint256 matched = (remaining > available) ? available : remaining;\n            remaining = remaining - matched;\n            orders[i].filled = orders[i].filled + matched;\n            emit NewTrade(\n                orders[i].id,\n                tokenId,\n                orders[i].trader,\n                msg.sender,\n                matched,\n                orders[i].price,\n                block.timestamp\n            );\n            if (side == Side.SELL) {\n                nftFractionsRepository.transferFrom(\n                    msg.sender,\n                    orders[i].trader,\n                    tokenId,\n                    matched,\n                    \"\"\n                );\n                ethBalance[msg.sender] += orders[i].price * matched;\n                ethBalance[orders[i].trader] -= orders[i].price * matched;\n            }\n            if (side == Side.BUY) {\n                require(\n                    ethBalance[msg.sender] - ethReservedBalance[msg.sender] >=\n                        orders[i].price * matched,\n                    \"eth balance too low\"\n                );\n                nftFractionsRepository.transferFrom(\n                    orders[i].trader,\n                    msg.sender,\n                    tokenId,\n                    matched,\n                    \"\"\n                );\n                ethBalance[msg.sender] -= orders[i].price * matched;\n                ethBalance[orders[i].trader] += orders[i].price * matched;\n            }\n            i++;\n        }\n\n        i = 0;\n        while (i < orders.length && orders[i].filled == orders[i].amount) {\n            for (uint256 j = i; j < orders.length - 1; j++) {\n                orders[j] = orders[j + 1];\n            }\n            orders.pop();\n            i++;\n        }\n    }\n\n    function getOrders(uint256 tokenId, Side side)\n        external\n        view\n        returns (Order[] memory)\n    {\n        return orderBook[tokenId][uint256(side)];\n    }\n\n    modifier tokenExist(uint256 tokenId) {\n        address erc721ContractAddress;\n        uint256 erc721TokenId;\n        uint256 totalFractionsAmount;\n        (\n            erc721ContractAddress,\n            erc721TokenId,\n            totalFractionsAmount\n        ) = nftFractionsRepository.getTokenData(tokenId);\n        require(\n            erc721ContractAddress != address(0),\n            \"this token does not exist\"\n        );\n        _;\n    }\n}\n",
  "sourcePath": "/Users/szabolcs/Documents/Personal/Szakmai/Ethereum/nft-fractions-dex/contracts/Dex.sol",
  "compiler": {
    "name": "solc",
    "version": "0.8.0+commit.c7dfd78e.Emscripten.clang"
  },
  "schemaVersion": "3.3.4",
  "updatedAt": "2021-05-14T08:37:42.482Z",
  "networkType": "ethereum",
  "devdoc": {
    "kind": "dev",
    "methods": {
      "depositEth()": {
        "details": "deposit ETH for trading"
      },
      "getEthBalance(address)": {
        "details": "returns the ETH balance of the owner"
      },
      "getEthReserveBalance(address)": {
        "details": "returns the ETH reserved balance of the owner"
      },
      "owner()": {
        "details": "Returns the address of the current owner."
      },
      "paused()": {
        "details": "Returns true if the contract is paused, and false otherwise."
      },
      "renounceOwnership()": {
        "details": "Leaves the contract without owner. It will not be possible to call `onlyOwner` functions anymore. Can only be called by the current owner. NOTE: Renouncing ownership will leave the contract without an owner, thereby removing any functionality that is only available to the owner."
      },
      "transferOwnership(address)": {
        "details": "Transfers ownership of the contract to a new account (`newOwner`). Can only be called by the current owner."
      },
      "withdrawEth(uint256)": {
        "details": "Withdraw ETH Requirements: - msg.sender has to have equal or more ETH than the amount to withdraw"
      }
    },
    "version": 1
  },
  "userdoc": {
    "kind": "user",
    "methods": {},
    "version": 1
  }
}