{
  "contractName": "Dex",
  "abi": [
    {
      "anonymous": false,
      "inputs": [
        {
          "indexed": false,
          "internalType": "uint256",
          "name": "orderId",
          "type": "uint256"
        },
        {
          "indexed": true,
          "internalType": "uint256",
          "name": "tokenId",
          "type": "uint256"
        },
        {
          "indexed": true,
          "internalType": "address",
          "name": "trader1",
          "type": "address"
        },
        {
          "indexed": true,
          "internalType": "address",
          "name": "trader2",
          "type": "address"
        },
        {
          "indexed": false,
          "internalType": "uint256",
          "name": "amount",
          "type": "uint256"
        },
        {
          "indexed": false,
          "internalType": "uint256",
          "name": "price",
          "type": "uint256"
        },
        {
          "indexed": false,
          "internalType": "uint256",
          "name": "date",
          "type": "uint256"
        }
      ],
      "name": "NewTrade",
      "type": "event"
    },
    {
      "anonymous": false,
      "inputs": [
        {
          "indexed": true,
          "internalType": "address",
          "name": "previousOwner",
          "type": "address"
        },
        {
          "indexed": true,
          "internalType": "address",
          "name": "newOwner",
          "type": "address"
        }
      ],
      "name": "OwnershipTransferred",
      "type": "event"
    },
    {
      "anonymous": false,
      "inputs": [
        {
          "indexed": false,
          "internalType": "address",
          "name": "account",
          "type": "address"
        }
      ],
      "name": "Paused",
      "type": "event"
    },
    {
      "anonymous": false,
      "inputs": [
        {
          "indexed": false,
          "internalType": "address",
          "name": "account",
          "type": "address"
        }
      ],
      "name": "Unpaused",
      "type": "event"
    },
    {
      "inputs": [],
      "name": "owner",
      "outputs": [
        {
          "internalType": "address",
          "name": "",
          "type": "address"
        }
      ],
      "stateMutability": "view",
      "type": "function",
      "constant": true
    },
    {
      "inputs": [],
      "name": "paused",
      "outputs": [
        {
          "internalType": "bool",
          "name": "",
          "type": "bool"
        }
      ],
      "stateMutability": "view",
      "type": "function",
      "constant": true
    },
    {
      "inputs": [],
      "name": "renounceOwnership",
      "outputs": [],
      "stateMutability": "nonpayable",
      "type": "function"
    },
    {
      "inputs": [
        {
          "internalType": "address",
          "name": "newOwner",
          "type": "address"
        }
      ],
      "name": "transferOwnership",
      "outputs": [],
      "stateMutability": "nonpayable",
      "type": "function"
    },
    {
      "inputs": [],
      "name": "initialize",
      "outputs": [],
      "stateMutability": "nonpayable",
      "type": "function"
    },
    {
      "inputs": [
        {
          "internalType": "address",
          "name": "nftFractionsRepositoryAddress",
          "type": "address"
        }
      ],
      "name": "setNftFractionsRepository",
      "outputs": [],
      "stateMutability": "nonpayable",
      "type": "function"
    },
    {
      "inputs": [],
      "name": "depositEth",
      "outputs": [],
      "stateMutability": "payable",
      "type": "function",
      "payable": true
    },
    {
      "inputs": [
        {
          "internalType": "uint256",
          "name": "amount",
          "type": "uint256"
        }
      ],
      "name": "withdrawEth",
      "outputs": [],
      "stateMutability": "nonpayable",
      "type": "function"
    },
    {
      "inputs": [
        {
          "internalType": "address",
          "name": "owner",
          "type": "address"
        }
      ],
      "name": "getEthBalance",
      "outputs": [
        {
          "internalType": "uint256",
          "name": "",
          "type": "uint256"
        }
      ],
      "stateMutability": "view",
      "type": "function",
      "constant": true
    },
    {
      "inputs": [
        {
          "internalType": "address",
          "name": "owner",
          "type": "address"
        }
      ],
      "name": "getEthReserveBalance",
      "outputs": [
        {
          "internalType": "uint256",
          "name": "",
          "type": "uint256"
        }
      ],
      "stateMutability": "view",
      "type": "function",
      "constant": true
    },
    {
      "inputs": [],
      "name": "pause",
      "outputs": [],
      "stateMutability": "nonpayable",
      "type": "function"
    },
    {
      "inputs": [
        {
          "internalType": "uint256",
          "name": "tokenId",
          "type": "uint256"
        },
        {
          "internalType": "uint256",
          "name": "amount",
          "type": "uint256"
        },
        {
          "internalType": "uint256",
          "name": "price",
          "type": "uint256"
        },
        {
          "internalType": "enum Dex.Side",
          "name": "side",
          "type": "uint8"
        }
      ],
      "name": "createLimitOrder",
      "outputs": [],
      "stateMutability": "nonpayable",
      "type": "function"
    },
    {
      "inputs": [
        {
          "internalType": "uint256",
          "name": "tokenId",
          "type": "uint256"
        },
        {
          "internalType": "uint256",
          "name": "amount",
          "type": "uint256"
        },
        {
          "internalType": "enum Dex.Side",
          "name": "side",
          "type": "uint8"
        }
      ],
      "name": "createMarketOrder",
      "outputs": [],
      "stateMutability": "nonpayable",
      "type": "function"
    },
    {
      "inputs": [
        {
          "internalType": "uint256",
          "name": "tokenId",
          "type": "uint256"
        },
        {
          "internalType": "enum Dex.Side",
          "name": "side",
          "type": "uint8"
        }
      ],
      "name": "getOrders",
      "outputs": [
        {
          "components": [
            {
              "internalType": "uint256",
              "name": "id",
              "type": "uint256"
            },
            {
              "internalType": "address",
              "name": "trader",
              "type": "address"
            },
            {
              "internalType": "enum Dex.Side",
              "name": "side",
              "type": "uint8"
            },
            {
              "internalType": "uint256",
              "name": "tokenId",
              "type": "uint256"
            },
            {
              "internalType": "uint256",
              "name": "amount",
              "type": "uint256"
            },
            {
              "internalType": "uint256",
              "name": "filled",
              "type": "uint256"
            },
            {
              "internalType": "uint256",
              "name": "price",
              "type": "uint256"
            },
            {
              "internalType": "uint256",
              "name": "date",
              "type": "uint256"
            }
          ],
          "internalType": "struct Dex.Order[]",
          "name": "",
          "type": "tuple[]"
        }
      ],
      "stateMutability": "view",
      "type": "function",
      "constant": true
    },
    {
      "inputs": [
        {
          "internalType": "uint256",
          "name": "tokenId",
          "type": "uint256"
        },
        {
          "internalType": "enum Dex.Side",
          "name": "side",
          "type": "uint8"
        },
        {
          "internalType": "uint256",
          "name": "orderId",
          "type": "uint256"
        }
      ],
      "name": "deleteOrder",
      "outputs": [],
      "stateMutability": "nonpayable",
      "type": "function"
    }
  ],
  "bytecode": "0x608060405234801561001057600080fd5b5061426d806100206000396000f3fe6080604052600436106100e85760003560e01c80638129fc1c1161008a578063b141bd3911610059578063b141bd3914610287578063c311d049146102c4578063f2fde38b146102ed578063fbe2767414610316576100e8565b80638129fc1c146102055780638456cb591461021c5780638da5cb5b146102335780639c793bac1461025e576100e8565b80634d2301cc116100c65780634d2301cc1461015d57806354c0cde41461019a5780635c975abb146101c3578063715018a6146101ee576100e8565b80630bbf2085146100ed5780631f9af29c14610116578063439370b114610153575b600080fd5b3480156100f957600080fd5b50610114600480360381019061010f9190613761565b61033f565b005b34801561012257600080fd5b5061013d600480360381019061013891906135bd565b61114d565b60405161014a9190613f08565b60405180910390f35b61015b611196565b005b34801561016957600080fd5b50610184600480360381019061017f91906135bd565b611236565b6040516101919190613f08565b60405180910390f35b3480156101a657600080fd5b506101c160048036038101906101bc9190613712565b61127f565b005b3480156101cf57600080fd5b506101d8612435565b6040516101e59190613d8d565b60405180910390f35b3480156101fa57600080fd5b5061020361244c565b005b34801561021157600080fd5b5061021a612589565b005b34801561022857600080fd5b5061023161267a565b005b34801561023f57600080fd5b50610248612700565b6040516102559190613ccf565b60405180910390f35b34801561026a57600080fd5b50610285600480360381019061028091906136c3565b61272a565b005b34801561029357600080fd5b506102ae60048036038101906102a99190613687565b612b40565b6040516102bb9190613d6b565b60405180910390f35b3480156102d057600080fd5b506102eb60048036038101906102e69190613635565b612d16565b005b3480156102f957600080fd5b50610314600480360381019061030f91906135bd565b612eca565b005b34801561032257600080fd5b5061033d600480360381019061033891906135bd565b613076565b005b836000806000609b60009054906101000a900473ffffffffffffffffffffffffffffffffffffffff1673ffffffffffffffffffffffffffffffffffffffff1663b09afec1856040518263ffffffff1660e01b81526004016103a09190613f08565b60606040518083038186803b1580156103b857600080fd5b505afa1580156103cc573d6000803e3d6000fd5b505050506040513d601f19601f820116820180604052508101906103f091906135e6565b809350819450829550505050600073ffffffffffffffffffffffffffffffffffffffff168373ffffffffffffffffffffffffffffffffffffffff16141561046c576040517f08c379a000000000000000000000000000000000000000000000000000000000815260040161046390613ec8565b60405180910390fd5b610474612435565b156104b4576040517f08c379a00000000000000000000000000000000000000000000000000000000081526004016104ab90613ee8565b60405180910390fd5b6001808111156104ed577f4e487b7100000000000000000000000000000000000000000000000000000000600052602160045260246000fd5b856001811115610526577f4e487b7100000000000000000000000000000000000000000000000000000000600052602160045260246000fd5b1415610625576000609b60009054906101000a900473ffffffffffffffffffffffffffffffffffffffff1673ffffffffffffffffffffffffffffffffffffffff1662fdd58e338b6040518363ffffffff1660e01b815260040161058a929190613d42565b60206040518083038186803b1580156105a257600080fd5b505afa1580156105b6573d6000803e3d6000fd5b505050506040513d601f19601f820116820180604052508101906105da919061365e565b90508781101561061f576040517f08c379a000000000000000000000000000000000000000000000000000000000815260040161061690613e88565b60405180910390fd5b50610860565b6000806000609b60009054906101000a900473ffffffffffffffffffffffffffffffffffffffff1673ffffffffffffffffffffffffffffffffffffffff1663b09afec18c6040518263ffffffff1660e01b81526004016106859190613f08565b60606040518083038186803b15801561069d57600080fd5b505afa1580156106b1573d6000803e3d6000fd5b505050506040513d601f19601f820116820180604052508101906106d591906135e6565b80935081945082955050505089811015610724576040517f08c379a000000000000000000000000000000000000000000000000000000000815260040161071b90613ea8565b60405180910390fd5b888a6107309190614019565b609960003373ffffffffffffffffffffffffffffffffffffffff1673ffffffffffffffffffffffffffffffffffffffff16815260200190815260200160002054609860003373ffffffffffffffffffffffffffffffffffffffff1673ffffffffffffffffffffffffffffffffffffffff168152602001908152602001600020546107ba9190614073565b10156107fb576040517f08c379a00000000000000000000000000000000000000000000000000000000081526004016107f290613e08565b60405180910390fd5b888a6108079190614019565b609960003373ffffffffffffffffffffffffffffffffffffffff1673ffffffffffffffffffffffffffffffffffffffff16815260200190815260200160002060008282546108559190613fc3565b925050819055505050505b6000609a60008a815260200190815260200160002060008760018111156108b0577f4e487b7100000000000000000000000000000000000000000000000000000000600052602160045260246000fd5b815260200190815260200160002090506108ca6097613136565b60006108d6609761314c565b9050816040518061010001604052808381526020013373ffffffffffffffffffffffffffffffffffffffff168152602001896001811115610940577f4e487b7100000000000000000000000000000000000000000000000000000000600052602160045260246000fd5b81526020018c81526020018b8152602001600081526020018a81526020014281525090806001815401808255809150506001900390600052602060002090600702016000909190919091506000820151816000015560208201518160010160006101000a81548173ffffffffffffffffffffffffffffffffffffffff021916908373ffffffffffffffffffffffffffffffffffffffff16021790555060408201518160010160146101000a81548160ff02191690836001811115610a2d577f4e487b7100000000000000000000000000000000000000000000000000000000600052602160045260246000fd5b0217905550606082015181600201556080820151816003015560a0820151816004015560c0820151816005015560e082015181600601555050600080838054905011610a7a576000610a8c565b60018380549050610a8b9190614073565b5b90505b60008111156111405760006001811115610ad2577f4e487b7100000000000000000000000000000000000000000000000000000000600052602160045260246000fd5b886001811115610b0b577f4e487b7100000000000000000000000000000000000000000000000000000000600052602160045260246000fd5b148015610bb75750828181548110610b4c577f4e487b7100000000000000000000000000000000000000000000000000000000600052603260045260246000fd5b90600052602060002090600702016005015483600183610b6c9190614073565b81548110610ba3577f4e487b7100000000000000000000000000000000000000000000000000000000600052603260045260246000fd5b906000526020600020906007020160050154115b15610bc157611140565b600180811115610bfa577f4e487b7100000000000000000000000000000000000000000000000000000000600052602160045260246000fd5b886001811115610c33577f4e487b7100000000000000000000000000000000000000000000000000000000600052602160045260246000fd5b148015610cdf5750828181548110610c74577f4e487b7100000000000000000000000000000000000000000000000000000000600052603260045260246000fd5b90600052602060002090600702016005015483600183610c949190614073565b81548110610ccb577f4e487b7100000000000000000000000000000000000000000000000000000000600052603260045260246000fd5b906000526020600020906007020160050154105b15610ce957611140565b600083600183610cf99190614073565b81548110610d30577f4e487b7100000000000000000000000000000000000000000000000000000000600052603260045260246000fd5b906000526020600020906007020160405180610100016040529081600082015481526020016001820160009054906101000a900473ffffffffffffffffffffffffffffffffffffffff1673ffffffffffffffffffffffffffffffffffffffff1673ffffffffffffffffffffffffffffffffffffffff1681526020016001820160149054906101000a900460ff166001811115610df5577f4e487b7100000000000000000000000000000000000000000000000000000000600052602160045260246000fd5b6001811115610e2d577f4e487b7100000000000000000000000000000000000000000000000000000000600052602160045260246000fd5b8152602001600282015481526020016003820154815260200160048201548152602001600582015481526020016006820154815250509050838281548110610e9e577f4e487b7100000000000000000000000000000000000000000000000000000000600052603260045260246000fd5b906000526020600020906007020184600184610eba9190614073565b81548110610ef1577f4e487b7100000000000000000000000000000000000000000000000000000000600052603260045260246000fd5b9060005260206000209060070201600082015481600001556001820160009054906101000a900473ffffffffffffffffffffffffffffffffffffffff168160010160006101000a81548173ffffffffffffffffffffffffffffffffffffffff021916908373ffffffffffffffffffffffffffffffffffffffff1602179055506001820160149054906101000a900460ff168160010160146101000a81548160ff02191690836001811115610fce577f4e487b7100000000000000000000000000000000000000000000000000000000600052602160045260246000fd5b0217905550600282015481600201556003820154816003015560048201548160040155600582015481600501556006820154816006015590505080848381548110611042577f4e487b7100000000000000000000000000000000000000000000000000000000600052603260045260246000fd5b90600052602060002090600702016000820151816000015560208201518160010160006101000a81548173ffffffffffffffffffffffffffffffffffffffff021916908373ffffffffffffffffffffffffffffffffffffffff16021790555060408201518160010160146101000a81548160ff021916908360018111156110f2577f4e487b7100000000000000000000000000000000000000000000000000000000600052602160045260246000fd5b0217905550606082015181600201556080820151816003015560a0820151816004015560c0820151816005015560e08201518160060155905050818061113790614114565b92505050610a8f565b5050505050505050505050565b6000609960008373ffffffffffffffffffffffffffffffffffffffff1673ffffffffffffffffffffffffffffffffffffffff168152602001908152602001600020549050919050565b61119e612435565b156111de576040517f08c379a00000000000000000000000000000000000000000000000000000000081526004016111d590613ee8565b60405180910390fd5b34609860003373ffffffffffffffffffffffffffffffffffffffff1673ffffffffffffffffffffffffffffffffffffffff168152602001908152602001600020600082825461122d9190613fc3565b92505081905550565b6000609860008373ffffffffffffffffffffffffffffffffffffffff1673ffffffffffffffffffffffffffffffffffffffff168152602001908152602001600020549050919050565b826000806000609b60009054906101000a900473ffffffffffffffffffffffffffffffffffffffff1673ffffffffffffffffffffffffffffffffffffffff1663b09afec1856040518263ffffffff1660e01b81526004016112e09190613f08565b60606040518083038186803b1580156112f857600080fd5b505afa15801561130c573d6000803e3d6000fd5b505050506040513d601f19601f8201168201806040525081019061133091906135e6565b809350819450829550505050600073ffffffffffffffffffffffffffffffffffffffff168373ffffffffffffffffffffffffffffffffffffffff1614156113ac576040517f08c379a00000000000000000000000000000000000000000000000000000000081526004016113a390613ec8565b60405180910390fd5b6113b4612435565b156113f4576040517f08c379a00000000000000000000000000000000000000000000000000000000081526004016113eb90613ee8565b60405180910390fd5b60018081111561142d577f4e487b7100000000000000000000000000000000000000000000000000000000600052602160045260246000fd5b856001811115611466577f4e487b7100000000000000000000000000000000000000000000000000000000600052602160045260246000fd5b1415611561576000609b60009054906101000a900473ffffffffffffffffffffffffffffffffffffffff1673ffffffffffffffffffffffffffffffffffffffff1662fdd58e338a6040518363ffffffff1660e01b81526004016114ca929190613d42565b60206040518083038186803b1580156114e257600080fd5b505afa1580156114f6573d6000803e3d6000fd5b505050506040513d601f19601f8201168201806040525081019061151a919061365e565b90508681101561155f576040517f08c379a000000000000000000000000000000000000000000000000000000000815260040161155690613e88565b60405180910390fd5b505b6000609a600089815260200190815260200160002060008060018111156115b1577f4e487b7100000000000000000000000000000000000000000000000000000000600052602160045260246000fd5b8860018111156115ea577f4e487b7100000000000000000000000000000000000000000000000000000000600052602160045260246000fd5b146115f65760006115f9565b60015b6001811115611631577f4e487b7100000000000000000000000000000000000000000000000000000000600052602160045260246000fd5b815260200190815260200160002090506000808890505b82805490508210801561165b5750600081115b156120d657600083838154811061169b577f4e487b7100000000000000000000000000000000000000000000000000000000600052603260045260246000fd5b9060005260206000209060070201600401548484815481106116e6577f4e487b7100000000000000000000000000000000000000000000000000000000600052603260045260246000fd5b9060005260206000209060070201600301546117029190614073565b905060008183116117135782611715565b815b905080836117239190614073565b92508085858154811061175f577f4e487b7100000000000000000000000000000000000000000000000000000000600052603260045260246000fd5b90600052602060002090600702016004015461177b9190613fc3565b8585815481106117b4577f4e487b7100000000000000000000000000000000000000000000000000000000600052603260045260246000fd5b9060005260206000209060070201600401819055503373ffffffffffffffffffffffffffffffffffffffff16858581548110611819577f4e487b7100000000000000000000000000000000000000000000000000000000600052603260045260246000fd5b906000526020600020906007020160010160009054906101000a900473ffffffffffffffffffffffffffffffffffffffff1673ffffffffffffffffffffffffffffffffffffffff168d7f9978fdb3a211975622b71134cdca10c08d124f7251547ffa8fc72880f7e749928888815481106118bc577f4e487b7100000000000000000000000000000000000000000000000000000000600052603260045260246000fd5b906000526020600020906007020160000154858a8a81548110611908577f4e487b7100000000000000000000000000000000000000000000000000000000600052603260045260246000fd5b9060005260206000209060070201600501544260405161192b9493929190613f23565b60405180910390a460018081111561196c577f4e487b7100000000000000000000000000000000000000000000000000000000600052602160045260246000fd5b8a60018111156119a5577f4e487b7100000000000000000000000000000000000000000000000000000000600052602160045260246000fd5b1415611c6957609b60009054906101000a900473ffffffffffffffffffffffffffffffffffffffff1673ffffffffffffffffffffffffffffffffffffffff1663605105f033878781548110611a23577f4e487b7100000000000000000000000000000000000000000000000000000000600052603260045260246000fd5b906000526020600020906007020160010160009054906101000a900473ffffffffffffffffffffffffffffffffffffffff168f856040518563ffffffff1660e01b8152600401611a769493929190613cea565b600060405180830381600087803b158015611a9057600080fd5b505af1158015611aa4573d6000803e3d6000fd5b5050505080858581548110611ae2577f4e487b7100000000000000000000000000000000000000000000000000000000600052603260045260246000fd5b906000526020600020906007020160050154611afe9190614019565b609860003373ffffffffffffffffffffffffffffffffffffffff1673ffffffffffffffffffffffffffffffffffffffff1681526020019081526020016000206000828254611b4c9190613fc3565b9250508190555080858581548110611b8d577f4e487b7100000000000000000000000000000000000000000000000000000000600052603260045260246000fd5b906000526020600020906007020160050154611ba99190614019565b60986000878781548110611be6577f4e487b7100000000000000000000000000000000000000000000000000000000600052603260045260246000fd5b906000526020600020906007020160010160009054906101000a900473ffffffffffffffffffffffffffffffffffffffff1673ffffffffffffffffffffffffffffffffffffffff1673ffffffffffffffffffffffffffffffffffffffff1681526020019081526020016000206000828254611c619190614073565b925050819055505b60006001811115611ca3577f4e487b7100000000000000000000000000000000000000000000000000000000600052602160045260246000fd5b8a6001811115611cdc577f4e487b7100000000000000000000000000000000000000000000000000000000600052602160045260246000fd5b14156120c15780858581548110611d1c577f4e487b7100000000000000000000000000000000000000000000000000000000600052603260045260246000fd5b906000526020600020906007020160050154611d389190614019565b609960003373ffffffffffffffffffffffffffffffffffffffff1673ffffffffffffffffffffffffffffffffffffffff16815260200190815260200160002054609860003373ffffffffffffffffffffffffffffffffffffffff1673ffffffffffffffffffffffffffffffffffffffff16815260200190815260200160002054611dc29190614073565b1015611e03576040517f08c379a0000000000000000000000000000000000000000000000000000000008152600401611dfa90613e08565b60405180910390fd5b609b60009054906101000a900473ffffffffffffffffffffffffffffffffffffffff1673ffffffffffffffffffffffffffffffffffffffff1663605105f0868681548110611e7a577f4e487b7100000000000000000000000000000000000000000000000000000000600052603260045260246000fd5b906000526020600020906007020160010160009054906101000a900473ffffffffffffffffffffffffffffffffffffffff16338f856040518563ffffffff1660e01b8152600401611ece9493929190613cea565b600060405180830381600087803b158015611ee857600080fd5b505af1158015611efc573d6000803e3d6000fd5b5050505080858581548110611f3a577f4e487b7100000000000000000000000000000000000000000000000000000000600052603260045260246000fd5b906000526020600020906007020160050154611f569190614019565b609860003373ffffffffffffffffffffffffffffffffffffffff1673ffffffffffffffffffffffffffffffffffffffff1681526020019081526020016000206000828254611fa49190614073565b9250508190555080858581548110611fe5577f4e487b7100000000000000000000000000000000000000000000000000000000600052603260045260246000fd5b9060005260206000209060070201600501546120019190614019565b6098600087878154811061203e577f4e487b7100000000000000000000000000000000000000000000000000000000600052603260045260246000fd5b906000526020600020906007020160010160009054906101000a900473ffffffffffffffffffffffffffffffffffffffff1673ffffffffffffffffffffffffffffffffffffffff1673ffffffffffffffffffffffffffffffffffffffff16815260200190815260200160002060008282546120b99190613fc3565b925050819055505b83806120cc9061413e565b9450505050611648565b600091505b8280549050821080156121815750828281548110612122577f4e487b7100000000000000000000000000000000000000000000000000000000600052603260045260246000fd5b90600052602060002090600702016003015483838154811061216d577f4e487b7100000000000000000000000000000000000000000000000000000000600052603260045260246000fd5b906000526020600020906007020160040154145b156124295760008290505b6001848054905061219d9190614073565b81101561235a57836001826121b29190613fc3565b815481106121e9577f4e487b7100000000000000000000000000000000000000000000000000000000600052603260045260246000fd5b9060005260206000209060070201848281548110612230577f4e487b7100000000000000000000000000000000000000000000000000000000600052603260045260246000fd5b9060005260206000209060070201600082015481600001556001820160009054906101000a900473ffffffffffffffffffffffffffffffffffffffff168160010160006101000a81548173ffffffffffffffffffffffffffffffffffffffff021916908373ffffffffffffffffffffffffffffffffffffffff1602179055506001820160149054906101000a900460ff168160010160146101000a81548160ff0219169083600181111561230d577f4e487b7100000000000000000000000000000000000000000000000000000000600052602160045260246000fd5b0217905550600282015481600201556003820154816003015560048201548160040155600582015481600501556006820154816006015590505080806123529061413e565b91505061218c565b5082805480612392577f4e487b7100000000000000000000000000000000000000000000000000000000600052603160045260246000fd5b60019003818190600052602060002090600702016000808201600090556001820160006101000a81549073ffffffffffffffffffffffffffffffffffffffff02191690556001820160146101000a81549060ff0219169055600282016000905560038201600090556004820160009055600582016000905560068201600090555050905581806124219061413e565b9250506120db565b50505050505050505050565b6000603360009054906101000a900460ff16905090565b61245461315a565b73ffffffffffffffffffffffffffffffffffffffff16612472612700565b73ffffffffffffffffffffffffffffffffffffffff16146124c8576040517f08c379a00000000000000000000000000000000000000000000000000000000081526004016124bf90613e28565b60405180910390fd5b600073ffffffffffffffffffffffffffffffffffffffff16606560009054906101000a900473ffffffffffffffffffffffffffffffffffffffff1673ffffffffffffffffffffffffffffffffffffffff167f8be0079c531659141344cd1fd0a4f28419497f9722a3daafe3b4186f6b6457e060405160405180910390a36000606560006101000a81548173ffffffffffffffffffffffffffffffffffffffff021916908373ffffffffffffffffffffffffffffffffffffffff160217905550565b600060019054906101000a900460ff16806125af575060008054906101000a900460ff16155b6125ee576040517f08c379a00000000000000000000000000000000000000000000000000000000081526004016125e590613de8565b60405180910390fd5b60008060019054906101000a900460ff16159050801561263e576001600060016101000a81548160ff02191690831515021790555060016000806101000a81548160ff0219169083151502179055505b612646613162565b61264e61323b565b61265661332f565b80156126775760008060016101000a81548160ff0219169083151502179055505b50565b61268261315a565b73ffffffffffffffffffffffffffffffffffffffff166126a0612700565b73ffffffffffffffffffffffffffffffffffffffff16146126f6576040517f08c379a00000000000000000000000000000000000000000000000000000000081526004016126ed90613e28565b60405180910390fd5b6126fe6134b1565b565b6000606560009054906101000a900473ffffffffffffffffffffffffffffffffffffffff16905090565b6000609a6000858152602001908152602001600020600084600181111561277a577f4e487b7100000000000000000000000000000000000000000000000000000000600052602160045260246000fd5b8152602001908152602001600020905060005b8180549050811015612b3957828282815481106127d3577f4e487b7100000000000000000000000000000000000000000000000000000000600052603260045260246000fd5b9060005260206000209060070201600001541415612b2657818181548110612824577f4e487b7100000000000000000000000000000000000000000000000000000000600052603260045260246000fd5b906000526020600020906007020160010160009054906101000a900473ffffffffffffffffffffffffffffffffffffffff1673ffffffffffffffffffffffffffffffffffffffff163373ffffffffffffffffffffffffffffffffffffffff16146128c3576040517f08c379a00000000000000000000000000000000000000000000000000000000081526004016128ba90613e68565b60405180910390fd5b81600183805490506128d59190614073565b8154811061290c577f4e487b7100000000000000000000000000000000000000000000000000000000600052603260045260246000fd5b9060005260206000209060070201828281548110612953577f4e487b7100000000000000000000000000000000000000000000000000000000600052603260045260246000fd5b9060005260206000209060070201600082015481600001556001820160009054906101000a900473ffffffffffffffffffffffffffffffffffffffff168160010160006101000a81548173ffffffffffffffffffffffffffffffffffffffff021916908373ffffffffffffffffffffffffffffffffffffffff1602179055506001820160149054906101000a900460ff168160010160146101000a81548160ff02191690836001811115612a30577f4e487b7100000000000000000000000000000000000000000000000000000000600052602160045260246000fd5b0217905550600282015481600201556003820154816003015560048201548160040155600582015481600501556006820154816006015590505081805480612aa1577f4e487b7100000000000000000000000000000000000000000000000000000000600052603160045260246000fd5b60019003818190600052602060002090600702016000808201600090556001820160006101000a81549073ffffffffffffffffffffffffffffffffffffffff02191690556001820160146101000a81549060ff021916905560028201600090556003820160009055600482016000905560058201600090556006820160009055505090555b8080612b319061413e565b91505061278d565b5050505050565b6060609a60008481526020019081526020016000206000836001811115612b90577f4e487b7100000000000000000000000000000000000000000000000000000000600052602160045260246000fd5b8152602001908152602001600020805480602002602001604051908101604052809291908181526020016000905b82821015612d0a578382906000526020600020906007020160405180610100016040529081600082015481526020016001820160009054906101000a900473ffffffffffffffffffffffffffffffffffffffff1673ffffffffffffffffffffffffffffffffffffffff1673ffffffffffffffffffffffffffffffffffffffff1681526020016001820160149054906101000a900460ff166001811115612c8d577f4e487b7100000000000000000000000000000000000000000000000000000000600052602160045260246000fd5b6001811115612cc5577f4e487b7100000000000000000000000000000000000000000000000000000000600052602160045260246000fd5b81526020016002820154815260200160038201548152602001600482015481526020016005820154815260200160068201548152505081526020019060010190612bbe565b50505050905092915050565b612d1e612435565b15612d5e576040517f08c379a0000000000000000000000000000000000000000000000000000000008152600401612d5590613ee8565b60405180910390fd5b80609960003373ffffffffffffffffffffffffffffffffffffffff1673ffffffffffffffffffffffffffffffffffffffff16815260200190815260200160002054609860003373ffffffffffffffffffffffffffffffffffffffff1673ffffffffffffffffffffffffffffffffffffffff16815260200190815260200160002054612de99190614073565b1015612e2a576040517f08c379a0000000000000000000000000000000000000000000000000000000008152600401612e2190613e48565b60405180910390fd5b80609860003373ffffffffffffffffffffffffffffffffffffffff1673ffffffffffffffffffffffffffffffffffffffff1681526020019081526020016000206000828254612e799190614073565b925050819055503373ffffffffffffffffffffffffffffffffffffffff166108fc829081150290604051600060405180830381858888f19350505050158015612ec6573d6000803e3d6000fd5b5050565b612ed261315a565b73ffffffffffffffffffffffffffffffffffffffff16612ef0612700565b73ffffffffffffffffffffffffffffffffffffffff1614612f46576040517f08c379a0000000000000000000000000000000000000000000000000000000008152600401612f3d90613e28565b60405180910390fd5b600073ffffffffffffffffffffffffffffffffffffffff168173ffffffffffffffffffffffffffffffffffffffff161415612fb6576040517f08c379a0000000000000000000000000000000000000000000000000000000008152600401612fad90613da8565b60405180910390fd5b8073ffffffffffffffffffffffffffffffffffffffff16606560009054906101000a900473ffffffffffffffffffffffffffffffffffffffff1673ffffffffffffffffffffffffffffffffffffffff167f8be0079c531659141344cd1fd0a4f28419497f9722a3daafe3b4186f6b6457e060405160405180910390a380606560006101000a81548173ffffffffffffffffffffffffffffffffffffffff021916908373ffffffffffffffffffffffffffffffffffffffff16021790555050565b61307e61315a565b73ffffffffffffffffffffffffffffffffffffffff1661309c612700565b73ffffffffffffffffffffffffffffffffffffffff16146130f2576040517f08c379a00000000000000000000000000000000000000000000000000000000081526004016130e990613e28565b60405180910390fd5b80609b60006101000a81548173ffffffffffffffffffffffffffffffffffffffff021916908373ffffffffffffffffffffffffffffffffffffffff16021790555050565b6001816000016000828254019250508190555050565b600081600001549050919050565b600033905090565b600060019054906101000a900460ff1680613188575060008054906101000a900460ff16155b6131c7576040517f08c379a00000000000000000000000000000000000000000000000000000000081526004016131be90613de8565b60405180910390fd5b60008060019054906101000a900460ff161590508015613217576001600060016101000a81548160ff02191690831515021790555060016000806101000a81548160ff0219169083151502179055505b80156132385760008060016101000a81548160ff0219169083151502179055505b50565b600060019054906101000a900460ff1680613261575060008054906101000a900460ff16155b6132a0576040517f08c379a000000000000000000000000000000000000000000000000000000000815260040161329790613de8565b60405180910390fd5b60008060019054906101000a900460ff1615905080156132f0576001600060016101000a81548160ff02191690831515021790555060016000806101000a81548160ff0219169083151502179055505b6000603360006101000a81548160ff021916908315150217905550801561332c5760008060016101000a81548160ff0219169083151502179055505b50565b600060019054906101000a900460ff1680613355575060008054906101000a900460ff16155b613394576040517f08c379a000000000000000000000000000000000000000000000000000000000815260040161338b90613de8565b60405180910390fd5b60008060019054906101000a900460ff1615905080156133e4576001600060016101000a81548160ff02191690831515021790555060016000806101000a81548160ff0219169083151502179055505b60006133ee61315a565b905080606560006101000a81548173ffffffffffffffffffffffffffffffffffffffff021916908373ffffffffffffffffffffffffffffffffffffffff1602179055508073ffffffffffffffffffffffffffffffffffffffff16600073ffffffffffffffffffffffffffffffffffffffff167f8be0079c531659141344cd1fd0a4f28419497f9722a3daafe3b4186f6b6457e060405160405180910390a35080156134ae5760008060016101000a81548160ff0219169083151502179055505b50565b6134b9612435565b156134f9576040517f08c379a00000000000000000000000000000000000000000000000000000000081526004016134f090613dc8565b60405180910390fd5b6001603360006101000a81548160ff0219169083151502179055507f62e78cea01bee320cd4e420270b5ea74000d11b0c9f74754ebdbfc544b05a25861353d61315a565b60405161354a9190613ccf565b60405180910390a1565b600081359050613563816141f9565b92915050565b600081519050613578816141f9565b92915050565b60008135905061358d81614210565b92915050565b6000813590506135a281614220565b92915050565b6000815190506135b781614220565b92915050565b6000602082840312156135cf57600080fd5b60006135dd84828501613554565b91505092915050565b6000806000606084860312156135fb57600080fd5b600061360986828701613569565b935050602061361a868287016135a8565b925050604061362b868287016135a8565b9150509250925092565b60006020828403121561364757600080fd5b600061365584828501613593565b91505092915050565b60006020828403121561367057600080fd5b600061367e848285016135a8565b91505092915050565b6000806040838503121561369a57600080fd5b60006136a885828601613593565b92505060206136b98582860161357e565b9150509250929050565b6000806000606084860312156136d857600080fd5b60006136e686828701613593565b93505060206136f78682870161357e565b925050604061370886828701613593565b9150509250925092565b60008060006060848603121561372757600080fd5b600061373586828701613593565b935050602061374686828701613593565b92505060406137578682870161357e565b9150509250925092565b6000806000806080858703121561377757600080fd5b600061378587828801613593565b945050602061379687828801613593565b93505060406137a787828801613593565b92505060606137b88782880161357e565b91505092959194509250565b60006137d08383613c0f565b6101008301905092915050565b6137e6816140a7565b82525050565b6137f5816140a7565b82525050565b600061380682613f78565b6138108185613f90565b935061381b83613f68565b8060005b8381101561384c57815161383388826137c4565b975061383e83613f83565b92505060018101905061381f565b5085935050505092915050565b613862816140b9565b82525050565b61387181614102565b82525050565b6000613884602683613fb2565b91507f4f776e61626c653a206e6577206f776e657220697320746865207a65726f206160008301527f64647265737300000000000000000000000000000000000000000000000000006020830152604082019050919050565b60006138ea601083613fb2565b91507f5061757361626c653a20706175736564000000000000000000000000000000006000830152602082019050919050565b600061392a602e83613fb2565b91507f496e697469616c697a61626c653a20636f6e747261637420697320616c72656160008301527f647920696e697469616c697a65640000000000000000000000000000000000006020830152604082019050919050565b6000613990601383613fb2565b91507f6574682062616c616e636520746f6f206c6f77000000000000000000000000006000830152602082019050919050565b60006139d0602083613fb2565b91507f4f776e61626c653a2063616c6c6572206973206e6f7420746865206f776e65726000830152602082019050919050565b6000613a10601983613fb2565b91507f4554482062616c616e6365206973206e6f7420656e6f756768000000000000006000830152602082019050919050565b6000613a50602483613fb2565b91507f4f6e6c7920746865207472616465722063616e2064656c65746520686973206f60008301527f72646572000000000000000000000000000000000000000000000000000000006020830152604082019050919050565b6000613ab6600083613fa1565b9150600082019050919050565b6000613ad0602983613fb2565b91507f6d6573736167652073656e646572277320746f6b656e2062616c616e6365206960008301527f7320746f6f206c6f7700000000000000000000000000000000000000000000006020830152604082019050919050565b6000613b36603883613fb2565b91507f746f74616c20616d6f756e74206f66206672616374696f6e73206973206c6f7760008301527f6572207468616e2074686520676976656e20616d6f756e7400000000000000006020830152604082019050919050565b6000613b9c601983613fb2565b91507f7468697320746f6b656e20646f6573206e6f74206578697374000000000000006000830152602082019050919050565b6000613bdc601883613fb2565b91507f4e6f7420616c6c6f776564207768696c652070617573656400000000000000006000830152602082019050919050565b61010082016000820151613c266000850182613cb1565b506020820151613c3960208501826137dd565b506040820151613c4c6040850182613868565b506060820151613c5f6060850182613cb1565b506080820151613c726080850182613cb1565b5060a0820151613c8560a0850182613cb1565b5060c0820151613c9860c0850182613cb1565b5060e0820151613cab60e0850182613cb1565b50505050565b613cba816140f8565b82525050565b613cc9816140f8565b82525050565b6000602082019050613ce460008301846137ec565b92915050565b600060a082019050613cff60008301876137ec565b613d0c60208301866137ec565b613d196040830185613cc0565b613d266060830184613cc0565b8181036080830152613d3781613aa9565b905095945050505050565b6000604082019050613d5760008301856137ec565b613d646020830184613cc0565b9392505050565b60006020820190508181036000830152613d8581846137fb565b905092915050565b6000602082019050613da26000830184613859565b92915050565b60006020820190508181036000830152613dc181613877565b9050919050565b60006020820190508181036000830152613de1816138dd565b9050919050565b60006020820190508181036000830152613e018161391d565b9050919050565b60006020820190508181036000830152613e2181613983565b9050919050565b60006020820190508181036000830152613e41816139c3565b9050919050565b60006020820190508181036000830152613e6181613a03565b9050919050565b60006020820190508181036000830152613e8181613a43565b9050919050565b60006020820190508181036000830152613ea181613ac3565b9050919050565b60006020820190508181036000830152613ec181613b29565b9050919050565b60006020820190508181036000830152613ee181613b8f565b9050919050565b60006020820190508181036000830152613f0181613bcf565b9050919050565b6000602082019050613f1d6000830184613cc0565b92915050565b6000608082019050613f386000830187613cc0565b613f456020830186613cc0565b613f526040830185613cc0565b613f5f6060830184613cc0565b95945050505050565b6000819050602082019050919050565b600081519050919050565b6000602082019050919050565b600082825260208201905092915050565b600082825260208201905092915050565b600082825260208201905092915050565b6000613fce826140f8565b9150613fd9836140f8565b9250827fffffffffffffffffffffffffffffffffffffffffffffffffffffffffffffffff0382111561400e5761400d614187565b5b828201905092915050565b6000614024826140f8565b915061402f836140f8565b9250817fffffffffffffffffffffffffffffffffffffffffffffffffffffffffffffffff048311821515161561406857614067614187565b5b828202905092915050565b600061407e826140f8565b9150614089836140f8565b92508282101561409c5761409b614187565b5b828203905092915050565b60006140b2826140d8565b9050919050565b60008115159050919050565b60008190506140d3826141e5565b919050565b600073ffffffffffffffffffffffffffffffffffffffff82169050919050565b6000819050919050565b600061410d826140c5565b9050919050565b600061411f826140f8565b9150600082141561413357614132614187565b5b600182039050919050565b6000614149826140f8565b91507fffffffffffffffffffffffffffffffffffffffffffffffffffffffffffffffff82141561417c5761417b614187565b5b600182019050919050565b7f4e487b7100000000000000000000000000000000000000000000000000000000600052601160045260246000fd5b7f4e487b7100000000000000000000000000000000000000000000000000000000600052602160045260246000fd5b600281106141f6576141f56141b6565b5b50565b614202816140a7565b811461420d57600080fd5b50565b6002811061421d57600080fd5b50565b614229816140f8565b811461423457600080fd5b5056fea264697066735822122039a25569cfd81705971f086e8c742d7d229fed1997913faab3a9ffecdf6e518e64736f6c63430008000033",
  "immutableReferences": {},
  "source": "// SPDX-License-Identifier: MIT\n\npragma solidity ^0.8.0;\n\nimport \"@openzeppelin/contracts-upgradeable/security/PausableUpgradeable.sol\";\nimport \"@openzeppelin/contracts-upgradeable/proxy/utils/Initializable.sol\";\nimport \"@openzeppelin/contracts-upgradeable/utils/CountersUpgradeable.sol\";\nimport \"@openzeppelin/contracts-upgradeable/access/OwnableUpgradeable.sol\";\nimport \"./NftFractionsRepository.sol\";\n\ncontract Dex is Initializable, PausableUpgradeable, OwnableUpgradeable {\n    using CountersUpgradeable for CountersUpgradeable.Counter;\n\n    enum Side {BUY, SELL}\n\n    struct Order {\n        uint256 id;\n        address trader;\n        Side side;\n        uint256 tokenId;\n        uint256 amount;\n        uint256 filled;\n        uint256 price;\n        uint256 date;\n    }\n\n    event NewTrade(\n        uint256 orderId,\n        uint256 indexed tokenId,\n        address indexed trader1,\n        address indexed trader2,\n        uint256 amount,\n        uint256 price,\n        uint256 date\n    );\n\n    CountersUpgradeable.Counter private _orderIds;\n    mapping(address => uint256) ethBalance;\n    mapping(address => uint256) ethReservedBalance;\n    mapping(uint256 => mapping(uint256 => Order[])) orderBook;\n    NftFractionsRepository nftFractionsRepository;\n\n    function initialize() public initializer {\n        __Context_init_unchained();\n        __Pausable_init_unchained();\n        __Ownable_init_unchained();\n    }\n\n    function setNftFractionsRepository(address nftFractionsRepositoryAddress)\n        public\n        onlyOwner()\n    {\n        nftFractionsRepository = NftFractionsRepository(\n            nftFractionsRepositoryAddress\n        );\n    }\n\n    /**\n     * @dev deposit ETH for trading\n     */\n    function depositEth() public payable {\n        require(!paused(), \"Not allowed while paused\");\n        ethBalance[msg.sender] += msg.value;\n    }\n\n    /**\n     * @dev Withdraw ETH\n     *\n     * Requirements:\n     * - msg.sender has to have equal or more ETH than the amount to withdraw\n     */\n    function withdrawEth(uint256 amount) public {\n        require(!paused(), \"Not allowed while paused\");\n        require(\n            ethBalance[msg.sender] - ethReservedBalance[msg.sender] >= amount,\n            \"ETH balance is not enough\"\n        );\n        ethBalance[msg.sender] -= amount;\n        payable(msg.sender).transfer(amount);\n    }\n\n    /**\n     * @dev returns the ETH balance of the owner\n     */\n    function getEthBalance(address owner) public view returns (uint256) {\n        return ethBalance[owner];\n    }\n\n    /**\n     * @dev returns the ETH reserved balance of the owner\n     */\n    function getEthReserveBalance(address owner) public view returns (uint256) {\n        return ethReservedBalance[owner];\n    }\n\n    function pause() public onlyOwner() {\n        _pause();\n    }\n\n    function createLimitOrder(\n        uint256 tokenId,\n        uint256 amount,\n        uint256 price,\n        Side side\n    ) external tokenExist(tokenId) {\n        require(!paused(), \"Not allowed while paused\");\n        if (side == Side.SELL) {\n            uint256 sendersBalance =\n                nftFractionsRepository.balanceOf(msg.sender, tokenId);\n            require(\n                sendersBalance >= amount,\n                \"message sender's token balance is too low\"\n            );\n        } else {\n            address erc721ContractAddress;\n            uint256 erc721TokenId;\n            uint256 totalFractionsAmount;\n            (\n                erc721ContractAddress,\n                erc721TokenId,\n                totalFractionsAmount\n            ) = nftFractionsRepository.getTokenData(tokenId);\n            require(\n                totalFractionsAmount >= amount,\n                \"total amount of fractions is lower than the given amount\"\n            );\n            require(\n                ethBalance[msg.sender] - ethReservedBalance[msg.sender] >=\n                    amount * price,\n                \"eth balance too low\"\n            );\n            ethReservedBalance[msg.sender] += amount * price;\n        }\n        Order[] storage orders = orderBook[tokenId][uint256(side)];\n        _orderIds.increment();\n        uint256 newOrderId = _orderIds.current();\n        orders.push(\n            Order(\n                newOrderId,\n                msg.sender,\n                side,\n                tokenId,\n                amount,\n                0,\n                price,\n                block.timestamp\n            )\n        );\n\n        uint256 i = orders.length > 0 ? orders.length - 1 : 0;\n        while (i > 0) {\n            if (side == Side.BUY && orders[i - 1].price > orders[i].price) {\n                break;\n            }\n            if (side == Side.SELL && orders[i - 1].price < orders[i].price) {\n                break;\n            }\n            Order memory order = orders[i - 1];\n            orders[i - 1] = orders[i];\n            orders[i] = order;\n            i--;\n        }\n    }\n\n    function createMarketOrder(\n        uint256 tokenId,\n        uint256 amount,\n        Side side\n    ) external tokenExist(tokenId) {\n        require(!paused(), \"Not allowed while paused\");\n        if (side == Side.SELL) {\n            uint256 sendersBalance =\n                nftFractionsRepository.balanceOf(msg.sender, tokenId);\n            require(\n                sendersBalance >= amount,\n                \"message sender's token balance is too low\"\n            );\n        }\n        Order[] storage orders =\n            orderBook[tokenId][\n                uint256(side == Side.BUY ? Side.SELL : Side.BUY)\n            ];\n        uint256 i;\n        uint256 remaining = amount;\n\n        while (i < orders.length && remaining > 0) {\n            uint256 available = orders[i].amount - orders[i].filled;\n            uint256 matched = (remaining > available) ? available : remaining;\n            remaining = remaining - matched;\n            orders[i].filled = orders[i].filled + matched;\n            emit NewTrade(\n                orders[i].id,\n                tokenId,\n                orders[i].trader,\n                msg.sender,\n                matched,\n                orders[i].price,\n                block.timestamp\n            );\n            if (side == Side.SELL) {\n                nftFractionsRepository.transferFrom(\n                    msg.sender,\n                    orders[i].trader,\n                    tokenId,\n                    matched,\n                    \"\"\n                );\n                ethBalance[msg.sender] += orders[i].price * matched;\n                ethBalance[orders[i].trader] -= orders[i].price * matched;\n            }\n            if (side == Side.BUY) {\n                require(\n                    ethBalance[msg.sender] - ethReservedBalance[msg.sender] >=\n                        orders[i].price * matched,\n                    \"eth balance too low\"\n                );\n                nftFractionsRepository.transferFrom(\n                    orders[i].trader,\n                    msg.sender,\n                    tokenId,\n                    matched,\n                    \"\"\n                );\n                ethBalance[msg.sender] -= orders[i].price * matched;\n                ethBalance[orders[i].trader] += orders[i].price * matched;\n            }\n            i++;\n        }\n\n        i = 0;\n        while (i < orders.length && orders[i].filled == orders[i].amount) {\n            for (uint256 j = i; j < orders.length - 1; j++) {\n                orders[j] = orders[j + 1];\n            }\n            orders.pop();\n            i++;\n        }\n    }\n\n    function getOrders(uint256 tokenId, Side side)\n        external\n        view\n        returns (Order[] memory)\n    {\n        return orderBook[tokenId][uint256(side)];\n    }\n\n    function deleteOrder(\n        uint256 tokenId,\n        Side side,\n        uint256 orderId\n    ) public {\n        Order[] storage orders = orderBook[tokenId][uint256(side)];\n        for (uint256 i = 0; i < orders.length; i++) {\n            if (orders[i].id == orderId) {\n                require(\n                    msg.sender == orders[i].trader,\n                    \"Only the trader can delete his order\"\n                );\n                orders[i] = orders[orders.length - 1];\n                orders.pop();\n            }\n        }\n    }\n\n    modifier tokenExist(uint256 tokenId) {\n        address erc721ContractAddress;\n        uint256 erc721TokenId;\n        uint256 totalFractionsAmount;\n        (\n            erc721ContractAddress,\n            erc721TokenId,\n            totalFractionsAmount\n        ) = nftFractionsRepository.getTokenData(tokenId);\n        require(\n            erc721ContractAddress != address(0),\n            \"this token does not exist\"\n        );\n        _;\n    }\n}\n",
  "sourcePath": "/Users/szabolcs/Documents/Personal/Szakmai/Ethereum/nft-fractions-dex/contracts/Dex.sol",
  "compiler": {
    "name": "solc",
    "version": "0.8.0+commit.c7dfd78e.Emscripten.clang"
  },
  "schemaVersion": "3.3.4",
  "updatedAt": "2021-05-14T10:53:18.500Z",
  "networkType": "ethereum",
  "devdoc": {
    "kind": "dev",
    "methods": {
      "depositEth()": {
        "details": "deposit ETH for trading"
      },
      "getEthBalance(address)": {
        "details": "returns the ETH balance of the owner"
      },
      "getEthReserveBalance(address)": {
        "details": "returns the ETH reserved balance of the owner"
      },
      "owner()": {
        "details": "Returns the address of the current owner."
      },
      "paused()": {
        "details": "Returns true if the contract is paused, and false otherwise."
      },
      "renounceOwnership()": {
        "details": "Leaves the contract without owner. It will not be possible to call `onlyOwner` functions anymore. Can only be called by the current owner. NOTE: Renouncing ownership will leave the contract without an owner, thereby removing any functionality that is only available to the owner."
      },
      "transferOwnership(address)": {
        "details": "Transfers ownership of the contract to a new account (`newOwner`). Can only be called by the current owner."
      },
      "withdrawEth(uint256)": {
        "details": "Withdraw ETH Requirements: - msg.sender has to have equal or more ETH than the amount to withdraw"
      }
    },
    "version": 1
  },
  "userdoc": {
    "kind": "user",
    "methods": {},
    "version": 1
  }
}