{
  "contractName": "NftFractionsDex",
  "abi": [
    {
      "anonymous": false,
      "inputs": [
        {
          "indexed": true,
          "internalType": "address",
          "name": "account",
          "type": "address"
        },
        {
          "indexed": true,
          "internalType": "address",
          "name": "operator",
          "type": "address"
        },
        {
          "indexed": false,
          "internalType": "bool",
          "name": "approved",
          "type": "bool"
        }
      ],
      "name": "ApprovalForAll",
      "type": "event"
    },
    {
      "anonymous": false,
      "inputs": [
        {
          "indexed": true,
          "internalType": "address",
          "name": "previousOwner",
          "type": "address"
        },
        {
          "indexed": true,
          "internalType": "address",
          "name": "newOwner",
          "type": "address"
        }
      ],
      "name": "OwnershipTransferred",
      "type": "event"
    },
    {
      "anonymous": false,
      "inputs": [
        {
          "indexed": false,
          "internalType": "address",
          "name": "account",
          "type": "address"
        }
      ],
      "name": "Paused",
      "type": "event"
    },
    {
      "anonymous": false,
      "inputs": [
        {
          "indexed": true,
          "internalType": "address",
          "name": "operator",
          "type": "address"
        },
        {
          "indexed": true,
          "internalType": "address",
          "name": "from",
          "type": "address"
        },
        {
          "indexed": true,
          "internalType": "address",
          "name": "to",
          "type": "address"
        },
        {
          "indexed": false,
          "internalType": "uint256[]",
          "name": "ids",
          "type": "uint256[]"
        },
        {
          "indexed": false,
          "internalType": "uint256[]",
          "name": "values",
          "type": "uint256[]"
        }
      ],
      "name": "TransferBatch",
      "type": "event"
    },
    {
      "anonymous": false,
      "inputs": [
        {
          "indexed": true,
          "internalType": "address",
          "name": "operator",
          "type": "address"
        },
        {
          "indexed": true,
          "internalType": "address",
          "name": "from",
          "type": "address"
        },
        {
          "indexed": true,
          "internalType": "address",
          "name": "to",
          "type": "address"
        },
        {
          "indexed": false,
          "internalType": "uint256",
          "name": "id",
          "type": "uint256"
        },
        {
          "indexed": false,
          "internalType": "uint256",
          "name": "value",
          "type": "uint256"
        }
      ],
      "name": "TransferSingle",
      "type": "event"
    },
    {
      "anonymous": false,
      "inputs": [
        {
          "indexed": false,
          "internalType": "string",
          "name": "value",
          "type": "string"
        },
        {
          "indexed": true,
          "internalType": "uint256",
          "name": "id",
          "type": "uint256"
        }
      ],
      "name": "URI",
      "type": "event"
    },
    {
      "anonymous": false,
      "inputs": [
        {
          "indexed": false,
          "internalType": "address",
          "name": "account",
          "type": "address"
        }
      ],
      "name": "Unpaused",
      "type": "event"
    },
    {
      "inputs": [
        {
          "internalType": "address",
          "name": "account",
          "type": "address"
        },
        {
          "internalType": "uint256",
          "name": "id",
          "type": "uint256"
        }
      ],
      "name": "balanceOf",
      "outputs": [
        {
          "internalType": "uint256",
          "name": "",
          "type": "uint256"
        }
      ],
      "stateMutability": "view",
      "type": "function",
      "constant": true
    },
    {
      "inputs": [
        {
          "internalType": "address[]",
          "name": "accounts",
          "type": "address[]"
        },
        {
          "internalType": "uint256[]",
          "name": "ids",
          "type": "uint256[]"
        }
      ],
      "name": "balanceOfBatch",
      "outputs": [
        {
          "internalType": "uint256[]",
          "name": "",
          "type": "uint256[]"
        }
      ],
      "stateMutability": "view",
      "type": "function",
      "constant": true
    },
    {
      "inputs": [
        {
          "internalType": "address",
          "name": "account",
          "type": "address"
        },
        {
          "internalType": "address",
          "name": "operator",
          "type": "address"
        }
      ],
      "name": "isApprovedForAll",
      "outputs": [
        {
          "internalType": "bool",
          "name": "",
          "type": "bool"
        }
      ],
      "stateMutability": "view",
      "type": "function",
      "constant": true
    },
    {
      "inputs": [],
      "name": "owner",
      "outputs": [
        {
          "internalType": "address",
          "name": "",
          "type": "address"
        }
      ],
      "stateMutability": "view",
      "type": "function",
      "constant": true
    },
    {
      "inputs": [],
      "name": "paused",
      "outputs": [
        {
          "internalType": "bool",
          "name": "",
          "type": "bool"
        }
      ],
      "stateMutability": "view",
      "type": "function",
      "constant": true
    },
    {
      "inputs": [],
      "name": "renounceOwnership",
      "outputs": [],
      "stateMutability": "nonpayable",
      "type": "function"
    },
    {
      "inputs": [
        {
          "internalType": "address",
          "name": "from",
          "type": "address"
        },
        {
          "internalType": "address",
          "name": "to",
          "type": "address"
        },
        {
          "internalType": "uint256[]",
          "name": "ids",
          "type": "uint256[]"
        },
        {
          "internalType": "uint256[]",
          "name": "amounts",
          "type": "uint256[]"
        },
        {
          "internalType": "bytes",
          "name": "data",
          "type": "bytes"
        }
      ],
      "name": "safeBatchTransferFrom",
      "outputs": [],
      "stateMutability": "nonpayable",
      "type": "function"
    },
    {
      "inputs": [
        {
          "internalType": "address",
          "name": "from",
          "type": "address"
        },
        {
          "internalType": "address",
          "name": "to",
          "type": "address"
        },
        {
          "internalType": "uint256",
          "name": "id",
          "type": "uint256"
        },
        {
          "internalType": "uint256",
          "name": "amount",
          "type": "uint256"
        },
        {
          "internalType": "bytes",
          "name": "data",
          "type": "bytes"
        }
      ],
      "name": "safeTransferFrom",
      "outputs": [],
      "stateMutability": "nonpayable",
      "type": "function"
    },
    {
      "inputs": [
        {
          "internalType": "address",
          "name": "operator",
          "type": "address"
        },
        {
          "internalType": "bool",
          "name": "approved",
          "type": "bool"
        }
      ],
      "name": "setApprovalForAll",
      "outputs": [],
      "stateMutability": "nonpayable",
      "type": "function"
    },
    {
      "inputs": [
        {
          "internalType": "bytes4",
          "name": "interfaceId",
          "type": "bytes4"
        }
      ],
      "name": "supportsInterface",
      "outputs": [
        {
          "internalType": "bool",
          "name": "",
          "type": "bool"
        }
      ],
      "stateMutability": "view",
      "type": "function",
      "constant": true
    },
    {
      "inputs": [
        {
          "internalType": "address",
          "name": "newOwner",
          "type": "address"
        }
      ],
      "name": "transferOwnership",
      "outputs": [],
      "stateMutability": "nonpayable",
      "type": "function"
    },
    {
      "inputs": [
        {
          "internalType": "uint256",
          "name": "",
          "type": "uint256"
        }
      ],
      "name": "uri",
      "outputs": [
        {
          "internalType": "string",
          "name": "",
          "type": "string"
        }
      ],
      "stateMutability": "view",
      "type": "function",
      "constant": true
    },
    {
      "inputs": [
        {
          "internalType": "string",
          "name": "uri_",
          "type": "string"
        }
      ],
      "name": "initialize",
      "outputs": [],
      "stateMutability": "nonpayable",
      "type": "function"
    },
    {
      "inputs": [
        {
          "internalType": "address",
          "name": "erc721ContractAddress",
          "type": "address"
        },
        {
          "internalType": "uint256",
          "name": "erc721TokenId",
          "type": "uint256"
        },
        {
          "internalType": "uint256",
          "name": "fractionsAmountToMint",
          "type": "uint256"
        }
      ],
      "name": "depositNft",
      "outputs": [],
      "stateMutability": "nonpayable",
      "type": "function"
    },
    {
      "inputs": [
        {
          "internalType": "uint256",
          "name": "tokenId",
          "type": "uint256"
        }
      ],
      "name": "withdrawNft",
      "outputs": [],
      "stateMutability": "nonpayable",
      "type": "function"
    },
    {
      "inputs": [
        {
          "internalType": "uint256",
          "name": "_tokenId",
          "type": "uint256"
        }
      ],
      "name": "getTokenData",
      "outputs": [
        {
          "internalType": "address",
          "name": "erc721ContractAddress",
          "type": "address"
        },
        {
          "internalType": "uint256",
          "name": "erc721TokenId",
          "type": "uint256"
        },
        {
          "internalType": "uint256",
          "name": "totalFractionsAmount",
          "type": "uint256"
        }
      ],
      "stateMutability": "view",
      "type": "function",
      "constant": true
    },
    {
      "inputs": [],
      "name": "pause",
      "outputs": [],
      "stateMutability": "nonpayable",
      "type": "function"
    },
    {
      "inputs": [
        {
          "internalType": "address",
          "name": "shareOwner",
          "type": "address"
        }
      ],
      "name": "getTokenIdsByShareOwner",
      "outputs": [
        {
          "internalType": "uint256[]",
          "name": "",
          "type": "uint256[]"
        }
      ],
      "stateMutability": "view",
      "type": "function",
      "constant": true
    },
    {
      "inputs": [],
      "name": "getTokenIds",
      "outputs": [
        {
          "internalType": "uint256[]",
          "name": "",
          "type": "uint256[]"
        }
      ],
      "stateMutability": "view",
      "type": "function",
      "constant": true
    }
  ],
  "bytecode": "0x608060405234801561001057600080fd5b5061480e806100206000396000f3fe608060405234801561001057600080fd5b50600436106101205760003560e01c80638456cb59116100ad578063e09a3cb411610071578063e09a3cb414610309578063e985e9c514610325578063f242432a14610355578063f2fde38b14610371578063f62d18881461038d57610120565b80638456cb59146102775780638da5cb5b14610281578063910efae81461029f578063a22cb465146102bb578063b09afec1146102d757610120565b80632eb2c2d6116100f45780632eb2c2d6146101e55780634e1273f4146102015780635c975abb1461023157806367f718a91461024f578063715018a61461026d57610120565b8062fdd58e1461012557806301ffc9a7146101555780630e89341c14610185578063180e1ef8146101b5575b600080fd5b61013f600480360381019061013a9190613404565b6103a9565b60405161014c91906142c2565b60405180910390f35b61016f600480360381019061016a91906134fb565b610473565b60405161017c9190614005565b60405180910390f35b61019f600480360381019061019a919061358e565b610555565b6040516101ac9190614020565b60405180910390f35b6101cf60048036038101906101ca91906131ec565b6105e9565b6040516101dc9190613fac565b60405180910390f35b6101ff60048036038101906101fa919061327a565b610680565b005b61021b6004803603810190610216919061348f565b610a79565b6040516102289190613fac565b60405180910390f35b610239610c2a565b6040516102469190614005565b60405180910390f35b610257610c41565b6040516102649190613fac565b60405180910390f35b610275610c99565b005b61027f610dd6565b005b610289610e5c565b6040516102969190613e61565b60405180910390f35b6102b960048036038101906102b4919061358e565b610e86565b005b6102d560048036038101906102d091906133c8565b611462565b005b6102f160048036038101906102ec919061358e565b6115e3565b60405161030093929190613f75565b60405180910390f35b610323600480360381019061031e9190613440565b61165a565b005b61033f600480360381019061033a919061323e565b61199c565b60405161034c9190614005565b60405180910390f35b61036f600480360381019061036a9190613339565b611a30565b005b61038b600480360381019061038691906131ec565b611d4b565b005b6103a760048036038101906103a2919061354d565b611ef7565b005b60008073ffffffffffffffffffffffffffffffffffffffff168373ffffffffffffffffffffffffffffffffffffffff16141561041a576040517f08c379a0000000000000000000000000000000000000000000000000000000008152600401610411906140c2565b60405180910390fd5b6065600083815260200190815260200160002060008473ffffffffffffffffffffffffffffffffffffffff1673ffffffffffffffffffffffffffffffffffffffff16815260200190815260200160002054905092915050565b60007fd9b67a26000000000000000000000000000000000000000000000000000000007bffffffffffffffffffffffffffffffffffffffffffffffffffffffff1916827bffffffffffffffffffffffffffffffffffffffffffffffffffffffff1916148061053e57507f0e89341c000000000000000000000000000000000000000000000000000000007bffffffffffffffffffffffffffffffffffffffffffffffffffffffff1916827bffffffffffffffffffffffffffffffffffffffffffffffffffffffff1916145b8061054e575061054d82611ffa565b5b9050919050565b606060678054610564906145a0565b80601f0160208091040260200160405190810160405280929190818152602001828054610590906145a0565b80156105dd5780601f106105b2576101008083540402835291602001916105dd565b820191906000526020600020905b8154815290600101906020018083116105c057829003601f168201915b50505050509050919050565b606060fc60008373ffffffffffffffffffffffffffffffffffffffff1673ffffffffffffffffffffffffffffffffffffffff16815260200190815260200160002080548060200260200160405190810160405280929190818152602001828054801561067457602002820191906000526020600020905b815481526020019060010190808311610660575b50505050509050919050565b81518351146106c4576040517f08c379a00000000000000000000000000000000000000000000000000000000081526004016106bb90614262565b60405180910390fd5b600073ffffffffffffffffffffffffffffffffffffffff168473ffffffffffffffffffffffffffffffffffffffff161415610734576040517f08c379a000000000000000000000000000000000000000000000000000000000815260040161072b90614162565b60405180910390fd5b61073c612064565b73ffffffffffffffffffffffffffffffffffffffff168573ffffffffffffffffffffffffffffffffffffffff16148061078257506107818561077c612064565b61199c565b5b6107c1576040517f08c379a00000000000000000000000000000000000000000000000000000000081526004016107b890614182565b60405180910390fd5b60006107cb612064565b90506107db81878787878761206c565b60005b84518110156109e4576000858281518110610822577f4e487b7100000000000000000000000000000000000000000000000000000000600052603260045260246000fd5b602002602001015190506000858381518110610867577f4e487b7100000000000000000000000000000000000000000000000000000000600052603260045260246000fd5b6020026020010151905060006065600084815260200190815260200160002060008b73ffffffffffffffffffffffffffffffffffffffff1673ffffffffffffffffffffffffffffffffffffffff16815260200190815260200160002054905081811015610909576040517f08c379a0000000000000000000000000000000000000000000000000000000008152600401610900906141e2565b60405180910390fd5b818161091591906144b6565b6065600085815260200190815260200160002060008c73ffffffffffffffffffffffffffffffffffffffff1673ffffffffffffffffffffffffffffffffffffffff16815260200190815260200160002081905550816065600085815260200190815260200160002060008b73ffffffffffffffffffffffffffffffffffffffff1673ffffffffffffffffffffffffffffffffffffffff16815260200190815260200160002060008282546109c99190614460565b92505081905550505050806109dd906145d2565b90506107de565b508473ffffffffffffffffffffffffffffffffffffffff168673ffffffffffffffffffffffffffffffffffffffff168273ffffffffffffffffffffffffffffffffffffffff167f4a39dc06d4c0dbc64b70af90fd698a233a518aa5d07e595d983b8c0526c8f7fb8787604051610a5b929190613fce565b60405180910390a4610a71818787878787612074565b505050505050565b60608151835114610abf576040517f08c379a0000000000000000000000000000000000000000000000000000000008152600401610ab690614242565b60405180910390fd5b6000835167ffffffffffffffff811115610b02577f4e487b7100000000000000000000000000000000000000000000000000000000600052604160045260246000fd5b604051908082528060200260200182016040528015610b305781602001602082028036833780820191505090505b50905060005b8451811015610c1f57610bc9858281518110610b7b577f4e487b7100000000000000000000000000000000000000000000000000000000600052603260045260246000fd5b6020026020010151858381518110610bbc577f4e487b7100000000000000000000000000000000000000000000000000000000600052603260045260246000fd5b60200260200101516103a9565b828281518110610c02577f4e487b7100000000000000000000000000000000000000000000000000000000600052603260045260246000fd5b60200260200101818152505080610c18906145d2565b9050610b36565b508091505092915050565b6000609760009054906101000a900460ff16905090565b606060fe805480602002602001604051908101604052809291908181526020018280548015610c8f57602002820191906000526020600020905b815481526020019060010190808311610c7b575b5050505050905090565b610ca1612064565b73ffffffffffffffffffffffffffffffffffffffff16610cbf610e5c565b73ffffffffffffffffffffffffffffffffffffffff1614610d15576040517f08c379a0000000000000000000000000000000000000000000000000000000008152600401610d0c90614202565b60405180910390fd5b600073ffffffffffffffffffffffffffffffffffffffff1660c960009054906101000a900473ffffffffffffffffffffffffffffffffffffffff1673ffffffffffffffffffffffffffffffffffffffff167f8be0079c531659141344cd1fd0a4f28419497f9722a3daafe3b4186f6b6457e060405160405180910390a3600060c960006101000a81548173ffffffffffffffffffffffffffffffffffffffff021916908373ffffffffffffffffffffffffffffffffffffffff160217905550565b610dde612064565b73ffffffffffffffffffffffffffffffffffffffff16610dfc610e5c565b73ffffffffffffffffffffffffffffffffffffffff1614610e52576040517f08c379a0000000000000000000000000000000000000000000000000000000008152600401610e4990614202565b60405180910390fd5b610e5a612244565b565b600060c960009054906101000a900473ffffffffffffffffffffffffffffffffffffffff16905090565b610e8e610c2a565b15610ece576040517f08c379a0000000000000000000000000000000000000000000000000000000008152600401610ec5906142a2565b60405180910390fd5b600060fd60008381526020019081526020016000206002015490506000610ef533846103a9565b9050808214610f39576040517f08c379a0000000000000000000000000000000000000000000000000000000008152600401610f3090614082565b60405180910390fd5b600060fd600085815260200190815260200160002060000160009054906101000a900473ffffffffffffffffffffffffffffffffffffffff169050600060fd600086815260200190815260200160002060010154905060008290508073ffffffffffffffffffffffffffffffffffffffff166323b872dd3033856040518463ffffffff1660e01b8152600401610fd193929190613ee4565b600060405180830381600087803b158015610feb57600080fd5b505af1158015610fff573d6000803e3d6000fd5b5050505061100e3387876122e7565b600060fc60003373ffffffffffffffffffffffffffffffffffffffff1673ffffffffffffffffffffffffffffffffffffffff1681526020019081526020016000208054905090506000805b828110156111055760fc60003373ffffffffffffffffffffffffffffffffffffffff1673ffffffffffffffffffffffffffffffffffffffff16815260200190815260200160002081815481106110d8577f4e487b7100000000000000000000000000000000000000000000000000000000600052603260045260246000fd5b90600052602060002001548914156110f257809150611105565b80806110fd906145d2565b915050611059565b5060fc60003373ffffffffffffffffffffffffffffffffffffffff1673ffffffffffffffffffffffffffffffffffffffff16815260200190815260200160002060018361115291906144b6565b81548110611189577f4e487b7100000000000000000000000000000000000000000000000000000000600052603260045260246000fd5b906000526020600020015460fc60003373ffffffffffffffffffffffffffffffffffffffff1673ffffffffffffffffffffffffffffffffffffffff168152602001908152602001600020828154811061120b577f4e487b7100000000000000000000000000000000000000000000000000000000600052603260045260246000fd5b906000526020600020018190555060fc60003373ffffffffffffffffffffffffffffffffffffffff1673ffffffffffffffffffffffffffffffffffffffff16815260200190815260200160002080548061128e577f4e487b7100000000000000000000000000000000000000000000000000000000600052603160045260246000fd5b60019003818190600052602060002001600090559055600060fe8054905090506000805b828110156113215760fe81815481106112f4577f4e487b7100000000000000000000000000000000000000000000000000000000600052603260045260246000fd5b90600052602060002001548b141561130e57809150611321565b8080611319906145d2565b9150506112b2565b5060fe60018361133191906144b6565b81548110611368577f4e487b7100000000000000000000000000000000000000000000000000000000600052603260045260246000fd5b906000526020600020015460fe82815481106113ad577f4e487b7100000000000000000000000000000000000000000000000000000000600052603260045260246000fd5b906000526020600020018190555060fe8054806113f3577f4e487b7100000000000000000000000000000000000000000000000000000000600052603160045260246000fd5b6001900381819060005260206000200160009055905560fd60008b8152602001908152602001600020600080820160006101000a81549073ffffffffffffffffffffffffffffffffffffffff021916905560018201600090556002820160009055505050505050505050505050565b8173ffffffffffffffffffffffffffffffffffffffff16611481612064565b73ffffffffffffffffffffffffffffffffffffffff1614156114d8576040517f08c379a00000000000000000000000000000000000000000000000000000000081526004016114cf90614222565b60405180910390fd5b80606660006114e5612064565b73ffffffffffffffffffffffffffffffffffffffff1673ffffffffffffffffffffffffffffffffffffffff16815260200190815260200160002060008473ffffffffffffffffffffffffffffffffffffffff1673ffffffffffffffffffffffffffffffffffffffff16815260200190815260200160002060006101000a81548160ff0219169083151502179055508173ffffffffffffffffffffffffffffffffffffffff16611592612064565b73ffffffffffffffffffffffffffffffffffffffff167f17307eab39ab6107e8899845ad3d59bd9653f200f220920489ca2b5937696c31836040516115d79190614005565b60405180910390a35050565b600080600060fd600085815260200190815260200160002060000160009054906101000a900473ffffffffffffffffffffffffffffffffffffffff1660fd60008681526020019081526020016000206001015460fd6000878152602001908152602001600020600201549250925092509193909250565b611662610c2a565b156116a2576040517f08c379a0000000000000000000000000000000000000000000000000000000008152600401611699906142a2565b60405180910390fd5b60008390503373ffffffffffffffffffffffffffffffffffffffff168173ffffffffffffffffffffffffffffffffffffffff16636352211e856040518263ffffffff1660e01b81526004016116f791906142c2565b60206040518083038186803b15801561170f57600080fd5b505afa158015611723573d6000803e3d6000fd5b505050506040513d601f19601f820116820180604052508101906117479190613215565b73ffffffffffffffffffffffffffffffffffffffff161461179d576040517f08c379a0000000000000000000000000000000000000000000000000000000008152600401611794906140a2565b60405180910390fd5b8073ffffffffffffffffffffffffffffffffffffffff166323b872dd3330866040518463ffffffff1660e01b81526004016117da93929190613ee4565b600060405180830381600087803b1580156117f457600080fd5b505af1158015611808573d6000803e3d6000fd5b5050505061181660fb61250f565b600061182260fb612525565b905061183f33828560405180602001604052806000815250612533565b611847612e98565b85816000019073ffffffffffffffffffffffffffffffffffffffff16908173ffffffffffffffffffffffffffffffffffffffff168152505084816020018181525050838160400181815250508060fd600084815260200190815260200160002060008201518160000160006101000a81548173ffffffffffffffffffffffffffffffffffffffff021916908373ffffffffffffffffffffffffffffffffffffffff160217905550602082015181600101556040820151816002015590505060fc60003373ffffffffffffffffffffffffffffffffffffffff1673ffffffffffffffffffffffffffffffffffffffff16815260200190815260200160002082908060018154018082558091505060019003906000526020600020016000909190919091505560fe829080600181540180825580915050600190039060005260206000200160009091909190915055505050505050565b6000606660008473ffffffffffffffffffffffffffffffffffffffff1673ffffffffffffffffffffffffffffffffffffffff16815260200190815260200160002060008373ffffffffffffffffffffffffffffffffffffffff1673ffffffffffffffffffffffffffffffffffffffff16815260200190815260200160002060009054906101000a900460ff16905092915050565b600073ffffffffffffffffffffffffffffffffffffffff168473ffffffffffffffffffffffffffffffffffffffff161415611aa0576040517f08c379a0000000000000000000000000000000000000000000000000000000008152600401611a9790614162565b60405180910390fd5b611aa8612064565b73ffffffffffffffffffffffffffffffffffffffff168573ffffffffffffffffffffffffffffffffffffffff161480611aee5750611aed85611ae8612064565b61199c565b5b611b2d576040517f08c379a0000000000000000000000000000000000000000000000000000000008152600401611b2490614122565b60405180910390fd5b6000611b37612064565b9050611b57818787611b48886126ca565b611b51886126ca565b8761206c565b60006065600086815260200190815260200160002060008873ffffffffffffffffffffffffffffffffffffffff1673ffffffffffffffffffffffffffffffffffffffff16815260200190815260200160002054905083811015611bef576040517f08c379a0000000000000000000000000000000000000000000000000000000008152600401611be6906141e2565b60405180910390fd5b8381611bfb91906144b6565b6065600087815260200190815260200160002060008973ffffffffffffffffffffffffffffffffffffffff1673ffffffffffffffffffffffffffffffffffffffff16815260200190815260200160002081905550836065600087815260200190815260200160002060008873ffffffffffffffffffffffffffffffffffffffff1673ffffffffffffffffffffffffffffffffffffffff1681526020019081526020016000206000828254611caf9190614460565b925050819055508573ffffffffffffffffffffffffffffffffffffffff168773ffffffffffffffffffffffffffffffffffffffff168373ffffffffffffffffffffffffffffffffffffffff167fc3d58168c5ae7397731d063d5bbf3d657854427343f4c083240f7aacaa2d0f628888604051611d2c9291906142dd565b60405180910390a4611d42828888888888612790565b50505050505050565b611d53612064565b73ffffffffffffffffffffffffffffffffffffffff16611d71610e5c565b73ffffffffffffffffffffffffffffffffffffffff1614611dc7576040517f08c379a0000000000000000000000000000000000000000000000000000000008152600401611dbe90614202565b60405180910390fd5b600073ffffffffffffffffffffffffffffffffffffffff168173ffffffffffffffffffffffffffffffffffffffff161415611e37576040517f08c379a0000000000000000000000000000000000000000000000000000000008152600401611e2e906140e2565b60405180910390fd5b8073ffffffffffffffffffffffffffffffffffffffff1660c960009054906101000a900473ffffffffffffffffffffffffffffffffffffffff1673ffffffffffffffffffffffffffffffffffffffff167f8be0079c531659141344cd1fd0a4f28419497f9722a3daafe3b4186f6b6457e060405160405180910390a38060c960006101000a81548173ffffffffffffffffffffffffffffffffffffffff021916908373ffffffffffffffffffffffffffffffffffffffff16021790555050565b600060019054906101000a900460ff1680611f1d575060008054906101000a900460ff16155b611f5c576040517f08c379a0000000000000000000000000000000000000000000000000000000008152600401611f53906141a2565b60405180910390fd5b60008060019054906101000a900460ff161590508015611fac576001600060016101000a81548160ff02191690831515021790555060016000806101000a81548160ff0219169083151502179055505b611fb4612960565b611fbc612a39565b611fc4612b12565b611fcd82612c06565b611fd5612ce9565b8015611ff65760008060016101000a81548160ff0219169083151502179055505b5050565b60007f01ffc9a7000000000000000000000000000000000000000000000000000000007bffffffffffffffffffffffffffffffffffffffffffffffffffffffff1916827bffffffffffffffffffffffffffffffffffffffffffffffffffffffff1916149050919050565b600033905090565b505050505050565b6120938473ffffffffffffffffffffffffffffffffffffffff16612e6b565b1561223c578373ffffffffffffffffffffffffffffffffffffffff1663bc197c8187878686866040518663ffffffff1660e01b81526004016120d9959493929190613e7c565b602060405180830381600087803b1580156120f357600080fd5b505af192505050801561212457506040513d601f19601f820116820180604052508101906121219190613524565b60015b6121b3576121306146c6565b8061213b5750612178565b806040517f08c379a000000000000000000000000000000000000000000000000000000000815260040161216f9190614020565b60405180910390fd5b6040517f08c379a00000000000000000000000000000000000000000000000000000000081526004016121aa90614042565b60405180910390fd5b63bc197c8160e01b7bffffffffffffffffffffffffffffffffffffffffffffffffffffffff1916817bffffffffffffffffffffffffffffffffffffffffffffffffffffffff19161461223a576040517f08c379a000000000000000000000000000000000000000000000000000000000815260040161223190614062565b60405180910390fd5b505b505050505050565b61224c610c2a565b1561228c576040517f08c379a000000000000000000000000000000000000000000000000000000000815260040161228390614142565b60405180910390fd5b6001609760006101000a81548160ff0219169083151502179055507f62e78cea01bee320cd4e420270b5ea74000d11b0c9f74754ebdbfc544b05a2586122d0612064565b6040516122dd9190613e61565b60405180910390a1565b600073ffffffffffffffffffffffffffffffffffffffff168373ffffffffffffffffffffffffffffffffffffffff161415612357576040517f08c379a000000000000000000000000000000000000000000000000000000000815260040161234e906141c2565b60405180910390fd5b6000612361612064565b905061239181856000612373876126ca565b61237c876126ca565b6040518060200160405280600081525061206c565b60006065600085815260200190815260200160002060008673ffffffffffffffffffffffffffffffffffffffff1673ffffffffffffffffffffffffffffffffffffffff16815260200190815260200160002054905082811015612429576040517f08c379a000000000000000000000000000000000000000000000000000000000815260040161242090614102565b60405180910390fd5b828161243591906144b6565b6065600086815260200190815260200160002060008773ffffffffffffffffffffffffffffffffffffffff1673ffffffffffffffffffffffffffffffffffffffff16815260200190815260200160002081905550600073ffffffffffffffffffffffffffffffffffffffff168573ffffffffffffffffffffffffffffffffffffffff168373ffffffffffffffffffffffffffffffffffffffff167fc3d58168c5ae7397731d063d5bbf3d657854427343f4c083240f7aacaa2d0f6287876040516125009291906142dd565b60405180910390a45050505050565b6001816000016000828254019250508190555050565b600081600001549050919050565b600073ffffffffffffffffffffffffffffffffffffffff168473ffffffffffffffffffffffffffffffffffffffff1614156125a3576040517f08c379a000000000000000000000000000000000000000000000000000000000815260040161259a90614282565b60405180910390fd5b60006125ad612064565b90506125ce816000876125bf886126ca565b6125c8886126ca565b8761206c565b826065600086815260200190815260200160002060008773ffffffffffffffffffffffffffffffffffffffff1673ffffffffffffffffffffffffffffffffffffffff168152602001908152602001600020600082825461262e9190614460565b925050819055508473ffffffffffffffffffffffffffffffffffffffff16600073ffffffffffffffffffffffffffffffffffffffff168273ffffffffffffffffffffffffffffffffffffffff167fc3d58168c5ae7397731d063d5bbf3d657854427343f4c083240f7aacaa2d0f6287876040516126ac9291906142dd565b60405180910390a46126c381600087878787612790565b5050505050565b60606000600167ffffffffffffffff81111561270f577f4e487b7100000000000000000000000000000000000000000000000000000000600052604160045260246000fd5b60405190808252806020026020018201604052801561273d5781602001602082028036833780820191505090505b509050828160008151811061277b577f4e487b7100000000000000000000000000000000000000000000000000000000600052603260045260246000fd5b60200260200101818152505080915050919050565b6127af8473ffffffffffffffffffffffffffffffffffffffff16612e6b565b15612958578373ffffffffffffffffffffffffffffffffffffffff1663f23a6e6187878686866040518663ffffffff1660e01b81526004016127f5959493929190613f1b565b602060405180830381600087803b15801561280f57600080fd5b505af192505050801561284057506040513d601f19601f8201168201806040525081019061283d9190613524565b60015b6128cf5761284c6146c6565b806128575750612894565b806040517f08c379a000000000000000000000000000000000000000000000000000000000815260040161288b9190614020565b60405180910390fd5b6040517f08c379a00000000000000000000000000000000000000000000000000000000081526004016128c690614042565b60405180910390fd5b63f23a6e6160e01b7bffffffffffffffffffffffffffffffffffffffffffffffffffffffff1916817bffffffffffffffffffffffffffffffffffffffffffffffffffffffff191614612956576040517f08c379a000000000000000000000000000000000000000000000000000000000815260040161294d90614062565b60405180910390fd5b505b505050505050565b600060019054906101000a900460ff1680612986575060008054906101000a900460ff16155b6129c5576040517f08c379a00000000000000000000000000000000000000000000000000000000081526004016129bc906141a2565b60405180910390fd5b60008060019054906101000a900460ff161590508015612a15576001600060016101000a81548160ff02191690831515021790555060016000806101000a81548160ff0219169083151502179055505b8015612a365760008060016101000a81548160ff0219169083151502179055505b50565b600060019054906101000a900460ff1680612a5f575060008054906101000a900460ff16155b612a9e576040517f08c379a0000000000000000000000000000000000000000000000000000000008152600401612a95906141a2565b60405180910390fd5b60008060019054906101000a900460ff161590508015612aee576001600060016101000a81548160ff02191690831515021790555060016000806101000a81548160ff0219169083151502179055505b8015612b0f5760008060016101000a81548160ff0219169083151502179055505b50565b600060019054906101000a900460ff1680612b38575060008054906101000a900460ff16155b612b77576040517f08c379a0000000000000000000000000000000000000000000000000000000008152600401612b6e906141a2565b60405180910390fd5b60008060019054906101000a900460ff161590508015612bc7576001600060016101000a81548160ff02191690831515021790555060016000806101000a81548160ff0219169083151502179055505b6000609760006101000a81548160ff0219169083151502179055508015612c035760008060016101000a81548160ff0219169083151502179055505b50565b600060019054906101000a900460ff1680612c2c575060008054906101000a900460ff16155b612c6b576040517f08c379a0000000000000000000000000000000000000000000000000000000008152600401612c62906141a2565b60405180910390fd5b60008060019054906101000a900460ff161590508015612cbb576001600060016101000a81548160ff02191690831515021790555060016000806101000a81548160ff0219169083151502179055505b612cc482612e7e565b8015612ce55760008060016101000a81548160ff0219169083151502179055505b5050565b600060019054906101000a900460ff1680612d0f575060008054906101000a900460ff16155b612d4e576040517f08c379a0000000000000000000000000000000000000000000000000000000008152600401612d45906141a2565b60405180910390fd5b60008060019054906101000a900460ff161590508015612d9e576001600060016101000a81548160ff02191690831515021790555060016000806101000a81548160ff0219169083151502179055505b6000612da8612064565b90508060c960006101000a81548173ffffffffffffffffffffffffffffffffffffffff021916908373ffffffffffffffffffffffffffffffffffffffff1602179055508073ffffffffffffffffffffffffffffffffffffffff16600073ffffffffffffffffffffffffffffffffffffffff167f8be0079c531659141344cd1fd0a4f28419497f9722a3daafe3b4186f6b6457e060405160405180910390a3508015612e685760008060016101000a81548160ff0219169083151502179055505b50565b600080823b905060008111915050919050565b8060679080519060200190612e94929190612ecf565b5050565b6040518060600160405280600073ffffffffffffffffffffffffffffffffffffffff16815260200160008152602001600081525090565b828054612edb906145a0565b90600052602060002090601f016020900481019282612efd5760008555612f44565b82601f10612f1657805160ff1916838001178555612f44565b82800160010185558215612f44579182015b82811115612f43578251825591602001919060010190612f28565b5b509050612f519190612f55565b5090565b5b80821115612f6e576000816000905550600101612f56565b5090565b6000612f85612f8084614337565b614306565b90508083825260208201905082856020860282011115612fa457600080fd5b60005b85811015612fd45781612fba88826130c6565b845260208401935060208301925050600181019050612fa7565b5050509392505050565b6000612ff1612fec84614363565b614306565b9050808382526020820190508285602086028201111561301057600080fd5b60005b85811015613040578161302688826131d7565b845260208401935060208301925050600181019050613013565b5050509392505050565b600061305d6130588461438f565b614306565b90508281526020810184848401111561307557600080fd5b61308084828561455e565b509392505050565b600061309b613096846143bf565b614306565b9050828152602081018484840111156130b357600080fd5b6130be84828561455e565b509392505050565b6000813590506130d58161477c565b92915050565b6000815190506130ea8161477c565b92915050565b600082601f83011261310157600080fd5b8135613111848260208601612f72565b91505092915050565b600082601f83011261312b57600080fd5b813561313b848260208601612fde565b91505092915050565b60008135905061315381614793565b92915050565b600081359050613168816147aa565b92915050565b60008151905061317d816147aa565b92915050565b600082601f83011261319457600080fd5b81356131a484826020860161304a565b91505092915050565b600082601f8301126131be57600080fd5b81356131ce848260208601613088565b91505092915050565b6000813590506131e6816147c1565b92915050565b6000602082840312156131fe57600080fd5b600061320c848285016130c6565b91505092915050565b60006020828403121561322757600080fd5b6000613235848285016130db565b91505092915050565b6000806040838503121561325157600080fd5b600061325f858286016130c6565b9250506020613270858286016130c6565b9150509250929050565b600080600080600060a0868803121561329257600080fd5b60006132a0888289016130c6565b95505060206132b1888289016130c6565b945050604086013567ffffffffffffffff8111156132ce57600080fd5b6132da8882890161311a565b935050606086013567ffffffffffffffff8111156132f757600080fd5b6133038882890161311a565b925050608086013567ffffffffffffffff81111561332057600080fd5b61332c88828901613183565b9150509295509295909350565b600080600080600060a0868803121561335157600080fd5b600061335f888289016130c6565b9550506020613370888289016130c6565b9450506040613381888289016131d7565b9350506060613392888289016131d7565b925050608086013567ffffffffffffffff8111156133af57600080fd5b6133bb88828901613183565b9150509295509295909350565b600080604083850312156133db57600080fd5b60006133e9858286016130c6565b92505060206133fa85828601613144565b9150509250929050565b6000806040838503121561341757600080fd5b6000613425858286016130c6565b9250506020613436858286016131d7565b9150509250929050565b60008060006060848603121561345557600080fd5b6000613463868287016130c6565b9350506020613474868287016131d7565b9250506040613485868287016131d7565b9150509250925092565b600080604083850312156134a257600080fd5b600083013567ffffffffffffffff8111156134bc57600080fd5b6134c8858286016130f0565b925050602083013567ffffffffffffffff8111156134e557600080fd5b6134f18582860161311a565b9150509250929050565b60006020828403121561350d57600080fd5b600061351b84828501613159565b91505092915050565b60006020828403121561353657600080fd5b60006135448482850161316e565b91505092915050565b60006020828403121561355f57600080fd5b600082013567ffffffffffffffff81111561357957600080fd5b613585848285016131ad565b91505092915050565b6000602082840312156135a057600080fd5b60006135ae848285016131d7565b91505092915050565b60006135c38383613e43565b60208301905092915050565b6135d8816144ea565b82525050565b60006135e9826143ff565b6135f3818561442d565b93506135fe836143ef565b8060005b8381101561362f57815161361688826135b7565b975061362183614420565b925050600181019050613602565b5085935050505092915050565b613645816144fc565b82525050565b60006136568261440a565b613660818561443e565b935061367081856020860161456d565b613679816146a8565b840191505092915050565b600061368f82614415565b613699818561444f565b93506136a981856020860161456d565b6136b2816146a8565b840191505092915050565b60006136ca60348361444f565b91507f455243313135353a207472616e7366657220746f206e6f6e204552433131353560008301527f526563656976657220696d706c656d656e7465720000000000000000000000006020830152604082019050919050565b600061373060288361444f565b91507f455243313135353a204552433131353552656365697665722072656a6563746560008301527f6420746f6b656e730000000000000000000000000000000000000000000000006020830152604082019050919050565b6000613796602b8361444f565b91507f6d6573736167652073656e6465722068617320746f206f776e20616c6c206f6660008301527f20746865207368617265730000000000000000000000000000000000000000006020830152604082019050919050565b60006137fc602a8361444f565b91507f6d73672073656e6465722068617320746f206f776e2074686520746f6b656e2060008301527f746f206465706f736974000000000000000000000000000000000000000000006020830152604082019050919050565b6000613862602b8361444f565b91507f455243313135353a2062616c616e636520717565727920666f7220746865207a60008301527f65726f20616464726573730000000000000000000000000000000000000000006020830152604082019050919050565b60006138c860268361444f565b91507f4f776e61626c653a206e6577206f776e657220697320746865207a65726f206160008301527f64647265737300000000000000000000000000000000000000000000000000006020830152604082019050919050565b600061392e60248361444f565b91507f455243313135353a206275726e20616d6f756e7420657863656564732062616c60008301527f616e6365000000000000000000000000000000000000000000000000000000006020830152604082019050919050565b600061399460298361444f565b91507f455243313135353a2063616c6c6572206973206e6f74206f776e6572206e6f7260008301527f20617070726f76656400000000000000000000000000000000000000000000006020830152604082019050919050565b60006139fa60108361444f565b91507f5061757361626c653a20706175736564000000000000000000000000000000006000830152602082019050919050565b6000613a3a60258361444f565b91507f455243313135353a207472616e7366657220746f20746865207a65726f20616460008301527f64726573730000000000000000000000000000000000000000000000000000006020830152604082019050919050565b6000613aa060328361444f565b91507f455243313135353a207472616e736665722063616c6c6572206973206e6f742060008301527f6f776e6572206e6f7220617070726f76656400000000000000000000000000006020830152604082019050919050565b6000613b06602e8361444f565b91507f496e697469616c697a61626c653a20636f6e747261637420697320616c72656160008301527f647920696e697469616c697a65640000000000000000000000000000000000006020830152604082019050919050565b6000613b6c60238361444f565b91507f455243313135353a206275726e2066726f6d20746865207a65726f206164647260008301527f65737300000000000000000000000000000000000000000000000000000000006020830152604082019050919050565b6000613bd2602a8361444f565b91507f455243313135353a20696e73756666696369656e742062616c616e636520666f60008301527f72207472616e73666572000000000000000000000000000000000000000000006020830152604082019050919050565b6000613c3860208361444f565b91507f4f776e61626c653a2063616c6c6572206973206e6f7420746865206f776e65726000830152602082019050919050565b6000613c7860298361444f565b91507f455243313135353a2073657474696e6720617070726f76616c2073746174757360008301527f20666f722073656c6600000000000000000000000000000000000000000000006020830152604082019050919050565b6000613cde60298361444f565b91507f455243313135353a206163636f756e747320616e6420696473206c656e67746860008301527f206d69736d6174636800000000000000000000000000000000000000000000006020830152604082019050919050565b6000613d4460288361444f565b91507f455243313135353a2069647320616e6420616d6f756e7473206c656e6774682060008301527f6d69736d617463680000000000000000000000000000000000000000000000006020830152604082019050919050565b6000613daa60218361444f565b91507f455243313135353a206d696e7420746f20746865207a65726f2061646472657360008301527f73000000000000000000000000000000000000000000000000000000000000006020830152604082019050919050565b6000613e1060188361444f565b91507f4e6f7420616c6c6f776564207768696c652070617573656400000000000000006000830152602082019050919050565b613e4c81614554565b82525050565b613e5b81614554565b82525050565b6000602082019050613e7660008301846135cf565b92915050565b600060a082019050613e9160008301886135cf565b613e9e60208301876135cf565b8181036040830152613eb081866135de565b90508181036060830152613ec481856135de565b90508181036080830152613ed8818461364b565b90509695505050505050565b6000606082019050613ef960008301866135cf565b613f0660208301856135cf565b613f136040830184613e52565b949350505050565b600060a082019050613f3060008301886135cf565b613f3d60208301876135cf565b613f4a6040830186613e52565b613f576060830185613e52565b8181036080830152613f69818461364b565b90509695505050505050565b6000606082019050613f8a60008301866135cf565b613f976020830185613e52565b613fa46040830184613e52565b949350505050565b60006020820190508181036000830152613fc681846135de565b905092915050565b60006040820190508181036000830152613fe881856135de565b90508181036020830152613ffc81846135de565b90509392505050565b600060208201905061401a600083018461363c565b92915050565b6000602082019050818103600083015261403a8184613684565b905092915050565b6000602082019050818103600083015261405b816136bd565b9050919050565b6000602082019050818103600083015261407b81613723565b9050919050565b6000602082019050818103600083015261409b81613789565b9050919050565b600060208201905081810360008301526140bb816137ef565b9050919050565b600060208201905081810360008301526140db81613855565b9050919050565b600060208201905081810360008301526140fb816138bb565b9050919050565b6000602082019050818103600083015261411b81613921565b9050919050565b6000602082019050818103600083015261413b81613987565b9050919050565b6000602082019050818103600083015261415b816139ed565b9050919050565b6000602082019050818103600083015261417b81613a2d565b9050919050565b6000602082019050818103600083015261419b81613a93565b9050919050565b600060208201905081810360008301526141bb81613af9565b9050919050565b600060208201905081810360008301526141db81613b5f565b9050919050565b600060208201905081810360008301526141fb81613bc5565b9050919050565b6000602082019050818103600083015261421b81613c2b565b9050919050565b6000602082019050818103600083015261423b81613c6b565b9050919050565b6000602082019050818103600083015261425b81613cd1565b9050919050565b6000602082019050818103600083015261427b81613d37565b9050919050565b6000602082019050818103600083015261429b81613d9d565b9050919050565b600060208201905081810360008301526142bb81613e03565b9050919050565b60006020820190506142d76000830184613e52565b92915050565b60006040820190506142f26000830185613e52565b6142ff6020830184613e52565b9392505050565b6000604051905081810181811067ffffffffffffffff8211171561432d5761432c614679565b5b8060405250919050565b600067ffffffffffffffff82111561435257614351614679565b5b602082029050602081019050919050565b600067ffffffffffffffff82111561437e5761437d614679565b5b602082029050602081019050919050565b600067ffffffffffffffff8211156143aa576143a9614679565b5b601f19601f8301169050602081019050919050565b600067ffffffffffffffff8211156143da576143d9614679565b5b601f19601f8301169050602081019050919050565b6000819050602082019050919050565b600081519050919050565b600081519050919050565b600081519050919050565b6000602082019050919050565b600082825260208201905092915050565b600082825260208201905092915050565b600082825260208201905092915050565b600061446b82614554565b915061447683614554565b9250827fffffffffffffffffffffffffffffffffffffffffffffffffffffffffffffffff038211156144ab576144aa61461b565b5b828201905092915050565b60006144c182614554565b91506144cc83614554565b9250828210156144df576144de61461b565b5b828203905092915050565b60006144f582614534565b9050919050565b60008115159050919050565b60007fffffffff0000000000000000000000000000000000000000000000000000000082169050919050565b600073ffffffffffffffffffffffffffffffffffffffff82169050919050565b6000819050919050565b82818337600083830152505050565b60005b8381101561458b578082015181840152602081019050614570565b8381111561459a576000848401525b50505050565b600060028204905060018216806145b857607f821691505b602082108114156145cc576145cb61464a565b5b50919050565b60006145dd82614554565b91507fffffffffffffffffffffffffffffffffffffffffffffffffffffffffffffffff8214156146105761460f61461b565b5b600182019050919050565b7f4e487b7100000000000000000000000000000000000000000000000000000000600052601160045260246000fd5b7f4e487b7100000000000000000000000000000000000000000000000000000000600052602260045260246000fd5b7f4e487b7100000000000000000000000000000000000000000000000000000000600052604160045260246000fd5b6000601f19601f8301169050919050565b60008160e01c9050919050565b600060443d10156146d657614779565b60046000803e6146e76000516146b9565b6308c379a081146146f85750614779565b60405160043d036004823e80513d602482011167ffffffffffffffff8211171561472457505050614779565b808201805167ffffffffffffffff811115614743575050505050614779565b8060208301013d850181111561475e57505050505050614779565b614767826146a8565b60208401016040528296505050505050505b90565b614785816144ea565b811461479057600080fd5b50565b61479c816144fc565b81146147a757600080fd5b50565b6147b381614508565b81146147be57600080fd5b50565b6147ca81614554565b81146147d557600080fd5b5056fea264697066735822122051c6c0e7ab4f866b63a68a44b9dfa65d30b016bc64d218bda71c95ef06b527d364736f6c63430008000033",
  "immutableReferences": {},
  "source": "// SPDX-License-Identifier: MIT\n\npragma solidity ^0.8.0;\n\nimport \"@openzeppelin/contracts-upgradeable/token/ERC1155/ERC1155Upgradeable.sol\";\nimport \"@openzeppelin/contracts-upgradeable/security/PausableUpgradeable.sol\";\nimport \"@openzeppelin/contracts-upgradeable/proxy/utils/Initializable.sol\";\nimport \"@openzeppelin/contracts/token/ERC721/IERC721.sol\";\nimport \"@openzeppelin/contracts-upgradeable/utils/CountersUpgradeable.sol\";\nimport \"@openzeppelin/contracts-upgradeable/access/OwnableUpgradeable.sol\";\n\ncontract NftFractionsDex is\n    Initializable,\n    ERC1155Upgradeable,\n    PausableUpgradeable,\n    OwnableUpgradeable\n{\n    using CountersUpgradeable for CountersUpgradeable.Counter;\n    CountersUpgradeable.Counter private _ids;\n\n    struct Token {\n        address erc721ContractAddress;\n        uint256 erc721TokenId;\n        uint256 totalFractionsAmount;\n    }\n\n    mapping(address => uint256[]) tokenIdsByShareOwner;\n    mapping(uint256 => Token) tokens;\n    uint256[] tokenIds;\n\n    function initialize(string memory uri_) public initializer {\n        __Context_init_unchained();\n        __ERC165_init_unchained();\n        __Pausable_init_unchained();\n        __ERC1155_init_unchained(uri_);\n        __Ownable_init_unchained();\n    }\n\n    /**\n     * @dev Deposit an ERC721 token and mints an ERC1155 token with the given fractions amount\n     * the original ERC721 token is transferred to the address of this smart contract.\n     * Before calling this function the user has to call the apporve function on the original NFT contract and\n     * approve this smart contract to transfer his NFT.\n     *\n     * Requirements:\n     * - msg.sender has to own the token that is deposited\n     * - the contract is not paused\n     */\n    function depositNft(\n        address erc721ContractAddress,\n        uint256 erc721TokenId,\n        uint256 fractionsAmountToMint\n    ) external {\n        require(!paused(), \"Not allowed while paused\");\n        IERC721 erc721Contract = IERC721(erc721ContractAddress);\n        require(\n            erc721Contract.ownerOf(erc721TokenId) == msg.sender,\n            \"msg sender has to own the token to deposit\"\n        );\n        erc721Contract.transferFrom(msg.sender, address(this), erc721TokenId);\n        _ids.increment();\n        uint256 newItemId = _ids.current();\n        _mint(msg.sender, newItemId, fractionsAmountToMint, \"\");\n        Token memory token;\n        token.erc721ContractAddress = erc721ContractAddress;\n        token.erc721TokenId = erc721TokenId;\n        token.totalFractionsAmount = fractionsAmountToMint;\n        tokens[newItemId] = token;\n        tokenIdsByShareOwner[msg.sender].push(newItemId);\n        tokenIds.push(newItemId);\n    }\n\n    /**\n     * @dev Withdraw an ERC721 token from this contract. The message sender has to own all of the shares in\n     * the correspondign ERC1155 token.\n     * Successfull withdraw means:\n     * - burning the ERC1155 token\n     * - transfering the ERC721 token to the owner (msg.sender) = owner of all shares in the ERC1155 token\n     *\n     * Requirements:\n     * - msg.sender has to own all shares in the corresponding ERC1155 token\n     * - the contract is not paused\n     */\n    function withdrawNft(uint256 tokenId) external {\n        require(!paused(), \"Not allowed while paused\");\n        uint256 totalFractionsAmount = tokens[tokenId].totalFractionsAmount;\n        uint256 sendersAmount = balanceOf(msg.sender, tokenId);\n        require(\n            totalFractionsAmount == sendersAmount,\n            \"message sender has to own all of the shares\"\n        );\n        //sends the original token in the ERC721 contract\n        address erc721ContractAddress = tokens[tokenId].erc721ContractAddress;\n        uint256 erc721TokenId = tokens[tokenId].erc721TokenId;\n        IERC721 erc721Contract = IERC721(erc721ContractAddress);\n        erc721Contract.transferFrom(address(this), msg.sender, erc721TokenId);\n        //burns the ERC1155 token\n        _burn(msg.sender, tokenId, totalFractionsAmount);\n        //deletes the ERC1155 token from the tokenIdsByShareOwner array\n        uint256 nrOfTokensByShareOwner =\n            tokenIdsByShareOwner[msg.sender].length;\n        uint256 tokenIdPositionInShareOwner;\n        for (uint256 i; i < nrOfTokensByShareOwner; i++) {\n            if (tokenId == tokenIdsByShareOwner[msg.sender][i]) {\n                tokenIdPositionInShareOwner = i;\n                break;\n            }\n        }\n        tokenIdsByShareOwner[msg.sender][\n            tokenIdPositionInShareOwner\n        ] = tokenIdsByShareOwner[msg.sender][nrOfTokensByShareOwner - 1];\n        tokenIdsByShareOwner[msg.sender].pop();\n        //deletes the ERC1155 token from the tokenIds array\n        uint256 nrOfTokens = tokenIds.length;\n        uint256 tokenIdPosition;\n        for (uint256 i; i < nrOfTokens; i++) {\n            if (tokenId == tokenIds[i]) {\n                tokenIdPosition = i;\n                break;\n            }\n        }\n        tokenIds[tokenIdPosition] = tokenIds[nrOfTokens - 1];\n        tokenIds.pop();\n\n        //deletes the token struct\n        delete tokens[tokenId];\n    }\n\n    /**\n     * @dev returns relevant token data:\n     * - original ERC721 contract address\n     * - original ERC721 token id\n     * - amount of fractions minted\n     */\n    function getTokenData(uint256 _tokenId)\n        public\n        view\n        returns (\n            address erc721ContractAddress,\n            uint256 erc721TokenId,\n            uint256 totalFractionsAmount\n        )\n    {\n        return (\n            tokens[_tokenId].erc721ContractAddress,\n            tokens[_tokenId].erc721TokenId,\n            tokens[_tokenId].totalFractionsAmount\n        );\n    }\n\n    function pause() public onlyOwner() {\n        _pause();\n    }\n\n    /**\n     * @dev returns the ERC1155 tokenIds that the shareOwner has shares in\n     */\n    function getTokenIdsByShareOwner(address shareOwner)\n        public\n        view\n        returns (uint256[] memory)\n    {\n        return tokenIdsByShareOwner[shareOwner];\n    }\n\n    /**\n     * @dev returns all ERC1155 tokenIds managed by this contract\n     */\n    function getTokenIds() public view returns (uint256[] memory) {\n        return tokenIds;\n    }\n}\n",
  "sourcePath": "/Users/szabolcs/Documents/Personal/Szakmai/Ethereum/nft-fractions-dex/contracts/NftFractionsDex.sol",
  "compiler": {
    "name": "solc",
    "version": "0.8.0+commit.c7dfd78e.Emscripten.clang"
  },
  "schemaVersion": "3.3.4",
  "updatedAt": "2021-04-06T08:26:39.822Z",
  "networkType": "ethereum",
  "devdoc": {
    "kind": "dev",
    "methods": {
      "balanceOf(address,uint256)": {
        "details": "See {IERC1155-balanceOf}. Requirements: - `account` cannot be the zero address."
      },
      "balanceOfBatch(address[],uint256[])": {
        "details": "See {IERC1155-balanceOfBatch}. Requirements: - `accounts` and `ids` must have the same length."
      },
      "depositNft(address,uint256,uint256)": {
        "details": "Deposit an ERC721 token and mints an ERC1155 token with the given fractions amount the original ERC721 token is transferred to the address of this smart contract. Before calling this function the user has to call the apporve function on the original NFT contract and approve this smart contract to transfer his NFT. Requirements: - msg.sender has to own the token that is deposited - the contract is not paused"
      },
      "getTokenData(uint256)": {
        "details": "returns relevant token data: - original ERC721 contract address - original ERC721 token id - amount of fractions minted"
      },
      "getTokenIds()": {
        "details": "returns all ERC1155 tokenIds managed by this contract"
      },
      "getTokenIdsByShareOwner(address)": {
        "details": "returns the ERC1155 tokenIds that the shareOwner has shares in"
      },
      "isApprovedForAll(address,address)": {
        "details": "See {IERC1155-isApprovedForAll}."
      },
      "owner()": {
        "details": "Returns the address of the current owner."
      },
      "paused()": {
        "details": "Returns true if the contract is paused, and false otherwise."
      },
      "renounceOwnership()": {
        "details": "Leaves the contract without owner. It will not be possible to call `onlyOwner` functions anymore. Can only be called by the current owner. NOTE: Renouncing ownership will leave the contract without an owner, thereby removing any functionality that is only available to the owner."
      },
      "safeBatchTransferFrom(address,address,uint256[],uint256[],bytes)": {
        "details": "See {IERC1155-safeBatchTransferFrom}."
      },
      "safeTransferFrom(address,address,uint256,uint256,bytes)": {
        "details": "See {IERC1155-safeTransferFrom}."
      },
      "setApprovalForAll(address,bool)": {
        "details": "See {IERC1155-setApprovalForAll}."
      },
      "supportsInterface(bytes4)": {
        "details": "See {IERC165-supportsInterface}."
      },
      "transferOwnership(address)": {
        "details": "Transfers ownership of the contract to a new account (`newOwner`). Can only be called by the current owner."
      },
      "uri(uint256)": {
        "details": "See {IERC1155MetadataURI-uri}. This implementation returns the same URI for *all* token types. It relies on the token type ID substitution mechanism https://eips.ethereum.org/EIPS/eip-1155#metadata[defined in the EIP]. Clients calling this function must replace the `\\{id\\}` substring with the actual token type ID."
      },
      "withdrawNft(uint256)": {
        "details": "Withdraw an ERC721 token from this contract. The message sender has to own all of the shares in the correspondign ERC1155 token. Successfull withdraw means: - burning the ERC1155 token - transfering the ERC721 token to the owner (msg.sender) = owner of all shares in the ERC1155 token Requirements: - msg.sender has to own all shares in the corresponding ERC1155 token - the contract is not paused"
      }
    },
    "version": 1
  },
  "userdoc": {
    "kind": "user",
    "methods": {},
    "version": 1
  }
}