{
  "contractName": "NftFractionsDex",
  "abi": [
    {
      "anonymous": false,
      "inputs": [
        {
          "indexed": true,
          "internalType": "address",
          "name": "account",
          "type": "address"
        },
        {
          "indexed": true,
          "internalType": "address",
          "name": "operator",
          "type": "address"
        },
        {
          "indexed": false,
          "internalType": "bool",
          "name": "approved",
          "type": "bool"
        }
      ],
      "name": "ApprovalForAll",
      "type": "event"
    },
    {
      "anonymous": false,
      "inputs": [
        {
          "indexed": true,
          "internalType": "address",
          "name": "previousOwner",
          "type": "address"
        },
        {
          "indexed": true,
          "internalType": "address",
          "name": "newOwner",
          "type": "address"
        }
      ],
      "name": "OwnershipTransferred",
      "type": "event"
    },
    {
      "anonymous": false,
      "inputs": [
        {
          "indexed": false,
          "internalType": "address",
          "name": "account",
          "type": "address"
        }
      ],
      "name": "Paused",
      "type": "event"
    },
    {
      "anonymous": false,
      "inputs": [
        {
          "indexed": true,
          "internalType": "address",
          "name": "operator",
          "type": "address"
        },
        {
          "indexed": true,
          "internalType": "address",
          "name": "from",
          "type": "address"
        },
        {
          "indexed": true,
          "internalType": "address",
          "name": "to",
          "type": "address"
        },
        {
          "indexed": false,
          "internalType": "uint256[]",
          "name": "ids",
          "type": "uint256[]"
        },
        {
          "indexed": false,
          "internalType": "uint256[]",
          "name": "values",
          "type": "uint256[]"
        }
      ],
      "name": "TransferBatch",
      "type": "event"
    },
    {
      "anonymous": false,
      "inputs": [
        {
          "indexed": true,
          "internalType": "address",
          "name": "operator",
          "type": "address"
        },
        {
          "indexed": true,
          "internalType": "address",
          "name": "from",
          "type": "address"
        },
        {
          "indexed": true,
          "internalType": "address",
          "name": "to",
          "type": "address"
        },
        {
          "indexed": false,
          "internalType": "uint256",
          "name": "id",
          "type": "uint256"
        },
        {
          "indexed": false,
          "internalType": "uint256",
          "name": "value",
          "type": "uint256"
        }
      ],
      "name": "TransferSingle",
      "type": "event"
    },
    {
      "anonymous": false,
      "inputs": [
        {
          "indexed": false,
          "internalType": "string",
          "name": "value",
          "type": "string"
        },
        {
          "indexed": true,
          "internalType": "uint256",
          "name": "id",
          "type": "uint256"
        }
      ],
      "name": "URI",
      "type": "event"
    },
    {
      "anonymous": false,
      "inputs": [
        {
          "indexed": false,
          "internalType": "address",
          "name": "account",
          "type": "address"
        }
      ],
      "name": "Unpaused",
      "type": "event"
    },
    {
      "inputs": [
        {
          "internalType": "address",
          "name": "account",
          "type": "address"
        },
        {
          "internalType": "uint256",
          "name": "id",
          "type": "uint256"
        }
      ],
      "name": "balanceOf",
      "outputs": [
        {
          "internalType": "uint256",
          "name": "",
          "type": "uint256"
        }
      ],
      "stateMutability": "view",
      "type": "function",
      "constant": true
    },
    {
      "inputs": [
        {
          "internalType": "address[]",
          "name": "accounts",
          "type": "address[]"
        },
        {
          "internalType": "uint256[]",
          "name": "ids",
          "type": "uint256[]"
        }
      ],
      "name": "balanceOfBatch",
      "outputs": [
        {
          "internalType": "uint256[]",
          "name": "",
          "type": "uint256[]"
        }
      ],
      "stateMutability": "view",
      "type": "function",
      "constant": true
    },
    {
      "inputs": [
        {
          "internalType": "address",
          "name": "account",
          "type": "address"
        },
        {
          "internalType": "address",
          "name": "operator",
          "type": "address"
        }
      ],
      "name": "isApprovedForAll",
      "outputs": [
        {
          "internalType": "bool",
          "name": "",
          "type": "bool"
        }
      ],
      "stateMutability": "view",
      "type": "function",
      "constant": true
    },
    {
      "inputs": [],
      "name": "owner",
      "outputs": [
        {
          "internalType": "address",
          "name": "",
          "type": "address"
        }
      ],
      "stateMutability": "view",
      "type": "function",
      "constant": true
    },
    {
      "inputs": [],
      "name": "paused",
      "outputs": [
        {
          "internalType": "bool",
          "name": "",
          "type": "bool"
        }
      ],
      "stateMutability": "view",
      "type": "function",
      "constant": true
    },
    {
      "inputs": [],
      "name": "renounceOwnership",
      "outputs": [],
      "stateMutability": "nonpayable",
      "type": "function"
    },
    {
      "inputs": [
        {
          "internalType": "address",
          "name": "from",
          "type": "address"
        },
        {
          "internalType": "address",
          "name": "to",
          "type": "address"
        },
        {
          "internalType": "uint256[]",
          "name": "ids",
          "type": "uint256[]"
        },
        {
          "internalType": "uint256[]",
          "name": "amounts",
          "type": "uint256[]"
        },
        {
          "internalType": "bytes",
          "name": "data",
          "type": "bytes"
        }
      ],
      "name": "safeBatchTransferFrom",
      "outputs": [],
      "stateMutability": "nonpayable",
      "type": "function"
    },
    {
      "inputs": [
        {
          "internalType": "address",
          "name": "from",
          "type": "address"
        },
        {
          "internalType": "address",
          "name": "to",
          "type": "address"
        },
        {
          "internalType": "uint256",
          "name": "id",
          "type": "uint256"
        },
        {
          "internalType": "uint256",
          "name": "amount",
          "type": "uint256"
        },
        {
          "internalType": "bytes",
          "name": "data",
          "type": "bytes"
        }
      ],
      "name": "safeTransferFrom",
      "outputs": [],
      "stateMutability": "nonpayable",
      "type": "function"
    },
    {
      "inputs": [
        {
          "internalType": "address",
          "name": "operator",
          "type": "address"
        },
        {
          "internalType": "bool",
          "name": "approved",
          "type": "bool"
        }
      ],
      "name": "setApprovalForAll",
      "outputs": [],
      "stateMutability": "nonpayable",
      "type": "function"
    },
    {
      "inputs": [
        {
          "internalType": "bytes4",
          "name": "interfaceId",
          "type": "bytes4"
        }
      ],
      "name": "supportsInterface",
      "outputs": [
        {
          "internalType": "bool",
          "name": "",
          "type": "bool"
        }
      ],
      "stateMutability": "view",
      "type": "function",
      "constant": true
    },
    {
      "inputs": [
        {
          "internalType": "address",
          "name": "newOwner",
          "type": "address"
        }
      ],
      "name": "transferOwnership",
      "outputs": [],
      "stateMutability": "nonpayable",
      "type": "function"
    },
    {
      "inputs": [
        {
          "internalType": "uint256",
          "name": "",
          "type": "uint256"
        }
      ],
      "name": "uri",
      "outputs": [
        {
          "internalType": "string",
          "name": "",
          "type": "string"
        }
      ],
      "stateMutability": "view",
      "type": "function",
      "constant": true
    },
    {
      "inputs": [
        {
          "internalType": "string",
          "name": "uri_",
          "type": "string"
        }
      ],
      "name": "initialize",
      "outputs": [],
      "stateMutability": "nonpayable",
      "type": "function"
    },
    {
      "inputs": [
        {
          "internalType": "address",
          "name": "erc721ContractAddress",
          "type": "address"
        },
        {
          "internalType": "uint256",
          "name": "erc721TokenId",
          "type": "uint256"
        },
        {
          "internalType": "uint256",
          "name": "fractionsAmountToMint",
          "type": "uint256"
        }
      ],
      "name": "depositNft",
      "outputs": [],
      "stateMutability": "nonpayable",
      "type": "function"
    },
    {
      "inputs": [
        {
          "internalType": "uint256",
          "name": "_tokenId",
          "type": "uint256"
        }
      ],
      "name": "getTokenData",
      "outputs": [
        {
          "internalType": "address",
          "name": "erc721ContractAddress",
          "type": "address"
        },
        {
          "internalType": "uint256",
          "name": "erc721TokenId",
          "type": "uint256"
        },
        {
          "internalType": "uint256",
          "name": "totalFractionsAmount",
          "type": "uint256"
        }
      ],
      "stateMutability": "view",
      "type": "function",
      "constant": true
    },
    {
      "inputs": [],
      "name": "pause",
      "outputs": [],
      "stateMutability": "nonpayable",
      "type": "function"
    },
    {
      "inputs": [
        {
          "internalType": "address",
          "name": "shareOwner",
          "type": "address"
        }
      ],
      "name": "getTokenIdsByShareOwner",
      "outputs": [
        {
          "internalType": "uint256[]",
          "name": "",
          "type": "uint256[]"
        }
      ],
      "stateMutability": "view",
      "type": "function",
      "constant": true
    },
    {
      "inputs": [],
      "name": "getTokenIds",
      "outputs": [
        {
          "internalType": "uint256[]",
          "name": "",
          "type": "uint256[]"
        }
      ],
      "stateMutability": "view",
      "type": "function",
      "constant": true
    }
  ],
  "bytecode": "0x608060405234801561001057600080fd5b50613e51806100206000396000f3fe608060405234801561001057600080fd5b50600436106101155760003560e01c80638456cb59116100a2578063e09a3cb411610071578063e09a3cb4146102e2578063e985e9c5146102fe578063f242432a1461032e578063f2fde38b1461034a578063f62d18881461036657610115565b80638456cb591461026c5780638da5cb5b14610276578063a22cb46514610294578063b09afec1146102b057610115565b80632eb2c2d6116100e95780632eb2c2d6146101da5780634e1273f4146101f65780635c975abb1461022657806367f718a914610244578063715018a61461026257610115565b8062fdd58e1461011a57806301ffc9a71461014a5780630e89341c1461017a578063180e1ef8146101aa575b600080fd5b610134600480360381019061012f9190612bd9565b610382565b6040516101419190613905565b60405180910390f35b610164600480360381019061015f9190612cd0565b61044c565b60405161017191906136a8565b60405180910390f35b610194600480360381019061018f9190612d63565b61052e565b6040516101a191906136c3565b60405180910390f35b6101c460048036038101906101bf91906129c1565b6105c2565b6040516101d1919061364f565b60405180910390f35b6101f460048036038101906101ef9190612a4f565b610659565b005b610210600480360381019061020b9190612c64565b610a52565b60405161021d919061364f565b60405180910390f35b61022e610c03565b60405161023b91906136a8565b60405180910390f35b61024c610c1a565b604051610259919061364f565b60405180910390f35b61026a610c72565b005b610274610daf565b005b61027e610e35565b60405161028b9190613504565b60405180910390f35b6102ae60048036038101906102a99190612b9d565b610e5f565b005b6102ca60048036038101906102c59190612d63565b610fe0565b6040516102d993929190613618565b60405180910390f35b6102fc60048036038101906102f79190612c15565b611057565b005b61031860048036038101906103139190612a13565b611399565b60405161032591906136a8565b60405180910390f35b61034860048036038101906103439190612b0e565b61142d565b005b610364600480360381019061035f91906129c1565b611748565b005b610380600480360381019061037b9190612d22565b6118f4565b005b60008073ffffffffffffffffffffffffffffffffffffffff168373ffffffffffffffffffffffffffffffffffffffff1614156103f3576040517f08c379a00000000000000000000000000000000000000000000000000000000081526004016103ea90613745565b60405180910390fd5b6065600083815260200190815260200160002060008473ffffffffffffffffffffffffffffffffffffffff1673ffffffffffffffffffffffffffffffffffffffff16815260200190815260200160002054905092915050565b60007fd9b67a26000000000000000000000000000000000000000000000000000000007bffffffffffffffffffffffffffffffffffffffffffffffffffffffff1916827bffffffffffffffffffffffffffffffffffffffffffffffffffffffff1916148061051757507f0e89341c000000000000000000000000000000000000000000000000000000007bffffffffffffffffffffffffffffffffffffffffffffffffffffffff1916827bffffffffffffffffffffffffffffffffffffffffffffffffffffffff1916145b806105275750610526826119f7565b5b9050919050565b60606067805461053d90613be3565b80601f016020809104026020016040519081016040528092919081815260200182805461056990613be3565b80156105b65780601f1061058b576101008083540402835291602001916105b6565b820191906000526020600020905b81548152906001019060200180831161059957829003601f168201915b50505050509050919050565b606060fc60008373ffffffffffffffffffffffffffffffffffffffff1673ffffffffffffffffffffffffffffffffffffffff16815260200190815260200160002080548060200260200160405190810160405280929190818152602001828054801561064d57602002820191906000526020600020905b815481526020019060010190808311610639575b50505050509050919050565b815183511461069d576040517f08c379a0000000000000000000000000000000000000000000000000000000008152600401610694906138a5565b60405180910390fd5b600073ffffffffffffffffffffffffffffffffffffffff168473ffffffffffffffffffffffffffffffffffffffff16141561070d576040517f08c379a0000000000000000000000000000000000000000000000000000000008152600401610704906137c5565b60405180910390fd5b610715611a61565b73ffffffffffffffffffffffffffffffffffffffff168573ffffffffffffffffffffffffffffffffffffffff16148061075b575061075a85610755611a61565b611399565b5b61079a576040517f08c379a0000000000000000000000000000000000000000000000000000000008152600401610791906137e5565b60405180910390fd5b60006107a4611a61565b90506107b4818787878787611a69565b60005b84518110156109bd5760008582815181106107fb577f4e487b7100000000000000000000000000000000000000000000000000000000600052603260045260246000fd5b602002602001015190506000858381518110610840577f4e487b7100000000000000000000000000000000000000000000000000000000600052603260045260246000fd5b6020026020010151905060006065600084815260200190815260200160002060008b73ffffffffffffffffffffffffffffffffffffffff1673ffffffffffffffffffffffffffffffffffffffff168152602001908152602001600020549050818110156108e2576040517f08c379a00000000000000000000000000000000000000000000000000000000081526004016108d990613825565b60405180910390fd5b81816108ee9190613af9565b6065600085815260200190815260200160002060008c73ffffffffffffffffffffffffffffffffffffffff1673ffffffffffffffffffffffffffffffffffffffff16815260200190815260200160002081905550816065600085815260200190815260200160002060008b73ffffffffffffffffffffffffffffffffffffffff1673ffffffffffffffffffffffffffffffffffffffff16815260200190815260200160002060008282546109a29190613aa3565b92505081905550505050806109b690613c15565b90506107b7565b508473ffffffffffffffffffffffffffffffffffffffff168673ffffffffffffffffffffffffffffffffffffffff168273ffffffffffffffffffffffffffffffffffffffff167f4a39dc06d4c0dbc64b70af90fd698a233a518aa5d07e595d983b8c0526c8f7fb8787604051610a34929190613671565b60405180910390a4610a4a818787878787611a71565b505050505050565b60608151835114610a98576040517f08c379a0000000000000000000000000000000000000000000000000000000008152600401610a8f90613885565b60405180910390fd5b6000835167ffffffffffffffff811115610adb577f4e487b7100000000000000000000000000000000000000000000000000000000600052604160045260246000fd5b604051908082528060200260200182016040528015610b095781602001602082028036833780820191505090505b50905060005b8451811015610bf857610ba2858281518110610b54577f4e487b7100000000000000000000000000000000000000000000000000000000600052603260045260246000fd5b6020026020010151858381518110610b95577f4e487b7100000000000000000000000000000000000000000000000000000000600052603260045260246000fd5b6020026020010151610382565b828281518110610bdb577f4e487b7100000000000000000000000000000000000000000000000000000000600052603260045260246000fd5b60200260200101818152505080610bf190613c15565b9050610b0f565b508091505092915050565b6000609760009054906101000a900460ff16905090565b606060fe805480602002602001604051908101604052809291908181526020018280548015610c6857602002820191906000526020600020905b815481526020019060010190808311610c54575b5050505050905090565b610c7a611a61565b73ffffffffffffffffffffffffffffffffffffffff16610c98610e35565b73ffffffffffffffffffffffffffffffffffffffff1614610cee576040517f08c379a0000000000000000000000000000000000000000000000000000000008152600401610ce590613845565b60405180910390fd5b600073ffffffffffffffffffffffffffffffffffffffff1660c960009054906101000a900473ffffffffffffffffffffffffffffffffffffffff1673ffffffffffffffffffffffffffffffffffffffff167f8be0079c531659141344cd1fd0a4f28419497f9722a3daafe3b4186f6b6457e060405160405180910390a3600060c960006101000a81548173ffffffffffffffffffffffffffffffffffffffff021916908373ffffffffffffffffffffffffffffffffffffffff160217905550565b610db7611a61565b73ffffffffffffffffffffffffffffffffffffffff16610dd5610e35565b73ffffffffffffffffffffffffffffffffffffffff1614610e2b576040517f08c379a0000000000000000000000000000000000000000000000000000000008152600401610e2290613845565b60405180910390fd5b610e33611c41565b565b600060c960009054906101000a900473ffffffffffffffffffffffffffffffffffffffff16905090565b8173ffffffffffffffffffffffffffffffffffffffff16610e7e611a61565b73ffffffffffffffffffffffffffffffffffffffff161415610ed5576040517f08c379a0000000000000000000000000000000000000000000000000000000008152600401610ecc90613865565b60405180910390fd5b8060666000610ee2611a61565b73ffffffffffffffffffffffffffffffffffffffff1673ffffffffffffffffffffffffffffffffffffffff16815260200190815260200160002060008473ffffffffffffffffffffffffffffffffffffffff1673ffffffffffffffffffffffffffffffffffffffff16815260200190815260200160002060006101000a81548160ff0219169083151502179055508173ffffffffffffffffffffffffffffffffffffffff16610f8f611a61565b73ffffffffffffffffffffffffffffffffffffffff167f17307eab39ab6107e8899845ad3d59bd9653f200f220920489ca2b5937696c3183604051610fd491906136a8565b60405180910390a35050565b600080600060fd600085815260200190815260200160002060000160009054906101000a900473ffffffffffffffffffffffffffffffffffffffff1660fd60008681526020019081526020016000206001015460fd6000878152602001908152602001600020600201549250925092509193909250565b61105f610c03565b1561109f576040517f08c379a0000000000000000000000000000000000000000000000000000000008152600401611096906138e5565b60405180910390fd5b60008390503373ffffffffffffffffffffffffffffffffffffffff168173ffffffffffffffffffffffffffffffffffffffff16636352211e856040518263ffffffff1660e01b81526004016110f49190613905565b60206040518083038186803b15801561110c57600080fd5b505afa158015611120573d6000803e3d6000fd5b505050506040513d601f19601f8201168201806040525081019061114491906129ea565b73ffffffffffffffffffffffffffffffffffffffff161461119a576040517f08c379a000000000000000000000000000000000000000000000000000000000815260040161119190613725565b60405180910390fd5b8073ffffffffffffffffffffffffffffffffffffffff166323b872dd3330866040518463ffffffff1660e01b81526004016111d793929190613587565b600060405180830381600087803b1580156111f157600080fd5b505af1158015611205573d6000803e3d6000fd5b5050505061121360fb611ce4565b600061121f60fb611cfa565b905061123c33828560405180602001604052806000815250611d08565b61124461266d565b85816000019073ffffffffffffffffffffffffffffffffffffffff16908173ffffffffffffffffffffffffffffffffffffffff168152505084816020018181525050838160400181815250508060fd600084815260200190815260200160002060008201518160000160006101000a81548173ffffffffffffffffffffffffffffffffffffffff021916908373ffffffffffffffffffffffffffffffffffffffff160217905550602082015181600101556040820151816002015590505060fc60003373ffffffffffffffffffffffffffffffffffffffff1673ffffffffffffffffffffffffffffffffffffffff16815260200190815260200160002082908060018154018082558091505060019003906000526020600020016000909190919091505560fe829080600181540180825580915050600190039060005260206000200160009091909190915055505050505050565b6000606660008473ffffffffffffffffffffffffffffffffffffffff1673ffffffffffffffffffffffffffffffffffffffff16815260200190815260200160002060008373ffffffffffffffffffffffffffffffffffffffff1673ffffffffffffffffffffffffffffffffffffffff16815260200190815260200160002060009054906101000a900460ff16905092915050565b600073ffffffffffffffffffffffffffffffffffffffff168473ffffffffffffffffffffffffffffffffffffffff16141561149d576040517f08c379a0000000000000000000000000000000000000000000000000000000008152600401611494906137c5565b60405180910390fd5b6114a5611a61565b73ffffffffffffffffffffffffffffffffffffffff168573ffffffffffffffffffffffffffffffffffffffff1614806114eb57506114ea856114e5611a61565b611399565b5b61152a576040517f08c379a000000000000000000000000000000000000000000000000000000000815260040161152190613785565b60405180910390fd5b6000611534611a61565b905061155481878761154588611e9f565b61154e88611e9f565b87611a69565b60006065600086815260200190815260200160002060008873ffffffffffffffffffffffffffffffffffffffff1673ffffffffffffffffffffffffffffffffffffffff168152602001908152602001600020549050838110156115ec576040517f08c379a00000000000000000000000000000000000000000000000000000000081526004016115e390613825565b60405180910390fd5b83816115f89190613af9565b6065600087815260200190815260200160002060008973ffffffffffffffffffffffffffffffffffffffff1673ffffffffffffffffffffffffffffffffffffffff16815260200190815260200160002081905550836065600087815260200190815260200160002060008873ffffffffffffffffffffffffffffffffffffffff1673ffffffffffffffffffffffffffffffffffffffff16815260200190815260200160002060008282546116ac9190613aa3565b925050819055508573ffffffffffffffffffffffffffffffffffffffff168773ffffffffffffffffffffffffffffffffffffffff168373ffffffffffffffffffffffffffffffffffffffff167fc3d58168c5ae7397731d063d5bbf3d657854427343f4c083240f7aacaa2d0f628888604051611729929190613920565b60405180910390a461173f828888888888611f65565b50505050505050565b611750611a61565b73ffffffffffffffffffffffffffffffffffffffff1661176e610e35565b73ffffffffffffffffffffffffffffffffffffffff16146117c4576040517f08c379a00000000000000000000000000000000000000000000000000000000081526004016117bb90613845565b60405180910390fd5b600073ffffffffffffffffffffffffffffffffffffffff168173ffffffffffffffffffffffffffffffffffffffff161415611834576040517f08c379a000000000000000000000000000000000000000000000000000000000815260040161182b90613765565b60405180910390fd5b8073ffffffffffffffffffffffffffffffffffffffff1660c960009054906101000a900473ffffffffffffffffffffffffffffffffffffffff1673ffffffffffffffffffffffffffffffffffffffff167f8be0079c531659141344cd1fd0a4f28419497f9722a3daafe3b4186f6b6457e060405160405180910390a38060c960006101000a81548173ffffffffffffffffffffffffffffffffffffffff021916908373ffffffffffffffffffffffffffffffffffffffff16021790555050565b600060019054906101000a900460ff168061191a575060008054906101000a900460ff16155b611959576040517f08c379a000000000000000000000000000000000000000000000000000000000815260040161195090613805565b60405180910390fd5b60008060019054906101000a900460ff1615905080156119a9576001600060016101000a81548160ff02191690831515021790555060016000806101000a81548160ff0219169083151502179055505b6119b1612135565b6119b961220e565b6119c16122e7565b6119ca826123db565b6119d26124be565b80156119f35760008060016101000a81548160ff0219169083151502179055505b5050565b60007f01ffc9a7000000000000000000000000000000000000000000000000000000007bffffffffffffffffffffffffffffffffffffffffffffffffffffffff1916827bffffffffffffffffffffffffffffffffffffffffffffffffffffffff1916149050919050565b600033905090565b505050505050565b611a908473ffffffffffffffffffffffffffffffffffffffff16612640565b15611c39578373ffffffffffffffffffffffffffffffffffffffff1663bc197c8187878686866040518663ffffffff1660e01b8152600401611ad695949392919061351f565b602060405180830381600087803b158015611af057600080fd5b505af1925050508015611b2157506040513d601f19601f82011682018060405250810190611b1e9190612cf9565b60015b611bb057611b2d613d09565b80611b385750611b75565b806040517f08c379a0000000000000000000000000000000000000000000000000000000008152600401611b6c91906136c3565b60405180910390fd5b6040517f08c379a0000000000000000000000000000000000000000000000000000000008152600401611ba7906136e5565b60405180910390fd5b63bc197c8160e01b7bffffffffffffffffffffffffffffffffffffffffffffffffffffffff1916817bffffffffffffffffffffffffffffffffffffffffffffffffffffffff191614611c37576040517f08c379a0000000000000000000000000000000000000000000000000000000008152600401611c2e90613705565b60405180910390fd5b505b505050505050565b611c49610c03565b15611c89576040517f08c379a0000000000000000000000000000000000000000000000000000000008152600401611c80906137a5565b60405180910390fd5b6001609760006101000a81548160ff0219169083151502179055507f62e78cea01bee320cd4e420270b5ea74000d11b0c9f74754ebdbfc544b05a258611ccd611a61565b604051611cda9190613504565b60405180910390a1565b6001816000016000828254019250508190555050565b600081600001549050919050565b600073ffffffffffffffffffffffffffffffffffffffff168473ffffffffffffffffffffffffffffffffffffffff161415611d78576040517f08c379a0000000000000000000000000000000000000000000000000000000008152600401611d6f906138c5565b60405180910390fd5b6000611d82611a61565b9050611da381600087611d9488611e9f565b611d9d88611e9f565b87611a69565b826065600086815260200190815260200160002060008773ffffffffffffffffffffffffffffffffffffffff1673ffffffffffffffffffffffffffffffffffffffff1681526020019081526020016000206000828254611e039190613aa3565b925050819055508473ffffffffffffffffffffffffffffffffffffffff16600073ffffffffffffffffffffffffffffffffffffffff168273ffffffffffffffffffffffffffffffffffffffff167fc3d58168c5ae7397731d063d5bbf3d657854427343f4c083240f7aacaa2d0f628787604051611e81929190613920565b60405180910390a4611e9881600087878787611f65565b5050505050565b60606000600167ffffffffffffffff811115611ee4577f4e487b7100000000000000000000000000000000000000000000000000000000600052604160045260246000fd5b604051908082528060200260200182016040528015611f125781602001602082028036833780820191505090505b5090508281600081518110611f50577f4e487b7100000000000000000000000000000000000000000000000000000000600052603260045260246000fd5b60200260200101818152505080915050919050565b611f848473ffffffffffffffffffffffffffffffffffffffff16612640565b1561212d578373ffffffffffffffffffffffffffffffffffffffff1663f23a6e6187878686866040518663ffffffff1660e01b8152600401611fca9594939291906135be565b602060405180830381600087803b158015611fe457600080fd5b505af192505050801561201557506040513d601f19601f820116820180604052508101906120129190612cf9565b60015b6120a457612021613d09565b8061202c5750612069565b806040517f08c379a000000000000000000000000000000000000000000000000000000000815260040161206091906136c3565b60405180910390fd5b6040517f08c379a000000000000000000000000000000000000000000000000000000000815260040161209b906136e5565b60405180910390fd5b63f23a6e6160e01b7bffffffffffffffffffffffffffffffffffffffffffffffffffffffff1916817bffffffffffffffffffffffffffffffffffffffffffffffffffffffff19161461212b576040517f08c379a000000000000000000000000000000000000000000000000000000000815260040161212290613705565b60405180910390fd5b505b505050505050565b600060019054906101000a900460ff168061215b575060008054906101000a900460ff16155b61219a576040517f08c379a000000000000000000000000000000000000000000000000000000000815260040161219190613805565b60405180910390fd5b60008060019054906101000a900460ff1615905080156121ea576001600060016101000a81548160ff02191690831515021790555060016000806101000a81548160ff0219169083151502179055505b801561220b5760008060016101000a81548160ff0219169083151502179055505b50565b600060019054906101000a900460ff1680612234575060008054906101000a900460ff16155b612273576040517f08c379a000000000000000000000000000000000000000000000000000000000815260040161226a90613805565b60405180910390fd5b60008060019054906101000a900460ff1615905080156122c3576001600060016101000a81548160ff02191690831515021790555060016000806101000a81548160ff0219169083151502179055505b80156122e45760008060016101000a81548160ff0219169083151502179055505b50565b600060019054906101000a900460ff168061230d575060008054906101000a900460ff16155b61234c576040517f08c379a000000000000000000000000000000000000000000000000000000000815260040161234390613805565b60405180910390fd5b60008060019054906101000a900460ff16159050801561239c576001600060016101000a81548160ff02191690831515021790555060016000806101000a81548160ff0219169083151502179055505b6000609760006101000a81548160ff02191690831515021790555080156123d85760008060016101000a81548160ff0219169083151502179055505b50565b600060019054906101000a900460ff1680612401575060008054906101000a900460ff16155b612440576040517f08c379a000000000000000000000000000000000000000000000000000000000815260040161243790613805565b60405180910390fd5b60008060019054906101000a900460ff161590508015612490576001600060016101000a81548160ff02191690831515021790555060016000806101000a81548160ff0219169083151502179055505b61249982612653565b80156124ba5760008060016101000a81548160ff0219169083151502179055505b5050565b600060019054906101000a900460ff16806124e4575060008054906101000a900460ff16155b612523576040517f08c379a000000000000000000000000000000000000000000000000000000000815260040161251a90613805565b60405180910390fd5b60008060019054906101000a900460ff161590508015612573576001600060016101000a81548160ff02191690831515021790555060016000806101000a81548160ff0219169083151502179055505b600061257d611a61565b90508060c960006101000a81548173ffffffffffffffffffffffffffffffffffffffff021916908373ffffffffffffffffffffffffffffffffffffffff1602179055508073ffffffffffffffffffffffffffffffffffffffff16600073ffffffffffffffffffffffffffffffffffffffff167f8be0079c531659141344cd1fd0a4f28419497f9722a3daafe3b4186f6b6457e060405160405180910390a350801561263d5760008060016101000a81548160ff0219169083151502179055505b50565b600080823b905060008111915050919050565b80606790805190602001906126699291906126a4565b5050565b6040518060600160405280600073ffffffffffffffffffffffffffffffffffffffff16815260200160008152602001600081525090565b8280546126b090613be3565b90600052602060002090601f0160209004810192826126d25760008555612719565b82601f106126eb57805160ff1916838001178555612719565b82800160010185558215612719579182015b828111156127185782518255916020019190600101906126fd565b5b509050612726919061272a565b5090565b5b8082111561274357600081600090555060010161272b565b5090565b600061275a6127558461397a565b613949565b9050808382526020820190508285602086028201111561277957600080fd5b60005b858110156127a9578161278f888261289b565b84526020840193506020830192505060018101905061277c565b5050509392505050565b60006127c66127c1846139a6565b613949565b905080838252602082019050828560208602820111156127e557600080fd5b60005b8581101561281557816127fb88826129ac565b8452602084019350602083019250506001810190506127e8565b5050509392505050565b600061283261282d846139d2565b613949565b90508281526020810184848401111561284a57600080fd5b612855848285613ba1565b509392505050565b600061287061286b84613a02565b613949565b90508281526020810184848401111561288857600080fd5b612893848285613ba1565b509392505050565b6000813590506128aa81613dbf565b92915050565b6000815190506128bf81613dbf565b92915050565b600082601f8301126128d657600080fd5b81356128e6848260208601612747565b91505092915050565b600082601f83011261290057600080fd5b81356129108482602086016127b3565b91505092915050565b60008135905061292881613dd6565b92915050565b60008135905061293d81613ded565b92915050565b60008151905061295281613ded565b92915050565b600082601f83011261296957600080fd5b813561297984826020860161281f565b91505092915050565b600082601f83011261299357600080fd5b81356129a384826020860161285d565b91505092915050565b6000813590506129bb81613e04565b92915050565b6000602082840312156129d357600080fd5b60006129e18482850161289b565b91505092915050565b6000602082840312156129fc57600080fd5b6000612a0a848285016128b0565b91505092915050565b60008060408385031215612a2657600080fd5b6000612a348582860161289b565b9250506020612a458582860161289b565b9150509250929050565b600080600080600060a08688031215612a6757600080fd5b6000612a758882890161289b565b9550506020612a868882890161289b565b945050604086013567ffffffffffffffff811115612aa357600080fd5b612aaf888289016128ef565b935050606086013567ffffffffffffffff811115612acc57600080fd5b612ad8888289016128ef565b925050608086013567ffffffffffffffff811115612af557600080fd5b612b0188828901612958565b9150509295509295909350565b600080600080600060a08688031215612b2657600080fd5b6000612b348882890161289b565b9550506020612b458882890161289b565b9450506040612b56888289016129ac565b9350506060612b67888289016129ac565b925050608086013567ffffffffffffffff811115612b8457600080fd5b612b9088828901612958565b9150509295509295909350565b60008060408385031215612bb057600080fd5b6000612bbe8582860161289b565b9250506020612bcf85828601612919565b9150509250929050565b60008060408385031215612bec57600080fd5b6000612bfa8582860161289b565b9250506020612c0b858286016129ac565b9150509250929050565b600080600060608486031215612c2a57600080fd5b6000612c388682870161289b565b9350506020612c49868287016129ac565b9250506040612c5a868287016129ac565b9150509250925092565b60008060408385031215612c7757600080fd5b600083013567ffffffffffffffff811115612c9157600080fd5b612c9d858286016128c5565b925050602083013567ffffffffffffffff811115612cba57600080fd5b612cc6858286016128ef565b9150509250929050565b600060208284031215612ce257600080fd5b6000612cf08482850161292e565b91505092915050565b600060208284031215612d0b57600080fd5b6000612d1984828501612943565b91505092915050565b600060208284031215612d3457600080fd5b600082013567ffffffffffffffff811115612d4e57600080fd5b612d5a84828501612982565b91505092915050565b600060208284031215612d7557600080fd5b6000612d83848285016129ac565b91505092915050565b6000612d9883836134e6565b60208301905092915050565b612dad81613b2d565b82525050565b6000612dbe82613a42565b612dc88185613a70565b9350612dd383613a32565b8060005b83811015612e04578151612deb8882612d8c565b9750612df683613a63565b925050600181019050612dd7565b5085935050505092915050565b612e1a81613b3f565b82525050565b6000612e2b82613a4d565b612e358185613a81565b9350612e45818560208601613bb0565b612e4e81613ceb565b840191505092915050565b6000612e6482613a58565b612e6e8185613a92565b9350612e7e818560208601613bb0565b612e8781613ceb565b840191505092915050565b6000612e9f603483613a92565b91507f455243313135353a207472616e7366657220746f206e6f6e204552433131353560008301527f526563656976657220696d706c656d656e7465720000000000000000000000006020830152604082019050919050565b6000612f05602883613a92565b91507f455243313135353a204552433131353552656365697665722072656a6563746560008301527f6420746f6b656e730000000000000000000000000000000000000000000000006020830152604082019050919050565b6000612f6b602a83613a92565b91507f6d73672073656e6465722068617320746f206f776e2074686520746f6b656e2060008301527f746f206465706f736974000000000000000000000000000000000000000000006020830152604082019050919050565b6000612fd1602b83613a92565b91507f455243313135353a2062616c616e636520717565727920666f7220746865207a60008301527f65726f20616464726573730000000000000000000000000000000000000000006020830152604082019050919050565b6000613037602683613a92565b91507f4f776e61626c653a206e6577206f776e657220697320746865207a65726f206160008301527f64647265737300000000000000000000000000000000000000000000000000006020830152604082019050919050565b600061309d602983613a92565b91507f455243313135353a2063616c6c6572206973206e6f74206f776e6572206e6f7260008301527f20617070726f76656400000000000000000000000000000000000000000000006020830152604082019050919050565b6000613103601083613a92565b91507f5061757361626c653a20706175736564000000000000000000000000000000006000830152602082019050919050565b6000613143602583613a92565b91507f455243313135353a207472616e7366657220746f20746865207a65726f20616460008301527f64726573730000000000000000000000000000000000000000000000000000006020830152604082019050919050565b60006131a9603283613a92565b91507f455243313135353a207472616e736665722063616c6c6572206973206e6f742060008301527f6f776e6572206e6f7220617070726f76656400000000000000000000000000006020830152604082019050919050565b600061320f602e83613a92565b91507f496e697469616c697a61626c653a20636f6e747261637420697320616c72656160008301527f647920696e697469616c697a65640000000000000000000000000000000000006020830152604082019050919050565b6000613275602a83613a92565b91507f455243313135353a20696e73756666696369656e742062616c616e636520666f60008301527f72207472616e73666572000000000000000000000000000000000000000000006020830152604082019050919050565b60006132db602083613a92565b91507f4f776e61626c653a2063616c6c6572206973206e6f7420746865206f776e65726000830152602082019050919050565b600061331b602983613a92565b91507f455243313135353a2073657474696e6720617070726f76616c2073746174757360008301527f20666f722073656c6600000000000000000000000000000000000000000000006020830152604082019050919050565b6000613381602983613a92565b91507f455243313135353a206163636f756e747320616e6420696473206c656e67746860008301527f206d69736d6174636800000000000000000000000000000000000000000000006020830152604082019050919050565b60006133e7602883613a92565b91507f455243313135353a2069647320616e6420616d6f756e7473206c656e6774682060008301527f6d69736d617463680000000000000000000000000000000000000000000000006020830152604082019050919050565b600061344d602183613a92565b91507f455243313135353a206d696e7420746f20746865207a65726f2061646472657360008301527f73000000000000000000000000000000000000000000000000000000000000006020830152604082019050919050565b60006134b3601883613a92565b91507f4e6f7420616c6c6f776564207768696c652070617573656400000000000000006000830152602082019050919050565b6134ef81613b97565b82525050565b6134fe81613b97565b82525050565b60006020820190506135196000830184612da4565b92915050565b600060a0820190506135346000830188612da4565b6135416020830187612da4565b81810360408301526135538186612db3565b905081810360608301526135678185612db3565b9050818103608083015261357b8184612e20565b90509695505050505050565b600060608201905061359c6000830186612da4565b6135a96020830185612da4565b6135b660408301846134f5565b949350505050565b600060a0820190506135d36000830188612da4565b6135e06020830187612da4565b6135ed60408301866134f5565b6135fa60608301856134f5565b818103608083015261360c8184612e20565b90509695505050505050565b600060608201905061362d6000830186612da4565b61363a60208301856134f5565b61364760408301846134f5565b949350505050565b600060208201905081810360008301526136698184612db3565b905092915050565b6000604082019050818103600083015261368b8185612db3565b9050818103602083015261369f8184612db3565b90509392505050565b60006020820190506136bd6000830184612e11565b92915050565b600060208201905081810360008301526136dd8184612e59565b905092915050565b600060208201905081810360008301526136fe81612e92565b9050919050565b6000602082019050818103600083015261371e81612ef8565b9050919050565b6000602082019050818103600083015261373e81612f5e565b9050919050565b6000602082019050818103600083015261375e81612fc4565b9050919050565b6000602082019050818103600083015261377e8161302a565b9050919050565b6000602082019050818103600083015261379e81613090565b9050919050565b600060208201905081810360008301526137be816130f6565b9050919050565b600060208201905081810360008301526137de81613136565b9050919050565b600060208201905081810360008301526137fe8161319c565b9050919050565b6000602082019050818103600083015261381e81613202565b9050919050565b6000602082019050818103600083015261383e81613268565b9050919050565b6000602082019050818103600083015261385e816132ce565b9050919050565b6000602082019050818103600083015261387e8161330e565b9050919050565b6000602082019050818103600083015261389e81613374565b9050919050565b600060208201905081810360008301526138be816133da565b9050919050565b600060208201905081810360008301526138de81613440565b9050919050565b600060208201905081810360008301526138fe816134a6565b9050919050565b600060208201905061391a60008301846134f5565b92915050565b600060408201905061393560008301856134f5565b61394260208301846134f5565b9392505050565b6000604051905081810181811067ffffffffffffffff821117156139705761396f613cbc565b5b8060405250919050565b600067ffffffffffffffff82111561399557613994613cbc565b5b602082029050602081019050919050565b600067ffffffffffffffff8211156139c1576139c0613cbc565b5b602082029050602081019050919050565b600067ffffffffffffffff8211156139ed576139ec613cbc565b5b601f19601f8301169050602081019050919050565b600067ffffffffffffffff821115613a1d57613a1c613cbc565b5b601f19601f8301169050602081019050919050565b6000819050602082019050919050565b600081519050919050565b600081519050919050565b600081519050919050565b6000602082019050919050565b600082825260208201905092915050565b600082825260208201905092915050565b600082825260208201905092915050565b6000613aae82613b97565b9150613ab983613b97565b9250827fffffffffffffffffffffffffffffffffffffffffffffffffffffffffffffffff03821115613aee57613aed613c5e565b5b828201905092915050565b6000613b0482613b97565b9150613b0f83613b97565b925082821015613b2257613b21613c5e565b5b828203905092915050565b6000613b3882613b77565b9050919050565b60008115159050919050565b60007fffffffff0000000000000000000000000000000000000000000000000000000082169050919050565b600073ffffffffffffffffffffffffffffffffffffffff82169050919050565b6000819050919050565b82818337600083830152505050565b60005b83811015613bce578082015181840152602081019050613bb3565b83811115613bdd576000848401525b50505050565b60006002820490506001821680613bfb57607f821691505b60208210811415613c0f57613c0e613c8d565b5b50919050565b6000613c2082613b97565b91507fffffffffffffffffffffffffffffffffffffffffffffffffffffffffffffffff821415613c5357613c52613c5e565b5b600182019050919050565b7f4e487b7100000000000000000000000000000000000000000000000000000000600052601160045260246000fd5b7f4e487b7100000000000000000000000000000000000000000000000000000000600052602260045260246000fd5b7f4e487b7100000000000000000000000000000000000000000000000000000000600052604160045260246000fd5b6000601f19601f8301169050919050565b60008160e01c9050919050565b600060443d1015613d1957613dbc565b60046000803e613d2a600051613cfc565b6308c379a08114613d3b5750613dbc565b60405160043d036004823e80513d602482011167ffffffffffffffff82111715613d6757505050613dbc565b808201805167ffffffffffffffff811115613d86575050505050613dbc565b8060208301013d8501811115613da157505050505050613dbc565b613daa82613ceb565b60208401016040528296505050505050505b90565b613dc881613b2d565b8114613dd357600080fd5b50565b613ddf81613b3f565b8114613dea57600080fd5b50565b613df681613b4b565b8114613e0157600080fd5b50565b613e0d81613b97565b8114613e1857600080fd5b5056fea264697066735822122083c4cc799d644fd3c97234a806b1245d2775b8e6a3a81ee813b8b91f293d71a464736f6c63430008000033",
  "immutableReferences": {},
  "source": "// SPDX-License-Identifier: MIT\n\npragma solidity ^0.8.0;\n\nimport \"@openzeppelin/contracts-upgradeable/token/ERC1155/ERC1155Upgradeable.sol\";\nimport \"@openzeppelin/contracts-upgradeable/security/PausableUpgradeable.sol\";\nimport \"@openzeppelin/contracts-upgradeable/proxy/utils/Initializable.sol\";\nimport \"@openzeppelin/contracts/token/ERC721/IERC721.sol\";\nimport \"@openzeppelin/contracts-upgradeable/utils/CountersUpgradeable.sol\";\nimport \"@openzeppelin/contracts-upgradeable/access/OwnableUpgradeable.sol\";\n\ncontract NftFractionsDex is\n    Initializable,\n    ERC1155Upgradeable,\n    PausableUpgradeable,\n    OwnableUpgradeable\n{\n    using CountersUpgradeable for CountersUpgradeable.Counter;\n    CountersUpgradeable.Counter private _ids;\n\n    struct Token {\n        address erc721ContractAddress;\n        uint256 erc721TokenId;\n        uint256 totalFractionsAmount;\n    }\n\n    mapping(address => uint256[]) tokenIdsByShareOwner;\n    mapping(uint256 => Token) tokens;\n    uint256[] tokenIds;\n\n    function initialize(string memory uri_) public initializer {\n        __Context_init_unchained();\n        __ERC165_init_unchained();\n        __Pausable_init_unchained();\n        __ERC1155_init_unchained(uri_);\n        __Ownable_init_unchained();\n    }\n\n    /**\n     * @dev Deposit an ERC721 token and mints an ERC1155 token with the given fractions amount\n     * the original ERC721 token is transferred to the address of this smart contract.\n     * Before calling this function the user has to call the apporve function on the original NFT contract and\n     * approve this smart contract to transfer his NFT.\n     *\n     * Requirements:\n     * - msg.sender has to own the token that is deposited\n     */\n    function depositNft(\n        address erc721ContractAddress,\n        uint256 erc721TokenId,\n        uint256 fractionsAmountToMint\n    ) external {\n        require(!paused(), \"Not allowed while paused\");\n        IERC721 erc721Contract = IERC721(erc721ContractAddress);\n        require(\n            erc721Contract.ownerOf(erc721TokenId) == msg.sender,\n            \"msg sender has to own the token to deposit\"\n        );\n        erc721Contract.transferFrom(msg.sender, address(this), erc721TokenId);\n        _ids.increment();\n        uint256 newItemId = _ids.current();\n        _mint(msg.sender, newItemId, fractionsAmountToMint, \"\");\n        Token memory token;\n        token.erc721ContractAddress = erc721ContractAddress;\n        token.erc721TokenId = erc721TokenId;\n        token.totalFractionsAmount = fractionsAmountToMint;\n        tokens[newItemId] = token;\n        tokenIdsByShareOwner[msg.sender].push(newItemId);\n        tokenIds.push(newItemId);\n    }\n\n    /**\n     * @dev returns relevant token data:\n     * - original ERC721 contract address\n     * - original ERC721 token id\n     * - amount of fractions minted\n     */\n    function getTokenData(uint256 _tokenId)\n        public\n        view\n        returns (\n            address erc721ContractAddress,\n            uint256 erc721TokenId,\n            uint256 totalFractionsAmount\n        )\n    {\n        return (\n            tokens[_tokenId].erc721ContractAddress,\n            tokens[_tokenId].erc721TokenId,\n            tokens[_tokenId].totalFractionsAmount\n        );\n    }\n\n    function pause() public onlyOwner() {\n        _pause();\n    }\n\n    function getTokenIdsByShareOwner(address shareOwner)\n        public\n        view\n        returns (uint256[] memory)\n    {\n        return tokenIdsByShareOwner[shareOwner];\n    }\n\n    function getTokenIds() public view returns (uint256[] memory) {\n        return tokenIds;\n    }\n}\n",
  "sourcePath": "/Users/szabolcs/Documents/Personal/Szakmai/Ethereum/nft-fractions-dex/contracts/NftFractionsDex.sol",
  "compiler": {
    "name": "solc",
    "version": "0.8.0+commit.c7dfd78e.Emscripten.clang"
  },
  "schemaVersion": "3.3.4",
  "updatedAt": "2021-04-02T15:25:04.873Z",
  "networkType": "ethereum",
  "devdoc": {
    "kind": "dev",
    "methods": {
      "balanceOf(address,uint256)": {
        "details": "See {IERC1155-balanceOf}. Requirements: - `account` cannot be the zero address."
      },
      "balanceOfBatch(address[],uint256[])": {
        "details": "See {IERC1155-balanceOfBatch}. Requirements: - `accounts` and `ids` must have the same length."
      },
      "depositNft(address,uint256,uint256)": {
        "details": "Deposit an ERC721 token and mints an ERC1155 token with the given fractions amount the original ERC721 token is transferred to the address of this smart contract. Before calling this function the user has to call the apporve function on the original NFT contract and approve this smart contract to transfer his NFT. Requirements: - msg.sender has to own the token that is deposited"
      },
      "getTokenData(uint256)": {
        "details": "returns relevant token data: - original ERC721 contract address - original ERC721 token id - amount of fractions minted"
      },
      "isApprovedForAll(address,address)": {
        "details": "See {IERC1155-isApprovedForAll}."
      },
      "owner()": {
        "details": "Returns the address of the current owner."
      },
      "paused()": {
        "details": "Returns true if the contract is paused, and false otherwise."
      },
      "renounceOwnership()": {
        "details": "Leaves the contract without owner. It will not be possible to call `onlyOwner` functions anymore. Can only be called by the current owner. NOTE: Renouncing ownership will leave the contract without an owner, thereby removing any functionality that is only available to the owner."
      },
      "safeBatchTransferFrom(address,address,uint256[],uint256[],bytes)": {
        "details": "See {IERC1155-safeBatchTransferFrom}."
      },
      "safeTransferFrom(address,address,uint256,uint256,bytes)": {
        "details": "See {IERC1155-safeTransferFrom}."
      },
      "setApprovalForAll(address,bool)": {
        "details": "See {IERC1155-setApprovalForAll}."
      },
      "supportsInterface(bytes4)": {
        "details": "See {IERC165-supportsInterface}."
      },
      "transferOwnership(address)": {
        "details": "Transfers ownership of the contract to a new account (`newOwner`). Can only be called by the current owner."
      },
      "uri(uint256)": {
        "details": "See {IERC1155MetadataURI-uri}. This implementation returns the same URI for *all* token types. It relies on the token type ID substitution mechanism https://eips.ethereum.org/EIPS/eip-1155#metadata[defined in the EIP]. Clients calling this function must replace the `\\{id\\}` substring with the actual token type ID."
      }
    },
    "version": 1
  },
  "userdoc": {
    "kind": "user",
    "methods": {},
    "version": 1
  }
}