{
  "contractName": "NftFractionsDex",
  "abi": [
    {
      "anonymous": false,
      "inputs": [
        {
          "indexed": true,
          "internalType": "address",
          "name": "account",
          "type": "address"
        },
        {
          "indexed": true,
          "internalType": "address",
          "name": "operator",
          "type": "address"
        },
        {
          "indexed": false,
          "internalType": "bool",
          "name": "approved",
          "type": "bool"
        }
      ],
      "name": "ApprovalForAll",
      "type": "event"
    },
    {
      "anonymous": false,
      "inputs": [
        {
          "indexed": true,
          "internalType": "address",
          "name": "previousOwner",
          "type": "address"
        },
        {
          "indexed": true,
          "internalType": "address",
          "name": "newOwner",
          "type": "address"
        }
      ],
      "name": "OwnershipTransferred",
      "type": "event"
    },
    {
      "anonymous": false,
      "inputs": [
        {
          "indexed": false,
          "internalType": "address",
          "name": "account",
          "type": "address"
        }
      ],
      "name": "Paused",
      "type": "event"
    },
    {
      "anonymous": false,
      "inputs": [
        {
          "indexed": true,
          "internalType": "address",
          "name": "operator",
          "type": "address"
        },
        {
          "indexed": true,
          "internalType": "address",
          "name": "from",
          "type": "address"
        },
        {
          "indexed": true,
          "internalType": "address",
          "name": "to",
          "type": "address"
        },
        {
          "indexed": false,
          "internalType": "uint256[]",
          "name": "ids",
          "type": "uint256[]"
        },
        {
          "indexed": false,
          "internalType": "uint256[]",
          "name": "values",
          "type": "uint256[]"
        }
      ],
      "name": "TransferBatch",
      "type": "event"
    },
    {
      "anonymous": false,
      "inputs": [
        {
          "indexed": true,
          "internalType": "address",
          "name": "operator",
          "type": "address"
        },
        {
          "indexed": true,
          "internalType": "address",
          "name": "from",
          "type": "address"
        },
        {
          "indexed": true,
          "internalType": "address",
          "name": "to",
          "type": "address"
        },
        {
          "indexed": false,
          "internalType": "uint256",
          "name": "id",
          "type": "uint256"
        },
        {
          "indexed": false,
          "internalType": "uint256",
          "name": "value",
          "type": "uint256"
        }
      ],
      "name": "TransferSingle",
      "type": "event"
    },
    {
      "anonymous": false,
      "inputs": [
        {
          "indexed": false,
          "internalType": "string",
          "name": "value",
          "type": "string"
        },
        {
          "indexed": true,
          "internalType": "uint256",
          "name": "id",
          "type": "uint256"
        }
      ],
      "name": "URI",
      "type": "event"
    },
    {
      "anonymous": false,
      "inputs": [
        {
          "indexed": false,
          "internalType": "address",
          "name": "account",
          "type": "address"
        }
      ],
      "name": "Unpaused",
      "type": "event"
    },
    {
      "inputs": [
        {
          "internalType": "address",
          "name": "account",
          "type": "address"
        },
        {
          "internalType": "uint256",
          "name": "id",
          "type": "uint256"
        }
      ],
      "name": "balanceOf",
      "outputs": [
        {
          "internalType": "uint256",
          "name": "",
          "type": "uint256"
        }
      ],
      "stateMutability": "view",
      "type": "function",
      "constant": true
    },
    {
      "inputs": [
        {
          "internalType": "address[]",
          "name": "accounts",
          "type": "address[]"
        },
        {
          "internalType": "uint256[]",
          "name": "ids",
          "type": "uint256[]"
        }
      ],
      "name": "balanceOfBatch",
      "outputs": [
        {
          "internalType": "uint256[]",
          "name": "",
          "type": "uint256[]"
        }
      ],
      "stateMutability": "view",
      "type": "function",
      "constant": true
    },
    {
      "inputs": [
        {
          "internalType": "address",
          "name": "account",
          "type": "address"
        },
        {
          "internalType": "address",
          "name": "operator",
          "type": "address"
        }
      ],
      "name": "isApprovedForAll",
      "outputs": [
        {
          "internalType": "bool",
          "name": "",
          "type": "bool"
        }
      ],
      "stateMutability": "view",
      "type": "function",
      "constant": true
    },
    {
      "inputs": [],
      "name": "owner",
      "outputs": [
        {
          "internalType": "address",
          "name": "",
          "type": "address"
        }
      ],
      "stateMutability": "view",
      "type": "function",
      "constant": true
    },
    {
      "inputs": [],
      "name": "paused",
      "outputs": [
        {
          "internalType": "bool",
          "name": "",
          "type": "bool"
        }
      ],
      "stateMutability": "view",
      "type": "function",
      "constant": true
    },
    {
      "inputs": [],
      "name": "renounceOwnership",
      "outputs": [],
      "stateMutability": "nonpayable",
      "type": "function"
    },
    {
      "inputs": [
        {
          "internalType": "address",
          "name": "from",
          "type": "address"
        },
        {
          "internalType": "address",
          "name": "to",
          "type": "address"
        },
        {
          "internalType": "uint256[]",
          "name": "ids",
          "type": "uint256[]"
        },
        {
          "internalType": "uint256[]",
          "name": "amounts",
          "type": "uint256[]"
        },
        {
          "internalType": "bytes",
          "name": "data",
          "type": "bytes"
        }
      ],
      "name": "safeBatchTransferFrom",
      "outputs": [],
      "stateMutability": "nonpayable",
      "type": "function"
    },
    {
      "inputs": [
        {
          "internalType": "address",
          "name": "from",
          "type": "address"
        },
        {
          "internalType": "address",
          "name": "to",
          "type": "address"
        },
        {
          "internalType": "uint256",
          "name": "id",
          "type": "uint256"
        },
        {
          "internalType": "uint256",
          "name": "amount",
          "type": "uint256"
        },
        {
          "internalType": "bytes",
          "name": "data",
          "type": "bytes"
        }
      ],
      "name": "safeTransferFrom",
      "outputs": [],
      "stateMutability": "nonpayable",
      "type": "function"
    },
    {
      "inputs": [
        {
          "internalType": "address",
          "name": "operator",
          "type": "address"
        },
        {
          "internalType": "bool",
          "name": "approved",
          "type": "bool"
        }
      ],
      "name": "setApprovalForAll",
      "outputs": [],
      "stateMutability": "nonpayable",
      "type": "function"
    },
    {
      "inputs": [
        {
          "internalType": "bytes4",
          "name": "interfaceId",
          "type": "bytes4"
        }
      ],
      "name": "supportsInterface",
      "outputs": [
        {
          "internalType": "bool",
          "name": "",
          "type": "bool"
        }
      ],
      "stateMutability": "view",
      "type": "function",
      "constant": true
    },
    {
      "inputs": [
        {
          "internalType": "address",
          "name": "newOwner",
          "type": "address"
        }
      ],
      "name": "transferOwnership",
      "outputs": [],
      "stateMutability": "nonpayable",
      "type": "function"
    },
    {
      "inputs": [
        {
          "internalType": "uint256",
          "name": "",
          "type": "uint256"
        }
      ],
      "name": "uri",
      "outputs": [
        {
          "internalType": "string",
          "name": "",
          "type": "string"
        }
      ],
      "stateMutability": "view",
      "type": "function",
      "constant": true
    },
    {
      "inputs": [
        {
          "internalType": "string",
          "name": "uri_",
          "type": "string"
        }
      ],
      "name": "initialize",
      "outputs": [],
      "stateMutability": "nonpayable",
      "type": "function"
    },
    {
      "inputs": [
        {
          "internalType": "address",
          "name": "originalContractAddress",
          "type": "address"
        },
        {
          "internalType": "uint256",
          "name": "originalTokenId",
          "type": "uint256"
        },
        {
          "internalType": "uint256",
          "name": "fractionsAmountToMint",
          "type": "uint256"
        }
      ],
      "name": "depositNft",
      "outputs": [],
      "stateMutability": "nonpayable",
      "type": "function"
    },
    {
      "inputs": [
        {
          "internalType": "uint256",
          "name": "tokenId",
          "type": "uint256"
        }
      ],
      "name": "getTokenData",
      "outputs": [
        {
          "internalType": "address",
          "name": "originalContract",
          "type": "address"
        },
        {
          "internalType": "uint256",
          "name": "originalTokenId",
          "type": "uint256"
        },
        {
          "internalType": "uint256",
          "name": "fractionsAmount",
          "type": "uint256"
        }
      ],
      "stateMutability": "view",
      "type": "function",
      "constant": true
    },
    {
      "inputs": [],
      "name": "pause",
      "outputs": [],
      "stateMutability": "nonpayable",
      "type": "function"
    }
  ],
  "bytecode": "0x608060405234801561001057600080fd5b50613c69806100206000396000f3fe608060405234801561001057600080fd5b50600436106100ff5760003560e01c80638da5cb5b11610097578063e985e9c511610066578063e985e9c51461029a578063f242432a146102ca578063f2fde38b146102e6578063f62d188814610302576100ff565b80638da5cb5b14610212578063a22cb46514610230578063b09afec11461024c578063e09a3cb41461027e576100ff565b80634e1273f4116100d35780634e1273f4146101b05780635c975abb146101e0578063715018a6146101fe5780638456cb5914610208576100ff565b8062fdd58e1461010457806301ffc9a7146101345780630e89341c146101645780632eb2c2d614610194575b600080fd5b61011e600480360381019061011991906129f1565b61031e565b60405161012b919061371d565b60405180910390f35b61014e60048036038101906101499190612ae8565b6103e8565b60405161015b91906134c0565b60405180910390f35b61017e60048036038101906101799190612b7b565b6104ca565b60405161018b91906134db565b60405180910390f35b6101ae60048036038101906101a99190612867565b61055e565b005b6101ca60048036038101906101c59190612a7c565b610957565b6040516101d79190613467565b60405180910390f35b6101e8610b08565b6040516101f591906134c0565b60405180910390f35b610206610b1f565b005b610210610c5c565b005b61021a610ce2565b604051610227919061331c565b60405180910390f35b61024a600480360381019061024591906129b5565b610d0c565b005b61026660048036038101906102619190612b7b565b610e8d565b60405161027593929190613430565b60405180910390f35b61029860048036038101906102939190612a2d565b610f01565b005b6102b460048036038101906102af919061282b565b6111b8565b6040516102c191906134c0565b60405180910390f35b6102e460048036038101906102df9190612926565b61124c565b005b61030060048036038101906102fb91906127d9565b611567565b005b61031c60048036038101906103179190612b3a565b611713565b005b60008073ffffffffffffffffffffffffffffffffffffffff168373ffffffffffffffffffffffffffffffffffffffff16141561038f576040517f08c379a00000000000000000000000000000000000000000000000000000000081526004016103869061355d565b60405180910390fd5b6065600083815260200190815260200160002060008473ffffffffffffffffffffffffffffffffffffffff1673ffffffffffffffffffffffffffffffffffffffff16815260200190815260200160002054905092915050565b60007fd9b67a26000000000000000000000000000000000000000000000000000000007bffffffffffffffffffffffffffffffffffffffffffffffffffffffff1916827bffffffffffffffffffffffffffffffffffffffffffffffffffffffff191614806104b357507f0e89341c000000000000000000000000000000000000000000000000000000007bffffffffffffffffffffffffffffffffffffffffffffffffffffffff1916827bffffffffffffffffffffffffffffffffffffffffffffffffffffffff1916145b806104c357506104c282611816565b5b9050919050565b6060606780546104d9906139fb565b80601f0160208091040260200160405190810160405280929190818152602001828054610505906139fb565b80156105525780601f1061052757610100808354040283529160200191610552565b820191906000526020600020905b81548152906001019060200180831161053557829003601f168201915b50505050509050919050565b81518351146105a2576040517f08c379a0000000000000000000000000000000000000000000000000000000008152600401610599906136bd565b60405180910390fd5b600073ffffffffffffffffffffffffffffffffffffffff168473ffffffffffffffffffffffffffffffffffffffff161415610612576040517f08c379a0000000000000000000000000000000000000000000000000000000008152600401610609906135dd565b60405180910390fd5b61061a611880565b73ffffffffffffffffffffffffffffffffffffffff168573ffffffffffffffffffffffffffffffffffffffff161480610660575061065f8561065a611880565b6111b8565b5b61069f576040517f08c379a0000000000000000000000000000000000000000000000000000000008152600401610696906135fd565b60405180910390fd5b60006106a9611880565b90506106b9818787878787611888565b60005b84518110156108c2576000858281518110610700577f4e487b7100000000000000000000000000000000000000000000000000000000600052603260045260246000fd5b602002602001015190506000858381518110610745577f4e487b7100000000000000000000000000000000000000000000000000000000600052603260045260246000fd5b6020026020010151905060006065600084815260200190815260200160002060008b73ffffffffffffffffffffffffffffffffffffffff1673ffffffffffffffffffffffffffffffffffffffff168152602001908152602001600020549050818110156107e7576040517f08c379a00000000000000000000000000000000000000000000000000000000081526004016107de9061363d565b60405180910390fd5b81816107f39190613911565b6065600085815260200190815260200160002060008c73ffffffffffffffffffffffffffffffffffffffff1673ffffffffffffffffffffffffffffffffffffffff16815260200190815260200160002081905550816065600085815260200190815260200160002060008b73ffffffffffffffffffffffffffffffffffffffff1673ffffffffffffffffffffffffffffffffffffffff16815260200190815260200160002060008282546108a791906138bb565b92505081905550505050806108bb90613a2d565b90506106bc565b508473ffffffffffffffffffffffffffffffffffffffff168673ffffffffffffffffffffffffffffffffffffffff168273ffffffffffffffffffffffffffffffffffffffff167f4a39dc06d4c0dbc64b70af90fd698a233a518aa5d07e595d983b8c0526c8f7fb8787604051610939929190613489565b60405180910390a461094f818787878787611890565b505050505050565b6060815183511461099d576040517f08c379a00000000000000000000000000000000000000000000000000000000081526004016109949061369d565b60405180910390fd5b6000835167ffffffffffffffff8111156109e0577f4e487b7100000000000000000000000000000000000000000000000000000000600052604160045260246000fd5b604051908082528060200260200182016040528015610a0e5781602001602082028036833780820191505090505b50905060005b8451811015610afd57610aa7858281518110610a59577f4e487b7100000000000000000000000000000000000000000000000000000000600052603260045260246000fd5b6020026020010151858381518110610a9a577f4e487b7100000000000000000000000000000000000000000000000000000000600052603260045260246000fd5b602002602001015161031e565b828281518110610ae0577f4e487b7100000000000000000000000000000000000000000000000000000000600052603260045260246000fd5b60200260200101818152505080610af690613a2d565b9050610a14565b508091505092915050565b6000609760009054906101000a900460ff16905090565b610b27611880565b73ffffffffffffffffffffffffffffffffffffffff16610b45610ce2565b73ffffffffffffffffffffffffffffffffffffffff1614610b9b576040517f08c379a0000000000000000000000000000000000000000000000000000000008152600401610b929061365d565b60405180910390fd5b600073ffffffffffffffffffffffffffffffffffffffff1660c960009054906101000a900473ffffffffffffffffffffffffffffffffffffffff1673ffffffffffffffffffffffffffffffffffffffff167f8be0079c531659141344cd1fd0a4f28419497f9722a3daafe3b4186f6b6457e060405160405180910390a3600060c960006101000a81548173ffffffffffffffffffffffffffffffffffffffff021916908373ffffffffffffffffffffffffffffffffffffffff160217905550565b610c64611880565b73ffffffffffffffffffffffffffffffffffffffff16610c82610ce2565b73ffffffffffffffffffffffffffffffffffffffff1614610cd8576040517f08c379a0000000000000000000000000000000000000000000000000000000008152600401610ccf9061365d565b60405180910390fd5b610ce0611a60565b565b600060c960009054906101000a900473ffffffffffffffffffffffffffffffffffffffff16905090565b8173ffffffffffffffffffffffffffffffffffffffff16610d2b611880565b73ffffffffffffffffffffffffffffffffffffffff161415610d82576040517f08c379a0000000000000000000000000000000000000000000000000000000008152600401610d799061367d565b60405180910390fd5b8060666000610d8f611880565b73ffffffffffffffffffffffffffffffffffffffff1673ffffffffffffffffffffffffffffffffffffffff16815260200190815260200160002060008473ffffffffffffffffffffffffffffffffffffffff1673ffffffffffffffffffffffffffffffffffffffff16815260200190815260200160002060006101000a81548160ff0219169083151502179055508173ffffffffffffffffffffffffffffffffffffffff16610e3c611880565b73ffffffffffffffffffffffffffffffffffffffff167f17307eab39ab6107e8899845ad3d59bd9653f200f220920489ca2b5937696c3183604051610e8191906134c0565b60405180910390a35050565b600080600060fc600085815260200190815260200160002060000160009054906101000a900473ffffffffffffffffffffffffffffffffffffffff1660fc60008681526020019081526020016000206001015460fd6000878152602001908152602001600020549250925092509193909250565b610f09610b08565b15610f49576040517f08c379a0000000000000000000000000000000000000000000000000000000008152600401610f40906136fd565b60405180910390fd5b60008390503373ffffffffffffffffffffffffffffffffffffffff168173ffffffffffffffffffffffffffffffffffffffff16636352211e856040518263ffffffff1660e01b8152600401610f9e919061371d565b60206040518083038186803b158015610fb657600080fd5b505afa158015610fca573d6000803e3d6000fd5b505050506040513d601f19601f82011682018060405250810190610fee9190612802565b73ffffffffffffffffffffffffffffffffffffffff1614611044576040517f08c379a000000000000000000000000000000000000000000000000000000000815260040161103b9061353d565b60405180910390fd5b8073ffffffffffffffffffffffffffffffffffffffff166323b872dd3330866040518463ffffffff1660e01b81526004016110819392919061339f565b600060405180830381600087803b15801561109b57600080fd5b505af11580156110af573d6000803e3d6000fd5b505050506110bd60fb611b03565b60006110c960fb611b19565b90506110e633828560405180602001604052806000815250611b27565b6110ee61248c565b85816000019073ffffffffffffffffffffffffffffffffffffffff16908173ffffffffffffffffffffffffffffffffffffffff1681525050848160200181815250508060fc600084815260200190815260200160002060008201518160000160006101000a81548173ffffffffffffffffffffffffffffffffffffffff021916908373ffffffffffffffffffffffffffffffffffffffff160217905550602082015181600101559050508360fd600084815260200190815260200160002081905550505050505050565b6000606660008473ffffffffffffffffffffffffffffffffffffffff1673ffffffffffffffffffffffffffffffffffffffff16815260200190815260200160002060008373ffffffffffffffffffffffffffffffffffffffff1673ffffffffffffffffffffffffffffffffffffffff16815260200190815260200160002060009054906101000a900460ff16905092915050565b600073ffffffffffffffffffffffffffffffffffffffff168473ffffffffffffffffffffffffffffffffffffffff1614156112bc576040517f08c379a00000000000000000000000000000000000000000000000000000000081526004016112b3906135dd565b60405180910390fd5b6112c4611880565b73ffffffffffffffffffffffffffffffffffffffff168573ffffffffffffffffffffffffffffffffffffffff16148061130a575061130985611304611880565b6111b8565b5b611349576040517f08c379a00000000000000000000000000000000000000000000000000000000081526004016113409061359d565b60405180910390fd5b6000611353611880565b905061137381878761136488611cbe565b61136d88611cbe565b87611888565b60006065600086815260200190815260200160002060008873ffffffffffffffffffffffffffffffffffffffff1673ffffffffffffffffffffffffffffffffffffffff1681526020019081526020016000205490508381101561140b576040517f08c379a00000000000000000000000000000000000000000000000000000000081526004016114029061363d565b60405180910390fd5b83816114179190613911565b6065600087815260200190815260200160002060008973ffffffffffffffffffffffffffffffffffffffff1673ffffffffffffffffffffffffffffffffffffffff16815260200190815260200160002081905550836065600087815260200190815260200160002060008873ffffffffffffffffffffffffffffffffffffffff1673ffffffffffffffffffffffffffffffffffffffff16815260200190815260200160002060008282546114cb91906138bb565b925050819055508573ffffffffffffffffffffffffffffffffffffffff168773ffffffffffffffffffffffffffffffffffffffff168373ffffffffffffffffffffffffffffffffffffffff167fc3d58168c5ae7397731d063d5bbf3d657854427343f4c083240f7aacaa2d0f628888604051611548929190613738565b60405180910390a461155e828888888888611d84565b50505050505050565b61156f611880565b73ffffffffffffffffffffffffffffffffffffffff1661158d610ce2565b73ffffffffffffffffffffffffffffffffffffffff16146115e3576040517f08c379a00000000000000000000000000000000000000000000000000000000081526004016115da9061365d565b60405180910390fd5b600073ffffffffffffffffffffffffffffffffffffffff168173ffffffffffffffffffffffffffffffffffffffff161415611653576040517f08c379a000000000000000000000000000000000000000000000000000000000815260040161164a9061357d565b60405180910390fd5b8073ffffffffffffffffffffffffffffffffffffffff1660c960009054906101000a900473ffffffffffffffffffffffffffffffffffffffff1673ffffffffffffffffffffffffffffffffffffffff167f8be0079c531659141344cd1fd0a4f28419497f9722a3daafe3b4186f6b6457e060405160405180910390a38060c960006101000a81548173ffffffffffffffffffffffffffffffffffffffff021916908373ffffffffffffffffffffffffffffffffffffffff16021790555050565b600060019054906101000a900460ff1680611739575060008054906101000a900460ff16155b611778576040517f08c379a000000000000000000000000000000000000000000000000000000000815260040161176f9061361d565b60405180910390fd5b60008060019054906101000a900460ff1615905080156117c8576001600060016101000a81548160ff02191690831515021790555060016000806101000a81548160ff0219169083151502179055505b6117d0611f54565b6117d861202d565b6117e0612106565b6117e9826121fa565b6117f16122dd565b80156118125760008060016101000a81548160ff0219169083151502179055505b5050565b60007f01ffc9a7000000000000000000000000000000000000000000000000000000007bffffffffffffffffffffffffffffffffffffffffffffffffffffffff1916827bffffffffffffffffffffffffffffffffffffffffffffffffffffffff1916149050919050565b600033905090565b505050505050565b6118af8473ffffffffffffffffffffffffffffffffffffffff1661245f565b15611a58578373ffffffffffffffffffffffffffffffffffffffff1663bc197c8187878686866040518663ffffffff1660e01b81526004016118f5959493929190613337565b602060405180830381600087803b15801561190f57600080fd5b505af192505050801561194057506040513d601f19601f8201168201806040525081019061193d9190612b11565b60015b6119cf5761194c613b21565b806119575750611994565b806040517f08c379a000000000000000000000000000000000000000000000000000000000815260040161198b91906134db565b60405180910390fd5b6040517f08c379a00000000000000000000000000000000000000000000000000000000081526004016119c6906134fd565b60405180910390fd5b63bc197c8160e01b7bffffffffffffffffffffffffffffffffffffffffffffffffffffffff1916817bffffffffffffffffffffffffffffffffffffffffffffffffffffffff191614611a56576040517f08c379a0000000000000000000000000000000000000000000000000000000008152600401611a4d9061351d565b60405180910390fd5b505b505050505050565b611a68610b08565b15611aa8576040517f08c379a0000000000000000000000000000000000000000000000000000000008152600401611a9f906135bd565b60405180910390fd5b6001609760006101000a81548160ff0219169083151502179055507f62e78cea01bee320cd4e420270b5ea74000d11b0c9f74754ebdbfc544b05a258611aec611880565b604051611af9919061331c565b60405180910390a1565b6001816000016000828254019250508190555050565b600081600001549050919050565b600073ffffffffffffffffffffffffffffffffffffffff168473ffffffffffffffffffffffffffffffffffffffff161415611b97576040517f08c379a0000000000000000000000000000000000000000000000000000000008152600401611b8e906136dd565b60405180910390fd5b6000611ba1611880565b9050611bc281600087611bb388611cbe565b611bbc88611cbe565b87611888565b826065600086815260200190815260200160002060008773ffffffffffffffffffffffffffffffffffffffff1673ffffffffffffffffffffffffffffffffffffffff1681526020019081526020016000206000828254611c2291906138bb565b925050819055508473ffffffffffffffffffffffffffffffffffffffff16600073ffffffffffffffffffffffffffffffffffffffff168273ffffffffffffffffffffffffffffffffffffffff167fc3d58168c5ae7397731d063d5bbf3d657854427343f4c083240f7aacaa2d0f628787604051611ca0929190613738565b60405180910390a4611cb781600087878787611d84565b5050505050565b60606000600167ffffffffffffffff811115611d03577f4e487b7100000000000000000000000000000000000000000000000000000000600052604160045260246000fd5b604051908082528060200260200182016040528015611d315781602001602082028036833780820191505090505b5090508281600081518110611d6f577f4e487b7100000000000000000000000000000000000000000000000000000000600052603260045260246000fd5b60200260200101818152505080915050919050565b611da38473ffffffffffffffffffffffffffffffffffffffff1661245f565b15611f4c578373ffffffffffffffffffffffffffffffffffffffff1663f23a6e6187878686866040518663ffffffff1660e01b8152600401611de99594939291906133d6565b602060405180830381600087803b158015611e0357600080fd5b505af1925050508015611e3457506040513d601f19601f82011682018060405250810190611e319190612b11565b60015b611ec357611e40613b21565b80611e4b5750611e88565b806040517f08c379a0000000000000000000000000000000000000000000000000000000008152600401611e7f91906134db565b60405180910390fd5b6040517f08c379a0000000000000000000000000000000000000000000000000000000008152600401611eba906134fd565b60405180910390fd5b63f23a6e6160e01b7bffffffffffffffffffffffffffffffffffffffffffffffffffffffff1916817bffffffffffffffffffffffffffffffffffffffffffffffffffffffff191614611f4a576040517f08c379a0000000000000000000000000000000000000000000000000000000008152600401611f419061351d565b60405180910390fd5b505b505050505050565b600060019054906101000a900460ff1680611f7a575060008054906101000a900460ff16155b611fb9576040517f08c379a0000000000000000000000000000000000000000000000000000000008152600401611fb09061361d565b60405180910390fd5b60008060019054906101000a900460ff161590508015612009576001600060016101000a81548160ff02191690831515021790555060016000806101000a81548160ff0219169083151502179055505b801561202a5760008060016101000a81548160ff0219169083151502179055505b50565b600060019054906101000a900460ff1680612053575060008054906101000a900460ff16155b612092576040517f08c379a00000000000000000000000000000000000000000000000000000000081526004016120899061361d565b60405180910390fd5b60008060019054906101000a900460ff1615905080156120e2576001600060016101000a81548160ff02191690831515021790555060016000806101000a81548160ff0219169083151502179055505b80156121035760008060016101000a81548160ff0219169083151502179055505b50565b600060019054906101000a900460ff168061212c575060008054906101000a900460ff16155b61216b576040517f08c379a00000000000000000000000000000000000000000000000000000000081526004016121629061361d565b60405180910390fd5b60008060019054906101000a900460ff1615905080156121bb576001600060016101000a81548160ff02191690831515021790555060016000806101000a81548160ff0219169083151502179055505b6000609760006101000a81548160ff02191690831515021790555080156121f75760008060016101000a81548160ff0219169083151502179055505b50565b600060019054906101000a900460ff1680612220575060008054906101000a900460ff16155b61225f576040517f08c379a00000000000000000000000000000000000000000000000000000000081526004016122569061361d565b60405180910390fd5b60008060019054906101000a900460ff1615905080156122af576001600060016101000a81548160ff02191690831515021790555060016000806101000a81548160ff0219169083151502179055505b6122b882612472565b80156122d95760008060016101000a81548160ff0219169083151502179055505b5050565b600060019054906101000a900460ff1680612303575060008054906101000a900460ff16155b612342576040517f08c379a00000000000000000000000000000000000000000000000000000000081526004016123399061361d565b60405180910390fd5b60008060019054906101000a900460ff161590508015612392576001600060016101000a81548160ff02191690831515021790555060016000806101000a81548160ff0219169083151502179055505b600061239c611880565b90508060c960006101000a81548173ffffffffffffffffffffffffffffffffffffffff021916908373ffffffffffffffffffffffffffffffffffffffff1602179055508073ffffffffffffffffffffffffffffffffffffffff16600073ffffffffffffffffffffffffffffffffffffffff167f8be0079c531659141344cd1fd0a4f28419497f9722a3daafe3b4186f6b6457e060405160405180910390a350801561245c5760008060016101000a81548160ff0219169083151502179055505b50565b600080823b905060008111915050919050565b80606790805190602001906124889291906124bc565b5050565b6040518060400160405280600073ffffffffffffffffffffffffffffffffffffffff168152602001600081525090565b8280546124c8906139fb565b90600052602060002090601f0160209004810192826124ea5760008555612531565b82601f1061250357805160ff1916838001178555612531565b82800160010185558215612531579182015b82811115612530578251825591602001919060010190612515565b5b50905061253e9190612542565b5090565b5b8082111561255b576000816000905550600101612543565b5090565b600061257261256d84613792565b613761565b9050808382526020820190508285602086028201111561259157600080fd5b60005b858110156125c157816125a788826126b3565b845260208401935060208301925050600181019050612594565b5050509392505050565b60006125de6125d9846137be565b613761565b905080838252602082019050828560208602820111156125fd57600080fd5b60005b8581101561262d578161261388826127c4565b845260208401935060208301925050600181019050612600565b5050509392505050565b600061264a612645846137ea565b613761565b90508281526020810184848401111561266257600080fd5b61266d8482856139b9565b509392505050565b60006126886126838461381a565b613761565b9050828152602081018484840111156126a057600080fd5b6126ab8482856139b9565b509392505050565b6000813590506126c281613bd7565b92915050565b6000815190506126d781613bd7565b92915050565b600082601f8301126126ee57600080fd5b81356126fe84826020860161255f565b91505092915050565b600082601f83011261271857600080fd5b81356127288482602086016125cb565b91505092915050565b60008135905061274081613bee565b92915050565b60008135905061275581613c05565b92915050565b60008151905061276a81613c05565b92915050565b600082601f83011261278157600080fd5b8135612791848260208601612637565b91505092915050565b600082601f8301126127ab57600080fd5b81356127bb848260208601612675565b91505092915050565b6000813590506127d381613c1c565b92915050565b6000602082840312156127eb57600080fd5b60006127f9848285016126b3565b91505092915050565b60006020828403121561281457600080fd5b6000612822848285016126c8565b91505092915050565b6000806040838503121561283e57600080fd5b600061284c858286016126b3565b925050602061285d858286016126b3565b9150509250929050565b600080600080600060a0868803121561287f57600080fd5b600061288d888289016126b3565b955050602061289e888289016126b3565b945050604086013567ffffffffffffffff8111156128bb57600080fd5b6128c788828901612707565b935050606086013567ffffffffffffffff8111156128e457600080fd5b6128f088828901612707565b925050608086013567ffffffffffffffff81111561290d57600080fd5b61291988828901612770565b9150509295509295909350565b600080600080600060a0868803121561293e57600080fd5b600061294c888289016126b3565b955050602061295d888289016126b3565b945050604061296e888289016127c4565b935050606061297f888289016127c4565b925050608086013567ffffffffffffffff81111561299c57600080fd5b6129a888828901612770565b9150509295509295909350565b600080604083850312156129c857600080fd5b60006129d6858286016126b3565b92505060206129e785828601612731565b9150509250929050565b60008060408385031215612a0457600080fd5b6000612a12858286016126b3565b9250506020612a23858286016127c4565b9150509250929050565b600080600060608486031215612a4257600080fd5b6000612a50868287016126b3565b9350506020612a61868287016127c4565b9250506040612a72868287016127c4565b9150509250925092565b60008060408385031215612a8f57600080fd5b600083013567ffffffffffffffff811115612aa957600080fd5b612ab5858286016126dd565b925050602083013567ffffffffffffffff811115612ad257600080fd5b612ade85828601612707565b9150509250929050565b600060208284031215612afa57600080fd5b6000612b0884828501612746565b91505092915050565b600060208284031215612b2357600080fd5b6000612b318482850161275b565b91505092915050565b600060208284031215612b4c57600080fd5b600082013567ffffffffffffffff811115612b6657600080fd5b612b728482850161279a565b91505092915050565b600060208284031215612b8d57600080fd5b6000612b9b848285016127c4565b91505092915050565b6000612bb083836132fe565b60208301905092915050565b612bc581613945565b82525050565b6000612bd68261385a565b612be08185613888565b9350612beb8361384a565b8060005b83811015612c1c578151612c038882612ba4565b9750612c0e8361387b565b925050600181019050612bef565b5085935050505092915050565b612c3281613957565b82525050565b6000612c4382613865565b612c4d8185613899565b9350612c5d8185602086016139c8565b612c6681613b03565b840191505092915050565b6000612c7c82613870565b612c8681856138aa565b9350612c968185602086016139c8565b612c9f81613b03565b840191505092915050565b6000612cb76034836138aa565b91507f455243313135353a207472616e7366657220746f206e6f6e204552433131353560008301527f526563656976657220696d706c656d656e7465720000000000000000000000006020830152604082019050919050565b6000612d1d6028836138aa565b91507f455243313135353a204552433131353552656365697665722072656a6563746560008301527f6420746f6b656e730000000000000000000000000000000000000000000000006020830152604082019050919050565b6000612d83602a836138aa565b91507f6d73672073656e6465722068617320746f206f776e2074686520746f6b656e2060008301527f746f206465706f736974000000000000000000000000000000000000000000006020830152604082019050919050565b6000612de9602b836138aa565b91507f455243313135353a2062616c616e636520717565727920666f7220746865207a60008301527f65726f20616464726573730000000000000000000000000000000000000000006020830152604082019050919050565b6000612e4f6026836138aa565b91507f4f776e61626c653a206e6577206f776e657220697320746865207a65726f206160008301527f64647265737300000000000000000000000000000000000000000000000000006020830152604082019050919050565b6000612eb56029836138aa565b91507f455243313135353a2063616c6c6572206973206e6f74206f776e6572206e6f7260008301527f20617070726f76656400000000000000000000000000000000000000000000006020830152604082019050919050565b6000612f1b6010836138aa565b91507f5061757361626c653a20706175736564000000000000000000000000000000006000830152602082019050919050565b6000612f5b6025836138aa565b91507f455243313135353a207472616e7366657220746f20746865207a65726f20616460008301527f64726573730000000000000000000000000000000000000000000000000000006020830152604082019050919050565b6000612fc16032836138aa565b91507f455243313135353a207472616e736665722063616c6c6572206973206e6f742060008301527f6f776e6572206e6f7220617070726f76656400000000000000000000000000006020830152604082019050919050565b6000613027602e836138aa565b91507f496e697469616c697a61626c653a20636f6e747261637420697320616c72656160008301527f647920696e697469616c697a65640000000000000000000000000000000000006020830152604082019050919050565b600061308d602a836138aa565b91507f455243313135353a20696e73756666696369656e742062616c616e636520666f60008301527f72207472616e73666572000000000000000000000000000000000000000000006020830152604082019050919050565b60006130f36020836138aa565b91507f4f776e61626c653a2063616c6c6572206973206e6f7420746865206f776e65726000830152602082019050919050565b60006131336029836138aa565b91507f455243313135353a2073657474696e6720617070726f76616c2073746174757360008301527f20666f722073656c6600000000000000000000000000000000000000000000006020830152604082019050919050565b60006131996029836138aa565b91507f455243313135353a206163636f756e747320616e6420696473206c656e67746860008301527f206d69736d6174636800000000000000000000000000000000000000000000006020830152604082019050919050565b60006131ff6028836138aa565b91507f455243313135353a2069647320616e6420616d6f756e7473206c656e6774682060008301527f6d69736d617463680000000000000000000000000000000000000000000000006020830152604082019050919050565b60006132656021836138aa565b91507f455243313135353a206d696e7420746f20746865207a65726f2061646472657360008301527f73000000000000000000000000000000000000000000000000000000000000006020830152604082019050919050565b60006132cb6018836138aa565b91507f4e6f7420616c6c6f776564207768696c652070617573656400000000000000006000830152602082019050919050565b613307816139af565b82525050565b613316816139af565b82525050565b60006020820190506133316000830184612bbc565b92915050565b600060a08201905061334c6000830188612bbc565b6133596020830187612bbc565b818103604083015261336b8186612bcb565b9050818103606083015261337f8185612bcb565b905081810360808301526133938184612c38565b90509695505050505050565b60006060820190506133b46000830186612bbc565b6133c16020830185612bbc565b6133ce604083018461330d565b949350505050565b600060a0820190506133eb6000830188612bbc565b6133f86020830187612bbc565b613405604083018661330d565b613412606083018561330d565b81810360808301526134248184612c38565b90509695505050505050565b60006060820190506134456000830186612bbc565b613452602083018561330d565b61345f604083018461330d565b949350505050565b600060208201905081810360008301526134818184612bcb565b905092915050565b600060408201905081810360008301526134a38185612bcb565b905081810360208301526134b78184612bcb565b90509392505050565b60006020820190506134d56000830184612c29565b92915050565b600060208201905081810360008301526134f58184612c71565b905092915050565b6000602082019050818103600083015261351681612caa565b9050919050565b6000602082019050818103600083015261353681612d10565b9050919050565b6000602082019050818103600083015261355681612d76565b9050919050565b6000602082019050818103600083015261357681612ddc565b9050919050565b6000602082019050818103600083015261359681612e42565b9050919050565b600060208201905081810360008301526135b681612ea8565b9050919050565b600060208201905081810360008301526135d681612f0e565b9050919050565b600060208201905081810360008301526135f681612f4e565b9050919050565b6000602082019050818103600083015261361681612fb4565b9050919050565b600060208201905081810360008301526136368161301a565b9050919050565b6000602082019050818103600083015261365681613080565b9050919050565b60006020820190508181036000830152613676816130e6565b9050919050565b6000602082019050818103600083015261369681613126565b9050919050565b600060208201905081810360008301526136b68161318c565b9050919050565b600060208201905081810360008301526136d6816131f2565b9050919050565b600060208201905081810360008301526136f681613258565b9050919050565b60006020820190508181036000830152613716816132be565b9050919050565b6000602082019050613732600083018461330d565b92915050565b600060408201905061374d600083018561330d565b61375a602083018461330d565b9392505050565b6000604051905081810181811067ffffffffffffffff8211171561378857613787613ad4565b5b8060405250919050565b600067ffffffffffffffff8211156137ad576137ac613ad4565b5b602082029050602081019050919050565b600067ffffffffffffffff8211156137d9576137d8613ad4565b5b602082029050602081019050919050565b600067ffffffffffffffff82111561380557613804613ad4565b5b601f19601f8301169050602081019050919050565b600067ffffffffffffffff82111561383557613834613ad4565b5b601f19601f8301169050602081019050919050565b6000819050602082019050919050565b600081519050919050565b600081519050919050565b600081519050919050565b6000602082019050919050565b600082825260208201905092915050565b600082825260208201905092915050565b600082825260208201905092915050565b60006138c6826139af565b91506138d1836139af565b9250827fffffffffffffffffffffffffffffffffffffffffffffffffffffffffffffffff0382111561390657613905613a76565b5b828201905092915050565b600061391c826139af565b9150613927836139af565b92508282101561393a57613939613a76565b5b828203905092915050565b60006139508261398f565b9050919050565b60008115159050919050565b60007fffffffff0000000000000000000000000000000000000000000000000000000082169050919050565b600073ffffffffffffffffffffffffffffffffffffffff82169050919050565b6000819050919050565b82818337600083830152505050565b60005b838110156139e65780820151818401526020810190506139cb565b838111156139f5576000848401525b50505050565b60006002820490506001821680613a1357607f821691505b60208210811415613a2757613a26613aa5565b5b50919050565b6000613a38826139af565b91507fffffffffffffffffffffffffffffffffffffffffffffffffffffffffffffffff821415613a6b57613a6a613a76565b5b600182019050919050565b7f4e487b7100000000000000000000000000000000000000000000000000000000600052601160045260246000fd5b7f4e487b7100000000000000000000000000000000000000000000000000000000600052602260045260246000fd5b7f4e487b7100000000000000000000000000000000000000000000000000000000600052604160045260246000fd5b6000601f19601f8301169050919050565b60008160e01c9050919050565b600060443d1015613b3157613bd4565b60046000803e613b42600051613b14565b6308c379a08114613b535750613bd4565b60405160043d036004823e80513d602482011167ffffffffffffffff82111715613b7f57505050613bd4565b808201805167ffffffffffffffff811115613b9e575050505050613bd4565b8060208301013d8501811115613bb957505050505050613bd4565b613bc282613b03565b60208401016040528296505050505050505b90565b613be081613945565b8114613beb57600080fd5b50565b613bf781613957565b8114613c0257600080fd5b50565b613c0e81613963565b8114613c1957600080fd5b50565b613c25816139af565b8114613c3057600080fd5b5056fea264697066735822122013aed9717863814df151962433cf9f89a02f80ac6b3d90422f1297d021337a8364736f6c63430008000033",
  "immutableReferences": {},
  "source": "// SPDX-License-Identifier: MIT\n\npragma solidity ^0.8.0;\n\nimport \"@openzeppelin/contracts-upgradeable/token/ERC1155/ERC1155Upgradeable.sol\";\nimport \"@openzeppelin/contracts-upgradeable/security/PausableUpgradeable.sol\";\nimport \"@openzeppelin/contracts-upgradeable/proxy/utils/Initializable.sol\";\nimport \"@openzeppelin/contracts/token/ERC721/IERC721.sol\";\nimport \"@openzeppelin/contracts-upgradeable/utils/CountersUpgradeable.sol\";\nimport \"@openzeppelin/contracts-upgradeable/access/OwnableUpgradeable.sol\";\n\ncontract NftFractionsDex is\n    Initializable,\n    ERC1155Upgradeable,\n    PausableUpgradeable,\n    OwnableUpgradeable\n{\n    using CountersUpgradeable for CountersUpgradeable.Counter;\n    CountersUpgradeable.Counter private _ids;\n\n    struct OriginalToken {\n        address originalContract;\n        uint256 originalTokenId;\n    }\n\n    mapping(uint256 => OriginalToken) originalTokens;\n    mapping(uint256 => uint256) fractionsAmountByTokenId;\n\n    function initialize(string memory uri_) public initializer {\n        __Context_init_unchained();\n        __ERC165_init_unchained();\n        __Pausable_init_unchained();\n        __ERC1155_init_unchained(uri_);\n        __Ownable_init_unchained();\n    }\n\n    /**\n     * @dev Deposit an ERC721 token and mints an ERC1155 token with the given fractions amount\n     * the original ERC721 token is transferred to the address of this smart contract.\n     * Before calling this function the user has to call the apporve function on the original NFT contract and\n     * approve this smart contract to transfer his NFT.\n     *\n     * Requirements:\n     * - msg.sender has to own the token that is deposited\n     */\n    function depositNft(\n        address originalContractAddress,\n        uint256 originalTokenId,\n        uint256 fractionsAmountToMint\n    ) external {\n        require(!paused(), \"Not allowed while paused\");\n        IERC721 originalContract = IERC721(originalContractAddress);\n        require(\n            originalContract.ownerOf(originalTokenId) == msg.sender,\n            \"msg sender has to own the token to deposit\"\n        );\n        originalContract.transferFrom(\n            msg.sender,\n            address(this),\n            originalTokenId\n        );\n        _ids.increment();\n        uint256 newItemId = _ids.current();\n        _mint(msg.sender, newItemId, fractionsAmountToMint, \"\");\n        OriginalToken memory originalToken;\n        originalToken.originalContract = originalContractAddress;\n        originalToken.originalTokenId = originalTokenId;\n        originalTokens[newItemId] = originalToken;\n        fractionsAmountByTokenId[newItemId] = fractionsAmountToMint;\n    }\n\n    /**\n     * @dev returns relevant token data:\n     * - original ERC721 contract address\n     * - original ERC721 token id\n     * - amount of fractions minted\n     */\n    function getTokenData(uint256 tokenId)\n        public\n        view\n        returns (\n            address originalContract,\n            uint256 originalTokenId,\n            uint256 fractionsAmount\n        )\n    {\n        return (\n            originalTokens[tokenId].originalContract,\n            originalTokens[tokenId].originalTokenId,\n            fractionsAmountByTokenId[tokenId]\n        );\n    }\n\n    function pause() public onlyOwner() {\n        _pause();\n    }\n}\n",
  "sourcePath": "/Users/szabolcs/Documents/Personal/Szakmai/Ethereum/nft-fractions-dex/contracts/NftFractionsDex.sol",
  "compiler": {
    "name": "solc",
    "version": "0.8.0+commit.c7dfd78e.Emscripten.clang"
  },
  "schemaVersion": "3.3.4",
  "updatedAt": "2021-03-31T14:23:32.343Z",
  "networkType": "ethereum",
  "devdoc": {
    "kind": "dev",
    "methods": {
      "balanceOf(address,uint256)": {
        "details": "See {IERC1155-balanceOf}. Requirements: - `account` cannot be the zero address."
      },
      "balanceOfBatch(address[],uint256[])": {
        "details": "See {IERC1155-balanceOfBatch}. Requirements: - `accounts` and `ids` must have the same length."
      },
      "depositNft(address,uint256,uint256)": {
        "details": "Deposit an ERC721 token and mints an ERC1155 token with the given fractions amount the original ERC721 token is transferred to the address of this smart contract. Before calling this function the user has to call the apporve function on the original NFT contract and approve this smart contract to transfer his NFT. Requirements: - msg.sender has to own the token that is deposited"
      },
      "getTokenData(uint256)": {
        "details": "returns relevant token data: - original ERC721 contract address - original ERC721 token id - amount of fractions minted"
      },
      "isApprovedForAll(address,address)": {
        "details": "See {IERC1155-isApprovedForAll}."
      },
      "owner()": {
        "details": "Returns the address of the current owner."
      },
      "paused()": {
        "details": "Returns true if the contract is paused, and false otherwise."
      },
      "renounceOwnership()": {
        "details": "Leaves the contract without owner. It will not be possible to call `onlyOwner` functions anymore. Can only be called by the current owner. NOTE: Renouncing ownership will leave the contract without an owner, thereby removing any functionality that is only available to the owner."
      },
      "safeBatchTransferFrom(address,address,uint256[],uint256[],bytes)": {
        "details": "See {IERC1155-safeBatchTransferFrom}."
      },
      "safeTransferFrom(address,address,uint256,uint256,bytes)": {
        "details": "See {IERC1155-safeTransferFrom}."
      },
      "setApprovalForAll(address,bool)": {
        "details": "See {IERC1155-setApprovalForAll}."
      },
      "supportsInterface(bytes4)": {
        "details": "See {IERC165-supportsInterface}."
      },
      "transferOwnership(address)": {
        "details": "Transfers ownership of the contract to a new account (`newOwner`). Can only be called by the current owner."
      },
      "uri(uint256)": {
        "details": "See {IERC1155MetadataURI-uri}. This implementation returns the same URI for *all* token types. It relies on the token type ID substitution mechanism https://eips.ethereum.org/EIPS/eip-1155#metadata[defined in the EIP]. Clients calling this function must replace the `\\{id\\}` substring with the actual token type ID."
      }
    },
    "version": 1
  },
  "userdoc": {
    "kind": "user",
    "methods": {},
    "version": 1
  }
}