{
  "contractName": "NftFractionsRepository",
  "abi": [
    {
      "anonymous": false,
      "inputs": [
        {
          "indexed": true,
          "internalType": "address",
          "name": "account",
          "type": "address"
        },
        {
          "indexed": true,
          "internalType": "address",
          "name": "operator",
          "type": "address"
        },
        {
          "indexed": false,
          "internalType": "bool",
          "name": "approved",
          "type": "bool"
        }
      ],
      "name": "ApprovalForAll",
      "type": "event"
    },
    {
      "anonymous": false,
      "inputs": [
        {
          "indexed": false,
          "internalType": "address",
          "name": "from",
          "type": "address"
        },
        {
          "indexed": false,
          "internalType": "address",
          "name": "to",
          "type": "address"
        },
        {
          "indexed": false,
          "internalType": "uint256",
          "name": "amount",
          "type": "uint256"
        }
      ],
      "name": "Blabla",
      "type": "event"
    },
    {
      "anonymous": false,
      "inputs": [
        {
          "indexed": true,
          "internalType": "address",
          "name": "previousOwner",
          "type": "address"
        },
        {
          "indexed": true,
          "internalType": "address",
          "name": "newOwner",
          "type": "address"
        }
      ],
      "name": "OwnershipTransferred",
      "type": "event"
    },
    {
      "anonymous": false,
      "inputs": [
        {
          "indexed": false,
          "internalType": "address",
          "name": "account",
          "type": "address"
        }
      ],
      "name": "Paused",
      "type": "event"
    },
    {
      "anonymous": false,
      "inputs": [
        {
          "indexed": true,
          "internalType": "address",
          "name": "operator",
          "type": "address"
        },
        {
          "indexed": true,
          "internalType": "address",
          "name": "from",
          "type": "address"
        },
        {
          "indexed": true,
          "internalType": "address",
          "name": "to",
          "type": "address"
        },
        {
          "indexed": false,
          "internalType": "uint256[]",
          "name": "ids",
          "type": "uint256[]"
        },
        {
          "indexed": false,
          "internalType": "uint256[]",
          "name": "values",
          "type": "uint256[]"
        }
      ],
      "name": "TransferBatch",
      "type": "event"
    },
    {
      "anonymous": false,
      "inputs": [
        {
          "indexed": true,
          "internalType": "address",
          "name": "operator",
          "type": "address"
        },
        {
          "indexed": true,
          "internalType": "address",
          "name": "from",
          "type": "address"
        },
        {
          "indexed": true,
          "internalType": "address",
          "name": "to",
          "type": "address"
        },
        {
          "indexed": false,
          "internalType": "uint256",
          "name": "id",
          "type": "uint256"
        },
        {
          "indexed": false,
          "internalType": "uint256",
          "name": "value",
          "type": "uint256"
        }
      ],
      "name": "TransferSingle",
      "type": "event"
    },
    {
      "anonymous": false,
      "inputs": [
        {
          "indexed": false,
          "internalType": "string",
          "name": "value",
          "type": "string"
        },
        {
          "indexed": true,
          "internalType": "uint256",
          "name": "id",
          "type": "uint256"
        }
      ],
      "name": "URI",
      "type": "event"
    },
    {
      "anonymous": false,
      "inputs": [
        {
          "indexed": false,
          "internalType": "address",
          "name": "account",
          "type": "address"
        }
      ],
      "name": "Unpaused",
      "type": "event"
    },
    {
      "inputs": [
        {
          "internalType": "address",
          "name": "account",
          "type": "address"
        },
        {
          "internalType": "uint256",
          "name": "id",
          "type": "uint256"
        }
      ],
      "name": "balanceOf",
      "outputs": [
        {
          "internalType": "uint256",
          "name": "",
          "type": "uint256"
        }
      ],
      "stateMutability": "view",
      "type": "function"
    },
    {
      "inputs": [
        {
          "internalType": "address[]",
          "name": "accounts",
          "type": "address[]"
        },
        {
          "internalType": "uint256[]",
          "name": "ids",
          "type": "uint256[]"
        }
      ],
      "name": "balanceOfBatch",
      "outputs": [
        {
          "internalType": "uint256[]",
          "name": "",
          "type": "uint256[]"
        }
      ],
      "stateMutability": "view",
      "type": "function"
    },
    {
      "inputs": [
        {
          "internalType": "address",
          "name": "account",
          "type": "address"
        },
        {
          "internalType": "address",
          "name": "operator",
          "type": "address"
        }
      ],
      "name": "isApprovedForAll",
      "outputs": [
        {
          "internalType": "bool",
          "name": "",
          "type": "bool"
        }
      ],
      "stateMutability": "view",
      "type": "function"
    },
    {
      "inputs": [],
      "name": "owner",
      "outputs": [
        {
          "internalType": "address",
          "name": "",
          "type": "address"
        }
      ],
      "stateMutability": "view",
      "type": "function"
    },
    {
      "inputs": [],
      "name": "paused",
      "outputs": [
        {
          "internalType": "bool",
          "name": "",
          "type": "bool"
        }
      ],
      "stateMutability": "view",
      "type": "function"
    },
    {
      "inputs": [],
      "name": "renounceOwnership",
      "outputs": [],
      "stateMutability": "nonpayable",
      "type": "function"
    },
    {
      "inputs": [
        {
          "internalType": "address",
          "name": "from",
          "type": "address"
        },
        {
          "internalType": "address",
          "name": "to",
          "type": "address"
        },
        {
          "internalType": "uint256[]",
          "name": "ids",
          "type": "uint256[]"
        },
        {
          "internalType": "uint256[]",
          "name": "amounts",
          "type": "uint256[]"
        },
        {
          "internalType": "bytes",
          "name": "data",
          "type": "bytes"
        }
      ],
      "name": "safeBatchTransferFrom",
      "outputs": [],
      "stateMutability": "nonpayable",
      "type": "function"
    },
    {
      "inputs": [
        {
          "internalType": "address",
          "name": "from",
          "type": "address"
        },
        {
          "internalType": "address",
          "name": "to",
          "type": "address"
        },
        {
          "internalType": "uint256",
          "name": "id",
          "type": "uint256"
        },
        {
          "internalType": "uint256",
          "name": "amount",
          "type": "uint256"
        },
        {
          "internalType": "bytes",
          "name": "data",
          "type": "bytes"
        }
      ],
      "name": "safeTransferFrom",
      "outputs": [],
      "stateMutability": "nonpayable",
      "type": "function"
    },
    {
      "inputs": [
        {
          "internalType": "address",
          "name": "operator",
          "type": "address"
        },
        {
          "internalType": "bool",
          "name": "approved",
          "type": "bool"
        }
      ],
      "name": "setApprovalForAll",
      "outputs": [],
      "stateMutability": "nonpayable",
      "type": "function"
    },
    {
      "inputs": [
        {
          "internalType": "bytes4",
          "name": "interfaceId",
          "type": "bytes4"
        }
      ],
      "name": "supportsInterface",
      "outputs": [
        {
          "internalType": "bool",
          "name": "",
          "type": "bool"
        }
      ],
      "stateMutability": "view",
      "type": "function"
    },
    {
      "inputs": [
        {
          "internalType": "address",
          "name": "newOwner",
          "type": "address"
        }
      ],
      "name": "transferOwnership",
      "outputs": [],
      "stateMutability": "nonpayable",
      "type": "function"
    },
    {
      "inputs": [
        {
          "internalType": "uint256",
          "name": "",
          "type": "uint256"
        }
      ],
      "name": "uri",
      "outputs": [
        {
          "internalType": "string",
          "name": "",
          "type": "string"
        }
      ],
      "stateMutability": "view",
      "type": "function"
    },
    {
      "inputs": [
        {
          "internalType": "string",
          "name": "uri_",
          "type": "string"
        }
      ],
      "name": "initialize",
      "outputs": [],
      "stateMutability": "nonpayable",
      "type": "function"
    },
    {
      "inputs": [
        {
          "internalType": "address",
          "name": "erc721ContractAddress",
          "type": "address"
        },
        {
          "internalType": "uint256",
          "name": "erc721TokenId",
          "type": "uint256"
        },
        {
          "internalType": "uint256",
          "name": "fractionsAmountToMint",
          "type": "uint256"
        }
      ],
      "name": "depositNft",
      "outputs": [],
      "stateMutability": "nonpayable",
      "type": "function"
    },
    {
      "inputs": [
        {
          "internalType": "uint256",
          "name": "tokenId",
          "type": "uint256"
        }
      ],
      "name": "withdrawNft",
      "outputs": [],
      "stateMutability": "nonpayable",
      "type": "function"
    },
    {
      "inputs": [
        {
          "internalType": "address",
          "name": "from",
          "type": "address"
        },
        {
          "internalType": "address",
          "name": "to",
          "type": "address"
        },
        {
          "internalType": "uint256",
          "name": "id",
          "type": "uint256"
        },
        {
          "internalType": "uint256",
          "name": "amount",
          "type": "uint256"
        },
        {
          "internalType": "bytes",
          "name": "data",
          "type": "bytes"
        }
      ],
      "name": "transferFrom",
      "outputs": [],
      "stateMutability": "nonpayable",
      "type": "function"
    },
    {
      "inputs": [
        {
          "internalType": "uint256",
          "name": "_tokenId",
          "type": "uint256"
        }
      ],
      "name": "getTokenData",
      "outputs": [
        {
          "internalType": "address",
          "name": "erc721ContractAddress",
          "type": "address"
        },
        {
          "internalType": "uint256",
          "name": "erc721TokenId",
          "type": "uint256"
        },
        {
          "internalType": "uint256",
          "name": "totalFractionsAmount",
          "type": "uint256"
        }
      ],
      "stateMutability": "view",
      "type": "function"
    },
    {
      "inputs": [],
      "name": "pause",
      "outputs": [],
      "stateMutability": "nonpayable",
      "type": "function"
    },
    {
      "inputs": [
        {
          "internalType": "address",
          "name": "shareOwner",
          "type": "address"
        }
      ],
      "name": "getTokenIdsByShareOwner",
      "outputs": [
        {
          "internalType": "uint256[]",
          "name": "",
          "type": "uint256[]"
        }
      ],
      "stateMutability": "view",
      "type": "function"
    },
    {
      "inputs": [
        {
          "internalType": "uint256",
          "name": "tokenId",
          "type": "uint256"
        }
      ],
      "name": "getOwnersBYtokenId",
      "outputs": [
        {
          "internalType": "address[]",
          "name": "",
          "type": "address[]"
        }
      ],
      "stateMutability": "view",
      "type": "function"
    },
    {
      "inputs": [],
      "name": "getTokenIds",
      "outputs": [
        {
          "internalType": "uint256[]",
          "name": "",
          "type": "uint256[]"
        }
      ],
      "stateMutability": "view",
      "type": "function"
    }
  ],
  "bytecode": "0x608060405234801561001057600080fd5b50614edf806100206000396000f3fe608060405234801561001057600080fd5b50600436106101365760003560e01c8063715018a6116100b8578063b09afec11161007c578063b09afec114610339578063e09a3cb41461036b578063e985e9c514610387578063f242432a146103b7578063f2fde38b146103d3578063f62d1888146103ef57610136565b8063715018a6146102cf5780638456cb59146102d95780638da5cb5b146102e3578063910efae814610301578063a22cb4651461031d57610136565b806333ae11ae116100ff57806333ae11ae146102175780634e1273f4146102475780635c975abb14610277578063605105f01461029557806367f718a9146102b157610136565b8062fdd58e1461013b57806301ffc9a71461016b5780630e89341c1461019b578063180e1ef8146101cb5780632eb2c2d6146101fb575b600080fd5b610155600480360381019061015091906139f5565b61040b565b604051610162919061495a565b60405180910390f35b61018560048036038101906101809190613aec565b6104d5565b604051610192919061469d565b60405180910390f35b6101b560048036038101906101b09190613b7f565b6105b7565b6040516101c291906146b8565b60405180910390f35b6101e560048036038101906101e091906137dd565b61064b565b6040516101f29190614644565b60405180910390f35b6102156004803603810190610210919061386b565b6106e2565b005b610231600480360381019061022c9190613b7f565b610adb565b60405161023e9190614622565b60405180910390f35b610261600480360381019061025c9190613a80565b610b7c565b60405161026e9190614644565b60405180910390f35b61027f610d2d565b60405161028c919061469d565b60405180910390f35b6102af60048036038101906102aa919061392a565b610d44565b005b6102b9611170565b6040516102c69190614644565b60405180910390f35b6102d76111c8565b005b6102e1611305565b005b6102eb61138b565b6040516102f891906144d7565b60405180910390f35b61031b60048036038101906103169190613b7f565b6113b5565b005b610337600480360381019061033291906139b9565b611722565b005b610353600480360381019061034e9190613b7f565b6118a3565b604051610362939291906145eb565b60405180910390f35b61038560048036038101906103809190613a31565b61191a565b005b6103a1600480360381019061039c919061382f565b611cd0565b6040516103ae919061469d565b60405180910390f35b6103d160048036038101906103cc919061392a565b611d64565b005b6103ed60048036038101906103e891906137dd565b61207f565b005b61040960048036038101906104049190613b3e565b61222b565b005b60008073ffffffffffffffffffffffffffffffffffffffff168373ffffffffffffffffffffffffffffffffffffffff16141561047c576040517f08c379a00000000000000000000000000000000000000000000000000000000081526004016104739061475a565b60405180910390fd5b6065600083815260200190815260200160002060008473ffffffffffffffffffffffffffffffffffffffff1673ffffffffffffffffffffffffffffffffffffffff16815260200190815260200160002054905092915050565b60007fd9b67a26000000000000000000000000000000000000000000000000000000007bffffffffffffffffffffffffffffffffffffffffffffffffffffffff1916827bffffffffffffffffffffffffffffffffffffffffffffffffffffffff191614806105a057507f0e89341c000000000000000000000000000000000000000000000000000000007bffffffffffffffffffffffffffffffffffffffffffffffffffffffff1916827bffffffffffffffffffffffffffffffffffffffffffffffffffffffff1916145b806105b057506105af8261232e565b5b9050919050565b6060606780546105c690614c71565b80601f01602080910402602001604051908101604052809291908181526020018280546105f290614c71565b801561063f5780601f106106145761010080835404028352916020019161063f565b820191906000526020600020905b81548152906001019060200180831161062257829003601f168201915b50505050509050919050565b606060fd60008373ffffffffffffffffffffffffffffffffffffffff1673ffffffffffffffffffffffffffffffffffffffff1681526020019081526020016000208054806020026020016040519081016040528092919081815260200182805480156106d657602002820191906000526020600020905b8154815260200190600101908083116106c2575b50505050509050919050565b8151835114610726576040517f08c379a000000000000000000000000000000000000000000000000000000000815260040161071d906148fa565b60405180910390fd5b600073ffffffffffffffffffffffffffffffffffffffff168473ffffffffffffffffffffffffffffffffffffffff161415610796576040517f08c379a000000000000000000000000000000000000000000000000000000000815260040161078d906147fa565b60405180910390fd5b61079e612398565b73ffffffffffffffffffffffffffffffffffffffff168573ffffffffffffffffffffffffffffffffffffffff1614806107e457506107e3856107de612398565b611cd0565b5b610823576040517f08c379a000000000000000000000000000000000000000000000000000000000815260040161081a9061481a565b60405180910390fd5b600061082d612398565b905061083d8187878787876123a0565b60005b8451811015610a46576000858281518110610884577f4e487b7100000000000000000000000000000000000000000000000000000000600052603260045260246000fd5b6020026020010151905060008583815181106108c9577f4e487b7100000000000000000000000000000000000000000000000000000000600052603260045260246000fd5b6020026020010151905060006065600084815260200190815260200160002060008b73ffffffffffffffffffffffffffffffffffffffff1673ffffffffffffffffffffffffffffffffffffffff1681526020019081526020016000205490508181101561096b576040517f08c379a00000000000000000000000000000000000000000000000000000000081526004016109629061487a565b60405180910390fd5b81816109779190614b87565b6065600085815260200190815260200160002060008c73ffffffffffffffffffffffffffffffffffffffff1673ffffffffffffffffffffffffffffffffffffffff16815260200190815260200160002081905550816065600085815260200190815260200160002060008b73ffffffffffffffffffffffffffffffffffffffff1673ffffffffffffffffffffffffffffffffffffffff1681526020019081526020016000206000828254610a2b9190614b31565b9250508190555050505080610a3f90614ca3565b9050610840565b508473ffffffffffffffffffffffffffffffffffffffff168673ffffffffffffffffffffffffffffffffffffffff168273ffffffffffffffffffffffffffffffffffffffff167f4a39dc06d4c0dbc64b70af90fd698a233a518aa5d07e595d983b8c0526c8f7fb8787604051610abd929190614666565b60405180910390a4610ad38187878787876123a8565b505050505050565b606060fe6000838152602001908152602001600020805480602002602001604051908101604052809291908181526020018280548015610b7057602002820191906000526020600020905b8160009054906101000a900473ffffffffffffffffffffffffffffffffffffffff1673ffffffffffffffffffffffffffffffffffffffff1681526020019060010190808311610b26575b50505050509050919050565b60608151835114610bc2576040517f08c379a0000000000000000000000000000000000000000000000000000000008152600401610bb9906148da565b60405180910390fd5b6000835167ffffffffffffffff811115610c05577f4e487b7100000000000000000000000000000000000000000000000000000000600052604160045260246000fd5b604051908082528060200260200182016040528015610c335781602001602082028036833780820191505090505b50905060005b8451811015610d2257610ccc858281518110610c7e577f4e487b7100000000000000000000000000000000000000000000000000000000600052603260045260246000fd5b6020026020010151858381518110610cbf577f4e487b7100000000000000000000000000000000000000000000000000000000600052603260045260246000fd5b602002602001015161040b565b828281518110610d05577f4e487b7100000000000000000000000000000000000000000000000000000000600052603260045260246000fd5b60200260200101818152505080610d1b90614ca3565b9050610c39565b508091505092915050565b6000609760009054906101000a900460ff16905090565b610d4c610d2d565b15610d8c576040517f08c379a0000000000000000000000000000000000000000000000000000000008152600401610d839061493a565b60405180910390fd5b6000610d98868561040b565b90506000610da6868661040b565b9050610db58787878787611d64565b81841061104857600060fe60008781526020019081526020016000208054905090506000805b82811015610ea75760fe60008981526020019081526020016000208181548110610e2e577f4e487b7100000000000000000000000000000000000000000000000000000000600052603260045260246000fd5b9060005260206000200160009054906101000a900473ffffffffffffffffffffffffffffffffffffffff1673ffffffffffffffffffffffffffffffffffffffff168a73ffffffffffffffffffffffffffffffffffffffff161415610e9457809150610ea7565b8080610e9f90614ca3565b915050610ddb565b5060fe6000888152602001908152602001600020600183610ec89190614b87565b81548110610eff577f4e487b7100000000000000000000000000000000000000000000000000000000600052603260045260246000fd5b9060005260206000200160009054906101000a900473ffffffffffffffffffffffffffffffffffffffff1660fe60008981526020019081526020016000208281548110610f75577f4e487b7100000000000000000000000000000000000000000000000000000000600052603260045260246000fd5b9060005260206000200160006101000a81548173ffffffffffffffffffffffffffffffffffffffff021916908373ffffffffffffffffffffffffffffffffffffffff16021790555060fe6000888152602001908152602001600020805480611006577f4e487b7100000000000000000000000000000000000000000000000000000000600052603160045260246000fd5b6001900381819060005260206000200160006101000a81549073ffffffffffffffffffffffffffffffffffffffff021916905590556110458988612578565b50505b600081141561112c5760fe6000868152602001908152602001600020869080600181540180825580915050600190039060005260206000200160009091909190916101000a81548173ffffffffffffffffffffffffffffffffffffffff021916908373ffffffffffffffffffffffffffffffffffffffff16021790555060fd60008773ffffffffffffffffffffffffffffffffffffffff1673ffffffffffffffffffffffffffffffffffffffff1681526020019081526020016000208590806001815401808255809150506001900390600052602060002001600090919091909150555b7f72078afb446c281f0fcb6a2ee400de4899b92c811853bebd4bdf0ea0d1e0e78987878660405161115f9392919061455a565b60405180910390a150505050505050565b606060ff8054806020026020016040519081016040528092919081815260200182805480156111be57602002820191906000526020600020905b8154815260200190600101908083116111aa575b5050505050905090565b6111d0612398565b73ffffffffffffffffffffffffffffffffffffffff166111ee61138b565b73ffffffffffffffffffffffffffffffffffffffff1614611244576040517f08c379a000000000000000000000000000000000000000000000000000000000815260040161123b9061489a565b60405180910390fd5b600073ffffffffffffffffffffffffffffffffffffffff1660c960009054906101000a900473ffffffffffffffffffffffffffffffffffffffff1673ffffffffffffffffffffffffffffffffffffffff167f8be0079c531659141344cd1fd0a4f28419497f9722a3daafe3b4186f6b6457e060405160405180910390a3600060c960006101000a81548173ffffffffffffffffffffffffffffffffffffffff021916908373ffffffffffffffffffffffffffffffffffffffff160217905550565b61130d612398565b73ffffffffffffffffffffffffffffffffffffffff1661132b61138b565b73ffffffffffffffffffffffffffffffffffffffff1614611381576040517f08c379a00000000000000000000000000000000000000000000000000000000081526004016113789061489a565b60405180910390fd5b611389612814565b565b600060c960009054906101000a900473ffffffffffffffffffffffffffffffffffffffff16905090565b6113bd610d2d565b156113fd576040517f08c379a00000000000000000000000000000000000000000000000000000000081526004016113f49061493a565b60405180910390fd5b600060fc60008381526020019081526020016000206002015490506000611424338461040b565b9050808214611468576040517f08c379a000000000000000000000000000000000000000000000000000000000815260040161145f9061471a565b60405180910390fd5b600060fc600085815260200190815260200160002060000160009054906101000a900473ffffffffffffffffffffffffffffffffffffffff169050600060fc600086815260200190815260200160002060010154905060008290508073ffffffffffffffffffffffffffffffffffffffff166323b872dd3033856040518463ffffffff1660e01b81526004016115009392919061455a565b600060405180830381600087803b15801561151a57600080fd5b505af115801561152e573d6000803e3d6000fd5b5050505061153d3387876128b7565b6115473387612578565b600060ff8054905090506000805b828110156115c45760ff8181548110611597577f4e487b7100000000000000000000000000000000000000000000000000000000600052603260045260246000fd5b90600052602060002001548914156115b1578091506115c4565b80806115bc90614ca3565b915050611555565b5060ff6001836115d49190614b87565b8154811061160b577f4e487b7100000000000000000000000000000000000000000000000000000000600052603260045260246000fd5b906000526020600020015460ff8281548110611650577f4e487b7100000000000000000000000000000000000000000000000000000000600052603260045260246000fd5b906000526020600020018190555060ff805480611696577f4e487b7100000000000000000000000000000000000000000000000000000000600052603160045260246000fd5b6001900381819060005260206000200160009055905560fe600089815260200190815260200160002060006116cb9190613468565b60fc6000898152602001908152602001600020600080820160006101000a81549073ffffffffffffffffffffffffffffffffffffffff02191690556001820160009055600282016000905550505050505050505050565b8173ffffffffffffffffffffffffffffffffffffffff16611741612398565b73ffffffffffffffffffffffffffffffffffffffff161415611798576040517f08c379a000000000000000000000000000000000000000000000000000000000815260040161178f906148ba565b60405180910390fd5b80606660006117a5612398565b73ffffffffffffffffffffffffffffffffffffffff1673ffffffffffffffffffffffffffffffffffffffff16815260200190815260200160002060008473ffffffffffffffffffffffffffffffffffffffff1673ffffffffffffffffffffffffffffffffffffffff16815260200190815260200160002060006101000a81548160ff0219169083151502179055508173ffffffffffffffffffffffffffffffffffffffff16611852612398565b73ffffffffffffffffffffffffffffffffffffffff167f17307eab39ab6107e8899845ad3d59bd9653f200f220920489ca2b5937696c3183604051611897919061469d565b60405180910390a35050565b600080600060fc600085815260200190815260200160002060000160009054906101000a900473ffffffffffffffffffffffffffffffffffffffff1660fc60008681526020019081526020016000206001015460fc6000878152602001908152602001600020600201549250925092509193909250565b611922610d2d565b15611962576040517f08c379a00000000000000000000000000000000000000000000000000000000081526004016119599061493a565b60405180910390fd5b60008390503373ffffffffffffffffffffffffffffffffffffffff168173ffffffffffffffffffffffffffffffffffffffff16636352211e856040518263ffffffff1660e01b81526004016119b7919061495a565b60206040518083038186803b1580156119cf57600080fd5b505afa1580156119e3573d6000803e3d6000fd5b505050506040513d601f19601f82011682018060405250810190611a079190613806565b73ffffffffffffffffffffffffffffffffffffffff1614611a5d576040517f08c379a0000000000000000000000000000000000000000000000000000000008152600401611a549061473a565b60405180910390fd5b8073ffffffffffffffffffffffffffffffffffffffff166323b872dd3330866040518463ffffffff1660e01b8152600401611a9a9392919061455a565b600060405180830381600087803b158015611ab457600080fd5b505af1158015611ac8573d6000803e3d6000fd5b50505050611ad660fb612adf565b6000611ae260fb612af5565b9050611aff33828560405180602001604052806000815250612b03565b611b07613489565b85816000019073ffffffffffffffffffffffffffffffffffffffff16908173ffffffffffffffffffffffffffffffffffffffff168152505084816020018181525050838160400181815250508060fc600084815260200190815260200160002060008201518160000160006101000a81548173ffffffffffffffffffffffffffffffffffffffff021916908373ffffffffffffffffffffffffffffffffffffffff160217905550602082015181600101556040820151816002015590505060fd60003373ffffffffffffffffffffffffffffffffffffffff1673ffffffffffffffffffffffffffffffffffffffff16815260200190815260200160002082908060018154018082558091505060019003906000526020600020016000909190919091505560fe6000838152602001908152602001600020339080600181540180825580915050600190039060005260206000200160009091909190916101000a81548173ffffffffffffffffffffffffffffffffffffffff021916908373ffffffffffffffffffffffffffffffffffffffff16021790555060ff829080600181540180825580915050600190039060005260206000200160009091909190915055505050505050565b6000606660008473ffffffffffffffffffffffffffffffffffffffff1673ffffffffffffffffffffffffffffffffffffffff16815260200190815260200160002060008373ffffffffffffffffffffffffffffffffffffffff1673ffffffffffffffffffffffffffffffffffffffff16815260200190815260200160002060009054906101000a900460ff16905092915050565b600073ffffffffffffffffffffffffffffffffffffffff168473ffffffffffffffffffffffffffffffffffffffff161415611dd4576040517f08c379a0000000000000000000000000000000000000000000000000000000008152600401611dcb906147fa565b60405180910390fd5b611ddc612398565b73ffffffffffffffffffffffffffffffffffffffff168573ffffffffffffffffffffffffffffffffffffffff161480611e225750611e2185611e1c612398565b611cd0565b5b611e61576040517f08c379a0000000000000000000000000000000000000000000000000000000008152600401611e58906147ba565b60405180910390fd5b6000611e6b612398565b9050611e8b818787611e7c88612c9a565b611e8588612c9a565b876123a0565b60006065600086815260200190815260200160002060008873ffffffffffffffffffffffffffffffffffffffff1673ffffffffffffffffffffffffffffffffffffffff16815260200190815260200160002054905083811015611f23576040517f08c379a0000000000000000000000000000000000000000000000000000000008152600401611f1a9061487a565b60405180910390fd5b8381611f2f9190614b87565b6065600087815260200190815260200160002060008973ffffffffffffffffffffffffffffffffffffffff1673ffffffffffffffffffffffffffffffffffffffff16815260200190815260200160002081905550836065600087815260200190815260200160002060008873ffffffffffffffffffffffffffffffffffffffff1673ffffffffffffffffffffffffffffffffffffffff1681526020019081526020016000206000828254611fe39190614b31565b925050819055508573ffffffffffffffffffffffffffffffffffffffff168773ffffffffffffffffffffffffffffffffffffffff168373ffffffffffffffffffffffffffffffffffffffff167fc3d58168c5ae7397731d063d5bbf3d657854427343f4c083240f7aacaa2d0f628888604051612060929190614975565b60405180910390a4612076828888888888612d60565b50505050505050565b612087612398565b73ffffffffffffffffffffffffffffffffffffffff166120a561138b565b73ffffffffffffffffffffffffffffffffffffffff16146120fb576040517f08c379a00000000000000000000000000000000000000000000000000000000081526004016120f29061489a565b60405180910390fd5b600073ffffffffffffffffffffffffffffffffffffffff168173ffffffffffffffffffffffffffffffffffffffff16141561216b576040517f08c379a00000000000000000000000000000000000000000000000000000000081526004016121629061477a565b60405180910390fd5b8073ffffffffffffffffffffffffffffffffffffffff1660c960009054906101000a900473ffffffffffffffffffffffffffffffffffffffff1673ffffffffffffffffffffffffffffffffffffffff167f8be0079c531659141344cd1fd0a4f28419497f9722a3daafe3b4186f6b6457e060405160405180910390a38060c960006101000a81548173ffffffffffffffffffffffffffffffffffffffff021916908373ffffffffffffffffffffffffffffffffffffffff16021790555050565b600060019054906101000a900460ff1680612251575060008054906101000a900460ff16155b612290576040517f08c379a00000000000000000000000000000000000000000000000000000000081526004016122879061483a565b60405180910390fd5b60008060019054906101000a900460ff1615905080156122e0576001600060016101000a81548160ff02191690831515021790555060016000806101000a81548160ff0219169083151502179055505b6122e8612f30565b6122f0613009565b6122f86130e2565b612301826131d6565b6123096132b9565b801561232a5760008060016101000a81548160ff0219169083151502179055505b5050565b60007f01ffc9a7000000000000000000000000000000000000000000000000000000007bffffffffffffffffffffffffffffffffffffffffffffffffffffffff1916827bffffffffffffffffffffffffffffffffffffffffffffffffffffffff1916149050919050565b600033905090565b505050505050565b6123c78473ffffffffffffffffffffffffffffffffffffffff1661343b565b15612570578373ffffffffffffffffffffffffffffffffffffffff1663bc197c8187878686866040518663ffffffff1660e01b815260040161240d9594939291906144f2565b602060405180830381600087803b15801561242757600080fd5b505af192505050801561245857506040513d601f19601f820116820180604052508101906124559190613b15565b60015b6124e757612464614d97565b8061246f57506124ac565b806040517f08c379a00000000000000000000000000000000000000000000000000000000081526004016124a391906146b8565b60405180910390fd5b6040517f08c379a00000000000000000000000000000000000000000000000000000000081526004016124de906146da565b60405180910390fd5b63bc197c8160e01b7bffffffffffffffffffffffffffffffffffffffffffffffffffffffff1916817bffffffffffffffffffffffffffffffffffffffffffffffffffffffff19161461256e576040517f08c379a0000000000000000000000000000000000000000000000000000000008152600401612565906146fa565b60405180910390fd5b505b505050505050565b600060fd60008473ffffffffffffffffffffffffffffffffffffffff1673ffffffffffffffffffffffffffffffffffffffff1681526020019081526020016000208054905090506000805b8281101561266f5760fd60008673ffffffffffffffffffffffffffffffffffffffff1673ffffffffffffffffffffffffffffffffffffffff1681526020019081526020016000208181548110612642577f4e487b7100000000000000000000000000000000000000000000000000000000600052603260045260246000fd5b906000526020600020015484141561265c5780915061266f565b808061266790614ca3565b9150506125c3565b5060fd60008573ffffffffffffffffffffffffffffffffffffffff1673ffffffffffffffffffffffffffffffffffffffff1681526020019081526020016000206001836126bc9190614b87565b815481106126f3577f4e487b7100000000000000000000000000000000000000000000000000000000600052603260045260246000fd5b906000526020600020015460fd60008673ffffffffffffffffffffffffffffffffffffffff1673ffffffffffffffffffffffffffffffffffffffff1681526020019081526020016000208281548110612775577f4e487b7100000000000000000000000000000000000000000000000000000000600052603260045260246000fd5b906000526020600020018190555060fd60008573ffffffffffffffffffffffffffffffffffffffff1673ffffffffffffffffffffffffffffffffffffffff1681526020019081526020016000208054806127f8577f4e487b7100000000000000000000000000000000000000000000000000000000600052603160045260246000fd5b6001900381819060005260206000200160009055905550505050565b61281c610d2d565b1561285c576040517f08c379a0000000000000000000000000000000000000000000000000000000008152600401612853906147da565b60405180910390fd5b6001609760006101000a81548160ff0219169083151502179055507f62e78cea01bee320cd4e420270b5ea74000d11b0c9f74754ebdbfc544b05a2586128a0612398565b6040516128ad91906144d7565b60405180910390a1565b600073ffffffffffffffffffffffffffffffffffffffff168373ffffffffffffffffffffffffffffffffffffffff161415612927576040517f08c379a000000000000000000000000000000000000000000000000000000000815260040161291e9061485a565b60405180910390fd5b6000612931612398565b90506129618185600061294387612c9a565b61294c87612c9a565b604051806020016040528060008152506123a0565b60006065600085815260200190815260200160002060008673ffffffffffffffffffffffffffffffffffffffff1673ffffffffffffffffffffffffffffffffffffffff168152602001908152602001600020549050828110156129f9576040517f08c379a00000000000000000000000000000000000000000000000000000000081526004016129f09061479a565b60405180910390fd5b8281612a059190614b87565b6065600086815260200190815260200160002060008773ffffffffffffffffffffffffffffffffffffffff1673ffffffffffffffffffffffffffffffffffffffff16815260200190815260200160002081905550600073ffffffffffffffffffffffffffffffffffffffff168573ffffffffffffffffffffffffffffffffffffffff168373ffffffffffffffffffffffffffffffffffffffff167fc3d58168c5ae7397731d063d5bbf3d657854427343f4c083240f7aacaa2d0f628787604051612ad0929190614975565b60405180910390a45050505050565b6001816000016000828254019250508190555050565b600081600001549050919050565b600073ffffffffffffffffffffffffffffffffffffffff168473ffffffffffffffffffffffffffffffffffffffff161415612b73576040517f08c379a0000000000000000000000000000000000000000000000000000000008152600401612b6a9061491a565b60405180910390fd5b6000612b7d612398565b9050612b9e81600087612b8f88612c9a565b612b9888612c9a565b876123a0565b826065600086815260200190815260200160002060008773ffffffffffffffffffffffffffffffffffffffff1673ffffffffffffffffffffffffffffffffffffffff1681526020019081526020016000206000828254612bfe9190614b31565b925050819055508473ffffffffffffffffffffffffffffffffffffffff16600073ffffffffffffffffffffffffffffffffffffffff168273ffffffffffffffffffffffffffffffffffffffff167fc3d58168c5ae7397731d063d5bbf3d657854427343f4c083240f7aacaa2d0f628787604051612c7c929190614975565b60405180910390a4612c9381600087878787612d60565b5050505050565b60606000600167ffffffffffffffff811115612cdf577f4e487b7100000000000000000000000000000000000000000000000000000000600052604160045260246000fd5b604051908082528060200260200182016040528015612d0d5781602001602082028036833780820191505090505b5090508281600081518110612d4b577f4e487b7100000000000000000000000000000000000000000000000000000000600052603260045260246000fd5b60200260200101818152505080915050919050565b612d7f8473ffffffffffffffffffffffffffffffffffffffff1661343b565b15612f28578373ffffffffffffffffffffffffffffffffffffffff1663f23a6e6187878686866040518663ffffffff1660e01b8152600401612dc5959493929190614591565b602060405180830381600087803b158015612ddf57600080fd5b505af1925050508015612e1057506040513d601f19601f82011682018060405250810190612e0d9190613b15565b60015b612e9f57612e1c614d97565b80612e275750612e64565b806040517f08c379a0000000000000000000000000000000000000000000000000000000008152600401612e5b91906146b8565b60405180910390fd5b6040517f08c379a0000000000000000000000000000000000000000000000000000000008152600401612e96906146da565b60405180910390fd5b63f23a6e6160e01b7bffffffffffffffffffffffffffffffffffffffffffffffffffffffff1916817bffffffffffffffffffffffffffffffffffffffffffffffffffffffff191614612f26576040517f08c379a0000000000000000000000000000000000000000000000000000000008152600401612f1d906146fa565b60405180910390fd5b505b505050505050565b600060019054906101000a900460ff1680612f56575060008054906101000a900460ff16155b612f95576040517f08c379a0000000000000000000000000000000000000000000000000000000008152600401612f8c9061483a565b60405180910390fd5b60008060019054906101000a900460ff161590508015612fe5576001600060016101000a81548160ff02191690831515021790555060016000806101000a81548160ff0219169083151502179055505b80156130065760008060016101000a81548160ff0219169083151502179055505b50565b600060019054906101000a900460ff168061302f575060008054906101000a900460ff16155b61306e576040517f08c379a00000000000000000000000000000000000000000000000000000000081526004016130659061483a565b60405180910390fd5b60008060019054906101000a900460ff1615905080156130be576001600060016101000a81548160ff02191690831515021790555060016000806101000a81548160ff0219169083151502179055505b80156130df5760008060016101000a81548160ff0219169083151502179055505b50565b600060019054906101000a900460ff1680613108575060008054906101000a900460ff16155b613147576040517f08c379a000000000000000000000000000000000000000000000000000000000815260040161313e9061483a565b60405180910390fd5b60008060019054906101000a900460ff161590508015613197576001600060016101000a81548160ff02191690831515021790555060016000806101000a81548160ff0219169083151502179055505b6000609760006101000a81548160ff02191690831515021790555080156131d35760008060016101000a81548160ff0219169083151502179055505b50565b600060019054906101000a900460ff16806131fc575060008054906101000a900460ff16155b61323b576040517f08c379a00000000000000000000000000000000000000000000000000000000081526004016132329061483a565b60405180910390fd5b60008060019054906101000a900460ff16159050801561328b576001600060016101000a81548160ff02191690831515021790555060016000806101000a81548160ff0219169083151502179055505b6132948261344e565b80156132b55760008060016101000a81548160ff0219169083151502179055505b5050565b600060019054906101000a900460ff16806132df575060008054906101000a900460ff16155b61331e576040517f08c379a00000000000000000000000000000000000000000000000000000000081526004016133159061483a565b60405180910390fd5b60008060019054906101000a900460ff16159050801561336e576001600060016101000a81548160ff02191690831515021790555060016000806101000a81548160ff0219169083151502179055505b6000613378612398565b90508060c960006101000a81548173ffffffffffffffffffffffffffffffffffffffff021916908373ffffffffffffffffffffffffffffffffffffffff1602179055508073ffffffffffffffffffffffffffffffffffffffff16600073ffffffffffffffffffffffffffffffffffffffff167f8be0079c531659141344cd1fd0a4f28419497f9722a3daafe3b4186f6b6457e060405160405180910390a35080156134385760008060016101000a81548160ff0219169083151502179055505b50565b600080823b905060008111915050919050565b80606790805190602001906134649291906134c0565b5050565b50805460008255906000526020600020908101906134869190613546565b50565b6040518060600160405280600073ffffffffffffffffffffffffffffffffffffffff16815260200160008152602001600081525090565b8280546134cc90614c71565b90600052602060002090601f0160209004810192826134ee5760008555613535565b82601f1061350757805160ff1916838001178555613535565b82800160010185558215613535579182015b82811115613534578251825591602001919060010190613519565b5b5090506135429190613546565b5090565b5b8082111561355f576000816000905550600101613547565b5090565b6000613576613571846149cf565b61499e565b9050808382526020820190508285602086028201111561359557600080fd5b60005b858110156135c557816135ab88826136b7565b845260208401935060208301925050600181019050613598565b5050509392505050565b60006135e26135dd846149fb565b61499e565b9050808382526020820190508285602086028201111561360157600080fd5b60005b85811015613631578161361788826137c8565b845260208401935060208301925050600181019050613604565b5050509392505050565b600061364e61364984614a27565b61499e565b90508281526020810184848401111561366657600080fd5b613671848285614c2f565b509392505050565b600061368c61368784614a57565b61499e565b9050828152602081018484840111156136a457600080fd5b6136af848285614c2f565b509392505050565b6000813590506136c681614e4d565b92915050565b6000815190506136db81614e4d565b92915050565b600082601f8301126136f257600080fd5b8135613702848260208601613563565b91505092915050565b600082601f83011261371c57600080fd5b813561372c8482602086016135cf565b91505092915050565b60008135905061374481614e64565b92915050565b60008135905061375981614e7b565b92915050565b60008151905061376e81614e7b565b92915050565b600082601f83011261378557600080fd5b813561379584826020860161363b565b91505092915050565b600082601f8301126137af57600080fd5b81356137bf848260208601613679565b91505092915050565b6000813590506137d781614e92565b92915050565b6000602082840312156137ef57600080fd5b60006137fd848285016136b7565b91505092915050565b60006020828403121561381857600080fd5b6000613826848285016136cc565b91505092915050565b6000806040838503121561384257600080fd5b6000613850858286016136b7565b9250506020613861858286016136b7565b9150509250929050565b600080600080600060a0868803121561388357600080fd5b6000613891888289016136b7565b95505060206138a2888289016136b7565b945050604086013567ffffffffffffffff8111156138bf57600080fd5b6138cb8882890161370b565b935050606086013567ffffffffffffffff8111156138e857600080fd5b6138f48882890161370b565b925050608086013567ffffffffffffffff81111561391157600080fd5b61391d88828901613774565b9150509295509295909350565b600080600080600060a0868803121561394257600080fd5b6000613950888289016136b7565b9550506020613961888289016136b7565b9450506040613972888289016137c8565b9350506060613983888289016137c8565b925050608086013567ffffffffffffffff8111156139a057600080fd5b6139ac88828901613774565b9150509295509295909350565b600080604083850312156139cc57600080fd5b60006139da858286016136b7565b92505060206139eb85828601613735565b9150509250929050565b60008060408385031215613a0857600080fd5b6000613a16858286016136b7565b9250506020613a27858286016137c8565b9150509250929050565b600080600060608486031215613a4657600080fd5b6000613a54868287016136b7565b9350506020613a65868287016137c8565b9250506040613a76868287016137c8565b9150509250925092565b60008060408385031215613a9357600080fd5b600083013567ffffffffffffffff811115613aad57600080fd5b613ab9858286016136e1565b925050602083013567ffffffffffffffff811115613ad657600080fd5b613ae28582860161370b565b9150509250929050565b600060208284031215613afe57600080fd5b6000613b0c8482850161374a565b91505092915050565b600060208284031215613b2757600080fd5b6000613b358482850161375f565b91505092915050565b600060208284031215613b5057600080fd5b600082013567ffffffffffffffff811115613b6a57600080fd5b613b768482850161379e565b91505092915050565b600060208284031215613b9157600080fd5b6000613b9f848285016137c8565b91505092915050565b6000613bb48383613bd8565b60208301905092915050565b6000613bcc83836144b9565b60208301905092915050565b613be181614bbb565b82525050565b613bf081614bbb565b82525050565b6000613c0182614aa7565b613c0b8185614aed565b9350613c1683614a87565b8060005b83811015613c47578151613c2e8882613ba8565b9750613c3983614ad3565b925050600181019050613c1a565b5085935050505092915050565b6000613c5f82614ab2565b613c698185614afe565b9350613c7483614a97565b8060005b83811015613ca5578151613c8c8882613bc0565b9750613c9783614ae0565b925050600181019050613c78565b5085935050505092915050565b613cbb81614bcd565b82525050565b6000613ccc82614abd565b613cd68185614b0f565b9350613ce6818560208601614c3e565b613cef81614d79565b840191505092915050565b6000613d0582614ac8565b613d0f8185614b20565b9350613d1f818560208601614c3e565b613d2881614d79565b840191505092915050565b6000613d40603483614b20565b91507f455243313135353a207472616e7366657220746f206e6f6e204552433131353560008301527f526563656976657220696d706c656d656e7465720000000000000000000000006020830152604082019050919050565b6000613da6602883614b20565b91507f455243313135353a204552433131353552656365697665722072656a6563746560008301527f6420746f6b656e730000000000000000000000000000000000000000000000006020830152604082019050919050565b6000613e0c602b83614b20565b91507f6d6573736167652073656e6465722068617320746f206f776e20616c6c206f6660008301527f20746865207368617265730000000000000000000000000000000000000000006020830152604082019050919050565b6000613e72602a83614b20565b91507f6d73672073656e6465722068617320746f206f776e2074686520746f6b656e2060008301527f746f206465706f736974000000000000000000000000000000000000000000006020830152604082019050919050565b6000613ed8602b83614b20565b91507f455243313135353a2062616c616e636520717565727920666f7220746865207a60008301527f65726f20616464726573730000000000000000000000000000000000000000006020830152604082019050919050565b6000613f3e602683614b20565b91507f4f776e61626c653a206e6577206f776e657220697320746865207a65726f206160008301527f64647265737300000000000000000000000000000000000000000000000000006020830152604082019050919050565b6000613fa4602483614b20565b91507f455243313135353a206275726e20616d6f756e7420657863656564732062616c60008301527f616e6365000000000000000000000000000000000000000000000000000000006020830152604082019050919050565b600061400a602983614b20565b91507f455243313135353a2063616c6c6572206973206e6f74206f776e6572206e6f7260008301527f20617070726f76656400000000000000000000000000000000000000000000006020830152604082019050919050565b6000614070601083614b20565b91507f5061757361626c653a20706175736564000000000000000000000000000000006000830152602082019050919050565b60006140b0602583614b20565b91507f455243313135353a207472616e7366657220746f20746865207a65726f20616460008301527f64726573730000000000000000000000000000000000000000000000000000006020830152604082019050919050565b6000614116603283614b20565b91507f455243313135353a207472616e736665722063616c6c6572206973206e6f742060008301527f6f776e6572206e6f7220617070726f76656400000000000000000000000000006020830152604082019050919050565b600061417c602e83614b20565b91507f496e697469616c697a61626c653a20636f6e747261637420697320616c72656160008301527f647920696e697469616c697a65640000000000000000000000000000000000006020830152604082019050919050565b60006141e2602383614b20565b91507f455243313135353a206275726e2066726f6d20746865207a65726f206164647260008301527f65737300000000000000000000000000000000000000000000000000000000006020830152604082019050919050565b6000614248602a83614b20565b91507f455243313135353a20696e73756666696369656e742062616c616e636520666f60008301527f72207472616e73666572000000000000000000000000000000000000000000006020830152604082019050919050565b60006142ae602083614b20565b91507f4f776e61626c653a2063616c6c6572206973206e6f7420746865206f776e65726000830152602082019050919050565b60006142ee602983614b20565b91507f455243313135353a2073657474696e6720617070726f76616c2073746174757360008301527f20666f722073656c6600000000000000000000000000000000000000000000006020830152604082019050919050565b6000614354602983614b20565b91507f455243313135353a206163636f756e747320616e6420696473206c656e67746860008301527f206d69736d6174636800000000000000000000000000000000000000000000006020830152604082019050919050565b60006143ba602883614b20565b91507f455243313135353a2069647320616e6420616d6f756e7473206c656e6774682060008301527f6d69736d617463680000000000000000000000000000000000000000000000006020830152604082019050919050565b6000614420602183614b20565b91507f455243313135353a206d696e7420746f20746865207a65726f2061646472657360008301527f73000000000000000000000000000000000000000000000000000000000000006020830152604082019050919050565b6000614486601883614b20565b91507f4e6f7420616c6c6f776564207768696c652070617573656400000000000000006000830152602082019050919050565b6144c281614c25565b82525050565b6144d181614c25565b82525050565b60006020820190506144ec6000830184613be7565b92915050565b600060a0820190506145076000830188613be7565b6145146020830187613be7565b81810360408301526145268186613c54565b9050818103606083015261453a8185613c54565b9050818103608083015261454e8184613cc1565b90509695505050505050565b600060608201905061456f6000830186613be7565b61457c6020830185613be7565b61458960408301846144c8565b949350505050565b600060a0820190506145a66000830188613be7565b6145b36020830187613be7565b6145c060408301866144c8565b6145cd60608301856144c8565b81810360808301526145df8184613cc1565b90509695505050505050565b60006060820190506146006000830186613be7565b61460d60208301856144c8565b61461a60408301846144c8565b949350505050565b6000602082019050818103600083015261463c8184613bf6565b905092915050565b6000602082019050818103600083015261465e8184613c54565b905092915050565b600060408201905081810360008301526146808185613c54565b905081810360208301526146948184613c54565b90509392505050565b60006020820190506146b26000830184613cb2565b92915050565b600060208201905081810360008301526146d28184613cfa565b905092915050565b600060208201905081810360008301526146f381613d33565b9050919050565b6000602082019050818103600083015261471381613d99565b9050919050565b6000602082019050818103600083015261473381613dff565b9050919050565b6000602082019050818103600083015261475381613e65565b9050919050565b6000602082019050818103600083015261477381613ecb565b9050919050565b6000602082019050818103600083015261479381613f31565b9050919050565b600060208201905081810360008301526147b381613f97565b9050919050565b600060208201905081810360008301526147d381613ffd565b9050919050565b600060208201905081810360008301526147f381614063565b9050919050565b60006020820190508181036000830152614813816140a3565b9050919050565b6000602082019050818103600083015261483381614109565b9050919050565b600060208201905081810360008301526148538161416f565b9050919050565b60006020820190508181036000830152614873816141d5565b9050919050565b600060208201905081810360008301526148938161423b565b9050919050565b600060208201905081810360008301526148b3816142a1565b9050919050565b600060208201905081810360008301526148d3816142e1565b9050919050565b600060208201905081810360008301526148f381614347565b9050919050565b60006020820190508181036000830152614913816143ad565b9050919050565b6000602082019050818103600083015261493381614413565b9050919050565b6000602082019050818103600083015261495381614479565b9050919050565b600060208201905061496f60008301846144c8565b92915050565b600060408201905061498a60008301856144c8565b61499760208301846144c8565b9392505050565b6000604051905081810181811067ffffffffffffffff821117156149c5576149c4614d4a565b5b8060405250919050565b600067ffffffffffffffff8211156149ea576149e9614d4a565b5b602082029050602081019050919050565b600067ffffffffffffffff821115614a1657614a15614d4a565b5b602082029050602081019050919050565b600067ffffffffffffffff821115614a4257614a41614d4a565b5b601f19601f8301169050602081019050919050565b600067ffffffffffffffff821115614a7257614a71614d4a565b5b601f19601f8301169050602081019050919050565b6000819050602082019050919050565b6000819050602082019050919050565b600081519050919050565b600081519050919050565b600081519050919050565b600081519050919050565b6000602082019050919050565b6000602082019050919050565b600082825260208201905092915050565b600082825260208201905092915050565b600082825260208201905092915050565b600082825260208201905092915050565b6000614b3c82614c25565b9150614b4783614c25565b9250827fffffffffffffffffffffffffffffffffffffffffffffffffffffffffffffffff03821115614b7c57614b7b614cec565b5b828201905092915050565b6000614b9282614c25565b9150614b9d83614c25565b925082821015614bb057614baf614cec565b5b828203905092915050565b6000614bc682614c05565b9050919050565b60008115159050919050565b60007fffffffff0000000000000000000000000000000000000000000000000000000082169050919050565b600073ffffffffffffffffffffffffffffffffffffffff82169050919050565b6000819050919050565b82818337600083830152505050565b60005b83811015614c5c578082015181840152602081019050614c41565b83811115614c6b576000848401525b50505050565b60006002820490506001821680614c8957607f821691505b60208210811415614c9d57614c9c614d1b565b5b50919050565b6000614cae82614c25565b91507fffffffffffffffffffffffffffffffffffffffffffffffffffffffffffffffff821415614ce157614ce0614cec565b5b600182019050919050565b7f4e487b7100000000000000000000000000000000000000000000000000000000600052601160045260246000fd5b7f4e487b7100000000000000000000000000000000000000000000000000000000600052602260045260246000fd5b7f4e487b7100000000000000000000000000000000000000000000000000000000600052604160045260246000fd5b6000601f19601f8301169050919050565b60008160e01c9050919050565b600060443d1015614da757614e4a565b60046000803e614db8600051614d8a565b6308c379a08114614dc95750614e4a565b60405160043d036004823e80513d602482011167ffffffffffffffff82111715614df557505050614e4a565b808201805167ffffffffffffffff811115614e14575050505050614e4a565b8060208301013d8501811115614e2f57505050505050614e4a565b614e3882614d79565b60208401016040528296505050505050505b90565b614e5681614bbb565b8114614e6157600080fd5b50565b614e6d81614bcd565b8114614e7857600080fd5b50565b614e8481614bd9565b8114614e8f57600080fd5b50565b614e9b81614c25565b8114614ea657600080fd5b5056fea26469706673582212203314436920a77613271b025ca13731bfe39b9b6ac70fadb992be3d7cf4c00b1864736f6c63430008000033",
  "immutableReferences": {},
  "source": "// SPDX-License-Identifier: MIT\n\npragma solidity ^0.8.0;\n\nimport \"@openzeppelin/contracts-upgradeable/token/ERC1155/ERC1155Upgradeable.sol\";\nimport \"@openzeppelin/contracts-upgradeable/security/PausableUpgradeable.sol\";\nimport \"@openzeppelin/contracts-upgradeable/proxy/utils/Initializable.sol\";\nimport \"@openzeppelin/contracts/token/ERC721/IERC721.sol\";\nimport \"@openzeppelin/contracts-upgradeable/utils/CountersUpgradeable.sol\";\nimport \"@openzeppelin/contracts-upgradeable/access/OwnableUpgradeable.sol\";\n\ncontract NftFractionsRepository is\n    Initializable,\n    ERC1155Upgradeable,\n    PausableUpgradeable,\n    OwnableUpgradeable\n{\n    using CountersUpgradeable for CountersUpgradeable.Counter;\n\n    struct Token {\n        address erc721ContractAddress;\n        uint256 erc721TokenId;\n        uint256 totalFractionsAmount;\n    }\n\n    CountersUpgradeable.Counter private _ids;\n    mapping(uint256 => Token) tokens;\n    // data structures to keep track of:\n    // tokenIds by owner:\n    mapping(address => uint256[]) tokenIdsByShareOwner;\n    // owners by tokenId:\n    mapping(uint256 => address[]) ownersByTokenId;\n    // all tokenIds:\n    uint256[] tokenIds;\n\n    event Blabla(address from, address to, uint256 amount);\n\n    function initialize(string memory uri_) public initializer {\n        __Context_init_unchained();\n        __ERC165_init_unchained();\n        __Pausable_init_unchained();\n        __ERC1155_init_unchained(uri_);\n        __Ownable_init_unchained();\n    }\n\n    /**\n     * @dev Deposit an ERC721 token and mints an ERC1155 token with the given fractions amount\n     * the original ERC721 token is transferred to the address of this smart contract.\n     * Before calling this function the user has to call the apporve function on the original NFT contract and\n     * approve this smart contract to transfer his NFT.\n     *\n     * Requirements:\n     * - msg.sender has to own the token that is deposited\n     * - the contract is not paused\n     */\n    function depositNft(\n        address erc721ContractAddress,\n        uint256 erc721TokenId,\n        uint256 fractionsAmountToMint\n    ) external {\n        require(!paused(), \"Not allowed while paused\");\n        IERC721 erc721Contract = IERC721(erc721ContractAddress);\n        require(\n            erc721Contract.ownerOf(erc721TokenId) == msg.sender,\n            \"msg sender has to own the token to deposit\"\n        );\n        erc721Contract.transferFrom(msg.sender, address(this), erc721TokenId);\n        _ids.increment();\n        uint256 newItemId = _ids.current();\n        _mint(msg.sender, newItemId, fractionsAmountToMint, \"\");\n        Token memory token;\n        token.erc721ContractAddress = erc721ContractAddress;\n        token.erc721TokenId = erc721TokenId;\n        token.totalFractionsAmount = fractionsAmountToMint;\n        tokens[newItemId] = token;\n        tokenIdsByShareOwner[msg.sender].push(newItemId);\n        ownersByTokenId[newItemId].push(msg.sender);\n        tokenIds.push(newItemId);\n    }\n\n    /**\n     * @dev Withdraw an ERC721 token from this contract. The message sender has to own all of the shares in\n     * the correspondign ERC1155 token.\n     * Successfull withdraw means:\n     * - burning the ERC1155 token\n     * - transfering the ERC721 token to the owner (msg.sender) = owner of all shares in the ERC1155 token\n     *\n     * Requirements:\n     * - msg.sender has to own all shares in the corresponding ERC1155 token\n     * - the contract is not paused\n     */\n    function withdrawNft(uint256 tokenId) external {\n        require(!paused(), \"Not allowed while paused\");\n        uint256 totalFractionsAmount = tokens[tokenId].totalFractionsAmount;\n        uint256 sendersAmount = balanceOf(msg.sender, tokenId);\n        require(\n            totalFractionsAmount == sendersAmount,\n            \"message sender has to own all of the shares\"\n        );\n        //sends the original token in the ERC721 contract\n        address erc721ContractAddress = tokens[tokenId].erc721ContractAddress;\n        uint256 erc721TokenId = tokens[tokenId].erc721TokenId;\n        IERC721 erc721Contract = IERC721(erc721ContractAddress);\n        erc721Contract.transferFrom(address(this), msg.sender, erc721TokenId);\n        //burns the ERC1155 token\n        _burn(msg.sender, tokenId, totalFractionsAmount);\n        //deletes the ERC1155 token from the tokenIdsByShareOwner array\n        deleteIdFromTokenIdsByShareOwner(msg.sender, tokenId);\n        //deletes the ERC1155 token from the tokenIds array\n        uint256 nrOfTokens = tokenIds.length;\n        uint256 tokenIdPosition;\n        for (uint256 i; i < nrOfTokens; i++) {\n            if (tokenId == tokenIds[i]) {\n                tokenIdPosition = i;\n                break;\n            }\n        }\n        tokenIds[tokenIdPosition] = tokenIds[nrOfTokens - 1];\n        tokenIds.pop();\n        //deletes the token from the owners mapping\n        delete ownersByTokenId[tokenId];\n        //deletes the token struct\n        delete tokens[tokenId];\n    }\n\n    /**\n     * @dev same as safeTransferFrom in ERC1155 with updating the internal data structures:\n     * - updates the ownersByTokenId data structure\n     * - updates the tokenIdsByShareOwner data structure\n     */\n    function transferFrom(\n        address from,\n        address to,\n        uint256 id,\n        uint256 amount,\n        bytes memory data\n    ) public {\n        require(!paused(), \"Not allowed while paused\");\n        uint256 fromBalanceBefore = balanceOf(from, id);\n        uint256 toBalanceBefore = balanceOf(to, id);\n        safeTransferFrom(from, to, id, amount, data);\n        if (amount >= fromBalanceBefore) {\n            // remove the tokenId from ownersByTokenId[tokenId][from]\n            uint256 nrOfOwners = ownersByTokenId[id].length;\n            uint256 ownerPosition;\n            for (uint256 i; i < nrOfOwners; i++) {\n                if (from == ownersByTokenId[id][i]) {\n                    ownerPosition = i;\n                    break;\n                }\n            }\n            ownersByTokenId[id][ownerPosition] = ownersByTokenId[id][\n                nrOfOwners - 1\n            ];\n            ownersByTokenId[id].pop();\n            // delete the tokenId from the tokenIdsByShareOwner array\n            deleteIdFromTokenIdsByShareOwner(from, id);\n        }\n        if (toBalanceBefore == 0) {\n            ownersByTokenId[id].push(to);\n            tokenIdsByShareOwner[to].push(id);\n        }\n        emit Blabla(from, to, amount);\n    }\n\n    /**\n     * @dev returns relevant token data:\n     * - original ERC721 contract address\n     * - original ERC721 token id\n     * - amount of fractions minted\n     */\n    function getTokenData(uint256 _tokenId)\n        public\n        view\n        returns (\n            address erc721ContractAddress,\n            uint256 erc721TokenId,\n            uint256 totalFractionsAmount\n        )\n    {\n        return (\n            tokens[_tokenId].erc721ContractAddress,\n            tokens[_tokenId].erc721TokenId,\n            tokens[_tokenId].totalFractionsAmount\n        );\n    }\n\n    function pause() public onlyOwner() {\n        _pause();\n    }\n\n    /**\n     * @dev returns the ERC1155 tokenIds that the shareOwner has shares in\n     */\n    function getTokenIdsByShareOwner(address shareOwner)\n        public\n        view\n        returns (uint256[] memory)\n    {\n        return tokenIdsByShareOwner[shareOwner];\n    }\n\n    /**\n     * @dev returns the owners of a token\n     */\n    function getOwnersBYtokenId(uint256 tokenId)\n        public\n        view\n        returns (address[] memory)\n    {\n        return ownersByTokenId[tokenId];\n    }\n\n    /**\n     * @dev returns all ERC1155 tokenIds managed by this contract\n     */\n    function getTokenIds() public view returns (uint256[] memory) {\n        return tokenIds;\n    }\n\n    /**\n     * @dev helper to delete a tokenId from tokenIdsByShareOwner\n     */\n    function deleteIdFromTokenIdsByShareOwner(address owner, uint256 id)\n        private\n    {\n        uint256 nrOfTokensByShareOwner = tokenIdsByShareOwner[owner].length;\n        uint256 tokenIdPositionInShareOwner;\n        for (uint256 i; i < nrOfTokensByShareOwner; i++) {\n            if (id == tokenIdsByShareOwner[owner][i]) {\n                tokenIdPositionInShareOwner = i;\n                break;\n            }\n        }\n        tokenIdsByShareOwner[owner][\n            tokenIdPositionInShareOwner\n        ] = tokenIdsByShareOwner[owner][nrOfTokensByShareOwner - 1];\n        tokenIdsByShareOwner[owner].pop();\n    }\n}\n",
  "sourcePath": "/Users/szabolcs/Documents/Personal/Szakmai/Ethereum/nft-fractions-dex/contracts/NftFractionsRepository.sol",
  "compiler": {
    "name": "solc",
    "version": "0.8.0+commit.c7dfd78e.Emscripten.clang"
  },
  "schemaVersion": "3.3.4",
  "updatedAt": "2021-05-06T08:33:01.901Z",
  "devdoc": {
    "kind": "dev",
    "methods": {
      "balanceOf(address,uint256)": {
        "details": "See {IERC1155-balanceOf}. Requirements: - `account` cannot be the zero address."
      },
      "balanceOfBatch(address[],uint256[])": {
        "details": "See {IERC1155-balanceOfBatch}. Requirements: - `accounts` and `ids` must have the same length."
      },
      "depositNft(address,uint256,uint256)": {
        "details": "Deposit an ERC721 token and mints an ERC1155 token with the given fractions amount the original ERC721 token is transferred to the address of this smart contract. Before calling this function the user has to call the apporve function on the original NFT contract and approve this smart contract to transfer his NFT. Requirements: - msg.sender has to own the token that is deposited - the contract is not paused"
      },
      "getOwnersBYtokenId(uint256)": {
        "details": "returns the owners of a token"
      },
      "getTokenData(uint256)": {
        "details": "returns relevant token data: - original ERC721 contract address - original ERC721 token id - amount of fractions minted"
      },
      "getTokenIds()": {
        "details": "returns all ERC1155 tokenIds managed by this contract"
      },
      "getTokenIdsByShareOwner(address)": {
        "details": "returns the ERC1155 tokenIds that the shareOwner has shares in"
      },
      "isApprovedForAll(address,address)": {
        "details": "See {IERC1155-isApprovedForAll}."
      },
      "owner()": {
        "details": "Returns the address of the current owner."
      },
      "paused()": {
        "details": "Returns true if the contract is paused, and false otherwise."
      },
      "renounceOwnership()": {
        "details": "Leaves the contract without owner. It will not be possible to call `onlyOwner` functions anymore. Can only be called by the current owner. NOTE: Renouncing ownership will leave the contract without an owner, thereby removing any functionality that is only available to the owner."
      },
      "safeBatchTransferFrom(address,address,uint256[],uint256[],bytes)": {
        "details": "See {IERC1155-safeBatchTransferFrom}."
      },
      "safeTransferFrom(address,address,uint256,uint256,bytes)": {
        "details": "See {IERC1155-safeTransferFrom}."
      },
      "setApprovalForAll(address,bool)": {
        "details": "See {IERC1155-setApprovalForAll}."
      },
      "supportsInterface(bytes4)": {
        "details": "See {IERC165-supportsInterface}."
      },
      "transferFrom(address,address,uint256,uint256,bytes)": {
        "details": "same as safeTransferFrom in ERC1155 with updating the internal data structures: - updates the ownersByTokenId data structure - updates the tokenIdsByShareOwner data structure"
      },
      "transferOwnership(address)": {
        "details": "Transfers ownership of the contract to a new account (`newOwner`). Can only be called by the current owner."
      },
      "uri(uint256)": {
        "details": "See {IERC1155MetadataURI-uri}. This implementation returns the same URI for *all* token types. It relies on the token type ID substitution mechanism https://eips.ethereum.org/EIPS/eip-1155#metadata[defined in the EIP]. Clients calling this function must replace the `\\{id\\}` substring with the actual token type ID."
      },
      "withdrawNft(uint256)": {
        "details": "Withdraw an ERC721 token from this contract. The message sender has to own all of the shares in the correspondign ERC1155 token. Successfull withdraw means: - burning the ERC1155 token - transfering the ERC721 token to the owner (msg.sender) = owner of all shares in the ERC1155 token Requirements: - msg.sender has to own all shares in the corresponding ERC1155 token - the contract is not paused"
      }
    },
    "version": 1
  },
  "userdoc": {
    "kind": "user",
    "methods": {},
    "version": 1
  }
}