{
  "contractName": "NftFractionsDex",
  "abi": [
    {
      "anonymous": false,
      "inputs": [
        {
          "indexed": true,
          "internalType": "address",
          "name": "account",
          "type": "address"
        },
        {
          "indexed": true,
          "internalType": "address",
          "name": "operator",
          "type": "address"
        },
        {
          "indexed": false,
          "internalType": "bool",
          "name": "approved",
          "type": "bool"
        }
      ],
      "name": "ApprovalForAll",
      "type": "event"
    },
    {
      "anonymous": false,
      "inputs": [
        {
          "indexed": true,
          "internalType": "address",
          "name": "previousOwner",
          "type": "address"
        },
        {
          "indexed": true,
          "internalType": "address",
          "name": "newOwner",
          "type": "address"
        }
      ],
      "name": "OwnershipTransferred",
      "type": "event"
    },
    {
      "anonymous": false,
      "inputs": [
        {
          "indexed": false,
          "internalType": "address",
          "name": "account",
          "type": "address"
        }
      ],
      "name": "Paused",
      "type": "event"
    },
    {
      "anonymous": false,
      "inputs": [
        {
          "indexed": true,
          "internalType": "address",
          "name": "operator",
          "type": "address"
        },
        {
          "indexed": true,
          "internalType": "address",
          "name": "from",
          "type": "address"
        },
        {
          "indexed": true,
          "internalType": "address",
          "name": "to",
          "type": "address"
        },
        {
          "indexed": false,
          "internalType": "uint256[]",
          "name": "ids",
          "type": "uint256[]"
        },
        {
          "indexed": false,
          "internalType": "uint256[]",
          "name": "values",
          "type": "uint256[]"
        }
      ],
      "name": "TransferBatch",
      "type": "event"
    },
    {
      "anonymous": false,
      "inputs": [
        {
          "indexed": true,
          "internalType": "address",
          "name": "operator",
          "type": "address"
        },
        {
          "indexed": true,
          "internalType": "address",
          "name": "from",
          "type": "address"
        },
        {
          "indexed": true,
          "internalType": "address",
          "name": "to",
          "type": "address"
        },
        {
          "indexed": false,
          "internalType": "uint256",
          "name": "id",
          "type": "uint256"
        },
        {
          "indexed": false,
          "internalType": "uint256",
          "name": "value",
          "type": "uint256"
        }
      ],
      "name": "TransferSingle",
      "type": "event"
    },
    {
      "anonymous": false,
      "inputs": [
        {
          "indexed": false,
          "internalType": "string",
          "name": "value",
          "type": "string"
        },
        {
          "indexed": true,
          "internalType": "uint256",
          "name": "id",
          "type": "uint256"
        }
      ],
      "name": "URI",
      "type": "event"
    },
    {
      "anonymous": false,
      "inputs": [
        {
          "indexed": false,
          "internalType": "address",
          "name": "account",
          "type": "address"
        }
      ],
      "name": "Unpaused",
      "type": "event"
    },
    {
      "inputs": [
        {
          "internalType": "address",
          "name": "account",
          "type": "address"
        },
        {
          "internalType": "uint256",
          "name": "id",
          "type": "uint256"
        }
      ],
      "name": "balanceOf",
      "outputs": [
        {
          "internalType": "uint256",
          "name": "",
          "type": "uint256"
        }
      ],
      "stateMutability": "view",
      "type": "function",
      "constant": true
    },
    {
      "inputs": [
        {
          "internalType": "address[]",
          "name": "accounts",
          "type": "address[]"
        },
        {
          "internalType": "uint256[]",
          "name": "ids",
          "type": "uint256[]"
        }
      ],
      "name": "balanceOfBatch",
      "outputs": [
        {
          "internalType": "uint256[]",
          "name": "",
          "type": "uint256[]"
        }
      ],
      "stateMutability": "view",
      "type": "function",
      "constant": true
    },
    {
      "inputs": [
        {
          "internalType": "address",
          "name": "account",
          "type": "address"
        },
        {
          "internalType": "address",
          "name": "operator",
          "type": "address"
        }
      ],
      "name": "isApprovedForAll",
      "outputs": [
        {
          "internalType": "bool",
          "name": "",
          "type": "bool"
        }
      ],
      "stateMutability": "view",
      "type": "function",
      "constant": true
    },
    {
      "inputs": [],
      "name": "owner",
      "outputs": [
        {
          "internalType": "address",
          "name": "",
          "type": "address"
        }
      ],
      "stateMutability": "view",
      "type": "function",
      "constant": true
    },
    {
      "inputs": [],
      "name": "paused",
      "outputs": [
        {
          "internalType": "bool",
          "name": "",
          "type": "bool"
        }
      ],
      "stateMutability": "view",
      "type": "function",
      "constant": true
    },
    {
      "inputs": [],
      "name": "renounceOwnership",
      "outputs": [],
      "stateMutability": "nonpayable",
      "type": "function"
    },
    {
      "inputs": [
        {
          "internalType": "address",
          "name": "from",
          "type": "address"
        },
        {
          "internalType": "address",
          "name": "to",
          "type": "address"
        },
        {
          "internalType": "uint256[]",
          "name": "ids",
          "type": "uint256[]"
        },
        {
          "internalType": "uint256[]",
          "name": "amounts",
          "type": "uint256[]"
        },
        {
          "internalType": "bytes",
          "name": "data",
          "type": "bytes"
        }
      ],
      "name": "safeBatchTransferFrom",
      "outputs": [],
      "stateMutability": "nonpayable",
      "type": "function"
    },
    {
      "inputs": [
        {
          "internalType": "address",
          "name": "from",
          "type": "address"
        },
        {
          "internalType": "address",
          "name": "to",
          "type": "address"
        },
        {
          "internalType": "uint256",
          "name": "id",
          "type": "uint256"
        },
        {
          "internalType": "uint256",
          "name": "amount",
          "type": "uint256"
        },
        {
          "internalType": "bytes",
          "name": "data",
          "type": "bytes"
        }
      ],
      "name": "safeTransferFrom",
      "outputs": [],
      "stateMutability": "nonpayable",
      "type": "function"
    },
    {
      "inputs": [
        {
          "internalType": "address",
          "name": "operator",
          "type": "address"
        },
        {
          "internalType": "bool",
          "name": "approved",
          "type": "bool"
        }
      ],
      "name": "setApprovalForAll",
      "outputs": [],
      "stateMutability": "nonpayable",
      "type": "function"
    },
    {
      "inputs": [
        {
          "internalType": "bytes4",
          "name": "interfaceId",
          "type": "bytes4"
        }
      ],
      "name": "supportsInterface",
      "outputs": [
        {
          "internalType": "bool",
          "name": "",
          "type": "bool"
        }
      ],
      "stateMutability": "view",
      "type": "function",
      "constant": true
    },
    {
      "inputs": [
        {
          "internalType": "address",
          "name": "newOwner",
          "type": "address"
        }
      ],
      "name": "transferOwnership",
      "outputs": [],
      "stateMutability": "nonpayable",
      "type": "function"
    },
    {
      "inputs": [
        {
          "internalType": "uint256",
          "name": "",
          "type": "uint256"
        }
      ],
      "name": "uri",
      "outputs": [
        {
          "internalType": "string",
          "name": "",
          "type": "string"
        }
      ],
      "stateMutability": "view",
      "type": "function",
      "constant": true
    },
    {
      "inputs": [
        {
          "internalType": "string",
          "name": "uri_",
          "type": "string"
        }
      ],
      "name": "initialize",
      "outputs": [],
      "stateMutability": "nonpayable",
      "type": "function"
    },
    {
      "inputs": [
        {
          "internalType": "address",
          "name": "erc721ContractAddress",
          "type": "address"
        },
        {
          "internalType": "uint256",
          "name": "erc721TokenId",
          "type": "uint256"
        },
        {
          "internalType": "uint256",
          "name": "fractionsAmountToMint",
          "type": "uint256"
        }
      ],
      "name": "depositNft",
      "outputs": [],
      "stateMutability": "nonpayable",
      "type": "function"
    },
    {
      "inputs": [
        {
          "internalType": "uint256",
          "name": "tokenId",
          "type": "uint256"
        }
      ],
      "name": "withdrawNft",
      "outputs": [],
      "stateMutability": "nonpayable",
      "type": "function"
    },
    {
      "inputs": [],
      "name": "depositEth",
      "outputs": [],
      "stateMutability": "payable",
      "type": "function",
      "payable": true
    },
    {
      "inputs": [
        {
          "internalType": "uint256",
          "name": "amount",
          "type": "uint256"
        }
      ],
      "name": "withdrawEth",
      "outputs": [],
      "stateMutability": "nonpayable",
      "type": "function"
    },
    {
      "inputs": [
        {
          "internalType": "address",
          "name": "owner",
          "type": "address"
        }
      ],
      "name": "getEthBalance",
      "outputs": [
        {
          "internalType": "uint256",
          "name": "",
          "type": "uint256"
        }
      ],
      "stateMutability": "view",
      "type": "function",
      "constant": true
    },
    {
      "inputs": [
        {
          "internalType": "uint256",
          "name": "_tokenId",
          "type": "uint256"
        }
      ],
      "name": "getTokenData",
      "outputs": [
        {
          "internalType": "address",
          "name": "erc721ContractAddress",
          "type": "address"
        },
        {
          "internalType": "uint256",
          "name": "erc721TokenId",
          "type": "uint256"
        },
        {
          "internalType": "uint256",
          "name": "totalFractionsAmount",
          "type": "uint256"
        }
      ],
      "stateMutability": "view",
      "type": "function",
      "constant": true
    },
    {
      "inputs": [],
      "name": "pause",
      "outputs": [],
      "stateMutability": "nonpayable",
      "type": "function"
    },
    {
      "inputs": [
        {
          "internalType": "address",
          "name": "shareOwner",
          "type": "address"
        }
      ],
      "name": "getTokenIdsByShareOwner",
      "outputs": [
        {
          "internalType": "uint256[]",
          "name": "",
          "type": "uint256[]"
        }
      ],
      "stateMutability": "view",
      "type": "function",
      "constant": true
    },
    {
      "inputs": [],
      "name": "getTokenIds",
      "outputs": [
        {
          "internalType": "uint256[]",
          "name": "",
          "type": "uint256[]"
        }
      ],
      "stateMutability": "view",
      "type": "function",
      "constant": true
    }
  ],
  "bytecode": "0x608060405234801561001057600080fd5b50614bac806100206000396000f3fe6080604052600436106101345760003560e01c80638456cb59116100ab578063c311d0491161006f578063c311d0491461041a578063e09a3cb414610443578063e985e9c51461046c578063f242432a146104a9578063f2fde38b146104d2578063f62d1888146104fb57610134565b80638456cb59146103475780638da5cb5b1461035e578063910efae814610389578063a22cb465146103b2578063b09afec1146103db57610134565b8063439370b1116100fd578063439370b1146102565780634d2301cc146102605780634e1273f41461029d5780635c975abb146102da57806367f718a914610305578063715018a61461033057610134565b8062fdd58e1461013957806301ffc9a7146101765780630e89341c146101b3578063180e1ef8146101f05780632eb2c2d61461022d575b600080fd5b34801561014557600080fd5b50610160600480360381019061015b9190613742565b610524565b60405161016d9190614660565b60405180910390f35b34801561018257600080fd5b5061019d60048036038101906101989190613839565b6105ee565b6040516101aa9190614383565b60405180910390f35b3480156101bf57600080fd5b506101da60048036038101906101d591906138cc565b6106d0565b6040516101e7919061439e565b60405180910390f35b3480156101fc57600080fd5b506102176004803603810190610212919061352a565b610764565b604051610224919061432a565b60405180910390f35b34801561023957600080fd5b50610254600480360381019061024f91906135b8565b6107fb565b005b61025e610bf4565b005b34801561026c57600080fd5b506102876004803603810190610282919061352a565b610c4c565b6040516102949190614660565b60405180910390f35b3480156102a957600080fd5b506102c460048036038101906102bf91906137cd565b610c95565b6040516102d1919061432a565b60405180910390f35b3480156102e657600080fd5b506102ef610e46565b6040516102fc9190614383565b60405180910390f35b34801561031157600080fd5b5061031a610e5d565b604051610327919061432a565b60405180910390f35b34801561033c57600080fd5b50610345610eb5565b005b34801561035357600080fd5b5061035c610ff2565b005b34801561036a57600080fd5b50610373611078565b60405161038091906141df565b60405180910390f35b34801561039557600080fd5b506103b060048036038101906103ab91906138cc565b6110a2565b005b3480156103be57600080fd5b506103d960048036038101906103d49190613706565b61167e565b005b3480156103e757600080fd5b5061040260048036038101906103fd91906138cc565b6117ff565b604051610411939291906142f3565b60405180910390f35b34801561042657600080fd5b50610441600480360381019061043c91906138cc565b611876565b005b34801561044f57600080fd5b5061046a6004803603810190610465919061377e565b611998565b005b34801561047857600080fd5b50610493600480360381019061048e919061357c565b611cda565b6040516104a09190614383565b60405180910390f35b3480156104b557600080fd5b506104d060048036038101906104cb9190613677565b611d6e565b005b3480156104de57600080fd5b506104f960048036038101906104f4919061352a565b612089565b005b34801561050757600080fd5b50610522600480360381019061051d919061388b565b612235565b005b60008073ffffffffffffffffffffffffffffffffffffffff168373ffffffffffffffffffffffffffffffffffffffff161415610595576040517f08c379a000000000000000000000000000000000000000000000000000000000815260040161058c90614440565b60405180910390fd5b6065600083815260200190815260200160002060008473ffffffffffffffffffffffffffffffffffffffff1673ffffffffffffffffffffffffffffffffffffffff16815260200190815260200160002054905092915050565b60007fd9b67a26000000000000000000000000000000000000000000000000000000007bffffffffffffffffffffffffffffffffffffffffffffffffffffffff1916827bffffffffffffffffffffffffffffffffffffffffffffffffffffffff191614806106b957507f0e89341c000000000000000000000000000000000000000000000000000000007bffffffffffffffffffffffffffffffffffffffffffffffffffffffff1916827bffffffffffffffffffffffffffffffffffffffffffffffffffffffff1916145b806106c957506106c882612338565b5b9050919050565b6060606780546106df9061493e565b80601f016020809104026020016040519081016040528092919081815260200182805461070b9061493e565b80156107585780601f1061072d57610100808354040283529160200191610758565b820191906000526020600020905b81548152906001019060200180831161073b57829003601f168201915b50505050509050919050565b606060fc60008373ffffffffffffffffffffffffffffffffffffffff1673ffffffffffffffffffffffffffffffffffffffff1681526020019081526020016000208054806020026020016040519081016040528092919081815260200182805480156107ef57602002820191906000526020600020905b8154815260200190600101908083116107db575b50505050509050919050565b815183511461083f576040517f08c379a000000000000000000000000000000000000000000000000000000000815260040161083690614600565b60405180910390fd5b600073ffffffffffffffffffffffffffffffffffffffff168473ffffffffffffffffffffffffffffffffffffffff1614156108af576040517f08c379a00000000000000000000000000000000000000000000000000000000081526004016108a6906144e0565b60405180910390fd5b6108b76123a2565b73ffffffffffffffffffffffffffffffffffffffff168573ffffffffffffffffffffffffffffffffffffffff1614806108fd57506108fc856108f76123a2565b611cda565b5b61093c576040517f08c379a000000000000000000000000000000000000000000000000000000000815260040161093390614500565b60405180910390fd5b60006109466123a2565b90506109568187878787876123aa565b60005b8451811015610b5f57600085828151811061099d577f4e487b7100000000000000000000000000000000000000000000000000000000600052603260045260246000fd5b6020026020010151905060008583815181106109e2577f4e487b7100000000000000000000000000000000000000000000000000000000600052603260045260246000fd5b6020026020010151905060006065600084815260200190815260200160002060008b73ffffffffffffffffffffffffffffffffffffffff1673ffffffffffffffffffffffffffffffffffffffff16815260200190815260200160002054905081811015610a84576040517f08c379a0000000000000000000000000000000000000000000000000000000008152600401610a7b90614560565b60405180910390fd5b8181610a909190614854565b6065600085815260200190815260200160002060008c73ffffffffffffffffffffffffffffffffffffffff1673ffffffffffffffffffffffffffffffffffffffff16815260200190815260200160002081905550816065600085815260200190815260200160002060008b73ffffffffffffffffffffffffffffffffffffffff1673ffffffffffffffffffffffffffffffffffffffff1681526020019081526020016000206000828254610b4491906147fe565b9250508190555050505080610b5890614970565b9050610959565b508473ffffffffffffffffffffffffffffffffffffffff168673ffffffffffffffffffffffffffffffffffffffff168273ffffffffffffffffffffffffffffffffffffffff167f4a39dc06d4c0dbc64b70af90fd698a233a518aa5d07e595d983b8c0526c8f7fb8787604051610bd692919061434c565b60405180910390a4610bec8187878787876123b2565b505050505050565b3460ff60003373ffffffffffffffffffffffffffffffffffffffff1673ffffffffffffffffffffffffffffffffffffffff1681526020019081526020016000206000828254610c4391906147fe565b92505081905550565b600060ff60008373ffffffffffffffffffffffffffffffffffffffff1673ffffffffffffffffffffffffffffffffffffffff168152602001908152602001600020549050919050565b60608151835114610cdb576040517f08c379a0000000000000000000000000000000000000000000000000000000008152600401610cd2906145e0565b60405180910390fd5b6000835167ffffffffffffffff811115610d1e577f4e487b7100000000000000000000000000000000000000000000000000000000600052604160045260246000fd5b604051908082528060200260200182016040528015610d4c5781602001602082028036833780820191505090505b50905060005b8451811015610e3b57610de5858281518110610d97577f4e487b7100000000000000000000000000000000000000000000000000000000600052603260045260246000fd5b6020026020010151858381518110610dd8577f4e487b7100000000000000000000000000000000000000000000000000000000600052603260045260246000fd5b6020026020010151610524565b828281518110610e1e577f4e487b7100000000000000000000000000000000000000000000000000000000600052603260045260246000fd5b60200260200101818152505080610e3490614970565b9050610d52565b508091505092915050565b6000609760009054906101000a900460ff16905090565b606060fe805480602002602001604051908101604052809291908181526020018280548015610eab57602002820191906000526020600020905b815481526020019060010190808311610e97575b5050505050905090565b610ebd6123a2565b73ffffffffffffffffffffffffffffffffffffffff16610edb611078565b73ffffffffffffffffffffffffffffffffffffffff1614610f31576040517f08c379a0000000000000000000000000000000000000000000000000000000008152600401610f2890614580565b60405180910390fd5b600073ffffffffffffffffffffffffffffffffffffffff1660c960009054906101000a900473ffffffffffffffffffffffffffffffffffffffff1673ffffffffffffffffffffffffffffffffffffffff167f8be0079c531659141344cd1fd0a4f28419497f9722a3daafe3b4186f6b6457e060405160405180910390a3600060c960006101000a81548173ffffffffffffffffffffffffffffffffffffffff021916908373ffffffffffffffffffffffffffffffffffffffff160217905550565b610ffa6123a2565b73ffffffffffffffffffffffffffffffffffffffff16611018611078565b73ffffffffffffffffffffffffffffffffffffffff161461106e576040517f08c379a000000000000000000000000000000000000000000000000000000000815260040161106590614580565b60405180910390fd5b611076612582565b565b600060c960009054906101000a900473ffffffffffffffffffffffffffffffffffffffff16905090565b6110aa610e46565b156110ea576040517f08c379a00000000000000000000000000000000000000000000000000000000081526004016110e190614640565b60405180910390fd5b600060fd600083815260200190815260200160002060020154905060006111113384610524565b9050808214611155576040517f08c379a000000000000000000000000000000000000000000000000000000000815260040161114c90614400565b60405180910390fd5b600060fd600085815260200190815260200160002060000160009054906101000a900473ffffffffffffffffffffffffffffffffffffffff169050600060fd600086815260200190815260200160002060010154905060008290508073ffffffffffffffffffffffffffffffffffffffff166323b872dd3033856040518463ffffffff1660e01b81526004016111ed93929190614262565b600060405180830381600087803b15801561120757600080fd5b505af115801561121b573d6000803e3d6000fd5b5050505061122a338787612625565b600060fc60003373ffffffffffffffffffffffffffffffffffffffff1673ffffffffffffffffffffffffffffffffffffffff1681526020019081526020016000208054905090506000805b828110156113215760fc60003373ffffffffffffffffffffffffffffffffffffffff1673ffffffffffffffffffffffffffffffffffffffff16815260200190815260200160002081815481106112f4577f4e487b7100000000000000000000000000000000000000000000000000000000600052603260045260246000fd5b906000526020600020015489141561130e57809150611321565b808061131990614970565b915050611275565b5060fc60003373ffffffffffffffffffffffffffffffffffffffff1673ffffffffffffffffffffffffffffffffffffffff16815260200190815260200160002060018361136e9190614854565b815481106113a5577f4e487b7100000000000000000000000000000000000000000000000000000000600052603260045260246000fd5b906000526020600020015460fc60003373ffffffffffffffffffffffffffffffffffffffff1673ffffffffffffffffffffffffffffffffffffffff1681526020019081526020016000208281548110611427577f4e487b7100000000000000000000000000000000000000000000000000000000600052603260045260246000fd5b906000526020600020018190555060fc60003373ffffffffffffffffffffffffffffffffffffffff1673ffffffffffffffffffffffffffffffffffffffff1681526020019081526020016000208054806114aa577f4e487b7100000000000000000000000000000000000000000000000000000000600052603160045260246000fd5b60019003818190600052602060002001600090559055600060fe8054905090506000805b8281101561153d5760fe8181548110611510577f4e487b7100000000000000000000000000000000000000000000000000000000600052603260045260246000fd5b90600052602060002001548b141561152a5780915061153d565b808061153590614970565b9150506114ce565b5060fe60018361154d9190614854565b81548110611584577f4e487b7100000000000000000000000000000000000000000000000000000000600052603260045260246000fd5b906000526020600020015460fe82815481106115c9577f4e487b7100000000000000000000000000000000000000000000000000000000600052603260045260246000fd5b906000526020600020018190555060fe80548061160f577f4e487b7100000000000000000000000000000000000000000000000000000000600052603160045260246000fd5b6001900381819060005260206000200160009055905560fd60008b8152602001908152602001600020600080820160006101000a81549073ffffffffffffffffffffffffffffffffffffffff021916905560018201600090556002820160009055505050505050505050505050565b8173ffffffffffffffffffffffffffffffffffffffff1661169d6123a2565b73ffffffffffffffffffffffffffffffffffffffff1614156116f4576040517f08c379a00000000000000000000000000000000000000000000000000000000081526004016116eb906145c0565b60405180910390fd5b80606660006117016123a2565b73ffffffffffffffffffffffffffffffffffffffff1673ffffffffffffffffffffffffffffffffffffffff16815260200190815260200160002060008473ffffffffffffffffffffffffffffffffffffffff1673ffffffffffffffffffffffffffffffffffffffff16815260200190815260200160002060006101000a81548160ff0219169083151502179055508173ffffffffffffffffffffffffffffffffffffffff166117ae6123a2565b73ffffffffffffffffffffffffffffffffffffffff167f17307eab39ab6107e8899845ad3d59bd9653f200f220920489ca2b5937696c31836040516117f39190614383565b60405180910390a35050565b600080600060fd600085815260200190815260200160002060000160009054906101000a900473ffffffffffffffffffffffffffffffffffffffff1660fd60008681526020019081526020016000206001015460fd6000878152602001908152602001600020600201549250925092509193909250565b8060ff60003373ffffffffffffffffffffffffffffffffffffffff1673ffffffffffffffffffffffffffffffffffffffff1681526020019081526020016000205410156118f8576040517f08c379a00000000000000000000000000000000000000000000000000000000081526004016118ef906145a0565b60405180910390fd5b8060ff60003373ffffffffffffffffffffffffffffffffffffffff1673ffffffffffffffffffffffffffffffffffffffff16815260200190815260200160002060008282546119479190614854565b925050819055503373ffffffffffffffffffffffffffffffffffffffff166108fc829081150290604051600060405180830381858888f19350505050158015611994573d6000803e3d6000fd5b5050565b6119a0610e46565b156119e0576040517f08c379a00000000000000000000000000000000000000000000000000000000081526004016119d790614640565b60405180910390fd5b60008390503373ffffffffffffffffffffffffffffffffffffffff168173ffffffffffffffffffffffffffffffffffffffff16636352211e856040518263ffffffff1660e01b8152600401611a359190614660565b60206040518083038186803b158015611a4d57600080fd5b505afa158015611a61573d6000803e3d6000fd5b505050506040513d601f19601f82011682018060405250810190611a859190613553565b73ffffffffffffffffffffffffffffffffffffffff1614611adb576040517f08c379a0000000000000000000000000000000000000000000000000000000008152600401611ad290614420565b60405180910390fd5b8073ffffffffffffffffffffffffffffffffffffffff166323b872dd3330866040518463ffffffff1660e01b8152600401611b1893929190614262565b600060405180830381600087803b158015611b3257600080fd5b505af1158015611b46573d6000803e3d6000fd5b50505050611b5460fb61284d565b6000611b6060fb612863565b9050611b7d33828560405180602001604052806000815250612871565b611b856131d6565b85816000019073ffffffffffffffffffffffffffffffffffffffff16908173ffffffffffffffffffffffffffffffffffffffff168152505084816020018181525050838160400181815250508060fd600084815260200190815260200160002060008201518160000160006101000a81548173ffffffffffffffffffffffffffffffffffffffff021916908373ffffffffffffffffffffffffffffffffffffffff160217905550602082015181600101556040820151816002015590505060fc60003373ffffffffffffffffffffffffffffffffffffffff1673ffffffffffffffffffffffffffffffffffffffff16815260200190815260200160002082908060018154018082558091505060019003906000526020600020016000909190919091505560fe829080600181540180825580915050600190039060005260206000200160009091909190915055505050505050565b6000606660008473ffffffffffffffffffffffffffffffffffffffff1673ffffffffffffffffffffffffffffffffffffffff16815260200190815260200160002060008373ffffffffffffffffffffffffffffffffffffffff1673ffffffffffffffffffffffffffffffffffffffff16815260200190815260200160002060009054906101000a900460ff16905092915050565b600073ffffffffffffffffffffffffffffffffffffffff168473ffffffffffffffffffffffffffffffffffffffff161415611dde576040517f08c379a0000000000000000000000000000000000000000000000000000000008152600401611dd5906144e0565b60405180910390fd5b611de66123a2565b73ffffffffffffffffffffffffffffffffffffffff168573ffffffffffffffffffffffffffffffffffffffff161480611e2c5750611e2b85611e266123a2565b611cda565b5b611e6b576040517f08c379a0000000000000000000000000000000000000000000000000000000008152600401611e62906144a0565b60405180910390fd5b6000611e756123a2565b9050611e95818787611e8688612a08565b611e8f88612a08565b876123aa565b60006065600086815260200190815260200160002060008873ffffffffffffffffffffffffffffffffffffffff1673ffffffffffffffffffffffffffffffffffffffff16815260200190815260200160002054905083811015611f2d576040517f08c379a0000000000000000000000000000000000000000000000000000000008152600401611f2490614560565b60405180910390fd5b8381611f399190614854565b6065600087815260200190815260200160002060008973ffffffffffffffffffffffffffffffffffffffff1673ffffffffffffffffffffffffffffffffffffffff16815260200190815260200160002081905550836065600087815260200190815260200160002060008873ffffffffffffffffffffffffffffffffffffffff1673ffffffffffffffffffffffffffffffffffffffff1681526020019081526020016000206000828254611fed91906147fe565b925050819055508573ffffffffffffffffffffffffffffffffffffffff168773ffffffffffffffffffffffffffffffffffffffff168373ffffffffffffffffffffffffffffffffffffffff167fc3d58168c5ae7397731d063d5bbf3d657854427343f4c083240f7aacaa2d0f62888860405161206a92919061467b565b60405180910390a4612080828888888888612ace565b50505050505050565b6120916123a2565b73ffffffffffffffffffffffffffffffffffffffff166120af611078565b73ffffffffffffffffffffffffffffffffffffffff1614612105576040517f08c379a00000000000000000000000000000000000000000000000000000000081526004016120fc90614580565b60405180910390fd5b600073ffffffffffffffffffffffffffffffffffffffff168173ffffffffffffffffffffffffffffffffffffffff161415612175576040517f08c379a000000000000000000000000000000000000000000000000000000000815260040161216c90614460565b60405180910390fd5b8073ffffffffffffffffffffffffffffffffffffffff1660c960009054906101000a900473ffffffffffffffffffffffffffffffffffffffff1673ffffffffffffffffffffffffffffffffffffffff167f8be0079c531659141344cd1fd0a4f28419497f9722a3daafe3b4186f6b6457e060405160405180910390a38060c960006101000a81548173ffffffffffffffffffffffffffffffffffffffff021916908373ffffffffffffffffffffffffffffffffffffffff16021790555050565b600060019054906101000a900460ff168061225b575060008054906101000a900460ff16155b61229a576040517f08c379a000000000000000000000000000000000000000000000000000000000815260040161229190614520565b60405180910390fd5b60008060019054906101000a900460ff1615905080156122ea576001600060016101000a81548160ff02191690831515021790555060016000806101000a81548160ff0219169083151502179055505b6122f2612c9e565b6122fa612d77565b612302612e50565b61230b82612f44565b612313613027565b80156123345760008060016101000a81548160ff0219169083151502179055505b5050565b60007f01ffc9a7000000000000000000000000000000000000000000000000000000007bffffffffffffffffffffffffffffffffffffffffffffffffffffffff1916827bffffffffffffffffffffffffffffffffffffffffffffffffffffffff1916149050919050565b600033905090565b505050505050565b6123d18473ffffffffffffffffffffffffffffffffffffffff166131a9565b1561257a578373ffffffffffffffffffffffffffffffffffffffff1663bc197c8187878686866040518663ffffffff1660e01b81526004016124179594939291906141fa565b602060405180830381600087803b15801561243157600080fd5b505af192505050801561246257506040513d601f19601f8201168201806040525081019061245f9190613862565b60015b6124f15761246e614a64565b8061247957506124b6565b806040517f08c379a00000000000000000000000000000000000000000000000000000000081526004016124ad919061439e565b60405180910390fd5b6040517f08c379a00000000000000000000000000000000000000000000000000000000081526004016124e8906143c0565b60405180910390fd5b63bc197c8160e01b7bffffffffffffffffffffffffffffffffffffffffffffffffffffffff1916817bffffffffffffffffffffffffffffffffffffffffffffffffffffffff191614612578576040517f08c379a000000000000000000000000000000000000000000000000000000000815260040161256f906143e0565b60405180910390fd5b505b505050505050565b61258a610e46565b156125ca576040517f08c379a00000000000000000000000000000000000000000000000000000000081526004016125c1906144c0565b60405180910390fd5b6001609760006101000a81548160ff0219169083151502179055507f62e78cea01bee320cd4e420270b5ea74000d11b0c9f74754ebdbfc544b05a25861260e6123a2565b60405161261b91906141df565b60405180910390a1565b600073ffffffffffffffffffffffffffffffffffffffff168373ffffffffffffffffffffffffffffffffffffffff161415612695576040517f08c379a000000000000000000000000000000000000000000000000000000000815260040161268c90614540565b60405180910390fd5b600061269f6123a2565b90506126cf818560006126b187612a08565b6126ba87612a08565b604051806020016040528060008152506123aa565b60006065600085815260200190815260200160002060008673ffffffffffffffffffffffffffffffffffffffff1673ffffffffffffffffffffffffffffffffffffffff16815260200190815260200160002054905082811015612767576040517f08c379a000000000000000000000000000000000000000000000000000000000815260040161275e90614480565b60405180910390fd5b82816127739190614854565b6065600086815260200190815260200160002060008773ffffffffffffffffffffffffffffffffffffffff1673ffffffffffffffffffffffffffffffffffffffff16815260200190815260200160002081905550600073ffffffffffffffffffffffffffffffffffffffff168573ffffffffffffffffffffffffffffffffffffffff168373ffffffffffffffffffffffffffffffffffffffff167fc3d58168c5ae7397731d063d5bbf3d657854427343f4c083240f7aacaa2d0f62878760405161283e92919061467b565b60405180910390a45050505050565b6001816000016000828254019250508190555050565b600081600001549050919050565b600073ffffffffffffffffffffffffffffffffffffffff168473ffffffffffffffffffffffffffffffffffffffff1614156128e1576040517f08c379a00000000000000000000000000000000000000000000000000000000081526004016128d890614620565b60405180910390fd5b60006128eb6123a2565b905061290c816000876128fd88612a08565b61290688612a08565b876123aa565b826065600086815260200190815260200160002060008773ffffffffffffffffffffffffffffffffffffffff1673ffffffffffffffffffffffffffffffffffffffff168152602001908152602001600020600082825461296c91906147fe565b925050819055508473ffffffffffffffffffffffffffffffffffffffff16600073ffffffffffffffffffffffffffffffffffffffff168273ffffffffffffffffffffffffffffffffffffffff167fc3d58168c5ae7397731d063d5bbf3d657854427343f4c083240f7aacaa2d0f6287876040516129ea92919061467b565b60405180910390a4612a0181600087878787612ace565b5050505050565b60606000600167ffffffffffffffff811115612a4d577f4e487b7100000000000000000000000000000000000000000000000000000000600052604160045260246000fd5b604051908082528060200260200182016040528015612a7b5781602001602082028036833780820191505090505b5090508281600081518110612ab9577f4e487b7100000000000000000000000000000000000000000000000000000000600052603260045260246000fd5b60200260200101818152505080915050919050565b612aed8473ffffffffffffffffffffffffffffffffffffffff166131a9565b15612c96578373ffffffffffffffffffffffffffffffffffffffff1663f23a6e6187878686866040518663ffffffff1660e01b8152600401612b33959493929190614299565b602060405180830381600087803b158015612b4d57600080fd5b505af1925050508015612b7e57506040513d601f19601f82011682018060405250810190612b7b9190613862565b60015b612c0d57612b8a614a64565b80612b955750612bd2565b806040517f08c379a0000000000000000000000000000000000000000000000000000000008152600401612bc9919061439e565b60405180910390fd5b6040517f08c379a0000000000000000000000000000000000000000000000000000000008152600401612c04906143c0565b60405180910390fd5b63f23a6e6160e01b7bffffffffffffffffffffffffffffffffffffffffffffffffffffffff1916817bffffffffffffffffffffffffffffffffffffffffffffffffffffffff191614612c94576040517f08c379a0000000000000000000000000000000000000000000000000000000008152600401612c8b906143e0565b60405180910390fd5b505b505050505050565b600060019054906101000a900460ff1680612cc4575060008054906101000a900460ff16155b612d03576040517f08c379a0000000000000000000000000000000000000000000000000000000008152600401612cfa90614520565b60405180910390fd5b60008060019054906101000a900460ff161590508015612d53576001600060016101000a81548160ff02191690831515021790555060016000806101000a81548160ff0219169083151502179055505b8015612d745760008060016101000a81548160ff0219169083151502179055505b50565b600060019054906101000a900460ff1680612d9d575060008054906101000a900460ff16155b612ddc576040517f08c379a0000000000000000000000000000000000000000000000000000000008152600401612dd390614520565b60405180910390fd5b60008060019054906101000a900460ff161590508015612e2c576001600060016101000a81548160ff02191690831515021790555060016000806101000a81548160ff0219169083151502179055505b8015612e4d5760008060016101000a81548160ff0219169083151502179055505b50565b600060019054906101000a900460ff1680612e76575060008054906101000a900460ff16155b612eb5576040517f08c379a0000000000000000000000000000000000000000000000000000000008152600401612eac90614520565b60405180910390fd5b60008060019054906101000a900460ff161590508015612f05576001600060016101000a81548160ff02191690831515021790555060016000806101000a81548160ff0219169083151502179055505b6000609760006101000a81548160ff0219169083151502179055508015612f415760008060016101000a81548160ff0219169083151502179055505b50565b600060019054906101000a900460ff1680612f6a575060008054906101000a900460ff16155b612fa9576040517f08c379a0000000000000000000000000000000000000000000000000000000008152600401612fa090614520565b60405180910390fd5b60008060019054906101000a900460ff161590508015612ff9576001600060016101000a81548160ff02191690831515021790555060016000806101000a81548160ff0219169083151502179055505b613002826131bc565b80156130235760008060016101000a81548160ff0219169083151502179055505b5050565b600060019054906101000a900460ff168061304d575060008054906101000a900460ff16155b61308c576040517f08c379a000000000000000000000000000000000000000000000000000000000815260040161308390614520565b60405180910390fd5b60008060019054906101000a900460ff1615905080156130dc576001600060016101000a81548160ff02191690831515021790555060016000806101000a81548160ff0219169083151502179055505b60006130e66123a2565b90508060c960006101000a81548173ffffffffffffffffffffffffffffffffffffffff021916908373ffffffffffffffffffffffffffffffffffffffff1602179055508073ffffffffffffffffffffffffffffffffffffffff16600073ffffffffffffffffffffffffffffffffffffffff167f8be0079c531659141344cd1fd0a4f28419497f9722a3daafe3b4186f6b6457e060405160405180910390a35080156131a65760008060016101000a81548160ff0219169083151502179055505b50565b600080823b905060008111915050919050565b80606790805190602001906131d292919061320d565b5050565b6040518060600160405280600073ffffffffffffffffffffffffffffffffffffffff16815260200160008152602001600081525090565b8280546132199061493e565b90600052602060002090601f01602090048101928261323b5760008555613282565b82601f1061325457805160ff1916838001178555613282565b82800160010185558215613282579182015b82811115613281578251825591602001919060010190613266565b5b50905061328f9190613293565b5090565b5b808211156132ac576000816000905550600101613294565b5090565b60006132c36132be846146d5565b6146a4565b905080838252602082019050828560208602820111156132e257600080fd5b60005b8581101561331257816132f88882613404565b8452602084019350602083019250506001810190506132e5565b5050509392505050565b600061332f61332a84614701565b6146a4565b9050808382526020820190508285602086028201111561334e57600080fd5b60005b8581101561337e57816133648882613515565b845260208401935060208301925050600181019050613351565b5050509392505050565b600061339b6133968461472d565b6146a4565b9050828152602081018484840111156133b357600080fd5b6133be8482856148fc565b509392505050565b60006133d96133d48461475d565b6146a4565b9050828152602081018484840111156133f157600080fd5b6133fc8482856148fc565b509392505050565b60008135905061341381614b1a565b92915050565b60008151905061342881614b1a565b92915050565b600082601f83011261343f57600080fd5b813561344f8482602086016132b0565b91505092915050565b600082601f83011261346957600080fd5b813561347984826020860161331c565b91505092915050565b60008135905061349181614b31565b92915050565b6000813590506134a681614b48565b92915050565b6000815190506134bb81614b48565b92915050565b600082601f8301126134d257600080fd5b81356134e2848260208601613388565b91505092915050565b600082601f8301126134fc57600080fd5b813561350c8482602086016133c6565b91505092915050565b60008135905061352481614b5f565b92915050565b60006020828403121561353c57600080fd5b600061354a84828501613404565b91505092915050565b60006020828403121561356557600080fd5b600061357384828501613419565b91505092915050565b6000806040838503121561358f57600080fd5b600061359d85828601613404565b92505060206135ae85828601613404565b9150509250929050565b600080600080600060a086880312156135d057600080fd5b60006135de88828901613404565b95505060206135ef88828901613404565b945050604086013567ffffffffffffffff81111561360c57600080fd5b61361888828901613458565b935050606086013567ffffffffffffffff81111561363557600080fd5b61364188828901613458565b925050608086013567ffffffffffffffff81111561365e57600080fd5b61366a888289016134c1565b9150509295509295909350565b600080600080600060a0868803121561368f57600080fd5b600061369d88828901613404565b95505060206136ae88828901613404565b94505060406136bf88828901613515565b93505060606136d088828901613515565b925050608086013567ffffffffffffffff8111156136ed57600080fd5b6136f9888289016134c1565b9150509295509295909350565b6000806040838503121561371957600080fd5b600061372785828601613404565b925050602061373885828601613482565b9150509250929050565b6000806040838503121561375557600080fd5b600061376385828601613404565b925050602061377485828601613515565b9150509250929050565b60008060006060848603121561379357600080fd5b60006137a186828701613404565b93505060206137b286828701613515565b92505060406137c386828701613515565b9150509250925092565b600080604083850312156137e057600080fd5b600083013567ffffffffffffffff8111156137fa57600080fd5b6138068582860161342e565b925050602083013567ffffffffffffffff81111561382357600080fd5b61382f85828601613458565b9150509250929050565b60006020828403121561384b57600080fd5b600061385984828501613497565b91505092915050565b60006020828403121561387457600080fd5b6000613882848285016134ac565b91505092915050565b60006020828403121561389d57600080fd5b600082013567ffffffffffffffff8111156138b757600080fd5b6138c3848285016134eb565b91505092915050565b6000602082840312156138de57600080fd5b60006138ec84828501613515565b91505092915050565b600061390183836141c1565b60208301905092915050565b61391681614888565b82525050565b60006139278261479d565b61393181856147cb565b935061393c8361478d565b8060005b8381101561396d57815161395488826138f5565b975061395f836147be565b925050600181019050613940565b5085935050505092915050565b6139838161489a565b82525050565b6000613994826147a8565b61399e81856147dc565b93506139ae81856020860161490b565b6139b781614a46565b840191505092915050565b60006139cd826147b3565b6139d781856147ed565b93506139e781856020860161490b565b6139f081614a46565b840191505092915050565b6000613a086034836147ed565b91507f455243313135353a207472616e7366657220746f206e6f6e204552433131353560008301527f526563656976657220696d706c656d656e7465720000000000000000000000006020830152604082019050919050565b6000613a6e6028836147ed565b91507f455243313135353a204552433131353552656365697665722072656a6563746560008301527f6420746f6b656e730000000000000000000000000000000000000000000000006020830152604082019050919050565b6000613ad4602b836147ed565b91507f6d6573736167652073656e6465722068617320746f206f776e20616c6c206f6660008301527f20746865207368617265730000000000000000000000000000000000000000006020830152604082019050919050565b6000613b3a602a836147ed565b91507f6d73672073656e6465722068617320746f206f776e2074686520746f6b656e2060008301527f746f206465706f736974000000000000000000000000000000000000000000006020830152604082019050919050565b6000613ba0602b836147ed565b91507f455243313135353a2062616c616e636520717565727920666f7220746865207a60008301527f65726f20616464726573730000000000000000000000000000000000000000006020830152604082019050919050565b6000613c066026836147ed565b91507f4f776e61626c653a206e6577206f776e657220697320746865207a65726f206160008301527f64647265737300000000000000000000000000000000000000000000000000006020830152604082019050919050565b6000613c6c6024836147ed565b91507f455243313135353a206275726e20616d6f756e7420657863656564732062616c60008301527f616e6365000000000000000000000000000000000000000000000000000000006020830152604082019050919050565b6000613cd26029836147ed565b91507f455243313135353a2063616c6c6572206973206e6f74206f776e6572206e6f7260008301527f20617070726f76656400000000000000000000000000000000000000000000006020830152604082019050919050565b6000613d386010836147ed565b91507f5061757361626c653a20706175736564000000000000000000000000000000006000830152602082019050919050565b6000613d786025836147ed565b91507f455243313135353a207472616e7366657220746f20746865207a65726f20616460008301527f64726573730000000000000000000000000000000000000000000000000000006020830152604082019050919050565b6000613dde6032836147ed565b91507f455243313135353a207472616e736665722063616c6c6572206973206e6f742060008301527f6f776e6572206e6f7220617070726f76656400000000000000000000000000006020830152604082019050919050565b6000613e44602e836147ed565b91507f496e697469616c697a61626c653a20636f6e747261637420697320616c72656160008301527f647920696e697469616c697a65640000000000000000000000000000000000006020830152604082019050919050565b6000613eaa6023836147ed565b91507f455243313135353a206275726e2066726f6d20746865207a65726f206164647260008301527f65737300000000000000000000000000000000000000000000000000000000006020830152604082019050919050565b6000613f10602a836147ed565b91507f455243313135353a20696e73756666696369656e742062616c616e636520666f60008301527f72207472616e73666572000000000000000000000000000000000000000000006020830152604082019050919050565b6000613f766020836147ed565b91507f4f776e61626c653a2063616c6c6572206973206e6f7420746865206f776e65726000830152602082019050919050565b6000613fb66019836147ed565b91507f4554482062616c616e6365206973206e6f7420656e6f756768000000000000006000830152602082019050919050565b6000613ff66029836147ed565b91507f455243313135353a2073657474696e6720617070726f76616c2073746174757360008301527f20666f722073656c6600000000000000000000000000000000000000000000006020830152604082019050919050565b600061405c6029836147ed565b91507f455243313135353a206163636f756e747320616e6420696473206c656e67746860008301527f206d69736d6174636800000000000000000000000000000000000000000000006020830152604082019050919050565b60006140c26028836147ed565b91507f455243313135353a2069647320616e6420616d6f756e7473206c656e6774682060008301527f6d69736d617463680000000000000000000000000000000000000000000000006020830152604082019050919050565b60006141286021836147ed565b91507f455243313135353a206d696e7420746f20746865207a65726f2061646472657360008301527f73000000000000000000000000000000000000000000000000000000000000006020830152604082019050919050565b600061418e6018836147ed565b91507f4e6f7420616c6c6f776564207768696c652070617573656400000000000000006000830152602082019050919050565b6141ca816148f2565b82525050565b6141d9816148f2565b82525050565b60006020820190506141f4600083018461390d565b92915050565b600060a08201905061420f600083018861390d565b61421c602083018761390d565b818103604083015261422e818661391c565b90508181036060830152614242818561391c565b905081810360808301526142568184613989565b90509695505050505050565b6000606082019050614277600083018661390d565b614284602083018561390d565b61429160408301846141d0565b949350505050565b600060a0820190506142ae600083018861390d565b6142bb602083018761390d565b6142c860408301866141d0565b6142d560608301856141d0565b81810360808301526142e78184613989565b90509695505050505050565b6000606082019050614308600083018661390d565b61431560208301856141d0565b61432260408301846141d0565b949350505050565b60006020820190508181036000830152614344818461391c565b905092915050565b60006040820190508181036000830152614366818561391c565b9050818103602083015261437a818461391c565b90509392505050565b6000602082019050614398600083018461397a565b92915050565b600060208201905081810360008301526143b881846139c2565b905092915050565b600060208201905081810360008301526143d9816139fb565b9050919050565b600060208201905081810360008301526143f981613a61565b9050919050565b6000602082019050818103600083015261441981613ac7565b9050919050565b6000602082019050818103600083015261443981613b2d565b9050919050565b6000602082019050818103600083015261445981613b93565b9050919050565b6000602082019050818103600083015261447981613bf9565b9050919050565b6000602082019050818103600083015261449981613c5f565b9050919050565b600060208201905081810360008301526144b981613cc5565b9050919050565b600060208201905081810360008301526144d981613d2b565b9050919050565b600060208201905081810360008301526144f981613d6b565b9050919050565b6000602082019050818103600083015261451981613dd1565b9050919050565b6000602082019050818103600083015261453981613e37565b9050919050565b6000602082019050818103600083015261455981613e9d565b9050919050565b6000602082019050818103600083015261457981613f03565b9050919050565b6000602082019050818103600083015261459981613f69565b9050919050565b600060208201905081810360008301526145b981613fa9565b9050919050565b600060208201905081810360008301526145d981613fe9565b9050919050565b600060208201905081810360008301526145f98161404f565b9050919050565b60006020820190508181036000830152614619816140b5565b9050919050565b600060208201905081810360008301526146398161411b565b9050919050565b6000602082019050818103600083015261465981614181565b9050919050565b600060208201905061467560008301846141d0565b92915050565b600060408201905061469060008301856141d0565b61469d60208301846141d0565b9392505050565b6000604051905081810181811067ffffffffffffffff821117156146cb576146ca614a17565b5b8060405250919050565b600067ffffffffffffffff8211156146f0576146ef614a17565b5b602082029050602081019050919050565b600067ffffffffffffffff82111561471c5761471b614a17565b5b602082029050602081019050919050565b600067ffffffffffffffff82111561474857614747614a17565b5b601f19601f8301169050602081019050919050565b600067ffffffffffffffff82111561477857614777614a17565b5b601f19601f8301169050602081019050919050565b6000819050602082019050919050565b600081519050919050565b600081519050919050565b600081519050919050565b6000602082019050919050565b600082825260208201905092915050565b600082825260208201905092915050565b600082825260208201905092915050565b6000614809826148f2565b9150614814836148f2565b9250827fffffffffffffffffffffffffffffffffffffffffffffffffffffffffffffffff03821115614849576148486149b9565b5b828201905092915050565b600061485f826148f2565b915061486a836148f2565b92508282101561487d5761487c6149b9565b5b828203905092915050565b6000614893826148d2565b9050919050565b60008115159050919050565b60007fffffffff0000000000000000000000000000000000000000000000000000000082169050919050565b600073ffffffffffffffffffffffffffffffffffffffff82169050919050565b6000819050919050565b82818337600083830152505050565b60005b8381101561492957808201518184015260208101905061490e565b83811115614938576000848401525b50505050565b6000600282049050600182168061495657607f821691505b6020821081141561496a576149696149e8565b5b50919050565b600061497b826148f2565b91507fffffffffffffffffffffffffffffffffffffffffffffffffffffffffffffffff8214156149ae576149ad6149b9565b5b600182019050919050565b7f4e487b7100000000000000000000000000000000000000000000000000000000600052601160045260246000fd5b7f4e487b7100000000000000000000000000000000000000000000000000000000600052602260045260246000fd5b7f4e487b7100000000000000000000000000000000000000000000000000000000600052604160045260246000fd5b6000601f19601f8301169050919050565b60008160e01c9050919050565b600060443d1015614a7457614b17565b60046000803e614a85600051614a57565b6308c379a08114614a965750614b17565b60405160043d036004823e80513d602482011167ffffffffffffffff82111715614ac257505050614b17565b808201805167ffffffffffffffff811115614ae1575050505050614b17565b8060208301013d8501811115614afc57505050505050614b17565b614b0582614a46565b60208401016040528296505050505050505b90565b614b2381614888565b8114614b2e57600080fd5b50565b614b3a8161489a565b8114614b4557600080fd5b50565b614b51816148a6565b8114614b5c57600080fd5b50565b614b68816148f2565b8114614b7357600080fd5b5056fea26469706673582212208eab33dde3f30bd2418be4ec2d4f868ba927c2a551b17a35d5ebe3808d9915cc64736f6c63430008000033",
  "immutableReferences": {},
  "source": "// SPDX-License-Identifier: MIT\n\npragma solidity ^0.8.0;\n\nimport \"@openzeppelin/contracts-upgradeable/token/ERC1155/ERC1155Upgradeable.sol\";\nimport \"@openzeppelin/contracts-upgradeable/security/PausableUpgradeable.sol\";\nimport \"@openzeppelin/contracts-upgradeable/proxy/utils/Initializable.sol\";\nimport \"@openzeppelin/contracts/token/ERC721/IERC721.sol\";\nimport \"@openzeppelin/contracts-upgradeable/utils/CountersUpgradeable.sol\";\nimport \"@openzeppelin/contracts-upgradeable/access/OwnableUpgradeable.sol\";\n\ncontract NftFractionsDex is\n    Initializable,\n    ERC1155Upgradeable,\n    PausableUpgradeable,\n    OwnableUpgradeable\n{\n    using CountersUpgradeable for CountersUpgradeable.Counter;\n    CountersUpgradeable.Counter private _ids;\n\n    struct Token {\n        address erc721ContractAddress;\n        uint256 erc721TokenId;\n        uint256 totalFractionsAmount;\n    }\n\n    mapping(address => uint256[]) tokenIdsByShareOwner;\n    mapping(uint256 => Token) tokens;\n    uint256[] tokenIds;\n    mapping(address => uint256) ethBalance;\n\n    function initialize(string memory uri_) public initializer {\n        __Context_init_unchained();\n        __ERC165_init_unchained();\n        __Pausable_init_unchained();\n        __ERC1155_init_unchained(uri_);\n        __Ownable_init_unchained();\n    }\n\n    /**\n     * @dev Deposit an ERC721 token and mints an ERC1155 token with the given fractions amount\n     * the original ERC721 token is transferred to the address of this smart contract.\n     * Before calling this function the user has to call the apporve function on the original NFT contract and\n     * approve this smart contract to transfer his NFT.\n     *\n     * Requirements:\n     * - msg.sender has to own the token that is deposited\n     * - the contract is not paused\n     */\n    function depositNft(\n        address erc721ContractAddress,\n        uint256 erc721TokenId,\n        uint256 fractionsAmountToMint\n    ) external {\n        require(!paused(), \"Not allowed while paused\");\n        IERC721 erc721Contract = IERC721(erc721ContractAddress);\n        require(\n            erc721Contract.ownerOf(erc721TokenId) == msg.sender,\n            \"msg sender has to own the token to deposit\"\n        );\n        erc721Contract.transferFrom(msg.sender, address(this), erc721TokenId);\n        _ids.increment();\n        uint256 newItemId = _ids.current();\n        _mint(msg.sender, newItemId, fractionsAmountToMint, \"\");\n        Token memory token;\n        token.erc721ContractAddress = erc721ContractAddress;\n        token.erc721TokenId = erc721TokenId;\n        token.totalFractionsAmount = fractionsAmountToMint;\n        tokens[newItemId] = token;\n        tokenIdsByShareOwner[msg.sender].push(newItemId);\n        tokenIds.push(newItemId);\n    }\n\n    /**\n     * @dev Withdraw an ERC721 token from this contract. The message sender has to own all of the shares in\n     * the correspondign ERC1155 token.\n     * Successfull withdraw means:\n     * - burning the ERC1155 token\n     * - transfering the ERC721 token to the owner (msg.sender) = owner of all shares in the ERC1155 token\n     *\n     * Requirements:\n     * - msg.sender has to own all shares in the corresponding ERC1155 token\n     * - the contract is not paused\n     */\n    function withdrawNft(uint256 tokenId) external {\n        require(!paused(), \"Not allowed while paused\");\n        uint256 totalFractionsAmount = tokens[tokenId].totalFractionsAmount;\n        uint256 sendersAmount = balanceOf(msg.sender, tokenId);\n        require(\n            totalFractionsAmount == sendersAmount,\n            \"message sender has to own all of the shares\"\n        );\n        //sends the original token in the ERC721 contract\n        address erc721ContractAddress = tokens[tokenId].erc721ContractAddress;\n        uint256 erc721TokenId = tokens[tokenId].erc721TokenId;\n        IERC721 erc721Contract = IERC721(erc721ContractAddress);\n        erc721Contract.transferFrom(address(this), msg.sender, erc721TokenId);\n        //burns the ERC1155 token\n        _burn(msg.sender, tokenId, totalFractionsAmount);\n        //deletes the ERC1155 token from the tokenIdsByShareOwner array\n        uint256 nrOfTokensByShareOwner =\n            tokenIdsByShareOwner[msg.sender].length;\n        uint256 tokenIdPositionInShareOwner;\n        for (uint256 i; i < nrOfTokensByShareOwner; i++) {\n            if (tokenId == tokenIdsByShareOwner[msg.sender][i]) {\n                tokenIdPositionInShareOwner = i;\n                break;\n            }\n        }\n        tokenIdsByShareOwner[msg.sender][\n            tokenIdPositionInShareOwner\n        ] = tokenIdsByShareOwner[msg.sender][nrOfTokensByShareOwner - 1];\n        tokenIdsByShareOwner[msg.sender].pop();\n        //deletes the ERC1155 token from the tokenIds array\n        uint256 nrOfTokens = tokenIds.length;\n        uint256 tokenIdPosition;\n        for (uint256 i; i < nrOfTokens; i++) {\n            if (tokenId == tokenIds[i]) {\n                tokenIdPosition = i;\n                break;\n            }\n        }\n        tokenIds[tokenIdPosition] = tokenIds[nrOfTokens - 1];\n        tokenIds.pop();\n        //deletes the token struct\n        delete tokens[tokenId];\n    }\n\n    /**\n     * @dev deposit ETH for trading\n     */\n    function depositEth() public payable {\n        ethBalance[msg.sender] += msg.value;\n    }\n\n    /**\n     * @dev Withdraw ETH\n     *\n     * Requirements:\n     * - msg.sender has to have equal or more ETH than the amount to withdraw\n     */\n    function withdrawEth(uint256 amount) public {\n        require(ethBalance[msg.sender] >= amount, \"ETH balance is not enough\");\n        ethBalance[msg.sender] -= amount;\n        payable(msg.sender).transfer(amount);\n    }\n\n    /**\n     * @dev returns the ETH balance of the owner\n     */\n    function getEthBalance(address owner) public view returns (uint256) {\n        return ethBalance[owner];\n    }\n\n    /**\n     * @dev returns relevant token data:\n     * - original ERC721 contract address\n     * - original ERC721 token id\n     * - amount of fractions minted\n     */\n    function getTokenData(uint256 _tokenId)\n        public\n        view\n        returns (\n            address erc721ContractAddress,\n            uint256 erc721TokenId,\n            uint256 totalFractionsAmount\n        )\n    {\n        return (\n            tokens[_tokenId].erc721ContractAddress,\n            tokens[_tokenId].erc721TokenId,\n            tokens[_tokenId].totalFractionsAmount\n        );\n    }\n\n    function pause() public onlyOwner() {\n        _pause();\n    }\n\n    /**\n     * @dev returns the ERC1155 tokenIds that the shareOwner has shares in\n     */\n    function getTokenIdsByShareOwner(address shareOwner)\n        public\n        view\n        returns (uint256[] memory)\n    {\n        return tokenIdsByShareOwner[shareOwner];\n    }\n\n    /**\n     * @dev returns all ERC1155 tokenIds managed by this contract\n     */\n    function getTokenIds() public view returns (uint256[] memory) {\n        return tokenIds;\n    }\n}\n",
  "sourcePath": "/Users/szabolcs/Documents/Personal/Szakmai/Ethereum/nft-fractions-dex/contracts/NftFractionsDex.sol",
  "compiler": {
    "name": "solc",
    "version": "0.8.0+commit.c7dfd78e.Emscripten.clang"
  },
  "schemaVersion": "3.3.4",
  "updatedAt": "2021-04-13T12:35:21.130Z",
  "networkType": "ethereum",
  "devdoc": {
    "kind": "dev",
    "methods": {
      "balanceOf(address,uint256)": {
        "details": "See {IERC1155-balanceOf}. Requirements: - `account` cannot be the zero address."
      },
      "balanceOfBatch(address[],uint256[])": {
        "details": "See {IERC1155-balanceOfBatch}. Requirements: - `accounts` and `ids` must have the same length."
      },
      "depositEth()": {
        "details": "deposit ETH for trading"
      },
      "depositNft(address,uint256,uint256)": {
        "details": "Deposit an ERC721 token and mints an ERC1155 token with the given fractions amount the original ERC721 token is transferred to the address of this smart contract. Before calling this function the user has to call the apporve function on the original NFT contract and approve this smart contract to transfer his NFT. Requirements: - msg.sender has to own the token that is deposited - the contract is not paused"
      },
      "getEthBalance(address)": {
        "details": "returns the ETH balance of the owner"
      },
      "getTokenData(uint256)": {
        "details": "returns relevant token data: - original ERC721 contract address - original ERC721 token id - amount of fractions minted"
      },
      "getTokenIds()": {
        "details": "returns all ERC1155 tokenIds managed by this contract"
      },
      "getTokenIdsByShareOwner(address)": {
        "details": "returns the ERC1155 tokenIds that the shareOwner has shares in"
      },
      "isApprovedForAll(address,address)": {
        "details": "See {IERC1155-isApprovedForAll}."
      },
      "owner()": {
        "details": "Returns the address of the current owner."
      },
      "paused()": {
        "details": "Returns true if the contract is paused, and false otherwise."
      },
      "renounceOwnership()": {
        "details": "Leaves the contract without owner. It will not be possible to call `onlyOwner` functions anymore. Can only be called by the current owner. NOTE: Renouncing ownership will leave the contract without an owner, thereby removing any functionality that is only available to the owner."
      },
      "safeBatchTransferFrom(address,address,uint256[],uint256[],bytes)": {
        "details": "See {IERC1155-safeBatchTransferFrom}."
      },
      "safeTransferFrom(address,address,uint256,uint256,bytes)": {
        "details": "See {IERC1155-safeTransferFrom}."
      },
      "setApprovalForAll(address,bool)": {
        "details": "See {IERC1155-setApprovalForAll}."
      },
      "supportsInterface(bytes4)": {
        "details": "See {IERC165-supportsInterface}."
      },
      "transferOwnership(address)": {
        "details": "Transfers ownership of the contract to a new account (`newOwner`). Can only be called by the current owner."
      },
      "uri(uint256)": {
        "details": "See {IERC1155MetadataURI-uri}. This implementation returns the same URI for *all* token types. It relies on the token type ID substitution mechanism https://eips.ethereum.org/EIPS/eip-1155#metadata[defined in the EIP]. Clients calling this function must replace the `\\{id\\}` substring with the actual token type ID."
      },
      "withdrawEth(uint256)": {
        "details": "Withdraw ETH Requirements: - msg.sender has to have equal or more ETH than the amount to withdraw"
      },
      "withdrawNft(uint256)": {
        "details": "Withdraw an ERC721 token from this contract. The message sender has to own all of the shares in the correspondign ERC1155 token. Successfull withdraw means: - burning the ERC1155 token - transfering the ERC721 token to the owner (msg.sender) = owner of all shares in the ERC1155 token Requirements: - msg.sender has to own all shares in the corresponding ERC1155 token - the contract is not paused"
      }
    },
    "version": 1
  },
  "userdoc": {
    "kind": "user",
    "methods": {},
    "version": 1
  }
}